{
	"TNFT.sol": {
		"TNFT": {
			"abi": [
				{
					"anonymous": false,
					"inputs": [
						{
							"indexed": true,
							"internalType": "address",
							"name": "owner",
							"type": "address"
						},
						{
							"indexed": true,
							"internalType": "address",
							"name": "approved",
							"type": "address"
						},
						{
							"indexed": true,
							"internalType": "uint256",
							"name": "tokenId",
							"type": "uint256"
						}
					],
					"name": "Approval",
					"type": "event"
				},
				{
					"anonymous": false,
					"inputs": [
						{
							"indexed": true,
							"internalType": "address",
							"name": "owner",
							"type": "address"
						},
						{
							"indexed": true,
							"internalType": "address",
							"name": "operator",
							"type": "address"
						},
						{
							"indexed": false,
							"internalType": "bool",
							"name": "approved",
							"type": "bool"
						}
					],
					"name": "ApprovalForAll",
					"type": "event"
				},
				{
					"anonymous": false,
					"inputs": [
						{
							"indexed": true,
							"internalType": "address",
							"name": "from",
							"type": "address"
						},
						{
							"indexed": true,
							"internalType": "address",
							"name": "to",
							"type": "address"
						},
						{
							"indexed": true,
							"internalType": "uint256",
							"name": "tokenId",
							"type": "uint256"
						}
					],
					"name": "Transfer",
					"type": "event"
				},
				{
					"anonymous": false,
					"inputs": [
						{
							"indexed": true,
							"internalType": "address",
							"name": "newOwner",
							"type": "address"
						}
					],
					"name": "UpdateOwner",
					"type": "event"
				},
				{
					"inputs": [
						{
							"internalType": "address",
							"name": "spender",
							"type": "address"
						},
						{
							"internalType": "uint256",
							"name": "id",
							"type": "uint256"
						}
					],
					"name": "approve",
					"outputs": [],
					"stateMutability": "nonpayable",
					"type": "function"
				},
				{
					"inputs": [
						{
							"internalType": "address",
							"name": "owner",
							"type": "address"
						}
					],
					"name": "balanceOf",
					"outputs": [
						{
							"internalType": "uint256",
							"name": "",
							"type": "uint256"
						}
					],
					"stateMutability": "view",
					"type": "function"
				},
				{
					"inputs": [
						{
							"internalType": "uint256",
							"name": "id",
							"type": "uint256"
						},
						{
							"internalType": "address",
							"name": "token",
							"type": "address"
						},
						{
							"internalType": "uint256",
							"name": "amount",
							"type": "uint256"
						}
					],
					"name": "depositReward",
					"outputs": [],
					"stateMutability": "nonpayable",
					"type": "function"
				},
				{
					"inputs": [
						{
							"internalType": "uint256",
							"name": "id",
							"type": "uint256"
						}
					],
					"name": "getApproved",
					"outputs": [
						{
							"internalType": "address",
							"name": "",
							"type": "address"
						}
					],
					"stateMutability": "view",
					"type": "function"
				},
				{
					"inputs": [
						{
							"internalType": "address",
							"name": "",
							"type": "address"
						},
						{
							"internalType": "address",
							"name": "",
							"type": "address"
						}
					],
					"name": "isApprovedForAll",
					"outputs": [
						{
							"internalType": "bool",
							"name": "",
							"type": "bool"
						}
					],
					"stateMutability": "view",
					"type": "function"
				},
				{
					"inputs": [],
					"name": "mint",
					"outputs": [],
					"stateMutability": "nonpayable",
					"type": "function"
				},
				{
					"inputs": [],
					"name": "owner",
					"outputs": [
						{
							"internalType": "address",
							"name": "",
							"type": "address"
						}
					],
					"stateMutability": "view",
					"type": "function"
				},
				{
					"inputs": [
						{
							"internalType": "uint256",
							"name": "id",
							"type": "uint256"
						}
					],
					"name": "ownerOf",
					"outputs": [
						{
							"internalType": "address",
							"name": "owner",
							"type": "address"
						}
					],
					"stateMutability": "view",
					"type": "function"
				},
				{
					"inputs": [
						{
							"internalType": "uint256",
							"name": "id",
							"type": "uint256"
						},
						{
							"internalType": "address",
							"name": "token",
							"type": "address"
						}
					],
					"name": "rewardBalance",
					"outputs": [
						{
							"internalType": "uint256",
							"name": "",
							"type": "uint256"
						}
					],
					"stateMutability": "view",
					"type": "function"
				},
				{
					"inputs": [
						{
							"internalType": "address",
							"name": "from",
							"type": "address"
						},
						{
							"internalType": "address",
							"name": "to",
							"type": "address"
						},
						{
							"internalType": "uint256",
							"name": "id",
							"type": "uint256"
						}
					],
					"name": "safeTransferFrom",
					"outputs": [],
					"stateMutability": "nonpayable",
					"type": "function"
				},
				{
					"inputs": [
						{
							"internalType": "address",
							"name": "from",
							"type": "address"
						},
						{
							"internalType": "address",
							"name": "to",
							"type": "address"
						},
						{
							"internalType": "uint256",
							"name": "id",
							"type": "uint256"
						},
						{
							"internalType": "bytes",
							"name": "data",
							"type": "bytes"
						}
					],
					"name": "safeTransferFrom",
					"outputs": [],
					"stateMutability": "nonpayable",
					"type": "function"
				},
				{
					"inputs": [
						{
							"internalType": "address",
							"name": "operator",
							"type": "address"
						},
						{
							"internalType": "bool",
							"name": "approved",
							"type": "bool"
						}
					],
					"name": "setApprovalForAll",
					"outputs": [],
					"stateMutability": "nonpayable",
					"type": "function"
				},
				{
					"inputs": [
						{
							"internalType": "bytes4",
							"name": "interfaceId",
							"type": "bytes4"
						}
					],
					"name": "supportsInterface",
					"outputs": [
						{
							"internalType": "bool",
							"name": "",
							"type": "bool"
						}
					],
					"stateMutability": "pure",
					"type": "function"
				},
				{
					"inputs": [
						{
							"internalType": "address",
							"name": "from",
							"type": "address"
						},
						{
							"internalType": "address",
							"name": "to",
							"type": "address"
						},
						{
							"internalType": "uint256",
							"name": "id",
							"type": "uint256"
						}
					],
					"name": "transferFrom",
					"outputs": [],
					"stateMutability": "nonpayable",
					"type": "function"
				},
				{
					"inputs": [
						{
							"internalType": "address",
							"name": "newOwner",
							"type": "address"
						}
					],
					"name": "updateOwner",
					"outputs": [],
					"stateMutability": "nonpayable",
					"type": "function"
				},
				{
					"inputs": [
						{
							"internalType": "uint256",
							"name": "id",
							"type": "uint256"
						},
						{
							"internalType": "address",
							"name": "token",
							"type": "address"
						},
						{
							"internalType": "uint256",
							"name": "amount",
							"type": "uint256"
						}
					],
					"name": "withdrawReward",
					"outputs": [],
					"stateMutability": "nonpayable",
					"type": "function"
				}
			],
			"devdoc": {
				"events": {
					"Approval(address,address,uint256)": {
						"details": "Emitted when `owner` enables `approved` to manage the `tokenId` token."
					},
					"ApprovalForAll(address,address,bool)": {
						"details": "Emitted when `owner` enables or disables (`approved`) `operator` to manage all of its assets."
					},
					"Transfer(address,address,uint256)": {
						"details": "Emitted when `tokenId` token is transferred from `from` to `to`."
					}
				},
				"kind": "dev",
				"methods": {
					"balanceOf(address)": {
						"details": "Returns the number of tokens in ``owner``'s account."
					},
					"supportsInterface(bytes4)": {
						"details": "Returns true if this contract implements the interface defined by `interfaceId`. See the corresponding https://eips.ethereum.org/EIPS/eip-165#how-interfaces-are-identified[EIP section] to learn more about how these ids are created. This function call must use less than 30 000 gas."
					}
				},
				"version": 1
			},
			"evm": {
				"assembly": "    /* \"TNFT.sol\":219:1068  contract TNFT is ERC721, Ownable {... */\n  mstore(0x40, 0x80)\n  callvalue\n  dup1\n  iszero\n  tag_1\n  jumpi\n  0x00\n  dup1\n  revert\ntag_1:\n  pop\n    /* \"access/Ownable.sol\":199:209  msg.sender */\n  caller\n    /* \"access/Ownable.sol\":191:196  owner */\n  0x04\n  0x00\n    /* \"access/Ownable.sol\":191:209  owner = msg.sender */\n  0x0100\n  exp\n  dup2\n  sload\n  dup2\n  0xffffffffffffffffffffffffffffffffffffffff\n  mul\n  not\n  and\n  swap1\n  dup4\n  0xffffffffffffffffffffffffffffffffffffffff\n  and\n  mul\n  or\n  swap1\n  sstore\n  pop\n    /* \"TNFT.sol\":219:1068  contract TNFT is ERC721, Ownable {... */\n  dataSize(sub_0)\n  dup1\n  dataOffset(sub_0)\n  0x00\n  codecopy\n  0x00\n  return\nstop\n\nsub_0: assembly {\n        /* \"TNFT.sol\":219:1068  contract TNFT is ERC721, Ownable {... */\n      mstore(0x40, 0x80)\n      callvalue\n      dup1\n      iszero\n      tag_1\n      jumpi\n      0x00\n      dup1\n      revert\n    tag_1:\n      pop\n      jumpi(tag_2, lt(calldatasize, 0x04))\n      shr(0xe0, calldataload(0x00))\n      dup1\n      0x70a08231\n      gt\n      tag_19\n      jumpi\n      dup1\n      0xb88d4fde\n      gt\n      tag_20\n      jumpi\n      dup1\n      0xb88d4fde\n      eq\n      tag_15\n      jumpi\n      dup1\n      0xda644b04\n      eq\n      tag_16\n      jumpi\n      dup1\n      0xe985e9c5\n      eq\n      tag_17\n      jumpi\n      dup1\n      0xfc6bcf39\n      eq\n      tag_18\n      jumpi\n      jump(tag_2)\n    tag_20:\n      dup1\n      0x70a08231\n      eq\n      tag_11\n      jumpi\n      dup1\n      0x880cdc31\n      eq\n      tag_12\n      jumpi\n      dup1\n      0x8da5cb5b\n      eq\n      tag_13\n      jumpi\n      dup1\n      0xa22cb465\n      eq\n      tag_14\n      jumpi\n      jump(tag_2)\n    tag_19:\n      dup1\n      0x18796ca8\n      gt\n      tag_21\n      jumpi\n      dup1\n      0x18796ca8\n      eq\n      tag_7\n      jumpi\n      dup1\n      0x23b872dd\n      eq\n      tag_8\n      jumpi\n      dup1\n      0x42842e0e\n      eq\n      tag_9\n      jumpi\n      dup1\n      0x6352211e\n      eq\n      tag_10\n      jumpi\n      jump(tag_2)\n    tag_21:\n      dup1\n      0x01ffc9a7\n      eq\n      tag_3\n      jumpi\n      dup1\n      0x081812fc\n      eq\n      tag_4\n      jumpi\n      dup1\n      0x095ea7b3\n      eq\n      tag_5\n      jumpi\n      dup1\n      0x1249c58b\n      eq\n      tag_6\n      jumpi\n    tag_2:\n      0x00\n      dup1\n      revert\n        /* \"draft/ERC721.sol\":580:766  function supportsInterface(bytes4 interfaceId) external pure returns (bool) {... */\n    tag_3:\n      tag_22\n      0x04\n      dup1\n      calldatasize\n      sub\n      dup2\n      add\n      swap1\n      tag_23\n      swap2\n      swap1\n      tag_24\n      jump\t// in\n    tag_23:\n      tag_25\n      jump\t// in\n    tag_22:\n      mload(0x40)\n      tag_26\n      swap2\n      swap1\n      tag_27\n      jump\t// in\n    tag_26:\n      mload(0x40)\n      dup1\n      swap2\n      sub\n      swap1\n      return\n        /* \"draft/ERC721.sol\":1622:1796  function getApproved(uint256 id) external view returns (address) {... */\n    tag_4:\n      tag_28\n      0x04\n      dup1\n      calldatasize\n      sub\n      dup2\n      add\n      swap1\n      tag_29\n      swap2\n      swap1\n      tag_30\n      jump\t// in\n    tag_29:\n      tag_31\n      jump\t// in\n    tag_28:\n      mload(0x40)\n      tag_32\n      swap2\n      swap1\n      tag_33\n      jump\t// in\n    tag_32:\n      mload(0x40)\n      dup1\n      swap2\n      sub\n      swap1\n      return\n        /* \"draft/ERC721.sol\":1337:1614  function approve(address spender, uint256 id) external {... */\n    tag_5:\n      tag_34\n      0x04\n      dup1\n      calldatasize\n      sub\n      dup2\n      add\n      swap1\n      tag_35\n      swap2\n      swap1\n      tag_36\n      jump\t// in\n    tag_35:\n      tag_37\n      jump\t// in\n    tag_34:\n      stop\n        /* \"TNFT.sol\":356:456  function mint() external onlyOwner {... */\n    tag_6:\n      tag_38\n      tag_39\n      jump\t// in\n    tag_38:\n      stop\n        /* \"TNFT.sol\":945:1066  function rewardBalance(uint256 id, address token) public view returns (uint256) {... */\n    tag_7:\n      tag_40\n      0x04\n      dup1\n      calldatasize\n      sub\n      dup2\n      add\n      swap1\n      tag_41\n      swap2\n      swap1\n      tag_42\n      jump\t// in\n    tag_41:\n      tag_43\n      jump\t// in\n    tag_40:\n      mload(0x40)\n      tag_44\n      swap2\n      swap1\n      tag_45\n      jump\t// in\n    tag_44:\n      mload(0x40)\n      dup1\n      swap2\n      sub\n      swap1\n      return\n        /* \"draft/ERC721.sol\":2056:2518  function transferFrom(... */\n    tag_8:\n      tag_46\n      0x04\n      dup1\n      calldatasize\n      sub\n      dup2\n      add\n      swap1\n      tag_47\n      swap2\n      swap1\n      tag_48\n      jump\t// in\n    tag_47:\n      tag_49\n      jump\t// in\n    tag_46:\n      stop\n        /* \"draft/ERC721.sol\":2526:2848  function safeTransferFrom(... */\n    tag_9:\n      tag_50\n      0x04\n      dup1\n      calldatasize\n      sub\n      dup2\n      add\n      swap1\n      tag_51\n      swap2\n      swap1\n      tag_48\n      jump\t// in\n    tag_51:\n      tag_52\n      jump\t// in\n    tag_50:\n      stop\n        /* \"draft/ERC721.sol\":774:942  function ownerOf(uint256 id) external view returns (address owner) {... */\n    tag_10:\n      tag_53\n      0x04\n      dup1\n      calldatasize\n      sub\n      dup2\n      add\n      swap1\n      tag_54\n      swap2\n      swap1\n      tag_30\n      jump\t// in\n    tag_54:\n      tag_55\n      jump\t// in\n    tag_53:\n      mload(0x40)\n      tag_56\n      swap2\n      swap1\n      tag_33\n      jump\t// in\n    tag_56:\n      mload(0x40)\n      dup1\n      swap2\n      sub\n      swap1\n      return\n        /* \"draft/ERC721.sol\":950:1122  function balanceOf(address owner) external view returns (uint256) {... */\n    tag_11:\n      tag_57\n      0x04\n      dup1\n      calldatasize\n      sub\n      dup2\n      add\n      swap1\n      tag_58\n      swap2\n      swap1\n      tag_59\n      jump\t// in\n    tag_58:\n      tag_60\n      jump\t// in\n    tag_57:\n      mload(0x40)\n      tag_61\n      swap2\n      swap1\n      tag_45\n      jump\t// in\n    tag_61:\n      mload(0x40)\n      dup1\n      swap2\n      sub\n      swap1\n      return\n        /* \"access/Ownable.sol\":319:446  function updateOwner(address newOwner) external onlyOwner {... */\n    tag_12:\n      tag_62\n      0x04\n      dup1\n      calldatasize\n      sub\n      dup2\n      add\n      swap1\n      tag_63\n      swap2\n      swap1\n      tag_59\n      jump\t// in\n    tag_63:\n      tag_64\n      jump\t// in\n    tag_62:\n      stop\n        /* \"access/Ownable.sol\":90:110  address public owner */\n    tag_13:\n      tag_65\n      tag_66\n      jump\t// in\n    tag_65:\n      mload(0x40)\n      tag_67\n      swap2\n      swap1\n      tag_33\n      jump\t// in\n    tag_67:\n      mload(0x40)\n      dup1\n      swap2\n      sub\n      swap1\n      return\n        /* \"draft/ERC721.sol\":1130:1329  function setApprovalForAll(address operator, bool approved) external {... */\n    tag_14:\n      tag_68\n      0x04\n      dup1\n      calldatasize\n      sub\n      dup2\n      add\n      swap1\n      tag_69\n      swap2\n      swap1\n      tag_70\n      jump\t// in\n    tag_69:\n      tag_71\n      jump\t// in\n    tag_68:\n      stop\n        /* \"draft/ERC721.sol\":2856:3210  function safeTransferFrom(... */\n    tag_15:\n      tag_72\n      0x04\n      dup1\n      calldatasize\n      sub\n      dup2\n      add\n      swap1\n      tag_73\n      swap2\n      swap1\n      tag_74\n      jump\t// in\n    tag_73:\n      tag_75\n      jump\t// in\n    tag_72:\n      stop\n        /* \"TNFT.sol\":462:679  function depositReward(... */\n    tag_16:\n      tag_76\n      0x04\n      dup1\n      calldatasize\n      sub\n      dup2\n      add\n      swap1\n      tag_77\n      swap2\n      swap1\n      tag_78\n      jump\t// in\n    tag_77:\n      tag_79\n      jump\t// in\n    tag_76:\n      stop\n        /* \"draft/ERC721.sol\":503:571  mapping(address => mapping(address => bool)) public isApprovedForAll */\n    tag_17:\n      tag_80\n      0x04\n      dup1\n      calldatasize\n      sub\n      dup2\n      add\n      swap1\n      tag_81\n      swap2\n      swap1\n      tag_82\n      jump\t// in\n    tag_81:\n      tag_83\n      jump\t// in\n    tag_80:\n      mload(0x40)\n      tag_84\n      swap2\n      swap1\n      tag_27\n      jump\t// in\n    tag_84:\n      mload(0x40)\n      dup1\n      swap2\n      sub\n      swap1\n      return\n        /* \"TNFT.sol\":685:939  function withdrawReward(... */\n    tag_18:\n      tag_85\n      0x04\n      dup1\n      calldatasize\n      sub\n      dup2\n      add\n      swap1\n      tag_86\n      swap2\n      swap1\n      tag_78\n      jump\t// in\n    tag_86:\n      tag_87\n      jump\t// in\n    tag_85:\n      stop\n        /* \"draft/ERC721.sol\":580:766  function supportsInterface(bytes4 interfaceId) external pure returns (bool) {... */\n    tag_25:\n        /* \"draft/ERC721.sol\":650:654  bool */\n      0x00\n        /* \"draft/ERC721.sol\":689:714  type(IERC721).interfaceId */\n      0x80ac58cd00000000000000000000000000000000000000000000000000000000\n        /* \"draft/ERC721.sol\":674:714  interfaceId == type(IERC721).interfaceId */\n      not(0xffffffffffffffffffffffffffffffffffffffffffffffffffffffff)\n      and\n        /* \"draft/ERC721.sol\":674:685  interfaceId */\n      dup3\n        /* \"draft/ERC721.sol\":674:714  interfaceId == type(IERC721).interfaceId */\n      not(0xffffffffffffffffffffffffffffffffffffffffffffffffffffffff)\n      and\n      eq\n        /* \"draft/ERC721.sol\":674:758  interfaceId == type(IERC721).interfaceId || interfaceId == type(IERC165).interfaceId */\n      dup1\n      tag_89\n      jumpi\n      pop\n        /* \"draft/ERC721.sol\":733:758  type(IERC165).interfaceId */\n      0x01ffc9a700000000000000000000000000000000000000000000000000000000\n        /* \"draft/ERC721.sol\":718:758  interfaceId == type(IERC165).interfaceId */\n      not(0xffffffffffffffffffffffffffffffffffffffffffffffffffffffff)\n      and\n        /* \"draft/ERC721.sol\":718:729  interfaceId */\n      dup3\n        /* \"draft/ERC721.sol\":718:758  interfaceId == type(IERC165).interfaceId */\n      not(0xffffffffffffffffffffffffffffffffffffffffffffffffffffffff)\n      and\n      eq\n        /* \"draft/ERC721.sol\":674:758  interfaceId == type(IERC721).interfaceId || interfaceId == type(IERC165).interfaceId */\n    tag_89:\n        /* \"draft/ERC721.sol\":667:758  return interfaceId == type(IERC721).interfaceId || interfaceId == type(IERC165).interfaceId */\n      swap1\n      pop\n        /* \"draft/ERC721.sol\":580:766  function supportsInterface(bytes4 interfaceId) external pure returns (bool) {... */\n      swap2\n      swap1\n      pop\n      jump\t// out\n        /* \"draft/ERC721.sol\":1622:1796  function getApproved(uint256 id) external view returns (address) {... */\n    tag_31:\n        /* \"draft/ERC721.sol\":1678:1685  address */\n      0x00\n        /* \"draft/ERC721.sol\":1730:1731  0 */\n      dup1\n        /* \"draft/ERC721.sol\":1706:1732  _ownerOf[id] != address(0) */\n      0xffffffffffffffffffffffffffffffffffffffff\n      and\n        /* \"draft/ERC721.sol\":1706:1714  _ownerOf */\n      0x00\n        /* \"draft/ERC721.sol\":1706:1718  _ownerOf[id] */\n      dup1\n        /* \"draft/ERC721.sol\":1715:1717  id */\n      dup5\n        /* \"draft/ERC721.sol\":1706:1718  _ownerOf[id] */\n      dup2\n      mstore\n      0x20\n      add\n      swap1\n      dup2\n      mstore\n      0x20\n      add\n      0x00\n      keccak256\n      0x00\n      swap1\n      sload\n      swap1\n      0x0100\n      exp\n      swap1\n      div\n      0xffffffffffffffffffffffffffffffffffffffff\n      and\n        /* \"draft/ERC721.sol\":1706:1732  _ownerOf[id] != address(0) */\n      0xffffffffffffffffffffffffffffffffffffffff\n      and\n      sub\n        /* \"draft/ERC721.sol\":1698:1756  require(_ownerOf[id] != address(0), \"token doesn't exist\") */\n      tag_91\n      jumpi\n      mload(0x40)\n      0x08c379a000000000000000000000000000000000000000000000000000000000\n      dup2\n      mstore\n      0x04\n      add\n      tag_92\n      swap1\n      tag_93\n      jump\t// in\n    tag_92:\n      mload(0x40)\n      dup1\n      swap2\n      sub\n      swap1\n      revert\n    tag_91:\n        /* \"draft/ERC721.sol\":1774:1784  _approvals */\n      0x02\n        /* \"draft/ERC721.sol\":1774:1788  _approvals[id] */\n      0x00\n        /* \"draft/ERC721.sol\":1785:1787  id */\n      dup4\n        /* \"draft/ERC721.sol\":1774:1788  _approvals[id] */\n      dup2\n      mstore\n      0x20\n      add\n      swap1\n      dup2\n      mstore\n      0x20\n      add\n      0x00\n      keccak256\n      0x00\n      swap1\n      sload\n      swap1\n      0x0100\n      exp\n      swap1\n      div\n      0xffffffffffffffffffffffffffffffffffffffff\n      and\n        /* \"draft/ERC721.sol\":1767:1788  return _approvals[id] */\n      swap1\n      pop\n        /* \"draft/ERC721.sol\":1622:1796  function getApproved(uint256 id) external view returns (address) {... */\n      swap2\n      swap1\n      pop\n      jump\t// out\n        /* \"draft/ERC721.sol\":1337:1614  function approve(address spender, uint256 id) external {... */\n    tag_37:\n        /* \"draft/ERC721.sol\":1403:1416  address owner */\n      0x00\n        /* \"draft/ERC721.sol\":1419:1427  _ownerOf */\n      dup1\n        /* \"draft/ERC721.sol\":1419:1431  _ownerOf[id] */\n      0x00\n        /* \"draft/ERC721.sol\":1428:1430  id */\n      dup4\n        /* \"draft/ERC721.sol\":1419:1431  _ownerOf[id] */\n      dup2\n      mstore\n      0x20\n      add\n      swap1\n      dup2\n      mstore\n      0x20\n      add\n      0x00\n      keccak256\n      0x00\n      swap1\n      sload\n      swap1\n      0x0100\n      exp\n      swap1\n      div\n      0xffffffffffffffffffffffffffffffffffffffff\n      and\n        /* \"draft/ERC721.sol\":1403:1431  address owner = _ownerOf[id] */\n      swap1\n      pop\n        /* \"draft/ERC721.sol\":1464:1469  owner */\n      dup1\n        /* \"draft/ERC721.sol\":1450:1469  msg.sender == owner */\n      0xffffffffffffffffffffffffffffffffffffffff\n      and\n        /* \"draft/ERC721.sol\":1450:1460  msg.sender */\n      caller\n        /* \"draft/ERC721.sol\":1450:1469  msg.sender == owner */\n      0xffffffffffffffffffffffffffffffffffffffff\n      and\n      eq\n        /* \"draft/ERC721.sol\":1450:1508  msg.sender == owner || isApprovedForAll[owner][msg.sender] */\n      dup1\n      tag_95\n      jumpi\n      pop\n        /* \"draft/ERC721.sol\":1473:1489  isApprovedForAll */\n      0x03\n        /* \"draft/ERC721.sol\":1473:1496  isApprovedForAll[owner] */\n      0x00\n        /* \"draft/ERC721.sol\":1490:1495  owner */\n      dup3\n        /* \"draft/ERC721.sol\":1473:1496  isApprovedForAll[owner] */\n      0xffffffffffffffffffffffffffffffffffffffff\n      and\n      0xffffffffffffffffffffffffffffffffffffffff\n      and\n      dup2\n      mstore\n      0x20\n      add\n      swap1\n      dup2\n      mstore\n      0x20\n      add\n      0x00\n      keccak256\n        /* \"draft/ERC721.sol\":1473:1508  isApprovedForAll[owner][msg.sender] */\n      0x00\n        /* \"draft/ERC721.sol\":1497:1507  msg.sender */\n      caller\n        /* \"draft/ERC721.sol\":1473:1508  isApprovedForAll[owner][msg.sender] */\n      0xffffffffffffffffffffffffffffffffffffffff\n      and\n      0xffffffffffffffffffffffffffffffffffffffff\n      and\n      dup2\n      mstore\n      0x20\n      add\n      swap1\n      dup2\n      mstore\n      0x20\n      add\n      0x00\n      keccak256\n      0x00\n      swap1\n      sload\n      swap1\n      0x0100\n      exp\n      swap1\n      div\n      0xff\n      and\n        /* \"draft/ERC721.sol\":1450:1508  msg.sender == owner || isApprovedForAll[owner][msg.sender] */\n    tag_95:\n        /* \"draft/ERC721.sol\":1442:1527  require(msg.sender == owner || isApprovedForAll[owner][msg.sender], \"not authorized\") */\n      tag_96\n      jumpi\n      mload(0x40)\n      0x08c379a000000000000000000000000000000000000000000000000000000000\n      dup2\n      mstore\n      0x04\n      add\n      tag_97\n      swap1\n      tag_98\n      jump\t// in\n    tag_97:\n      mload(0x40)\n      dup1\n      swap2\n      sub\n      swap1\n      revert\n    tag_96:\n        /* \"draft/ERC721.sol\":1555:1562  spender */\n      dup3\n        /* \"draft/ERC721.sol\":1538:1548  _approvals */\n      0x02\n        /* \"draft/ERC721.sol\":1538:1552  _approvals[id] */\n      0x00\n        /* \"draft/ERC721.sol\":1549:1551  id */\n      dup5\n        /* \"draft/ERC721.sol\":1538:1552  _approvals[id] */\n      dup2\n      mstore\n      0x20\n      add\n      swap1\n      dup2\n      mstore\n      0x20\n      add\n      0x00\n      keccak256\n      0x00\n        /* \"draft/ERC721.sol\":1538:1562  _approvals[id] = spender */\n      0x0100\n      exp\n      dup2\n      sload\n      dup2\n      0xffffffffffffffffffffffffffffffffffffffff\n      mul\n      not\n      and\n      swap1\n      dup4\n      0xffffffffffffffffffffffffffffffffffffffff\n      and\n      mul\n      or\n      swap1\n      sstore\n      pop\n        /* \"draft/ERC721.sol\":1603:1605  id */\n      dup2\n        /* \"draft/ERC721.sol\":1594:1601  spender */\n      dup4\n        /* \"draft/ERC721.sol\":1578:1606  Approval(owner, spender, id) */\n      0xffffffffffffffffffffffffffffffffffffffff\n      and\n        /* \"draft/ERC721.sol\":1587:1592  owner */\n      dup3\n        /* \"draft/ERC721.sol\":1578:1606  Approval(owner, spender, id) */\n      0xffffffffffffffffffffffffffffffffffffffff\n      and\n      0x8c5be1e5ebec7d5bd14f71427d1e84f3dd0314c0f7b2291e5b200ac8c7c3b925\n      mload(0x40)\n      mload(0x40)\n      dup1\n      swap2\n      sub\n      swap1\n      log4\n        /* \"draft/ERC721.sol\":1392:1614  {... */\n      pop\n        /* \"draft/ERC721.sol\":1337:1614  function approve(address spender, uint256 id) external {... */\n      pop\n      pop\n      jump\t// out\n        /* \"TNFT.sol\":356:456  function mint() external onlyOwner {... */\n    tag_39:\n        /* \"access/Ownable.sol\":275:280  owner */\n      0x04\n      0x00\n      swap1\n      sload\n      swap1\n      0x0100\n      exp\n      swap1\n      div\n      0xffffffffffffffffffffffffffffffffffffffff\n      and\n        /* \"access/Ownable.sol\":261:280  msg.sender == owner */\n      0xffffffffffffffffffffffffffffffffffffffff\n      and\n        /* \"access/Ownable.sol\":261:271  msg.sender */\n      caller\n        /* \"access/Ownable.sol\":261:280  msg.sender == owner */\n      0xffffffffffffffffffffffffffffffffffffffff\n      and\n      eq\n        /* \"access/Ownable.sol\":253:295  require(msg.sender == owner, \"only owner\") */\n      tag_100\n      jumpi\n      mload(0x40)\n      0x08c379a000000000000000000000000000000000000000000000000000000000\n      dup2\n      mstore\n      0x04\n      add\n      tag_101\n      swap1\n      tag_102\n      jump\t// in\n    tag_101:\n      mload(0x40)\n      dup1\n      swap2\n      sub\n      swap1\n      revert\n    tag_100:\n        /* \"TNFT.sol\":401:427  _mint(msg.sender, counter) */\n      tag_104\n        /* \"TNFT.sol\":407:417  msg.sender */\n      caller\n        /* \"TNFT.sol\":419:426  counter */\n      sload(0x05)\n        /* \"TNFT.sol\":401:406  _mint */\n      tag_105\n        /* \"TNFT.sol\":401:427  _mint(msg.sender, counter) */\n      jump\t// in\n    tag_104:\n        /* \"TNFT.sol\":448:449  1 */\n      0x01\n        /* \"TNFT.sol\":437:444  counter */\n      0x05\n      0x00\n        /* \"TNFT.sol\":437:449  counter += 1 */\n      dup3\n      dup3\n      sload\n      tag_106\n      swap2\n      swap1\n      tag_107\n      jump\t// in\n    tag_106:\n      swap3\n      pop\n      pop\n      dup2\n      swap1\n      sstore\n      pop\n        /* \"TNFT.sol\":356:456  function mint() external onlyOwner {... */\n      jump\t// out\n        /* \"TNFT.sol\":945:1066  function rewardBalance(uint256 id, address token) public view returns (uint256) {... */\n    tag_43:\n        /* \"TNFT.sol\":1016:1023  uint256 */\n      0x00\n        /* \"TNFT.sol\":1042:1048  reward */\n      0x06\n        /* \"TNFT.sol\":1042:1052  reward[id] */\n      0x00\n        /* \"TNFT.sol\":1049:1051  id */\n      dup5\n        /* \"TNFT.sol\":1042:1052  reward[id] */\n      dup2\n      mstore\n      0x20\n      add\n      swap1\n      dup2\n      mstore\n      0x20\n      add\n      0x00\n      keccak256\n        /* \"TNFT.sol\":1042:1059  reward[id][token] */\n      0x00\n        /* \"TNFT.sol\":1053:1058  token */\n      dup4\n        /* \"TNFT.sol\":1042:1059  reward[id][token] */\n      0xffffffffffffffffffffffffffffffffffffffff\n      and\n      0xffffffffffffffffffffffffffffffffffffffff\n      and\n      dup2\n      mstore\n      0x20\n      add\n      swap1\n      dup2\n      mstore\n      0x20\n      add\n      0x00\n      keccak256\n      sload\n        /* \"TNFT.sol\":1035:1059  return reward[id][token] */\n      swap1\n      pop\n        /* \"TNFT.sol\":945:1066  function rewardBalance(uint256 id, address token) public view returns (uint256) {... */\n      swap3\n      swap2\n      pop\n      pop\n      jump\t// out\n        /* \"draft/ERC721.sol\":2056:2518  function transferFrom(... */\n    tag_49:\n        /* \"draft/ERC721.sol\":2184:2192  _ownerOf */\n      0x00\n        /* \"draft/ERC721.sol\":2184:2196  _ownerOf[id] */\n      dup1\n        /* \"draft/ERC721.sol\":2193:2195  id */\n      dup3\n        /* \"draft/ERC721.sol\":2184:2196  _ownerOf[id] */\n      dup2\n      mstore\n      0x20\n      add\n      swap1\n      dup2\n      mstore\n      0x20\n      add\n      0x00\n      keccak256\n      0x00\n      swap1\n      sload\n      swap1\n      0x0100\n      exp\n      swap1\n      div\n      0xffffffffffffffffffffffffffffffffffffffff\n      and\n        /* \"draft/ERC721.sol\":2176:2196  from == _ownerOf[id] */\n      0xffffffffffffffffffffffffffffffffffffffff\n      and\n        /* \"draft/ERC721.sol\":2176:2180  from */\n      dup4\n        /* \"draft/ERC721.sol\":2176:2196  from == _ownerOf[id] */\n      0xffffffffffffffffffffffffffffffffffffffff\n      and\n      eq\n        /* \"draft/ERC721.sol\":2168:2214  require(from == _ownerOf[id], \"from != owner\") */\n      tag_110\n      jumpi\n      mload(0x40)\n      0x08c379a000000000000000000000000000000000000000000000000000000000\n      dup2\n      mstore\n      0x04\n      add\n      tag_111\n      swap1\n      tag_112\n      jump\t// in\n    tag_111:\n      mload(0x40)\n      dup1\n      swap2\n      sub\n      swap1\n      revert\n    tag_110:\n        /* \"draft/ERC721.sol\":2247:2248  0 */\n      0x00\n        /* \"draft/ERC721.sol\":2233:2249  to != address(0) */\n      0xffffffffffffffffffffffffffffffffffffffff\n      and\n        /* \"draft/ERC721.sol\":2233:2235  to */\n      dup3\n        /* \"draft/ERC721.sol\":2233:2249  to != address(0) */\n      0xffffffffffffffffffffffffffffffffffffffff\n      and\n      sub\n        /* \"draft/ERC721.sol\":2225:2278  require(to != address(0), \"transfer to zero address\") */\n      tag_113\n      jumpi\n      mload(0x40)\n      0x08c379a000000000000000000000000000000000000000000000000000000000\n      dup2\n      mstore\n      0x04\n      add\n      tag_114\n      swap1\n      tag_115\n      jump\t// in\n    tag_114:\n      mload(0x40)\n      dup1\n      swap2\n      sub\n      swap1\n      revert\n    tag_113:\n        /* \"draft/ERC721.sol\":2297:2337  _isApprovedOrOwner(from, msg.sender, id) */\n      tag_116\n        /* \"draft/ERC721.sol\":2316:2320  from */\n      dup4\n        /* \"draft/ERC721.sol\":2322:2332  msg.sender */\n      caller\n        /* \"draft/ERC721.sol\":2334:2336  id */\n      dup4\n        /* \"draft/ERC721.sol\":2297:2315  _isApprovedOrOwner */\n      tag_117\n        /* \"draft/ERC721.sol\":2297:2337  _isApprovedOrOwner(from, msg.sender, id) */\n      jump\t// in\n    tag_116:\n        /* \"draft/ERC721.sol\":2289:2356  require(_isApprovedOrOwner(from, msg.sender, id), \"not authorized\") */\n      tag_118\n      jumpi\n      mload(0x40)\n      0x08c379a000000000000000000000000000000000000000000000000000000000\n      dup2\n      mstore\n      0x04\n      add\n      tag_119\n      swap1\n      tag_98\n      jump\t// in\n    tag_119:\n      mload(0x40)\n      dup1\n      swap2\n      sub\n      swap1\n      revert\n    tag_118:\n        /* \"draft/ERC721.sol\":2367:2377  _balanceOf */\n      0x01\n        /* \"draft/ERC721.sol\":2367:2383  _balanceOf[from] */\n      0x00\n        /* \"draft/ERC721.sol\":2378:2382  from */\n      dup5\n        /* \"draft/ERC721.sol\":2367:2383  _balanceOf[from] */\n      0xffffffffffffffffffffffffffffffffffffffff\n      and\n      0xffffffffffffffffffffffffffffffffffffffff\n      and\n      dup2\n      mstore\n      0x20\n      add\n      swap1\n      dup2\n      mstore\n      0x20\n      add\n      0x00\n      keccak256\n      0x00\n        /* \"draft/ERC721.sol\":2367:2385  _balanceOf[from]-- */\n      dup2\n      sload\n      dup1\n      swap3\n      swap2\n      swap1\n      tag_120\n      swap1\n      tag_121\n      jump\t// in\n    tag_120:\n      swap2\n      swap1\n      pop\n      sstore\n      pop\n        /* \"draft/ERC721.sol\":2396:2406  _balanceOf */\n      0x01\n        /* \"draft/ERC721.sol\":2396:2410  _balanceOf[to] */\n      0x00\n        /* \"draft/ERC721.sol\":2407:2409  to */\n      dup4\n        /* \"draft/ERC721.sol\":2396:2410  _balanceOf[to] */\n      0xffffffffffffffffffffffffffffffffffffffff\n      and\n      0xffffffffffffffffffffffffffffffffffffffff\n      and\n      dup2\n      mstore\n      0x20\n      add\n      swap1\n      dup2\n      mstore\n      0x20\n      add\n      0x00\n      keccak256\n      0x00\n        /* \"draft/ERC721.sol\":2396:2412  _balanceOf[to]++ */\n      dup2\n      sload\n      dup1\n      swap3\n      swap2\n      swap1\n      tag_122\n      swap1\n      tag_123\n      jump\t// in\n    tag_122:\n      swap2\n      swap1\n      pop\n      sstore\n      pop\n        /* \"draft/ERC721.sol\":2438:2440  to */\n      dup2\n        /* \"draft/ERC721.sol\":2423:2431  _ownerOf */\n      0x00\n        /* \"draft/ERC721.sol\":2423:2435  _ownerOf[id] */\n      dup1\n        /* \"draft/ERC721.sol\":2432:2434  id */\n      dup4\n        /* \"draft/ERC721.sol\":2423:2435  _ownerOf[id] */\n      dup2\n      mstore\n      0x20\n      add\n      swap1\n      dup2\n      mstore\n      0x20\n      add\n      0x00\n      keccak256\n      0x00\n        /* \"draft/ERC721.sol\":2423:2440  _ownerOf[id] = to */\n      0x0100\n      exp\n      dup2\n      sload\n      dup2\n      0xffffffffffffffffffffffffffffffffffffffff\n      mul\n      not\n      and\n      swap1\n      dup4\n      0xffffffffffffffffffffffffffffffffffffffff\n      and\n      mul\n      or\n      swap1\n      sstore\n      pop\n        /* \"draft/ERC721.sol\":2458:2468  _approvals */\n      0x02\n        /* \"draft/ERC721.sol\":2458:2472  _approvals[id] */\n      0x00\n        /* \"draft/ERC721.sol\":2469:2471  id */\n      dup3\n        /* \"draft/ERC721.sol\":2458:2472  _approvals[id] */\n      dup2\n      mstore\n      0x20\n      add\n      swap1\n      dup2\n      mstore\n      0x20\n      add\n      0x00\n      keccak256\n      0x00\n        /* \"draft/ERC721.sol\":2451:2472  delete _approvals[id] */\n      0x0100\n      exp\n      dup2\n      sload\n      swap1\n      0xffffffffffffffffffffffffffffffffffffffff\n      mul\n      not\n      and\n      swap1\n      sstore\n        /* \"draft/ERC721.sol\":2507:2509  id */\n      dup1\n        /* \"draft/ERC721.sol\":2503:2505  to */\n      dup3\n        /* \"draft/ERC721.sol\":2488:2510  Transfer(from, to, id) */\n      0xffffffffffffffffffffffffffffffffffffffff\n      and\n        /* \"draft/ERC721.sol\":2497:2501  from */\n      dup5\n        /* \"draft/ERC721.sol\":2488:2510  Transfer(from, to, id) */\n      0xffffffffffffffffffffffffffffffffffffffff\n      and\n      0xddf252ad1be2c89b69c2b068fc378daa952ba7f163c4a11628f55a4df523b3ef\n      mload(0x40)\n      mload(0x40)\n      dup1\n      swap2\n      sub\n      swap1\n      log4\n        /* \"draft/ERC721.sol\":2056:2518  function transferFrom(... */\n      pop\n      pop\n      pop\n      jump\t// out\n        /* \"draft/ERC721.sol\":2526:2848  function safeTransferFrom(... */\n    tag_52:\n        /* \"draft/ERC721.sol\":2644:2670  transferFrom(from, to, id) */\n      tag_125\n        /* \"draft/ERC721.sol\":2657:2661  from */\n      dup4\n        /* \"draft/ERC721.sol\":2663:2665  to */\n      dup4\n        /* \"draft/ERC721.sol\":2667:2669  id */\n      dup4\n        /* \"draft/ERC721.sol\":2644:2656  transferFrom */\n      tag_49\n        /* \"draft/ERC721.sol\":2644:2670  transferFrom(from, to, id) */\n      jump\t// in\n    tag_125:\n        /* \"draft/ERC721.sol\":2707:2708  0 */\n      0x00\n        /* \"draft/ERC721.sol\":2689:2691  to */\n      dup3\n        /* \"draft/ERC721.sol\":2689:2703  to.code.length */\n      0xffffffffffffffffffffffffffffffffffffffff\n      and\n      extcodesize\n        /* \"draft/ERC721.sol\":2689:2708  to.code.length == 0 */\n      eq\n        /* \"draft/ERC721.sol\":2689:2819  to.code.length == 0 || IERC721Receiver(to).onERC721Received(msg.sender, from, id, \"\") == IERC721Receiver.onERC721Received.selector */\n      dup1\n      tag_126\n      jumpi\n      pop\n        /* \"draft/ERC721.sol\":2778:2819  IERC721Receiver.onERC721Received.selector */\n      shl(0xe0, 0x150b7a02)\n        /* \"draft/ERC721.sol\":2712:2819  IERC721Receiver(to).onERC721Received(msg.sender, from, id, \"\") == IERC721Receiver.onERC721Received.selector */\n      not(0xffffffffffffffffffffffffffffffffffffffffffffffffffffffff)\n      and\n        /* \"draft/ERC721.sol\":2728:2730  to */\n      dup3\n        /* \"draft/ERC721.sol\":2712:2748  IERC721Receiver(to).onERC721Received */\n      0xffffffffffffffffffffffffffffffffffffffff\n      and\n      0x150b7a02\n        /* \"draft/ERC721.sol\":2749:2759  msg.sender */\n      caller\n        /* \"draft/ERC721.sol\":2761:2765  from */\n      dup7\n        /* \"draft/ERC721.sol\":2767:2769  id */\n      dup6\n        /* \"draft/ERC721.sol\":2712:2774  IERC721Receiver(to).onERC721Received(msg.sender, from, id, \"\") */\n      mload(0x40)\n      dup5\n      0xffffffff\n      and\n      0xe0\n      shl\n      dup2\n      mstore\n      0x04\n      add\n      tag_127\n      swap4\n      swap3\n      swap2\n      swap1\n      tag_128\n      jump\t// in\n    tag_127:\n      0x20\n      mload(0x40)\n      dup1\n      dup4\n      sub\n      dup2\n      0x00\n      dup8\n      gas\n      call\n      iszero\n      dup1\n      iszero\n      tag_130\n      jumpi\n      returndatasize\n      0x00\n      dup1\n      returndatacopy\n      revert(0x00, returndatasize)\n    tag_130:\n      pop\n      pop\n      pop\n      pop\n      mload(0x40)\n      returndatasize\n      not(0x1f)\n      0x1f\n      dup3\n      add\n      and\n      dup3\n      add\n      dup1\n      0x40\n      mstore\n      pop\n      dup2\n      add\n      swap1\n      tag_131\n      swap2\n      swap1\n      tag_132\n      jump\t// in\n    tag_131:\n        /* \"draft/ERC721.sol\":2712:2819  IERC721Receiver(to).onERC721Received(msg.sender, from, id, \"\") == IERC721Receiver.onERC721Received.selector */\n      not(0xffffffffffffffffffffffffffffffffffffffffffffffffffffffff)\n      and\n      eq\n        /* \"draft/ERC721.sol\":2689:2819  to.code.length == 0 || IERC721Receiver(to).onERC721Received(msg.sender, from, id, \"\") == IERC721Receiver.onERC721Received.selector */\n    tag_126:\n        /* \"draft/ERC721.sol\":2681:2840  require(to.code.length == 0 || IERC721Receiver(to).onERC721Received(msg.sender, from, id, \"\") == IERC721Receiver.onERC721Received.selector, \"unsafe recipient\") */\n      tag_133\n      jumpi\n      mload(0x40)\n      0x08c379a000000000000000000000000000000000000000000000000000000000\n      dup2\n      mstore\n      0x04\n      add\n      tag_134\n      swap1\n      tag_135\n      jump\t// in\n    tag_134:\n      mload(0x40)\n      dup1\n      swap2\n      sub\n      swap1\n      revert\n    tag_133:\n        /* \"draft/ERC721.sol\":2526:2848  function safeTransferFrom(... */\n      pop\n      pop\n      pop\n      jump\t// out\n        /* \"draft/ERC721.sol\":774:942  function ownerOf(uint256 id) external view returns (address owner) {... */\n    tag_55:\n        /* \"draft/ERC721.sol\":826:839  address owner */\n      0x00\n        /* \"draft/ERC721.sol\":860:868  _ownerOf */\n      dup1\n        /* \"draft/ERC721.sol\":860:872  _ownerOf[id] */\n      0x00\n        /* \"draft/ERC721.sol\":869:871  id */\n      dup4\n        /* \"draft/ERC721.sol\":860:872  _ownerOf[id] */\n      dup2\n      mstore\n      0x20\n      add\n      swap1\n      dup2\n      mstore\n      0x20\n      add\n      0x00\n      keccak256\n      0x00\n      swap1\n      sload\n      swap1\n      0x0100\n      exp\n      swap1\n      div\n      0xffffffffffffffffffffffffffffffffffffffff\n      and\n        /* \"draft/ERC721.sol\":852:872  owner = _ownerOf[id] */\n      swap1\n      pop\n        /* \"draft/ERC721.sol\":908:909  0 */\n      0x00\n        /* \"draft/ERC721.sol\":891:910  owner != address(0) */\n      0xffffffffffffffffffffffffffffffffffffffff\n      and\n        /* \"draft/ERC721.sol\":891:896  owner */\n      dup2\n        /* \"draft/ERC721.sol\":891:910  owner != address(0) */\n      0xffffffffffffffffffffffffffffffffffffffff\n      and\n      sub\n        /* \"draft/ERC721.sol\":883:934  require(owner != address(0), \"token doesn't exist\") */\n      tag_137\n      jumpi\n      mload(0x40)\n      0x08c379a000000000000000000000000000000000000000000000000000000000\n      dup2\n      mstore\n      0x04\n      add\n      tag_138\n      swap1\n      tag_93\n      jump\t// in\n    tag_138:\n      mload(0x40)\n      dup1\n      swap2\n      sub\n      swap1\n      revert\n    tag_137:\n        /* \"draft/ERC721.sol\":774:942  function ownerOf(uint256 id) external view returns (address owner) {... */\n      swap2\n      swap1\n      pop\n      jump\t// out\n        /* \"draft/ERC721.sol\":950:1122  function balanceOf(address owner) external view returns (uint256) {... */\n    tag_60:\n        /* \"draft/ERC721.sol\":1007:1014  uint256 */\n      0x00\n        /* \"draft/ERC721.sol\":1052:1053  0 */\n      dup1\n        /* \"draft/ERC721.sol\":1035:1054  owner != address(0) */\n      0xffffffffffffffffffffffffffffffffffffffff\n      and\n        /* \"draft/ERC721.sol\":1035:1040  owner */\n      dup3\n        /* \"draft/ERC721.sol\":1035:1054  owner != address(0) */\n      0xffffffffffffffffffffffffffffffffffffffff\n      and\n      sub\n        /* \"draft/ERC721.sol\":1027:1079  require(owner != address(0), \"owner = zero address\") */\n      tag_140\n      jumpi\n      mload(0x40)\n      0x08c379a000000000000000000000000000000000000000000000000000000000\n      dup2\n      mstore\n      0x04\n      add\n      tag_141\n      swap1\n      tag_142\n      jump\t// in\n    tag_141:\n      mload(0x40)\n      dup1\n      swap2\n      sub\n      swap1\n      revert\n    tag_140:\n        /* \"draft/ERC721.sol\":1097:1107  _balanceOf */\n      0x01\n        /* \"draft/ERC721.sol\":1097:1114  _balanceOf[owner] */\n      0x00\n        /* \"draft/ERC721.sol\":1108:1113  owner */\n      dup4\n        /* \"draft/ERC721.sol\":1097:1114  _balanceOf[owner] */\n      0xffffffffffffffffffffffffffffffffffffffff\n      and\n      0xffffffffffffffffffffffffffffffffffffffff\n      and\n      dup2\n      mstore\n      0x20\n      add\n      swap1\n      dup2\n      mstore\n      0x20\n      add\n      0x00\n      keccak256\n      sload\n        /* \"draft/ERC721.sol\":1090:1114  return _balanceOf[owner] */\n      swap1\n      pop\n        /* \"draft/ERC721.sol\":950:1122  function balanceOf(address owner) external view returns (uint256) {... */\n      swap2\n      swap1\n      pop\n      jump\t// out\n        /* \"access/Ownable.sol\":319:446  function updateOwner(address newOwner) external onlyOwner {... */\n    tag_64:\n        /* \"access/Ownable.sol\":275:280  owner */\n      0x04\n      0x00\n      swap1\n      sload\n      swap1\n      0x0100\n      exp\n      swap1\n      div\n      0xffffffffffffffffffffffffffffffffffffffff\n      and\n        /* \"access/Ownable.sol\":261:280  msg.sender == owner */\n      0xffffffffffffffffffffffffffffffffffffffff\n      and\n        /* \"access/Ownable.sol\":261:271  msg.sender */\n      caller\n        /* \"access/Ownable.sol\":261:280  msg.sender == owner */\n      0xffffffffffffffffffffffffffffffffffffffff\n      and\n      eq\n        /* \"access/Ownable.sol\":253:295  require(msg.sender == owner, \"only owner\") */\n      tag_144\n      jumpi\n      mload(0x40)\n      0x08c379a000000000000000000000000000000000000000000000000000000000\n      dup2\n      mstore\n      0x04\n      add\n      tag_145\n      swap1\n      tag_102\n      jump\t// in\n    tag_145:\n      mload(0x40)\n      dup1\n      swap2\n      sub\n      swap1\n      revert\n    tag_144:\n        /* \"access/Ownable.sol\":395:403  newOwner */\n      dup1\n        /* \"access/Ownable.sol\":387:392  owner */\n      0x04\n      0x00\n        /* \"access/Ownable.sol\":387:403  owner = newOwner */\n      0x0100\n      exp\n      dup2\n      sload\n      dup2\n      0xffffffffffffffffffffffffffffffffffffffff\n      mul\n      not\n      and\n      swap1\n      dup4\n      0xffffffffffffffffffffffffffffffffffffffff\n      and\n      mul\n      or\n      swap1\n      sstore\n      pop\n        /* \"access/Ownable.sol\":430:438  newOwner */\n      dup1\n        /* \"access/Ownable.sol\":418:439  UpdateOwner(newOwner) */\n      0xffffffffffffffffffffffffffffffffffffffff\n      and\n      0x84022644ce39de434e8f39c4398a3628815893104188274c37205d41c2d50967\n      mload(0x40)\n      mload(0x40)\n      dup1\n      swap2\n      sub\n      swap1\n      log2\n        /* \"access/Ownable.sol\":319:446  function updateOwner(address newOwner) external onlyOwner {... */\n      pop\n      jump\t// out\n        /* \"access/Ownable.sol\":90:110  address public owner */\n    tag_66:\n      0x04\n      0x00\n      swap1\n      sload\n      swap1\n      0x0100\n      exp\n      swap1\n      div\n      0xffffffffffffffffffffffffffffffffffffffff\n      and\n      dup2\n      jump\t// out\n        /* \"draft/ERC721.sol\":1130:1329  function setApprovalForAll(address operator, bool approved) external {... */\n    tag_71:\n        /* \"draft/ERC721.sol\":1251:1259  approved */\n      dup1\n        /* \"draft/ERC721.sol\":1210:1226  isApprovedForAll */\n      0x03\n        /* \"draft/ERC721.sol\":1210:1238  isApprovedForAll[msg.sender] */\n      0x00\n        /* \"draft/ERC721.sol\":1227:1237  msg.sender */\n      caller\n        /* \"draft/ERC721.sol\":1210:1238  isApprovedForAll[msg.sender] */\n      0xffffffffffffffffffffffffffffffffffffffff\n      and\n      0xffffffffffffffffffffffffffffffffffffffff\n      and\n      dup2\n      mstore\n      0x20\n      add\n      swap1\n      dup2\n      mstore\n      0x20\n      add\n      0x00\n      keccak256\n        /* \"draft/ERC721.sol\":1210:1248  isApprovedForAll[msg.sender][operator] */\n      0x00\n        /* \"draft/ERC721.sol\":1239:1247  operator */\n      dup5\n        /* \"draft/ERC721.sol\":1210:1248  isApprovedForAll[msg.sender][operator] */\n      0xffffffffffffffffffffffffffffffffffffffff\n      and\n      0xffffffffffffffffffffffffffffffffffffffff\n      and\n      dup2\n      mstore\n      0x20\n      add\n      swap1\n      dup2\n      mstore\n      0x20\n      add\n      0x00\n      keccak256\n      0x00\n        /* \"draft/ERC721.sol\":1210:1259  isApprovedForAll[msg.sender][operator] = approved */\n      0x0100\n      exp\n      dup2\n      sload\n      dup2\n      0xff\n      mul\n      not\n      and\n      swap1\n      dup4\n      iszero\n      iszero\n      mul\n      or\n      swap1\n      sstore\n      pop\n        /* \"draft/ERC721.sol\":1302:1310  operator */\n      dup2\n        /* \"draft/ERC721.sol\":1275:1321  ApprovalForAll(msg.sender, operator, approved) */\n      0xffffffffffffffffffffffffffffffffffffffff\n      and\n        /* \"draft/ERC721.sol\":1290:1300  msg.sender */\n      caller\n        /* \"draft/ERC721.sol\":1275:1321  ApprovalForAll(msg.sender, operator, approved) */\n      0xffffffffffffffffffffffffffffffffffffffff\n      and\n      0x17307eab39ab6107e8899845ad3d59bd9653f200f220920489ca2b5937696c31\n        /* \"draft/ERC721.sol\":1312:1320  approved */\n      dup4\n        /* \"draft/ERC721.sol\":1275:1321  ApprovalForAll(msg.sender, operator, approved) */\n      mload(0x40)\n      tag_148\n      swap2\n      swap1\n      tag_27\n      jump\t// in\n    tag_148:\n      mload(0x40)\n      dup1\n      swap2\n      sub\n      swap1\n      log3\n        /* \"draft/ERC721.sol\":1130:1329  function setApprovalForAll(address operator, bool approved) external {... */\n      pop\n      pop\n      jump\t// out\n        /* \"draft/ERC721.sol\":2856:3210  function safeTransferFrom(... */\n    tag_75:\n        /* \"draft/ERC721.sol\":3004:3030  transferFrom(from, to, id) */\n      tag_150\n        /* \"draft/ERC721.sol\":3017:3021  from */\n      dup6\n        /* \"draft/ERC721.sol\":3023:3025  to */\n      dup6\n        /* \"draft/ERC721.sol\":3027:3029  id */\n      dup6\n        /* \"draft/ERC721.sol\":3004:3016  transferFrom */\n      tag_49\n        /* \"draft/ERC721.sol\":3004:3030  transferFrom(from, to, id) */\n      jump\t// in\n    tag_150:\n        /* \"draft/ERC721.sol\":3067:3068  0 */\n      0x00\n        /* \"draft/ERC721.sol\":3049:3051  to */\n      dup5\n        /* \"draft/ERC721.sol\":3049:3063  to.code.length */\n      0xffffffffffffffffffffffffffffffffffffffff\n      and\n      extcodesize\n        /* \"draft/ERC721.sol\":3049:3068  to.code.length == 0 */\n      eq\n        /* \"draft/ERC721.sol\":3049:3181  to.code.length == 0 || IERC721Receiver(to).onERC721Received(msg.sender, from, id, data) == IERC721Receiver.onERC721Received.selector */\n      dup1\n      tag_151\n      jumpi\n      pop\n        /* \"draft/ERC721.sol\":3140:3181  IERC721Receiver.onERC721Received.selector */\n      shl(0xe0, 0x150b7a02)\n        /* \"draft/ERC721.sol\":3072:3181  IERC721Receiver(to).onERC721Received(msg.sender, from, id, data) == IERC721Receiver.onERC721Received.selector */\n      not(0xffffffffffffffffffffffffffffffffffffffffffffffffffffffff)\n      and\n        /* \"draft/ERC721.sol\":3088:3090  to */\n      dup5\n        /* \"draft/ERC721.sol\":3072:3108  IERC721Receiver(to).onERC721Received */\n      0xffffffffffffffffffffffffffffffffffffffff\n      and\n      0x150b7a02\n        /* \"draft/ERC721.sol\":3109:3119  msg.sender */\n      caller\n        /* \"draft/ERC721.sol\":3121:3125  from */\n      dup9\n        /* \"draft/ERC721.sol\":3127:3129  id */\n      dup8\n        /* \"draft/ERC721.sol\":3131:3135  data */\n      dup8\n      dup8\n        /* \"draft/ERC721.sol\":3072:3136  IERC721Receiver(to).onERC721Received(msg.sender, from, id, data) */\n      mload(0x40)\n      dup7\n      0xffffffff\n      and\n      0xe0\n      shl\n      dup2\n      mstore\n      0x04\n      add\n      tag_152\n      swap6\n      swap5\n      swap4\n      swap3\n      swap2\n      swap1\n      tag_153\n      jump\t// in\n    tag_152:\n      0x20\n      mload(0x40)\n      dup1\n      dup4\n      sub\n      dup2\n      0x00\n      dup8\n      gas\n      call\n      iszero\n      dup1\n      iszero\n      tag_155\n      jumpi\n      returndatasize\n      0x00\n      dup1\n      returndatacopy\n      revert(0x00, returndatasize)\n    tag_155:\n      pop\n      pop\n      pop\n      pop\n      mload(0x40)\n      returndatasize\n      not(0x1f)\n      0x1f\n      dup3\n      add\n      and\n      dup3\n      add\n      dup1\n      0x40\n      mstore\n      pop\n      dup2\n      add\n      swap1\n      tag_156\n      swap2\n      swap1\n      tag_132\n      jump\t// in\n    tag_156:\n        /* \"draft/ERC721.sol\":3072:3181  IERC721Receiver(to).onERC721Received(msg.sender, from, id, data) == IERC721Receiver.onERC721Received.selector */\n      not(0xffffffffffffffffffffffffffffffffffffffffffffffffffffffff)\n      and\n      eq\n        /* \"draft/ERC721.sol\":3049:3181  to.code.length == 0 || IERC721Receiver(to).onERC721Received(msg.sender, from, id, data) == IERC721Receiver.onERC721Received.selector */\n    tag_151:\n        /* \"draft/ERC721.sol\":3041:3202  require(to.code.length == 0 || IERC721Receiver(to).onERC721Received(msg.sender, from, id, data) == IERC721Receiver.onERC721Received.selector, \"unsafe recipient\") */\n      tag_157\n      jumpi\n      mload(0x40)\n      0x08c379a000000000000000000000000000000000000000000000000000000000\n      dup2\n      mstore\n      0x04\n      add\n      tag_158\n      swap1\n      tag_135\n      jump\t// in\n    tag_158:\n      mload(0x40)\n      dup1\n      swap2\n      sub\n      swap1\n      revert\n    tag_157:\n        /* \"draft/ERC721.sol\":2856:3210  function safeTransferFrom(... */\n      pop\n      pop\n      pop\n      pop\n      pop\n      jump\t// out\n        /* \"TNFT.sol\":462:679  function depositReward(... */\n    tag_79:\n        /* \"TNFT.sol\":582:587  token */\n      dup2\n        /* \"TNFT.sol\":575:601  IERC20(token).transferFrom */\n      0xffffffffffffffffffffffffffffffffffffffff\n      and\n      0x23b872dd\n        /* \"TNFT.sol\":602:612  msg.sender */\n      caller\n        /* \"TNFT.sol\":622:626  this */\n      address\n        /* \"TNFT.sol\":629:635  amount */\n      dup5\n        /* \"TNFT.sol\":575:636  IERC20(token).transferFrom(msg.sender, address(this), amount) */\n      mload(0x40)\n      dup5\n      0xffffffff\n      and\n      0xe0\n      shl\n      dup2\n      mstore\n      0x04\n      add\n      tag_160\n      swap4\n      swap3\n      swap2\n      swap1\n      tag_161\n      jump\t// in\n    tag_160:\n      0x20\n      mload(0x40)\n      dup1\n      dup4\n      sub\n      dup2\n      0x00\n      dup8\n      gas\n      call\n      iszero\n      dup1\n      iszero\n      tag_163\n      jumpi\n      returndatasize\n      0x00\n      dup1\n      returndatacopy\n      revert(0x00, returndatasize)\n    tag_163:\n      pop\n      pop\n      pop\n      pop\n      mload(0x40)\n      returndatasize\n      not(0x1f)\n      0x1f\n      dup3\n      add\n      and\n      dup3\n      add\n      dup1\n      0x40\n      mstore\n      pop\n      dup2\n      add\n      swap1\n      tag_164\n      swap2\n      swap1\n      tag_165\n      jump\t// in\n    tag_164:\n      pop\n        /* \"TNFT.sol\":666:672  amount */\n      dup1\n        /* \"TNFT.sol\":646:652  reward */\n      0x06\n        /* \"TNFT.sol\":646:656  reward[id] */\n      0x00\n        /* \"TNFT.sol\":653:655  id */\n      dup6\n        /* \"TNFT.sol\":646:656  reward[id] */\n      dup2\n      mstore\n      0x20\n      add\n      swap1\n      dup2\n      mstore\n      0x20\n      add\n      0x00\n      keccak256\n        /* \"TNFT.sol\":646:663  reward[id][token] */\n      0x00\n        /* \"TNFT.sol\":657:662  token */\n      dup5\n        /* \"TNFT.sol\":646:663  reward[id][token] */\n      0xffffffffffffffffffffffffffffffffffffffff\n      and\n      0xffffffffffffffffffffffffffffffffffffffff\n      and\n      dup2\n      mstore\n      0x20\n      add\n      swap1\n      dup2\n      mstore\n      0x20\n      add\n      0x00\n      keccak256\n        /* \"TNFT.sol\":646:672  reward[id][token] = amount */\n      dup2\n      swap1\n      sstore\n      pop\n        /* \"TNFT.sol\":462:679  function depositReward(... */\n      pop\n      pop\n      pop\n      jump\t// out\n        /* \"draft/ERC721.sol\":503:571  mapping(address => mapping(address => bool)) public isApprovedForAll */\n    tag_83:\n      mstore(0x20, 0x03)\n      dup2\n      0x00\n      mstore\n      mstore(0x20, keccak256(0x00, 0x40))\n      dup1\n      0x00\n      mstore\n      keccak256(0x00, 0x40)\n      0x00\n      swap2\n      pop\n      swap2\n      pop\n      swap1\n      sload\n      swap1\n      0x0100\n      exp\n      swap1\n      div\n      0xff\n      and\n      dup2\n      jump\t// out\n        /* \"TNFT.sol\":685:939  function withdrawReward(... */\n    tag_87:\n        /* \"TNFT.sol\":821:829  _ownerOf */\n      0x00\n        /* \"TNFT.sol\":821:833  _ownerOf[id] */\n      dup1\n        /* \"TNFT.sol\":830:832  id */\n      dup5\n        /* \"TNFT.sol\":821:833  _ownerOf[id] */\n      dup2\n      mstore\n      0x20\n      add\n      swap1\n      dup2\n      mstore\n      0x20\n      add\n      0x00\n      keccak256\n      0x00\n      swap1\n      sload\n      swap1\n      0x0100\n      exp\n      swap1\n      div\n      0xffffffffffffffffffffffffffffffffffffffff\n      and\n        /* \"TNFT.sol\":807:833  msg.sender == _ownerOf[id] */\n      0xffffffffffffffffffffffffffffffffffffffff\n      and\n        /* \"TNFT.sol\":807:817  msg.sender */\n      caller\n        /* \"TNFT.sol\":807:833  msg.sender == _ownerOf[id] */\n      0xffffffffffffffffffffffffffffffffffffffff\n      and\n      eq\n        /* \"TNFT.sol\":799:834  require(msg.sender == _ownerOf[id]) */\n      tag_167\n      jumpi\n      0x00\n      dup1\n      revert\n    tag_167:\n        /* \"TNFT.sol\":873:879  amount */\n      dup1\n        /* \"TNFT.sol\":852:858  reward */\n      0x06\n        /* \"TNFT.sol\":852:862  reward[id] */\n      0x00\n        /* \"TNFT.sol\":859:861  id */\n      dup6\n        /* \"TNFT.sol\":852:862  reward[id] */\n      dup2\n      mstore\n      0x20\n      add\n      swap1\n      dup2\n      mstore\n      0x20\n      add\n      0x00\n      keccak256\n        /* \"TNFT.sol\":852:869  reward[id][token] */\n      0x00\n        /* \"TNFT.sol\":863:868  token */\n      dup5\n        /* \"TNFT.sol\":852:869  reward[id][token] */\n      0xffffffffffffffffffffffffffffffffffffffff\n      and\n      0xffffffffffffffffffffffffffffffffffffffff\n      and\n      dup2\n      mstore\n      0x20\n      add\n      swap1\n      dup2\n      mstore\n      0x20\n      add\n      0x00\n      keccak256\n      sload\n        /* \"TNFT.sol\":852:879  reward[id][token] >= amount */\n      lt\n      iszero\n        /* \"TNFT.sol\":844:880  require(reward[id][token] >= amount) */\n      tag_168\n      jumpi\n      0x00\n      dup1\n      revert\n    tag_168:\n        /* \"TNFT.sol\":897:902  token */\n      dup2\n        /* \"TNFT.sol\":890:912  IERC20(token).transfer */\n      0xffffffffffffffffffffffffffffffffffffffff\n      and\n      0xa9059cbb\n        /* \"TNFT.sol\":913:923  msg.sender */\n      caller\n        /* \"TNFT.sol\":925:931  amount */\n      dup4\n        /* \"TNFT.sol\":890:932  IERC20(token).transfer(msg.sender, amount) */\n      mload(0x40)\n      dup4\n      0xffffffff\n      and\n      0xe0\n      shl\n      dup2\n      mstore\n      0x04\n      add\n      tag_169\n      swap3\n      swap2\n      swap1\n      tag_170\n      jump\t// in\n    tag_169:\n      0x20\n      mload(0x40)\n      dup1\n      dup4\n      sub\n      dup2\n      0x00\n      dup8\n      gas\n      call\n      iszero\n      dup1\n      iszero\n      tag_172\n      jumpi\n      returndatasize\n      0x00\n      dup1\n      returndatacopy\n      revert(0x00, returndatasize)\n    tag_172:\n      pop\n      pop\n      pop\n      pop\n      mload(0x40)\n      returndatasize\n      not(0x1f)\n      0x1f\n      dup3\n      add\n      and\n      dup3\n      add\n      dup1\n      0x40\n      mstore\n      pop\n      dup2\n      add\n      swap1\n      tag_173\n      swap2\n      swap1\n      tag_165\n      jump\t// in\n    tag_173:\n      pop\n        /* \"TNFT.sol\":685:939  function withdrawReward(... */\n      pop\n      pop\n      pop\n      jump\t// out\n        /* \"draft/ERC721.sol\":3218:3497  function _mint(address to, uint256 id) internal {... */\n    tag_105:\n        /* \"draft/ERC721.sol\":3299:3300  0 */\n      0x00\n        /* \"draft/ERC721.sol\":3285:3301  to != address(0) */\n      0xffffffffffffffffffffffffffffffffffffffff\n      and\n        /* \"draft/ERC721.sol\":3285:3287  to */\n      dup3\n        /* \"draft/ERC721.sol\":3285:3301  to != address(0) */\n      0xffffffffffffffffffffffffffffffffffffffff\n      and\n      sub\n        /* \"draft/ERC721.sol\":3277:3326  require(to != address(0), \"mint to zero address\") */\n      tag_175\n      jumpi\n      mload(0x40)\n      0x08c379a000000000000000000000000000000000000000000000000000000000\n      dup2\n      mstore\n      0x04\n      add\n      tag_176\n      swap1\n      tag_177\n      jump\t// in\n    tag_176:\n      mload(0x40)\n      dup1\n      swap2\n      sub\n      swap1\n      revert\n    tag_175:\n        /* \"draft/ERC721.sol\":3369:3370  0 */\n      0x00\n        /* \"draft/ERC721.sol\":3345:3371  _ownerOf[id] == address(0) */\n      0xffffffffffffffffffffffffffffffffffffffff\n      and\n        /* \"draft/ERC721.sol\":3345:3353  _ownerOf */\n      0x00\n        /* \"draft/ERC721.sol\":3345:3357  _ownerOf[id] */\n      dup1\n        /* \"draft/ERC721.sol\":3354:3356  id */\n      dup4\n        /* \"draft/ERC721.sol\":3345:3357  _ownerOf[id] */\n      dup2\n      mstore\n      0x20\n      add\n      swap1\n      dup2\n      mstore\n      0x20\n      add\n      0x00\n      keccak256\n      0x00\n      swap1\n      sload\n      swap1\n      0x0100\n      exp\n      swap1\n      div\n      0xffffffffffffffffffffffffffffffffffffffff\n      and\n        /* \"draft/ERC721.sol\":3345:3371  _ownerOf[id] == address(0) */\n      0xffffffffffffffffffffffffffffffffffffffff\n      and\n      eq\n        /* \"draft/ERC721.sol\":3337:3390  require(_ownerOf[id] == address(0), \"already minted\") */\n      tag_178\n      jumpi\n      mload(0x40)\n      0x08c379a000000000000000000000000000000000000000000000000000000000\n      dup2\n      mstore\n      0x04\n      add\n      tag_179\n      swap1\n      tag_180\n      jump\t// in\n    tag_179:\n      mload(0x40)\n      dup1\n      swap2\n      sub\n      swap1\n      revert\n    tag_178:\n        /* \"draft/ERC721.sol\":3401:3411  _balanceOf */\n      0x01\n        /* \"draft/ERC721.sol\":3401:3415  _balanceOf[to] */\n      0x00\n        /* \"draft/ERC721.sol\":3412:3414  to */\n      dup4\n        /* \"draft/ERC721.sol\":3401:3415  _balanceOf[to] */\n      0xffffffffffffffffffffffffffffffffffffffff\n      and\n      0xffffffffffffffffffffffffffffffffffffffff\n      and\n      dup2\n      mstore\n      0x20\n      add\n      swap1\n      dup2\n      mstore\n      0x20\n      add\n      0x00\n      keccak256\n      0x00\n        /* \"draft/ERC721.sol\":3401:3417  _balanceOf[to]++ */\n      dup2\n      sload\n      dup1\n      swap3\n      swap2\n      swap1\n      tag_181\n      swap1\n      tag_123\n      jump\t// in\n    tag_181:\n      swap2\n      swap1\n      pop\n      sstore\n      pop\n        /* \"draft/ERC721.sol\":3443:3445  to */\n      dup2\n        /* \"draft/ERC721.sol\":3428:3436  _ownerOf */\n      0x00\n        /* \"draft/ERC721.sol\":3428:3440  _ownerOf[id] */\n      dup1\n        /* \"draft/ERC721.sol\":3437:3439  id */\n      dup4\n        /* \"draft/ERC721.sol\":3428:3440  _ownerOf[id] */\n      dup2\n      mstore\n      0x20\n      add\n      swap1\n      dup2\n      mstore\n      0x20\n      add\n      0x00\n      keccak256\n      0x00\n        /* \"draft/ERC721.sol\":3428:3445  _ownerOf[id] = to */\n      0x0100\n      exp\n      dup2\n      sload\n      dup2\n      0xffffffffffffffffffffffffffffffffffffffff\n      mul\n      not\n      and\n      swap1\n      dup4\n      0xffffffffffffffffffffffffffffffffffffffff\n      and\n      mul\n      or\n      swap1\n      sstore\n      pop\n        /* \"draft/ERC721.sol\":3486:3488  id */\n      dup1\n        /* \"draft/ERC721.sol\":3482:3484  to */\n      dup3\n        /* \"draft/ERC721.sol\":3461:3489  Transfer(address(0), to, id) */\n      0xffffffffffffffffffffffffffffffffffffffff\n      and\n        /* \"draft/ERC721.sol\":3478:3479  0 */\n      0x00\n        /* \"draft/ERC721.sol\":3461:3489  Transfer(address(0), to, id) */\n      0xffffffffffffffffffffffffffffffffffffffff\n      and\n      0xddf252ad1be2c89b69c2b068fc378daa952ba7f163c4a11628f55a4df523b3ef\n      mload(0x40)\n      mload(0x40)\n      dup1\n      swap2\n      sub\n      swap1\n      log4\n        /* \"draft/ERC721.sol\":3218:3497  function _mint(address to, uint256 id) internal {... */\n      pop\n      pop\n      jump\t// out\n        /* \"draft/ERC721.sol\":1804:2048  function _isApprovedOrOwner(... */\n    tag_117:\n        /* \"draft/ERC721.sol\":1933:1937  bool */\n      0x00\n        /* \"draft/ERC721.sol\":1969:1974  owner */\n      dup4\n        /* \"draft/ERC721.sol\":1958:1974  spender == owner */\n      0xffffffffffffffffffffffffffffffffffffffff\n      and\n        /* \"draft/ERC721.sol\":1958:1965  spender */\n      dup4\n        /* \"draft/ERC721.sol\":1958:1974  spender == owner */\n      0xffffffffffffffffffffffffffffffffffffffff\n      and\n      eq\n        /* \"draft/ERC721.sol\":1958:2010  spender == owner || isApprovedForAll[owner][spender] */\n      dup1\n      tag_183\n      jumpi\n      pop\n        /* \"draft/ERC721.sol\":1978:1994  isApprovedForAll */\n      0x03\n        /* \"draft/ERC721.sol\":1978:2001  isApprovedForAll[owner] */\n      0x00\n        /* \"draft/ERC721.sol\":1995:2000  owner */\n      dup6\n        /* \"draft/ERC721.sol\":1978:2001  isApprovedForAll[owner] */\n      0xffffffffffffffffffffffffffffffffffffffff\n      and\n      0xffffffffffffffffffffffffffffffffffffffff\n      and\n      dup2\n      mstore\n      0x20\n      add\n      swap1\n      dup2\n      mstore\n      0x20\n      add\n      0x00\n      keccak256\n        /* \"draft/ERC721.sol\":1978:2010  isApprovedForAll[owner][spender] */\n      0x00\n        /* \"draft/ERC721.sol\":2002:2009  spender */\n      dup5\n        /* \"draft/ERC721.sol\":1978:2010  isApprovedForAll[owner][spender] */\n      0xffffffffffffffffffffffffffffffffffffffff\n      and\n      0xffffffffffffffffffffffffffffffffffffffff\n      and\n      dup2\n      mstore\n      0x20\n      add\n      swap1\n      dup2\n      mstore\n      0x20\n      add\n      0x00\n      keccak256\n      0x00\n      swap1\n      sload\n      swap1\n      0x0100\n      exp\n      swap1\n      div\n      0xff\n      and\n        /* \"draft/ERC721.sol\":1958:2010  spender == owner || isApprovedForAll[owner][spender] */\n    tag_183:\n        /* \"draft/ERC721.sol\":1958:2039  spender == owner || isApprovedForAll[owner][spender] || spender == _approvals[id] */\n      dup1\n      tag_184\n      jumpi\n      pop\n        /* \"draft/ERC721.sol\":2025:2035  _approvals */\n      0x02\n        /* \"draft/ERC721.sol\":2025:2039  _approvals[id] */\n      0x00\n        /* \"draft/ERC721.sol\":2036:2038  id */\n      dup4\n        /* \"draft/ERC721.sol\":2025:2039  _approvals[id] */\n      dup2\n      mstore\n      0x20\n      add\n      swap1\n      dup2\n      mstore\n      0x20\n      add\n      0x00\n      keccak256\n      0x00\n      swap1\n      sload\n      swap1\n      0x0100\n      exp\n      swap1\n      div\n      0xffffffffffffffffffffffffffffffffffffffff\n      and\n        /* \"draft/ERC721.sol\":2014:2039  spender == _approvals[id] */\n      0xffffffffffffffffffffffffffffffffffffffff\n      and\n        /* \"draft/ERC721.sol\":2014:2021  spender */\n      dup4\n        /* \"draft/ERC721.sol\":2014:2039  spender == _approvals[id] */\n      0xffffffffffffffffffffffffffffffffffffffff\n      and\n      eq\n        /* \"draft/ERC721.sol\":1958:2039  spender == owner || isApprovedForAll[owner][spender] || spender == _approvals[id] */\n    tag_184:\n        /* \"draft/ERC721.sol\":1950:2040  return (spender == owner || isApprovedForAll[owner][spender] || spender == _approvals[id]) */\n      swap1\n      pop\n        /* \"draft/ERC721.sol\":1804:2048  function _isApprovedOrOwner(... */\n      swap4\n      swap3\n      pop\n      pop\n      pop\n      jump\t// out\n        /* \"#utility.yul\":88:205   */\n    tag_186:\n        /* \"#utility.yul\":197:198   */\n      0x00\n        /* \"#utility.yul\":194:195   */\n      dup1\n        /* \"#utility.yul\":187:199   */\n      revert\n        /* \"#utility.yul\":211:328   */\n    tag_187:\n        /* \"#utility.yul\":320:321   */\n      0x00\n        /* \"#utility.yul\":317:318   */\n      dup1\n        /* \"#utility.yul\":310:322   */\n      revert\n        /* \"#utility.yul\":334:483   */\n    tag_188:\n        /* \"#utility.yul\":370:377   */\n      0x00\n        /* \"#utility.yul\":410:476   */\n      0xffffffff00000000000000000000000000000000000000000000000000000000\n        /* \"#utility.yul\":403:408   */\n      dup3\n        /* \"#utility.yul\":399:477   */\n      and\n        /* \"#utility.yul\":388:477   */\n      swap1\n      pop\n        /* \"#utility.yul\":334:483   */\n      swap2\n      swap1\n      pop\n      jump\t// out\n        /* \"#utility.yul\":489:609   */\n    tag_189:\n        /* \"#utility.yul\":561:584   */\n      tag_242\n        /* \"#utility.yul\":578:583   */\n      dup2\n        /* \"#utility.yul\":561:584   */\n      tag_188\n      jump\t// in\n    tag_242:\n        /* \"#utility.yul\":554:559   */\n      dup2\n        /* \"#utility.yul\":551:585   */\n      eq\n        /* \"#utility.yul\":541:603   */\n      tag_243\n      jumpi\n        /* \"#utility.yul\":599:600   */\n      0x00\n        /* \"#utility.yul\":596:597   */\n      dup1\n        /* \"#utility.yul\":589:601   */\n      revert\n        /* \"#utility.yul\":541:603   */\n    tag_243:\n        /* \"#utility.yul\":489:609   */\n      pop\n      jump\t// out\n        /* \"#utility.yul\":615:752   */\n    tag_190:\n        /* \"#utility.yul\":660:665   */\n      0x00\n        /* \"#utility.yul\":698:704   */\n      dup2\n        /* \"#utility.yul\":685:705   */\n      calldataload\n        /* \"#utility.yul\":676:705   */\n      swap1\n      pop\n        /* \"#utility.yul\":714:746   */\n      tag_245\n        /* \"#utility.yul\":740:745   */\n      dup2\n        /* \"#utility.yul\":714:746   */\n      tag_189\n      jump\t// in\n    tag_245:\n        /* \"#utility.yul\":615:752   */\n      swap3\n      swap2\n      pop\n      pop\n      jump\t// out\n        /* \"#utility.yul\":758:1085   */\n    tag_24:\n        /* \"#utility.yul\":816:822   */\n      0x00\n        /* \"#utility.yul\":865:867   */\n      0x20\n        /* \"#utility.yul\":853:862   */\n      dup3\n        /* \"#utility.yul\":844:851   */\n      dup5\n        /* \"#utility.yul\":840:863   */\n      sub\n        /* \"#utility.yul\":836:868   */\n      slt\n        /* \"#utility.yul\":833:952   */\n      iszero\n      tag_247\n      jumpi\n        /* \"#utility.yul\":871:950   */\n      tag_248\n      tag_186\n      jump\t// in\n    tag_248:\n        /* \"#utility.yul\":833:952   */\n    tag_247:\n        /* \"#utility.yul\":991:992   */\n      0x00\n        /* \"#utility.yul\":1016:1068   */\n      tag_249\n        /* \"#utility.yul\":1060:1067   */\n      dup5\n        /* \"#utility.yul\":1051:1057   */\n      dup3\n        /* \"#utility.yul\":1040:1049   */\n      dup6\n        /* \"#utility.yul\":1036:1058   */\n      add\n        /* \"#utility.yul\":1016:1068   */\n      tag_190\n      jump\t// in\n    tag_249:\n        /* \"#utility.yul\":1006:1068   */\n      swap2\n      pop\n        /* \"#utility.yul\":962:1078   */\n      pop\n        /* \"#utility.yul\":758:1085   */\n      swap3\n      swap2\n      pop\n      pop\n      jump\t// out\n        /* \"#utility.yul\":1091:1181   */\n    tag_191:\n        /* \"#utility.yul\":1125:1132   */\n      0x00\n        /* \"#utility.yul\":1168:1173   */\n      dup2\n        /* \"#utility.yul\":1161:1174   */\n      iszero\n        /* \"#utility.yul\":1154:1175   */\n      iszero\n        /* \"#utility.yul\":1143:1175   */\n      swap1\n      pop\n        /* \"#utility.yul\":1091:1181   */\n      swap2\n      swap1\n      pop\n      jump\t// out\n        /* \"#utility.yul\":1187:1296   */\n    tag_192:\n        /* \"#utility.yul\":1268:1289   */\n      tag_252\n        /* \"#utility.yul\":1283:1288   */\n      dup2\n        /* \"#utility.yul\":1268:1289   */\n      tag_191\n      jump\t// in\n    tag_252:\n        /* \"#utility.yul\":1263:1266   */\n      dup3\n        /* \"#utility.yul\":1256:1290   */\n      mstore\n        /* \"#utility.yul\":1187:1296   */\n      pop\n      pop\n      jump\t// out\n        /* \"#utility.yul\":1302:1512   */\n    tag_27:\n        /* \"#utility.yul\":1389:1393   */\n      0x00\n        /* \"#utility.yul\":1427:1429   */\n      0x20\n        /* \"#utility.yul\":1416:1425   */\n      dup3\n        /* \"#utility.yul\":1412:1430   */\n      add\n        /* \"#utility.yul\":1404:1430   */\n      swap1\n      pop\n        /* \"#utility.yul\":1440:1505   */\n      tag_254\n        /* \"#utility.yul\":1502:1503   */\n      0x00\n        /* \"#utility.yul\":1491:1500   */\n      dup4\n        /* \"#utility.yul\":1487:1504   */\n      add\n        /* \"#utility.yul\":1478:1484   */\n      dup5\n        /* \"#utility.yul\":1440:1505   */\n      tag_192\n      jump\t// in\n    tag_254:\n        /* \"#utility.yul\":1302:1512   */\n      swap3\n      swap2\n      pop\n      pop\n      jump\t// out\n        /* \"#utility.yul\":1518:1595   */\n    tag_193:\n        /* \"#utility.yul\":1555:1562   */\n      0x00\n        /* \"#utility.yul\":1584:1589   */\n      dup2\n        /* \"#utility.yul\":1573:1589   */\n      swap1\n      pop\n        /* \"#utility.yul\":1518:1595   */\n      swap2\n      swap1\n      pop\n      jump\t// out\n        /* \"#utility.yul\":1601:1723   */\n    tag_194:\n        /* \"#utility.yul\":1674:1698   */\n      tag_257\n        /* \"#utility.yul\":1692:1697   */\n      dup2\n        /* \"#utility.yul\":1674:1698   */\n      tag_193\n      jump\t// in\n    tag_257:\n        /* \"#utility.yul\":1667:1672   */\n      dup2\n        /* \"#utility.yul\":1664:1699   */\n      eq\n        /* \"#utility.yul\":1654:1717   */\n      tag_258\n      jumpi\n        /* \"#utility.yul\":1713:1714   */\n      0x00\n        /* \"#utility.yul\":1710:1711   */\n      dup1\n        /* \"#utility.yul\":1703:1715   */\n      revert\n        /* \"#utility.yul\":1654:1717   */\n    tag_258:\n        /* \"#utility.yul\":1601:1723   */\n      pop\n      jump\t// out\n        /* \"#utility.yul\":1729:1868   */\n    tag_195:\n        /* \"#utility.yul\":1775:1780   */\n      0x00\n        /* \"#utility.yul\":1813:1819   */\n      dup2\n        /* \"#utility.yul\":1800:1820   */\n      calldataload\n        /* \"#utility.yul\":1791:1820   */\n      swap1\n      pop\n        /* \"#utility.yul\":1829:1862   */\n      tag_260\n        /* \"#utility.yul\":1856:1861   */\n      dup2\n        /* \"#utility.yul\":1829:1862   */\n      tag_194\n      jump\t// in\n    tag_260:\n        /* \"#utility.yul\":1729:1868   */\n      swap3\n      swap2\n      pop\n      pop\n      jump\t// out\n        /* \"#utility.yul\":1874:2203   */\n    tag_30:\n        /* \"#utility.yul\":1933:1939   */\n      0x00\n        /* \"#utility.yul\":1982:1984   */\n      0x20\n        /* \"#utility.yul\":1970:1979   */\n      dup3\n        /* \"#utility.yul\":1961:1968   */\n      dup5\n        /* \"#utility.yul\":1957:1980   */\n      sub\n        /* \"#utility.yul\":1953:1985   */\n      slt\n        /* \"#utility.yul\":1950:2069   */\n      iszero\n      tag_262\n      jumpi\n        /* \"#utility.yul\":1988:2067   */\n      tag_263\n      tag_186\n      jump\t// in\n    tag_263:\n        /* \"#utility.yul\":1950:2069   */\n    tag_262:\n        /* \"#utility.yul\":2108:2109   */\n      0x00\n        /* \"#utility.yul\":2133:2186   */\n      tag_264\n        /* \"#utility.yul\":2178:2185   */\n      dup5\n        /* \"#utility.yul\":2169:2175   */\n      dup3\n        /* \"#utility.yul\":2158:2167   */\n      dup6\n        /* \"#utility.yul\":2154:2176   */\n      add\n        /* \"#utility.yul\":2133:2186   */\n      tag_195\n      jump\t// in\n    tag_264:\n        /* \"#utility.yul\":2123:2186   */\n      swap2\n      pop\n        /* \"#utility.yul\":2079:2196   */\n      pop\n        /* \"#utility.yul\":1874:2203   */\n      swap3\n      swap2\n      pop\n      pop\n      jump\t// out\n        /* \"#utility.yul\":2209:2335   */\n    tag_196:\n        /* \"#utility.yul\":2246:2253   */\n      0x00\n        /* \"#utility.yul\":2286:2328   */\n      0xffffffffffffffffffffffffffffffffffffffff\n        /* \"#utility.yul\":2279:2284   */\n      dup3\n        /* \"#utility.yul\":2275:2329   */\n      and\n        /* \"#utility.yul\":2264:2329   */\n      swap1\n      pop\n        /* \"#utility.yul\":2209:2335   */\n      swap2\n      swap1\n      pop\n      jump\t// out\n        /* \"#utility.yul\":2341:2437   */\n    tag_197:\n        /* \"#utility.yul\":2378:2385   */\n      0x00\n        /* \"#utility.yul\":2407:2431   */\n      tag_267\n        /* \"#utility.yul\":2425:2430   */\n      dup3\n        /* \"#utility.yul\":2407:2431   */\n      tag_196\n      jump\t// in\n    tag_267:\n        /* \"#utility.yul\":2396:2431   */\n      swap1\n      pop\n        /* \"#utility.yul\":2341:2437   */\n      swap2\n      swap1\n      pop\n      jump\t// out\n        /* \"#utility.yul\":2443:2561   */\n    tag_198:\n        /* \"#utility.yul\":2530:2554   */\n      tag_269\n        /* \"#utility.yul\":2548:2553   */\n      dup2\n        /* \"#utility.yul\":2530:2554   */\n      tag_197\n      jump\t// in\n    tag_269:\n        /* \"#utility.yul\":2525:2528   */\n      dup3\n        /* \"#utility.yul\":2518:2555   */\n      mstore\n        /* \"#utility.yul\":2443:2561   */\n      pop\n      pop\n      jump\t// out\n        /* \"#utility.yul\":2567:2789   */\n    tag_33:\n        /* \"#utility.yul\":2660:2664   */\n      0x00\n        /* \"#utility.yul\":2698:2700   */\n      0x20\n        /* \"#utility.yul\":2687:2696   */\n      dup3\n        /* \"#utility.yul\":2683:2701   */\n      add\n        /* \"#utility.yul\":2675:2701   */\n      swap1\n      pop\n        /* \"#utility.yul\":2711:2782   */\n      tag_271\n        /* \"#utility.yul\":2779:2780   */\n      0x00\n        /* \"#utility.yul\":2768:2777   */\n      dup4\n        /* \"#utility.yul\":2764:2781   */\n      add\n        /* \"#utility.yul\":2755:2761   */\n      dup5\n        /* \"#utility.yul\":2711:2782   */\n      tag_198\n      jump\t// in\n    tag_271:\n        /* \"#utility.yul\":2567:2789   */\n      swap3\n      swap2\n      pop\n      pop\n      jump\t// out\n        /* \"#utility.yul\":2795:2917   */\n    tag_199:\n        /* \"#utility.yul\":2868:2892   */\n      tag_273\n        /* \"#utility.yul\":2886:2891   */\n      dup2\n        /* \"#utility.yul\":2868:2892   */\n      tag_197\n      jump\t// in\n    tag_273:\n        /* \"#utility.yul\":2861:2866   */\n      dup2\n        /* \"#utility.yul\":2858:2893   */\n      eq\n        /* \"#utility.yul\":2848:2911   */\n      tag_274\n      jumpi\n        /* \"#utility.yul\":2907:2908   */\n      0x00\n        /* \"#utility.yul\":2904:2905   */\n      dup1\n        /* \"#utility.yul\":2897:2909   */\n      revert\n        /* \"#utility.yul\":2848:2911   */\n    tag_274:\n        /* \"#utility.yul\":2795:2917   */\n      pop\n      jump\t// out\n        /* \"#utility.yul\":2923:3062   */\n    tag_200:\n        /* \"#utility.yul\":2969:2974   */\n      0x00\n        /* \"#utility.yul\":3007:3013   */\n      dup2\n        /* \"#utility.yul\":2994:3014   */\n      calldataload\n        /* \"#utility.yul\":2985:3014   */\n      swap1\n      pop\n        /* \"#utility.yul\":3023:3056   */\n      tag_276\n        /* \"#utility.yul\":3050:3055   */\n      dup2\n        /* \"#utility.yul\":3023:3056   */\n      tag_199\n      jump\t// in\n    tag_276:\n        /* \"#utility.yul\":2923:3062   */\n      swap3\n      swap2\n      pop\n      pop\n      jump\t// out\n        /* \"#utility.yul\":3068:3542   */\n    tag_36:\n        /* \"#utility.yul\":3136:3142   */\n      0x00\n        /* \"#utility.yul\":3144:3150   */\n      dup1\n        /* \"#utility.yul\":3193:3195   */\n      0x40\n        /* \"#utility.yul\":3181:3190   */\n      dup4\n        /* \"#utility.yul\":3172:3179   */\n      dup6\n        /* \"#utility.yul\":3168:3191   */\n      sub\n        /* \"#utility.yul\":3164:3196   */\n      slt\n        /* \"#utility.yul\":3161:3280   */\n      iszero\n      tag_278\n      jumpi\n        /* \"#utility.yul\":3199:3278   */\n      tag_279\n      tag_186\n      jump\t// in\n    tag_279:\n        /* \"#utility.yul\":3161:3280   */\n    tag_278:\n        /* \"#utility.yul\":3319:3320   */\n      0x00\n        /* \"#utility.yul\":3344:3397   */\n      tag_280\n        /* \"#utility.yul\":3389:3396   */\n      dup6\n        /* \"#utility.yul\":3380:3386   */\n      dup3\n        /* \"#utility.yul\":3369:3378   */\n      dup7\n        /* \"#utility.yul\":3365:3387   */\n      add\n        /* \"#utility.yul\":3344:3397   */\n      tag_200\n      jump\t// in\n    tag_280:\n        /* \"#utility.yul\":3334:3397   */\n      swap3\n      pop\n        /* \"#utility.yul\":3290:3407   */\n      pop\n        /* \"#utility.yul\":3446:3448   */\n      0x20\n        /* \"#utility.yul\":3472:3525   */\n      tag_281\n        /* \"#utility.yul\":3517:3524   */\n      dup6\n        /* \"#utility.yul\":3508:3514   */\n      dup3\n        /* \"#utility.yul\":3497:3506   */\n      dup7\n        /* \"#utility.yul\":3493:3515   */\n      add\n        /* \"#utility.yul\":3472:3525   */\n      tag_195\n      jump\t// in\n    tag_281:\n        /* \"#utility.yul\":3462:3525   */\n      swap2\n      pop\n        /* \"#utility.yul\":3417:3535   */\n      pop\n        /* \"#utility.yul\":3068:3542   */\n      swap3\n      pop\n      swap3\n      swap1\n      pop\n      jump\t// out\n        /* \"#utility.yul\":3548:4022   */\n    tag_42:\n        /* \"#utility.yul\":3616:3622   */\n      0x00\n        /* \"#utility.yul\":3624:3630   */\n      dup1\n        /* \"#utility.yul\":3673:3675   */\n      0x40\n        /* \"#utility.yul\":3661:3670   */\n      dup4\n        /* \"#utility.yul\":3652:3659   */\n      dup6\n        /* \"#utility.yul\":3648:3671   */\n      sub\n        /* \"#utility.yul\":3644:3676   */\n      slt\n        /* \"#utility.yul\":3641:3760   */\n      iszero\n      tag_283\n      jumpi\n        /* \"#utility.yul\":3679:3758   */\n      tag_284\n      tag_186\n      jump\t// in\n    tag_284:\n        /* \"#utility.yul\":3641:3760   */\n    tag_283:\n        /* \"#utility.yul\":3799:3800   */\n      0x00\n        /* \"#utility.yul\":3824:3877   */\n      tag_285\n        /* \"#utility.yul\":3869:3876   */\n      dup6\n        /* \"#utility.yul\":3860:3866   */\n      dup3\n        /* \"#utility.yul\":3849:3858   */\n      dup7\n        /* \"#utility.yul\":3845:3867   */\n      add\n        /* \"#utility.yul\":3824:3877   */\n      tag_195\n      jump\t// in\n    tag_285:\n        /* \"#utility.yul\":3814:3877   */\n      swap3\n      pop\n        /* \"#utility.yul\":3770:3887   */\n      pop\n        /* \"#utility.yul\":3926:3928   */\n      0x20\n        /* \"#utility.yul\":3952:4005   */\n      tag_286\n        /* \"#utility.yul\":3997:4004   */\n      dup6\n        /* \"#utility.yul\":3988:3994   */\n      dup3\n        /* \"#utility.yul\":3977:3986   */\n      dup7\n        /* \"#utility.yul\":3973:3995   */\n      add\n        /* \"#utility.yul\":3952:4005   */\n      tag_200\n      jump\t// in\n    tag_286:\n        /* \"#utility.yul\":3942:4005   */\n      swap2\n      pop\n        /* \"#utility.yul\":3897:4015   */\n      pop\n        /* \"#utility.yul\":3548:4022   */\n      swap3\n      pop\n      swap3\n      swap1\n      pop\n      jump\t// out\n        /* \"#utility.yul\":4028:4146   */\n    tag_201:\n        /* \"#utility.yul\":4115:4139   */\n      tag_288\n        /* \"#utility.yul\":4133:4138   */\n      dup2\n        /* \"#utility.yul\":4115:4139   */\n      tag_193\n      jump\t// in\n    tag_288:\n        /* \"#utility.yul\":4110:4113   */\n      dup3\n        /* \"#utility.yul\":4103:4140   */\n      mstore\n        /* \"#utility.yul\":4028:4146   */\n      pop\n      pop\n      jump\t// out\n        /* \"#utility.yul\":4152:4374   */\n    tag_45:\n        /* \"#utility.yul\":4245:4249   */\n      0x00\n        /* \"#utility.yul\":4283:4285   */\n      0x20\n        /* \"#utility.yul\":4272:4281   */\n      dup3\n        /* \"#utility.yul\":4268:4286   */\n      add\n        /* \"#utility.yul\":4260:4286   */\n      swap1\n      pop\n        /* \"#utility.yul\":4296:4367   */\n      tag_290\n        /* \"#utility.yul\":4364:4365   */\n      0x00\n        /* \"#utility.yul\":4353:4362   */\n      dup4\n        /* \"#utility.yul\":4349:4366   */\n      add\n        /* \"#utility.yul\":4340:4346   */\n      dup5\n        /* \"#utility.yul\":4296:4367   */\n      tag_201\n      jump\t// in\n    tag_290:\n        /* \"#utility.yul\":4152:4374   */\n      swap3\n      swap2\n      pop\n      pop\n      jump\t// out\n        /* \"#utility.yul\":4380:4999   */\n    tag_48:\n        /* \"#utility.yul\":4457:4463   */\n      0x00\n        /* \"#utility.yul\":4465:4471   */\n      dup1\n        /* \"#utility.yul\":4473:4479   */\n      0x00\n        /* \"#utility.yul\":4522:4524   */\n      0x60\n        /* \"#utility.yul\":4510:4519   */\n      dup5\n        /* \"#utility.yul\":4501:4508   */\n      dup7\n        /* \"#utility.yul\":4497:4520   */\n      sub\n        /* \"#utility.yul\":4493:4525   */\n      slt\n        /* \"#utility.yul\":4490:4609   */\n      iszero\n      tag_292\n      jumpi\n        /* \"#utility.yul\":4528:4607   */\n      tag_293\n      tag_186\n      jump\t// in\n    tag_293:\n        /* \"#utility.yul\":4490:4609   */\n    tag_292:\n        /* \"#utility.yul\":4648:4649   */\n      0x00\n        /* \"#utility.yul\":4673:4726   */\n      tag_294\n        /* \"#utility.yul\":4718:4725   */\n      dup7\n        /* \"#utility.yul\":4709:4715   */\n      dup3\n        /* \"#utility.yul\":4698:4707   */\n      dup8\n        /* \"#utility.yul\":4694:4716   */\n      add\n        /* \"#utility.yul\":4673:4726   */\n      tag_200\n      jump\t// in\n    tag_294:\n        /* \"#utility.yul\":4663:4726   */\n      swap4\n      pop\n        /* \"#utility.yul\":4619:4736   */\n      pop\n        /* \"#utility.yul\":4775:4777   */\n      0x20\n        /* \"#utility.yul\":4801:4854   */\n      tag_295\n        /* \"#utility.yul\":4846:4853   */\n      dup7\n        /* \"#utility.yul\":4837:4843   */\n      dup3\n        /* \"#utility.yul\":4826:4835   */\n      dup8\n        /* \"#utility.yul\":4822:4844   */\n      add\n        /* \"#utility.yul\":4801:4854   */\n      tag_200\n      jump\t// in\n    tag_295:\n        /* \"#utility.yul\":4791:4854   */\n      swap3\n      pop\n        /* \"#utility.yul\":4746:4864   */\n      pop\n        /* \"#utility.yul\":4903:4905   */\n      0x40\n        /* \"#utility.yul\":4929:4982   */\n      tag_296\n        /* \"#utility.yul\":4974:4981   */\n      dup7\n        /* \"#utility.yul\":4965:4971   */\n      dup3\n        /* \"#utility.yul\":4954:4963   */\n      dup8\n        /* \"#utility.yul\":4950:4972   */\n      add\n        /* \"#utility.yul\":4929:4982   */\n      tag_195\n      jump\t// in\n    tag_296:\n        /* \"#utility.yul\":4919:4982   */\n      swap2\n      pop\n        /* \"#utility.yul\":4874:4992   */\n      pop\n        /* \"#utility.yul\":4380:4999   */\n      swap3\n      pop\n      swap3\n      pop\n      swap3\n      jump\t// out\n        /* \"#utility.yul\":5005:5334   */\n    tag_59:\n        /* \"#utility.yul\":5064:5070   */\n      0x00\n        /* \"#utility.yul\":5113:5115   */\n      0x20\n        /* \"#utility.yul\":5101:5110   */\n      dup3\n        /* \"#utility.yul\":5092:5099   */\n      dup5\n        /* \"#utility.yul\":5088:5111   */\n      sub\n        /* \"#utility.yul\":5084:5116   */\n      slt\n        /* \"#utility.yul\":5081:5200   */\n      iszero\n      tag_298\n      jumpi\n        /* \"#utility.yul\":5119:5198   */\n      tag_299\n      tag_186\n      jump\t// in\n    tag_299:\n        /* \"#utility.yul\":5081:5200   */\n    tag_298:\n        /* \"#utility.yul\":5239:5240   */\n      0x00\n        /* \"#utility.yul\":5264:5317   */\n      tag_300\n        /* \"#utility.yul\":5309:5316   */\n      dup5\n        /* \"#utility.yul\":5300:5306   */\n      dup3\n        /* \"#utility.yul\":5289:5298   */\n      dup6\n        /* \"#utility.yul\":5285:5307   */\n      add\n        /* \"#utility.yul\":5264:5317   */\n      tag_200\n      jump\t// in\n    tag_300:\n        /* \"#utility.yul\":5254:5317   */\n      swap2\n      pop\n        /* \"#utility.yul\":5210:5327   */\n      pop\n        /* \"#utility.yul\":5005:5334   */\n      swap3\n      swap2\n      pop\n      pop\n      jump\t// out\n        /* \"#utility.yul\":5340:5456   */\n    tag_202:\n        /* \"#utility.yul\":5410:5431   */\n      tag_302\n        /* \"#utility.yul\":5425:5430   */\n      dup2\n        /* \"#utility.yul\":5410:5431   */\n      tag_191\n      jump\t// in\n    tag_302:\n        /* \"#utility.yul\":5403:5408   */\n      dup2\n        /* \"#utility.yul\":5400:5432   */\n      eq\n        /* \"#utility.yul\":5390:5450   */\n      tag_303\n      jumpi\n        /* \"#utility.yul\":5446:5447   */\n      0x00\n        /* \"#utility.yul\":5443:5444   */\n      dup1\n        /* \"#utility.yul\":5436:5448   */\n      revert\n        /* \"#utility.yul\":5390:5450   */\n    tag_303:\n        /* \"#utility.yul\":5340:5456   */\n      pop\n      jump\t// out\n        /* \"#utility.yul\":5462:5595   */\n    tag_203:\n        /* \"#utility.yul\":5505:5510   */\n      0x00\n        /* \"#utility.yul\":5543:5549   */\n      dup2\n        /* \"#utility.yul\":5530:5550   */\n      calldataload\n        /* \"#utility.yul\":5521:5550   */\n      swap1\n      pop\n        /* \"#utility.yul\":5559:5589   */\n      tag_305\n        /* \"#utility.yul\":5583:5588   */\n      dup2\n        /* \"#utility.yul\":5559:5589   */\n      tag_202\n      jump\t// in\n    tag_305:\n        /* \"#utility.yul\":5462:5595   */\n      swap3\n      swap2\n      pop\n      pop\n      jump\t// out\n        /* \"#utility.yul\":5601:6069   */\n    tag_70:\n        /* \"#utility.yul\":5666:5672   */\n      0x00\n        /* \"#utility.yul\":5674:5680   */\n      dup1\n        /* \"#utility.yul\":5723:5725   */\n      0x40\n        /* \"#utility.yul\":5711:5720   */\n      dup4\n        /* \"#utility.yul\":5702:5709   */\n      dup6\n        /* \"#utility.yul\":5698:5721   */\n      sub\n        /* \"#utility.yul\":5694:5726   */\n      slt\n        /* \"#utility.yul\":5691:5810   */\n      iszero\n      tag_307\n      jumpi\n        /* \"#utility.yul\":5729:5808   */\n      tag_308\n      tag_186\n      jump\t// in\n    tag_308:\n        /* \"#utility.yul\":5691:5810   */\n    tag_307:\n        /* \"#utility.yul\":5849:5850   */\n      0x00\n        /* \"#utility.yul\":5874:5927   */\n      tag_309\n        /* \"#utility.yul\":5919:5926   */\n      dup6\n        /* \"#utility.yul\":5910:5916   */\n      dup3\n        /* \"#utility.yul\":5899:5908   */\n      dup7\n        /* \"#utility.yul\":5895:5917   */\n      add\n        /* \"#utility.yul\":5874:5927   */\n      tag_200\n      jump\t// in\n    tag_309:\n        /* \"#utility.yul\":5864:5927   */\n      swap3\n      pop\n        /* \"#utility.yul\":5820:5937   */\n      pop\n        /* \"#utility.yul\":5976:5978   */\n      0x20\n        /* \"#utility.yul\":6002:6052   */\n      tag_310\n        /* \"#utility.yul\":6044:6051   */\n      dup6\n        /* \"#utility.yul\":6035:6041   */\n      dup3\n        /* \"#utility.yul\":6024:6033   */\n      dup7\n        /* \"#utility.yul\":6020:6042   */\n      add\n        /* \"#utility.yul\":6002:6052   */\n      tag_203\n      jump\t// in\n    tag_310:\n        /* \"#utility.yul\":5992:6052   */\n      swap2\n      pop\n        /* \"#utility.yul\":5947:6062   */\n      pop\n        /* \"#utility.yul\":5601:6069   */\n      swap3\n      pop\n      swap3\n      swap1\n      pop\n      jump\t// out\n        /* \"#utility.yul\":6075:6192   */\n    tag_204:\n        /* \"#utility.yul\":6184:6185   */\n      0x00\n        /* \"#utility.yul\":6181:6182   */\n      dup1\n        /* \"#utility.yul\":6174:6186   */\n      revert\n        /* \"#utility.yul\":6198:6315   */\n    tag_205:\n        /* \"#utility.yul\":6307:6308   */\n      0x00\n        /* \"#utility.yul\":6304:6305   */\n      dup1\n        /* \"#utility.yul\":6297:6309   */\n      revert\n        /* \"#utility.yul\":6321:6438   */\n    tag_206:\n        /* \"#utility.yul\":6430:6431   */\n      0x00\n        /* \"#utility.yul\":6427:6428   */\n      dup1\n        /* \"#utility.yul\":6420:6432   */\n      revert\n        /* \"#utility.yul\":6457:7009   */\n    tag_207:\n        /* \"#utility.yul\":6514:6522   */\n      0x00\n        /* \"#utility.yul\":6524:6530   */\n      dup1\n        /* \"#utility.yul\":6574:6577   */\n      dup4\n        /* \"#utility.yul\":6567:6571   */\n      0x1f\n        /* \"#utility.yul\":6559:6565   */\n      dup5\n        /* \"#utility.yul\":6555:6572   */\n      add\n        /* \"#utility.yul\":6551:6578   */\n      slt\n        /* \"#utility.yul\":6541:6663   */\n      tag_315\n      jumpi\n        /* \"#utility.yul\":6582:6661   */\n      tag_316\n      tag_204\n      jump\t// in\n    tag_316:\n        /* \"#utility.yul\":6541:6663   */\n    tag_315:\n        /* \"#utility.yul\":6695:6701   */\n      dup3\n        /* \"#utility.yul\":6682:6702   */\n      calldataload\n        /* \"#utility.yul\":6672:6702   */\n      swap1\n      pop\n        /* \"#utility.yul\":6725:6743   */\n      0xffffffffffffffff\n        /* \"#utility.yul\":6717:6723   */\n      dup2\n        /* \"#utility.yul\":6714:6744   */\n      gt\n        /* \"#utility.yul\":6711:6828   */\n      iszero\n      tag_317\n      jumpi\n        /* \"#utility.yul\":6747:6826   */\n      tag_318\n      tag_205\n      jump\t// in\n    tag_318:\n        /* \"#utility.yul\":6711:6828   */\n    tag_317:\n        /* \"#utility.yul\":6861:6865   */\n      0x20\n        /* \"#utility.yul\":6853:6859   */\n      dup4\n        /* \"#utility.yul\":6849:6866   */\n      add\n        /* \"#utility.yul\":6837:6866   */\n      swap2\n      pop\n        /* \"#utility.yul\":6915:6918   */\n      dup4\n        /* \"#utility.yul\":6907:6911   */\n      0x01\n        /* \"#utility.yul\":6899:6905   */\n      dup3\n        /* \"#utility.yul\":6895:6912   */\n      mul\n        /* \"#utility.yul\":6885:6893   */\n      dup4\n        /* \"#utility.yul\":6881:6913   */\n      add\n        /* \"#utility.yul\":6878:6919   */\n      gt\n        /* \"#utility.yul\":6875:7003   */\n      iszero\n      tag_319\n      jumpi\n        /* \"#utility.yul\":6922:7001   */\n      tag_320\n      tag_206\n      jump\t// in\n    tag_320:\n        /* \"#utility.yul\":6875:7003   */\n    tag_319:\n        /* \"#utility.yul\":6457:7009   */\n      swap3\n      pop\n      swap3\n      swap1\n      pop\n      jump\t// out\n        /* \"#utility.yul\":7015:7978   */\n    tag_74:\n        /* \"#utility.yul\":7112:7118   */\n      0x00\n        /* \"#utility.yul\":7120:7126   */\n      dup1\n        /* \"#utility.yul\":7128:7134   */\n      0x00\n        /* \"#utility.yul\":7136:7142   */\n      dup1\n        /* \"#utility.yul\":7144:7150   */\n      0x00\n        /* \"#utility.yul\":7193:7196   */\n      0x80\n        /* \"#utility.yul\":7181:7190   */\n      dup7\n        /* \"#utility.yul\":7172:7179   */\n      dup9\n        /* \"#utility.yul\":7168:7191   */\n      sub\n        /* \"#utility.yul\":7164:7197   */\n      slt\n        /* \"#utility.yul\":7161:7281   */\n      iszero\n      tag_322\n      jumpi\n        /* \"#utility.yul\":7200:7279   */\n      tag_323\n      tag_186\n      jump\t// in\n    tag_323:\n        /* \"#utility.yul\":7161:7281   */\n    tag_322:\n        /* \"#utility.yul\":7320:7321   */\n      0x00\n        /* \"#utility.yul\":7345:7398   */\n      tag_324\n        /* \"#utility.yul\":7390:7397   */\n      dup9\n        /* \"#utility.yul\":7381:7387   */\n      dup3\n        /* \"#utility.yul\":7370:7379   */\n      dup10\n        /* \"#utility.yul\":7366:7388   */\n      add\n        /* \"#utility.yul\":7345:7398   */\n      tag_200\n      jump\t// in\n    tag_324:\n        /* \"#utility.yul\":7335:7398   */\n      swap6\n      pop\n        /* \"#utility.yul\":7291:7408   */\n      pop\n        /* \"#utility.yul\":7447:7449   */\n      0x20\n        /* \"#utility.yul\":7473:7526   */\n      tag_325\n        /* \"#utility.yul\":7518:7525   */\n      dup9\n        /* \"#utility.yul\":7509:7515   */\n      dup3\n        /* \"#utility.yul\":7498:7507   */\n      dup10\n        /* \"#utility.yul\":7494:7516   */\n      add\n        /* \"#utility.yul\":7473:7526   */\n      tag_200\n      jump\t// in\n    tag_325:\n        /* \"#utility.yul\":7463:7526   */\n      swap5\n      pop\n        /* \"#utility.yul\":7418:7536   */\n      pop\n        /* \"#utility.yul\":7575:7577   */\n      0x40\n        /* \"#utility.yul\":7601:7654   */\n      tag_326\n        /* \"#utility.yul\":7646:7653   */\n      dup9\n        /* \"#utility.yul\":7637:7643   */\n      dup3\n        /* \"#utility.yul\":7626:7635   */\n      dup10\n        /* \"#utility.yul\":7622:7644   */\n      add\n        /* \"#utility.yul\":7601:7654   */\n      tag_195\n      jump\t// in\n    tag_326:\n        /* \"#utility.yul\":7591:7654   */\n      swap4\n      pop\n        /* \"#utility.yul\":7546:7664   */\n      pop\n        /* \"#utility.yul\":7731:7733   */\n      0x60\n        /* \"#utility.yul\":7720:7729   */\n      dup7\n        /* \"#utility.yul\":7716:7734   */\n      add\n        /* \"#utility.yul\":7703:7735   */\n      calldataload\n        /* \"#utility.yul\":7762:7780   */\n      0xffffffffffffffff\n        /* \"#utility.yul\":7754:7760   */\n      dup2\n        /* \"#utility.yul\":7751:7781   */\n      gt\n        /* \"#utility.yul\":7748:7865   */\n      iszero\n      tag_327\n      jumpi\n        /* \"#utility.yul\":7784:7863   */\n      tag_328\n      tag_187\n      jump\t// in\n    tag_328:\n        /* \"#utility.yul\":7748:7865   */\n    tag_327:\n        /* \"#utility.yul\":7897:7961   */\n      tag_329\n        /* \"#utility.yul\":7953:7960   */\n      dup9\n        /* \"#utility.yul\":7944:7950   */\n      dup3\n        /* \"#utility.yul\":7933:7942   */\n      dup10\n        /* \"#utility.yul\":7929:7951   */\n      add\n        /* \"#utility.yul\":7897:7961   */\n      tag_207\n      jump\t// in\n    tag_329:\n        /* \"#utility.yul\":7879:7961   */\n      swap3\n      pop\n      swap3\n      pop\n        /* \"#utility.yul\":7674:7971   */\n      pop\n        /* \"#utility.yul\":7015:7978   */\n      swap3\n      swap6\n      pop\n      swap3\n      swap6\n      swap1\n      swap4\n      pop\n      jump\t// out\n        /* \"#utility.yul\":7984:8603   */\n    tag_78:\n        /* \"#utility.yul\":8061:8067   */\n      0x00\n        /* \"#utility.yul\":8069:8075   */\n      dup1\n        /* \"#utility.yul\":8077:8083   */\n      0x00\n        /* \"#utility.yul\":8126:8128   */\n      0x60\n        /* \"#utility.yul\":8114:8123   */\n      dup5\n        /* \"#utility.yul\":8105:8112   */\n      dup7\n        /* \"#utility.yul\":8101:8124   */\n      sub\n        /* \"#utility.yul\":8097:8129   */\n      slt\n        /* \"#utility.yul\":8094:8213   */\n      iszero\n      tag_331\n      jumpi\n        /* \"#utility.yul\":8132:8211   */\n      tag_332\n      tag_186\n      jump\t// in\n    tag_332:\n        /* \"#utility.yul\":8094:8213   */\n    tag_331:\n        /* \"#utility.yul\":8252:8253   */\n      0x00\n        /* \"#utility.yul\":8277:8330   */\n      tag_333\n        /* \"#utility.yul\":8322:8329   */\n      dup7\n        /* \"#utility.yul\":8313:8319   */\n      dup3\n        /* \"#utility.yul\":8302:8311   */\n      dup8\n        /* \"#utility.yul\":8298:8320   */\n      add\n        /* \"#utility.yul\":8277:8330   */\n      tag_195\n      jump\t// in\n    tag_333:\n        /* \"#utility.yul\":8267:8330   */\n      swap4\n      pop\n        /* \"#utility.yul\":8223:8340   */\n      pop\n        /* \"#utility.yul\":8379:8381   */\n      0x20\n        /* \"#utility.yul\":8405:8458   */\n      tag_334\n        /* \"#utility.yul\":8450:8457   */\n      dup7\n        /* \"#utility.yul\":8441:8447   */\n      dup3\n        /* \"#utility.yul\":8430:8439   */\n      dup8\n        /* \"#utility.yul\":8426:8448   */\n      add\n        /* \"#utility.yul\":8405:8458   */\n      tag_200\n      jump\t// in\n    tag_334:\n        /* \"#utility.yul\":8395:8458   */\n      swap3\n      pop\n        /* \"#utility.yul\":8350:8468   */\n      pop\n        /* \"#utility.yul\":8507:8509   */\n      0x40\n        /* \"#utility.yul\":8533:8586   */\n      tag_335\n        /* \"#utility.yul\":8578:8585   */\n      dup7\n        /* \"#utility.yul\":8569:8575   */\n      dup3\n        /* \"#utility.yul\":8558:8567   */\n      dup8\n        /* \"#utility.yul\":8554:8576   */\n      add\n        /* \"#utility.yul\":8533:8586   */\n      tag_195\n      jump\t// in\n    tag_335:\n        /* \"#utility.yul\":8523:8586   */\n      swap2\n      pop\n        /* \"#utility.yul\":8478:8596   */\n      pop\n        /* \"#utility.yul\":7984:8603   */\n      swap3\n      pop\n      swap3\n      pop\n      swap3\n      jump\t// out\n        /* \"#utility.yul\":8609:9083   */\n    tag_82:\n        /* \"#utility.yul\":8677:8683   */\n      0x00\n        /* \"#utility.yul\":8685:8691   */\n      dup1\n        /* \"#utility.yul\":8734:8736   */\n      0x40\n        /* \"#utility.yul\":8722:8731   */\n      dup4\n        /* \"#utility.yul\":8713:8720   */\n      dup6\n        /* \"#utility.yul\":8709:8732   */\n      sub\n        /* \"#utility.yul\":8705:8737   */\n      slt\n        /* \"#utility.yul\":8702:8821   */\n      iszero\n      tag_337\n      jumpi\n        /* \"#utility.yul\":8740:8819   */\n      tag_338\n      tag_186\n      jump\t// in\n    tag_338:\n        /* \"#utility.yul\":8702:8821   */\n    tag_337:\n        /* \"#utility.yul\":8860:8861   */\n      0x00\n        /* \"#utility.yul\":8885:8938   */\n      tag_339\n        /* \"#utility.yul\":8930:8937   */\n      dup6\n        /* \"#utility.yul\":8921:8927   */\n      dup3\n        /* \"#utility.yul\":8910:8919   */\n      dup7\n        /* \"#utility.yul\":8906:8928   */\n      add\n        /* \"#utility.yul\":8885:8938   */\n      tag_200\n      jump\t// in\n    tag_339:\n        /* \"#utility.yul\":8875:8938   */\n      swap3\n      pop\n        /* \"#utility.yul\":8831:8948   */\n      pop\n        /* \"#utility.yul\":8987:8989   */\n      0x20\n        /* \"#utility.yul\":9013:9066   */\n      tag_340\n        /* \"#utility.yul\":9058:9065   */\n      dup6\n        /* \"#utility.yul\":9049:9055   */\n      dup3\n        /* \"#utility.yul\":9038:9047   */\n      dup7\n        /* \"#utility.yul\":9034:9056   */\n      add\n        /* \"#utility.yul\":9013:9066   */\n      tag_200\n      jump\t// in\n    tag_340:\n        /* \"#utility.yul\":9003:9066   */\n      swap2\n      pop\n        /* \"#utility.yul\":8958:9076   */\n      pop\n        /* \"#utility.yul\":8609:9083   */\n      swap3\n      pop\n      swap3\n      swap1\n      pop\n      jump\t// out\n        /* \"#utility.yul\":9089:9258   */\n    tag_208:\n        /* \"#utility.yul\":9173:9184   */\n      0x00\n        /* \"#utility.yul\":9207:9213   */\n      dup3\n        /* \"#utility.yul\":9202:9205   */\n      dup3\n        /* \"#utility.yul\":9195:9214   */\n      mstore\n        /* \"#utility.yul\":9247:9251   */\n      0x20\n        /* \"#utility.yul\":9242:9245   */\n      dup3\n        /* \"#utility.yul\":9238:9252   */\n      add\n        /* \"#utility.yul\":9223:9252   */\n      swap1\n      pop\n        /* \"#utility.yul\":9089:9258   */\n      swap3\n      swap2\n      pop\n      pop\n      jump\t// out\n        /* \"#utility.yul\":9264:9433   */\n    tag_209:\n        /* \"#utility.yul\":9404:9425   */\n      0x746f6b656e20646f65736e277420657869737400000000000000000000000000\n        /* \"#utility.yul\":9400:9401   */\n      0x00\n        /* \"#utility.yul\":9392:9398   */\n      dup3\n        /* \"#utility.yul\":9388:9402   */\n      add\n        /* \"#utility.yul\":9381:9426   */\n      mstore\n        /* \"#utility.yul\":9264:9433   */\n      pop\n      jump\t// out\n        /* \"#utility.yul\":9439:9805   */\n    tag_210:\n        /* \"#utility.yul\":9581:9584   */\n      0x00\n        /* \"#utility.yul\":9602:9669   */\n      tag_344\n        /* \"#utility.yul\":9666:9668   */\n      0x13\n        /* \"#utility.yul\":9661:9664   */\n      dup4\n        /* \"#utility.yul\":9602:9669   */\n      tag_208\n      jump\t// in\n    tag_344:\n        /* \"#utility.yul\":9595:9669   */\n      swap2\n      pop\n        /* \"#utility.yul\":9678:9771   */\n      tag_345\n        /* \"#utility.yul\":9767:9770   */\n      dup3\n        /* \"#utility.yul\":9678:9771   */\n      tag_209\n      jump\t// in\n    tag_345:\n        /* \"#utility.yul\":9796:9798   */\n      0x20\n        /* \"#utility.yul\":9791:9794   */\n      dup3\n        /* \"#utility.yul\":9787:9799   */\n      add\n        /* \"#utility.yul\":9780:9799   */\n      swap1\n      pop\n        /* \"#utility.yul\":9439:9805   */\n      swap2\n      swap1\n      pop\n      jump\t// out\n        /* \"#utility.yul\":9811:10230   */\n    tag_93:\n        /* \"#utility.yul\":9977:9981   */\n      0x00\n        /* \"#utility.yul\":10015:10017   */\n      0x20\n        /* \"#utility.yul\":10004:10013   */\n      dup3\n        /* \"#utility.yul\":10000:10018   */\n      add\n        /* \"#utility.yul\":9992:10018   */\n      swap1\n      pop\n        /* \"#utility.yul\":10064:10073   */\n      dup2\n        /* \"#utility.yul\":10058:10062   */\n      dup2\n        /* \"#utility.yul\":10054:10074   */\n      sub\n        /* \"#utility.yul\":10050:10051   */\n      0x00\n        /* \"#utility.yul\":10039:10048   */\n      dup4\n        /* \"#utility.yul\":10035:10052   */\n      add\n        /* \"#utility.yul\":10028:10075   */\n      mstore\n        /* \"#utility.yul\":10092:10223   */\n      tag_347\n        /* \"#utility.yul\":10218:10222   */\n      dup2\n        /* \"#utility.yul\":10092:10223   */\n      tag_210\n      jump\t// in\n    tag_347:\n        /* \"#utility.yul\":10084:10223   */\n      swap1\n      pop\n        /* \"#utility.yul\":9811:10230   */\n      swap2\n      swap1\n      pop\n      jump\t// out\n        /* \"#utility.yul\":10236:10400   */\n    tag_211:\n        /* \"#utility.yul\":10376:10392   */\n      0x6e6f7420617574686f72697a6564000000000000000000000000000000000000\n        /* \"#utility.yul\":10372:10373   */\n      0x00\n        /* \"#utility.yul\":10364:10370   */\n      dup3\n        /* \"#utility.yul\":10360:10374   */\n      add\n        /* \"#utility.yul\":10353:10393   */\n      mstore\n        /* \"#utility.yul\":10236:10400   */\n      pop\n      jump\t// out\n        /* \"#utility.yul\":10406:10772   */\n    tag_212:\n        /* \"#utility.yul\":10548:10551   */\n      0x00\n        /* \"#utility.yul\":10569:10636   */\n      tag_350\n        /* \"#utility.yul\":10633:10635   */\n      0x0e\n        /* \"#utility.yul\":10628:10631   */\n      dup4\n        /* \"#utility.yul\":10569:10636   */\n      tag_208\n      jump\t// in\n    tag_350:\n        /* \"#utility.yul\":10562:10636   */\n      swap2\n      pop\n        /* \"#utility.yul\":10645:10738   */\n      tag_351\n        /* \"#utility.yul\":10734:10737   */\n      dup3\n        /* \"#utility.yul\":10645:10738   */\n      tag_211\n      jump\t// in\n    tag_351:\n        /* \"#utility.yul\":10763:10765   */\n      0x20\n        /* \"#utility.yul\":10758:10761   */\n      dup3\n        /* \"#utility.yul\":10754:10766   */\n      add\n        /* \"#utility.yul\":10747:10766   */\n      swap1\n      pop\n        /* \"#utility.yul\":10406:10772   */\n      swap2\n      swap1\n      pop\n      jump\t// out\n        /* \"#utility.yul\":10778:11197   */\n    tag_98:\n        /* \"#utility.yul\":10944:10948   */\n      0x00\n        /* \"#utility.yul\":10982:10984   */\n      0x20\n        /* \"#utility.yul\":10971:10980   */\n      dup3\n        /* \"#utility.yul\":10967:10985   */\n      add\n        /* \"#utility.yul\":10959:10985   */\n      swap1\n      pop\n        /* \"#utility.yul\":11031:11040   */\n      dup2\n        /* \"#utility.yul\":11025:11029   */\n      dup2\n        /* \"#utility.yul\":11021:11041   */\n      sub\n        /* \"#utility.yul\":11017:11018   */\n      0x00\n        /* \"#utility.yul\":11006:11015   */\n      dup4\n        /* \"#utility.yul\":11002:11019   */\n      add\n        /* \"#utility.yul\":10995:11042   */\n      mstore\n        /* \"#utility.yul\":11059:11190   */\n      tag_353\n        /* \"#utility.yul\":11185:11189   */\n      dup2\n        /* \"#utility.yul\":11059:11190   */\n      tag_212\n      jump\t// in\n    tag_353:\n        /* \"#utility.yul\":11051:11190   */\n      swap1\n      pop\n        /* \"#utility.yul\":10778:11197   */\n      swap2\n      swap1\n      pop\n      jump\t// out\n        /* \"#utility.yul\":11203:11363   */\n    tag_213:\n        /* \"#utility.yul\":11343:11355   */\n      0x6f6e6c79206f776e657200000000000000000000000000000000000000000000\n        /* \"#utility.yul\":11339:11340   */\n      0x00\n        /* \"#utility.yul\":11331:11337   */\n      dup3\n        /* \"#utility.yul\":11327:11341   */\n      add\n        /* \"#utility.yul\":11320:11356   */\n      mstore\n        /* \"#utility.yul\":11203:11363   */\n      pop\n      jump\t// out\n        /* \"#utility.yul\":11369:11735   */\n    tag_214:\n        /* \"#utility.yul\":11511:11514   */\n      0x00\n        /* \"#utility.yul\":11532:11599   */\n      tag_356\n        /* \"#utility.yul\":11596:11598   */\n      0x0a\n        /* \"#utility.yul\":11591:11594   */\n      dup4\n        /* \"#utility.yul\":11532:11599   */\n      tag_208\n      jump\t// in\n    tag_356:\n        /* \"#utility.yul\":11525:11599   */\n      swap2\n      pop\n        /* \"#utility.yul\":11608:11701   */\n      tag_357\n        /* \"#utility.yul\":11697:11700   */\n      dup3\n        /* \"#utility.yul\":11608:11701   */\n      tag_213\n      jump\t// in\n    tag_357:\n        /* \"#utility.yul\":11726:11728   */\n      0x20\n        /* \"#utility.yul\":11721:11724   */\n      dup3\n        /* \"#utility.yul\":11717:11729   */\n      add\n        /* \"#utility.yul\":11710:11729   */\n      swap1\n      pop\n        /* \"#utility.yul\":11369:11735   */\n      swap2\n      swap1\n      pop\n      jump\t// out\n        /* \"#utility.yul\":11741:12160   */\n    tag_102:\n        /* \"#utility.yul\":11907:11911   */\n      0x00\n        /* \"#utility.yul\":11945:11947   */\n      0x20\n        /* \"#utility.yul\":11934:11943   */\n      dup3\n        /* \"#utility.yul\":11930:11948   */\n      add\n        /* \"#utility.yul\":11922:11948   */\n      swap1\n      pop\n        /* \"#utility.yul\":11994:12003   */\n      dup2\n        /* \"#utility.yul\":11988:11992   */\n      dup2\n        /* \"#utility.yul\":11984:12004   */\n      sub\n        /* \"#utility.yul\":11980:11981   */\n      0x00\n        /* \"#utility.yul\":11969:11978   */\n      dup4\n        /* \"#utility.yul\":11965:11982   */\n      add\n        /* \"#utility.yul\":11958:12005   */\n      mstore\n        /* \"#utility.yul\":12022:12153   */\n      tag_359\n        /* \"#utility.yul\":12148:12152   */\n      dup2\n        /* \"#utility.yul\":12022:12153   */\n      tag_214\n      jump\t// in\n    tag_359:\n        /* \"#utility.yul\":12014:12153   */\n      swap1\n      pop\n        /* \"#utility.yul\":11741:12160   */\n      swap2\n      swap1\n      pop\n      jump\t// out\n        /* \"#utility.yul\":12166:12346   */\n    tag_215:\n        /* \"#utility.yul\":12214:12291   */\n      0x4e487b7100000000000000000000000000000000000000000000000000000000\n        /* \"#utility.yul\":12211:12212   */\n      0x00\n        /* \"#utility.yul\":12204:12292   */\n      mstore\n        /* \"#utility.yul\":12311:12315   */\n      0x11\n        /* \"#utility.yul\":12308:12309   */\n      0x04\n        /* \"#utility.yul\":12301:12316   */\n      mstore\n        /* \"#utility.yul\":12335:12339   */\n      0x24\n        /* \"#utility.yul\":12332:12333   */\n      0x00\n        /* \"#utility.yul\":12325:12340   */\n      revert\n        /* \"#utility.yul\":12352:12543   */\n    tag_107:\n        /* \"#utility.yul\":12392:12395   */\n      0x00\n        /* \"#utility.yul\":12411:12431   */\n      tag_362\n        /* \"#utility.yul\":12429:12430   */\n      dup3\n        /* \"#utility.yul\":12411:12431   */\n      tag_193\n      jump\t// in\n    tag_362:\n        /* \"#utility.yul\":12406:12431   */\n      swap2\n      pop\n        /* \"#utility.yul\":12445:12465   */\n      tag_363\n        /* \"#utility.yul\":12463:12464   */\n      dup4\n        /* \"#utility.yul\":12445:12465   */\n      tag_193\n      jump\t// in\n    tag_363:\n        /* \"#utility.yul\":12440:12465   */\n      swap3\n      pop\n        /* \"#utility.yul\":12488:12489   */\n      dup3\n        /* \"#utility.yul\":12485:12486   */\n      dup3\n        /* \"#utility.yul\":12481:12490   */\n      add\n        /* \"#utility.yul\":12474:12490   */\n      swap1\n      pop\n        /* \"#utility.yul\":12509:12512   */\n      dup1\n        /* \"#utility.yul\":12506:12507   */\n      dup3\n        /* \"#utility.yul\":12503:12513   */\n      gt\n        /* \"#utility.yul\":12500:12536   */\n      iszero\n      tag_364\n      jumpi\n        /* \"#utility.yul\":12516:12534   */\n      tag_365\n      tag_215\n      jump\t// in\n    tag_365:\n        /* \"#utility.yul\":12500:12536   */\n    tag_364:\n        /* \"#utility.yul\":12352:12543   */\n      swap3\n      swap2\n      pop\n      pop\n      jump\t// out\n        /* \"#utility.yul\":12549:12712   */\n    tag_216:\n        /* \"#utility.yul\":12689:12704   */\n      0x66726f6d20213d206f776e657200000000000000000000000000000000000000\n        /* \"#utility.yul\":12685:12686   */\n      0x00\n        /* \"#utility.yul\":12677:12683   */\n      dup3\n        /* \"#utility.yul\":12673:12687   */\n      add\n        /* \"#utility.yul\":12666:12705   */\n      mstore\n        /* \"#utility.yul\":12549:12712   */\n      pop\n      jump\t// out\n        /* \"#utility.yul\":12718:13084   */\n    tag_217:\n        /* \"#utility.yul\":12860:12863   */\n      0x00\n        /* \"#utility.yul\":12881:12948   */\n      tag_368\n        /* \"#utility.yul\":12945:12947   */\n      0x0d\n        /* \"#utility.yul\":12940:12943   */\n      dup4\n        /* \"#utility.yul\":12881:12948   */\n      tag_208\n      jump\t// in\n    tag_368:\n        /* \"#utility.yul\":12874:12948   */\n      swap2\n      pop\n        /* \"#utility.yul\":12957:13050   */\n      tag_369\n        /* \"#utility.yul\":13046:13049   */\n      dup3\n        /* \"#utility.yul\":12957:13050   */\n      tag_216\n      jump\t// in\n    tag_369:\n        /* \"#utility.yul\":13075:13077   */\n      0x20\n        /* \"#utility.yul\":13070:13073   */\n      dup3\n        /* \"#utility.yul\":13066:13078   */\n      add\n        /* \"#utility.yul\":13059:13078   */\n      swap1\n      pop\n        /* \"#utility.yul\":12718:13084   */\n      swap2\n      swap1\n      pop\n      jump\t// out\n        /* \"#utility.yul\":13090:13509   */\n    tag_112:\n        /* \"#utility.yul\":13256:13260   */\n      0x00\n        /* \"#utility.yul\":13294:13296   */\n      0x20\n        /* \"#utility.yul\":13283:13292   */\n      dup3\n        /* \"#utility.yul\":13279:13297   */\n      add\n        /* \"#utility.yul\":13271:13297   */\n      swap1\n      pop\n        /* \"#utility.yul\":13343:13352   */\n      dup2\n        /* \"#utility.yul\":13337:13341   */\n      dup2\n        /* \"#utility.yul\":13333:13353   */\n      sub\n        /* \"#utility.yul\":13329:13330   */\n      0x00\n        /* \"#utility.yul\":13318:13327   */\n      dup4\n        /* \"#utility.yul\":13314:13331   */\n      add\n        /* \"#utility.yul\":13307:13354   */\n      mstore\n        /* \"#utility.yul\":13371:13502   */\n      tag_371\n        /* \"#utility.yul\":13497:13501   */\n      dup2\n        /* \"#utility.yul\":13371:13502   */\n      tag_217\n      jump\t// in\n    tag_371:\n        /* \"#utility.yul\":13363:13502   */\n      swap1\n      pop\n        /* \"#utility.yul\":13090:13509   */\n      swap2\n      swap1\n      pop\n      jump\t// out\n        /* \"#utility.yul\":13515:13689   */\n    tag_218:\n        /* \"#utility.yul\":13655:13681   */\n      0x7472616e7366657220746f207a65726f20616464726573730000000000000000\n        /* \"#utility.yul\":13651:13652   */\n      0x00\n        /* \"#utility.yul\":13643:13649   */\n      dup3\n        /* \"#utility.yul\":13639:13653   */\n      add\n        /* \"#utility.yul\":13632:13682   */\n      mstore\n        /* \"#utility.yul\":13515:13689   */\n      pop\n      jump\t// out\n        /* \"#utility.yul\":13695:14061   */\n    tag_219:\n        /* \"#utility.yul\":13837:13840   */\n      0x00\n        /* \"#utility.yul\":13858:13925   */\n      tag_374\n        /* \"#utility.yul\":13922:13924   */\n      0x18\n        /* \"#utility.yul\":13917:13920   */\n      dup4\n        /* \"#utility.yul\":13858:13925   */\n      tag_208\n      jump\t// in\n    tag_374:\n        /* \"#utility.yul\":13851:13925   */\n      swap2\n      pop\n        /* \"#utility.yul\":13934:14027   */\n      tag_375\n        /* \"#utility.yul\":14023:14026   */\n      dup3\n        /* \"#utility.yul\":13934:14027   */\n      tag_218\n      jump\t// in\n    tag_375:\n        /* \"#utility.yul\":14052:14054   */\n      0x20\n        /* \"#utility.yul\":14047:14050   */\n      dup3\n        /* \"#utility.yul\":14043:14055   */\n      add\n        /* \"#utility.yul\":14036:14055   */\n      swap1\n      pop\n        /* \"#utility.yul\":13695:14061   */\n      swap2\n      swap1\n      pop\n      jump\t// out\n        /* \"#utility.yul\":14067:14486   */\n    tag_115:\n        /* \"#utility.yul\":14233:14237   */\n      0x00\n        /* \"#utility.yul\":14271:14273   */\n      0x20\n        /* \"#utility.yul\":14260:14269   */\n      dup3\n        /* \"#utility.yul\":14256:14274   */\n      add\n        /* \"#utility.yul\":14248:14274   */\n      swap1\n      pop\n        /* \"#utility.yul\":14320:14329   */\n      dup2\n        /* \"#utility.yul\":14314:14318   */\n      dup2\n        /* \"#utility.yul\":14310:14330   */\n      sub\n        /* \"#utility.yul\":14306:14307   */\n      0x00\n        /* \"#utility.yul\":14295:14304   */\n      dup4\n        /* \"#utility.yul\":14291:14308   */\n      add\n        /* \"#utility.yul\":14284:14331   */\n      mstore\n        /* \"#utility.yul\":14348:14479   */\n      tag_377\n        /* \"#utility.yul\":14474:14478   */\n      dup2\n        /* \"#utility.yul\":14348:14479   */\n      tag_219\n      jump\t// in\n    tag_377:\n        /* \"#utility.yul\":14340:14479   */\n      swap1\n      pop\n        /* \"#utility.yul\":14067:14486   */\n      swap2\n      swap1\n      pop\n      jump\t// out\n        /* \"#utility.yul\":14492:14663   */\n    tag_121:\n        /* \"#utility.yul\":14531:14534   */\n      0x00\n        /* \"#utility.yul\":14554:14578   */\n      tag_379\n        /* \"#utility.yul\":14572:14577   */\n      dup3\n        /* \"#utility.yul\":14554:14578   */\n      tag_193\n      jump\t// in\n    tag_379:\n        /* \"#utility.yul\":14545:14578   */\n      swap2\n      pop\n        /* \"#utility.yul\":14600:14604   */\n      0x00\n        /* \"#utility.yul\":14593:14598   */\n      dup3\n        /* \"#utility.yul\":14590:14605   */\n      sub\n        /* \"#utility.yul\":14587:14628   */\n      tag_380\n      jumpi\n        /* \"#utility.yul\":14608:14626   */\n      tag_381\n      tag_215\n      jump\t// in\n    tag_381:\n        /* \"#utility.yul\":14587:14628   */\n    tag_380:\n        /* \"#utility.yul\":14655:14656   */\n      0x01\n        /* \"#utility.yul\":14648:14653   */\n      dup3\n        /* \"#utility.yul\":14644:14657   */\n      sub\n        /* \"#utility.yul\":14637:14657   */\n      swap1\n      pop\n        /* \"#utility.yul\":14492:14663   */\n      swap2\n      swap1\n      pop\n      jump\t// out\n        /* \"#utility.yul\":14669:14902   */\n    tag_123:\n        /* \"#utility.yul\":14708:14711   */\n      0x00\n        /* \"#utility.yul\":14731:14755   */\n      tag_383\n        /* \"#utility.yul\":14749:14754   */\n      dup3\n        /* \"#utility.yul\":14731:14755   */\n      tag_193\n      jump\t// in\n    tag_383:\n        /* \"#utility.yul\":14722:14755   */\n      swap2\n      pop\n        /* \"#utility.yul\":14777:14843   */\n      0xffffffffffffffffffffffffffffffffffffffffffffffffffffffffffffffff\n        /* \"#utility.yul\":14770:14775   */\n      dup3\n        /* \"#utility.yul\":14767:14844   */\n      sub\n        /* \"#utility.yul\":14764:14867   */\n      tag_384\n      jumpi\n        /* \"#utility.yul\":14847:14865   */\n      tag_385\n      tag_215\n      jump\t// in\n    tag_385:\n        /* \"#utility.yul\":14764:14867   */\n    tag_384:\n        /* \"#utility.yul\":14894:14895   */\n      0x01\n        /* \"#utility.yul\":14887:14892   */\n      dup3\n        /* \"#utility.yul\":14883:14896   */\n      add\n        /* \"#utility.yul\":14876:14896   */\n      swap1\n      pop\n        /* \"#utility.yul\":14669:14902   */\n      swap2\n      swap1\n      pop\n      jump\t// out\n        /* \"#utility.yul\":14908:15076   */\n    tag_220:\n        /* \"#utility.yul\":14991:15002   */\n      0x00\n        /* \"#utility.yul\":15025:15031   */\n      dup3\n        /* \"#utility.yul\":15020:15023   */\n      dup3\n        /* \"#utility.yul\":15013:15032   */\n      mstore\n        /* \"#utility.yul\":15065:15069   */\n      0x20\n        /* \"#utility.yul\":15060:15063   */\n      dup3\n        /* \"#utility.yul\":15056:15070   */\n      add\n        /* \"#utility.yul\":15041:15070   */\n      swap1\n      pop\n        /* \"#utility.yul\":14908:15076   */\n      swap3\n      swap2\n      pop\n      pop\n      jump\t// out\n        /* \"#utility.yul\":15082:15196   */\n    tag_221:\n      pop\n      jump\t// out\n        /* \"#utility.yul\":15202:15564   */\n    tag_222:\n        /* \"#utility.yul\":15343:15346   */\n      0x00\n        /* \"#utility.yul\":15364:15429   */\n      tag_389\n        /* \"#utility.yul\":15427:15428   */\n      0x00\n        /* \"#utility.yul\":15422:15425   */\n      dup4\n        /* \"#utility.yul\":15364:15429   */\n      tag_220\n      jump\t// in\n    tag_389:\n        /* \"#utility.yul\":15357:15429   */\n      swap2\n      pop\n        /* \"#utility.yul\":15438:15531   */\n      tag_390\n        /* \"#utility.yul\":15527:15530   */\n      dup3\n        /* \"#utility.yul\":15438:15531   */\n      tag_221\n      jump\t// in\n    tag_390:\n        /* \"#utility.yul\":15556:15557   */\n      0x00\n        /* \"#utility.yul\":15551:15554   */\n      dup3\n        /* \"#utility.yul\":15547:15558   */\n      add\n        /* \"#utility.yul\":15540:15558   */\n      swap1\n      pop\n        /* \"#utility.yul\":15202:15564   */\n      swap2\n      swap1\n      pop\n      jump\t// out\n        /* \"#utility.yul\":15570:16318   */\n    tag_128:\n        /* \"#utility.yul\":15819:15823   */\n      0x00\n        /* \"#utility.yul\":15857:15860   */\n      0x80\n        /* \"#utility.yul\":15846:15855   */\n      dup3\n        /* \"#utility.yul\":15842:15861   */\n      add\n        /* \"#utility.yul\":15834:15861   */\n      swap1\n      pop\n        /* \"#utility.yul\":15871:15942   */\n      tag_392\n        /* \"#utility.yul\":15939:15940   */\n      0x00\n        /* \"#utility.yul\":15928:15937   */\n      dup4\n        /* \"#utility.yul\":15924:15941   */\n      add\n        /* \"#utility.yul\":15915:15921   */\n      dup7\n        /* \"#utility.yul\":15871:15942   */\n      tag_198\n      jump\t// in\n    tag_392:\n        /* \"#utility.yul\":15952:16024   */\n      tag_393\n        /* \"#utility.yul\":16020:16022   */\n      0x20\n        /* \"#utility.yul\":16009:16018   */\n      dup4\n        /* \"#utility.yul\":16005:16023   */\n      add\n        /* \"#utility.yul\":15996:16002   */\n      dup6\n        /* \"#utility.yul\":15952:16024   */\n      tag_198\n      jump\t// in\n    tag_393:\n        /* \"#utility.yul\":16034:16106   */\n      tag_394\n        /* \"#utility.yul\":16102:16104   */\n      0x40\n        /* \"#utility.yul\":16091:16100   */\n      dup4\n        /* \"#utility.yul\":16087:16105   */\n      add\n        /* \"#utility.yul\":16078:16084   */\n      dup5\n        /* \"#utility.yul\":16034:16106   */\n      tag_201\n      jump\t// in\n    tag_394:\n        /* \"#utility.yul\":16153:16162   */\n      dup2\n        /* \"#utility.yul\":16147:16151   */\n      dup2\n        /* \"#utility.yul\":16143:16163   */\n      sub\n        /* \"#utility.yul\":16138:16140   */\n      0x60\n        /* \"#utility.yul\":16127:16136   */\n      dup4\n        /* \"#utility.yul\":16123:16141   */\n      add\n        /* \"#utility.yul\":16116:16164   */\n      mstore\n        /* \"#utility.yul\":16181:16311   */\n      tag_395\n        /* \"#utility.yul\":16306:16310   */\n      dup2\n        /* \"#utility.yul\":16181:16311   */\n      tag_222\n      jump\t// in\n    tag_395:\n        /* \"#utility.yul\":16173:16311   */\n      swap1\n      pop\n        /* \"#utility.yul\":15570:16318   */\n      swap5\n      swap4\n      pop\n      pop\n      pop\n      pop\n      jump\t// out\n        /* \"#utility.yul\":16324:16465   */\n    tag_223:\n        /* \"#utility.yul\":16380:16385   */\n      0x00\n        /* \"#utility.yul\":16411:16417   */\n      dup2\n        /* \"#utility.yul\":16405:16418   */\n      mload\n        /* \"#utility.yul\":16396:16418   */\n      swap1\n      pop\n        /* \"#utility.yul\":16427:16459   */\n      tag_397\n        /* \"#utility.yul\":16453:16458   */\n      dup2\n        /* \"#utility.yul\":16427:16459   */\n      tag_189\n      jump\t// in\n    tag_397:\n        /* \"#utility.yul\":16324:16465   */\n      swap3\n      swap2\n      pop\n      pop\n      jump\t// out\n        /* \"#utility.yul\":16471:16820   */\n    tag_132:\n        /* \"#utility.yul\":16540:16546   */\n      0x00\n        /* \"#utility.yul\":16589:16591   */\n      0x20\n        /* \"#utility.yul\":16577:16586   */\n      dup3\n        /* \"#utility.yul\":16568:16575   */\n      dup5\n        /* \"#utility.yul\":16564:16587   */\n      sub\n        /* \"#utility.yul\":16560:16592   */\n      slt\n        /* \"#utility.yul\":16557:16676   */\n      iszero\n      tag_399\n      jumpi\n        /* \"#utility.yul\":16595:16674   */\n      tag_400\n      tag_186\n      jump\t// in\n    tag_400:\n        /* \"#utility.yul\":16557:16676   */\n    tag_399:\n        /* \"#utility.yul\":16715:16716   */\n      0x00\n        /* \"#utility.yul\":16740:16803   */\n      tag_401\n        /* \"#utility.yul\":16795:16802   */\n      dup5\n        /* \"#utility.yul\":16786:16792   */\n      dup3\n        /* \"#utility.yul\":16775:16784   */\n      dup6\n        /* \"#utility.yul\":16771:16793   */\n      add\n        /* \"#utility.yul\":16740:16803   */\n      tag_223\n      jump\t// in\n    tag_401:\n        /* \"#utility.yul\":16730:16803   */\n      swap2\n      pop\n        /* \"#utility.yul\":16686:16813   */\n      pop\n        /* \"#utility.yul\":16471:16820   */\n      swap3\n      swap2\n      pop\n      pop\n      jump\t// out\n        /* \"#utility.yul\":16826:16992   */\n    tag_224:\n        /* \"#utility.yul\":16966:16984   */\n      0x756e7361666520726563697069656e7400000000000000000000000000000000\n        /* \"#utility.yul\":16962:16963   */\n      0x00\n        /* \"#utility.yul\":16954:16960   */\n      dup3\n        /* \"#utility.yul\":16950:16964   */\n      add\n        /* \"#utility.yul\":16943:16985   */\n      mstore\n        /* \"#utility.yul\":16826:16992   */\n      pop\n      jump\t// out\n        /* \"#utility.yul\":16998:17364   */\n    tag_225:\n        /* \"#utility.yul\":17140:17143   */\n      0x00\n        /* \"#utility.yul\":17161:17228   */\n      tag_404\n        /* \"#utility.yul\":17225:17227   */\n      0x10\n        /* \"#utility.yul\":17220:17223   */\n      dup4\n        /* \"#utility.yul\":17161:17228   */\n      tag_208\n      jump\t// in\n    tag_404:\n        /* \"#utility.yul\":17154:17228   */\n      swap2\n      pop\n        /* \"#utility.yul\":17237:17330   */\n      tag_405\n        /* \"#utility.yul\":17326:17329   */\n      dup3\n        /* \"#utility.yul\":17237:17330   */\n      tag_224\n      jump\t// in\n    tag_405:\n        /* \"#utility.yul\":17355:17357   */\n      0x20\n        /* \"#utility.yul\":17350:17353   */\n      dup3\n        /* \"#utility.yul\":17346:17358   */\n      add\n        /* \"#utility.yul\":17339:17358   */\n      swap1\n      pop\n        /* \"#utility.yul\":16998:17364   */\n      swap2\n      swap1\n      pop\n      jump\t// out\n        /* \"#utility.yul\":17370:17789   */\n    tag_135:\n        /* \"#utility.yul\":17536:17540   */\n      0x00\n        /* \"#utility.yul\":17574:17576   */\n      0x20\n        /* \"#utility.yul\":17563:17572   */\n      dup3\n        /* \"#utility.yul\":17559:17577   */\n      add\n        /* \"#utility.yul\":17551:17577   */\n      swap1\n      pop\n        /* \"#utility.yul\":17623:17632   */\n      dup2\n        /* \"#utility.yul\":17617:17621   */\n      dup2\n        /* \"#utility.yul\":17613:17633   */\n      sub\n        /* \"#utility.yul\":17609:17610   */\n      0x00\n        /* \"#utility.yul\":17598:17607   */\n      dup4\n        /* \"#utility.yul\":17594:17611   */\n      add\n        /* \"#utility.yul\":17587:17634   */\n      mstore\n        /* \"#utility.yul\":17651:17782   */\n      tag_407\n        /* \"#utility.yul\":17777:17781   */\n      dup2\n        /* \"#utility.yul\":17651:17782   */\n      tag_225\n      jump\t// in\n    tag_407:\n        /* \"#utility.yul\":17643:17782   */\n      swap1\n      pop\n        /* \"#utility.yul\":17370:17789   */\n      swap2\n      swap1\n      pop\n      jump\t// out\n        /* \"#utility.yul\":17795:17965   */\n    tag_226:\n        /* \"#utility.yul\":17935:17957   */\n      0x6f776e6572203d207a65726f2061646472657373000000000000000000000000\n        /* \"#utility.yul\":17931:17932   */\n      0x00\n        /* \"#utility.yul\":17923:17929   */\n      dup3\n        /* \"#utility.yul\":17919:17933   */\n      add\n        /* \"#utility.yul\":17912:17958   */\n      mstore\n        /* \"#utility.yul\":17795:17965   */\n      pop\n      jump\t// out\n        /* \"#utility.yul\":17971:18337   */\n    tag_227:\n        /* \"#utility.yul\":18113:18116   */\n      0x00\n        /* \"#utility.yul\":18134:18201   */\n      tag_410\n        /* \"#utility.yul\":18198:18200   */\n      0x14\n        /* \"#utility.yul\":18193:18196   */\n      dup4\n        /* \"#utility.yul\":18134:18201   */\n      tag_208\n      jump\t// in\n    tag_410:\n        /* \"#utility.yul\":18127:18201   */\n      swap2\n      pop\n        /* \"#utility.yul\":18210:18303   */\n      tag_411\n        /* \"#utility.yul\":18299:18302   */\n      dup3\n        /* \"#utility.yul\":18210:18303   */\n      tag_226\n      jump\t// in\n    tag_411:\n        /* \"#utility.yul\":18328:18330   */\n      0x20\n        /* \"#utility.yul\":18323:18326   */\n      dup3\n        /* \"#utility.yul\":18319:18331   */\n      add\n        /* \"#utility.yul\":18312:18331   */\n      swap1\n      pop\n        /* \"#utility.yul\":17971:18337   */\n      swap2\n      swap1\n      pop\n      jump\t// out\n        /* \"#utility.yul\":18343:18762   */\n    tag_142:\n        /* \"#utility.yul\":18509:18513   */\n      0x00\n        /* \"#utility.yul\":18547:18549   */\n      0x20\n        /* \"#utility.yul\":18536:18545   */\n      dup3\n        /* \"#utility.yul\":18532:18550   */\n      add\n        /* \"#utility.yul\":18524:18550   */\n      swap1\n      pop\n        /* \"#utility.yul\":18596:18605   */\n      dup2\n        /* \"#utility.yul\":18590:18594   */\n      dup2\n        /* \"#utility.yul\":18586:18606   */\n      sub\n        /* \"#utility.yul\":18582:18583   */\n      0x00\n        /* \"#utility.yul\":18571:18580   */\n      dup4\n        /* \"#utility.yul\":18567:18584   */\n      add\n        /* \"#utility.yul\":18560:18607   */\n      mstore\n        /* \"#utility.yul\":18624:18755   */\n      tag_413\n        /* \"#utility.yul\":18750:18754   */\n      dup2\n        /* \"#utility.yul\":18624:18755   */\n      tag_227\n      jump\t// in\n    tag_413:\n        /* \"#utility.yul\":18616:18755   */\n      swap1\n      pop\n        /* \"#utility.yul\":18343:18762   */\n      swap2\n      swap1\n      pop\n      jump\t// out\n        /* \"#utility.yul\":18768:18914   */\n    tag_228:\n        /* \"#utility.yul\":18865:18871   */\n      dup3\n        /* \"#utility.yul\":18860:18863   */\n      dup2\n        /* \"#utility.yul\":18855:18858   */\n      dup4\n        /* \"#utility.yul\":18842:18872   */\n      calldatacopy\n        /* \"#utility.yul\":18906:18907   */\n      0x00\n        /* \"#utility.yul\":18897:18903   */\n      dup4\n        /* \"#utility.yul\":18892:18895   */\n      dup4\n        /* \"#utility.yul\":18888:18904   */\n      add\n        /* \"#utility.yul\":18881:18908   */\n      mstore\n        /* \"#utility.yul\":18768:18914   */\n      pop\n      pop\n      pop\n      jump\t// out\n        /* \"#utility.yul\":18920:19022   */\n    tag_229:\n        /* \"#utility.yul\":18961:18967   */\n      0x00\n        /* \"#utility.yul\":19012:19014   */\n      0x1f\n        /* \"#utility.yul\":19008:19015   */\n      not\n        /* \"#utility.yul\":19003:19005   */\n      0x1f\n        /* \"#utility.yul\":18996:19001   */\n      dup4\n        /* \"#utility.yul\":18992:19006   */\n      add\n        /* \"#utility.yul\":18988:19016   */\n      and\n        /* \"#utility.yul\":18978:19016   */\n      swap1\n      pop\n        /* \"#utility.yul\":18920:19022   */\n      swap2\n      swap1\n      pop\n      jump\t// out\n        /* \"#utility.yul\":19050:19364   */\n    tag_230:\n        /* \"#utility.yul\":19146:19149   */\n      0x00\n        /* \"#utility.yul\":19167:19237   */\n      tag_417\n        /* \"#utility.yul\":19230:19236   */\n      dup4\n        /* \"#utility.yul\":19225:19228   */\n      dup6\n        /* \"#utility.yul\":19167:19237   */\n      tag_220\n      jump\t// in\n    tag_417:\n        /* \"#utility.yul\":19160:19237   */\n      swap4\n      pop\n        /* \"#utility.yul\":19247:19303   */\n      tag_418\n        /* \"#utility.yul\":19296:19302   */\n      dup4\n        /* \"#utility.yul\":19291:19294   */\n      dup6\n        /* \"#utility.yul\":19284:19289   */\n      dup5\n        /* \"#utility.yul\":19247:19303   */\n      tag_228\n      jump\t// in\n    tag_418:\n        /* \"#utility.yul\":19328:19357   */\n      tag_419\n        /* \"#utility.yul\":19350:19356   */\n      dup4\n        /* \"#utility.yul\":19328:19357   */\n      tag_229\n      jump\t// in\n    tag_419:\n        /* \"#utility.yul\":19323:19326   */\n      dup5\n        /* \"#utility.yul\":19319:19358   */\n      add\n        /* \"#utility.yul\":19312:19358   */\n      swap1\n      pop\n        /* \"#utility.yul\":19050:19364   */\n      swap4\n      swap3\n      pop\n      pop\n      pop\n      jump\t// out\n        /* \"#utility.yul\":19370:20030   */\n    tag_153:\n        /* \"#utility.yul\":19575:19579   */\n      0x00\n        /* \"#utility.yul\":19613:19616   */\n      0x80\n        /* \"#utility.yul\":19602:19611   */\n      dup3\n        /* \"#utility.yul\":19598:19617   */\n      add\n        /* \"#utility.yul\":19590:19617   */\n      swap1\n      pop\n        /* \"#utility.yul\":19627:19698   */\n      tag_421\n        /* \"#utility.yul\":19695:19696   */\n      0x00\n        /* \"#utility.yul\":19684:19693   */\n      dup4\n        /* \"#utility.yul\":19680:19697   */\n      add\n        /* \"#utility.yul\":19671:19677   */\n      dup9\n        /* \"#utility.yul\":19627:19698   */\n      tag_198\n      jump\t// in\n    tag_421:\n        /* \"#utility.yul\":19708:19780   */\n      tag_422\n        /* \"#utility.yul\":19776:19778   */\n      0x20\n        /* \"#utility.yul\":19765:19774   */\n      dup4\n        /* \"#utility.yul\":19761:19779   */\n      add\n        /* \"#utility.yul\":19752:19758   */\n      dup8\n        /* \"#utility.yul\":19708:19780   */\n      tag_198\n      jump\t// in\n    tag_422:\n        /* \"#utility.yul\":19790:19862   */\n      tag_423\n        /* \"#utility.yul\":19858:19860   */\n      0x40\n        /* \"#utility.yul\":19847:19856   */\n      dup4\n        /* \"#utility.yul\":19843:19861   */\n      add\n        /* \"#utility.yul\":19834:19840   */\n      dup7\n        /* \"#utility.yul\":19790:19862   */\n      tag_201\n      jump\t// in\n    tag_423:\n        /* \"#utility.yul\":19909:19918   */\n      dup2\n        /* \"#utility.yul\":19903:19907   */\n      dup2\n        /* \"#utility.yul\":19899:19919   */\n      sub\n        /* \"#utility.yul\":19894:19896   */\n      0x60\n        /* \"#utility.yul\":19883:19892   */\n      dup4\n        /* \"#utility.yul\":19879:19897   */\n      add\n        /* \"#utility.yul\":19872:19920   */\n      mstore\n        /* \"#utility.yul\":19937:20023   */\n      tag_424\n        /* \"#utility.yul\":20018:20022   */\n      dup2\n        /* \"#utility.yul\":20009:20015   */\n      dup5\n        /* \"#utility.yul\":20001:20007   */\n      dup7\n        /* \"#utility.yul\":19937:20023   */\n      tag_230\n      jump\t// in\n    tag_424:\n        /* \"#utility.yul\":19929:20023   */\n      swap1\n      pop\n        /* \"#utility.yul\":19370:20030   */\n      swap7\n      swap6\n      pop\n      pop\n      pop\n      pop\n      pop\n      pop\n      jump\t// out\n        /* \"#utility.yul\":20036:20478   */\n    tag_161:\n        /* \"#utility.yul\":20185:20189   */\n      0x00\n        /* \"#utility.yul\":20223:20225   */\n      0x60\n        /* \"#utility.yul\":20212:20221   */\n      dup3\n        /* \"#utility.yul\":20208:20226   */\n      add\n        /* \"#utility.yul\":20200:20226   */\n      swap1\n      pop\n        /* \"#utility.yul\":20236:20307   */\n      tag_426\n        /* \"#utility.yul\":20304:20305   */\n      0x00\n        /* \"#utility.yul\":20293:20302   */\n      dup4\n        /* \"#utility.yul\":20289:20306   */\n      add\n        /* \"#utility.yul\":20280:20286   */\n      dup7\n        /* \"#utility.yul\":20236:20307   */\n      tag_198\n      jump\t// in\n    tag_426:\n        /* \"#utility.yul\":20317:20389   */\n      tag_427\n        /* \"#utility.yul\":20385:20387   */\n      0x20\n        /* \"#utility.yul\":20374:20383   */\n      dup4\n        /* \"#utility.yul\":20370:20388   */\n      add\n        /* \"#utility.yul\":20361:20367   */\n      dup6\n        /* \"#utility.yul\":20317:20389   */\n      tag_198\n      jump\t// in\n    tag_427:\n        /* \"#utility.yul\":20399:20471   */\n      tag_428\n        /* \"#utility.yul\":20467:20469   */\n      0x40\n        /* \"#utility.yul\":20456:20465   */\n      dup4\n        /* \"#utility.yul\":20452:20470   */\n      add\n        /* \"#utility.yul\":20443:20449   */\n      dup5\n        /* \"#utility.yul\":20399:20471   */\n      tag_201\n      jump\t// in\n    tag_428:\n        /* \"#utility.yul\":20036:20478   */\n      swap5\n      swap4\n      pop\n      pop\n      pop\n      pop\n      jump\t// out\n        /* \"#utility.yul\":20484:20621   */\n    tag_231:\n        /* \"#utility.yul\":20538:20543   */\n      0x00\n        /* \"#utility.yul\":20569:20575   */\n      dup2\n        /* \"#utility.yul\":20563:20576   */\n      mload\n        /* \"#utility.yul\":20554:20576   */\n      swap1\n      pop\n        /* \"#utility.yul\":20585:20615   */\n      tag_430\n        /* \"#utility.yul\":20609:20614   */\n      dup2\n        /* \"#utility.yul\":20585:20615   */\n      tag_202\n      jump\t// in\n    tag_430:\n        /* \"#utility.yul\":20484:20621   */\n      swap3\n      swap2\n      pop\n      pop\n      jump\t// out\n        /* \"#utility.yul\":20627:20972   */\n    tag_165:\n        /* \"#utility.yul\":20694:20700   */\n      0x00\n        /* \"#utility.yul\":20743:20745   */\n      0x20\n        /* \"#utility.yul\":20731:20740   */\n      dup3\n        /* \"#utility.yul\":20722:20729   */\n      dup5\n        /* \"#utility.yul\":20718:20741   */\n      sub\n        /* \"#utility.yul\":20714:20746   */\n      slt\n        /* \"#utility.yul\":20711:20830   */\n      iszero\n      tag_432\n      jumpi\n        /* \"#utility.yul\":20749:20828   */\n      tag_433\n      tag_186\n      jump\t// in\n    tag_433:\n        /* \"#utility.yul\":20711:20830   */\n    tag_432:\n        /* \"#utility.yul\":20869:20870   */\n      0x00\n        /* \"#utility.yul\":20894:20955   */\n      tag_434\n        /* \"#utility.yul\":20947:20954   */\n      dup5\n        /* \"#utility.yul\":20938:20944   */\n      dup3\n        /* \"#utility.yul\":20927:20936   */\n      dup6\n        /* \"#utility.yul\":20923:20945   */\n      add\n        /* \"#utility.yul\":20894:20955   */\n      tag_231\n      jump\t// in\n    tag_434:\n        /* \"#utility.yul\":20884:20955   */\n      swap2\n      pop\n        /* \"#utility.yul\":20840:20965   */\n      pop\n        /* \"#utility.yul\":20627:20972   */\n      swap3\n      swap2\n      pop\n      pop\n      jump\t// out\n        /* \"#utility.yul\":20978:21310   */\n    tag_170:\n        /* \"#utility.yul\":21099:21103   */\n      0x00\n        /* \"#utility.yul\":21137:21139   */\n      0x40\n        /* \"#utility.yul\":21126:21135   */\n      dup3\n        /* \"#utility.yul\":21122:21140   */\n      add\n        /* \"#utility.yul\":21114:21140   */\n      swap1\n      pop\n        /* \"#utility.yul\":21150:21221   */\n      tag_436\n        /* \"#utility.yul\":21218:21219   */\n      0x00\n        /* \"#utility.yul\":21207:21216   */\n      dup4\n        /* \"#utility.yul\":21203:21220   */\n      add\n        /* \"#utility.yul\":21194:21200   */\n      dup6\n        /* \"#utility.yul\":21150:21221   */\n      tag_198\n      jump\t// in\n    tag_436:\n        /* \"#utility.yul\":21231:21303   */\n      tag_437\n        /* \"#utility.yul\":21299:21301   */\n      0x20\n        /* \"#utility.yul\":21288:21297   */\n      dup4\n        /* \"#utility.yul\":21284:21302   */\n      add\n        /* \"#utility.yul\":21275:21281   */\n      dup5\n        /* \"#utility.yul\":21231:21303   */\n      tag_201\n      jump\t// in\n    tag_437:\n        /* \"#utility.yul\":20978:21310   */\n      swap4\n      swap3\n      pop\n      pop\n      pop\n      jump\t// out\n        /* \"#utility.yul\":21316:21486   */\n    tag_232:\n        /* \"#utility.yul\":21456:21478   */\n      0x6d696e7420746f207a65726f2061646472657373000000000000000000000000\n        /* \"#utility.yul\":21452:21453   */\n      0x00\n        /* \"#utility.yul\":21444:21450   */\n      dup3\n        /* \"#utility.yul\":21440:21454   */\n      add\n        /* \"#utility.yul\":21433:21479   */\n      mstore\n        /* \"#utility.yul\":21316:21486   */\n      pop\n      jump\t// out\n        /* \"#utility.yul\":21492:21858   */\n    tag_233:\n        /* \"#utility.yul\":21634:21637   */\n      0x00\n        /* \"#utility.yul\":21655:21722   */\n      tag_440\n        /* \"#utility.yul\":21719:21721   */\n      0x14\n        /* \"#utility.yul\":21714:21717   */\n      dup4\n        /* \"#utility.yul\":21655:21722   */\n      tag_208\n      jump\t// in\n    tag_440:\n        /* \"#utility.yul\":21648:21722   */\n      swap2\n      pop\n        /* \"#utility.yul\":21731:21824   */\n      tag_441\n        /* \"#utility.yul\":21820:21823   */\n      dup3\n        /* \"#utility.yul\":21731:21824   */\n      tag_232\n      jump\t// in\n    tag_441:\n        /* \"#utility.yul\":21849:21851   */\n      0x20\n        /* \"#utility.yul\":21844:21847   */\n      dup3\n        /* \"#utility.yul\":21840:21852   */\n      add\n        /* \"#utility.yul\":21833:21852   */\n      swap1\n      pop\n        /* \"#utility.yul\":21492:21858   */\n      swap2\n      swap1\n      pop\n      jump\t// out\n        /* \"#utility.yul\":21864:22283   */\n    tag_177:\n        /* \"#utility.yul\":22030:22034   */\n      0x00\n        /* \"#utility.yul\":22068:22070   */\n      0x20\n        /* \"#utility.yul\":22057:22066   */\n      dup3\n        /* \"#utility.yul\":22053:22071   */\n      add\n        /* \"#utility.yul\":22045:22071   */\n      swap1\n      pop\n        /* \"#utility.yul\":22117:22126   */\n      dup2\n        /* \"#utility.yul\":22111:22115   */\n      dup2\n        /* \"#utility.yul\":22107:22127   */\n      sub\n        /* \"#utility.yul\":22103:22104   */\n      0x00\n        /* \"#utility.yul\":22092:22101   */\n      dup4\n        /* \"#utility.yul\":22088:22105   */\n      add\n        /* \"#utility.yul\":22081:22128   */\n      mstore\n        /* \"#utility.yul\":22145:22276   */\n      tag_443\n        /* \"#utility.yul\":22271:22275   */\n      dup2\n        /* \"#utility.yul\":22145:22276   */\n      tag_233\n      jump\t// in\n    tag_443:\n        /* \"#utility.yul\":22137:22276   */\n      swap1\n      pop\n        /* \"#utility.yul\":21864:22283   */\n      swap2\n      swap1\n      pop\n      jump\t// out\n        /* \"#utility.yul\":22289:22453   */\n    tag_234:\n        /* \"#utility.yul\":22429:22445   */\n      0x616c7265616479206d696e746564000000000000000000000000000000000000\n        /* \"#utility.yul\":22425:22426   */\n      0x00\n        /* \"#utility.yul\":22417:22423   */\n      dup3\n        /* \"#utility.yul\":22413:22427   */\n      add\n        /* \"#utility.yul\":22406:22446   */\n      mstore\n        /* \"#utility.yul\":22289:22453   */\n      pop\n      jump\t// out\n        /* \"#utility.yul\":22459:22825   */\n    tag_235:\n        /* \"#utility.yul\":22601:22604   */\n      0x00\n        /* \"#utility.yul\":22622:22689   */\n      tag_446\n        /* \"#utility.yul\":22686:22688   */\n      0x0e\n        /* \"#utility.yul\":22681:22684   */\n      dup4\n        /* \"#utility.yul\":22622:22689   */\n      tag_208\n      jump\t// in\n    tag_446:\n        /* \"#utility.yul\":22615:22689   */\n      swap2\n      pop\n        /* \"#utility.yul\":22698:22791   */\n      tag_447\n        /* \"#utility.yul\":22787:22790   */\n      dup3\n        /* \"#utility.yul\":22698:22791   */\n      tag_234\n      jump\t// in\n    tag_447:\n        /* \"#utility.yul\":22816:22818   */\n      0x20\n        /* \"#utility.yul\":22811:22814   */\n      dup3\n        /* \"#utility.yul\":22807:22819   */\n      add\n        /* \"#utility.yul\":22800:22819   */\n      swap1\n      pop\n        /* \"#utility.yul\":22459:22825   */\n      swap2\n      swap1\n      pop\n      jump\t// out\n        /* \"#utility.yul\":22831:23250   */\n    tag_180:\n        /* \"#utility.yul\":22997:23001   */\n      0x00\n        /* \"#utility.yul\":23035:23037   */\n      0x20\n        /* \"#utility.yul\":23024:23033   */\n      dup3\n        /* \"#utility.yul\":23020:23038   */\n      add\n        /* \"#utility.yul\":23012:23038   */\n      swap1\n      pop\n        /* \"#utility.yul\":23084:23093   */\n      dup2\n        /* \"#utility.yul\":23078:23082   */\n      dup2\n        /* \"#utility.yul\":23074:23094   */\n      sub\n        /* \"#utility.yul\":23070:23071   */\n      0x00\n        /* \"#utility.yul\":23059:23068   */\n      dup4\n        /* \"#utility.yul\":23055:23072   */\n      add\n        /* \"#utility.yul\":23048:23095   */\n      mstore\n        /* \"#utility.yul\":23112:23243   */\n      tag_449\n        /* \"#utility.yul\":23238:23242   */\n      dup2\n        /* \"#utility.yul\":23112:23243   */\n      tag_235\n      jump\t// in\n    tag_449:\n        /* \"#utility.yul\":23104:23243   */\n      swap1\n      pop\n        /* \"#utility.yul\":22831:23250   */\n      swap2\n      swap1\n      pop\n      jump\t// out\n\n    auxdata: 0xa2646970667358221220107a541ab05b178f492c361f38a42725b93b6d0def0866685fde6e055bc50f0a64736f6c63430008120033\n}\n",
				"bytecode": {
					"linkReferences": {},
					"object": "608060405234801561001057600080fd5b5033600460006101000a81548173ffffffffffffffffffffffffffffffffffffffff021916908373ffffffffffffffffffffffffffffffffffffffff16021790555061221f806100616000396000f3fe608060405234801561001057600080fd5b50600436106101005760003560e01c806370a0823111610097578063b88d4fde11610066578063b88d4fde146102a9578063da644b04146102c5578063e985e9c5146102e1578063fc6bcf391461031157610100565b806370a0823114610223578063880cdc31146102535780638da5cb5b1461026f578063a22cb4651461028d57610100565b806318796ca8116100d357806318796ca81461018b57806323b872dd146101bb57806342842e0e146101d75780636352211e146101f357610100565b806301ffc9a714610105578063081812fc14610135578063095ea7b3146101655780631249c58b14610181575b600080fd5b61011f600480360381019061011a91906116d4565b61032d565b60405161012c919061171c565b60405180910390f35b61014f600480360381019061014a919061176d565b6103ff565b60405161015c91906117db565b60405180910390f35b61017f600480360381019061017a9190611822565b6104dc565b005b6101896106c4565b005b6101a560048036038101906101a09190611862565b61077c565b6040516101b291906118b1565b60405180910390f35b6101d560048036038101906101d091906118cc565b6107d7565b005b6101f160048036038101906101ec91906118cc565b610ac1565b005b61020d6004803603810190610208919061176d565b610bf9565b60405161021a91906117db565b60405180910390f35b61023d6004803603810190610238919061191f565b610ca4565b60405161024a91906118b1565b60405180910390f35b61026d6004803603810190610268919061191f565b610d5b565b005b610277610e72565b60405161028491906117db565b60405180910390f35b6102a760048036038101906102a29190611978565b610e98565b005b6102c360048036038101906102be9190611a1d565b610f95565b005b6102df60048036038101906102da9190611aa5565b6110d3565b005b6102fb60048036038101906102f69190611af8565b6111ae565b604051610308919061171c565b60405180910390f35b61032b60048036038101906103269190611aa5565b6111dd565b005b60007f80ac58cd000000000000000000000000000000000000000000000000000000007bffffffffffffffffffffffffffffffffffffffffffffffffffffffff1916827bffffffffffffffffffffffffffffffffffffffffffffffffffffffff191614806103f857507f01ffc9a7000000000000000000000000000000000000000000000000000000007bffffffffffffffffffffffffffffffffffffffffffffffffffffffff1916827bffffffffffffffffffffffffffffffffffffffffffffffffffffffff1916145b9050919050565b60008073ffffffffffffffffffffffffffffffffffffffff1660008084815260200190815260200160002060009054906101000a900473ffffffffffffffffffffffffffffffffffffffff1673ffffffffffffffffffffffffffffffffffffffff16036104a1576040517f08c379a000000000000000000000000000000000000000000000000000000000815260040161049890611b95565b60405180910390fd5b6002600083815260200190815260200160002060009054906101000a900473ffffffffffffffffffffffffffffffffffffffff169050919050565b600080600083815260200190815260200160002060009054906101000a900473ffffffffffffffffffffffffffffffffffffffff1690508073ffffffffffffffffffffffffffffffffffffffff163373ffffffffffffffffffffffffffffffffffffffff1614806105d35750600360008273ffffffffffffffffffffffffffffffffffffffff1673ffffffffffffffffffffffffffffffffffffffff16815260200190815260200160002060003373ffffffffffffffffffffffffffffffffffffffff1673ffffffffffffffffffffffffffffffffffffffff16815260200190815260200160002060009054906101000a900460ff165b610612576040517f08c379a000000000000000000000000000000000000000000000000000000000815260040161060990611c01565b60405180910390fd5b826002600084815260200190815260200160002060006101000a81548173ffffffffffffffffffffffffffffffffffffffff021916908373ffffffffffffffffffffffffffffffffffffffff160217905550818373ffffffffffffffffffffffffffffffffffffffff168273ffffffffffffffffffffffffffffffffffffffff167f8c5be1e5ebec7d5bd14f71427d1e84f3dd0314c0f7b2291e5b200ac8c7c3b92560405160405180910390a4505050565b600460009054906101000a900473ffffffffffffffffffffffffffffffffffffffff1673ffffffffffffffffffffffffffffffffffffffff163373ffffffffffffffffffffffffffffffffffffffff1614610754576040517f08c379a000000000000000000000000000000000000000000000000000000000815260040161074b90611c6d565b60405180910390fd5b61076033600554611328565b6001600560008282546107739190611cbc565b92505081905550565b60006006600084815260200190815260200160002060008373ffffffffffffffffffffffffffffffffffffffff1673ffffffffffffffffffffffffffffffffffffffff16815260200190815260200160002054905092915050565b60008082815260200190815260200160002060009054906101000a900473ffffffffffffffffffffffffffffffffffffffff1673ffffffffffffffffffffffffffffffffffffffff168373ffffffffffffffffffffffffffffffffffffffff1614610877576040517f08c379a000000000000000000000000000000000000000000000000000000000815260040161086e90611d3c565b60405180910390fd5b600073ffffffffffffffffffffffffffffffffffffffff168273ffffffffffffffffffffffffffffffffffffffff16036108e6576040517f08c379a00000000000000000000000000000000000000000000000000000000081526004016108dd90611da8565b60405180910390fd5b6108f183338361153e565b610930576040517f08c379a000000000000000000000000000000000000000000000000000000000815260040161092790611c01565b60405180910390fd5b600160008473ffffffffffffffffffffffffffffffffffffffff1673ffffffffffffffffffffffffffffffffffffffff168152602001908152602001600020600081548092919061098090611dc8565b9190505550600160008373ffffffffffffffffffffffffffffffffffffffff1673ffffffffffffffffffffffffffffffffffffffff16815260200190815260200160002060008154809291906109d590611df1565b91905055508160008083815260200190815260200160002060006101000a81548173ffffffffffffffffffffffffffffffffffffffff021916908373ffffffffffffffffffffffffffffffffffffffff1602179055506002600082815260200190815260200160002060006101000a81549073ffffffffffffffffffffffffffffffffffffffff0219169055808273ffffffffffffffffffffffffffffffffffffffff168473ffffffffffffffffffffffffffffffffffffffff167fddf252ad1be2c89b69c2b068fc378daa952ba7f163c4a11628f55a4df523b3ef60405160405180910390a4505050565b610acc8383836107d7565b60008273ffffffffffffffffffffffffffffffffffffffff163b1480610bb5575063150b7a0260e01b7bffffffffffffffffffffffffffffffffffffffffffffffffffffffff19168273ffffffffffffffffffffffffffffffffffffffff1663150b7a023386856040518463ffffffff1660e01b8152600401610b5193929190611e70565b6020604051808303816000875af1158015610b70573d6000803e3d6000fd5b505050506040513d601f19601f82011682018060405250810190610b949190611ecf565b7bffffffffffffffffffffffffffffffffffffffffffffffffffffffff1916145b610bf4576040517f08c379a0000000000000000000000000000000000000000000000000000000008152600401610beb90611f48565b60405180910390fd5b505050565b600080600083815260200190815260200160002060009054906101000a900473ffffffffffffffffffffffffffffffffffffffff169050600073ffffffffffffffffffffffffffffffffffffffff168173ffffffffffffffffffffffffffffffffffffffff1603610c9f576040517f08c379a0000000000000000000000000000000000000000000000000000000008152600401610c9690611b95565b60405180910390fd5b919050565b60008073ffffffffffffffffffffffffffffffffffffffff168273ffffffffffffffffffffffffffffffffffffffff1603610d14576040517f08c379a0000000000000000000000000000000000000000000000000000000008152600401610d0b90611fb4565b60405180910390fd5b600160008373ffffffffffffffffffffffffffffffffffffffff1673ffffffffffffffffffffffffffffffffffffffff168152602001908152602001600020549050919050565b600460009054906101000a900473ffffffffffffffffffffffffffffffffffffffff1673ffffffffffffffffffffffffffffffffffffffff163373ffffffffffffffffffffffffffffffffffffffff1614610deb576040517f08c379a0000000000000000000000000000000000000000000000000000000008152600401610de290611c6d565b60405180910390fd5b80600460006101000a81548173ffffffffffffffffffffffffffffffffffffffff021916908373ffffffffffffffffffffffffffffffffffffffff1602179055508073ffffffffffffffffffffffffffffffffffffffff167f84022644ce39de434e8f39c4398a3628815893104188274c37205d41c2d5096760405160405180910390a250565b600460009054906101000a900473ffffffffffffffffffffffffffffffffffffffff1681565b80600360003373ffffffffffffffffffffffffffffffffffffffff1673ffffffffffffffffffffffffffffffffffffffff16815260200190815260200160002060008473ffffffffffffffffffffffffffffffffffffffff1673ffffffffffffffffffffffffffffffffffffffff16815260200190815260200160002060006101000a81548160ff0219169083151502179055508173ffffffffffffffffffffffffffffffffffffffff163373ffffffffffffffffffffffffffffffffffffffff167f17307eab39ab6107e8899845ad3d59bd9653f200f220920489ca2b5937696c3183604051610f89919061171c565b60405180910390a35050565b610fa08585856107d7565b60008473ffffffffffffffffffffffffffffffffffffffff163b148061108d575063150b7a0260e01b7bffffffffffffffffffffffffffffffffffffffffffffffffffffffff19168473ffffffffffffffffffffffffffffffffffffffff1663150b7a0233888787876040518663ffffffff1660e01b8152600401611029959493929190612021565b6020604051808303816000875af1158015611048573d6000803e3d6000fd5b505050506040513d601f19601f8201168201806040525081019061106c9190611ecf565b7bffffffffffffffffffffffffffffffffffffffffffffffffffffffff1916145b6110cc576040517f08c379a00000000000000000000000000000000000000000000000000000000081526004016110c390611f48565b60405180910390fd5b5050505050565b8173ffffffffffffffffffffffffffffffffffffffff166323b872dd3330846040518463ffffffff1660e01b81526004016111109392919061206f565b6020604051808303816000875af115801561112f573d6000803e3d6000fd5b505050506040513d601f19601f8201168201806040525081019061115391906120bb565b50806006600085815260200190815260200160002060008473ffffffffffffffffffffffffffffffffffffffff1673ffffffffffffffffffffffffffffffffffffffff16815260200190815260200160002081905550505050565b60036020528160005260406000206020528060005260406000206000915091509054906101000a900460ff1681565b60008084815260200190815260200160002060009054906101000a900473ffffffffffffffffffffffffffffffffffffffff1673ffffffffffffffffffffffffffffffffffffffff163373ffffffffffffffffffffffffffffffffffffffff161461124757600080fd5b806006600085815260200190815260200160002060008473ffffffffffffffffffffffffffffffffffffffff1673ffffffffffffffffffffffffffffffffffffffff1681526020019081526020016000205410156112a457600080fd5b8173ffffffffffffffffffffffffffffffffffffffff1663a9059cbb33836040518363ffffffff1660e01b81526004016112df9291906120e8565b6020604051808303816000875af11580156112fe573d6000803e3d6000fd5b505050506040513d601f19601f8201168201806040525081019061132291906120bb565b50505050565b600073ffffffffffffffffffffffffffffffffffffffff168273ffffffffffffffffffffffffffffffffffffffff1603611397576040517f08c379a000000000000000000000000000000000000000000000000000000000815260040161138e9061215d565b60405180910390fd5b600073ffffffffffffffffffffffffffffffffffffffff1660008083815260200190815260200160002060009054906101000a900473ffffffffffffffffffffffffffffffffffffffff1673ffffffffffffffffffffffffffffffffffffffff1614611438576040517f08c379a000000000000000000000000000000000000000000000000000000000815260040161142f906121c9565b60405180910390fd5b600160008373ffffffffffffffffffffffffffffffffffffffff1673ffffffffffffffffffffffffffffffffffffffff168152602001908152602001600020600081548092919061148890611df1565b91905055508160008083815260200190815260200160002060006101000a81548173ffffffffffffffffffffffffffffffffffffffff021916908373ffffffffffffffffffffffffffffffffffffffff160217905550808273ffffffffffffffffffffffffffffffffffffffff16600073ffffffffffffffffffffffffffffffffffffffff167fddf252ad1be2c89b69c2b068fc378daa952ba7f163c4a11628f55a4df523b3ef60405160405180910390a45050565b60008373ffffffffffffffffffffffffffffffffffffffff168373ffffffffffffffffffffffffffffffffffffffff1614806116005750600360008573ffffffffffffffffffffffffffffffffffffffff1673ffffffffffffffffffffffffffffffffffffffff16815260200190815260200160002060008473ffffffffffffffffffffffffffffffffffffffff1673ffffffffffffffffffffffffffffffffffffffff16815260200190815260200160002060009054906101000a900460ff165b8061166957506002600083815260200190815260200160002060009054906101000a900473ffffffffffffffffffffffffffffffffffffffff1673ffffffffffffffffffffffffffffffffffffffff168373ffffffffffffffffffffffffffffffffffffffff16145b90509392505050565b600080fd5b600080fd5b60007fffffffff0000000000000000000000000000000000000000000000000000000082169050919050565b6116b18161167c565b81146116bc57600080fd5b50565b6000813590506116ce816116a8565b92915050565b6000602082840312156116ea576116e9611672565b5b60006116f8848285016116bf565b91505092915050565b60008115159050919050565b61171681611701565b82525050565b6000602082019050611731600083018461170d565b92915050565b6000819050919050565b61174a81611737565b811461175557600080fd5b50565b60008135905061176781611741565b92915050565b60006020828403121561178357611782611672565b5b600061179184828501611758565b91505092915050565b600073ffffffffffffffffffffffffffffffffffffffff82169050919050565b60006117c58261179a565b9050919050565b6117d5816117ba565b82525050565b60006020820190506117f060008301846117cc565b92915050565b6117ff816117ba565b811461180a57600080fd5b50565b60008135905061181c816117f6565b92915050565b6000806040838503121561183957611838611672565b5b60006118478582860161180d565b925050602061185885828601611758565b9150509250929050565b6000806040838503121561187957611878611672565b5b600061188785828601611758565b92505060206118988582860161180d565b9150509250929050565b6118ab81611737565b82525050565b60006020820190506118c660008301846118a2565b92915050565b6000806000606084860312156118e5576118e4611672565b5b60006118f38682870161180d565b93505060206119048682870161180d565b925050604061191586828701611758565b9150509250925092565b60006020828403121561193557611934611672565b5b60006119438482850161180d565b91505092915050565b61195581611701565b811461196057600080fd5b50565b6000813590506119728161194c565b92915050565b6000806040838503121561198f5761198e611672565b5b600061199d8582860161180d565b92505060206119ae85828601611963565b9150509250929050565b600080fd5b600080fd5b600080fd5b60008083601f8401126119dd576119dc6119b8565b5b8235905067ffffffffffffffff8111156119fa576119f96119bd565b5b602083019150836001820283011115611a1657611a156119c2565b5b9250929050565b600080600080600060808688031215611a3957611a38611672565b5b6000611a478882890161180d565b9550506020611a588882890161180d565b9450506040611a6988828901611758565b935050606086013567ffffffffffffffff811115611a8a57611a89611677565b5b611a96888289016119c7565b92509250509295509295909350565b600080600060608486031215611abe57611abd611672565b5b6000611acc86828701611758565b9350506020611add8682870161180d565b9250506040611aee86828701611758565b9150509250925092565b60008060408385031215611b0f57611b0e611672565b5b6000611b1d8582860161180d565b9250506020611b2e8582860161180d565b9150509250929050565b600082825260208201905092915050565b7f746f6b656e20646f65736e277420657869737400000000000000000000000000600082015250565b6000611b7f601383611b38565b9150611b8a82611b49565b602082019050919050565b60006020820190508181036000830152611bae81611b72565b9050919050565b7f6e6f7420617574686f72697a6564000000000000000000000000000000000000600082015250565b6000611beb600e83611b38565b9150611bf682611bb5565b602082019050919050565b60006020820190508181036000830152611c1a81611bde565b9050919050565b7f6f6e6c79206f776e657200000000000000000000000000000000000000000000600082015250565b6000611c57600a83611b38565b9150611c6282611c21565b602082019050919050565b60006020820190508181036000830152611c8681611c4a565b9050919050565b7f4e487b7100000000000000000000000000000000000000000000000000000000600052601160045260246000fd5b6000611cc782611737565b9150611cd283611737565b9250828201905080821115611cea57611ce9611c8d565b5b92915050565b7f66726f6d20213d206f776e657200000000000000000000000000000000000000600082015250565b6000611d26600d83611b38565b9150611d3182611cf0565b602082019050919050565b60006020820190508181036000830152611d5581611d19565b9050919050565b7f7472616e7366657220746f207a65726f20616464726573730000000000000000600082015250565b6000611d92601883611b38565b9150611d9d82611d5c565b602082019050919050565b60006020820190508181036000830152611dc181611d85565b9050919050565b6000611dd382611737565b915060008203611de657611de5611c8d565b5b600182039050919050565b6000611dfc82611737565b91507fffffffffffffffffffffffffffffffffffffffffffffffffffffffffffffffff8203611e2e57611e2d611c8d565b5b600182019050919050565b600082825260208201905092915050565b50565b6000611e5a600083611e39565b9150611e6582611e4a565b600082019050919050565b6000608082019050611e8560008301866117cc565b611e9260208301856117cc565b611e9f60408301846118a2565b8181036060830152611eb081611e4d565b9050949350505050565b600081519050611ec9816116a8565b92915050565b600060208284031215611ee557611ee4611672565b5b6000611ef384828501611eba565b91505092915050565b7f756e7361666520726563697069656e7400000000000000000000000000000000600082015250565b6000611f32601083611b38565b9150611f3d82611efc565b602082019050919050565b60006020820190508181036000830152611f6181611f25565b9050919050565b7f6f776e6572203d207a65726f2061646472657373000000000000000000000000600082015250565b6000611f9e601483611b38565b9150611fa982611f68565b602082019050919050565b60006020820190508181036000830152611fcd81611f91565b9050919050565b82818337600083830152505050565b6000601f19601f8301169050919050565b60006120008385611e39565b935061200d838584611fd4565b61201683611fe3565b840190509392505050565b600060808201905061203660008301886117cc565b61204360208301876117cc565b61205060408301866118a2565b8181036060830152612063818486611ff4565b90509695505050505050565b600060608201905061208460008301866117cc565b61209160208301856117cc565b61209e60408301846118a2565b949350505050565b6000815190506120b58161194c565b92915050565b6000602082840312156120d1576120d0611672565b5b60006120df848285016120a6565b91505092915050565b60006040820190506120fd60008301856117cc565b61210a60208301846118a2565b9392505050565b7f6d696e7420746f207a65726f2061646472657373000000000000000000000000600082015250565b6000612147601483611b38565b915061215282612111565b602082019050919050565b600060208201905081810360008301526121768161213a565b9050919050565b7f616c7265616479206d696e746564000000000000000000000000000000000000600082015250565b60006121b3600e83611b38565b91506121be8261217d565b602082019050919050565b600060208201905081810360008301526121e2816121a6565b905091905056fea2646970667358221220107a541ab05b178f492c361f38a42725b93b6d0def0866685fde6e055bc50f0a64736f6c63430008120033",
					"opcodes": "PUSH1 0x80 PUSH1 0x40 MSTORE CALLVALUE DUP1 ISZERO PUSH2 0x10 JUMPI PUSH1 0x0 DUP1 REVERT JUMPDEST POP CALLER PUSH1 0x4 PUSH1 0x0 PUSH2 0x100 EXP DUP2 SLOAD DUP2 PUSH20 0xFFFFFFFFFFFFFFFFFFFFFFFFFFFFFFFFFFFFFFFF MUL NOT AND SWAP1 DUP4 PUSH20 0xFFFFFFFFFFFFFFFFFFFFFFFFFFFFFFFFFFFFFFFF AND MUL OR SWAP1 SSTORE POP PUSH2 0x221F DUP1 PUSH2 0x61 PUSH1 0x0 CODECOPY PUSH1 0x0 RETURN INVALID PUSH1 0x80 PUSH1 0x40 MSTORE CALLVALUE DUP1 ISZERO PUSH2 0x10 JUMPI PUSH1 0x0 DUP1 REVERT JUMPDEST POP PUSH1 0x4 CALLDATASIZE LT PUSH2 0x100 JUMPI PUSH1 0x0 CALLDATALOAD PUSH1 0xE0 SHR DUP1 PUSH4 0x70A08231 GT PUSH2 0x97 JUMPI DUP1 PUSH4 0xB88D4FDE GT PUSH2 0x66 JUMPI DUP1 PUSH4 0xB88D4FDE EQ PUSH2 0x2A9 JUMPI DUP1 PUSH4 0xDA644B04 EQ PUSH2 0x2C5 JUMPI DUP1 PUSH4 0xE985E9C5 EQ PUSH2 0x2E1 JUMPI DUP1 PUSH4 0xFC6BCF39 EQ PUSH2 0x311 JUMPI PUSH2 0x100 JUMP JUMPDEST DUP1 PUSH4 0x70A08231 EQ PUSH2 0x223 JUMPI DUP1 PUSH4 0x880CDC31 EQ PUSH2 0x253 JUMPI DUP1 PUSH4 0x8DA5CB5B EQ PUSH2 0x26F JUMPI DUP1 PUSH4 0xA22CB465 EQ PUSH2 0x28D JUMPI PUSH2 0x100 JUMP JUMPDEST DUP1 PUSH4 0x18796CA8 GT PUSH2 0xD3 JUMPI DUP1 PUSH4 0x18796CA8 EQ PUSH2 0x18B JUMPI DUP1 PUSH4 0x23B872DD EQ PUSH2 0x1BB JUMPI DUP1 PUSH4 0x42842E0E EQ PUSH2 0x1D7 JUMPI DUP1 PUSH4 0x6352211E EQ PUSH2 0x1F3 JUMPI PUSH2 0x100 JUMP JUMPDEST DUP1 PUSH4 0x1FFC9A7 EQ PUSH2 0x105 JUMPI DUP1 PUSH4 0x81812FC EQ PUSH2 0x135 JUMPI DUP1 PUSH4 0x95EA7B3 EQ PUSH2 0x165 JUMPI DUP1 PUSH4 0x1249C58B EQ PUSH2 0x181 JUMPI JUMPDEST PUSH1 0x0 DUP1 REVERT JUMPDEST PUSH2 0x11F PUSH1 0x4 DUP1 CALLDATASIZE SUB DUP2 ADD SWAP1 PUSH2 0x11A SWAP2 SWAP1 PUSH2 0x16D4 JUMP JUMPDEST PUSH2 0x32D JUMP JUMPDEST PUSH1 0x40 MLOAD PUSH2 0x12C SWAP2 SWAP1 PUSH2 0x171C JUMP JUMPDEST PUSH1 0x40 MLOAD DUP1 SWAP2 SUB SWAP1 RETURN JUMPDEST PUSH2 0x14F PUSH1 0x4 DUP1 CALLDATASIZE SUB DUP2 ADD SWAP1 PUSH2 0x14A SWAP2 SWAP1 PUSH2 0x176D JUMP JUMPDEST PUSH2 0x3FF JUMP JUMPDEST PUSH1 0x40 MLOAD PUSH2 0x15C SWAP2 SWAP1 PUSH2 0x17DB JUMP JUMPDEST PUSH1 0x40 MLOAD DUP1 SWAP2 SUB SWAP1 RETURN JUMPDEST PUSH2 0x17F PUSH1 0x4 DUP1 CALLDATASIZE SUB DUP2 ADD SWAP1 PUSH2 0x17A SWAP2 SWAP1 PUSH2 0x1822 JUMP JUMPDEST PUSH2 0x4DC JUMP JUMPDEST STOP JUMPDEST PUSH2 0x189 PUSH2 0x6C4 JUMP JUMPDEST STOP JUMPDEST PUSH2 0x1A5 PUSH1 0x4 DUP1 CALLDATASIZE SUB DUP2 ADD SWAP1 PUSH2 0x1A0 SWAP2 SWAP1 PUSH2 0x1862 JUMP JUMPDEST PUSH2 0x77C JUMP JUMPDEST PUSH1 0x40 MLOAD PUSH2 0x1B2 SWAP2 SWAP1 PUSH2 0x18B1 JUMP JUMPDEST PUSH1 0x40 MLOAD DUP1 SWAP2 SUB SWAP1 RETURN JUMPDEST PUSH2 0x1D5 PUSH1 0x4 DUP1 CALLDATASIZE SUB DUP2 ADD SWAP1 PUSH2 0x1D0 SWAP2 SWAP1 PUSH2 0x18CC JUMP JUMPDEST PUSH2 0x7D7 JUMP JUMPDEST STOP JUMPDEST PUSH2 0x1F1 PUSH1 0x4 DUP1 CALLDATASIZE SUB DUP2 ADD SWAP1 PUSH2 0x1EC SWAP2 SWAP1 PUSH2 0x18CC JUMP JUMPDEST PUSH2 0xAC1 JUMP JUMPDEST STOP JUMPDEST PUSH2 0x20D PUSH1 0x4 DUP1 CALLDATASIZE SUB DUP2 ADD SWAP1 PUSH2 0x208 SWAP2 SWAP1 PUSH2 0x176D JUMP JUMPDEST PUSH2 0xBF9 JUMP JUMPDEST PUSH1 0x40 MLOAD PUSH2 0x21A SWAP2 SWAP1 PUSH2 0x17DB JUMP JUMPDEST PUSH1 0x40 MLOAD DUP1 SWAP2 SUB SWAP1 RETURN JUMPDEST PUSH2 0x23D PUSH1 0x4 DUP1 CALLDATASIZE SUB DUP2 ADD SWAP1 PUSH2 0x238 SWAP2 SWAP1 PUSH2 0x191F JUMP JUMPDEST PUSH2 0xCA4 JUMP JUMPDEST PUSH1 0x40 MLOAD PUSH2 0x24A SWAP2 SWAP1 PUSH2 0x18B1 JUMP JUMPDEST PUSH1 0x40 MLOAD DUP1 SWAP2 SUB SWAP1 RETURN JUMPDEST PUSH2 0x26D PUSH1 0x4 DUP1 CALLDATASIZE SUB DUP2 ADD SWAP1 PUSH2 0x268 SWAP2 SWAP1 PUSH2 0x191F JUMP JUMPDEST PUSH2 0xD5B JUMP JUMPDEST STOP JUMPDEST PUSH2 0x277 PUSH2 0xE72 JUMP JUMPDEST PUSH1 0x40 MLOAD PUSH2 0x284 SWAP2 SWAP1 PUSH2 0x17DB JUMP JUMPDEST PUSH1 0x40 MLOAD DUP1 SWAP2 SUB SWAP1 RETURN JUMPDEST PUSH2 0x2A7 PUSH1 0x4 DUP1 CALLDATASIZE SUB DUP2 ADD SWAP1 PUSH2 0x2A2 SWAP2 SWAP1 PUSH2 0x1978 JUMP JUMPDEST PUSH2 0xE98 JUMP JUMPDEST STOP JUMPDEST PUSH2 0x2C3 PUSH1 0x4 DUP1 CALLDATASIZE SUB DUP2 ADD SWAP1 PUSH2 0x2BE SWAP2 SWAP1 PUSH2 0x1A1D JUMP JUMPDEST PUSH2 0xF95 JUMP JUMPDEST STOP JUMPDEST PUSH2 0x2DF PUSH1 0x4 DUP1 CALLDATASIZE SUB DUP2 ADD SWAP1 PUSH2 0x2DA SWAP2 SWAP1 PUSH2 0x1AA5 JUMP JUMPDEST PUSH2 0x10D3 JUMP JUMPDEST STOP JUMPDEST PUSH2 0x2FB PUSH1 0x4 DUP1 CALLDATASIZE SUB DUP2 ADD SWAP1 PUSH2 0x2F6 SWAP2 SWAP1 PUSH2 0x1AF8 JUMP JUMPDEST PUSH2 0x11AE JUMP JUMPDEST PUSH1 0x40 MLOAD PUSH2 0x308 SWAP2 SWAP1 PUSH2 0x171C JUMP JUMPDEST PUSH1 0x40 MLOAD DUP1 SWAP2 SUB SWAP1 RETURN JUMPDEST PUSH2 0x32B PUSH1 0x4 DUP1 CALLDATASIZE SUB DUP2 ADD SWAP1 PUSH2 0x326 SWAP2 SWAP1 PUSH2 0x1AA5 JUMP JUMPDEST PUSH2 0x11DD JUMP JUMPDEST STOP JUMPDEST PUSH1 0x0 PUSH32 0x80AC58CD00000000000000000000000000000000000000000000000000000000 PUSH28 0xFFFFFFFFFFFFFFFFFFFFFFFFFFFFFFFFFFFFFFFFFFFFFFFFFFFFFFFF NOT AND DUP3 PUSH28 0xFFFFFFFFFFFFFFFFFFFFFFFFFFFFFFFFFFFFFFFFFFFFFFFFFFFFFFFF NOT AND EQ DUP1 PUSH2 0x3F8 JUMPI POP PUSH32 0x1FFC9A700000000000000000000000000000000000000000000000000000000 PUSH28 0xFFFFFFFFFFFFFFFFFFFFFFFFFFFFFFFFFFFFFFFFFFFFFFFFFFFFFFFF NOT AND DUP3 PUSH28 0xFFFFFFFFFFFFFFFFFFFFFFFFFFFFFFFFFFFFFFFFFFFFFFFFFFFFFFFF NOT AND EQ JUMPDEST SWAP1 POP SWAP2 SWAP1 POP JUMP JUMPDEST PUSH1 0x0 DUP1 PUSH20 0xFFFFFFFFFFFFFFFFFFFFFFFFFFFFFFFFFFFFFFFF AND PUSH1 0x0 DUP1 DUP5 DUP2 MSTORE PUSH1 0x20 ADD SWAP1 DUP2 MSTORE PUSH1 0x20 ADD PUSH1 0x0 KECCAK256 PUSH1 0x0 SWAP1 SLOAD SWAP1 PUSH2 0x100 EXP SWAP1 DIV PUSH20 0xFFFFFFFFFFFFFFFFFFFFFFFFFFFFFFFFFFFFFFFF AND PUSH20 0xFFFFFFFFFFFFFFFFFFFFFFFFFFFFFFFFFFFFFFFF AND SUB PUSH2 0x4A1 JUMPI PUSH1 0x40 MLOAD PUSH32 0x8C379A000000000000000000000000000000000000000000000000000000000 DUP2 MSTORE PUSH1 0x4 ADD PUSH2 0x498 SWAP1 PUSH2 0x1B95 JUMP JUMPDEST PUSH1 0x40 MLOAD DUP1 SWAP2 SUB SWAP1 REVERT JUMPDEST PUSH1 0x2 PUSH1 0x0 DUP4 DUP2 MSTORE PUSH1 0x20 ADD SWAP1 DUP2 MSTORE PUSH1 0x20 ADD PUSH1 0x0 KECCAK256 PUSH1 0x0 SWAP1 SLOAD SWAP1 PUSH2 0x100 EXP SWAP1 DIV PUSH20 0xFFFFFFFFFFFFFFFFFFFFFFFFFFFFFFFFFFFFFFFF AND SWAP1 POP SWAP2 SWAP1 POP JUMP JUMPDEST PUSH1 0x0 DUP1 PUSH1 0x0 DUP4 DUP2 MSTORE PUSH1 0x20 ADD SWAP1 DUP2 MSTORE PUSH1 0x20 ADD PUSH1 0x0 KECCAK256 PUSH1 0x0 SWAP1 SLOAD SWAP1 PUSH2 0x100 EXP SWAP1 DIV PUSH20 0xFFFFFFFFFFFFFFFFFFFFFFFFFFFFFFFFFFFFFFFF AND SWAP1 POP DUP1 PUSH20 0xFFFFFFFFFFFFFFFFFFFFFFFFFFFFFFFFFFFFFFFF AND CALLER PUSH20 0xFFFFFFFFFFFFFFFFFFFFFFFFFFFFFFFFFFFFFFFF AND EQ DUP1 PUSH2 0x5D3 JUMPI POP PUSH1 0x3 PUSH1 0x0 DUP3 PUSH20 0xFFFFFFFFFFFFFFFFFFFFFFFFFFFFFFFFFFFFFFFF AND PUSH20 0xFFFFFFFFFFFFFFFFFFFFFFFFFFFFFFFFFFFFFFFF AND DUP2 MSTORE PUSH1 0x20 ADD SWAP1 DUP2 MSTORE PUSH1 0x20 ADD PUSH1 0x0 KECCAK256 PUSH1 0x0 CALLER PUSH20 0xFFFFFFFFFFFFFFFFFFFFFFFFFFFFFFFFFFFFFFFF AND PUSH20 0xFFFFFFFFFFFFFFFFFFFFFFFFFFFFFFFFFFFFFFFF AND DUP2 MSTORE PUSH1 0x20 ADD SWAP1 DUP2 MSTORE PUSH1 0x20 ADD PUSH1 0x0 KECCAK256 PUSH1 0x0 SWAP1 SLOAD SWAP1 PUSH2 0x100 EXP SWAP1 DIV PUSH1 0xFF AND JUMPDEST PUSH2 0x612 JUMPI PUSH1 0x40 MLOAD PUSH32 0x8C379A000000000000000000000000000000000000000000000000000000000 DUP2 MSTORE PUSH1 0x4 ADD PUSH2 0x609 SWAP1 PUSH2 0x1C01 JUMP JUMPDEST PUSH1 0x40 MLOAD DUP1 SWAP2 SUB SWAP1 REVERT JUMPDEST DUP3 PUSH1 0x2 PUSH1 0x0 DUP5 DUP2 MSTORE PUSH1 0x20 ADD SWAP1 DUP2 MSTORE PUSH1 0x20 ADD PUSH1 0x0 KECCAK256 PUSH1 0x0 PUSH2 0x100 EXP DUP2 SLOAD DUP2 PUSH20 0xFFFFFFFFFFFFFFFFFFFFFFFFFFFFFFFFFFFFFFFF MUL NOT AND SWAP1 DUP4 PUSH20 0xFFFFFFFFFFFFFFFFFFFFFFFFFFFFFFFFFFFFFFFF AND MUL OR SWAP1 SSTORE POP DUP2 DUP4 PUSH20 0xFFFFFFFFFFFFFFFFFFFFFFFFFFFFFFFFFFFFFFFF AND DUP3 PUSH20 0xFFFFFFFFFFFFFFFFFFFFFFFFFFFFFFFFFFFFFFFF AND PUSH32 0x8C5BE1E5EBEC7D5BD14F71427D1E84F3DD0314C0F7B2291E5B200AC8C7C3B925 PUSH1 0x40 MLOAD PUSH1 0x40 MLOAD DUP1 SWAP2 SUB SWAP1 LOG4 POP POP POP JUMP JUMPDEST PUSH1 0x4 PUSH1 0x0 SWAP1 SLOAD SWAP1 PUSH2 0x100 EXP SWAP1 DIV PUSH20 0xFFFFFFFFFFFFFFFFFFFFFFFFFFFFFFFFFFFFFFFF AND PUSH20 0xFFFFFFFFFFFFFFFFFFFFFFFFFFFFFFFFFFFFFFFF AND CALLER PUSH20 0xFFFFFFFFFFFFFFFFFFFFFFFFFFFFFFFFFFFFFFFF AND EQ PUSH2 0x754 JUMPI PUSH1 0x40 MLOAD PUSH32 0x8C379A000000000000000000000000000000000000000000000000000000000 DUP2 MSTORE PUSH1 0x4 ADD PUSH2 0x74B SWAP1 PUSH2 0x1C6D JUMP JUMPDEST PUSH1 0x40 MLOAD DUP1 SWAP2 SUB SWAP1 REVERT JUMPDEST PUSH2 0x760 CALLER PUSH1 0x5 SLOAD PUSH2 0x1328 JUMP JUMPDEST PUSH1 0x1 PUSH1 0x5 PUSH1 0x0 DUP3 DUP3 SLOAD PUSH2 0x773 SWAP2 SWAP1 PUSH2 0x1CBC JUMP JUMPDEST SWAP3 POP POP DUP2 SWAP1 SSTORE POP JUMP JUMPDEST PUSH1 0x0 PUSH1 0x6 PUSH1 0x0 DUP5 DUP2 MSTORE PUSH1 0x20 ADD SWAP1 DUP2 MSTORE PUSH1 0x20 ADD PUSH1 0x0 KECCAK256 PUSH1 0x0 DUP4 PUSH20 0xFFFFFFFFFFFFFFFFFFFFFFFFFFFFFFFFFFFFFFFF AND PUSH20 0xFFFFFFFFFFFFFFFFFFFFFFFFFFFFFFFFFFFFFFFF AND DUP2 MSTORE PUSH1 0x20 ADD SWAP1 DUP2 MSTORE PUSH1 0x20 ADD PUSH1 0x0 KECCAK256 SLOAD SWAP1 POP SWAP3 SWAP2 POP POP JUMP JUMPDEST PUSH1 0x0 DUP1 DUP3 DUP2 MSTORE PUSH1 0x20 ADD SWAP1 DUP2 MSTORE PUSH1 0x20 ADD PUSH1 0x0 KECCAK256 PUSH1 0x0 SWAP1 SLOAD SWAP1 PUSH2 0x100 EXP SWAP1 DIV PUSH20 0xFFFFFFFFFFFFFFFFFFFFFFFFFFFFFFFFFFFFFFFF AND PUSH20 0xFFFFFFFFFFFFFFFFFFFFFFFFFFFFFFFFFFFFFFFF AND DUP4 PUSH20 0xFFFFFFFFFFFFFFFFFFFFFFFFFFFFFFFFFFFFFFFF AND EQ PUSH2 0x877 JUMPI PUSH1 0x40 MLOAD PUSH32 0x8C379A000000000000000000000000000000000000000000000000000000000 DUP2 MSTORE PUSH1 0x4 ADD PUSH2 0x86E SWAP1 PUSH2 0x1D3C JUMP JUMPDEST PUSH1 0x40 MLOAD DUP1 SWAP2 SUB SWAP1 REVERT JUMPDEST PUSH1 0x0 PUSH20 0xFFFFFFFFFFFFFFFFFFFFFFFFFFFFFFFFFFFFFFFF AND DUP3 PUSH20 0xFFFFFFFFFFFFFFFFFFFFFFFFFFFFFFFFFFFFFFFF AND SUB PUSH2 0x8E6 JUMPI PUSH1 0x40 MLOAD PUSH32 0x8C379A000000000000000000000000000000000000000000000000000000000 DUP2 MSTORE PUSH1 0x4 ADD PUSH2 0x8DD SWAP1 PUSH2 0x1DA8 JUMP JUMPDEST PUSH1 0x40 MLOAD DUP1 SWAP2 SUB SWAP1 REVERT JUMPDEST PUSH2 0x8F1 DUP4 CALLER DUP4 PUSH2 0x153E JUMP JUMPDEST PUSH2 0x930 JUMPI PUSH1 0x40 MLOAD PUSH32 0x8C379A000000000000000000000000000000000000000000000000000000000 DUP2 MSTORE PUSH1 0x4 ADD PUSH2 0x927 SWAP1 PUSH2 0x1C01 JUMP JUMPDEST PUSH1 0x40 MLOAD DUP1 SWAP2 SUB SWAP1 REVERT JUMPDEST PUSH1 0x1 PUSH1 0x0 DUP5 PUSH20 0xFFFFFFFFFFFFFFFFFFFFFFFFFFFFFFFFFFFFFFFF AND PUSH20 0xFFFFFFFFFFFFFFFFFFFFFFFFFFFFFFFFFFFFFFFF AND DUP2 MSTORE PUSH1 0x20 ADD SWAP1 DUP2 MSTORE PUSH1 0x20 ADD PUSH1 0x0 KECCAK256 PUSH1 0x0 DUP2 SLOAD DUP1 SWAP3 SWAP2 SWAP1 PUSH2 0x980 SWAP1 PUSH2 0x1DC8 JUMP JUMPDEST SWAP2 SWAP1 POP SSTORE POP PUSH1 0x1 PUSH1 0x0 DUP4 PUSH20 0xFFFFFFFFFFFFFFFFFFFFFFFFFFFFFFFFFFFFFFFF AND PUSH20 0xFFFFFFFFFFFFFFFFFFFFFFFFFFFFFFFFFFFFFFFF AND DUP2 MSTORE PUSH1 0x20 ADD SWAP1 DUP2 MSTORE PUSH1 0x20 ADD PUSH1 0x0 KECCAK256 PUSH1 0x0 DUP2 SLOAD DUP1 SWAP3 SWAP2 SWAP1 PUSH2 0x9D5 SWAP1 PUSH2 0x1DF1 JUMP JUMPDEST SWAP2 SWAP1 POP SSTORE POP DUP2 PUSH1 0x0 DUP1 DUP4 DUP2 MSTORE PUSH1 0x20 ADD SWAP1 DUP2 MSTORE PUSH1 0x20 ADD PUSH1 0x0 KECCAK256 PUSH1 0x0 PUSH2 0x100 EXP DUP2 SLOAD DUP2 PUSH20 0xFFFFFFFFFFFFFFFFFFFFFFFFFFFFFFFFFFFFFFFF MUL NOT AND SWAP1 DUP4 PUSH20 0xFFFFFFFFFFFFFFFFFFFFFFFFFFFFFFFFFFFFFFFF AND MUL OR SWAP1 SSTORE POP PUSH1 0x2 PUSH1 0x0 DUP3 DUP2 MSTORE PUSH1 0x20 ADD SWAP1 DUP2 MSTORE PUSH1 0x20 ADD PUSH1 0x0 KECCAK256 PUSH1 0x0 PUSH2 0x100 EXP DUP2 SLOAD SWAP1 PUSH20 0xFFFFFFFFFFFFFFFFFFFFFFFFFFFFFFFFFFFFFFFF MUL NOT AND SWAP1 SSTORE DUP1 DUP3 PUSH20 0xFFFFFFFFFFFFFFFFFFFFFFFFFFFFFFFFFFFFFFFF AND DUP5 PUSH20 0xFFFFFFFFFFFFFFFFFFFFFFFFFFFFFFFFFFFFFFFF AND PUSH32 0xDDF252AD1BE2C89B69C2B068FC378DAA952BA7F163C4A11628F55A4DF523B3EF PUSH1 0x40 MLOAD PUSH1 0x40 MLOAD DUP1 SWAP2 SUB SWAP1 LOG4 POP POP POP JUMP JUMPDEST PUSH2 0xACC DUP4 DUP4 DUP4 PUSH2 0x7D7 JUMP JUMPDEST PUSH1 0x0 DUP3 PUSH20 0xFFFFFFFFFFFFFFFFFFFFFFFFFFFFFFFFFFFFFFFF AND EXTCODESIZE EQ DUP1 PUSH2 0xBB5 JUMPI POP PUSH4 0x150B7A02 PUSH1 0xE0 SHL PUSH28 0xFFFFFFFFFFFFFFFFFFFFFFFFFFFFFFFFFFFFFFFFFFFFFFFFFFFFFFFF NOT AND DUP3 PUSH20 0xFFFFFFFFFFFFFFFFFFFFFFFFFFFFFFFFFFFFFFFF AND PUSH4 0x150B7A02 CALLER DUP7 DUP6 PUSH1 0x40 MLOAD DUP5 PUSH4 0xFFFFFFFF AND PUSH1 0xE0 SHL DUP2 MSTORE PUSH1 0x4 ADD PUSH2 0xB51 SWAP4 SWAP3 SWAP2 SWAP1 PUSH2 0x1E70 JUMP JUMPDEST PUSH1 0x20 PUSH1 0x40 MLOAD DUP1 DUP4 SUB DUP2 PUSH1 0x0 DUP8 GAS CALL ISZERO DUP1 ISZERO PUSH2 0xB70 JUMPI RETURNDATASIZE PUSH1 0x0 DUP1 RETURNDATACOPY RETURNDATASIZE PUSH1 0x0 REVERT JUMPDEST POP POP POP POP PUSH1 0x40 MLOAD RETURNDATASIZE PUSH1 0x1F NOT PUSH1 0x1F DUP3 ADD AND DUP3 ADD DUP1 PUSH1 0x40 MSTORE POP DUP2 ADD SWAP1 PUSH2 0xB94 SWAP2 SWAP1 PUSH2 0x1ECF JUMP JUMPDEST PUSH28 0xFFFFFFFFFFFFFFFFFFFFFFFFFFFFFFFFFFFFFFFFFFFFFFFFFFFFFFFF NOT AND EQ JUMPDEST PUSH2 0xBF4 JUMPI PUSH1 0x40 MLOAD PUSH32 0x8C379A000000000000000000000000000000000000000000000000000000000 DUP2 MSTORE PUSH1 0x4 ADD PUSH2 0xBEB SWAP1 PUSH2 0x1F48 JUMP JUMPDEST PUSH1 0x40 MLOAD DUP1 SWAP2 SUB SWAP1 REVERT JUMPDEST POP POP POP JUMP JUMPDEST PUSH1 0x0 DUP1 PUSH1 0x0 DUP4 DUP2 MSTORE PUSH1 0x20 ADD SWAP1 DUP2 MSTORE PUSH1 0x20 ADD PUSH1 0x0 KECCAK256 PUSH1 0x0 SWAP1 SLOAD SWAP1 PUSH2 0x100 EXP SWAP1 DIV PUSH20 0xFFFFFFFFFFFFFFFFFFFFFFFFFFFFFFFFFFFFFFFF AND SWAP1 POP PUSH1 0x0 PUSH20 0xFFFFFFFFFFFFFFFFFFFFFFFFFFFFFFFFFFFFFFFF AND DUP2 PUSH20 0xFFFFFFFFFFFFFFFFFFFFFFFFFFFFFFFFFFFFFFFF AND SUB PUSH2 0xC9F JUMPI PUSH1 0x40 MLOAD PUSH32 0x8C379A000000000000000000000000000000000000000000000000000000000 DUP2 MSTORE PUSH1 0x4 ADD PUSH2 0xC96 SWAP1 PUSH2 0x1B95 JUMP JUMPDEST PUSH1 0x40 MLOAD DUP1 SWAP2 SUB SWAP1 REVERT JUMPDEST SWAP2 SWAP1 POP JUMP JUMPDEST PUSH1 0x0 DUP1 PUSH20 0xFFFFFFFFFFFFFFFFFFFFFFFFFFFFFFFFFFFFFFFF AND DUP3 PUSH20 0xFFFFFFFFFFFFFFFFFFFFFFFFFFFFFFFFFFFFFFFF AND SUB PUSH2 0xD14 JUMPI PUSH1 0x40 MLOAD PUSH32 0x8C379A000000000000000000000000000000000000000000000000000000000 DUP2 MSTORE PUSH1 0x4 ADD PUSH2 0xD0B SWAP1 PUSH2 0x1FB4 JUMP JUMPDEST PUSH1 0x40 MLOAD DUP1 SWAP2 SUB SWAP1 REVERT JUMPDEST PUSH1 0x1 PUSH1 0x0 DUP4 PUSH20 0xFFFFFFFFFFFFFFFFFFFFFFFFFFFFFFFFFFFFFFFF AND PUSH20 0xFFFFFFFFFFFFFFFFFFFFFFFFFFFFFFFFFFFFFFFF AND DUP2 MSTORE PUSH1 0x20 ADD SWAP1 DUP2 MSTORE PUSH1 0x20 ADD PUSH1 0x0 KECCAK256 SLOAD SWAP1 POP SWAP2 SWAP1 POP JUMP JUMPDEST PUSH1 0x4 PUSH1 0x0 SWAP1 SLOAD SWAP1 PUSH2 0x100 EXP SWAP1 DIV PUSH20 0xFFFFFFFFFFFFFFFFFFFFFFFFFFFFFFFFFFFFFFFF AND PUSH20 0xFFFFFFFFFFFFFFFFFFFFFFFFFFFFFFFFFFFFFFFF AND CALLER PUSH20 0xFFFFFFFFFFFFFFFFFFFFFFFFFFFFFFFFFFFFFFFF AND EQ PUSH2 0xDEB JUMPI PUSH1 0x40 MLOAD PUSH32 0x8C379A000000000000000000000000000000000000000000000000000000000 DUP2 MSTORE PUSH1 0x4 ADD PUSH2 0xDE2 SWAP1 PUSH2 0x1C6D JUMP JUMPDEST PUSH1 0x40 MLOAD DUP1 SWAP2 SUB SWAP1 REVERT JUMPDEST DUP1 PUSH1 0x4 PUSH1 0x0 PUSH2 0x100 EXP DUP2 SLOAD DUP2 PUSH20 0xFFFFFFFFFFFFFFFFFFFFFFFFFFFFFFFFFFFFFFFF MUL NOT AND SWAP1 DUP4 PUSH20 0xFFFFFFFFFFFFFFFFFFFFFFFFFFFFFFFFFFFFFFFF AND MUL OR SWAP1 SSTORE POP DUP1 PUSH20 0xFFFFFFFFFFFFFFFFFFFFFFFFFFFFFFFFFFFFFFFF AND PUSH32 0x84022644CE39DE434E8F39C4398A3628815893104188274C37205D41C2D50967 PUSH1 0x40 MLOAD PUSH1 0x40 MLOAD DUP1 SWAP2 SUB SWAP1 LOG2 POP JUMP JUMPDEST PUSH1 0x4 PUSH1 0x0 SWAP1 SLOAD SWAP1 PUSH2 0x100 EXP SWAP1 DIV PUSH20 0xFFFFFFFFFFFFFFFFFFFFFFFFFFFFFFFFFFFFFFFF AND DUP2 JUMP JUMPDEST DUP1 PUSH1 0x3 PUSH1 0x0 CALLER PUSH20 0xFFFFFFFFFFFFFFFFFFFFFFFFFFFFFFFFFFFFFFFF AND PUSH20 0xFFFFFFFFFFFFFFFFFFFFFFFFFFFFFFFFFFFFFFFF AND DUP2 MSTORE PUSH1 0x20 ADD SWAP1 DUP2 MSTORE PUSH1 0x20 ADD PUSH1 0x0 KECCAK256 PUSH1 0x0 DUP5 PUSH20 0xFFFFFFFFFFFFFFFFFFFFFFFFFFFFFFFFFFFFFFFF AND PUSH20 0xFFFFFFFFFFFFFFFFFFFFFFFFFFFFFFFFFFFFFFFF AND DUP2 MSTORE PUSH1 0x20 ADD SWAP1 DUP2 MSTORE PUSH1 0x20 ADD PUSH1 0x0 KECCAK256 PUSH1 0x0 PUSH2 0x100 EXP DUP2 SLOAD DUP2 PUSH1 0xFF MUL NOT AND SWAP1 DUP4 ISZERO ISZERO MUL OR SWAP1 SSTORE POP DUP2 PUSH20 0xFFFFFFFFFFFFFFFFFFFFFFFFFFFFFFFFFFFFFFFF AND CALLER PUSH20 0xFFFFFFFFFFFFFFFFFFFFFFFFFFFFFFFFFFFFFFFF AND PUSH32 0x17307EAB39AB6107E8899845AD3D59BD9653F200F220920489CA2B5937696C31 DUP4 PUSH1 0x40 MLOAD PUSH2 0xF89 SWAP2 SWAP1 PUSH2 0x171C JUMP JUMPDEST PUSH1 0x40 MLOAD DUP1 SWAP2 SUB SWAP1 LOG3 POP POP JUMP JUMPDEST PUSH2 0xFA0 DUP6 DUP6 DUP6 PUSH2 0x7D7 JUMP JUMPDEST PUSH1 0x0 DUP5 PUSH20 0xFFFFFFFFFFFFFFFFFFFFFFFFFFFFFFFFFFFFFFFF AND EXTCODESIZE EQ DUP1 PUSH2 0x108D JUMPI POP PUSH4 0x150B7A02 PUSH1 0xE0 SHL PUSH28 0xFFFFFFFFFFFFFFFFFFFFFFFFFFFFFFFFFFFFFFFFFFFFFFFFFFFFFFFF NOT AND DUP5 PUSH20 0xFFFFFFFFFFFFFFFFFFFFFFFFFFFFFFFFFFFFFFFF AND PUSH4 0x150B7A02 CALLER DUP9 DUP8 DUP8 DUP8 PUSH1 0x40 MLOAD DUP7 PUSH4 0xFFFFFFFF AND PUSH1 0xE0 SHL DUP2 MSTORE PUSH1 0x4 ADD PUSH2 0x1029 SWAP6 SWAP5 SWAP4 SWAP3 SWAP2 SWAP1 PUSH2 0x2021 JUMP JUMPDEST PUSH1 0x20 PUSH1 0x40 MLOAD DUP1 DUP4 SUB DUP2 PUSH1 0x0 DUP8 GAS CALL ISZERO DUP1 ISZERO PUSH2 0x1048 JUMPI RETURNDATASIZE PUSH1 0x0 DUP1 RETURNDATACOPY RETURNDATASIZE PUSH1 0x0 REVERT JUMPDEST POP POP POP POP PUSH1 0x40 MLOAD RETURNDATASIZE PUSH1 0x1F NOT PUSH1 0x1F DUP3 ADD AND DUP3 ADD DUP1 PUSH1 0x40 MSTORE POP DUP2 ADD SWAP1 PUSH2 0x106C SWAP2 SWAP1 PUSH2 0x1ECF JUMP JUMPDEST PUSH28 0xFFFFFFFFFFFFFFFFFFFFFFFFFFFFFFFFFFFFFFFFFFFFFFFFFFFFFFFF NOT AND EQ JUMPDEST PUSH2 0x10CC JUMPI PUSH1 0x40 MLOAD PUSH32 0x8C379A000000000000000000000000000000000000000000000000000000000 DUP2 MSTORE PUSH1 0x4 ADD PUSH2 0x10C3 SWAP1 PUSH2 0x1F48 JUMP JUMPDEST PUSH1 0x40 MLOAD DUP1 SWAP2 SUB SWAP1 REVERT JUMPDEST POP POP POP POP POP JUMP JUMPDEST DUP2 PUSH20 0xFFFFFFFFFFFFFFFFFFFFFFFFFFFFFFFFFFFFFFFF AND PUSH4 0x23B872DD CALLER ADDRESS DUP5 PUSH1 0x40 MLOAD DUP5 PUSH4 0xFFFFFFFF AND PUSH1 0xE0 SHL DUP2 MSTORE PUSH1 0x4 ADD PUSH2 0x1110 SWAP4 SWAP3 SWAP2 SWAP1 PUSH2 0x206F JUMP JUMPDEST PUSH1 0x20 PUSH1 0x40 MLOAD DUP1 DUP4 SUB DUP2 PUSH1 0x0 DUP8 GAS CALL ISZERO DUP1 ISZERO PUSH2 0x112F JUMPI RETURNDATASIZE PUSH1 0x0 DUP1 RETURNDATACOPY RETURNDATASIZE PUSH1 0x0 REVERT JUMPDEST POP POP POP POP PUSH1 0x40 MLOAD RETURNDATASIZE PUSH1 0x1F NOT PUSH1 0x1F DUP3 ADD AND DUP3 ADD DUP1 PUSH1 0x40 MSTORE POP DUP2 ADD SWAP1 PUSH2 0x1153 SWAP2 SWAP1 PUSH2 0x20BB JUMP JUMPDEST POP DUP1 PUSH1 0x6 PUSH1 0x0 DUP6 DUP2 MSTORE PUSH1 0x20 ADD SWAP1 DUP2 MSTORE PUSH1 0x20 ADD PUSH1 0x0 KECCAK256 PUSH1 0x0 DUP5 PUSH20 0xFFFFFFFFFFFFFFFFFFFFFFFFFFFFFFFFFFFFFFFF AND PUSH20 0xFFFFFFFFFFFFFFFFFFFFFFFFFFFFFFFFFFFFFFFF AND DUP2 MSTORE PUSH1 0x20 ADD SWAP1 DUP2 MSTORE PUSH1 0x20 ADD PUSH1 0x0 KECCAK256 DUP2 SWAP1 SSTORE POP POP POP POP JUMP JUMPDEST PUSH1 0x3 PUSH1 0x20 MSTORE DUP2 PUSH1 0x0 MSTORE PUSH1 0x40 PUSH1 0x0 KECCAK256 PUSH1 0x20 MSTORE DUP1 PUSH1 0x0 MSTORE PUSH1 0x40 PUSH1 0x0 KECCAK256 PUSH1 0x0 SWAP2 POP SWAP2 POP SWAP1 SLOAD SWAP1 PUSH2 0x100 EXP SWAP1 DIV PUSH1 0xFF AND DUP2 JUMP JUMPDEST PUSH1 0x0 DUP1 DUP5 DUP2 MSTORE PUSH1 0x20 ADD SWAP1 DUP2 MSTORE PUSH1 0x20 ADD PUSH1 0x0 KECCAK256 PUSH1 0x0 SWAP1 SLOAD SWAP1 PUSH2 0x100 EXP SWAP1 DIV PUSH20 0xFFFFFFFFFFFFFFFFFFFFFFFFFFFFFFFFFFFFFFFF AND PUSH20 0xFFFFFFFFFFFFFFFFFFFFFFFFFFFFFFFFFFFFFFFF AND CALLER PUSH20 0xFFFFFFFFFFFFFFFFFFFFFFFFFFFFFFFFFFFFFFFF AND EQ PUSH2 0x1247 JUMPI PUSH1 0x0 DUP1 REVERT JUMPDEST DUP1 PUSH1 0x6 PUSH1 0x0 DUP6 DUP2 MSTORE PUSH1 0x20 ADD SWAP1 DUP2 MSTORE PUSH1 0x20 ADD PUSH1 0x0 KECCAK256 PUSH1 0x0 DUP5 PUSH20 0xFFFFFFFFFFFFFFFFFFFFFFFFFFFFFFFFFFFFFFFF AND PUSH20 0xFFFFFFFFFFFFFFFFFFFFFFFFFFFFFFFFFFFFFFFF AND DUP2 MSTORE PUSH1 0x20 ADD SWAP1 DUP2 MSTORE PUSH1 0x20 ADD PUSH1 0x0 KECCAK256 SLOAD LT ISZERO PUSH2 0x12A4 JUMPI PUSH1 0x0 DUP1 REVERT JUMPDEST DUP2 PUSH20 0xFFFFFFFFFFFFFFFFFFFFFFFFFFFFFFFFFFFFFFFF AND PUSH4 0xA9059CBB CALLER DUP4 PUSH1 0x40 MLOAD DUP4 PUSH4 0xFFFFFFFF AND PUSH1 0xE0 SHL DUP2 MSTORE PUSH1 0x4 ADD PUSH2 0x12DF SWAP3 SWAP2 SWAP1 PUSH2 0x20E8 JUMP JUMPDEST PUSH1 0x20 PUSH1 0x40 MLOAD DUP1 DUP4 SUB DUP2 PUSH1 0x0 DUP8 GAS CALL ISZERO DUP1 ISZERO PUSH2 0x12FE JUMPI RETURNDATASIZE PUSH1 0x0 DUP1 RETURNDATACOPY RETURNDATASIZE PUSH1 0x0 REVERT JUMPDEST POP POP POP POP PUSH1 0x40 MLOAD RETURNDATASIZE PUSH1 0x1F NOT PUSH1 0x1F DUP3 ADD AND DUP3 ADD DUP1 PUSH1 0x40 MSTORE POP DUP2 ADD SWAP1 PUSH2 0x1322 SWAP2 SWAP1 PUSH2 0x20BB JUMP JUMPDEST POP POP POP POP JUMP JUMPDEST PUSH1 0x0 PUSH20 0xFFFFFFFFFFFFFFFFFFFFFFFFFFFFFFFFFFFFFFFF AND DUP3 PUSH20 0xFFFFFFFFFFFFFFFFFFFFFFFFFFFFFFFFFFFFFFFF AND SUB PUSH2 0x1397 JUMPI PUSH1 0x40 MLOAD PUSH32 0x8C379A000000000000000000000000000000000000000000000000000000000 DUP2 MSTORE PUSH1 0x4 ADD PUSH2 0x138E SWAP1 PUSH2 0x215D JUMP JUMPDEST PUSH1 0x40 MLOAD DUP1 SWAP2 SUB SWAP1 REVERT JUMPDEST PUSH1 0x0 PUSH20 0xFFFFFFFFFFFFFFFFFFFFFFFFFFFFFFFFFFFFFFFF AND PUSH1 0x0 DUP1 DUP4 DUP2 MSTORE PUSH1 0x20 ADD SWAP1 DUP2 MSTORE PUSH1 0x20 ADD PUSH1 0x0 KECCAK256 PUSH1 0x0 SWAP1 SLOAD SWAP1 PUSH2 0x100 EXP SWAP1 DIV PUSH20 0xFFFFFFFFFFFFFFFFFFFFFFFFFFFFFFFFFFFFFFFF AND PUSH20 0xFFFFFFFFFFFFFFFFFFFFFFFFFFFFFFFFFFFFFFFF AND EQ PUSH2 0x1438 JUMPI PUSH1 0x40 MLOAD PUSH32 0x8C379A000000000000000000000000000000000000000000000000000000000 DUP2 MSTORE PUSH1 0x4 ADD PUSH2 0x142F SWAP1 PUSH2 0x21C9 JUMP JUMPDEST PUSH1 0x40 MLOAD DUP1 SWAP2 SUB SWAP1 REVERT JUMPDEST PUSH1 0x1 PUSH1 0x0 DUP4 PUSH20 0xFFFFFFFFFFFFFFFFFFFFFFFFFFFFFFFFFFFFFFFF AND PUSH20 0xFFFFFFFFFFFFFFFFFFFFFFFFFFFFFFFFFFFFFFFF AND DUP2 MSTORE PUSH1 0x20 ADD SWAP1 DUP2 MSTORE PUSH1 0x20 ADD PUSH1 0x0 KECCAK256 PUSH1 0x0 DUP2 SLOAD DUP1 SWAP3 SWAP2 SWAP1 PUSH2 0x1488 SWAP1 PUSH2 0x1DF1 JUMP JUMPDEST SWAP2 SWAP1 POP SSTORE POP DUP2 PUSH1 0x0 DUP1 DUP4 DUP2 MSTORE PUSH1 0x20 ADD SWAP1 DUP2 MSTORE PUSH1 0x20 ADD PUSH1 0x0 KECCAK256 PUSH1 0x0 PUSH2 0x100 EXP DUP2 SLOAD DUP2 PUSH20 0xFFFFFFFFFFFFFFFFFFFFFFFFFFFFFFFFFFFFFFFF MUL NOT AND SWAP1 DUP4 PUSH20 0xFFFFFFFFFFFFFFFFFFFFFFFFFFFFFFFFFFFFFFFF AND MUL OR SWAP1 SSTORE POP DUP1 DUP3 PUSH20 0xFFFFFFFFFFFFFFFFFFFFFFFFFFFFFFFFFFFFFFFF AND PUSH1 0x0 PUSH20 0xFFFFFFFFFFFFFFFFFFFFFFFFFFFFFFFFFFFFFFFF AND PUSH32 0xDDF252AD1BE2C89B69C2B068FC378DAA952BA7F163C4A11628F55A4DF523B3EF PUSH1 0x40 MLOAD PUSH1 0x40 MLOAD DUP1 SWAP2 SUB SWAP1 LOG4 POP POP JUMP JUMPDEST PUSH1 0x0 DUP4 PUSH20 0xFFFFFFFFFFFFFFFFFFFFFFFFFFFFFFFFFFFFFFFF AND DUP4 PUSH20 0xFFFFFFFFFFFFFFFFFFFFFFFFFFFFFFFFFFFFFFFF AND EQ DUP1 PUSH2 0x1600 JUMPI POP PUSH1 0x3 PUSH1 0x0 DUP6 PUSH20 0xFFFFFFFFFFFFFFFFFFFFFFFFFFFFFFFFFFFFFFFF AND PUSH20 0xFFFFFFFFFFFFFFFFFFFFFFFFFFFFFFFFFFFFFFFF AND DUP2 MSTORE PUSH1 0x20 ADD SWAP1 DUP2 MSTORE PUSH1 0x20 ADD PUSH1 0x0 KECCAK256 PUSH1 0x0 DUP5 PUSH20 0xFFFFFFFFFFFFFFFFFFFFFFFFFFFFFFFFFFFFFFFF AND PUSH20 0xFFFFFFFFFFFFFFFFFFFFFFFFFFFFFFFFFFFFFFFF AND DUP2 MSTORE PUSH1 0x20 ADD SWAP1 DUP2 MSTORE PUSH1 0x20 ADD PUSH1 0x0 KECCAK256 PUSH1 0x0 SWAP1 SLOAD SWAP1 PUSH2 0x100 EXP SWAP1 DIV PUSH1 0xFF AND JUMPDEST DUP1 PUSH2 0x1669 JUMPI POP PUSH1 0x2 PUSH1 0x0 DUP4 DUP2 MSTORE PUSH1 0x20 ADD SWAP1 DUP2 MSTORE PUSH1 0x20 ADD PUSH1 0x0 KECCAK256 PUSH1 0x0 SWAP1 SLOAD SWAP1 PUSH2 0x100 EXP SWAP1 DIV PUSH20 0xFFFFFFFFFFFFFFFFFFFFFFFFFFFFFFFFFFFFFFFF AND PUSH20 0xFFFFFFFFFFFFFFFFFFFFFFFFFFFFFFFFFFFFFFFF AND DUP4 PUSH20 0xFFFFFFFFFFFFFFFFFFFFFFFFFFFFFFFFFFFFFFFF AND EQ JUMPDEST SWAP1 POP SWAP4 SWAP3 POP POP POP JUMP JUMPDEST PUSH1 0x0 DUP1 REVERT JUMPDEST PUSH1 0x0 DUP1 REVERT JUMPDEST PUSH1 0x0 PUSH32 0xFFFFFFFF00000000000000000000000000000000000000000000000000000000 DUP3 AND SWAP1 POP SWAP2 SWAP1 POP JUMP JUMPDEST PUSH2 0x16B1 DUP2 PUSH2 0x167C JUMP JUMPDEST DUP2 EQ PUSH2 0x16BC JUMPI PUSH1 0x0 DUP1 REVERT JUMPDEST POP JUMP JUMPDEST PUSH1 0x0 DUP2 CALLDATALOAD SWAP1 POP PUSH2 0x16CE DUP2 PUSH2 0x16A8 JUMP JUMPDEST SWAP3 SWAP2 POP POP JUMP JUMPDEST PUSH1 0x0 PUSH1 0x20 DUP3 DUP5 SUB SLT ISZERO PUSH2 0x16EA JUMPI PUSH2 0x16E9 PUSH2 0x1672 JUMP JUMPDEST JUMPDEST PUSH1 0x0 PUSH2 0x16F8 DUP5 DUP3 DUP6 ADD PUSH2 0x16BF JUMP JUMPDEST SWAP2 POP POP SWAP3 SWAP2 POP POP JUMP JUMPDEST PUSH1 0x0 DUP2 ISZERO ISZERO SWAP1 POP SWAP2 SWAP1 POP JUMP JUMPDEST PUSH2 0x1716 DUP2 PUSH2 0x1701 JUMP JUMPDEST DUP3 MSTORE POP POP JUMP JUMPDEST PUSH1 0x0 PUSH1 0x20 DUP3 ADD SWAP1 POP PUSH2 0x1731 PUSH1 0x0 DUP4 ADD DUP5 PUSH2 0x170D JUMP JUMPDEST SWAP3 SWAP2 POP POP JUMP JUMPDEST PUSH1 0x0 DUP2 SWAP1 POP SWAP2 SWAP1 POP JUMP JUMPDEST PUSH2 0x174A DUP2 PUSH2 0x1737 JUMP JUMPDEST DUP2 EQ PUSH2 0x1755 JUMPI PUSH1 0x0 DUP1 REVERT JUMPDEST POP JUMP JUMPDEST PUSH1 0x0 DUP2 CALLDATALOAD SWAP1 POP PUSH2 0x1767 DUP2 PUSH2 0x1741 JUMP JUMPDEST SWAP3 SWAP2 POP POP JUMP JUMPDEST PUSH1 0x0 PUSH1 0x20 DUP3 DUP5 SUB SLT ISZERO PUSH2 0x1783 JUMPI PUSH2 0x1782 PUSH2 0x1672 JUMP JUMPDEST JUMPDEST PUSH1 0x0 PUSH2 0x1791 DUP5 DUP3 DUP6 ADD PUSH2 0x1758 JUMP JUMPDEST SWAP2 POP POP SWAP3 SWAP2 POP POP JUMP JUMPDEST PUSH1 0x0 PUSH20 0xFFFFFFFFFFFFFFFFFFFFFFFFFFFFFFFFFFFFFFFF DUP3 AND SWAP1 POP SWAP2 SWAP1 POP JUMP JUMPDEST PUSH1 0x0 PUSH2 0x17C5 DUP3 PUSH2 0x179A JUMP JUMPDEST SWAP1 POP SWAP2 SWAP1 POP JUMP JUMPDEST PUSH2 0x17D5 DUP2 PUSH2 0x17BA JUMP JUMPDEST DUP3 MSTORE POP POP JUMP JUMPDEST PUSH1 0x0 PUSH1 0x20 DUP3 ADD SWAP1 POP PUSH2 0x17F0 PUSH1 0x0 DUP4 ADD DUP5 PUSH2 0x17CC JUMP JUMPDEST SWAP3 SWAP2 POP POP JUMP JUMPDEST PUSH2 0x17FF DUP2 PUSH2 0x17BA JUMP JUMPDEST DUP2 EQ PUSH2 0x180A JUMPI PUSH1 0x0 DUP1 REVERT JUMPDEST POP JUMP JUMPDEST PUSH1 0x0 DUP2 CALLDATALOAD SWAP1 POP PUSH2 0x181C DUP2 PUSH2 0x17F6 JUMP JUMPDEST SWAP3 SWAP2 POP POP JUMP JUMPDEST PUSH1 0x0 DUP1 PUSH1 0x40 DUP4 DUP6 SUB SLT ISZERO PUSH2 0x1839 JUMPI PUSH2 0x1838 PUSH2 0x1672 JUMP JUMPDEST JUMPDEST PUSH1 0x0 PUSH2 0x1847 DUP6 DUP3 DUP7 ADD PUSH2 0x180D JUMP JUMPDEST SWAP3 POP POP PUSH1 0x20 PUSH2 0x1858 DUP6 DUP3 DUP7 ADD PUSH2 0x1758 JUMP JUMPDEST SWAP2 POP POP SWAP3 POP SWAP3 SWAP1 POP JUMP JUMPDEST PUSH1 0x0 DUP1 PUSH1 0x40 DUP4 DUP6 SUB SLT ISZERO PUSH2 0x1879 JUMPI PUSH2 0x1878 PUSH2 0x1672 JUMP JUMPDEST JUMPDEST PUSH1 0x0 PUSH2 0x1887 DUP6 DUP3 DUP7 ADD PUSH2 0x1758 JUMP JUMPDEST SWAP3 POP POP PUSH1 0x20 PUSH2 0x1898 DUP6 DUP3 DUP7 ADD PUSH2 0x180D JUMP JUMPDEST SWAP2 POP POP SWAP3 POP SWAP3 SWAP1 POP JUMP JUMPDEST PUSH2 0x18AB DUP2 PUSH2 0x1737 JUMP JUMPDEST DUP3 MSTORE POP POP JUMP JUMPDEST PUSH1 0x0 PUSH1 0x20 DUP3 ADD SWAP1 POP PUSH2 0x18C6 PUSH1 0x0 DUP4 ADD DUP5 PUSH2 0x18A2 JUMP JUMPDEST SWAP3 SWAP2 POP POP JUMP JUMPDEST PUSH1 0x0 DUP1 PUSH1 0x0 PUSH1 0x60 DUP5 DUP7 SUB SLT ISZERO PUSH2 0x18E5 JUMPI PUSH2 0x18E4 PUSH2 0x1672 JUMP JUMPDEST JUMPDEST PUSH1 0x0 PUSH2 0x18F3 DUP7 DUP3 DUP8 ADD PUSH2 0x180D JUMP JUMPDEST SWAP4 POP POP PUSH1 0x20 PUSH2 0x1904 DUP7 DUP3 DUP8 ADD PUSH2 0x180D JUMP JUMPDEST SWAP3 POP POP PUSH1 0x40 PUSH2 0x1915 DUP7 DUP3 DUP8 ADD PUSH2 0x1758 JUMP JUMPDEST SWAP2 POP POP SWAP3 POP SWAP3 POP SWAP3 JUMP JUMPDEST PUSH1 0x0 PUSH1 0x20 DUP3 DUP5 SUB SLT ISZERO PUSH2 0x1935 JUMPI PUSH2 0x1934 PUSH2 0x1672 JUMP JUMPDEST JUMPDEST PUSH1 0x0 PUSH2 0x1943 DUP5 DUP3 DUP6 ADD PUSH2 0x180D JUMP JUMPDEST SWAP2 POP POP SWAP3 SWAP2 POP POP JUMP JUMPDEST PUSH2 0x1955 DUP2 PUSH2 0x1701 JUMP JUMPDEST DUP2 EQ PUSH2 0x1960 JUMPI PUSH1 0x0 DUP1 REVERT JUMPDEST POP JUMP JUMPDEST PUSH1 0x0 DUP2 CALLDATALOAD SWAP1 POP PUSH2 0x1972 DUP2 PUSH2 0x194C JUMP JUMPDEST SWAP3 SWAP2 POP POP JUMP JUMPDEST PUSH1 0x0 DUP1 PUSH1 0x40 DUP4 DUP6 SUB SLT ISZERO PUSH2 0x198F JUMPI PUSH2 0x198E PUSH2 0x1672 JUMP JUMPDEST JUMPDEST PUSH1 0x0 PUSH2 0x199D DUP6 DUP3 DUP7 ADD PUSH2 0x180D JUMP JUMPDEST SWAP3 POP POP PUSH1 0x20 PUSH2 0x19AE DUP6 DUP3 DUP7 ADD PUSH2 0x1963 JUMP JUMPDEST SWAP2 POP POP SWAP3 POP SWAP3 SWAP1 POP JUMP JUMPDEST PUSH1 0x0 DUP1 REVERT JUMPDEST PUSH1 0x0 DUP1 REVERT JUMPDEST PUSH1 0x0 DUP1 REVERT JUMPDEST PUSH1 0x0 DUP1 DUP4 PUSH1 0x1F DUP5 ADD SLT PUSH2 0x19DD JUMPI PUSH2 0x19DC PUSH2 0x19B8 JUMP JUMPDEST JUMPDEST DUP3 CALLDATALOAD SWAP1 POP PUSH8 0xFFFFFFFFFFFFFFFF DUP2 GT ISZERO PUSH2 0x19FA JUMPI PUSH2 0x19F9 PUSH2 0x19BD JUMP JUMPDEST JUMPDEST PUSH1 0x20 DUP4 ADD SWAP2 POP DUP4 PUSH1 0x1 DUP3 MUL DUP4 ADD GT ISZERO PUSH2 0x1A16 JUMPI PUSH2 0x1A15 PUSH2 0x19C2 JUMP JUMPDEST JUMPDEST SWAP3 POP SWAP3 SWAP1 POP JUMP JUMPDEST PUSH1 0x0 DUP1 PUSH1 0x0 DUP1 PUSH1 0x0 PUSH1 0x80 DUP7 DUP9 SUB SLT ISZERO PUSH2 0x1A39 JUMPI PUSH2 0x1A38 PUSH2 0x1672 JUMP JUMPDEST JUMPDEST PUSH1 0x0 PUSH2 0x1A47 DUP9 DUP3 DUP10 ADD PUSH2 0x180D JUMP JUMPDEST SWAP6 POP POP PUSH1 0x20 PUSH2 0x1A58 DUP9 DUP3 DUP10 ADD PUSH2 0x180D JUMP JUMPDEST SWAP5 POP POP PUSH1 0x40 PUSH2 0x1A69 DUP9 DUP3 DUP10 ADD PUSH2 0x1758 JUMP JUMPDEST SWAP4 POP POP PUSH1 0x60 DUP7 ADD CALLDATALOAD PUSH8 0xFFFFFFFFFFFFFFFF DUP2 GT ISZERO PUSH2 0x1A8A JUMPI PUSH2 0x1A89 PUSH2 0x1677 JUMP JUMPDEST JUMPDEST PUSH2 0x1A96 DUP9 DUP3 DUP10 ADD PUSH2 0x19C7 JUMP JUMPDEST SWAP3 POP SWAP3 POP POP SWAP3 SWAP6 POP SWAP3 SWAP6 SWAP1 SWAP4 POP JUMP JUMPDEST PUSH1 0x0 DUP1 PUSH1 0x0 PUSH1 0x60 DUP5 DUP7 SUB SLT ISZERO PUSH2 0x1ABE JUMPI PUSH2 0x1ABD PUSH2 0x1672 JUMP JUMPDEST JUMPDEST PUSH1 0x0 PUSH2 0x1ACC DUP7 DUP3 DUP8 ADD PUSH2 0x1758 JUMP JUMPDEST SWAP4 POP POP PUSH1 0x20 PUSH2 0x1ADD DUP7 DUP3 DUP8 ADD PUSH2 0x180D JUMP JUMPDEST SWAP3 POP POP PUSH1 0x40 PUSH2 0x1AEE DUP7 DUP3 DUP8 ADD PUSH2 0x1758 JUMP JUMPDEST SWAP2 POP POP SWAP3 POP SWAP3 POP SWAP3 JUMP JUMPDEST PUSH1 0x0 DUP1 PUSH1 0x40 DUP4 DUP6 SUB SLT ISZERO PUSH2 0x1B0F JUMPI PUSH2 0x1B0E PUSH2 0x1672 JUMP JUMPDEST JUMPDEST PUSH1 0x0 PUSH2 0x1B1D DUP6 DUP3 DUP7 ADD PUSH2 0x180D JUMP JUMPDEST SWAP3 POP POP PUSH1 0x20 PUSH2 0x1B2E DUP6 DUP3 DUP7 ADD PUSH2 0x180D JUMP JUMPDEST SWAP2 POP POP SWAP3 POP SWAP3 SWAP1 POP JUMP JUMPDEST PUSH1 0x0 DUP3 DUP3 MSTORE PUSH1 0x20 DUP3 ADD SWAP1 POP SWAP3 SWAP2 POP POP JUMP JUMPDEST PUSH32 0x746F6B656E20646F65736E277420657869737400000000000000000000000000 PUSH1 0x0 DUP3 ADD MSTORE POP JUMP JUMPDEST PUSH1 0x0 PUSH2 0x1B7F PUSH1 0x13 DUP4 PUSH2 0x1B38 JUMP JUMPDEST SWAP2 POP PUSH2 0x1B8A DUP3 PUSH2 0x1B49 JUMP JUMPDEST PUSH1 0x20 DUP3 ADD SWAP1 POP SWAP2 SWAP1 POP JUMP JUMPDEST PUSH1 0x0 PUSH1 0x20 DUP3 ADD SWAP1 POP DUP2 DUP2 SUB PUSH1 0x0 DUP4 ADD MSTORE PUSH2 0x1BAE DUP2 PUSH2 0x1B72 JUMP JUMPDEST SWAP1 POP SWAP2 SWAP1 POP JUMP JUMPDEST PUSH32 0x6E6F7420617574686F72697A6564000000000000000000000000000000000000 PUSH1 0x0 DUP3 ADD MSTORE POP JUMP JUMPDEST PUSH1 0x0 PUSH2 0x1BEB PUSH1 0xE DUP4 PUSH2 0x1B38 JUMP JUMPDEST SWAP2 POP PUSH2 0x1BF6 DUP3 PUSH2 0x1BB5 JUMP JUMPDEST PUSH1 0x20 DUP3 ADD SWAP1 POP SWAP2 SWAP1 POP JUMP JUMPDEST PUSH1 0x0 PUSH1 0x20 DUP3 ADD SWAP1 POP DUP2 DUP2 SUB PUSH1 0x0 DUP4 ADD MSTORE PUSH2 0x1C1A DUP2 PUSH2 0x1BDE JUMP JUMPDEST SWAP1 POP SWAP2 SWAP1 POP JUMP JUMPDEST PUSH32 0x6F6E6C79206F776E657200000000000000000000000000000000000000000000 PUSH1 0x0 DUP3 ADD MSTORE POP JUMP JUMPDEST PUSH1 0x0 PUSH2 0x1C57 PUSH1 0xA DUP4 PUSH2 0x1B38 JUMP JUMPDEST SWAP2 POP PUSH2 0x1C62 DUP3 PUSH2 0x1C21 JUMP JUMPDEST PUSH1 0x20 DUP3 ADD SWAP1 POP SWAP2 SWAP1 POP JUMP JUMPDEST PUSH1 0x0 PUSH1 0x20 DUP3 ADD SWAP1 POP DUP2 DUP2 SUB PUSH1 0x0 DUP4 ADD MSTORE PUSH2 0x1C86 DUP2 PUSH2 0x1C4A JUMP JUMPDEST SWAP1 POP SWAP2 SWAP1 POP JUMP JUMPDEST PUSH32 0x4E487B7100000000000000000000000000000000000000000000000000000000 PUSH1 0x0 MSTORE PUSH1 0x11 PUSH1 0x4 MSTORE PUSH1 0x24 PUSH1 0x0 REVERT JUMPDEST PUSH1 0x0 PUSH2 0x1CC7 DUP3 PUSH2 0x1737 JUMP JUMPDEST SWAP2 POP PUSH2 0x1CD2 DUP4 PUSH2 0x1737 JUMP JUMPDEST SWAP3 POP DUP3 DUP3 ADD SWAP1 POP DUP1 DUP3 GT ISZERO PUSH2 0x1CEA JUMPI PUSH2 0x1CE9 PUSH2 0x1C8D JUMP JUMPDEST JUMPDEST SWAP3 SWAP2 POP POP JUMP JUMPDEST PUSH32 0x66726F6D20213D206F776E657200000000000000000000000000000000000000 PUSH1 0x0 DUP3 ADD MSTORE POP JUMP JUMPDEST PUSH1 0x0 PUSH2 0x1D26 PUSH1 0xD DUP4 PUSH2 0x1B38 JUMP JUMPDEST SWAP2 POP PUSH2 0x1D31 DUP3 PUSH2 0x1CF0 JUMP JUMPDEST PUSH1 0x20 DUP3 ADD SWAP1 POP SWAP2 SWAP1 POP JUMP JUMPDEST PUSH1 0x0 PUSH1 0x20 DUP3 ADD SWAP1 POP DUP2 DUP2 SUB PUSH1 0x0 DUP4 ADD MSTORE PUSH2 0x1D55 DUP2 PUSH2 0x1D19 JUMP JUMPDEST SWAP1 POP SWAP2 SWAP1 POP JUMP JUMPDEST PUSH32 0x7472616E7366657220746F207A65726F20616464726573730000000000000000 PUSH1 0x0 DUP3 ADD MSTORE POP JUMP JUMPDEST PUSH1 0x0 PUSH2 0x1D92 PUSH1 0x18 DUP4 PUSH2 0x1B38 JUMP JUMPDEST SWAP2 POP PUSH2 0x1D9D DUP3 PUSH2 0x1D5C JUMP JUMPDEST PUSH1 0x20 DUP3 ADD SWAP1 POP SWAP2 SWAP1 POP JUMP JUMPDEST PUSH1 0x0 PUSH1 0x20 DUP3 ADD SWAP1 POP DUP2 DUP2 SUB PUSH1 0x0 DUP4 ADD MSTORE PUSH2 0x1DC1 DUP2 PUSH2 0x1D85 JUMP JUMPDEST SWAP1 POP SWAP2 SWAP1 POP JUMP JUMPDEST PUSH1 0x0 PUSH2 0x1DD3 DUP3 PUSH2 0x1737 JUMP JUMPDEST SWAP2 POP PUSH1 0x0 DUP3 SUB PUSH2 0x1DE6 JUMPI PUSH2 0x1DE5 PUSH2 0x1C8D JUMP JUMPDEST JUMPDEST PUSH1 0x1 DUP3 SUB SWAP1 POP SWAP2 SWAP1 POP JUMP JUMPDEST PUSH1 0x0 PUSH2 0x1DFC DUP3 PUSH2 0x1737 JUMP JUMPDEST SWAP2 POP PUSH32 0xFFFFFFFFFFFFFFFFFFFFFFFFFFFFFFFFFFFFFFFFFFFFFFFFFFFFFFFFFFFFFFFF DUP3 SUB PUSH2 0x1E2E JUMPI PUSH2 0x1E2D PUSH2 0x1C8D JUMP JUMPDEST JUMPDEST PUSH1 0x1 DUP3 ADD SWAP1 POP SWAP2 SWAP1 POP JUMP JUMPDEST PUSH1 0x0 DUP3 DUP3 MSTORE PUSH1 0x20 DUP3 ADD SWAP1 POP SWAP3 SWAP2 POP POP JUMP JUMPDEST POP JUMP JUMPDEST PUSH1 0x0 PUSH2 0x1E5A PUSH1 0x0 DUP4 PUSH2 0x1E39 JUMP JUMPDEST SWAP2 POP PUSH2 0x1E65 DUP3 PUSH2 0x1E4A JUMP JUMPDEST PUSH1 0x0 DUP3 ADD SWAP1 POP SWAP2 SWAP1 POP JUMP JUMPDEST PUSH1 0x0 PUSH1 0x80 DUP3 ADD SWAP1 POP PUSH2 0x1E85 PUSH1 0x0 DUP4 ADD DUP7 PUSH2 0x17CC JUMP JUMPDEST PUSH2 0x1E92 PUSH1 0x20 DUP4 ADD DUP6 PUSH2 0x17CC JUMP JUMPDEST PUSH2 0x1E9F PUSH1 0x40 DUP4 ADD DUP5 PUSH2 0x18A2 JUMP JUMPDEST DUP2 DUP2 SUB PUSH1 0x60 DUP4 ADD MSTORE PUSH2 0x1EB0 DUP2 PUSH2 0x1E4D JUMP JUMPDEST SWAP1 POP SWAP5 SWAP4 POP POP POP POP JUMP JUMPDEST PUSH1 0x0 DUP2 MLOAD SWAP1 POP PUSH2 0x1EC9 DUP2 PUSH2 0x16A8 JUMP JUMPDEST SWAP3 SWAP2 POP POP JUMP JUMPDEST PUSH1 0x0 PUSH1 0x20 DUP3 DUP5 SUB SLT ISZERO PUSH2 0x1EE5 JUMPI PUSH2 0x1EE4 PUSH2 0x1672 JUMP JUMPDEST JUMPDEST PUSH1 0x0 PUSH2 0x1EF3 DUP5 DUP3 DUP6 ADD PUSH2 0x1EBA JUMP JUMPDEST SWAP2 POP POP SWAP3 SWAP2 POP POP JUMP JUMPDEST PUSH32 0x756E7361666520726563697069656E7400000000000000000000000000000000 PUSH1 0x0 DUP3 ADD MSTORE POP JUMP JUMPDEST PUSH1 0x0 PUSH2 0x1F32 PUSH1 0x10 DUP4 PUSH2 0x1B38 JUMP JUMPDEST SWAP2 POP PUSH2 0x1F3D DUP3 PUSH2 0x1EFC JUMP JUMPDEST PUSH1 0x20 DUP3 ADD SWAP1 POP SWAP2 SWAP1 POP JUMP JUMPDEST PUSH1 0x0 PUSH1 0x20 DUP3 ADD SWAP1 POP DUP2 DUP2 SUB PUSH1 0x0 DUP4 ADD MSTORE PUSH2 0x1F61 DUP2 PUSH2 0x1F25 JUMP JUMPDEST SWAP1 POP SWAP2 SWAP1 POP JUMP JUMPDEST PUSH32 0x6F776E6572203D207A65726F2061646472657373000000000000000000000000 PUSH1 0x0 DUP3 ADD MSTORE POP JUMP JUMPDEST PUSH1 0x0 PUSH2 0x1F9E PUSH1 0x14 DUP4 PUSH2 0x1B38 JUMP JUMPDEST SWAP2 POP PUSH2 0x1FA9 DUP3 PUSH2 0x1F68 JUMP JUMPDEST PUSH1 0x20 DUP3 ADD SWAP1 POP SWAP2 SWAP1 POP JUMP JUMPDEST PUSH1 0x0 PUSH1 0x20 DUP3 ADD SWAP1 POP DUP2 DUP2 SUB PUSH1 0x0 DUP4 ADD MSTORE PUSH2 0x1FCD DUP2 PUSH2 0x1F91 JUMP JUMPDEST SWAP1 POP SWAP2 SWAP1 POP JUMP JUMPDEST DUP3 DUP2 DUP4 CALLDATACOPY PUSH1 0x0 DUP4 DUP4 ADD MSTORE POP POP POP JUMP JUMPDEST PUSH1 0x0 PUSH1 0x1F NOT PUSH1 0x1F DUP4 ADD AND SWAP1 POP SWAP2 SWAP1 POP JUMP JUMPDEST PUSH1 0x0 PUSH2 0x2000 DUP4 DUP6 PUSH2 0x1E39 JUMP JUMPDEST SWAP4 POP PUSH2 0x200D DUP4 DUP6 DUP5 PUSH2 0x1FD4 JUMP JUMPDEST PUSH2 0x2016 DUP4 PUSH2 0x1FE3 JUMP JUMPDEST DUP5 ADD SWAP1 POP SWAP4 SWAP3 POP POP POP JUMP JUMPDEST PUSH1 0x0 PUSH1 0x80 DUP3 ADD SWAP1 POP PUSH2 0x2036 PUSH1 0x0 DUP4 ADD DUP9 PUSH2 0x17CC JUMP JUMPDEST PUSH2 0x2043 PUSH1 0x20 DUP4 ADD DUP8 PUSH2 0x17CC JUMP JUMPDEST PUSH2 0x2050 PUSH1 0x40 DUP4 ADD DUP7 PUSH2 0x18A2 JUMP JUMPDEST DUP2 DUP2 SUB PUSH1 0x60 DUP4 ADD MSTORE PUSH2 0x2063 DUP2 DUP5 DUP7 PUSH2 0x1FF4 JUMP JUMPDEST SWAP1 POP SWAP7 SWAP6 POP POP POP POP POP POP JUMP JUMPDEST PUSH1 0x0 PUSH1 0x60 DUP3 ADD SWAP1 POP PUSH2 0x2084 PUSH1 0x0 DUP4 ADD DUP7 PUSH2 0x17CC JUMP JUMPDEST PUSH2 0x2091 PUSH1 0x20 DUP4 ADD DUP6 PUSH2 0x17CC JUMP JUMPDEST PUSH2 0x209E PUSH1 0x40 DUP4 ADD DUP5 PUSH2 0x18A2 JUMP JUMPDEST SWAP5 SWAP4 POP POP POP POP JUMP JUMPDEST PUSH1 0x0 DUP2 MLOAD SWAP1 POP PUSH2 0x20B5 DUP2 PUSH2 0x194C JUMP JUMPDEST SWAP3 SWAP2 POP POP JUMP JUMPDEST PUSH1 0x0 PUSH1 0x20 DUP3 DUP5 SUB SLT ISZERO PUSH2 0x20D1 JUMPI PUSH2 0x20D0 PUSH2 0x1672 JUMP JUMPDEST JUMPDEST PUSH1 0x0 PUSH2 0x20DF DUP5 DUP3 DUP6 ADD PUSH2 0x20A6 JUMP JUMPDEST SWAP2 POP POP SWAP3 SWAP2 POP POP JUMP JUMPDEST PUSH1 0x0 PUSH1 0x40 DUP3 ADD SWAP1 POP PUSH2 0x20FD PUSH1 0x0 DUP4 ADD DUP6 PUSH2 0x17CC JUMP JUMPDEST PUSH2 0x210A PUSH1 0x20 DUP4 ADD DUP5 PUSH2 0x18A2 JUMP JUMPDEST SWAP4 SWAP3 POP POP POP JUMP JUMPDEST PUSH32 0x6D696E7420746F207A65726F2061646472657373000000000000000000000000 PUSH1 0x0 DUP3 ADD MSTORE POP JUMP JUMPDEST PUSH1 0x0 PUSH2 0x2147 PUSH1 0x14 DUP4 PUSH2 0x1B38 JUMP JUMPDEST SWAP2 POP PUSH2 0x2152 DUP3 PUSH2 0x2111 JUMP JUMPDEST PUSH1 0x20 DUP3 ADD SWAP1 POP SWAP2 SWAP1 POP JUMP JUMPDEST PUSH1 0x0 PUSH1 0x20 DUP3 ADD SWAP1 POP DUP2 DUP2 SUB PUSH1 0x0 DUP4 ADD MSTORE PUSH2 0x2176 DUP2 PUSH2 0x213A JUMP JUMPDEST SWAP1 POP SWAP2 SWAP1 POP JUMP JUMPDEST PUSH32 0x616C7265616479206D696E746564000000000000000000000000000000000000 PUSH1 0x0 DUP3 ADD MSTORE POP JUMP JUMPDEST PUSH1 0x0 PUSH2 0x21B3 PUSH1 0xE DUP4 PUSH2 0x1B38 JUMP JUMPDEST SWAP2 POP PUSH2 0x21BE DUP3 PUSH2 0x217D JUMP JUMPDEST PUSH1 0x20 DUP3 ADD SWAP1 POP SWAP2 SWAP1 POP JUMP JUMPDEST PUSH1 0x0 PUSH1 0x20 DUP3 ADD SWAP1 POP DUP2 DUP2 SUB PUSH1 0x0 DUP4 ADD MSTORE PUSH2 0x21E2 DUP2 PUSH2 0x21A6 JUMP JUMPDEST SWAP1 POP SWAP2 SWAP1 POP JUMP INVALID LOG2 PUSH5 0x6970667358 0x22 SLT KECCAK256 LT PUSH27 0x541AB05B178F492C361F38A42725B93B6D0DEF0866685FDE6E055B 0xC5 0xF EXP PUSH5 0x736F6C6343 STOP ADDMOD SLT STOP CALLER "
				},
				"gasEstimates": {
					"creation": {
						"codeDepositCost": "1747000",
						"executionCost": "26100",
						"totalCost": "1773100"
					},
					"external": {
						"approve(address,uint256)": "31562",
						"balanceOf(address)": "2899",
						"depositReward(uint256,address,uint256)": "infinite",
						"getApproved(uint256)": "5160",
						"isApprovedForAll(address,address)": "infinite",
						"mint()": "infinite",
						"owner()": "2581",
						"ownerOf(uint256)": "3042",
						"rewardBalance(uint256,address)": "infinite",
						"safeTransferFrom(address,address,uint256)": "infinite",
						"safeTransferFrom(address,address,uint256,bytes)": "infinite",
						"setApprovalForAll(address,bool)": "infinite",
						"supportsInterface(bytes4)": "708",
						"transferFrom(address,address,uint256)": "infinite",
						"updateOwner(address)": "28098",
						"withdrawReward(uint256,address,uint256)": "infinite"
					}
				},
				"methodIdentifiers": {
					"approve(address,uint256)": "095ea7b3",
					"balanceOf(address)": "70a08231",
					"depositReward(uint256,address,uint256)": "da644b04",
					"getApproved(uint256)": "081812fc",
					"isApprovedForAll(address,address)": "e985e9c5",
					"mint()": "1249c58b",
					"owner()": "8da5cb5b",
					"ownerOf(uint256)": "6352211e",
					"rewardBalance(uint256,address)": "18796ca8",
					"safeTransferFrom(address,address,uint256)": "42842e0e",
					"safeTransferFrom(address,address,uint256,bytes)": "b88d4fde",
					"setApprovalForAll(address,bool)": "a22cb465",
					"supportsInterface(bytes4)": "01ffc9a7",
					"transferFrom(address,address,uint256)": "23b872dd",
					"updateOwner(address)": "880cdc31",
					"withdrawReward(uint256,address,uint256)": "fc6bcf39"
				}
			},
			"storageLayout": {
				"storage": [
					{
						"astId": 411,
						"contract": "TNFT.sol:TNFT",
						"label": "_ownerOf",
						"offset": 0,
						"slot": "0",
						"type": "t_mapping(t_uint256,t_address)"
					},
					{
						"astId": 415,
						"contract": "TNFT.sol:TNFT",
						"label": "_balanceOf",
						"offset": 0,
						"slot": "1",
						"type": "t_mapping(t_address,t_uint256)"
					},
					{
						"astId": 419,
						"contract": "TNFT.sol:TNFT",
						"label": "_approvals",
						"offset": 0,
						"slot": "2",
						"type": "t_mapping(t_uint256,t_address)"
					},
					{
						"astId": 425,
						"contract": "TNFT.sol:TNFT",
						"label": "isApprovedForAll",
						"offset": 0,
						"slot": "3",
						"type": "t_mapping(t_address,t_mapping(t_address,t_bool))"
					},
					{
						"astId": 355,
						"contract": "TNFT.sol:TNFT",
						"label": "owner",
						"offset": 0,
						"slot": "4",
						"type": "t_address"
					},
					{
						"astId": 243,
						"contract": "TNFT.sol:TNFT",
						"label": "counter",
						"offset": 0,
						"slot": "5",
						"type": "t_uint256"
					},
					{
						"astId": 249,
						"contract": "TNFT.sol:TNFT",
						"label": "reward",
						"offset": 0,
						"slot": "6",
						"type": "t_mapping(t_uint256,t_mapping(t_address,t_uint256))"
					}
				],
				"types": {
					"t_address": {
						"encoding": "inplace",
						"label": "address",
						"numberOfBytes": "20"
					},
					"t_bool": {
						"encoding": "inplace",
						"label": "bool",
						"numberOfBytes": "1"
					},
					"t_mapping(t_address,t_bool)": {
						"encoding": "mapping",
						"key": "t_address",
						"label": "mapping(address => bool)",
						"numberOfBytes": "32",
						"value": "t_bool"
					},
					"t_mapping(t_address,t_mapping(t_address,t_bool))": {
						"encoding": "mapping",
						"key": "t_address",
						"label": "mapping(address => mapping(address => bool))",
						"numberOfBytes": "32",
						"value": "t_mapping(t_address,t_bool)"
					},
					"t_mapping(t_address,t_uint256)": {
						"encoding": "mapping",
						"key": "t_address",
						"label": "mapping(address => uint256)",
						"numberOfBytes": "32",
						"value": "t_uint256"
					},
					"t_mapping(t_uint256,t_address)": {
						"encoding": "mapping",
						"key": "t_uint256",
						"label": "mapping(uint256 => address)",
						"numberOfBytes": "32",
						"value": "t_address"
					},
					"t_mapping(t_uint256,t_mapping(t_address,t_uint256))": {
						"encoding": "mapping",
						"key": "t_uint256",
						"label": "mapping(uint256 => mapping(address => uint256))",
						"numberOfBytes": "32",
						"value": "t_mapping(t_address,t_uint256)"
					},
					"t_uint256": {
						"encoding": "inplace",
						"label": "uint256",
						"numberOfBytes": "32"
					}
				}
			},
			"userdoc": {
				"kind": "user",
				"methods": {},
				"version": 1
			}
		}
	}
}