{
	"NFTMarketplace.sol": {
		"NFTMarketplace": {
			"abi": [
				{
					"inputs": [
						{
							"internalType": "uint256",
							"name": "askId",
							"type": "uint256"
						}
					],
					"name": "acceptAsk",
					"outputs": [],
					"stateMutability": "payable",
					"type": "function"
				},
				{
					"inputs": [
						{
							"internalType": "uint256",
							"name": "",
							"type": "uint256"
						}
					],
					"name": "ask",
					"outputs": [
						{
							"internalType": "address",
							"name": "owner",
							"type": "address"
						},
						{
							"internalType": "contract IERC721",
							"name": "nft",
							"type": "address"
						},
						{
							"internalType": "uint256",
							"name": "nftId",
							"type": "uint256"
						},
						{
							"internalType": "uint256",
							"name": "price",
							"type": "uint256"
						},
						{
							"internalType": "bool",
							"name": "active",
							"type": "bool"
						}
					],
					"stateMutability": "view",
					"type": "function"
				},
				{
					"inputs": [
						{
							"internalType": "uint256",
							"name": "askId",
							"type": "uint256"
						}
					],
					"name": "cancelAsk",
					"outputs": [],
					"stateMutability": "nonpayable",
					"type": "function"
				},
				{
					"inputs": [
						{
							"internalType": "contract IERC721",
							"name": "nft",
							"type": "address"
						},
						{
							"internalType": "uint256",
							"name": "nftId",
							"type": "uint256"
						},
						{
							"internalType": "uint256",
							"name": "price",
							"type": "uint256"
						}
					],
					"name": "createAsk",
					"outputs": [],
					"stateMutability": "nonpayable",
					"type": "function"
				}
			],
			"devdoc": {
				"kind": "dev",
				"methods": {},
				"version": 1
			},
			"evm": {
				"assembly": "    /* \"NFTMarketplace.sol\":240:1081  contract NFTMarketplace {... */\n  mstore(0x40, 0x80)\n  callvalue\n  dup1\n  iszero\n  tag_1\n  jumpi\n  0x00\n  dup1\n  revert\ntag_1:\n  pop\n  dataSize(sub_0)\n  dup1\n  dataOffset(sub_0)\n  0x00\n  codecopy\n  0x00\n  return\nstop\n\nsub_0: assembly {\n        /* \"NFTMarketplace.sol\":240:1081  contract NFTMarketplace {... */\n      mstore(0x40, 0x80)\n      jumpi(tag_1, lt(calldatasize, 0x04))\n      shr(0xe0, calldataload(0x00))\n      dup1\n      0x1628e0f5\n      eq\n      tag_2\n      jumpi\n      dup1\n      0x9d5b88d0\n      eq\n      tag_3\n      jumpi\n      dup1\n      0xc4f0ee36\n      eq\n      tag_4\n      jumpi\n      dup1\n      0xe47e7e66\n      eq\n      tag_5\n      jumpi\n    tag_1:\n      0x00\n      dup1\n      revert\n        /* \"NFTMarketplace.sol\":527:787  function cancelAsk(uint256 askId) external {... */\n    tag_2:\n      callvalue\n      dup1\n      iszero\n      tag_6\n      jumpi\n      0x00\n      dup1\n      revert\n    tag_6:\n      pop\n      tag_7\n      0x04\n      dup1\n      calldatasize\n      sub\n      dup2\n      add\n      swap1\n      tag_8\n      swap2\n      swap1\n      tag_9\n      jump\t// in\n    tag_8:\n      tag_10\n      jump\t// in\n    tag_7:\n      stop\n        /* \"NFTMarketplace.sol\":793:1079  function acceptAsk(uint256 askId) external payable {... */\n    tag_3:\n      tag_11\n      0x04\n      dup1\n      calldatasize\n      sub\n      dup2\n      add\n      swap1\n      tag_12\n      swap2\n      swap1\n      tag_9\n      jump\t// in\n    tag_12:\n      tag_13\n      jump\t// in\n    tag_11:\n      stop\n        /* \"NFTMarketplace.sol\":293:521  function createAsk(... */\n    tag_4:\n      callvalue\n      dup1\n      iszero\n      tag_14\n      jumpi\n      0x00\n      dup1\n      revert\n    tag_14:\n      pop\n      tag_15\n      0x04\n      dup1\n      calldatasize\n      sub\n      dup2\n      add\n      swap1\n      tag_16\n      swap2\n      swap1\n      tag_17\n      jump\t// in\n    tag_16:\n      tag_18\n      jump\t// in\n    tag_15:\n      stop\n        /* \"NFTMarketplace.sol\":270:286  Ask[] public ask */\n    tag_5:\n      callvalue\n      dup1\n      iszero\n      tag_19\n      jumpi\n      0x00\n      dup1\n      revert\n    tag_19:\n      pop\n      tag_20\n      0x04\n      dup1\n      calldatasize\n      sub\n      dup2\n      add\n      swap1\n      tag_21\n      swap2\n      swap1\n      tag_9\n      jump\t// in\n    tag_21:\n      tag_22\n      jump\t// in\n    tag_20:\n      mload(0x40)\n      tag_23\n      swap6\n      swap5\n      swap4\n      swap3\n      swap2\n      swap1\n      tag_24\n      jump\t// in\n    tag_23:\n      mload(0x40)\n      dup1\n      swap2\n      sub\n      swap1\n      return\n        /* \"NFTMarketplace.sol\":527:787  function cancelAsk(uint256 askId) external {... */\n    tag_10:\n        /* \"NFTMarketplace.sol\":608:618  msg.sender */\n      caller\n        /* \"NFTMarketplace.sol\":588:618  ask[askId].owner == msg.sender */\n      0xffffffffffffffffffffffffffffffffffffffff\n      and\n        /* \"NFTMarketplace.sol\":588:591  ask */\n      0x00\n        /* \"NFTMarketplace.sol\":592:597  askId */\n      dup3\n        /* \"NFTMarketplace.sol\":588:598  ask[askId] */\n      dup2\n      sload\n      dup2\n      lt\n      tag_26\n      jumpi\n      tag_27\n      tag_28\n      jump\t// in\n    tag_27:\n    tag_26:\n      swap1\n      0x00\n      mstore\n      keccak256(0x00, 0x20)\n      swap1\n      0x05\n      mul\n      add\n        /* \"NFTMarketplace.sol\":588:604  ask[askId].owner */\n      0x00\n      add\n      0x00\n      swap1\n      sload\n      swap1\n      0x0100\n      exp\n      swap1\n      div\n      0xffffffffffffffffffffffffffffffffffffffff\n      and\n        /* \"NFTMarketplace.sol\":588:618  ask[askId].owner == msg.sender */\n      0xffffffffffffffffffffffffffffffffffffffff\n      and\n      eq\n        /* \"NFTMarketplace.sol\":580:619  require(ask[askId].owner == msg.sender) */\n      tag_30\n      jumpi\n      0x00\n      dup1\n      revert\n    tag_30:\n        /* \"NFTMarketplace.sol\":658:662  true */\n      0x01\n        /* \"NFTMarketplace.sol\":637:662  ask[askId].active == true */\n      iszero\n      iszero\n        /* \"NFTMarketplace.sol\":637:640  ask */\n      0x00\n        /* \"NFTMarketplace.sol\":641:646  askId */\n      dup3\n        /* \"NFTMarketplace.sol\":637:647  ask[askId] */\n      dup2\n      sload\n      dup2\n      lt\n      tag_31\n      jumpi\n      tag_32\n      tag_28\n      jump\t// in\n    tag_32:\n    tag_31:\n      swap1\n      0x00\n      mstore\n      keccak256(0x00, 0x20)\n      swap1\n      0x05\n      mul\n      add\n        /* \"NFTMarketplace.sol\":637:654  ask[askId].active */\n      0x04\n      add\n      0x00\n      swap1\n      sload\n      swap1\n      0x0100\n      exp\n      swap1\n      div\n      0xff\n      and\n        /* \"NFTMarketplace.sol\":637:662  ask[askId].active == true */\n      iszero\n      iszero\n      eq\n        /* \"NFTMarketplace.sol\":629:663  require(ask[askId].active == true) */\n      tag_34\n      jumpi\n      0x00\n      dup1\n      revert\n    tag_34:\n        /* \"NFTMarketplace.sol\":693:698  false */\n      0x00\n        /* \"NFTMarketplace.sol\":673:676  ask */\n      dup1\n        /* \"NFTMarketplace.sol\":677:682  askId */\n      dup3\n        /* \"NFTMarketplace.sol\":673:683  ask[askId] */\n      dup2\n      sload\n      dup2\n      lt\n      tag_35\n      jumpi\n      tag_36\n      tag_28\n      jump\t// in\n    tag_36:\n    tag_35:\n      swap1\n      0x00\n      mstore\n      keccak256(0x00, 0x20)\n      swap1\n      0x05\n      mul\n      add\n        /* \"NFTMarketplace.sol\":673:690  ask[askId].active */\n      0x04\n      add\n      0x00\n        /* \"NFTMarketplace.sol\":673:698  ask[askId].active = false */\n      0x0100\n      exp\n      dup2\n      sload\n      dup2\n      0xff\n      mul\n      not\n      and\n      swap1\n      dup4\n      iszero\n      iszero\n      mul\n      or\n      swap1\n      sstore\n      pop\n        /* \"NFTMarketplace.sol\":708:711  ask */\n      0x00\n        /* \"NFTMarketplace.sol\":712:717  askId */\n      dup2\n        /* \"NFTMarketplace.sol\":708:718  ask[askId] */\n      dup2\n      sload\n      dup2\n      lt\n      tag_38\n      jumpi\n      tag_39\n      tag_28\n      jump\t// in\n    tag_39:\n    tag_38:\n      swap1\n      0x00\n      mstore\n      keccak256(0x00, 0x20)\n      swap1\n      0x05\n      mul\n      add\n        /* \"NFTMarketplace.sol\":708:722  ask[askId].nft */\n      0x01\n      add\n      0x00\n      swap1\n      sload\n      swap1\n      0x0100\n      exp\n      swap1\n      div\n      0xffffffffffffffffffffffffffffffffffffffff\n      and\n        /* \"NFTMarketplace.sol\":708:735  ask[askId].nft.transferFrom */\n      0xffffffffffffffffffffffffffffffffffffffff\n      and\n      0x23b872dd\n        /* \"NFTMarketplace.sol\":744:748  this */\n      address\n        /* \"NFTMarketplace.sol\":751:761  msg.sender */\n      caller\n        /* \"NFTMarketplace.sol\":763:766  ask */\n      0x00\n        /* \"NFTMarketplace.sol\":767:772  askId */\n      dup6\n        /* \"NFTMarketplace.sol\":763:773  ask[askId] */\n      dup2\n      sload\n      dup2\n      lt\n      tag_41\n      jumpi\n      tag_42\n      tag_28\n      jump\t// in\n    tag_42:\n    tag_41:\n      swap1\n      0x00\n      mstore\n      keccak256(0x00, 0x20)\n      swap1\n      0x05\n      mul\n      add\n        /* \"NFTMarketplace.sol\":763:779  ask[askId].nftId */\n      0x02\n      add\n      sload\n        /* \"NFTMarketplace.sol\":708:780  ask[askId].nft.transferFrom(address(this), msg.sender, ask[askId].nftId) */\n      mload(0x40)\n      dup5\n      0xffffffff\n      and\n      0xe0\n      shl\n      dup2\n      mstore\n      0x04\n      add\n      tag_44\n      swap4\n      swap3\n      swap2\n      swap1\n      tag_45\n      jump\t// in\n    tag_44:\n      0x00\n      mload(0x40)\n      dup1\n      dup4\n      sub\n      dup2\n      0x00\n      dup8\n      dup1\n      extcodesize\n      iszero\n      dup1\n      iszero\n      tag_46\n      jumpi\n      0x00\n      dup1\n      revert\n    tag_46:\n      pop\n      gas\n      call\n      iszero\n      dup1\n      iszero\n      tag_48\n      jumpi\n      returndatasize\n      0x00\n      dup1\n      returndatacopy\n      revert(0x00, returndatasize)\n    tag_48:\n      pop\n      pop\n      pop\n      pop\n        /* \"NFTMarketplace.sol\":527:787  function cancelAsk(uint256 askId) external {... */\n      pop\n      jump\t// out\n        /* \"NFTMarketplace.sol\":793:1079  function acceptAsk(uint256 askId) external payable {... */\n    tag_13:\n        /* \"NFTMarketplace.sol\":882:891  msg.value */\n      callvalue\n        /* \"NFTMarketplace.sol\":862:865  ask */\n      0x00\n        /* \"NFTMarketplace.sol\":866:871  askId */\n      dup3\n        /* \"NFTMarketplace.sol\":862:872  ask[askId] */\n      dup2\n      sload\n      dup2\n      lt\n      tag_50\n      jumpi\n      tag_51\n      tag_28\n      jump\t// in\n    tag_51:\n    tag_50:\n      swap1\n      0x00\n      mstore\n      keccak256(0x00, 0x20)\n      swap1\n      0x05\n      mul\n      add\n        /* \"NFTMarketplace.sol\":862:878  ask[askId].price */\n      0x03\n      add\n      sload\n        /* \"NFTMarketplace.sol\":862:891  ask[askId].price == msg.value */\n      eq\n        /* \"NFTMarketplace.sol\":854:901  require(ask[askId].price == msg.value, \"price\") */\n      tag_53\n      jumpi\n      mload(0x40)\n      0x08c379a000000000000000000000000000000000000000000000000000000000\n      dup2\n      mstore\n      0x04\n      add\n      tag_54\n      swap1\n      tag_55\n      jump\t// in\n    tag_54:\n      mload(0x40)\n      dup1\n      swap2\n      sub\n      swap1\n      revert\n    tag_53:\n        /* \"NFTMarketplace.sol\":940:944  true */\n      0x01\n        /* \"NFTMarketplace.sol\":919:944  ask[askId].active == true */\n      iszero\n      iszero\n        /* \"NFTMarketplace.sol\":919:922  ask */\n      0x00\n        /* \"NFTMarketplace.sol\":923:928  askId */\n      dup3\n        /* \"NFTMarketplace.sol\":919:929  ask[askId] */\n      dup2\n      sload\n      dup2\n      lt\n      tag_56\n      jumpi\n      tag_57\n      tag_28\n      jump\t// in\n    tag_57:\n    tag_56:\n      swap1\n      0x00\n      mstore\n      keccak256(0x00, 0x20)\n      swap1\n      0x05\n      mul\n      add\n        /* \"NFTMarketplace.sol\":919:936  ask[askId].active */\n      0x04\n      add\n      0x00\n      swap1\n      sload\n      swap1\n      0x0100\n      exp\n      swap1\n      div\n      0xff\n      and\n        /* \"NFTMarketplace.sol\":919:944  ask[askId].active == true */\n      iszero\n      iszero\n      eq\n        /* \"NFTMarketplace.sol\":911:955  require(ask[askId].active == true, \"active\") */\n      tag_59\n      jumpi\n      mload(0x40)\n      0x08c379a000000000000000000000000000000000000000000000000000000000\n      dup2\n      mstore\n      0x04\n      add\n      tag_60\n      swap1\n      tag_61\n      jump\t// in\n    tag_60:\n      mload(0x40)\n      dup1\n      swap2\n      sub\n      swap1\n      revert\n    tag_59:\n        /* \"NFTMarketplace.sol\":985:990  false */\n      0x00\n        /* \"NFTMarketplace.sol\":965:968  ask */\n      dup1\n        /* \"NFTMarketplace.sol\":969:974  askId */\n      dup3\n        /* \"NFTMarketplace.sol\":965:975  ask[askId] */\n      dup2\n      sload\n      dup2\n      lt\n      tag_62\n      jumpi\n      tag_63\n      tag_28\n      jump\t// in\n    tag_63:\n    tag_62:\n      swap1\n      0x00\n      mstore\n      keccak256(0x00, 0x20)\n      swap1\n      0x05\n      mul\n      add\n        /* \"NFTMarketplace.sol\":965:982  ask[askId].active */\n      0x04\n      add\n      0x00\n        /* \"NFTMarketplace.sol\":965:990  ask[askId].active = false */\n      0x0100\n      exp\n      dup2\n      sload\n      dup2\n      0xff\n      mul\n      not\n      and\n      swap1\n      dup4\n      iszero\n      iszero\n      mul\n      or\n      swap1\n      sstore\n      pop\n        /* \"NFTMarketplace.sol\":1000:1003  ask */\n      0x00\n        /* \"NFTMarketplace.sol\":1004:1009  askId */\n      dup2\n        /* \"NFTMarketplace.sol\":1000:1010  ask[askId] */\n      dup2\n      sload\n      dup2\n      lt\n      tag_65\n      jumpi\n      tag_66\n      tag_28\n      jump\t// in\n    tag_66:\n    tag_65:\n      swap1\n      0x00\n      mstore\n      keccak256(0x00, 0x20)\n      swap1\n      0x05\n      mul\n      add\n        /* \"NFTMarketplace.sol\":1000:1014  ask[askId].nft */\n      0x01\n      add\n      0x00\n      swap1\n      sload\n      swap1\n      0x0100\n      exp\n      swap1\n      div\n      0xffffffffffffffffffffffffffffffffffffffff\n      and\n        /* \"NFTMarketplace.sol\":1000:1027  ask[askId].nft.transferFrom */\n      0xffffffffffffffffffffffffffffffffffffffff\n      and\n      0x23b872dd\n        /* \"NFTMarketplace.sol\":1036:1040  this */\n      address\n        /* \"NFTMarketplace.sol\":1043:1053  msg.sender */\n      caller\n        /* \"NFTMarketplace.sol\":1055:1058  ask */\n      0x00\n        /* \"NFTMarketplace.sol\":1059:1064  askId */\n      dup6\n        /* \"NFTMarketplace.sol\":1055:1065  ask[askId] */\n      dup2\n      sload\n      dup2\n      lt\n      tag_68\n      jumpi\n      tag_69\n      tag_28\n      jump\t// in\n    tag_69:\n    tag_68:\n      swap1\n      0x00\n      mstore\n      keccak256(0x00, 0x20)\n      swap1\n      0x05\n      mul\n      add\n        /* \"NFTMarketplace.sol\":1055:1071  ask[askId].nftId */\n      0x02\n      add\n      sload\n        /* \"NFTMarketplace.sol\":1000:1072  ask[askId].nft.transferFrom(address(this), msg.sender, ask[askId].nftId) */\n      mload(0x40)\n      dup5\n      0xffffffff\n      and\n      0xe0\n      shl\n      dup2\n      mstore\n      0x04\n      add\n      tag_71\n      swap4\n      swap3\n      swap2\n      swap1\n      tag_45\n      jump\t// in\n    tag_71:\n      0x00\n      mload(0x40)\n      dup1\n      dup4\n      sub\n      dup2\n      0x00\n      dup8\n      dup1\n      extcodesize\n      iszero\n      dup1\n      iszero\n      tag_72\n      jumpi\n      0x00\n      dup1\n      revert\n    tag_72:\n      pop\n      gas\n      call\n      iszero\n      dup1\n      iszero\n      tag_74\n      jumpi\n      returndatasize\n      0x00\n      dup1\n      returndatacopy\n      revert(0x00, returndatasize)\n    tag_74:\n      pop\n      pop\n      pop\n      pop\n        /* \"NFTMarketplace.sol\":793:1079  function acceptAsk(uint256 askId) external payable {... */\n      pop\n      jump\t// out\n        /* \"NFTMarketplace.sol\":293:521  function createAsk(... */\n    tag_18:\n        /* \"NFTMarketplace.sol\":404:407  ask */\n      0x00\n        /* \"NFTMarketplace.sol\":413:453  Ask(msg.sender, nft, nftId, price, true) */\n      mload(0x40)\n      dup1\n      0xa0\n      add\n      0x40\n      mstore\n      dup1\n        /* \"NFTMarketplace.sol\":417:427  msg.sender */\n      caller\n        /* \"NFTMarketplace.sol\":413:453  Ask(msg.sender, nft, nftId, price, true) */\n      0xffffffffffffffffffffffffffffffffffffffff\n      and\n      dup2\n      mstore\n      0x20\n      add\n        /* \"NFTMarketplace.sol\":429:432  nft */\n      dup6\n        /* \"NFTMarketplace.sol\":413:453  Ask(msg.sender, nft, nftId, price, true) */\n      0xffffffffffffffffffffffffffffffffffffffff\n      and\n      dup2\n      mstore\n      0x20\n      add\n        /* \"NFTMarketplace.sol\":434:439  nftId */\n      dup5\n        /* \"NFTMarketplace.sol\":413:453  Ask(msg.sender, nft, nftId, price, true) */\n      dup2\n      mstore\n      0x20\n      add\n        /* \"NFTMarketplace.sol\":441:446  price */\n      dup4\n        /* \"NFTMarketplace.sol\":413:453  Ask(msg.sender, nft, nftId, price, true) */\n      dup2\n      mstore\n      0x20\n      add\n        /* \"NFTMarketplace.sol\":448:452  true */\n      0x01\n        /* \"NFTMarketplace.sol\":413:453  Ask(msg.sender, nft, nftId, price, true) */\n      iszero\n      iszero\n      dup2\n      mstore\n      pop\n        /* \"NFTMarketplace.sol\":404:454  ask.push(Ask(msg.sender, nft, nftId, price, true)) */\n      swap1\n      dup1\n      0x01\n      dup2\n      sload\n      add\n      dup1\n      dup3\n      sstore\n      dup1\n      swap2\n      pop\n      pop\n      0x01\n      swap1\n      sub\n      swap1\n      0x00\n      mstore\n      keccak256(0x00, 0x20)\n      swap1\n      0x05\n      mul\n      add\n      0x00\n      swap1\n      swap2\n      swap1\n      swap2\n      swap1\n      swap2\n      pop\n      0x00\n      dup3\n      add\n      mload\n      dup2\n      0x00\n      add\n      exp(0x0100, 0x00)\n      dup2\n      sload\n      dup2\n      0xffffffffffffffffffffffffffffffffffffffff\n      mul\n      not\n      and\n      swap1\n      dup4\n      0xffffffffffffffffffffffffffffffffffffffff\n      and\n      mul\n      or\n      swap1\n      sstore\n      pop\n      0x20\n      dup3\n      add\n      mload\n      dup2\n      0x01\n      add\n      exp(0x0100, 0x00)\n      dup2\n      sload\n      dup2\n      0xffffffffffffffffffffffffffffffffffffffff\n      mul\n      not\n      and\n      swap1\n      dup4\n      0xffffffffffffffffffffffffffffffffffffffff\n      and\n      mul\n      or\n      swap1\n      sstore\n      pop\n      0x40\n      dup3\n      add\n      mload\n      dup2\n      0x02\n      add\n      sstore\n      0x60\n      dup3\n      add\n      mload\n      dup2\n      0x03\n      add\n      sstore\n      0x80\n      dup3\n      add\n      mload\n      dup2\n      0x04\n      add\n      exp(0x0100, 0x00)\n      dup2\n      sload\n      dup2\n      0xff\n      mul\n      not\n      and\n      swap1\n      dup4\n      iszero\n      iszero\n      mul\n      or\n      swap1\n      sstore\n      pop\n      pop\n      pop\n        /* \"NFTMarketplace.sol\":464:467  nft */\n      dup3\n        /* \"NFTMarketplace.sol\":464:480  nft.transferFrom */\n      0xffffffffffffffffffffffffffffffffffffffff\n      and\n      0x23b872dd\n        /* \"NFTMarketplace.sol\":481:491  msg.sender */\n      caller\n        /* \"NFTMarketplace.sol\":501:505  this */\n      address\n        /* \"NFTMarketplace.sol\":508:513  nftId */\n      dup6\n        /* \"NFTMarketplace.sol\":464:514  nft.transferFrom(msg.sender, address(this), nftId) */\n      mload(0x40)\n      dup5\n      0xffffffff\n      and\n      0xe0\n      shl\n      dup2\n      mstore\n      0x04\n      add\n      tag_77\n      swap4\n      swap3\n      swap2\n      swap1\n      tag_45\n      jump\t// in\n    tag_77:\n      0x00\n      mload(0x40)\n      dup1\n      dup4\n      sub\n      dup2\n      0x00\n      dup8\n      dup1\n      extcodesize\n      iszero\n      dup1\n      iszero\n      tag_78\n      jumpi\n      0x00\n      dup1\n      revert\n    tag_78:\n      pop\n      gas\n      call\n      iszero\n      dup1\n      iszero\n      tag_80\n      jumpi\n      returndatasize\n      0x00\n      dup1\n      returndatacopy\n      revert(0x00, returndatasize)\n    tag_80:\n      pop\n      pop\n      pop\n      pop\n        /* \"NFTMarketplace.sol\":293:521  function createAsk(... */\n      pop\n      pop\n      pop\n      jump\t// out\n        /* \"NFTMarketplace.sol\":270:286  Ask[] public ask */\n    tag_22:\n      0x00\n      dup2\n      dup2\n      sload\n      dup2\n      lt\n      tag_81\n      jumpi\n      0x00\n      dup1\n      revert\n    tag_81:\n      swap1\n      0x00\n      mstore\n      keccak256(0x00, 0x20)\n      swap1\n      0x05\n      mul\n      add\n      0x00\n      swap2\n      pop\n      swap1\n      pop\n      dup1\n      0x00\n      add\n      0x00\n      swap1\n      sload\n      swap1\n      0x0100\n      exp\n      swap1\n      div\n      0xffffffffffffffffffffffffffffffffffffffff\n      and\n      swap1\n      dup1\n      0x01\n      add\n      0x00\n      swap1\n      sload\n      swap1\n      0x0100\n      exp\n      swap1\n      div\n      0xffffffffffffffffffffffffffffffffffffffff\n      and\n      swap1\n      dup1\n      0x02\n      add\n      sload\n      swap1\n      dup1\n      0x03\n      add\n      sload\n      swap1\n      dup1\n      0x04\n      add\n      0x00\n      swap1\n      sload\n      swap1\n      0x0100\n      exp\n      swap1\n      div\n      0xff\n      and\n      swap1\n      pop\n      dup6\n      jump\t// out\n        /* \"#utility.yul\":88:205   */\n    tag_84:\n        /* \"#utility.yul\":197:198   */\n      0x00\n        /* \"#utility.yul\":194:195   */\n      dup1\n        /* \"#utility.yul\":187:199   */\n      revert\n        /* \"#utility.yul\":334:411   */\n    tag_86:\n        /* \"#utility.yul\":371:378   */\n      0x00\n        /* \"#utility.yul\":400:405   */\n      dup2\n        /* \"#utility.yul\":389:405   */\n      swap1\n      pop\n        /* \"#utility.yul\":334:411   */\n      swap2\n      swap1\n      pop\n      jump\t// out\n        /* \"#utility.yul\":417:539   */\n    tag_87:\n        /* \"#utility.yul\":490:514   */\n      tag_114\n        /* \"#utility.yul\":508:513   */\n      dup2\n        /* \"#utility.yul\":490:514   */\n      tag_86\n      jump\t// in\n    tag_114:\n        /* \"#utility.yul\":483:488   */\n      dup2\n        /* \"#utility.yul\":480:515   */\n      eq\n        /* \"#utility.yul\":470:533   */\n      tag_115\n      jumpi\n        /* \"#utility.yul\":529:530   */\n      0x00\n        /* \"#utility.yul\":526:527   */\n      dup1\n        /* \"#utility.yul\":519:531   */\n      revert\n        /* \"#utility.yul\":470:533   */\n    tag_115:\n        /* \"#utility.yul\":417:539   */\n      pop\n      jump\t// out\n        /* \"#utility.yul\":545:684   */\n    tag_88:\n        /* \"#utility.yul\":591:596   */\n      0x00\n        /* \"#utility.yul\":629:635   */\n      dup2\n        /* \"#utility.yul\":616:636   */\n      calldataload\n        /* \"#utility.yul\":607:636   */\n      swap1\n      pop\n        /* \"#utility.yul\":645:678   */\n      tag_117\n        /* \"#utility.yul\":672:677   */\n      dup2\n        /* \"#utility.yul\":645:678   */\n      tag_87\n      jump\t// in\n    tag_117:\n        /* \"#utility.yul\":545:684   */\n      swap3\n      swap2\n      pop\n      pop\n      jump\t// out\n        /* \"#utility.yul\":690:1019   */\n    tag_9:\n        /* \"#utility.yul\":749:755   */\n      0x00\n        /* \"#utility.yul\":798:800   */\n      0x20\n        /* \"#utility.yul\":786:795   */\n      dup3\n        /* \"#utility.yul\":777:784   */\n      dup5\n        /* \"#utility.yul\":773:796   */\n      sub\n        /* \"#utility.yul\":769:801   */\n      slt\n        /* \"#utility.yul\":766:885   */\n      iszero\n      tag_119\n      jumpi\n        /* \"#utility.yul\":804:883   */\n      tag_120\n      tag_84\n      jump\t// in\n    tag_120:\n        /* \"#utility.yul\":766:885   */\n    tag_119:\n        /* \"#utility.yul\":924:925   */\n      0x00\n        /* \"#utility.yul\":949:1002   */\n      tag_121\n        /* \"#utility.yul\":994:1001   */\n      dup5\n        /* \"#utility.yul\":985:991   */\n      dup3\n        /* \"#utility.yul\":974:983   */\n      dup6\n        /* \"#utility.yul\":970:992   */\n      add\n        /* \"#utility.yul\":949:1002   */\n      tag_88\n      jump\t// in\n    tag_121:\n        /* \"#utility.yul\":939:1002   */\n      swap2\n      pop\n        /* \"#utility.yul\":895:1012   */\n      pop\n        /* \"#utility.yul\":690:1019   */\n      swap3\n      swap2\n      pop\n      pop\n      jump\t// out\n        /* \"#utility.yul\":1025:1151   */\n    tag_89:\n        /* \"#utility.yul\":1062:1069   */\n      0x00\n        /* \"#utility.yul\":1102:1144   */\n      0xffffffffffffffffffffffffffffffffffffffff\n        /* \"#utility.yul\":1095:1100   */\n      dup3\n        /* \"#utility.yul\":1091:1145   */\n      and\n        /* \"#utility.yul\":1080:1145   */\n      swap1\n      pop\n        /* \"#utility.yul\":1025:1151   */\n      swap2\n      swap1\n      pop\n      jump\t// out\n        /* \"#utility.yul\":1157:1253   */\n    tag_90:\n        /* \"#utility.yul\":1194:1201   */\n      0x00\n        /* \"#utility.yul\":1223:1247   */\n      tag_124\n        /* \"#utility.yul\":1241:1246   */\n      dup3\n        /* \"#utility.yul\":1223:1247   */\n      tag_89\n      jump\t// in\n    tag_124:\n        /* \"#utility.yul\":1212:1247   */\n      swap1\n      pop\n        /* \"#utility.yul\":1157:1253   */\n      swap2\n      swap1\n      pop\n      jump\t// out\n        /* \"#utility.yul\":1259:1370   */\n    tag_91:\n        /* \"#utility.yul\":1311:1318   */\n      0x00\n        /* \"#utility.yul\":1340:1364   */\n      tag_126\n        /* \"#utility.yul\":1358:1363   */\n      dup3\n        /* \"#utility.yul\":1340:1364   */\n      tag_90\n      jump\t// in\n    tag_126:\n        /* \"#utility.yul\":1329:1364   */\n      swap1\n      pop\n        /* \"#utility.yul\":1259:1370   */\n      swap2\n      swap1\n      pop\n      jump\t// out\n        /* \"#utility.yul\":1376:1528   */\n    tag_92:\n        /* \"#utility.yul\":1464:1503   */\n      tag_128\n        /* \"#utility.yul\":1497:1502   */\n      dup2\n        /* \"#utility.yul\":1464:1503   */\n      tag_91\n      jump\t// in\n    tag_128:\n        /* \"#utility.yul\":1457:1462   */\n      dup2\n        /* \"#utility.yul\":1454:1504   */\n      eq\n        /* \"#utility.yul\":1444:1522   */\n      tag_129\n      jumpi\n        /* \"#utility.yul\":1518:1519   */\n      0x00\n        /* \"#utility.yul\":1515:1516   */\n      dup1\n        /* \"#utility.yul\":1508:1520   */\n      revert\n        /* \"#utility.yul\":1444:1522   */\n    tag_129:\n        /* \"#utility.yul\":1376:1528   */\n      pop\n      jump\t// out\n        /* \"#utility.yul\":1534:1703   */\n    tag_93:\n        /* \"#utility.yul\":1595:1600   */\n      0x00\n        /* \"#utility.yul\":1633:1639   */\n      dup2\n        /* \"#utility.yul\":1620:1640   */\n      calldataload\n        /* \"#utility.yul\":1611:1640   */\n      swap1\n      pop\n        /* \"#utility.yul\":1649:1697   */\n      tag_131\n        /* \"#utility.yul\":1691:1696   */\n      dup2\n        /* \"#utility.yul\":1649:1697   */\n      tag_92\n      jump\t// in\n    tag_131:\n        /* \"#utility.yul\":1534:1703   */\n      swap3\n      swap2\n      pop\n      pop\n      jump\t// out\n        /* \"#utility.yul\":1709:2358   */\n    tag_17:\n        /* \"#utility.yul\":1801:1807   */\n      0x00\n        /* \"#utility.yul\":1809:1815   */\n      dup1\n        /* \"#utility.yul\":1817:1823   */\n      0x00\n        /* \"#utility.yul\":1866:1868   */\n      0x60\n        /* \"#utility.yul\":1854:1863   */\n      dup5\n        /* \"#utility.yul\":1845:1852   */\n      dup7\n        /* \"#utility.yul\":1841:1864   */\n      sub\n        /* \"#utility.yul\":1837:1869   */\n      slt\n        /* \"#utility.yul\":1834:1953   */\n      iszero\n      tag_133\n      jumpi\n        /* \"#utility.yul\":1872:1951   */\n      tag_134\n      tag_84\n      jump\t// in\n    tag_134:\n        /* \"#utility.yul\":1834:1953   */\n    tag_133:\n        /* \"#utility.yul\":1992:1993   */\n      0x00\n        /* \"#utility.yul\":2017:2085   */\n      tag_135\n        /* \"#utility.yul\":2077:2084   */\n      dup7\n        /* \"#utility.yul\":2068:2074   */\n      dup3\n        /* \"#utility.yul\":2057:2066   */\n      dup8\n        /* \"#utility.yul\":2053:2075   */\n      add\n        /* \"#utility.yul\":2017:2085   */\n      tag_93\n      jump\t// in\n    tag_135:\n        /* \"#utility.yul\":2007:2085   */\n      swap4\n      pop\n        /* \"#utility.yul\":1963:2095   */\n      pop\n        /* \"#utility.yul\":2134:2136   */\n      0x20\n        /* \"#utility.yul\":2160:2213   */\n      tag_136\n        /* \"#utility.yul\":2205:2212   */\n      dup7\n        /* \"#utility.yul\":2196:2202   */\n      dup3\n        /* \"#utility.yul\":2185:2194   */\n      dup8\n        /* \"#utility.yul\":2181:2203   */\n      add\n        /* \"#utility.yul\":2160:2213   */\n      tag_88\n      jump\t// in\n    tag_136:\n        /* \"#utility.yul\":2150:2213   */\n      swap3\n      pop\n        /* \"#utility.yul\":2105:2223   */\n      pop\n        /* \"#utility.yul\":2262:2264   */\n      0x40\n        /* \"#utility.yul\":2288:2341   */\n      tag_137\n        /* \"#utility.yul\":2333:2340   */\n      dup7\n        /* \"#utility.yul\":2324:2330   */\n      dup3\n        /* \"#utility.yul\":2313:2322   */\n      dup8\n        /* \"#utility.yul\":2309:2331   */\n      add\n        /* \"#utility.yul\":2288:2341   */\n      tag_88\n      jump\t// in\n    tag_137:\n        /* \"#utility.yul\":2278:2341   */\n      swap2\n      pop\n        /* \"#utility.yul\":2233:2351   */\n      pop\n        /* \"#utility.yul\":1709:2358   */\n      swap3\n      pop\n      swap3\n      pop\n      swap3\n      jump\t// out\n        /* \"#utility.yul\":2364:2482   */\n    tag_94:\n        /* \"#utility.yul\":2451:2475   */\n      tag_139\n        /* \"#utility.yul\":2469:2474   */\n      dup2\n        /* \"#utility.yul\":2451:2475   */\n      tag_90\n      jump\t// in\n    tag_139:\n        /* \"#utility.yul\":2446:2449   */\n      dup3\n        /* \"#utility.yul\":2439:2476   */\n      mstore\n        /* \"#utility.yul\":2364:2482   */\n      pop\n      pop\n      jump\t// out\n        /* \"#utility.yul\":2488:2548   */\n    tag_95:\n        /* \"#utility.yul\":2516:2519   */\n      0x00\n        /* \"#utility.yul\":2537:2542   */\n      dup2\n        /* \"#utility.yul\":2530:2542   */\n      swap1\n      pop\n        /* \"#utility.yul\":2488:2548   */\n      swap2\n      swap1\n      pop\n      jump\t// out\n        /* \"#utility.yul\":2554:2696   */\n    tag_96:\n        /* \"#utility.yul\":2604:2613   */\n      0x00\n        /* \"#utility.yul\":2637:2690   */\n      tag_142\n        /* \"#utility.yul\":2655:2689   */\n      tag_143\n        /* \"#utility.yul\":2664:2688   */\n      tag_144\n        /* \"#utility.yul\":2682:2687   */\n      dup5\n        /* \"#utility.yul\":2664:2688   */\n      tag_89\n      jump\t// in\n    tag_144:\n        /* \"#utility.yul\":2655:2689   */\n      tag_95\n      jump\t// in\n    tag_143:\n        /* \"#utility.yul\":2637:2690   */\n      tag_89\n      jump\t// in\n    tag_142:\n        /* \"#utility.yul\":2624:2690   */\n      swap1\n      pop\n        /* \"#utility.yul\":2554:2696   */\n      swap2\n      swap1\n      pop\n      jump\t// out\n        /* \"#utility.yul\":2702:2828   */\n    tag_97:\n        /* \"#utility.yul\":2752:2761   */\n      0x00\n        /* \"#utility.yul\":2785:2822   */\n      tag_146\n        /* \"#utility.yul\":2816:2821   */\n      dup3\n        /* \"#utility.yul\":2785:2822   */\n      tag_96\n      jump\t// in\n    tag_146:\n        /* \"#utility.yul\":2772:2822   */\n      swap1\n      pop\n        /* \"#utility.yul\":2702:2828   */\n      swap2\n      swap1\n      pop\n      jump\t// out\n        /* \"#utility.yul\":2834:2975   */\n    tag_98:\n        /* \"#utility.yul\":2899:2908   */\n      0x00\n        /* \"#utility.yul\":2932:2969   */\n      tag_148\n        /* \"#utility.yul\":2963:2968   */\n      dup3\n        /* \"#utility.yul\":2932:2969   */\n      tag_97\n      jump\t// in\n    tag_148:\n        /* \"#utility.yul\":2919:2969   */\n      swap1\n      pop\n        /* \"#utility.yul\":2834:2975   */\n      swap2\n      swap1\n      pop\n      jump\t// out\n        /* \"#utility.yul\":2981:3142   */\n    tag_99:\n        /* \"#utility.yul\":3083:3135   */\n      tag_150\n        /* \"#utility.yul\":3129:3134   */\n      dup2\n        /* \"#utility.yul\":3083:3135   */\n      tag_98\n      jump\t// in\n    tag_150:\n        /* \"#utility.yul\":3078:3081   */\n      dup3\n        /* \"#utility.yul\":3071:3136   */\n      mstore\n        /* \"#utility.yul\":2981:3142   */\n      pop\n      pop\n      jump\t// out\n        /* \"#utility.yul\":3148:3266   */\n    tag_100:\n        /* \"#utility.yul\":3235:3259   */\n      tag_152\n        /* \"#utility.yul\":3253:3258   */\n      dup2\n        /* \"#utility.yul\":3235:3259   */\n      tag_86\n      jump\t// in\n    tag_152:\n        /* \"#utility.yul\":3230:3233   */\n      dup3\n        /* \"#utility.yul\":3223:3260   */\n      mstore\n        /* \"#utility.yul\":3148:3266   */\n      pop\n      pop\n      jump\t// out\n        /* \"#utility.yul\":3272:3362   */\n    tag_101:\n        /* \"#utility.yul\":3306:3313   */\n      0x00\n        /* \"#utility.yul\":3349:3354   */\n      dup2\n        /* \"#utility.yul\":3342:3355   */\n      iszero\n        /* \"#utility.yul\":3335:3356   */\n      iszero\n        /* \"#utility.yul\":3324:3356   */\n      swap1\n      pop\n        /* \"#utility.yul\":3272:3362   */\n      swap2\n      swap1\n      pop\n      jump\t// out\n        /* \"#utility.yul\":3368:3477   */\n    tag_102:\n        /* \"#utility.yul\":3449:3470   */\n      tag_155\n        /* \"#utility.yul\":3464:3469   */\n      dup2\n        /* \"#utility.yul\":3449:3470   */\n      tag_101\n      jump\t// in\n    tag_155:\n        /* \"#utility.yul\":3444:3447   */\n      dup3\n        /* \"#utility.yul\":3437:3471   */\n      mstore\n        /* \"#utility.yul\":3368:3477   */\n      pop\n      pop\n      jump\t// out\n        /* \"#utility.yul\":3483:4165   */\n    tag_24:\n        /* \"#utility.yul\":3697:3701   */\n      0x00\n        /* \"#utility.yul\":3735:3738   */\n      0xa0\n        /* \"#utility.yul\":3724:3733   */\n      dup3\n        /* \"#utility.yul\":3720:3739   */\n      add\n        /* \"#utility.yul\":3712:3739   */\n      swap1\n      pop\n        /* \"#utility.yul\":3749:3820   */\n      tag_157\n        /* \"#utility.yul\":3817:3818   */\n      0x00\n        /* \"#utility.yul\":3806:3815   */\n      dup4\n        /* \"#utility.yul\":3802:3819   */\n      add\n        /* \"#utility.yul\":3793:3799   */\n      dup9\n        /* \"#utility.yul\":3749:3820   */\n      tag_94\n      jump\t// in\n    tag_157:\n        /* \"#utility.yul\":3830:3917   */\n      tag_158\n        /* \"#utility.yul\":3913:3915   */\n      0x20\n        /* \"#utility.yul\":3902:3911   */\n      dup4\n        /* \"#utility.yul\":3898:3916   */\n      add\n        /* \"#utility.yul\":3889:3895   */\n      dup8\n        /* \"#utility.yul\":3830:3917   */\n      tag_99\n      jump\t// in\n    tag_158:\n        /* \"#utility.yul\":3927:3999   */\n      tag_159\n        /* \"#utility.yul\":3995:3997   */\n      0x40\n        /* \"#utility.yul\":3984:3993   */\n      dup4\n        /* \"#utility.yul\":3980:3998   */\n      add\n        /* \"#utility.yul\":3971:3977   */\n      dup7\n        /* \"#utility.yul\":3927:3999   */\n      tag_100\n      jump\t// in\n    tag_159:\n        /* \"#utility.yul\":4009:4081   */\n      tag_160\n        /* \"#utility.yul\":4077:4079   */\n      0x60\n        /* \"#utility.yul\":4066:4075   */\n      dup4\n        /* \"#utility.yul\":4062:4080   */\n      add\n        /* \"#utility.yul\":4053:4059   */\n      dup6\n        /* \"#utility.yul\":4009:4081   */\n      tag_100\n      jump\t// in\n    tag_160:\n        /* \"#utility.yul\":4091:4158   */\n      tag_161\n        /* \"#utility.yul\":4153:4156   */\n      0x80\n        /* \"#utility.yul\":4142:4151   */\n      dup4\n        /* \"#utility.yul\":4138:4157   */\n      add\n        /* \"#utility.yul\":4129:4135   */\n      dup5\n        /* \"#utility.yul\":4091:4158   */\n      tag_102\n      jump\t// in\n    tag_161:\n        /* \"#utility.yul\":3483:4165   */\n      swap7\n      swap6\n      pop\n      pop\n      pop\n      pop\n      pop\n      pop\n      jump\t// out\n        /* \"#utility.yul\":4171:4351   */\n    tag_28:\n        /* \"#utility.yul\":4219:4296   */\n      0x4e487b7100000000000000000000000000000000000000000000000000000000\n        /* \"#utility.yul\":4216:4217   */\n      0x00\n        /* \"#utility.yul\":4209:4297   */\n      mstore\n        /* \"#utility.yul\":4316:4320   */\n      0x32\n        /* \"#utility.yul\":4313:4314   */\n      0x04\n        /* \"#utility.yul\":4306:4321   */\n      mstore\n        /* \"#utility.yul\":4340:4344   */\n      0x24\n        /* \"#utility.yul\":4337:4338   */\n      0x00\n        /* \"#utility.yul\":4330:4345   */\n      revert\n        /* \"#utility.yul\":4357:4799   */\n    tag_45:\n        /* \"#utility.yul\":4506:4510   */\n      0x00\n        /* \"#utility.yul\":4544:4546   */\n      0x60\n        /* \"#utility.yul\":4533:4542   */\n      dup3\n        /* \"#utility.yul\":4529:4547   */\n      add\n        /* \"#utility.yul\":4521:4547   */\n      swap1\n      pop\n        /* \"#utility.yul\":4557:4628   */\n      tag_164\n        /* \"#utility.yul\":4625:4626   */\n      0x00\n        /* \"#utility.yul\":4614:4623   */\n      dup4\n        /* \"#utility.yul\":4610:4627   */\n      add\n        /* \"#utility.yul\":4601:4607   */\n      dup7\n        /* \"#utility.yul\":4557:4628   */\n      tag_94\n      jump\t// in\n    tag_164:\n        /* \"#utility.yul\":4638:4710   */\n      tag_165\n        /* \"#utility.yul\":4706:4708   */\n      0x20\n        /* \"#utility.yul\":4695:4704   */\n      dup4\n        /* \"#utility.yul\":4691:4709   */\n      add\n        /* \"#utility.yul\":4682:4688   */\n      dup6\n        /* \"#utility.yul\":4638:4710   */\n      tag_94\n      jump\t// in\n    tag_165:\n        /* \"#utility.yul\":4720:4792   */\n      tag_166\n        /* \"#utility.yul\":4788:4790   */\n      0x40\n        /* \"#utility.yul\":4777:4786   */\n      dup4\n        /* \"#utility.yul\":4773:4791   */\n      add\n        /* \"#utility.yul\":4764:4770   */\n      dup5\n        /* \"#utility.yul\":4720:4792   */\n      tag_100\n      jump\t// in\n    tag_166:\n        /* \"#utility.yul\":4357:4799   */\n      swap5\n      swap4\n      pop\n      pop\n      pop\n      pop\n      jump\t// out\n        /* \"#utility.yul\":4805:4974   */\n    tag_103:\n        /* \"#utility.yul\":4889:4900   */\n      0x00\n        /* \"#utility.yul\":4923:4929   */\n      dup3\n        /* \"#utility.yul\":4918:4921   */\n      dup3\n        /* \"#utility.yul\":4911:4930   */\n      mstore\n        /* \"#utility.yul\":4963:4967   */\n      0x20\n        /* \"#utility.yul\":4958:4961   */\n      dup3\n        /* \"#utility.yul\":4954:4968   */\n      add\n        /* \"#utility.yul\":4939:4968   */\n      swap1\n      pop\n        /* \"#utility.yul\":4805:4974   */\n      swap3\n      swap2\n      pop\n      pop\n      jump\t// out\n        /* \"#utility.yul\":4980:5135   */\n    tag_104:\n        /* \"#utility.yul\":5120:5127   */\n      0x7072696365000000000000000000000000000000000000000000000000000000\n        /* \"#utility.yul\":5116:5117   */\n      0x00\n        /* \"#utility.yul\":5108:5114   */\n      dup3\n        /* \"#utility.yul\":5104:5118   */\n      add\n        /* \"#utility.yul\":5097:5128   */\n      mstore\n        /* \"#utility.yul\":4980:5135   */\n      pop\n      jump\t// out\n        /* \"#utility.yul\":5141:5506   */\n    tag_105:\n        /* \"#utility.yul\":5283:5286   */\n      0x00\n        /* \"#utility.yul\":5304:5370   */\n      tag_170\n        /* \"#utility.yul\":5368:5369   */\n      0x05\n        /* \"#utility.yul\":5363:5366   */\n      dup4\n        /* \"#utility.yul\":5304:5370   */\n      tag_103\n      jump\t// in\n    tag_170:\n        /* \"#utility.yul\":5297:5370   */\n      swap2\n      pop\n        /* \"#utility.yul\":5379:5472   */\n      tag_171\n        /* \"#utility.yul\":5468:5471   */\n      dup3\n        /* \"#utility.yul\":5379:5472   */\n      tag_104\n      jump\t// in\n    tag_171:\n        /* \"#utility.yul\":5497:5499   */\n      0x20\n        /* \"#utility.yul\":5492:5495   */\n      dup3\n        /* \"#utility.yul\":5488:5500   */\n      add\n        /* \"#utility.yul\":5481:5500   */\n      swap1\n      pop\n        /* \"#utility.yul\":5141:5506   */\n      swap2\n      swap1\n      pop\n      jump\t// out\n        /* \"#utility.yul\":5512:5931   */\n    tag_55:\n        /* \"#utility.yul\":5678:5682   */\n      0x00\n        /* \"#utility.yul\":5716:5718   */\n      0x20\n        /* \"#utility.yul\":5705:5714   */\n      dup3\n        /* \"#utility.yul\":5701:5719   */\n      add\n        /* \"#utility.yul\":5693:5719   */\n      swap1\n      pop\n        /* \"#utility.yul\":5765:5774   */\n      dup2\n        /* \"#utility.yul\":5759:5763   */\n      dup2\n        /* \"#utility.yul\":5755:5775   */\n      sub\n        /* \"#utility.yul\":5751:5752   */\n      0x00\n        /* \"#utility.yul\":5740:5749   */\n      dup4\n        /* \"#utility.yul\":5736:5753   */\n      add\n        /* \"#utility.yul\":5729:5776   */\n      mstore\n        /* \"#utility.yul\":5793:5924   */\n      tag_173\n        /* \"#utility.yul\":5919:5923   */\n      dup2\n        /* \"#utility.yul\":5793:5924   */\n      tag_105\n      jump\t// in\n    tag_173:\n        /* \"#utility.yul\":5785:5924   */\n      swap1\n      pop\n        /* \"#utility.yul\":5512:5931   */\n      swap2\n      swap1\n      pop\n      jump\t// out\n        /* \"#utility.yul\":5937:6093   */\n    tag_106:\n        /* \"#utility.yul\":6077:6085   */\n      0x6163746976650000000000000000000000000000000000000000000000000000\n        /* \"#utility.yul\":6073:6074   */\n      0x00\n        /* \"#utility.yul\":6065:6071   */\n      dup3\n        /* \"#utility.yul\":6061:6075   */\n      add\n        /* \"#utility.yul\":6054:6086   */\n      mstore\n        /* \"#utility.yul\":5937:6093   */\n      pop\n      jump\t// out\n        /* \"#utility.yul\":6099:6464   */\n    tag_107:\n        /* \"#utility.yul\":6241:6244   */\n      0x00\n        /* \"#utility.yul\":6262:6328   */\n      tag_176\n        /* \"#utility.yul\":6326:6327   */\n      0x06\n        /* \"#utility.yul\":6321:6324   */\n      dup4\n        /* \"#utility.yul\":6262:6328   */\n      tag_103\n      jump\t// in\n    tag_176:\n        /* \"#utility.yul\":6255:6328   */\n      swap2\n      pop\n        /* \"#utility.yul\":6337:6430   */\n      tag_177\n        /* \"#utility.yul\":6426:6429   */\n      dup3\n        /* \"#utility.yul\":6337:6430   */\n      tag_106\n      jump\t// in\n    tag_177:\n        /* \"#utility.yul\":6455:6457   */\n      0x20\n        /* \"#utility.yul\":6450:6453   */\n      dup3\n        /* \"#utility.yul\":6446:6458   */\n      add\n        /* \"#utility.yul\":6439:6458   */\n      swap1\n      pop\n        /* \"#utility.yul\":6099:6464   */\n      swap2\n      swap1\n      pop\n      jump\t// out\n        /* \"#utility.yul\":6470:6889   */\n    tag_61:\n        /* \"#utility.yul\":6636:6640   */\n      0x00\n        /* \"#utility.yul\":6674:6676   */\n      0x20\n        /* \"#utility.yul\":6663:6672   */\n      dup3\n        /* \"#utility.yul\":6659:6677   */\n      add\n        /* \"#utility.yul\":6651:6677   */\n      swap1\n      pop\n        /* \"#utility.yul\":6723:6732   */\n      dup2\n        /* \"#utility.yul\":6717:6721   */\n      dup2\n        /* \"#utility.yul\":6713:6733   */\n      sub\n        /* \"#utility.yul\":6709:6710   */\n      0x00\n        /* \"#utility.yul\":6698:6707   */\n      dup4\n        /* \"#utility.yul\":6694:6711   */\n      add\n        /* \"#utility.yul\":6687:6734   */\n      mstore\n        /* \"#utility.yul\":6751:6882   */\n      tag_179\n        /* \"#utility.yul\":6877:6881   */\n      dup2\n        /* \"#utility.yul\":6751:6882   */\n      tag_107\n      jump\t// in\n    tag_179:\n        /* \"#utility.yul\":6743:6882   */\n      swap1\n      pop\n        /* \"#utility.yul\":6470:6889   */\n      swap2\n      swap1\n      pop\n      jump\t// out\n\n    auxdata: 0xa26469706673582212203730d87190c1dee1f4ff8c8ce202af3fa6bb10998f419e867b613574d82a38ad64736f6c63430008120033\n}\n",
				"bytecode": {
					"linkReferences": {},
					"object": "608060405234801561001057600080fd5b50610aac806100206000396000f3fe60806040526004361061003f5760003560e01c80631628e0f5146100445780639d5b88d01461006d578063c4f0ee3614610089578063e47e7e66146100b2575b600080fd5b34801561005057600080fd5b5061006b6004803603810190610066919061074c565b6100f3565b005b6100876004803603810190610082919061074c565b6102cc565b005b34801561009557600080fd5b506100b060048036038101906100ab91906107e9565b6104c5565b005b3480156100be57600080fd5b506100d960048036038101906100d4919061074c565b61067e565b6040516100ea9594939291906108d4565b60405180910390f35b3373ffffffffffffffffffffffffffffffffffffffff166000828154811061011e5761011d610927565b5b906000526020600020906005020160000160009054906101000a900473ffffffffffffffffffffffffffffffffffffffff1673ffffffffffffffffffffffffffffffffffffffff161461017057600080fd5b600115156000828154811061018857610187610927565b5b906000526020600020906005020160040160009054906101000a900460ff161515146101b357600080fd5b60008082815481106101c8576101c7610927565b5b906000526020600020906005020160040160006101000a81548160ff0219169083151502179055506000818154811061020457610203610927565b5b906000526020600020906005020160010160009054906101000a900473ffffffffffffffffffffffffffffffffffffffff1673ffffffffffffffffffffffffffffffffffffffff166323b872dd30336000858154811061026757610266610927565b5b9060005260206000209060050201600201546040518463ffffffff1660e01b815260040161029793929190610956565b600060405180830381600087803b1580156102b157600080fd5b505af11580156102c5573d6000803e3d6000fd5b5050505050565b34600082815481106102e1576102e0610927565b5b90600052602060002090600502016003015414610333576040517f08c379a000000000000000000000000000000000000000000000000000000000815260040161032a906109ea565b60405180910390fd5b600115156000828154811061034b5761034a610927565b5b906000526020600020906005020160040160009054906101000a900460ff161515146103ac576040517f08c379a00000000000000000000000000000000000000000000000000000000081526004016103a390610a56565b60405180910390fd5b60008082815481106103c1576103c0610927565b5b906000526020600020906005020160040160006101000a81548160ff021916908315150217905550600081815481106103fd576103fc610927565b5b906000526020600020906005020160010160009054906101000a900473ffffffffffffffffffffffffffffffffffffffff1673ffffffffffffffffffffffffffffffffffffffff166323b872dd3033600085815481106104605761045f610927565b5b9060005260206000209060050201600201546040518463ffffffff1660e01b815260040161049093929190610956565b600060405180830381600087803b1580156104aa57600080fd5b505af11580156104be573d6000803e3d6000fd5b5050505050565b60006040518060a001604052803373ffffffffffffffffffffffffffffffffffffffff1681526020018573ffffffffffffffffffffffffffffffffffffffff16815260200184815260200183815260200160011515815250908060018154018082558091505060019003906000526020600020906005020160009091909190915060008201518160000160006101000a81548173ffffffffffffffffffffffffffffffffffffffff021916908373ffffffffffffffffffffffffffffffffffffffff16021790555060208201518160010160006101000a81548173ffffffffffffffffffffffffffffffffffffffff021916908373ffffffffffffffffffffffffffffffffffffffff160217905550604082015181600201556060820151816003015560808201518160040160006101000a81548160ff02191690831515021790555050508273ffffffffffffffffffffffffffffffffffffffff166323b872dd3330856040518463ffffffff1660e01b815260040161064793929190610956565b600060405180830381600087803b15801561066157600080fd5b505af1158015610675573d6000803e3d6000fd5b50505050505050565b6000818154811061068e57600080fd5b90600052602060002090600502016000915090508060000160009054906101000a900473ffffffffffffffffffffffffffffffffffffffff16908060010160009054906101000a900473ffffffffffffffffffffffffffffffffffffffff16908060020154908060030154908060040160009054906101000a900460ff16905085565b600080fd5b6000819050919050565b61072981610716565b811461073457600080fd5b50565b60008135905061074681610720565b92915050565b60006020828403121561076257610761610711565b5b600061077084828501610737565b91505092915050565b600073ffffffffffffffffffffffffffffffffffffffff82169050919050565b60006107a482610779565b9050919050565b60006107b682610799565b9050919050565b6107c6816107ab565b81146107d157600080fd5b50565b6000813590506107e3816107bd565b92915050565b60008060006060848603121561080257610801610711565b5b6000610810868287016107d4565b935050602061082186828701610737565b925050604061083286828701610737565b9150509250925092565b61084581610799565b82525050565b6000819050919050565b600061087061086b61086684610779565b61084b565b610779565b9050919050565b600061088282610855565b9050919050565b600061089482610877565b9050919050565b6108a481610889565b82525050565b6108b381610716565b82525050565b60008115159050919050565b6108ce816108b9565b82525050565b600060a0820190506108e9600083018861083c565b6108f6602083018761089b565b61090360408301866108aa565b61091060608301856108aa565b61091d60808301846108c5565b9695505050505050565b7f4e487b7100000000000000000000000000000000000000000000000000000000600052603260045260246000fd5b600060608201905061096b600083018661083c565b610978602083018561083c565b61098560408301846108aa565b949350505050565b600082825260208201905092915050565b7f7072696365000000000000000000000000000000000000000000000000000000600082015250565b60006109d460058361098d565b91506109df8261099e565b602082019050919050565b60006020820190508181036000830152610a03816109c7565b9050919050565b7f6163746976650000000000000000000000000000000000000000000000000000600082015250565b6000610a4060068361098d565b9150610a4b82610a0a565b602082019050919050565b60006020820190508181036000830152610a6f81610a33565b905091905056fea26469706673582212203730d87190c1dee1f4ff8c8ce202af3fa6bb10998f419e867b613574d82a38ad64736f6c63430008120033",
					"opcodes": "PUSH1 0x80 PUSH1 0x40 MSTORE CALLVALUE DUP1 ISZERO PUSH2 0x10 JUMPI PUSH1 0x0 DUP1 REVERT JUMPDEST POP PUSH2 0xAAC DUP1 PUSH2 0x20 PUSH1 0x0 CODECOPY PUSH1 0x0 RETURN INVALID PUSH1 0x80 PUSH1 0x40 MSTORE PUSH1 0x4 CALLDATASIZE LT PUSH2 0x3F JUMPI PUSH1 0x0 CALLDATALOAD PUSH1 0xE0 SHR DUP1 PUSH4 0x1628E0F5 EQ PUSH2 0x44 JUMPI DUP1 PUSH4 0x9D5B88D0 EQ PUSH2 0x6D JUMPI DUP1 PUSH4 0xC4F0EE36 EQ PUSH2 0x89 JUMPI DUP1 PUSH4 0xE47E7E66 EQ PUSH2 0xB2 JUMPI JUMPDEST PUSH1 0x0 DUP1 REVERT JUMPDEST CALLVALUE DUP1 ISZERO PUSH2 0x50 JUMPI PUSH1 0x0 DUP1 REVERT JUMPDEST POP PUSH2 0x6B PUSH1 0x4 DUP1 CALLDATASIZE SUB DUP2 ADD SWAP1 PUSH2 0x66 SWAP2 SWAP1 PUSH2 0x74C JUMP JUMPDEST PUSH2 0xF3 JUMP JUMPDEST STOP JUMPDEST PUSH2 0x87 PUSH1 0x4 DUP1 CALLDATASIZE SUB DUP2 ADD SWAP1 PUSH2 0x82 SWAP2 SWAP1 PUSH2 0x74C JUMP JUMPDEST PUSH2 0x2CC JUMP JUMPDEST STOP JUMPDEST CALLVALUE DUP1 ISZERO PUSH2 0x95 JUMPI PUSH1 0x0 DUP1 REVERT JUMPDEST POP PUSH2 0xB0 PUSH1 0x4 DUP1 CALLDATASIZE SUB DUP2 ADD SWAP1 PUSH2 0xAB SWAP2 SWAP1 PUSH2 0x7E9 JUMP JUMPDEST PUSH2 0x4C5 JUMP JUMPDEST STOP JUMPDEST CALLVALUE DUP1 ISZERO PUSH2 0xBE JUMPI PUSH1 0x0 DUP1 REVERT JUMPDEST POP PUSH2 0xD9 PUSH1 0x4 DUP1 CALLDATASIZE SUB DUP2 ADD SWAP1 PUSH2 0xD4 SWAP2 SWAP1 PUSH2 0x74C JUMP JUMPDEST PUSH2 0x67E JUMP JUMPDEST PUSH1 0x40 MLOAD PUSH2 0xEA SWAP6 SWAP5 SWAP4 SWAP3 SWAP2 SWAP1 PUSH2 0x8D4 JUMP JUMPDEST PUSH1 0x40 MLOAD DUP1 SWAP2 SUB SWAP1 RETURN JUMPDEST CALLER PUSH20 0xFFFFFFFFFFFFFFFFFFFFFFFFFFFFFFFFFFFFFFFF AND PUSH1 0x0 DUP3 DUP2 SLOAD DUP2 LT PUSH2 0x11E JUMPI PUSH2 0x11D PUSH2 0x927 JUMP JUMPDEST JUMPDEST SWAP1 PUSH1 0x0 MSTORE PUSH1 0x20 PUSH1 0x0 KECCAK256 SWAP1 PUSH1 0x5 MUL ADD PUSH1 0x0 ADD PUSH1 0x0 SWAP1 SLOAD SWAP1 PUSH2 0x100 EXP SWAP1 DIV PUSH20 0xFFFFFFFFFFFFFFFFFFFFFFFFFFFFFFFFFFFFFFFF AND PUSH20 0xFFFFFFFFFFFFFFFFFFFFFFFFFFFFFFFFFFFFFFFF AND EQ PUSH2 0x170 JUMPI PUSH1 0x0 DUP1 REVERT JUMPDEST PUSH1 0x1 ISZERO ISZERO PUSH1 0x0 DUP3 DUP2 SLOAD DUP2 LT PUSH2 0x188 JUMPI PUSH2 0x187 PUSH2 0x927 JUMP JUMPDEST JUMPDEST SWAP1 PUSH1 0x0 MSTORE PUSH1 0x20 PUSH1 0x0 KECCAK256 SWAP1 PUSH1 0x5 MUL ADD PUSH1 0x4 ADD PUSH1 0x0 SWAP1 SLOAD SWAP1 PUSH2 0x100 EXP SWAP1 DIV PUSH1 0xFF AND ISZERO ISZERO EQ PUSH2 0x1B3 JUMPI PUSH1 0x0 DUP1 REVERT JUMPDEST PUSH1 0x0 DUP1 DUP3 DUP2 SLOAD DUP2 LT PUSH2 0x1C8 JUMPI PUSH2 0x1C7 PUSH2 0x927 JUMP JUMPDEST JUMPDEST SWAP1 PUSH1 0x0 MSTORE PUSH1 0x20 PUSH1 0x0 KECCAK256 SWAP1 PUSH1 0x5 MUL ADD PUSH1 0x4 ADD PUSH1 0x0 PUSH2 0x100 EXP DUP2 SLOAD DUP2 PUSH1 0xFF MUL NOT AND SWAP1 DUP4 ISZERO ISZERO MUL OR SWAP1 SSTORE POP PUSH1 0x0 DUP2 DUP2 SLOAD DUP2 LT PUSH2 0x204 JUMPI PUSH2 0x203 PUSH2 0x927 JUMP JUMPDEST JUMPDEST SWAP1 PUSH1 0x0 MSTORE PUSH1 0x20 PUSH1 0x0 KECCAK256 SWAP1 PUSH1 0x5 MUL ADD PUSH1 0x1 ADD PUSH1 0x0 SWAP1 SLOAD SWAP1 PUSH2 0x100 EXP SWAP1 DIV PUSH20 0xFFFFFFFFFFFFFFFFFFFFFFFFFFFFFFFFFFFFFFFF AND PUSH20 0xFFFFFFFFFFFFFFFFFFFFFFFFFFFFFFFFFFFFFFFF AND PUSH4 0x23B872DD ADDRESS CALLER PUSH1 0x0 DUP6 DUP2 SLOAD DUP2 LT PUSH2 0x267 JUMPI PUSH2 0x266 PUSH2 0x927 JUMP JUMPDEST JUMPDEST SWAP1 PUSH1 0x0 MSTORE PUSH1 0x20 PUSH1 0x0 KECCAK256 SWAP1 PUSH1 0x5 MUL ADD PUSH1 0x2 ADD SLOAD PUSH1 0x40 MLOAD DUP5 PUSH4 0xFFFFFFFF AND PUSH1 0xE0 SHL DUP2 MSTORE PUSH1 0x4 ADD PUSH2 0x297 SWAP4 SWAP3 SWAP2 SWAP1 PUSH2 0x956 JUMP JUMPDEST PUSH1 0x0 PUSH1 0x40 MLOAD DUP1 DUP4 SUB DUP2 PUSH1 0x0 DUP8 DUP1 EXTCODESIZE ISZERO DUP1 ISZERO PUSH2 0x2B1 JUMPI PUSH1 0x0 DUP1 REVERT JUMPDEST POP GAS CALL ISZERO DUP1 ISZERO PUSH2 0x2C5 JUMPI RETURNDATASIZE PUSH1 0x0 DUP1 RETURNDATACOPY RETURNDATASIZE PUSH1 0x0 REVERT JUMPDEST POP POP POP POP POP JUMP JUMPDEST CALLVALUE PUSH1 0x0 DUP3 DUP2 SLOAD DUP2 LT PUSH2 0x2E1 JUMPI PUSH2 0x2E0 PUSH2 0x927 JUMP JUMPDEST JUMPDEST SWAP1 PUSH1 0x0 MSTORE PUSH1 0x20 PUSH1 0x0 KECCAK256 SWAP1 PUSH1 0x5 MUL ADD PUSH1 0x3 ADD SLOAD EQ PUSH2 0x333 JUMPI PUSH1 0x40 MLOAD PUSH32 0x8C379A000000000000000000000000000000000000000000000000000000000 DUP2 MSTORE PUSH1 0x4 ADD PUSH2 0x32A SWAP1 PUSH2 0x9EA JUMP JUMPDEST PUSH1 0x40 MLOAD DUP1 SWAP2 SUB SWAP1 REVERT JUMPDEST PUSH1 0x1 ISZERO ISZERO PUSH1 0x0 DUP3 DUP2 SLOAD DUP2 LT PUSH2 0x34B JUMPI PUSH2 0x34A PUSH2 0x927 JUMP JUMPDEST JUMPDEST SWAP1 PUSH1 0x0 MSTORE PUSH1 0x20 PUSH1 0x0 KECCAK256 SWAP1 PUSH1 0x5 MUL ADD PUSH1 0x4 ADD PUSH1 0x0 SWAP1 SLOAD SWAP1 PUSH2 0x100 EXP SWAP1 DIV PUSH1 0xFF AND ISZERO ISZERO EQ PUSH2 0x3AC JUMPI PUSH1 0x40 MLOAD PUSH32 0x8C379A000000000000000000000000000000000000000000000000000000000 DUP2 MSTORE PUSH1 0x4 ADD PUSH2 0x3A3 SWAP1 PUSH2 0xA56 JUMP JUMPDEST PUSH1 0x40 MLOAD DUP1 SWAP2 SUB SWAP1 REVERT JUMPDEST PUSH1 0x0 DUP1 DUP3 DUP2 SLOAD DUP2 LT PUSH2 0x3C1 JUMPI PUSH2 0x3C0 PUSH2 0x927 JUMP JUMPDEST JUMPDEST SWAP1 PUSH1 0x0 MSTORE PUSH1 0x20 PUSH1 0x0 KECCAK256 SWAP1 PUSH1 0x5 MUL ADD PUSH1 0x4 ADD PUSH1 0x0 PUSH2 0x100 EXP DUP2 SLOAD DUP2 PUSH1 0xFF MUL NOT AND SWAP1 DUP4 ISZERO ISZERO MUL OR SWAP1 SSTORE POP PUSH1 0x0 DUP2 DUP2 SLOAD DUP2 LT PUSH2 0x3FD JUMPI PUSH2 0x3FC PUSH2 0x927 JUMP JUMPDEST JUMPDEST SWAP1 PUSH1 0x0 MSTORE PUSH1 0x20 PUSH1 0x0 KECCAK256 SWAP1 PUSH1 0x5 MUL ADD PUSH1 0x1 ADD PUSH1 0x0 SWAP1 SLOAD SWAP1 PUSH2 0x100 EXP SWAP1 DIV PUSH20 0xFFFFFFFFFFFFFFFFFFFFFFFFFFFFFFFFFFFFFFFF AND PUSH20 0xFFFFFFFFFFFFFFFFFFFFFFFFFFFFFFFFFFFFFFFF AND PUSH4 0x23B872DD ADDRESS CALLER PUSH1 0x0 DUP6 DUP2 SLOAD DUP2 LT PUSH2 0x460 JUMPI PUSH2 0x45F PUSH2 0x927 JUMP JUMPDEST JUMPDEST SWAP1 PUSH1 0x0 MSTORE PUSH1 0x20 PUSH1 0x0 KECCAK256 SWAP1 PUSH1 0x5 MUL ADD PUSH1 0x2 ADD SLOAD PUSH1 0x40 MLOAD DUP5 PUSH4 0xFFFFFFFF AND PUSH1 0xE0 SHL DUP2 MSTORE PUSH1 0x4 ADD PUSH2 0x490 SWAP4 SWAP3 SWAP2 SWAP1 PUSH2 0x956 JUMP JUMPDEST PUSH1 0x0 PUSH1 0x40 MLOAD DUP1 DUP4 SUB DUP2 PUSH1 0x0 DUP8 DUP1 EXTCODESIZE ISZERO DUP1 ISZERO PUSH2 0x4AA JUMPI PUSH1 0x0 DUP1 REVERT JUMPDEST POP GAS CALL ISZERO DUP1 ISZERO PUSH2 0x4BE JUMPI RETURNDATASIZE PUSH1 0x0 DUP1 RETURNDATACOPY RETURNDATASIZE PUSH1 0x0 REVERT JUMPDEST POP POP POP POP POP JUMP JUMPDEST PUSH1 0x0 PUSH1 0x40 MLOAD DUP1 PUSH1 0xA0 ADD PUSH1 0x40 MSTORE DUP1 CALLER PUSH20 0xFFFFFFFFFFFFFFFFFFFFFFFFFFFFFFFFFFFFFFFF AND DUP2 MSTORE PUSH1 0x20 ADD DUP6 PUSH20 0xFFFFFFFFFFFFFFFFFFFFFFFFFFFFFFFFFFFFFFFF AND DUP2 MSTORE PUSH1 0x20 ADD DUP5 DUP2 MSTORE PUSH1 0x20 ADD DUP4 DUP2 MSTORE PUSH1 0x20 ADD PUSH1 0x1 ISZERO ISZERO DUP2 MSTORE POP SWAP1 DUP1 PUSH1 0x1 DUP2 SLOAD ADD DUP1 DUP3 SSTORE DUP1 SWAP2 POP POP PUSH1 0x1 SWAP1 SUB SWAP1 PUSH1 0x0 MSTORE PUSH1 0x20 PUSH1 0x0 KECCAK256 SWAP1 PUSH1 0x5 MUL ADD PUSH1 0x0 SWAP1 SWAP2 SWAP1 SWAP2 SWAP1 SWAP2 POP PUSH1 0x0 DUP3 ADD MLOAD DUP2 PUSH1 0x0 ADD PUSH1 0x0 PUSH2 0x100 EXP DUP2 SLOAD DUP2 PUSH20 0xFFFFFFFFFFFFFFFFFFFFFFFFFFFFFFFFFFFFFFFF MUL NOT AND SWAP1 DUP4 PUSH20 0xFFFFFFFFFFFFFFFFFFFFFFFFFFFFFFFFFFFFFFFF AND MUL OR SWAP1 SSTORE POP PUSH1 0x20 DUP3 ADD MLOAD DUP2 PUSH1 0x1 ADD PUSH1 0x0 PUSH2 0x100 EXP DUP2 SLOAD DUP2 PUSH20 0xFFFFFFFFFFFFFFFFFFFFFFFFFFFFFFFFFFFFFFFF MUL NOT AND SWAP1 DUP4 PUSH20 0xFFFFFFFFFFFFFFFFFFFFFFFFFFFFFFFFFFFFFFFF AND MUL OR SWAP1 SSTORE POP PUSH1 0x40 DUP3 ADD MLOAD DUP2 PUSH1 0x2 ADD SSTORE PUSH1 0x60 DUP3 ADD MLOAD DUP2 PUSH1 0x3 ADD SSTORE PUSH1 0x80 DUP3 ADD MLOAD DUP2 PUSH1 0x4 ADD PUSH1 0x0 PUSH2 0x100 EXP DUP2 SLOAD DUP2 PUSH1 0xFF MUL NOT AND SWAP1 DUP4 ISZERO ISZERO MUL OR SWAP1 SSTORE POP POP POP DUP3 PUSH20 0xFFFFFFFFFFFFFFFFFFFFFFFFFFFFFFFFFFFFFFFF AND PUSH4 0x23B872DD CALLER ADDRESS DUP6 PUSH1 0x40 MLOAD DUP5 PUSH4 0xFFFFFFFF AND PUSH1 0xE0 SHL DUP2 MSTORE PUSH1 0x4 ADD PUSH2 0x647 SWAP4 SWAP3 SWAP2 SWAP1 PUSH2 0x956 JUMP JUMPDEST PUSH1 0x0 PUSH1 0x40 MLOAD DUP1 DUP4 SUB DUP2 PUSH1 0x0 DUP8 DUP1 EXTCODESIZE ISZERO DUP1 ISZERO PUSH2 0x661 JUMPI PUSH1 0x0 DUP1 REVERT JUMPDEST POP GAS CALL ISZERO DUP1 ISZERO PUSH2 0x675 JUMPI RETURNDATASIZE PUSH1 0x0 DUP1 RETURNDATACOPY RETURNDATASIZE PUSH1 0x0 REVERT JUMPDEST POP POP POP POP POP POP POP JUMP JUMPDEST PUSH1 0x0 DUP2 DUP2 SLOAD DUP2 LT PUSH2 0x68E JUMPI PUSH1 0x0 DUP1 REVERT JUMPDEST SWAP1 PUSH1 0x0 MSTORE PUSH1 0x20 PUSH1 0x0 KECCAK256 SWAP1 PUSH1 0x5 MUL ADD PUSH1 0x0 SWAP2 POP SWAP1 POP DUP1 PUSH1 0x0 ADD PUSH1 0x0 SWAP1 SLOAD SWAP1 PUSH2 0x100 EXP SWAP1 DIV PUSH20 0xFFFFFFFFFFFFFFFFFFFFFFFFFFFFFFFFFFFFFFFF AND SWAP1 DUP1 PUSH1 0x1 ADD PUSH1 0x0 SWAP1 SLOAD SWAP1 PUSH2 0x100 EXP SWAP1 DIV PUSH20 0xFFFFFFFFFFFFFFFFFFFFFFFFFFFFFFFFFFFFFFFF AND SWAP1 DUP1 PUSH1 0x2 ADD SLOAD SWAP1 DUP1 PUSH1 0x3 ADD SLOAD SWAP1 DUP1 PUSH1 0x4 ADD PUSH1 0x0 SWAP1 SLOAD SWAP1 PUSH2 0x100 EXP SWAP1 DIV PUSH1 0xFF AND SWAP1 POP DUP6 JUMP JUMPDEST PUSH1 0x0 DUP1 REVERT JUMPDEST PUSH1 0x0 DUP2 SWAP1 POP SWAP2 SWAP1 POP JUMP JUMPDEST PUSH2 0x729 DUP2 PUSH2 0x716 JUMP JUMPDEST DUP2 EQ PUSH2 0x734 JUMPI PUSH1 0x0 DUP1 REVERT JUMPDEST POP JUMP JUMPDEST PUSH1 0x0 DUP2 CALLDATALOAD SWAP1 POP PUSH2 0x746 DUP2 PUSH2 0x720 JUMP JUMPDEST SWAP3 SWAP2 POP POP JUMP JUMPDEST PUSH1 0x0 PUSH1 0x20 DUP3 DUP5 SUB SLT ISZERO PUSH2 0x762 JUMPI PUSH2 0x761 PUSH2 0x711 JUMP JUMPDEST JUMPDEST PUSH1 0x0 PUSH2 0x770 DUP5 DUP3 DUP6 ADD PUSH2 0x737 JUMP JUMPDEST SWAP2 POP POP SWAP3 SWAP2 POP POP JUMP JUMPDEST PUSH1 0x0 PUSH20 0xFFFFFFFFFFFFFFFFFFFFFFFFFFFFFFFFFFFFFFFF DUP3 AND SWAP1 POP SWAP2 SWAP1 POP JUMP JUMPDEST PUSH1 0x0 PUSH2 0x7A4 DUP3 PUSH2 0x779 JUMP JUMPDEST SWAP1 POP SWAP2 SWAP1 POP JUMP JUMPDEST PUSH1 0x0 PUSH2 0x7B6 DUP3 PUSH2 0x799 JUMP JUMPDEST SWAP1 POP SWAP2 SWAP1 POP JUMP JUMPDEST PUSH2 0x7C6 DUP2 PUSH2 0x7AB JUMP JUMPDEST DUP2 EQ PUSH2 0x7D1 JUMPI PUSH1 0x0 DUP1 REVERT JUMPDEST POP JUMP JUMPDEST PUSH1 0x0 DUP2 CALLDATALOAD SWAP1 POP PUSH2 0x7E3 DUP2 PUSH2 0x7BD JUMP JUMPDEST SWAP3 SWAP2 POP POP JUMP JUMPDEST PUSH1 0x0 DUP1 PUSH1 0x0 PUSH1 0x60 DUP5 DUP7 SUB SLT ISZERO PUSH2 0x802 JUMPI PUSH2 0x801 PUSH2 0x711 JUMP JUMPDEST JUMPDEST PUSH1 0x0 PUSH2 0x810 DUP7 DUP3 DUP8 ADD PUSH2 0x7D4 JUMP JUMPDEST SWAP4 POP POP PUSH1 0x20 PUSH2 0x821 DUP7 DUP3 DUP8 ADD PUSH2 0x737 JUMP JUMPDEST SWAP3 POP POP PUSH1 0x40 PUSH2 0x832 DUP7 DUP3 DUP8 ADD PUSH2 0x737 JUMP JUMPDEST SWAP2 POP POP SWAP3 POP SWAP3 POP SWAP3 JUMP JUMPDEST PUSH2 0x845 DUP2 PUSH2 0x799 JUMP JUMPDEST DUP3 MSTORE POP POP JUMP JUMPDEST PUSH1 0x0 DUP2 SWAP1 POP SWAP2 SWAP1 POP JUMP JUMPDEST PUSH1 0x0 PUSH2 0x870 PUSH2 0x86B PUSH2 0x866 DUP5 PUSH2 0x779 JUMP JUMPDEST PUSH2 0x84B JUMP JUMPDEST PUSH2 0x779 JUMP JUMPDEST SWAP1 POP SWAP2 SWAP1 POP JUMP JUMPDEST PUSH1 0x0 PUSH2 0x882 DUP3 PUSH2 0x855 JUMP JUMPDEST SWAP1 POP SWAP2 SWAP1 POP JUMP JUMPDEST PUSH1 0x0 PUSH2 0x894 DUP3 PUSH2 0x877 JUMP JUMPDEST SWAP1 POP SWAP2 SWAP1 POP JUMP JUMPDEST PUSH2 0x8A4 DUP2 PUSH2 0x889 JUMP JUMPDEST DUP3 MSTORE POP POP JUMP JUMPDEST PUSH2 0x8B3 DUP2 PUSH2 0x716 JUMP JUMPDEST DUP3 MSTORE POP POP JUMP JUMPDEST PUSH1 0x0 DUP2 ISZERO ISZERO SWAP1 POP SWAP2 SWAP1 POP JUMP JUMPDEST PUSH2 0x8CE DUP2 PUSH2 0x8B9 JUMP JUMPDEST DUP3 MSTORE POP POP JUMP JUMPDEST PUSH1 0x0 PUSH1 0xA0 DUP3 ADD SWAP1 POP PUSH2 0x8E9 PUSH1 0x0 DUP4 ADD DUP9 PUSH2 0x83C JUMP JUMPDEST PUSH2 0x8F6 PUSH1 0x20 DUP4 ADD DUP8 PUSH2 0x89B JUMP JUMPDEST PUSH2 0x903 PUSH1 0x40 DUP4 ADD DUP7 PUSH2 0x8AA JUMP JUMPDEST PUSH2 0x910 PUSH1 0x60 DUP4 ADD DUP6 PUSH2 0x8AA JUMP JUMPDEST PUSH2 0x91D PUSH1 0x80 DUP4 ADD DUP5 PUSH2 0x8C5 JUMP JUMPDEST SWAP7 SWAP6 POP POP POP POP POP POP JUMP JUMPDEST PUSH32 0x4E487B7100000000000000000000000000000000000000000000000000000000 PUSH1 0x0 MSTORE PUSH1 0x32 PUSH1 0x4 MSTORE PUSH1 0x24 PUSH1 0x0 REVERT JUMPDEST PUSH1 0x0 PUSH1 0x60 DUP3 ADD SWAP1 POP PUSH2 0x96B PUSH1 0x0 DUP4 ADD DUP7 PUSH2 0x83C JUMP JUMPDEST PUSH2 0x978 PUSH1 0x20 DUP4 ADD DUP6 PUSH2 0x83C JUMP JUMPDEST PUSH2 0x985 PUSH1 0x40 DUP4 ADD DUP5 PUSH2 0x8AA JUMP JUMPDEST SWAP5 SWAP4 POP POP POP POP JUMP JUMPDEST PUSH1 0x0 DUP3 DUP3 MSTORE PUSH1 0x20 DUP3 ADD SWAP1 POP SWAP3 SWAP2 POP POP JUMP JUMPDEST PUSH32 0x7072696365000000000000000000000000000000000000000000000000000000 PUSH1 0x0 DUP3 ADD MSTORE POP JUMP JUMPDEST PUSH1 0x0 PUSH2 0x9D4 PUSH1 0x5 DUP4 PUSH2 0x98D JUMP JUMPDEST SWAP2 POP PUSH2 0x9DF DUP3 PUSH2 0x99E JUMP JUMPDEST PUSH1 0x20 DUP3 ADD SWAP1 POP SWAP2 SWAP1 POP JUMP JUMPDEST PUSH1 0x0 PUSH1 0x20 DUP3 ADD SWAP1 POP DUP2 DUP2 SUB PUSH1 0x0 DUP4 ADD MSTORE PUSH2 0xA03 DUP2 PUSH2 0x9C7 JUMP JUMPDEST SWAP1 POP SWAP2 SWAP1 POP JUMP JUMPDEST PUSH32 0x6163746976650000000000000000000000000000000000000000000000000000 PUSH1 0x0 DUP3 ADD MSTORE POP JUMP JUMPDEST PUSH1 0x0 PUSH2 0xA40 PUSH1 0x6 DUP4 PUSH2 0x98D JUMP JUMPDEST SWAP2 POP PUSH2 0xA4B DUP3 PUSH2 0xA0A JUMP JUMPDEST PUSH1 0x20 DUP3 ADD SWAP1 POP SWAP2 SWAP1 POP JUMP JUMPDEST PUSH1 0x0 PUSH1 0x20 DUP3 ADD SWAP1 POP DUP2 DUP2 SUB PUSH1 0x0 DUP4 ADD MSTORE PUSH2 0xA6F DUP2 PUSH2 0xA33 JUMP JUMPDEST SWAP1 POP SWAP2 SWAP1 POP JUMP INVALID LOG2 PUSH5 0x6970667358 0x22 SLT KECCAK256 CALLDATACOPY ADDRESS 0xD8 PUSH18 0x90C1DEE1F4FF8C8CE202AF3FA6BB10998F41 SWAP15 DUP7 PUSH28 0x613574D82A38AD64736F6C6343000812003300000000000000000000 "
				},
				"gasEstimates": {
					"creation": {
						"codeDepositCost": "546400",
						"executionCost": "581",
						"totalCost": "546981"
					},
					"external": {
						"acceptAsk(uint256)": "infinite",
						"ask(uint256)": "infinite",
						"cancelAsk(uint256)": "infinite",
						"createAsk(address,uint256,uint256)": "infinite"
					}
				},
				"methodIdentifiers": {
					"acceptAsk(uint256)": "9d5b88d0",
					"ask(uint256)": "e47e7e66",
					"cancelAsk(uint256)": "1628e0f5",
					"createAsk(address,uint256,uint256)": "c4f0ee36"
				}
			},
			"storageLayout": {
				"storage": [
					{
						"astId": 147,
						"contract": "NFTMarketplace.sol:NFTMarketplace",
						"label": "ask",
						"offset": 0,
						"slot": "0",
						"type": "t_array(t_struct(Ask)143_storage)dyn_storage"
					}
				],
				"types": {
					"t_address": {
						"encoding": "inplace",
						"label": "address",
						"numberOfBytes": "20"
					},
					"t_array(t_struct(Ask)143_storage)dyn_storage": {
						"base": "t_struct(Ask)143_storage",
						"encoding": "dynamic_array",
						"label": "struct Ask[]",
						"numberOfBytes": "32"
					},
					"t_bool": {
						"encoding": "inplace",
						"label": "bool",
						"numberOfBytes": "1"
					},
					"t_contract(IERC721)115": {
						"encoding": "inplace",
						"label": "contract IERC721",
						"numberOfBytes": "20"
					},
					"t_struct(Ask)143_storage": {
						"encoding": "inplace",
						"label": "struct Ask",
						"members": [
							{
								"astId": 133,
								"contract": "NFTMarketplace.sol:NFTMarketplace",
								"label": "owner",
								"offset": 0,
								"slot": "0",
								"type": "t_address"
							},
							{
								"astId": 136,
								"contract": "NFTMarketplace.sol:NFTMarketplace",
								"label": "nft",
								"offset": 0,
								"slot": "1",
								"type": "t_contract(IERC721)115"
							},
							{
								"astId": 138,
								"contract": "NFTMarketplace.sol:NFTMarketplace",
								"label": "nftId",
								"offset": 0,
								"slot": "2",
								"type": "t_uint256"
							},
							{
								"astId": 140,
								"contract": "NFTMarketplace.sol:NFTMarketplace",
								"label": "price",
								"offset": 0,
								"slot": "3",
								"type": "t_uint256"
							},
							{
								"astId": 142,
								"contract": "NFTMarketplace.sol:NFTMarketplace",
								"label": "active",
								"offset": 0,
								"slot": "4",
								"type": "t_bool"
							}
						],
						"numberOfBytes": "160"
					},
					"t_uint256": {
						"encoding": "inplace",
						"label": "uint256",
						"numberOfBytes": "32"
					}
				}
			},
			"userdoc": {
				"kind": "user",
				"methods": {},
				"version": 1
			}
		}
	}
}