{
	"SimpleSwap.sol": {
		"SimpleSwap": {
			"abi": [
				{
					"inputs": [
						{
							"internalType": "contract IERC20",
							"name": "sell",
							"type": "address"
						},
						{
							"internalType": "uint256",
							"name": "sellAmount",
							"type": "uint256"
						},
						{
							"internalType": "contract IERC20",
							"name": "buy",
							"type": "address"
						},
						{
							"internalType": "uint256",
							"name": "buyAmount",
							"type": "uint256"
						}
					],
					"name": "Add",
					"outputs": [
						{
							"internalType": "bool",
							"name": "",
							"type": "bool"
						}
					],
					"stateMutability": "nonpayable",
					"type": "function"
				},
				{
					"inputs": [
						{
							"internalType": "uint256",
							"name": "index",
							"type": "uint256"
						}
					],
					"name": "ExchangeWith",
					"outputs": [
						{
							"internalType": "bool",
							"name": "",
							"type": "bool"
						}
					],
					"stateMutability": "nonpayable",
					"type": "function"
				},
				{
					"inputs": [
						{
							"internalType": "uint256",
							"name": "",
							"type": "uint256"
						}
					],
					"name": "offers",
					"outputs": [
						{
							"internalType": "address",
							"name": "seller",
							"type": "address"
						},
						{
							"internalType": "contract IERC20",
							"name": "sell",
							"type": "address"
						},
						{
							"internalType": "uint256",
							"name": "sellAmount",
							"type": "uint256"
						},
						{
							"internalType": "contract IERC20",
							"name": "buy",
							"type": "address"
						},
						{
							"internalType": "uint256",
							"name": "buyAmount",
							"type": "uint256"
						}
					],
					"stateMutability": "view",
					"type": "function"
				}
			],
			"devdoc": {
				"kind": "dev",
				"methods": {},
				"version": 1
			},
			"evm": {
				"assembly": "    /* \"SimpleSwap.sol\":87:1087  contract SimpleSwap {... */\n  mstore(0x40, 0x80)\n  callvalue\n  dup1\n  iszero\n  tag_1\n  jumpi\n  0x00\n  dup1\n  revert\ntag_1:\n  pop\n  dataSize(sub_0)\n  dup1\n  dataOffset(sub_0)\n  0x00\n  codecopy\n  0x00\n  return\nstop\n\nsub_0: assembly {\n        /* \"SimpleSwap.sol\":87:1087  contract SimpleSwap {... */\n      mstore(0x40, 0x80)\n      callvalue\n      dup1\n      iszero\n      tag_1\n      jumpi\n      0x00\n      dup1\n      revert\n    tag_1:\n      pop\n      jumpi(tag_2, lt(calldatasize, 0x04))\n      shr(0xe0, calldataload(0x00))\n      dup1\n      0x0f2cd707\n      eq\n      tag_3\n      jumpi\n      dup1\n      0x288c98a0\n      eq\n      tag_4\n      jumpi\n      dup1\n      0x8a72ea6a\n      eq\n      tag_5\n      jumpi\n    tag_2:\n      0x00\n      dup1\n      revert\n        /* \"SimpleSwap.sol\":743:1085  function ExchangeWith(uint256 index) public returns (bool) {... */\n    tag_3:\n      tag_6\n      0x04\n      dup1\n      calldatasize\n      sub\n      dup2\n      add\n      swap1\n      tag_7\n      swap2\n      swap1\n      tag_8\n      jump\t// in\n    tag_7:\n      tag_9\n      jump\t// in\n    tag_6:\n      mload(0x40)\n      tag_10\n      swap2\n      swap1\n      tag_11\n      jump\t// in\n    tag_10:\n      mload(0x40)\n      dup1\n      swap2\n      sub\n      swap1\n      return\n        /* \"SimpleSwap.sol\":287:737  function Add(... */\n    tag_4:\n      tag_12\n      0x04\n      dup1\n      calldatasize\n      sub\n      dup2\n      add\n      swap1\n      tag_13\n      swap2\n      swap1\n      tag_14\n      jump\t// in\n    tag_13:\n      tag_15\n      jump\t// in\n    tag_12:\n      mload(0x40)\n      tag_16\n      swap2\n      swap1\n      tag_11\n      jump\t// in\n    tag_16:\n      mload(0x40)\n      dup1\n      swap2\n      sub\n      swap1\n      return\n        /* \"SimpleSwap.sol\":259:280  Offer[] public offers */\n    tag_5:\n      tag_17\n      0x04\n      dup1\n      calldatasize\n      sub\n      dup2\n      add\n      swap1\n      tag_18\n      swap2\n      swap1\n      tag_8\n      jump\t// in\n    tag_18:\n      tag_19\n      jump\t// in\n    tag_17:\n      mload(0x40)\n      tag_20\n      swap6\n      swap5\n      swap4\n      swap3\n      swap2\n      swap1\n      tag_21\n      jump\t// in\n    tag_20:\n      mload(0x40)\n      dup1\n      swap2\n      sub\n      swap1\n      return\n        /* \"SimpleSwap.sol\":743:1085  function ExchangeWith(uint256 index) public returns (bool) {... */\n    tag_9:\n        /* \"SimpleSwap.sol\":796:800  bool */\n      0x00\n        /* \"SimpleSwap.sol\":812:830  Offer memory offer */\n      dup1\n        /* \"SimpleSwap.sol\":833:839  offers */\n      0x00\n        /* \"SimpleSwap.sol\":840:845  index */\n      dup4\n        /* \"SimpleSwap.sol\":833:846  offers[index] */\n      dup2\n      sload\n      dup2\n      lt\n      tag_23\n      jumpi\n      tag_24\n      tag_25\n      jump\t// in\n    tag_24:\n    tag_23:\n      swap1\n      0x00\n      mstore\n      keccak256(0x00, 0x20)\n      swap1\n      0x05\n      mul\n      add\n        /* \"SimpleSwap.sol\":812:846  Offer memory offer = offers[index] */\n      mload(0x40)\n      dup1\n      0xa0\n      add\n      0x40\n      mstore\n      swap1\n      dup2\n      0x00\n      dup3\n      add\n      0x00\n      swap1\n      sload\n      swap1\n      0x0100\n      exp\n      swap1\n      div\n      0xffffffffffffffffffffffffffffffffffffffff\n      and\n      0xffffffffffffffffffffffffffffffffffffffff\n      and\n      0xffffffffffffffffffffffffffffffffffffffff\n      and\n      dup2\n      mstore\n      0x20\n      add\n      0x01\n      dup3\n      add\n      0x00\n      swap1\n      sload\n      swap1\n      0x0100\n      exp\n      swap1\n      div\n      0xffffffffffffffffffffffffffffffffffffffff\n      and\n      0xffffffffffffffffffffffffffffffffffffffff\n      and\n      0xffffffffffffffffffffffffffffffffffffffff\n      and\n      dup2\n      mstore\n      0x20\n      add\n      0x02\n      dup3\n      add\n      sload\n      dup2\n      mstore\n      0x20\n      add\n      0x03\n      dup3\n      add\n      0x00\n      swap1\n      sload\n      swap1\n      0x0100\n      exp\n      swap1\n      div\n      0xffffffffffffffffffffffffffffffffffffffff\n      and\n      0xffffffffffffffffffffffffffffffffffffffff\n      and\n      0xffffffffffffffffffffffffffffffffffffffff\n      and\n      dup2\n      mstore\n      0x20\n      add\n      0x04\n      dup3\n      add\n      sload\n      dup2\n      mstore\n      pop\n      pop\n      swap1\n      pop\n        /* \"SimpleSwap.sol\":856:861  offer */\n      dup1\n        /* \"SimpleSwap.sol\":856:866  offer.sell */\n      0x20\n      add\n      mload\n        /* \"SimpleSwap.sol\":856:874  offer.sell.approve */\n      0xffffffffffffffffffffffffffffffffffffffff\n      and\n      0x095ea7b3\n        /* \"SimpleSwap.sol\":875:885  msg.sender */\n      caller\n        /* \"SimpleSwap.sol\":887:892  offer */\n      dup4\n        /* \"SimpleSwap.sol\":887:903  offer.sellAmount */\n      0x40\n      add\n      mload\n        /* \"SimpleSwap.sol\":856:904  offer.sell.approve(msg.sender, offer.sellAmount) */\n      mload(0x40)\n      dup4\n      0xffffffff\n      and\n      0xe0\n      shl\n      dup2\n      mstore\n      0x04\n      add\n      tag_27\n      swap3\n      swap2\n      swap1\n      tag_28\n      jump\t// in\n    tag_27:\n      0x20\n      mload(0x40)\n      dup1\n      dup4\n      sub\n      dup2\n      0x00\n      dup8\n      gas\n      call\n      iszero\n      dup1\n      iszero\n      tag_30\n      jumpi\n      returndatasize\n      0x00\n      dup1\n      returndatacopy\n      revert(0x00, returndatasize)\n    tag_30:\n      pop\n      pop\n      pop\n      pop\n      mload(0x40)\n      returndatasize\n      not(0x1f)\n      0x1f\n      dup3\n      add\n      and\n      dup3\n      add\n      dup1\n      0x40\n      mstore\n      pop\n      dup2\n      add\n      swap1\n      tag_31\n      swap2\n      swap1\n      tag_32\n      jump\t// in\n    tag_31:\n      pop\n        /* \"SimpleSwap.sol\":914:919  offer */\n      dup1\n        /* \"SimpleSwap.sol\":914:924  offer.sell */\n      0x20\n      add\n      mload\n        /* \"SimpleSwap.sol\":914:937  offer.sell.transferFrom */\n      0xffffffffffffffffffffffffffffffffffffffff\n      and\n      0x23b872dd\n        /* \"SimpleSwap.sol\":946:950  this */\n      address\n        /* \"SimpleSwap.sol\":953:963  msg.sender */\n      caller\n        /* \"SimpleSwap.sol\":965:970  offer */\n      dup5\n        /* \"SimpleSwap.sol\":965:981  offer.sellAmount */\n      0x40\n      add\n      mload\n        /* \"SimpleSwap.sol\":914:982  offer.sell.transferFrom(address(this), msg.sender, offer.sellAmount) */\n      mload(0x40)\n      dup5\n      0xffffffff\n      and\n      0xe0\n      shl\n      dup2\n      mstore\n      0x04\n      add\n      tag_33\n      swap4\n      swap3\n      swap2\n      swap1\n      tag_34\n      jump\t// in\n    tag_33:\n      0x20\n      mload(0x40)\n      dup1\n      dup4\n      sub\n      dup2\n      0x00\n      dup8\n      gas\n      call\n      iszero\n      dup1\n      iszero\n      tag_36\n      jumpi\n      returndatasize\n      0x00\n      dup1\n      returndatacopy\n      revert(0x00, returndatasize)\n    tag_36:\n      pop\n      pop\n      pop\n      pop\n      mload(0x40)\n      returndatasize\n      not(0x1f)\n      0x1f\n      dup3\n      add\n      and\n      dup3\n      add\n      dup1\n      0x40\n      mstore\n      pop\n      dup2\n      add\n      swap1\n      tag_37\n      swap2\n      swap1\n      tag_32\n      jump\t// in\n    tag_37:\n      pop\n        /* \"SimpleSwap.sol\":992:997  offer */\n      dup1\n        /* \"SimpleSwap.sol\":992:1001  offer.buy */\n      0x60\n      add\n      mload\n        /* \"SimpleSwap.sol\":992:1014  offer.buy.transferFrom */\n      0xffffffffffffffffffffffffffffffffffffffff\n      and\n      0x23b872dd\n        /* \"SimpleSwap.sol\":1015:1025  msg.sender */\n      caller\n        /* \"SimpleSwap.sol\":1027:1032  offer */\n      dup4\n        /* \"SimpleSwap.sol\":1027:1039  offer.seller */\n      0x00\n      add\n      mload\n        /* \"SimpleSwap.sol\":1041:1046  offer */\n      dup5\n        /* \"SimpleSwap.sol\":1041:1056  offer.buyAmount */\n      0x80\n      add\n      mload\n        /* \"SimpleSwap.sol\":992:1057  offer.buy.transferFrom(msg.sender, offer.seller, offer.buyAmount) */\n      mload(0x40)\n      dup5\n      0xffffffff\n      and\n      0xe0\n      shl\n      dup2\n      mstore\n      0x04\n      add\n      tag_38\n      swap4\n      swap3\n      swap2\n      swap1\n      tag_34\n      jump\t// in\n    tag_38:\n      0x20\n      mload(0x40)\n      dup1\n      dup4\n      sub\n      dup2\n      0x00\n      dup8\n      gas\n      call\n      iszero\n      dup1\n      iszero\n      tag_40\n      jumpi\n      returndatasize\n      0x00\n      dup1\n      returndatacopy\n      revert(0x00, returndatasize)\n    tag_40:\n      pop\n      pop\n      pop\n      pop\n      mload(0x40)\n      returndatasize\n      not(0x1f)\n      0x1f\n      dup3\n      add\n      and\n      dup3\n      add\n      dup1\n      0x40\n      mstore\n      pop\n      dup2\n      add\n      swap1\n      tag_41\n      swap2\n      swap1\n      tag_32\n      jump\t// in\n    tag_41:\n      pop\n        /* \"SimpleSwap.sol\":1074:1078  true */\n      0x01\n        /* \"SimpleSwap.sol\":1067:1078  return true */\n      swap2\n      pop\n      pop\n        /* \"SimpleSwap.sol\":743:1085  function ExchangeWith(uint256 index) public returns (bool) {... */\n      swap2\n      swap1\n      pop\n      jump\t// out\n        /* \"SimpleSwap.sol\":287:737  function Add(... */\n    tag_15:\n        /* \"SimpleSwap.sol\":418:422  bool */\n      0x00\n        /* \"SimpleSwap.sol\":434:438  sell */\n      dup5\n        /* \"SimpleSwap.sol\":434:451  sell.transferFrom */\n      0xffffffffffffffffffffffffffffffffffffffff\n      and\n      0x23b872dd\n        /* \"SimpleSwap.sol\":452:462  msg.sender */\n      caller\n        /* \"SimpleSwap.sol\":472:476  this */\n      address\n        /* \"SimpleSwap.sol\":479:489  sellAmount */\n      dup8\n        /* \"SimpleSwap.sol\":434:490  sell.transferFrom(msg.sender, address(this), sellAmount) */\n      mload(0x40)\n      dup5\n      0xffffffff\n      and\n      0xe0\n      shl\n      dup2\n      mstore\n      0x04\n      add\n      tag_43\n      swap4\n      swap3\n      swap2\n      swap1\n      tag_34\n      jump\t// in\n    tag_43:\n      0x20\n      mload(0x40)\n      dup1\n      dup4\n      sub\n      dup2\n      0x00\n      dup8\n      gas\n      call\n      iszero\n      dup1\n      iszero\n      tag_45\n      jumpi\n      returndatasize\n      0x00\n      dup1\n      returndatacopy\n      revert(0x00, returndatasize)\n    tag_45:\n      pop\n      pop\n      pop\n      pop\n      mload(0x40)\n      returndatasize\n      not(0x1f)\n      0x1f\n      dup3\n      add\n      and\n      dup3\n      add\n      dup1\n      0x40\n      mstore\n      pop\n      dup2\n      add\n      swap1\n      tag_46\n      swap2\n      swap1\n      tag_32\n      jump\t// in\n    tag_46:\n      pop\n        /* \"SimpleSwap.sol\":500:518  Offer memory offer */\n      tag_47\n      tag_48\n      jump\t// in\n    tag_47:\n        /* \"SimpleSwap.sol\":543:553  msg.sender */\n      caller\n        /* \"SimpleSwap.sol\":528:533  offer */\n      dup2\n        /* \"SimpleSwap.sol\":528:540  offer.seller */\n      0x00\n      add\n        /* \"SimpleSwap.sol\":528:553  offer.seller = msg.sender */\n      swap1\n      0xffffffffffffffffffffffffffffffffffffffff\n      and\n      swap1\n      dup2\n      0xffffffffffffffffffffffffffffffffffffffff\n      and\n      dup2\n      mstore\n      pop\n      pop\n        /* \"SimpleSwap.sol\":576:580  sell */\n      dup6\n        /* \"SimpleSwap.sol\":563:568  offer */\n      dup2\n        /* \"SimpleSwap.sol\":563:573  offer.sell */\n      0x20\n      add\n        /* \"SimpleSwap.sol\":563:580  offer.sell = sell */\n      swap1\n      0xffffffffffffffffffffffffffffffffffffffff\n      and\n      swap1\n      dup2\n      0xffffffffffffffffffffffffffffffffffffffff\n      and\n      dup2\n      mstore\n      pop\n      pop\n        /* \"SimpleSwap.sol\":609:619  sellAmount */\n      dup5\n        /* \"SimpleSwap.sol\":590:595  offer */\n      dup2\n        /* \"SimpleSwap.sol\":590:606  offer.sellAmount */\n      0x40\n      add\n        /* \"SimpleSwap.sol\":590:619  offer.sellAmount = sellAmount */\n      dup2\n      dup2\n      mstore\n      pop\n      pop\n        /* \"SimpleSwap.sol\":641:644  buy */\n      dup4\n        /* \"SimpleSwap.sol\":629:634  offer */\n      dup2\n        /* \"SimpleSwap.sol\":629:638  offer.buy */\n      0x60\n      add\n        /* \"SimpleSwap.sol\":629:644  offer.buy = buy */\n      swap1\n      0xffffffffffffffffffffffffffffffffffffffff\n      and\n      swap1\n      dup2\n      0xffffffffffffffffffffffffffffffffffffffff\n      and\n      dup2\n      mstore\n      pop\n      pop\n        /* \"SimpleSwap.sol\":672:681  buyAmount */\n      dup3\n        /* \"SimpleSwap.sol\":654:659  offer */\n      dup2\n        /* \"SimpleSwap.sol\":654:669  offer.buyAmount */\n      0x80\n      add\n        /* \"SimpleSwap.sol\":654:681  offer.buyAmount = buyAmount */\n      dup2\n      dup2\n      mstore\n      pop\n      pop\n        /* \"SimpleSwap.sol\":691:697  offers */\n      0x00\n        /* \"SimpleSwap.sol\":703:708  offer */\n      dup2\n        /* \"SimpleSwap.sol\":691:709  offers.push(offer) */\n      swap1\n      dup1\n      0x01\n      dup2\n      sload\n      add\n      dup1\n      dup3\n      sstore\n      dup1\n      swap2\n      pop\n      pop\n      0x01\n      swap1\n      sub\n      swap1\n      0x00\n      mstore\n      keccak256(0x00, 0x20)\n      swap1\n      0x05\n      mul\n      add\n      0x00\n      swap1\n      swap2\n      swap1\n      swap2\n      swap1\n      swap2\n      pop\n      0x00\n      dup3\n      add\n      mload\n      dup2\n      0x00\n      add\n      exp(0x0100, 0x00)\n      dup2\n      sload\n      dup2\n      0xffffffffffffffffffffffffffffffffffffffff\n      mul\n      not\n      and\n      swap1\n      dup4\n      0xffffffffffffffffffffffffffffffffffffffff\n      and\n      mul\n      or\n      swap1\n      sstore\n      pop\n      0x20\n      dup3\n      add\n      mload\n      dup2\n      0x01\n      add\n      exp(0x0100, 0x00)\n      dup2\n      sload\n      dup2\n      0xffffffffffffffffffffffffffffffffffffffff\n      mul\n      not\n      and\n      swap1\n      dup4\n      0xffffffffffffffffffffffffffffffffffffffff\n      and\n      mul\n      or\n      swap1\n      sstore\n      pop\n      0x40\n      dup3\n      add\n      mload\n      dup2\n      0x02\n      add\n      sstore\n      0x60\n      dup3\n      add\n      mload\n      dup2\n      0x03\n      add\n      exp(0x0100, 0x00)\n      dup2\n      sload\n      dup2\n      0xffffffffffffffffffffffffffffffffffffffff\n      mul\n      not\n      and\n      swap1\n      dup4\n      0xffffffffffffffffffffffffffffffffffffffff\n      and\n      mul\n      or\n      swap1\n      sstore\n      pop\n      0x80\n      dup3\n      add\n      mload\n      dup2\n      0x04\n      add\n      sstore\n      pop\n      pop\n        /* \"SimpleSwap.sol\":726:730  true */\n      0x01\n        /* \"SimpleSwap.sol\":719:730  return true */\n      swap2\n      pop\n      pop\n        /* \"SimpleSwap.sol\":287:737  function Add(... */\n      swap5\n      swap4\n      pop\n      pop\n      pop\n      pop\n      jump\t// out\n        /* \"SimpleSwap.sol\":259:280  Offer[] public offers */\n    tag_19:\n      0x00\n      dup2\n      dup2\n      sload\n      dup2\n      lt\n      tag_50\n      jumpi\n      0x00\n      dup1\n      revert\n    tag_50:\n      swap1\n      0x00\n      mstore\n      keccak256(0x00, 0x20)\n      swap1\n      0x05\n      mul\n      add\n      0x00\n      swap2\n      pop\n      swap1\n      pop\n      dup1\n      0x00\n      add\n      0x00\n      swap1\n      sload\n      swap1\n      0x0100\n      exp\n      swap1\n      div\n      0xffffffffffffffffffffffffffffffffffffffff\n      and\n      swap1\n      dup1\n      0x01\n      add\n      0x00\n      swap1\n      sload\n      swap1\n      0x0100\n      exp\n      swap1\n      div\n      0xffffffffffffffffffffffffffffffffffffffff\n      and\n      swap1\n      dup1\n      0x02\n      add\n      sload\n      swap1\n      dup1\n      0x03\n      add\n      0x00\n      swap1\n      sload\n      swap1\n      0x0100\n      exp\n      swap1\n      div\n      0xffffffffffffffffffffffffffffffffffffffff\n      and\n      swap1\n      dup1\n      0x04\n      add\n      sload\n      swap1\n      pop\n      dup6\n      jump\t// out\n    tag_48:\n      mload(0x40)\n      dup1\n      0xa0\n      add\n      0x40\n      mstore\n      dup1\n      and(0xffffffffffffffffffffffffffffffffffffffff, 0x00)\n      dup2\n      mstore\n      0x20\n      add\n      and(0xffffffffffffffffffffffffffffffffffffffff, 0x00)\n      dup2\n      mstore\n      0x20\n      add\n      0x00\n      dup2\n      mstore\n      0x20\n      add\n      and(0xffffffffffffffffffffffffffffffffffffffff, 0x00)\n      dup2\n      mstore\n      0x20\n      add\n      0x00\n      dup2\n      mstore\n      pop\n      swap1\n      jump\t// out\n        /* \"#utility.yul\":88:205   */\n    tag_53:\n        /* \"#utility.yul\":197:198   */\n      0x00\n        /* \"#utility.yul\":194:195   */\n      dup1\n        /* \"#utility.yul\":187:199   */\n      revert\n        /* \"#utility.yul\":334:411   */\n    tag_55:\n        /* \"#utility.yul\":371:378   */\n      0x00\n        /* \"#utility.yul\":400:405   */\n      dup2\n        /* \"#utility.yul\":389:405   */\n      swap1\n      pop\n        /* \"#utility.yul\":334:411   */\n      swap2\n      swap1\n      pop\n      jump\t// out\n        /* \"#utility.yul\":417:539   */\n    tag_56:\n        /* \"#utility.yul\":490:514   */\n      tag_80\n        /* \"#utility.yul\":508:513   */\n      dup2\n        /* \"#utility.yul\":490:514   */\n      tag_55\n      jump\t// in\n    tag_80:\n        /* \"#utility.yul\":483:488   */\n      dup2\n        /* \"#utility.yul\":480:515   */\n      eq\n        /* \"#utility.yul\":470:533   */\n      tag_81\n      jumpi\n        /* \"#utility.yul\":529:530   */\n      0x00\n        /* \"#utility.yul\":526:527   */\n      dup1\n        /* \"#utility.yul\":519:531   */\n      revert\n        /* \"#utility.yul\":470:533   */\n    tag_81:\n        /* \"#utility.yul\":417:539   */\n      pop\n      jump\t// out\n        /* \"#utility.yul\":545:684   */\n    tag_57:\n        /* \"#utility.yul\":591:596   */\n      0x00\n        /* \"#utility.yul\":629:635   */\n      dup2\n        /* \"#utility.yul\":616:636   */\n      calldataload\n        /* \"#utility.yul\":607:636   */\n      swap1\n      pop\n        /* \"#utility.yul\":645:678   */\n      tag_83\n        /* \"#utility.yul\":672:677   */\n      dup2\n        /* \"#utility.yul\":645:678   */\n      tag_56\n      jump\t// in\n    tag_83:\n        /* \"#utility.yul\":545:684   */\n      swap3\n      swap2\n      pop\n      pop\n      jump\t// out\n        /* \"#utility.yul\":690:1019   */\n    tag_8:\n        /* \"#utility.yul\":749:755   */\n      0x00\n        /* \"#utility.yul\":798:800   */\n      0x20\n        /* \"#utility.yul\":786:795   */\n      dup3\n        /* \"#utility.yul\":777:784   */\n      dup5\n        /* \"#utility.yul\":773:796   */\n      sub\n        /* \"#utility.yul\":769:801   */\n      slt\n        /* \"#utility.yul\":766:885   */\n      iszero\n      tag_85\n      jumpi\n        /* \"#utility.yul\":804:883   */\n      tag_86\n      tag_53\n      jump\t// in\n    tag_86:\n        /* \"#utility.yul\":766:885   */\n    tag_85:\n        /* \"#utility.yul\":924:925   */\n      0x00\n        /* \"#utility.yul\":949:1002   */\n      tag_87\n        /* \"#utility.yul\":994:1001   */\n      dup5\n        /* \"#utility.yul\":985:991   */\n      dup3\n        /* \"#utility.yul\":974:983   */\n      dup6\n        /* \"#utility.yul\":970:992   */\n      add\n        /* \"#utility.yul\":949:1002   */\n      tag_57\n      jump\t// in\n    tag_87:\n        /* \"#utility.yul\":939:1002   */\n      swap2\n      pop\n        /* \"#utility.yul\":895:1012   */\n      pop\n        /* \"#utility.yul\":690:1019   */\n      swap3\n      swap2\n      pop\n      pop\n      jump\t// out\n        /* \"#utility.yul\":1025:1115   */\n    tag_58:\n        /* \"#utility.yul\":1059:1066   */\n      0x00\n        /* \"#utility.yul\":1102:1107   */\n      dup2\n        /* \"#utility.yul\":1095:1108   */\n      iszero\n        /* \"#utility.yul\":1088:1109   */\n      iszero\n        /* \"#utility.yul\":1077:1109   */\n      swap1\n      pop\n        /* \"#utility.yul\":1025:1115   */\n      swap2\n      swap1\n      pop\n      jump\t// out\n        /* \"#utility.yul\":1121:1230   */\n    tag_59:\n        /* \"#utility.yul\":1202:1223   */\n      tag_90\n        /* \"#utility.yul\":1217:1222   */\n      dup2\n        /* \"#utility.yul\":1202:1223   */\n      tag_58\n      jump\t// in\n    tag_90:\n        /* \"#utility.yul\":1197:1200   */\n      dup3\n        /* \"#utility.yul\":1190:1224   */\n      mstore\n        /* \"#utility.yul\":1121:1230   */\n      pop\n      pop\n      jump\t// out\n        /* \"#utility.yul\":1236:1446   */\n    tag_11:\n        /* \"#utility.yul\":1323:1327   */\n      0x00\n        /* \"#utility.yul\":1361:1363   */\n      0x20\n        /* \"#utility.yul\":1350:1359   */\n      dup3\n        /* \"#utility.yul\":1346:1364   */\n      add\n        /* \"#utility.yul\":1338:1364   */\n      swap1\n      pop\n        /* \"#utility.yul\":1374:1439   */\n      tag_92\n        /* \"#utility.yul\":1436:1437   */\n      0x00\n        /* \"#utility.yul\":1425:1434   */\n      dup4\n        /* \"#utility.yul\":1421:1438   */\n      add\n        /* \"#utility.yul\":1412:1418   */\n      dup5\n        /* \"#utility.yul\":1374:1439   */\n      tag_59\n      jump\t// in\n    tag_92:\n        /* \"#utility.yul\":1236:1446   */\n      swap3\n      swap2\n      pop\n      pop\n      jump\t// out\n        /* \"#utility.yul\":1452:1578   */\n    tag_60:\n        /* \"#utility.yul\":1489:1496   */\n      0x00\n        /* \"#utility.yul\":1529:1571   */\n      0xffffffffffffffffffffffffffffffffffffffff\n        /* \"#utility.yul\":1522:1527   */\n      dup3\n        /* \"#utility.yul\":1518:1572   */\n      and\n        /* \"#utility.yul\":1507:1572   */\n      swap1\n      pop\n        /* \"#utility.yul\":1452:1578   */\n      swap2\n      swap1\n      pop\n      jump\t// out\n        /* \"#utility.yul\":1584:1680   */\n    tag_61:\n        /* \"#utility.yul\":1621:1628   */\n      0x00\n        /* \"#utility.yul\":1650:1674   */\n      tag_95\n        /* \"#utility.yul\":1668:1673   */\n      dup3\n        /* \"#utility.yul\":1650:1674   */\n      tag_60\n      jump\t// in\n    tag_95:\n        /* \"#utility.yul\":1639:1674   */\n      swap1\n      pop\n        /* \"#utility.yul\":1584:1680   */\n      swap2\n      swap1\n      pop\n      jump\t// out\n        /* \"#utility.yul\":1686:1796   */\n    tag_62:\n        /* \"#utility.yul\":1737:1744   */\n      0x00\n        /* \"#utility.yul\":1766:1790   */\n      tag_97\n        /* \"#utility.yul\":1784:1789   */\n      dup3\n        /* \"#utility.yul\":1766:1790   */\n      tag_61\n      jump\t// in\n    tag_97:\n        /* \"#utility.yul\":1755:1790   */\n      swap1\n      pop\n        /* \"#utility.yul\":1686:1796   */\n      swap2\n      swap1\n      pop\n      jump\t// out\n        /* \"#utility.yul\":1802:1952   */\n    tag_63:\n        /* \"#utility.yul\":1889:1927   */\n      tag_99\n        /* \"#utility.yul\":1921:1926   */\n      dup2\n        /* \"#utility.yul\":1889:1927   */\n      tag_62\n      jump\t// in\n    tag_99:\n        /* \"#utility.yul\":1882:1887   */\n      dup2\n        /* \"#utility.yul\":1879:1928   */\n      eq\n        /* \"#utility.yul\":1869:1946   */\n      tag_100\n      jumpi\n        /* \"#utility.yul\":1942:1943   */\n      0x00\n        /* \"#utility.yul\":1939:1940   */\n      dup1\n        /* \"#utility.yul\":1932:1944   */\n      revert\n        /* \"#utility.yul\":1869:1946   */\n    tag_100:\n        /* \"#utility.yul\":1802:1952   */\n      pop\n      jump\t// out\n        /* \"#utility.yul\":1958:2125   */\n    tag_64:\n        /* \"#utility.yul\":2018:2023   */\n      0x00\n        /* \"#utility.yul\":2056:2062   */\n      dup2\n        /* \"#utility.yul\":2043:2063   */\n      calldataload\n        /* \"#utility.yul\":2034:2063   */\n      swap1\n      pop\n        /* \"#utility.yul\":2072:2119   */\n      tag_102\n        /* \"#utility.yul\":2113:2118   */\n      dup2\n        /* \"#utility.yul\":2072:2119   */\n      tag_63\n      jump\t// in\n    tag_102:\n        /* \"#utility.yul\":1958:2125   */\n      swap3\n      swap2\n      pop\n      pop\n      jump\t// out\n        /* \"#utility.yul\":2131:2952   */\n    tag_14:\n        /* \"#utility.yul\":2245:2251   */\n      0x00\n        /* \"#utility.yul\":2253:2259   */\n      dup1\n        /* \"#utility.yul\":2261:2267   */\n      0x00\n        /* \"#utility.yul\":2269:2275   */\n      dup1\n        /* \"#utility.yul\":2318:2321   */\n      0x80\n        /* \"#utility.yul\":2306:2315   */\n      dup6\n        /* \"#utility.yul\":2297:2304   */\n      dup8\n        /* \"#utility.yul\":2293:2316   */\n      sub\n        /* \"#utility.yul\":2289:2322   */\n      slt\n        /* \"#utility.yul\":2286:2406   */\n      iszero\n      tag_104\n      jumpi\n        /* \"#utility.yul\":2325:2404   */\n      tag_105\n      tag_53\n      jump\t// in\n    tag_105:\n        /* \"#utility.yul\":2286:2406   */\n    tag_104:\n        /* \"#utility.yul\":2445:2446   */\n      0x00\n        /* \"#utility.yul\":2470:2537   */\n      tag_106\n        /* \"#utility.yul\":2529:2536   */\n      dup8\n        /* \"#utility.yul\":2520:2526   */\n      dup3\n        /* \"#utility.yul\":2509:2518   */\n      dup9\n        /* \"#utility.yul\":2505:2527   */\n      add\n        /* \"#utility.yul\":2470:2537   */\n      tag_64\n      jump\t// in\n    tag_106:\n        /* \"#utility.yul\":2460:2537   */\n      swap5\n      pop\n        /* \"#utility.yul\":2416:2547   */\n      pop\n        /* \"#utility.yul\":2586:2588   */\n      0x20\n        /* \"#utility.yul\":2612:2665   */\n      tag_107\n        /* \"#utility.yul\":2657:2664   */\n      dup8\n        /* \"#utility.yul\":2648:2654   */\n      dup3\n        /* \"#utility.yul\":2637:2646   */\n      dup9\n        /* \"#utility.yul\":2633:2655   */\n      add\n        /* \"#utility.yul\":2612:2665   */\n      tag_57\n      jump\t// in\n    tag_107:\n        /* \"#utility.yul\":2602:2665   */\n      swap4\n      pop\n        /* \"#utility.yul\":2557:2675   */\n      pop\n        /* \"#utility.yul\":2714:2716   */\n      0x40\n        /* \"#utility.yul\":2740:2807   */\n      tag_108\n        /* \"#utility.yul\":2799:2806   */\n      dup8\n        /* \"#utility.yul\":2790:2796   */\n      dup3\n        /* \"#utility.yul\":2779:2788   */\n      dup9\n        /* \"#utility.yul\":2775:2797   */\n      add\n        /* \"#utility.yul\":2740:2807   */\n      tag_64\n      jump\t// in\n    tag_108:\n        /* \"#utility.yul\":2730:2807   */\n      swap3\n      pop\n        /* \"#utility.yul\":2685:2817   */\n      pop\n        /* \"#utility.yul\":2856:2858   */\n      0x60\n        /* \"#utility.yul\":2882:2935   */\n      tag_109\n        /* \"#utility.yul\":2927:2934   */\n      dup8\n        /* \"#utility.yul\":2918:2924   */\n      dup3\n        /* \"#utility.yul\":2907:2916   */\n      dup9\n        /* \"#utility.yul\":2903:2925   */\n      add\n        /* \"#utility.yul\":2882:2935   */\n      tag_57\n      jump\t// in\n    tag_109:\n        /* \"#utility.yul\":2872:2935   */\n      swap2\n      pop\n        /* \"#utility.yul\":2827:2945   */\n      pop\n        /* \"#utility.yul\":2131:2952   */\n      swap3\n      swap6\n      swap2\n      swap5\n      pop\n      swap3\n      pop\n      jump\t// out\n        /* \"#utility.yul\":2958:3076   */\n    tag_65:\n        /* \"#utility.yul\":3045:3069   */\n      tag_111\n        /* \"#utility.yul\":3063:3068   */\n      dup2\n        /* \"#utility.yul\":3045:3069   */\n      tag_61\n      jump\t// in\n    tag_111:\n        /* \"#utility.yul\":3040:3043   */\n      dup3\n        /* \"#utility.yul\":3033:3070   */\n      mstore\n        /* \"#utility.yul\":2958:3076   */\n      pop\n      pop\n      jump\t// out\n        /* \"#utility.yul\":3082:3142   */\n    tag_66:\n        /* \"#utility.yul\":3110:3113   */\n      0x00\n        /* \"#utility.yul\":3131:3136   */\n      dup2\n        /* \"#utility.yul\":3124:3136   */\n      swap1\n      pop\n        /* \"#utility.yul\":3082:3142   */\n      swap2\n      swap1\n      pop\n      jump\t// out\n        /* \"#utility.yul\":3148:3290   */\n    tag_67:\n        /* \"#utility.yul\":3198:3207   */\n      0x00\n        /* \"#utility.yul\":3231:3284   */\n      tag_114\n        /* \"#utility.yul\":3249:3283   */\n      tag_115\n        /* \"#utility.yul\":3258:3282   */\n      tag_116\n        /* \"#utility.yul\":3276:3281   */\n      dup5\n        /* \"#utility.yul\":3258:3282   */\n      tag_60\n      jump\t// in\n    tag_116:\n        /* \"#utility.yul\":3249:3283   */\n      tag_66\n      jump\t// in\n    tag_115:\n        /* \"#utility.yul\":3231:3284   */\n      tag_60\n      jump\t// in\n    tag_114:\n        /* \"#utility.yul\":3218:3284   */\n      swap1\n      pop\n        /* \"#utility.yul\":3148:3290   */\n      swap2\n      swap1\n      pop\n      jump\t// out\n        /* \"#utility.yul\":3296:3422   */\n    tag_68:\n        /* \"#utility.yul\":3346:3355   */\n      0x00\n        /* \"#utility.yul\":3379:3416   */\n      tag_118\n        /* \"#utility.yul\":3410:3415   */\n      dup3\n        /* \"#utility.yul\":3379:3416   */\n      tag_67\n      jump\t// in\n    tag_118:\n        /* \"#utility.yul\":3366:3416   */\n      swap1\n      pop\n        /* \"#utility.yul\":3296:3422   */\n      swap2\n      swap1\n      pop\n      jump\t// out\n        /* \"#utility.yul\":3428:3568   */\n    tag_69:\n        /* \"#utility.yul\":3492:3501   */\n      0x00\n        /* \"#utility.yul\":3525:3562   */\n      tag_120\n        /* \"#utility.yul\":3556:3561   */\n      dup3\n        /* \"#utility.yul\":3525:3562   */\n      tag_68\n      jump\t// in\n    tag_120:\n        /* \"#utility.yul\":3512:3562   */\n      swap1\n      pop\n        /* \"#utility.yul\":3428:3568   */\n      swap2\n      swap1\n      pop\n      jump\t// out\n        /* \"#utility.yul\":3574:3733   */\n    tag_70:\n        /* \"#utility.yul\":3675:3726   */\n      tag_122\n        /* \"#utility.yul\":3720:3725   */\n      dup2\n        /* \"#utility.yul\":3675:3726   */\n      tag_69\n      jump\t// in\n    tag_122:\n        /* \"#utility.yul\":3670:3673   */\n      dup3\n        /* \"#utility.yul\":3663:3727   */\n      mstore\n        /* \"#utility.yul\":3574:3733   */\n      pop\n      pop\n      jump\t// out\n        /* \"#utility.yul\":3739:3857   */\n    tag_71:\n        /* \"#utility.yul\":3826:3850   */\n      tag_124\n        /* \"#utility.yul\":3844:3849   */\n      dup2\n        /* \"#utility.yul\":3826:3850   */\n      tag_55\n      jump\t// in\n    tag_124:\n        /* \"#utility.yul\":3821:3824   */\n      dup3\n        /* \"#utility.yul\":3814:3851   */\n      mstore\n        /* \"#utility.yul\":3739:3857   */\n      pop\n      pop\n      jump\t// out\n        /* \"#utility.yul\":3863:4583   */\n    tag_21:\n        /* \"#utility.yul\":4096:4100   */\n      0x00\n        /* \"#utility.yul\":4134:4137   */\n      0xa0\n        /* \"#utility.yul\":4123:4132   */\n      dup3\n        /* \"#utility.yul\":4119:4138   */\n      add\n        /* \"#utility.yul\":4111:4138   */\n      swap1\n      pop\n        /* \"#utility.yul\":4148:4219   */\n      tag_126\n        /* \"#utility.yul\":4216:4217   */\n      0x00\n        /* \"#utility.yul\":4205:4214   */\n      dup4\n        /* \"#utility.yul\":4201:4218   */\n      add\n        /* \"#utility.yul\":4192:4198   */\n      dup9\n        /* \"#utility.yul\":4148:4219   */\n      tag_65\n      jump\t// in\n    tag_126:\n        /* \"#utility.yul\":4229:4315   */\n      tag_127\n        /* \"#utility.yul\":4311:4313   */\n      0x20\n        /* \"#utility.yul\":4300:4309   */\n      dup4\n        /* \"#utility.yul\":4296:4314   */\n      add\n        /* \"#utility.yul\":4287:4293   */\n      dup8\n        /* \"#utility.yul\":4229:4315   */\n      tag_70\n      jump\t// in\n    tag_127:\n        /* \"#utility.yul\":4325:4397   */\n      tag_128\n        /* \"#utility.yul\":4393:4395   */\n      0x40\n        /* \"#utility.yul\":4382:4391   */\n      dup4\n        /* \"#utility.yul\":4378:4396   */\n      add\n        /* \"#utility.yul\":4369:4375   */\n      dup7\n        /* \"#utility.yul\":4325:4397   */\n      tag_71\n      jump\t// in\n    tag_128:\n        /* \"#utility.yul\":4407:4493   */\n      tag_129\n        /* \"#utility.yul\":4489:4491   */\n      0x60\n        /* \"#utility.yul\":4478:4487   */\n      dup4\n        /* \"#utility.yul\":4474:4492   */\n      add\n        /* \"#utility.yul\":4465:4471   */\n      dup6\n        /* \"#utility.yul\":4407:4493   */\n      tag_70\n      jump\t// in\n    tag_129:\n        /* \"#utility.yul\":4503:4576   */\n      tag_130\n        /* \"#utility.yul\":4571:4574   */\n      0x80\n        /* \"#utility.yul\":4560:4569   */\n      dup4\n        /* \"#utility.yul\":4556:4575   */\n      add\n        /* \"#utility.yul\":4547:4553   */\n      dup5\n        /* \"#utility.yul\":4503:4576   */\n      tag_71\n      jump\t// in\n    tag_130:\n        /* \"#utility.yul\":3863:4583   */\n      swap7\n      swap6\n      pop\n      pop\n      pop\n      pop\n      pop\n      pop\n      jump\t// out\n        /* \"#utility.yul\":4589:4769   */\n    tag_25:\n        /* \"#utility.yul\":4637:4714   */\n      0x4e487b7100000000000000000000000000000000000000000000000000000000\n        /* \"#utility.yul\":4634:4635   */\n      0x00\n        /* \"#utility.yul\":4627:4715   */\n      mstore\n        /* \"#utility.yul\":4734:4738   */\n      0x32\n        /* \"#utility.yul\":4731:4732   */\n      0x04\n        /* \"#utility.yul\":4724:4739   */\n      mstore\n        /* \"#utility.yul\":4758:4762   */\n      0x24\n        /* \"#utility.yul\":4755:4756   */\n      0x00\n        /* \"#utility.yul\":4748:4763   */\n      revert\n        /* \"#utility.yul\":4775:5107   */\n    tag_28:\n        /* \"#utility.yul\":4896:4900   */\n      0x00\n        /* \"#utility.yul\":4934:4936   */\n      0x40\n        /* \"#utility.yul\":4923:4932   */\n      dup3\n        /* \"#utility.yul\":4919:4937   */\n      add\n        /* \"#utility.yul\":4911:4937   */\n      swap1\n      pop\n        /* \"#utility.yul\":4947:5018   */\n      tag_133\n        /* \"#utility.yul\":5015:5016   */\n      0x00\n        /* \"#utility.yul\":5004:5013   */\n      dup4\n        /* \"#utility.yul\":5000:5017   */\n      add\n        /* \"#utility.yul\":4991:4997   */\n      dup6\n        /* \"#utility.yul\":4947:5018   */\n      tag_65\n      jump\t// in\n    tag_133:\n        /* \"#utility.yul\":5028:5100   */\n      tag_134\n        /* \"#utility.yul\":5096:5098   */\n      0x20\n        /* \"#utility.yul\":5085:5094   */\n      dup4\n        /* \"#utility.yul\":5081:5099   */\n      add\n        /* \"#utility.yul\":5072:5078   */\n      dup5\n        /* \"#utility.yul\":5028:5100   */\n      tag_71\n      jump\t// in\n    tag_134:\n        /* \"#utility.yul\":4775:5107   */\n      swap4\n      swap3\n      pop\n      pop\n      pop\n      jump\t// out\n        /* \"#utility.yul\":5113:5229   */\n    tag_72:\n        /* \"#utility.yul\":5183:5204   */\n      tag_136\n        /* \"#utility.yul\":5198:5203   */\n      dup2\n        /* \"#utility.yul\":5183:5204   */\n      tag_58\n      jump\t// in\n    tag_136:\n        /* \"#utility.yul\":5176:5181   */\n      dup2\n        /* \"#utility.yul\":5173:5205   */\n      eq\n        /* \"#utility.yul\":5163:5223   */\n      tag_137\n      jumpi\n        /* \"#utility.yul\":5219:5220   */\n      0x00\n        /* \"#utility.yul\":5216:5217   */\n      dup1\n        /* \"#utility.yul\":5209:5221   */\n      revert\n        /* \"#utility.yul\":5163:5223   */\n    tag_137:\n        /* \"#utility.yul\":5113:5229   */\n      pop\n      jump\t// out\n        /* \"#utility.yul\":5235:5372   */\n    tag_73:\n        /* \"#utility.yul\":5289:5294   */\n      0x00\n        /* \"#utility.yul\":5320:5326   */\n      dup2\n        /* \"#utility.yul\":5314:5327   */\n      mload\n        /* \"#utility.yul\":5305:5327   */\n      swap1\n      pop\n        /* \"#utility.yul\":5336:5366   */\n      tag_139\n        /* \"#utility.yul\":5360:5365   */\n      dup2\n        /* \"#utility.yul\":5336:5366   */\n      tag_72\n      jump\t// in\n    tag_139:\n        /* \"#utility.yul\":5235:5372   */\n      swap3\n      swap2\n      pop\n      pop\n      jump\t// out\n        /* \"#utility.yul\":5378:5723   */\n    tag_32:\n        /* \"#utility.yul\":5445:5451   */\n      0x00\n        /* \"#utility.yul\":5494:5496   */\n      0x20\n        /* \"#utility.yul\":5482:5491   */\n      dup3\n        /* \"#utility.yul\":5473:5480   */\n      dup5\n        /* \"#utility.yul\":5469:5492   */\n      sub\n        /* \"#utility.yul\":5465:5497   */\n      slt\n        /* \"#utility.yul\":5462:5581   */\n      iszero\n      tag_141\n      jumpi\n        /* \"#utility.yul\":5500:5579   */\n      tag_142\n      tag_53\n      jump\t// in\n    tag_142:\n        /* \"#utility.yul\":5462:5581   */\n    tag_141:\n        /* \"#utility.yul\":5620:5621   */\n      0x00\n        /* \"#utility.yul\":5645:5706   */\n      tag_143\n        /* \"#utility.yul\":5698:5705   */\n      dup5\n        /* \"#utility.yul\":5689:5695   */\n      dup3\n        /* \"#utility.yul\":5678:5687   */\n      dup6\n        /* \"#utility.yul\":5674:5696   */\n      add\n        /* \"#utility.yul\":5645:5706   */\n      tag_73\n      jump\t// in\n    tag_143:\n        /* \"#utility.yul\":5635:5706   */\n      swap2\n      pop\n        /* \"#utility.yul\":5591:5716   */\n      pop\n        /* \"#utility.yul\":5378:5723   */\n      swap3\n      swap2\n      pop\n      pop\n      jump\t// out\n        /* \"#utility.yul\":5729:6171   */\n    tag_34:\n        /* \"#utility.yul\":5878:5882   */\n      0x00\n        /* \"#utility.yul\":5916:5918   */\n      0x60\n        /* \"#utility.yul\":5905:5914   */\n      dup3\n        /* \"#utility.yul\":5901:5919   */\n      add\n        /* \"#utility.yul\":5893:5919   */\n      swap1\n      pop\n        /* \"#utility.yul\":5929:6000   */\n      tag_145\n        /* \"#utility.yul\":5997:5998   */\n      0x00\n        /* \"#utility.yul\":5986:5995   */\n      dup4\n        /* \"#utility.yul\":5982:5999   */\n      add\n        /* \"#utility.yul\":5973:5979   */\n      dup7\n        /* \"#utility.yul\":5929:6000   */\n      tag_65\n      jump\t// in\n    tag_145:\n        /* \"#utility.yul\":6010:6082   */\n      tag_146\n        /* \"#utility.yul\":6078:6080   */\n      0x20\n        /* \"#utility.yul\":6067:6076   */\n      dup4\n        /* \"#utility.yul\":6063:6081   */\n      add\n        /* \"#utility.yul\":6054:6060   */\n      dup6\n        /* \"#utility.yul\":6010:6082   */\n      tag_65\n      jump\t// in\n    tag_146:\n        /* \"#utility.yul\":6092:6164   */\n      tag_147\n        /* \"#utility.yul\":6160:6162   */\n      0x40\n        /* \"#utility.yul\":6149:6158   */\n      dup4\n        /* \"#utility.yul\":6145:6163   */\n      add\n        /* \"#utility.yul\":6136:6142   */\n      dup5\n        /* \"#utility.yul\":6092:6164   */\n      tag_71\n      jump\t// in\n    tag_147:\n        /* \"#utility.yul\":5729:6171   */\n      swap5\n      swap4\n      pop\n      pop\n      pop\n      pop\n      jump\t// out\n\n    auxdata: 0xa26469706673582212208ba2a64c35d2690d2307a664676e61ed14d11f2626f8a222d8a61ffba90c929664736f6c63430008120033\n}\n",
				"bytecode": {
					"linkReferences": {},
					"object": "608060405234801561001057600080fd5b50610aae806100206000396000f3fe608060405234801561001057600080fd5b50600436106100415760003560e01c80630f2cd70714610046578063288c98a0146100765780638a72ea6a146100a6575b600080fd5b610060600480360381019061005b9190610786565b6100da565b60405161006d91906107ce565b60405180910390f35b610090600480360381019061008b9190610859565b6103c9565b60405161009d91906107ce565b60405180910390f35b6100c060048036038101906100bb9190610786565b610634565b6040516100d195949392919061093d565b60405180910390f35b600080600083815481106100f1576100f0610990565b5b90600052602060002090600502016040518060a00160405290816000820160009054906101000a900473ffffffffffffffffffffffffffffffffffffffff1673ffffffffffffffffffffffffffffffffffffffff1673ffffffffffffffffffffffffffffffffffffffff1681526020016001820160009054906101000a900473ffffffffffffffffffffffffffffffffffffffff1673ffffffffffffffffffffffffffffffffffffffff1673ffffffffffffffffffffffffffffffffffffffff168152602001600282015481526020016003820160009054906101000a900473ffffffffffffffffffffffffffffffffffffffff1673ffffffffffffffffffffffffffffffffffffffff1673ffffffffffffffffffffffffffffffffffffffff1681526020016004820154815250509050806020015173ffffffffffffffffffffffffffffffffffffffff1663095ea7b33383604001516040518363ffffffff1660e01b81526004016102659291906109bf565b6020604051808303816000875af1158015610284573d6000803e3d6000fd5b505050506040513d601f19601f820116820180604052508101906102a89190610a14565b50806020015173ffffffffffffffffffffffffffffffffffffffff166323b872dd303384604001516040518463ffffffff1660e01b81526004016102ee93929190610a41565b6020604051808303816000875af115801561030d573d6000803e3d6000fd5b505050506040513d601f19601f820116820180604052508101906103319190610a14565b50806060015173ffffffffffffffffffffffffffffffffffffffff166323b872dd33836000015184608001516040518463ffffffff1660e01b815260040161037b93929190610a41565b6020604051808303816000875af115801561039a573d6000803e3d6000fd5b505050506040513d601f19601f820116820180604052508101906103be9190610a14565b506001915050919050565b60008473ffffffffffffffffffffffffffffffffffffffff166323b872dd3330876040518463ffffffff1660e01b815260040161040893929190610a41565b6020604051808303816000875af1158015610427573d6000803e3d6000fd5b505050506040513d601f19601f8201168201806040525081019061044b9190610a14565b506104546106da565b33816000019073ffffffffffffffffffffffffffffffffffffffff16908173ffffffffffffffffffffffffffffffffffffffff168152505085816020019073ffffffffffffffffffffffffffffffffffffffff16908173ffffffffffffffffffffffffffffffffffffffff16815250508481604001818152505083816060019073ffffffffffffffffffffffffffffffffffffffff16908173ffffffffffffffffffffffffffffffffffffffff168152505082816080018181525050600081908060018154018082558091505060019003906000526020600020906005020160009091909190915060008201518160000160006101000a81548173ffffffffffffffffffffffffffffffffffffffff021916908373ffffffffffffffffffffffffffffffffffffffff16021790555060208201518160010160006101000a81548173ffffffffffffffffffffffffffffffffffffffff021916908373ffffffffffffffffffffffffffffffffffffffff1602179055506040820151816002015560608201518160030160006101000a81548173ffffffffffffffffffffffffffffffffffffffff021916908373ffffffffffffffffffffffffffffffffffffffff1602179055506080820151816004015550506001915050949350505050565b6000818154811061064457600080fd5b90600052602060002090600502016000915090508060000160009054906101000a900473ffffffffffffffffffffffffffffffffffffffff16908060010160009054906101000a900473ffffffffffffffffffffffffffffffffffffffff16908060020154908060030160009054906101000a900473ffffffffffffffffffffffffffffffffffffffff16908060040154905085565b6040518060a00160405280600073ffffffffffffffffffffffffffffffffffffffff168152602001600073ffffffffffffffffffffffffffffffffffffffff16815260200160008152602001600073ffffffffffffffffffffffffffffffffffffffff168152602001600081525090565b600080fd5b6000819050919050565b61076381610750565b811461076e57600080fd5b50565b6000813590506107808161075a565b92915050565b60006020828403121561079c5761079b61074b565b5b60006107aa84828501610771565b91505092915050565b60008115159050919050565b6107c8816107b3565b82525050565b60006020820190506107e360008301846107bf565b92915050565b600073ffffffffffffffffffffffffffffffffffffffff82169050919050565b6000610814826107e9565b9050919050565b600061082682610809565b9050919050565b6108368161081b565b811461084157600080fd5b50565b6000813590506108538161082d565b92915050565b600080600080608085870312156108735761087261074b565b5b600061088187828801610844565b945050602061089287828801610771565b93505060406108a387828801610844565b92505060606108b487828801610771565b91505092959194509250565b6108c981610809565b82525050565b6000819050919050565b60006108f46108ef6108ea846107e9565b6108cf565b6107e9565b9050919050565b6000610906826108d9565b9050919050565b6000610918826108fb565b9050919050565b6109288161090d565b82525050565b61093781610750565b82525050565b600060a08201905061095260008301886108c0565b61095f602083018761091f565b61096c604083018661092e565b610979606083018561091f565b610986608083018461092e565b9695505050505050565b7f4e487b7100000000000000000000000000000000000000000000000000000000600052603260045260246000fd5b60006040820190506109d460008301856108c0565b6109e1602083018461092e565b9392505050565b6109f1816107b3565b81146109fc57600080fd5b50565b600081519050610a0e816109e8565b92915050565b600060208284031215610a2a57610a2961074b565b5b6000610a38848285016109ff565b91505092915050565b6000606082019050610a5660008301866108c0565b610a6360208301856108c0565b610a70604083018461092e565b94935050505056fea26469706673582212208ba2a64c35d2690d2307a664676e61ed14d11f2626f8a222d8a61ffba90c929664736f6c63430008120033",
					"opcodes": "PUSH1 0x80 PUSH1 0x40 MSTORE CALLVALUE DUP1 ISZERO PUSH2 0x10 JUMPI PUSH1 0x0 DUP1 REVERT JUMPDEST POP PUSH2 0xAAE DUP1 PUSH2 0x20 PUSH1 0x0 CODECOPY PUSH1 0x0 RETURN INVALID PUSH1 0x80 PUSH1 0x40 MSTORE CALLVALUE DUP1 ISZERO PUSH2 0x10 JUMPI PUSH1 0x0 DUP1 REVERT JUMPDEST POP PUSH1 0x4 CALLDATASIZE LT PUSH2 0x41 JUMPI PUSH1 0x0 CALLDATALOAD PUSH1 0xE0 SHR DUP1 PUSH4 0xF2CD707 EQ PUSH2 0x46 JUMPI DUP1 PUSH4 0x288C98A0 EQ PUSH2 0x76 JUMPI DUP1 PUSH4 0x8A72EA6A EQ PUSH2 0xA6 JUMPI JUMPDEST PUSH1 0x0 DUP1 REVERT JUMPDEST PUSH2 0x60 PUSH1 0x4 DUP1 CALLDATASIZE SUB DUP2 ADD SWAP1 PUSH2 0x5B SWAP2 SWAP1 PUSH2 0x786 JUMP JUMPDEST PUSH2 0xDA JUMP JUMPDEST PUSH1 0x40 MLOAD PUSH2 0x6D SWAP2 SWAP1 PUSH2 0x7CE JUMP JUMPDEST PUSH1 0x40 MLOAD DUP1 SWAP2 SUB SWAP1 RETURN JUMPDEST PUSH2 0x90 PUSH1 0x4 DUP1 CALLDATASIZE SUB DUP2 ADD SWAP1 PUSH2 0x8B SWAP2 SWAP1 PUSH2 0x859 JUMP JUMPDEST PUSH2 0x3C9 JUMP JUMPDEST PUSH1 0x40 MLOAD PUSH2 0x9D SWAP2 SWAP1 PUSH2 0x7CE JUMP JUMPDEST PUSH1 0x40 MLOAD DUP1 SWAP2 SUB SWAP1 RETURN JUMPDEST PUSH2 0xC0 PUSH1 0x4 DUP1 CALLDATASIZE SUB DUP2 ADD SWAP1 PUSH2 0xBB SWAP2 SWAP1 PUSH2 0x786 JUMP JUMPDEST PUSH2 0x634 JUMP JUMPDEST PUSH1 0x40 MLOAD PUSH2 0xD1 SWAP6 SWAP5 SWAP4 SWAP3 SWAP2 SWAP1 PUSH2 0x93D JUMP JUMPDEST PUSH1 0x40 MLOAD DUP1 SWAP2 SUB SWAP1 RETURN JUMPDEST PUSH1 0x0 DUP1 PUSH1 0x0 DUP4 DUP2 SLOAD DUP2 LT PUSH2 0xF1 JUMPI PUSH2 0xF0 PUSH2 0x990 JUMP JUMPDEST JUMPDEST SWAP1 PUSH1 0x0 MSTORE PUSH1 0x20 PUSH1 0x0 KECCAK256 SWAP1 PUSH1 0x5 MUL ADD PUSH1 0x40 MLOAD DUP1 PUSH1 0xA0 ADD PUSH1 0x40 MSTORE SWAP1 DUP2 PUSH1 0x0 DUP3 ADD PUSH1 0x0 SWAP1 SLOAD SWAP1 PUSH2 0x100 EXP SWAP1 DIV PUSH20 0xFFFFFFFFFFFFFFFFFFFFFFFFFFFFFFFFFFFFFFFF AND PUSH20 0xFFFFFFFFFFFFFFFFFFFFFFFFFFFFFFFFFFFFFFFF AND PUSH20 0xFFFFFFFFFFFFFFFFFFFFFFFFFFFFFFFFFFFFFFFF AND DUP2 MSTORE PUSH1 0x20 ADD PUSH1 0x1 DUP3 ADD PUSH1 0x0 SWAP1 SLOAD SWAP1 PUSH2 0x100 EXP SWAP1 DIV PUSH20 0xFFFFFFFFFFFFFFFFFFFFFFFFFFFFFFFFFFFFFFFF AND PUSH20 0xFFFFFFFFFFFFFFFFFFFFFFFFFFFFFFFFFFFFFFFF AND PUSH20 0xFFFFFFFFFFFFFFFFFFFFFFFFFFFFFFFFFFFFFFFF AND DUP2 MSTORE PUSH1 0x20 ADD PUSH1 0x2 DUP3 ADD SLOAD DUP2 MSTORE PUSH1 0x20 ADD PUSH1 0x3 DUP3 ADD PUSH1 0x0 SWAP1 SLOAD SWAP1 PUSH2 0x100 EXP SWAP1 DIV PUSH20 0xFFFFFFFFFFFFFFFFFFFFFFFFFFFFFFFFFFFFFFFF AND PUSH20 0xFFFFFFFFFFFFFFFFFFFFFFFFFFFFFFFFFFFFFFFF AND PUSH20 0xFFFFFFFFFFFFFFFFFFFFFFFFFFFFFFFFFFFFFFFF AND DUP2 MSTORE PUSH1 0x20 ADD PUSH1 0x4 DUP3 ADD SLOAD DUP2 MSTORE POP POP SWAP1 POP DUP1 PUSH1 0x20 ADD MLOAD PUSH20 0xFFFFFFFFFFFFFFFFFFFFFFFFFFFFFFFFFFFFFFFF AND PUSH4 0x95EA7B3 CALLER DUP4 PUSH1 0x40 ADD MLOAD PUSH1 0x40 MLOAD DUP4 PUSH4 0xFFFFFFFF AND PUSH1 0xE0 SHL DUP2 MSTORE PUSH1 0x4 ADD PUSH2 0x265 SWAP3 SWAP2 SWAP1 PUSH2 0x9BF JUMP JUMPDEST PUSH1 0x20 PUSH1 0x40 MLOAD DUP1 DUP4 SUB DUP2 PUSH1 0x0 DUP8 GAS CALL ISZERO DUP1 ISZERO PUSH2 0x284 JUMPI RETURNDATASIZE PUSH1 0x0 DUP1 RETURNDATACOPY RETURNDATASIZE PUSH1 0x0 REVERT JUMPDEST POP POP POP POP PUSH1 0x40 MLOAD RETURNDATASIZE PUSH1 0x1F NOT PUSH1 0x1F DUP3 ADD AND DUP3 ADD DUP1 PUSH1 0x40 MSTORE POP DUP2 ADD SWAP1 PUSH2 0x2A8 SWAP2 SWAP1 PUSH2 0xA14 JUMP JUMPDEST POP DUP1 PUSH1 0x20 ADD MLOAD PUSH20 0xFFFFFFFFFFFFFFFFFFFFFFFFFFFFFFFFFFFFFFFF AND PUSH4 0x23B872DD ADDRESS CALLER DUP5 PUSH1 0x40 ADD MLOAD PUSH1 0x40 MLOAD DUP5 PUSH4 0xFFFFFFFF AND PUSH1 0xE0 SHL DUP2 MSTORE PUSH1 0x4 ADD PUSH2 0x2EE SWAP4 SWAP3 SWAP2 SWAP1 PUSH2 0xA41 JUMP JUMPDEST PUSH1 0x20 PUSH1 0x40 MLOAD DUP1 DUP4 SUB DUP2 PUSH1 0x0 DUP8 GAS CALL ISZERO DUP1 ISZERO PUSH2 0x30D JUMPI RETURNDATASIZE PUSH1 0x0 DUP1 RETURNDATACOPY RETURNDATASIZE PUSH1 0x0 REVERT JUMPDEST POP POP POP POP PUSH1 0x40 MLOAD RETURNDATASIZE PUSH1 0x1F NOT PUSH1 0x1F DUP3 ADD AND DUP3 ADD DUP1 PUSH1 0x40 MSTORE POP DUP2 ADD SWAP1 PUSH2 0x331 SWAP2 SWAP1 PUSH2 0xA14 JUMP JUMPDEST POP DUP1 PUSH1 0x60 ADD MLOAD PUSH20 0xFFFFFFFFFFFFFFFFFFFFFFFFFFFFFFFFFFFFFFFF AND PUSH4 0x23B872DD CALLER DUP4 PUSH1 0x0 ADD MLOAD DUP5 PUSH1 0x80 ADD MLOAD PUSH1 0x40 MLOAD DUP5 PUSH4 0xFFFFFFFF AND PUSH1 0xE0 SHL DUP2 MSTORE PUSH1 0x4 ADD PUSH2 0x37B SWAP4 SWAP3 SWAP2 SWAP1 PUSH2 0xA41 JUMP JUMPDEST PUSH1 0x20 PUSH1 0x40 MLOAD DUP1 DUP4 SUB DUP2 PUSH1 0x0 DUP8 GAS CALL ISZERO DUP1 ISZERO PUSH2 0x39A JUMPI RETURNDATASIZE PUSH1 0x0 DUP1 RETURNDATACOPY RETURNDATASIZE PUSH1 0x0 REVERT JUMPDEST POP POP POP POP PUSH1 0x40 MLOAD RETURNDATASIZE PUSH1 0x1F NOT PUSH1 0x1F DUP3 ADD AND DUP3 ADD DUP1 PUSH1 0x40 MSTORE POP DUP2 ADD SWAP1 PUSH2 0x3BE SWAP2 SWAP1 PUSH2 0xA14 JUMP JUMPDEST POP PUSH1 0x1 SWAP2 POP POP SWAP2 SWAP1 POP JUMP JUMPDEST PUSH1 0x0 DUP5 PUSH20 0xFFFFFFFFFFFFFFFFFFFFFFFFFFFFFFFFFFFFFFFF AND PUSH4 0x23B872DD CALLER ADDRESS DUP8 PUSH1 0x40 MLOAD DUP5 PUSH4 0xFFFFFFFF AND PUSH1 0xE0 SHL DUP2 MSTORE PUSH1 0x4 ADD PUSH2 0x408 SWAP4 SWAP3 SWAP2 SWAP1 PUSH2 0xA41 JUMP JUMPDEST PUSH1 0x20 PUSH1 0x40 MLOAD DUP1 DUP4 SUB DUP2 PUSH1 0x0 DUP8 GAS CALL ISZERO DUP1 ISZERO PUSH2 0x427 JUMPI RETURNDATASIZE PUSH1 0x0 DUP1 RETURNDATACOPY RETURNDATASIZE PUSH1 0x0 REVERT JUMPDEST POP POP POP POP PUSH1 0x40 MLOAD RETURNDATASIZE PUSH1 0x1F NOT PUSH1 0x1F DUP3 ADD AND DUP3 ADD DUP1 PUSH1 0x40 MSTORE POP DUP2 ADD SWAP1 PUSH2 0x44B SWAP2 SWAP1 PUSH2 0xA14 JUMP JUMPDEST POP PUSH2 0x454 PUSH2 0x6DA JUMP JUMPDEST CALLER DUP2 PUSH1 0x0 ADD SWAP1 PUSH20 0xFFFFFFFFFFFFFFFFFFFFFFFFFFFFFFFFFFFFFFFF AND SWAP1 DUP2 PUSH20 0xFFFFFFFFFFFFFFFFFFFFFFFFFFFFFFFFFFFFFFFF AND DUP2 MSTORE POP POP DUP6 DUP2 PUSH1 0x20 ADD SWAP1 PUSH20 0xFFFFFFFFFFFFFFFFFFFFFFFFFFFFFFFFFFFFFFFF AND SWAP1 DUP2 PUSH20 0xFFFFFFFFFFFFFFFFFFFFFFFFFFFFFFFFFFFFFFFF AND DUP2 MSTORE POP POP DUP5 DUP2 PUSH1 0x40 ADD DUP2 DUP2 MSTORE POP POP DUP4 DUP2 PUSH1 0x60 ADD SWAP1 PUSH20 0xFFFFFFFFFFFFFFFFFFFFFFFFFFFFFFFFFFFFFFFF AND SWAP1 DUP2 PUSH20 0xFFFFFFFFFFFFFFFFFFFFFFFFFFFFFFFFFFFFFFFF AND DUP2 MSTORE POP POP DUP3 DUP2 PUSH1 0x80 ADD DUP2 DUP2 MSTORE POP POP PUSH1 0x0 DUP2 SWAP1 DUP1 PUSH1 0x1 DUP2 SLOAD ADD DUP1 DUP3 SSTORE DUP1 SWAP2 POP POP PUSH1 0x1 SWAP1 SUB SWAP1 PUSH1 0x0 MSTORE PUSH1 0x20 PUSH1 0x0 KECCAK256 SWAP1 PUSH1 0x5 MUL ADD PUSH1 0x0 SWAP1 SWAP2 SWAP1 SWAP2 SWAP1 SWAP2 POP PUSH1 0x0 DUP3 ADD MLOAD DUP2 PUSH1 0x0 ADD PUSH1 0x0 PUSH2 0x100 EXP DUP2 SLOAD DUP2 PUSH20 0xFFFFFFFFFFFFFFFFFFFFFFFFFFFFFFFFFFFFFFFF MUL NOT AND SWAP1 DUP4 PUSH20 0xFFFFFFFFFFFFFFFFFFFFFFFFFFFFFFFFFFFFFFFF AND MUL OR SWAP1 SSTORE POP PUSH1 0x20 DUP3 ADD MLOAD DUP2 PUSH1 0x1 ADD PUSH1 0x0 PUSH2 0x100 EXP DUP2 SLOAD DUP2 PUSH20 0xFFFFFFFFFFFFFFFFFFFFFFFFFFFFFFFFFFFFFFFF MUL NOT AND SWAP1 DUP4 PUSH20 0xFFFFFFFFFFFFFFFFFFFFFFFFFFFFFFFFFFFFFFFF AND MUL OR SWAP1 SSTORE POP PUSH1 0x40 DUP3 ADD MLOAD DUP2 PUSH1 0x2 ADD SSTORE PUSH1 0x60 DUP3 ADD MLOAD DUP2 PUSH1 0x3 ADD PUSH1 0x0 PUSH2 0x100 EXP DUP2 SLOAD DUP2 PUSH20 0xFFFFFFFFFFFFFFFFFFFFFFFFFFFFFFFFFFFFFFFF MUL NOT AND SWAP1 DUP4 PUSH20 0xFFFFFFFFFFFFFFFFFFFFFFFFFFFFFFFFFFFFFFFF AND MUL OR SWAP1 SSTORE POP PUSH1 0x80 DUP3 ADD MLOAD DUP2 PUSH1 0x4 ADD SSTORE POP POP PUSH1 0x1 SWAP2 POP POP SWAP5 SWAP4 POP POP POP POP JUMP JUMPDEST PUSH1 0x0 DUP2 DUP2 SLOAD DUP2 LT PUSH2 0x644 JUMPI PUSH1 0x0 DUP1 REVERT JUMPDEST SWAP1 PUSH1 0x0 MSTORE PUSH1 0x20 PUSH1 0x0 KECCAK256 SWAP1 PUSH1 0x5 MUL ADD PUSH1 0x0 SWAP2 POP SWAP1 POP DUP1 PUSH1 0x0 ADD PUSH1 0x0 SWAP1 SLOAD SWAP1 PUSH2 0x100 EXP SWAP1 DIV PUSH20 0xFFFFFFFFFFFFFFFFFFFFFFFFFFFFFFFFFFFFFFFF AND SWAP1 DUP1 PUSH1 0x1 ADD PUSH1 0x0 SWAP1 SLOAD SWAP1 PUSH2 0x100 EXP SWAP1 DIV PUSH20 0xFFFFFFFFFFFFFFFFFFFFFFFFFFFFFFFFFFFFFFFF AND SWAP1 DUP1 PUSH1 0x2 ADD SLOAD SWAP1 DUP1 PUSH1 0x3 ADD PUSH1 0x0 SWAP1 SLOAD SWAP1 PUSH2 0x100 EXP SWAP1 DIV PUSH20 0xFFFFFFFFFFFFFFFFFFFFFFFFFFFFFFFFFFFFFFFF AND SWAP1 DUP1 PUSH1 0x4 ADD SLOAD SWAP1 POP DUP6 JUMP JUMPDEST PUSH1 0x40 MLOAD DUP1 PUSH1 0xA0 ADD PUSH1 0x40 MSTORE DUP1 PUSH1 0x0 PUSH20 0xFFFFFFFFFFFFFFFFFFFFFFFFFFFFFFFFFFFFFFFF AND DUP2 MSTORE PUSH1 0x20 ADD PUSH1 0x0 PUSH20 0xFFFFFFFFFFFFFFFFFFFFFFFFFFFFFFFFFFFFFFFF AND DUP2 MSTORE PUSH1 0x20 ADD PUSH1 0x0 DUP2 MSTORE PUSH1 0x20 ADD PUSH1 0x0 PUSH20 0xFFFFFFFFFFFFFFFFFFFFFFFFFFFFFFFFFFFFFFFF AND DUP2 MSTORE PUSH1 0x20 ADD PUSH1 0x0 DUP2 MSTORE POP SWAP1 JUMP JUMPDEST PUSH1 0x0 DUP1 REVERT JUMPDEST PUSH1 0x0 DUP2 SWAP1 POP SWAP2 SWAP1 POP JUMP JUMPDEST PUSH2 0x763 DUP2 PUSH2 0x750 JUMP JUMPDEST DUP2 EQ PUSH2 0x76E JUMPI PUSH1 0x0 DUP1 REVERT JUMPDEST POP JUMP JUMPDEST PUSH1 0x0 DUP2 CALLDATALOAD SWAP1 POP PUSH2 0x780 DUP2 PUSH2 0x75A JUMP JUMPDEST SWAP3 SWAP2 POP POP JUMP JUMPDEST PUSH1 0x0 PUSH1 0x20 DUP3 DUP5 SUB SLT ISZERO PUSH2 0x79C JUMPI PUSH2 0x79B PUSH2 0x74B JUMP JUMPDEST JUMPDEST PUSH1 0x0 PUSH2 0x7AA DUP5 DUP3 DUP6 ADD PUSH2 0x771 JUMP JUMPDEST SWAP2 POP POP SWAP3 SWAP2 POP POP JUMP JUMPDEST PUSH1 0x0 DUP2 ISZERO ISZERO SWAP1 POP SWAP2 SWAP1 POP JUMP JUMPDEST PUSH2 0x7C8 DUP2 PUSH2 0x7B3 JUMP JUMPDEST DUP3 MSTORE POP POP JUMP JUMPDEST PUSH1 0x0 PUSH1 0x20 DUP3 ADD SWAP1 POP PUSH2 0x7E3 PUSH1 0x0 DUP4 ADD DUP5 PUSH2 0x7BF JUMP JUMPDEST SWAP3 SWAP2 POP POP JUMP JUMPDEST PUSH1 0x0 PUSH20 0xFFFFFFFFFFFFFFFFFFFFFFFFFFFFFFFFFFFFFFFF DUP3 AND SWAP1 POP SWAP2 SWAP1 POP JUMP JUMPDEST PUSH1 0x0 PUSH2 0x814 DUP3 PUSH2 0x7E9 JUMP JUMPDEST SWAP1 POP SWAP2 SWAP1 POP JUMP JUMPDEST PUSH1 0x0 PUSH2 0x826 DUP3 PUSH2 0x809 JUMP JUMPDEST SWAP1 POP SWAP2 SWAP1 POP JUMP JUMPDEST PUSH2 0x836 DUP2 PUSH2 0x81B JUMP JUMPDEST DUP2 EQ PUSH2 0x841 JUMPI PUSH1 0x0 DUP1 REVERT JUMPDEST POP JUMP JUMPDEST PUSH1 0x0 DUP2 CALLDATALOAD SWAP1 POP PUSH2 0x853 DUP2 PUSH2 0x82D JUMP JUMPDEST SWAP3 SWAP2 POP POP JUMP JUMPDEST PUSH1 0x0 DUP1 PUSH1 0x0 DUP1 PUSH1 0x80 DUP6 DUP8 SUB SLT ISZERO PUSH2 0x873 JUMPI PUSH2 0x872 PUSH2 0x74B JUMP JUMPDEST JUMPDEST PUSH1 0x0 PUSH2 0x881 DUP8 DUP3 DUP9 ADD PUSH2 0x844 JUMP JUMPDEST SWAP5 POP POP PUSH1 0x20 PUSH2 0x892 DUP8 DUP3 DUP9 ADD PUSH2 0x771 JUMP JUMPDEST SWAP4 POP POP PUSH1 0x40 PUSH2 0x8A3 DUP8 DUP3 DUP9 ADD PUSH2 0x844 JUMP JUMPDEST SWAP3 POP POP PUSH1 0x60 PUSH2 0x8B4 DUP8 DUP3 DUP9 ADD PUSH2 0x771 JUMP JUMPDEST SWAP2 POP POP SWAP3 SWAP6 SWAP2 SWAP5 POP SWAP3 POP JUMP JUMPDEST PUSH2 0x8C9 DUP2 PUSH2 0x809 JUMP JUMPDEST DUP3 MSTORE POP POP JUMP JUMPDEST PUSH1 0x0 DUP2 SWAP1 POP SWAP2 SWAP1 POP JUMP JUMPDEST PUSH1 0x0 PUSH2 0x8F4 PUSH2 0x8EF PUSH2 0x8EA DUP5 PUSH2 0x7E9 JUMP JUMPDEST PUSH2 0x8CF JUMP JUMPDEST PUSH2 0x7E9 JUMP JUMPDEST SWAP1 POP SWAP2 SWAP1 POP JUMP JUMPDEST PUSH1 0x0 PUSH2 0x906 DUP3 PUSH2 0x8D9 JUMP JUMPDEST SWAP1 POP SWAP2 SWAP1 POP JUMP JUMPDEST PUSH1 0x0 PUSH2 0x918 DUP3 PUSH2 0x8FB JUMP JUMPDEST SWAP1 POP SWAP2 SWAP1 POP JUMP JUMPDEST PUSH2 0x928 DUP2 PUSH2 0x90D JUMP JUMPDEST DUP3 MSTORE POP POP JUMP JUMPDEST PUSH2 0x937 DUP2 PUSH2 0x750 JUMP JUMPDEST DUP3 MSTORE POP POP JUMP JUMPDEST PUSH1 0x0 PUSH1 0xA0 DUP3 ADD SWAP1 POP PUSH2 0x952 PUSH1 0x0 DUP4 ADD DUP9 PUSH2 0x8C0 JUMP JUMPDEST PUSH2 0x95F PUSH1 0x20 DUP4 ADD DUP8 PUSH2 0x91F JUMP JUMPDEST PUSH2 0x96C PUSH1 0x40 DUP4 ADD DUP7 PUSH2 0x92E JUMP JUMPDEST PUSH2 0x979 PUSH1 0x60 DUP4 ADD DUP6 PUSH2 0x91F JUMP JUMPDEST PUSH2 0x986 PUSH1 0x80 DUP4 ADD DUP5 PUSH2 0x92E JUMP JUMPDEST SWAP7 SWAP6 POP POP POP POP POP POP JUMP JUMPDEST PUSH32 0x4E487B7100000000000000000000000000000000000000000000000000000000 PUSH1 0x0 MSTORE PUSH1 0x32 PUSH1 0x4 MSTORE PUSH1 0x24 PUSH1 0x0 REVERT JUMPDEST PUSH1 0x0 PUSH1 0x40 DUP3 ADD SWAP1 POP PUSH2 0x9D4 PUSH1 0x0 DUP4 ADD DUP6 PUSH2 0x8C0 JUMP JUMPDEST PUSH2 0x9E1 PUSH1 0x20 DUP4 ADD DUP5 PUSH2 0x92E JUMP JUMPDEST SWAP4 SWAP3 POP POP POP JUMP JUMPDEST PUSH2 0x9F1 DUP2 PUSH2 0x7B3 JUMP JUMPDEST DUP2 EQ PUSH2 0x9FC JUMPI PUSH1 0x0 DUP1 REVERT JUMPDEST POP JUMP JUMPDEST PUSH1 0x0 DUP2 MLOAD SWAP1 POP PUSH2 0xA0E DUP2 PUSH2 0x9E8 JUMP JUMPDEST SWAP3 SWAP2 POP POP JUMP JUMPDEST PUSH1 0x0 PUSH1 0x20 DUP3 DUP5 SUB SLT ISZERO PUSH2 0xA2A JUMPI PUSH2 0xA29 PUSH2 0x74B JUMP JUMPDEST JUMPDEST PUSH1 0x0 PUSH2 0xA38 DUP5 DUP3 DUP6 ADD PUSH2 0x9FF JUMP JUMPDEST SWAP2 POP POP SWAP3 SWAP2 POP POP JUMP JUMPDEST PUSH1 0x0 PUSH1 0x60 DUP3 ADD SWAP1 POP PUSH2 0xA56 PUSH1 0x0 DUP4 ADD DUP7 PUSH2 0x8C0 JUMP JUMPDEST PUSH2 0xA63 PUSH1 0x20 DUP4 ADD DUP6 PUSH2 0x8C0 JUMP JUMPDEST PUSH2 0xA70 PUSH1 0x40 DUP4 ADD DUP5 PUSH2 0x92E JUMP JUMPDEST SWAP5 SWAP4 POP POP POP POP JUMP INVALID LOG2 PUSH5 0x6970667358 0x22 SLT KECCAK256 DUP12 LOG2 0xA6 0x4C CALLDATALOAD 0xD2 PUSH10 0xD2307A664676E61ED14 0xD1 0x1F 0x26 0x26 0xF8 LOG2 0x22 0xD8 0xA6 0x1F 0xFB 0xA9 0xC SWAP3 SWAP7 PUSH5 0x736F6C6343 STOP ADDMOD SLT STOP CALLER "
				},
				"gasEstimates": {
					"creation": {
						"codeDepositCost": "546800",
						"executionCost": "581",
						"totalCost": "547381"
					},
					"external": {
						"Add(address,uint256,address,uint256)": "infinite",
						"ExchangeWith(uint256)": "infinite",
						"offers(uint256)": "infinite"
					}
				},
				"methodIdentifiers": {
					"Add(address,uint256,address,uint256)": "288c98a0",
					"ExchangeWith(uint256)": "0f2cd707",
					"offers(uint256)": "8a72ea6a"
				}
			},
			"storageLayout": {
				"storage": [
					{
						"astId": 209,
						"contract": "SimpleSwap.sol:SimpleSwap",
						"label": "offers",
						"offset": 0,
						"slot": "0",
						"type": "t_array(t_struct(Offer)205_storage)dyn_storage"
					}
				],
				"types": {
					"t_address": {
						"encoding": "inplace",
						"label": "address",
						"numberOfBytes": "20"
					},
					"t_array(t_struct(Offer)205_storage)dyn_storage": {
						"base": "t_struct(Offer)205_storage",
						"encoding": "dynamic_array",
						"label": "struct SimpleSwap.Offer[]",
						"numberOfBytes": "32"
					},
					"t_contract(IERC20)189": {
						"encoding": "inplace",
						"label": "contract IERC20",
						"numberOfBytes": "20"
					},
					"t_struct(Offer)205_storage": {
						"encoding": "inplace",
						"label": "struct SimpleSwap.Offer",
						"members": [
							{
								"astId": 194,
								"contract": "SimpleSwap.sol:SimpleSwap",
								"label": "seller",
								"offset": 0,
								"slot": "0",
								"type": "t_address"
							},
							{
								"astId": 197,
								"contract": "SimpleSwap.sol:SimpleSwap",
								"label": "sell",
								"offset": 0,
								"slot": "1",
								"type": "t_contract(IERC20)189"
							},
							{
								"astId": 199,
								"contract": "SimpleSwap.sol:SimpleSwap",
								"label": "sellAmount",
								"offset": 0,
								"slot": "2",
								"type": "t_uint256"
							},
							{
								"astId": 202,
								"contract": "SimpleSwap.sol:SimpleSwap",
								"label": "buy",
								"offset": 0,
								"slot": "3",
								"type": "t_contract(IERC20)189"
							},
							{
								"astId": 204,
								"contract": "SimpleSwap.sol:SimpleSwap",
								"label": "buyAmount",
								"offset": 0,
								"slot": "4",
								"type": "t_uint256"
							}
						],
						"numberOfBytes": "160"
					},
					"t_uint256": {
						"encoding": "inplace",
						"label": "uint256",
						"numberOfBytes": "32"
					}
				}
			},
			"userdoc": {
				"kind": "user",
				"methods": {},
				"version": 1
			}
		}
	}
}