{
	"USDC.sol": {
		"USDC": {
			"abi": [
				{
					"inputs": [],
					"stateMutability": "nonpayable",
					"type": "constructor"
				},
				{
					"anonymous": false,
					"inputs": [
						{
							"indexed": true,
							"internalType": "address",
							"name": "owner",
							"type": "address"
						},
						{
							"indexed": true,
							"internalType": "address",
							"name": "spender",
							"type": "address"
						},
						{
							"indexed": false,
							"internalType": "uint256",
							"name": "value",
							"type": "uint256"
						}
					],
					"name": "Approval",
					"type": "event"
				},
				{
					"anonymous": false,
					"inputs": [
						{
							"indexed": true,
							"internalType": "address",
							"name": "from",
							"type": "address"
						},
						{
							"indexed": true,
							"internalType": "address",
							"name": "to",
							"type": "address"
						},
						{
							"indexed": false,
							"internalType": "uint256",
							"name": "value",
							"type": "uint256"
						}
					],
					"name": "Transfer",
					"type": "event"
				},
				{
					"anonymous": false,
					"inputs": [
						{
							"indexed": true,
							"internalType": "address",
							"name": "minter",
							"type": "address"
						},
						{
							"indexed": false,
							"internalType": "uint256",
							"name": "limit",
							"type": "uint256"
						}
					],
					"name": "UpdateMinter",
					"type": "event"
				},
				{
					"anonymous": false,
					"inputs": [
						{
							"indexed": true,
							"internalType": "address",
							"name": "newOwner",
							"type": "address"
						}
					],
					"name": "UpdateOwner",
					"type": "event"
				},
				{
					"inputs": [],
					"name": "DOMAIN_SEPARATOR",
					"outputs": [
						{
							"internalType": "bytes32",
							"name": "",
							"type": "bytes32"
						}
					],
					"stateMutability": "view",
					"type": "function"
				},
				{
					"inputs": [
						{
							"internalType": "address",
							"name": "",
							"type": "address"
						},
						{
							"internalType": "address",
							"name": "",
							"type": "address"
						}
					],
					"name": "allowance",
					"outputs": [
						{
							"internalType": "uint256",
							"name": "",
							"type": "uint256"
						}
					],
					"stateMutability": "view",
					"type": "function"
				},
				{
					"inputs": [
						{
							"internalType": "address",
							"name": "spender",
							"type": "address"
						},
						{
							"internalType": "uint256",
							"name": "amount",
							"type": "uint256"
						}
					],
					"name": "approve",
					"outputs": [
						{
							"internalType": "bool",
							"name": "",
							"type": "bool"
						}
					],
					"stateMutability": "nonpayable",
					"type": "function"
				},
				{
					"inputs": [
						{
							"internalType": "address",
							"name": "",
							"type": "address"
						}
					],
					"name": "balanceOf",
					"outputs": [
						{
							"internalType": "uint256",
							"name": "",
							"type": "uint256"
						}
					],
					"stateMutability": "view",
					"type": "function"
				},
				{
					"inputs": [
						{
							"internalType": "uint256",
							"name": "amount",
							"type": "uint256"
						}
					],
					"name": "burn",
					"outputs": [
						{
							"internalType": "bool",
							"name": "",
							"type": "bool"
						}
					],
					"stateMutability": "nonpayable",
					"type": "function"
				},
				{
					"inputs": [],
					"name": "decimals",
					"outputs": [
						{
							"internalType": "uint8",
							"name": "",
							"type": "uint8"
						}
					],
					"stateMutability": "view",
					"type": "function"
				},
				{
					"inputs": [
						{
							"internalType": "uint256",
							"name": "amount",
							"type": "uint256"
						}
					],
					"name": "mint",
					"outputs": [
						{
							"internalType": "bool",
							"name": "",
							"type": "bool"
						}
					],
					"stateMutability": "nonpayable",
					"type": "function"
				},
				{
					"inputs": [
						{
							"internalType": "address",
							"name": "",
							"type": "address"
						}
					],
					"name": "minterBalance",
					"outputs": [
						{
							"internalType": "uint256",
							"name": "limit",
							"type": "uint256"
						},
						{
							"internalType": "uint256",
							"name": "minted",
							"type": "uint256"
						}
					],
					"stateMutability": "view",
					"type": "function"
				},
				{
					"inputs": [],
					"name": "name",
					"outputs": [
						{
							"internalType": "string",
							"name": "",
							"type": "string"
						}
					],
					"stateMutability": "view",
					"type": "function"
				},
				{
					"inputs": [
						{
							"internalType": "address",
							"name": "",
							"type": "address"
						}
					],
					"name": "nonces",
					"outputs": [
						{
							"internalType": "uint256",
							"name": "",
							"type": "uint256"
						}
					],
					"stateMutability": "view",
					"type": "function"
				},
				{
					"inputs": [],
					"name": "owner",
					"outputs": [
						{
							"internalType": "address",
							"name": "",
							"type": "address"
						}
					],
					"stateMutability": "view",
					"type": "function"
				},
				{
					"inputs": [
						{
							"internalType": "address",
							"name": "owner",
							"type": "address"
						},
						{
							"internalType": "address",
							"name": "spender",
							"type": "address"
						},
						{
							"internalType": "uint256",
							"name": "value",
							"type": "uint256"
						},
						{
							"internalType": "uint256",
							"name": "deadline",
							"type": "uint256"
						},
						{
							"internalType": "uint8",
							"name": "v",
							"type": "uint8"
						},
						{
							"internalType": "bytes32",
							"name": "r",
							"type": "bytes32"
						},
						{
							"internalType": "bytes32",
							"name": "s",
							"type": "bytes32"
						}
					],
					"name": "permit",
					"outputs": [],
					"stateMutability": "nonpayable",
					"type": "function"
				},
				{
					"inputs": [],
					"name": "symbol",
					"outputs": [
						{
							"internalType": "string",
							"name": "",
							"type": "string"
						}
					],
					"stateMutability": "view",
					"type": "function"
				},
				{
					"inputs": [],
					"name": "totalSupply",
					"outputs": [
						{
							"internalType": "uint256",
							"name": "",
							"type": "uint256"
						}
					],
					"stateMutability": "view",
					"type": "function"
				},
				{
					"inputs": [
						{
							"internalType": "address",
							"name": "recipient",
							"type": "address"
						},
						{
							"internalType": "uint256",
							"name": "amount",
							"type": "uint256"
						}
					],
					"name": "transfer",
					"outputs": [
						{
							"internalType": "bool",
							"name": "",
							"type": "bool"
						}
					],
					"stateMutability": "nonpayable",
					"type": "function"
				},
				{
					"inputs": [
						{
							"internalType": "address",
							"name": "sender",
							"type": "address"
						},
						{
							"internalType": "address",
							"name": "recipient",
							"type": "address"
						},
						{
							"internalType": "uint256",
							"name": "amount",
							"type": "uint256"
						}
					],
					"name": "transferFrom",
					"outputs": [
						{
							"internalType": "bool",
							"name": "",
							"type": "bool"
						}
					],
					"stateMutability": "nonpayable",
					"type": "function"
				},
				{
					"inputs": [
						{
							"internalType": "address",
							"name": "minter",
							"type": "address"
						},
						{
							"internalType": "uint256",
							"name": "limit",
							"type": "uint256"
						}
					],
					"name": "updateMinter",
					"outputs": [
						{
							"internalType": "bool",
							"name": "",
							"type": "bool"
						}
					],
					"stateMutability": "nonpayable",
					"type": "function"
				},
				{
					"inputs": [
						{
							"internalType": "address",
							"name": "newOwner",
							"type": "address"
						}
					],
					"name": "updateOwner",
					"outputs": [],
					"stateMutability": "nonpayable",
					"type": "function"
				}
			],
			"devdoc": {
				"events": {
					"Approval(address,address,uint256)": {
						"details": "Emitted when the allowance of a `spender` for an `owner` is set by a call to {approve}. `value` is the new allowance."
					},
					"Transfer(address,address,uint256)": {
						"details": "Emitted when `value` tokens are moved from one account (`from`) to another (`to`). Note that `value` may be zero."
					}
				},
				"kind": "dev",
				"methods": {
					"approve(address,uint256)": {
						"details": "Sets `amount` as the allowance of `spender` over the caller's tokens. Returns a boolean value indicating whether the operation succeeded. IMPORTANT: Beware that changing an allowance with this method brings the risk that someone may use both the old and the new allowance by unfortunate transaction ordering. One possible solution to mitigate this race condition is to first reduce the spender's allowance to 0 and set the desired value afterwards: https://github.com/ethereum/EIPs/issues/20#issuecomment-263524729 Emits an {Approval} event."
					},
					"permit(address,address,uint256,uint256,uint8,bytes32,bytes32)": {
						"details": "Sets `value` as the allowance of `spender` over ``owner``'s tokens, given ``owner``'s signed approval. IMPORTANT: The same issues {IERC20-approve} has related to transaction ordering also apply here. Emits an {Approval} event. Requirements: - `spender` cannot be the zero address. - `deadline` must be a timestamp in the future. - `v`, `r` and `s` must be a valid `secp256k1` signature from `owner` over the EIP712-formatted function arguments. - the signature must use ``owner``'s current nonce (see {nonces}). For more information on the signature format, see the https://eips.ethereum.org/EIPS/eip-2612#specification[relevant EIP section]."
					}
				},
				"version": 1
			},
			"evm": {
				"assembly": "    /* \"USDC.sol\":199:1676  contract USDC is ERC20, ERC20Permit, Ownable {... */\n  mstore(0x40, 0x80)\n    /* \"USDC.sol\":250:296  constructor() ERC20(\"USD Coin\", \"USDC\", 18) {} */\n  callvalue\n  dup1\n  iszero\n  tag_1\n  jumpi\n  0x00\n  dup1\n  revert\ntag_1:\n  pop\n    /* \"token/ERC20.sol\":514:702  constructor(... */\n  mload(0x40)\n  dup1\n  0x40\n  add\n  0x40\n  mstore\n  dup1\n  0x08\n  dup2\n  mstore\n  0x20\n  add\n  0x55534420436f696e000000000000000000000000000000000000000000000000\n  dup2\n  mstore\n  pop\n  mload(0x40)\n  dup1\n  0x40\n  add\n  0x40\n  mstore\n  dup1\n  0x04\n  dup2\n  mstore\n  0x20\n  add\n  0x5553444300000000000000000000000000000000000000000000000000000000\n  dup2\n  mstore\n  pop\n    /* \"USDC.sol\":290:292  18 */\n  0x12\n    /* \"token/ERC20.sol\":634:639  _name */\n  dup3\n    /* \"token/ERC20.sol\":627:631  name */\n  0x00\n    /* \"token/ERC20.sol\":627:639  name = _name */\n  swap1\n  dup2\n  tag_7\n  swap2\n  swap1\n  tag_8\n  jump\t// in\ntag_7:\n  pop\n    /* \"token/ERC20.sol\":658:665  _symbol */\n  dup2\n    /* \"token/ERC20.sol\":649:655  symbol */\n  0x01\n    /* \"token/ERC20.sol\":649:665  symbol = _symbol */\n  swap1\n  dup2\n  tag_9\n  swap2\n  swap1\n  tag_8\n  jump\t// in\ntag_9:\n  pop\n    /* \"token/ERC20.sol\":686:695  _decimals */\n  dup1\n    /* \"token/ERC20.sol\":675:683  decimals */\n  0x02\n  0x00\n    /* \"token/ERC20.sol\":675:695  decimals = _decimals */\n  0x0100\n  exp\n  dup2\n  sload\n  dup2\n  0xff\n  mul\n  not\n  and\n  swap1\n  dup4\n  0xff\n  and\n  mul\n  or\n  swap1\n  sstore\n  pop\n    /* \"token/ERC20.sol\":514:702  constructor(... */\n  pop\n  pop\n  pop\n    /* \"token/ERC20Permit.sol\":402:497  keccak256(\"EIP712Domain(string name,string version,uint256 chainId,address verifyingContract)\") */\n  0x8b73c3c69bb8fe3d512ecc4cf759cc79239f7b179b0ffacaa9a75d522b39400f\n    /* \"token/ERC20Permit.sol\":515:519  name */\n  0x00\n    /* \"token/ERC20Permit.sol\":499:521  keccak256(bytes(name)) */\n  mload(0x40)\n  tag_11\n  swap2\n  swap1\n  tag_12\n  jump\t// in\ntag_11:\n  mload(0x40)\n  dup1\n  swap2\n  sub\n  swap1\n  keccak256\n    /* \"token/ERC20Permit.sol\":523:537  keccak256(\"1\") */\n  0xc89efdaa54c0f20c7adf612882df0950f5a951637e0307cdcb4c672f298b8bc6\n    /* \"token/ERC20Permit.sol\":539:552  block.chainid */\n  chainid\n    /* \"token/ERC20Permit.sol\":562:566  this */\n  address\n    /* \"token/ERC20Permit.sol\":391:568  abi.encode(keccak256(\"EIP712Domain(string name,string version,uint256 chainId,address verifyingContract)\"), keccak256(bytes(name)), keccak256(\"1\"), block.chainid, address(this)) */\n  add(0x20, mload(0x40))\n  tag_13\n  swap6\n  swap5\n  swap4\n  swap3\n  swap2\n  swap1\n  tag_14\n  jump\t// in\ntag_13:\n  mload(0x40)\n  0x20\n  dup2\n  dup4\n  sub\n  sub\n  dup2\n  mstore\n  swap1\n  0x40\n  mstore\n    /* \"token/ERC20Permit.sol\":381:569  keccak256(abi.encode(keccak256(\"EIP712Domain(string name,string version,uint256 chainId,address verifyingContract)\"), keccak256(bytes(name)), keccak256(\"1\"), block.chainid, address(this))) */\n  dup1\n  mload\n  swap1\n  0x20\n  add\n  keccak256\n    /* \"token/ERC20Permit.sol\":362:378  DOMAIN_SEPARATOR */\n  0x06\n    /* \"token/ERC20Permit.sol\":362:569  DOMAIN_SEPARATOR = keccak256(abi.encode(keccak256(\"EIP712Domain(string name,string version,uint256 chainId,address verifyingContract)\"), keccak256(bytes(name)), keccak256(\"1\"), block.chainid, address(this))) */\n  dup2\n  swap1\n  sstore\n  pop\n    /* \"access/Ownable.sol\":199:209  msg.sender */\n  caller\n    /* \"access/Ownable.sol\":191:196  owner */\n  0x08\n  0x00\n    /* \"access/Ownable.sol\":191:209  owner = msg.sender */\n  0x0100\n  exp\n  dup2\n  sload\n  dup2\n  0xffffffffffffffffffffffffffffffffffffffff\n  mul\n  not\n  and\n  swap1\n  dup4\n  0xffffffffffffffffffffffffffffffffffffffff\n  and\n  mul\n  or\n  swap1\n  sstore\n  pop\n    /* \"USDC.sol\":199:1676  contract USDC is ERC20, ERC20Permit, Ownable {... */\n  jump(tag_17)\n    /* \"#utility.yul\":7:106   */\ntag_18:\n    /* \"#utility.yul\":59:65   */\n  0x00\n    /* \"#utility.yul\":93:98   */\n  dup2\n    /* \"#utility.yul\":87:99   */\n  mload\n    /* \"#utility.yul\":77:99   */\n  swap1\n  pop\n    /* \"#utility.yul\":7:106   */\n  swap2\n  swap1\n  pop\n  jump\t// out\n    /* \"#utility.yul\":112:292   */\ntag_19:\n    /* \"#utility.yul\":160:237   */\n  0x4e487b7100000000000000000000000000000000000000000000000000000000\n    /* \"#utility.yul\":157:158   */\n  0x00\n    /* \"#utility.yul\":150:238   */\n  mstore\n    /* \"#utility.yul\":257:261   */\n  0x41\n    /* \"#utility.yul\":254:255   */\n  0x04\n    /* \"#utility.yul\":247:262   */\n  mstore\n    /* \"#utility.yul\":281:285   */\n  0x24\n    /* \"#utility.yul\":278:279   */\n  0x00\n    /* \"#utility.yul\":271:286   */\n  revert\n    /* \"#utility.yul\":298:478   */\ntag_20:\n    /* \"#utility.yul\":346:423   */\n  0x4e487b7100000000000000000000000000000000000000000000000000000000\n    /* \"#utility.yul\":343:344   */\n  0x00\n    /* \"#utility.yul\":336:424   */\n  mstore\n    /* \"#utility.yul\":443:447   */\n  0x22\n    /* \"#utility.yul\":440:441   */\n  0x04\n    /* \"#utility.yul\":433:448   */\n  mstore\n    /* \"#utility.yul\":467:471   */\n  0x24\n    /* \"#utility.yul\":464:465   */\n  0x00\n    /* \"#utility.yul\":457:472   */\n  revert\n    /* \"#utility.yul\":484:804   */\ntag_21:\n    /* \"#utility.yul\":528:534   */\n  0x00\n    /* \"#utility.yul\":565:566   */\n  0x02\n    /* \"#utility.yul\":559:563   */\n  dup3\n    /* \"#utility.yul\":555:567   */\n  div\n    /* \"#utility.yul\":545:567   */\n  swap1\n  pop\n    /* \"#utility.yul\":612:613   */\n  0x01\n    /* \"#utility.yul\":606:610   */\n  dup3\n    /* \"#utility.yul\":602:614   */\n  and\n    /* \"#utility.yul\":633:651   */\n  dup1\n    /* \"#utility.yul\":623:704   */\n  tag_52\n  jumpi\n    /* \"#utility.yul\":689:693   */\n  0x7f\n    /* \"#utility.yul\":681:687   */\n  dup3\n    /* \"#utility.yul\":677:694   */\n  and\n    /* \"#utility.yul\":667:694   */\n  swap2\n  pop\n    /* \"#utility.yul\":623:704   */\ntag_52:\n    /* \"#utility.yul\":751:753   */\n  0x20\n    /* \"#utility.yul\":743:749   */\n  dup3\n    /* \"#utility.yul\":740:754   */\n  lt\n    /* \"#utility.yul\":720:738   */\n  dup2\n    /* \"#utility.yul\":717:755   */\n  sub\n    /* \"#utility.yul\":714:798   */\n  tag_53\n  jumpi\n    /* \"#utility.yul\":770:788   */\n  tag_54\n  tag_20\n  jump\t// in\ntag_54:\n    /* \"#utility.yul\":714:798   */\ntag_53:\n    /* \"#utility.yul\":535:804   */\n  pop\n    /* \"#utility.yul\":484:804   */\n  swap2\n  swap1\n  pop\n  jump\t// out\n    /* \"#utility.yul\":810:951   */\ntag_22:\n    /* \"#utility.yul\":859:863   */\n  0x00\n    /* \"#utility.yul\":882:885   */\n  dup2\n    /* \"#utility.yul\":874:885   */\n  swap1\n  pop\n    /* \"#utility.yul\":905:908   */\n  dup2\n    /* \"#utility.yul\":902:903   */\n  0x00\n    /* \"#utility.yul\":895:909   */\n  mstore\n    /* \"#utility.yul\":939:943   */\n  0x20\n    /* \"#utility.yul\":936:937   */\n  0x00\n    /* \"#utility.yul\":926:944   */\n  keccak256\n    /* \"#utility.yul\":918:944   */\n  swap1\n  pop\n    /* \"#utility.yul\":810:951   */\n  swap2\n  swap1\n  pop\n  jump\t// out\n    /* \"#utility.yul\":957:1050   */\ntag_23:\n    /* \"#utility.yul\":994:1000   */\n  0x00\n    /* \"#utility.yul\":1041:1043   */\n  0x20\n    /* \"#utility.yul\":1036:1038   */\n  0x1f\n    /* \"#utility.yul\":1029:1034   */\n  dup4\n    /* \"#utility.yul\":1025:1039   */\n  add\n    /* \"#utility.yul\":1021:1044   */\n  div\n    /* \"#utility.yul\":1011:1044   */\n  swap1\n  pop\n    /* \"#utility.yul\":957:1050   */\n  swap2\n  swap1\n  pop\n  jump\t// out\n    /* \"#utility.yul\":1056:1163   */\ntag_24:\n    /* \"#utility.yul\":1100:1108   */\n  0x00\n    /* \"#utility.yul\":1150:1155   */\n  dup3\n    /* \"#utility.yul\":1144:1148   */\n  dup3\n    /* \"#utility.yul\":1140:1156   */\n  shl\n    /* \"#utility.yul\":1119:1156   */\n  swap1\n  pop\n    /* \"#utility.yul\":1056:1163   */\n  swap3\n  swap2\n  pop\n  pop\n  jump\t// out\n    /* \"#utility.yul\":1169:1562   */\ntag_25:\n    /* \"#utility.yul\":1238:1244   */\n  0x00\n    /* \"#utility.yul\":1288:1289   */\n  0x08\n    /* \"#utility.yul\":1276:1286   */\n  dup4\n    /* \"#utility.yul\":1272:1290   */\n  mul\n    /* \"#utility.yul\":1311:1408   */\n  tag_59\n    /* \"#utility.yul\":1341:1407   */\n  0xffffffffffffffffffffffffffffffffffffffffffffffffffffffffffffffff\n    /* \"#utility.yul\":1330:1339   */\n  dup3\n    /* \"#utility.yul\":1311:1408   */\n  tag_24\n  jump\t// in\ntag_59:\n    /* \"#utility.yul\":1429:1468   */\n  tag_60\n    /* \"#utility.yul\":1459:1467   */\n  dup7\n    /* \"#utility.yul\":1448:1457   */\n  dup4\n    /* \"#utility.yul\":1429:1468   */\n  tag_24\n  jump\t// in\ntag_60:\n    /* \"#utility.yul\":1417:1468   */\n  swap6\n  pop\n    /* \"#utility.yul\":1501:1505   */\n  dup1\n    /* \"#utility.yul\":1497:1506   */\n  not\n    /* \"#utility.yul\":1490:1495   */\n  dup5\n    /* \"#utility.yul\":1486:1507   */\n  and\n    /* \"#utility.yul\":1477:1507   */\n  swap4\n  pop\n    /* \"#utility.yul\":1550:1554   */\n  dup1\n    /* \"#utility.yul\":1540:1548   */\n  dup7\n    /* \"#utility.yul\":1536:1555   */\n  and\n    /* \"#utility.yul\":1529:1534   */\n  dup5\n    /* \"#utility.yul\":1526:1556   */\n  or\n    /* \"#utility.yul\":1516:1556   */\n  swap3\n  pop\n    /* \"#utility.yul\":1245:1562   */\n  pop\n  pop\n    /* \"#utility.yul\":1169:1562   */\n  swap4\n  swap3\n  pop\n  pop\n  pop\n  jump\t// out\n    /* \"#utility.yul\":1568:1645   */\ntag_26:\n    /* \"#utility.yul\":1605:1612   */\n  0x00\n    /* \"#utility.yul\":1634:1639   */\n  dup2\n    /* \"#utility.yul\":1623:1639   */\n  swap1\n  pop\n    /* \"#utility.yul\":1568:1645   */\n  swap2\n  swap1\n  pop\n  jump\t// out\n    /* \"#utility.yul\":1651:1711   */\ntag_27:\n    /* \"#utility.yul\":1679:1682   */\n  0x00\n    /* \"#utility.yul\":1700:1705   */\n  dup2\n    /* \"#utility.yul\":1693:1705   */\n  swap1\n  pop\n    /* \"#utility.yul\":1651:1711   */\n  swap2\n  swap1\n  pop\n  jump\t// out\n    /* \"#utility.yul\":1717:1859   */\ntag_28:\n    /* \"#utility.yul\":1767:1776   */\n  0x00\n    /* \"#utility.yul\":1800:1853   */\n  tag_64\n    /* \"#utility.yul\":1818:1852   */\n  tag_65\n    /* \"#utility.yul\":1827:1851   */\n  tag_66\n    /* \"#utility.yul\":1845:1850   */\n  dup5\n    /* \"#utility.yul\":1827:1851   */\n  tag_26\n  jump\t// in\ntag_66:\n    /* \"#utility.yul\":1818:1852   */\n  tag_27\n  jump\t// in\ntag_65:\n    /* \"#utility.yul\":1800:1853   */\n  tag_26\n  jump\t// in\ntag_64:\n    /* \"#utility.yul\":1787:1853   */\n  swap1\n  pop\n    /* \"#utility.yul\":1717:1859   */\n  swap2\n  swap1\n  pop\n  jump\t// out\n    /* \"#utility.yul\":1865:1940   */\ntag_29:\n    /* \"#utility.yul\":1908:1911   */\n  0x00\n    /* \"#utility.yul\":1929:1934   */\n  dup2\n    /* \"#utility.yul\":1922:1934   */\n  swap1\n  pop\n    /* \"#utility.yul\":1865:1940   */\n  swap2\n  swap1\n  pop\n  jump\t// out\n    /* \"#utility.yul\":1946:2215   */\ntag_30:\n    /* \"#utility.yul\":2056:2095   */\n  tag_69\n    /* \"#utility.yul\":2087:2094   */\n  dup4\n    /* \"#utility.yul\":2056:2095   */\n  tag_28\n  jump\t// in\ntag_69:\n    /* \"#utility.yul\":2117:2208   */\n  tag_70\n    /* \"#utility.yul\":2166:2207   */\n  tag_71\n    /* \"#utility.yul\":2190:2206   */\n  dup3\n    /* \"#utility.yul\":2166:2207   */\n  tag_29\n  jump\t// in\ntag_71:\n    /* \"#utility.yul\":2158:2164   */\n  dup5\n    /* \"#utility.yul\":2151:2155   */\n  dup5\n    /* \"#utility.yul\":2145:2156   */\n  sload\n    /* \"#utility.yul\":2117:2208   */\n  tag_25\n  jump\t// in\ntag_70:\n    /* \"#utility.yul\":2111:2115   */\n  dup3\n    /* \"#utility.yul\":2104:2209   */\n  sstore\n    /* \"#utility.yul\":2022:2215   */\n  pop\n    /* \"#utility.yul\":1946:2215   */\n  pop\n  pop\n  pop\n  jump\t// out\n    /* \"#utility.yul\":2221:2294   */\ntag_31:\n    /* \"#utility.yul\":2266:2269   */\n  0x00\n    /* \"#utility.yul\":2221:2294   */\n  swap1\n  jump\t// out\n    /* \"#utility.yul\":2300:2489   */\ntag_32:\n    /* \"#utility.yul\":2377:2409   */\n  tag_74\n  tag_31\n  jump\t// in\ntag_74:\n    /* \"#utility.yul\":2418:2483   */\n  tag_75\n    /* \"#utility.yul\":2476:2482   */\n  dup2\n    /* \"#utility.yul\":2468:2474   */\n  dup5\n    /* \"#utility.yul\":2462:2466   */\n  dup5\n    /* \"#utility.yul\":2418:2483   */\n  tag_30\n  jump\t// in\ntag_75:\n    /* \"#utility.yul\":2353:2489   */\n  pop\n    /* \"#utility.yul\":2300:2489   */\n  pop\n  pop\n  jump\t// out\n    /* \"#utility.yul\":2495:2681   */\ntag_33:\n    /* \"#utility.yul\":2555:2675   */\ntag_77:\n    /* \"#utility.yul\":2572:2575   */\n  dup2\n    /* \"#utility.yul\":2565:2570   */\n  dup2\n    /* \"#utility.yul\":2562:2576   */\n  lt\n    /* \"#utility.yul\":2555:2675   */\n  iszero\n  tag_79\n  jumpi\n    /* \"#utility.yul\":2626:2665   */\n  tag_80\n    /* \"#utility.yul\":2663:2664   */\n  0x00\n    /* \"#utility.yul\":2656:2661   */\n  dup3\n    /* \"#utility.yul\":2626:2665   */\n  tag_32\n  jump\t// in\ntag_80:\n    /* \"#utility.yul\":2599:2600   */\n  0x01\n    /* \"#utility.yul\":2592:2597   */\n  dup2\n    /* \"#utility.yul\":2588:2601   */\n  add\n    /* \"#utility.yul\":2579:2601   */\n  swap1\n  pop\n    /* \"#utility.yul\":2555:2675   */\n  jump(tag_77)\ntag_79:\n    /* \"#utility.yul\":2495:2681   */\n  pop\n  pop\n  jump\t// out\n    /* \"#utility.yul\":2687:3230   */\ntag_34:\n    /* \"#utility.yul\":2788:2790   */\n  0x1f\n    /* \"#utility.yul\":2783:2786   */\n  dup3\n    /* \"#utility.yul\":2780:2791   */\n  gt\n    /* \"#utility.yul\":2777:3223   */\n  iszero\n  tag_82\n  jumpi\n    /* \"#utility.yul\":2822:2860   */\n  tag_83\n    /* \"#utility.yul\":2854:2859   */\n  dup2\n    /* \"#utility.yul\":2822:2860   */\n  tag_22\n  jump\t// in\ntag_83:\n    /* \"#utility.yul\":2906:2935   */\n  tag_84\n    /* \"#utility.yul\":2924:2934   */\n  dup5\n    /* \"#utility.yul\":2906:2935   */\n  tag_23\n  jump\t// in\ntag_84:\n    /* \"#utility.yul\":2896:2904   */\n  dup2\n    /* \"#utility.yul\":2892:2936   */\n  add\n    /* \"#utility.yul\":3089:3091   */\n  0x20\n    /* \"#utility.yul\":3077:3087   */\n  dup6\n    /* \"#utility.yul\":3074:3092   */\n  lt\n    /* \"#utility.yul\":3071:3120   */\n  iszero\n  tag_85\n  jumpi\n    /* \"#utility.yul\":3110:3118   */\n  dup2\n    /* \"#utility.yul\":3095:3118   */\n  swap1\n  pop\n    /* \"#utility.yul\":3071:3120   */\ntag_85:\n    /* \"#utility.yul\":3133:3213   */\n  tag_86\n    /* \"#utility.yul\":3189:3211   */\n  tag_87\n    /* \"#utility.yul\":3207:3210   */\n  dup6\n    /* \"#utility.yul\":3189:3211   */\n  tag_23\n  jump\t// in\ntag_87:\n    /* \"#utility.yul\":3179:3187   */\n  dup4\n    /* \"#utility.yul\":3175:3212   */\n  add\n    /* \"#utility.yul\":3162:3173   */\n  dup3\n    /* \"#utility.yul\":3133:3213   */\n  tag_33\n  jump\t// in\ntag_86:\n    /* \"#utility.yul\":2792:3223   */\n  pop\n  pop\n    /* \"#utility.yul\":2777:3223   */\ntag_82:\n    /* \"#utility.yul\":2687:3230   */\n  pop\n  pop\n  pop\n  jump\t// out\n    /* \"#utility.yul\":3236:3353   */\ntag_35:\n    /* \"#utility.yul\":3290:3298   */\n  0x00\n    /* \"#utility.yul\":3340:3345   */\n  dup3\n    /* \"#utility.yul\":3334:3338   */\n  dup3\n    /* \"#utility.yul\":3330:3346   */\n  shr\n    /* \"#utility.yul\":3309:3346   */\n  swap1\n  pop\n    /* \"#utility.yul\":3236:3353   */\n  swap3\n  swap2\n  pop\n  pop\n  jump\t// out\n    /* \"#utility.yul\":3359:3528   */\ntag_36:\n    /* \"#utility.yul\":3403:3409   */\n  0x00\n    /* \"#utility.yul\":3436:3487   */\n  tag_90\n    /* \"#utility.yul\":3484:3485   */\n  0x00\n    /* \"#utility.yul\":3480:3486   */\n  not\n    /* \"#utility.yul\":3472:3477   */\n  dup5\n    /* \"#utility.yul\":3469:3470   */\n  0x08\n    /* \"#utility.yul\":3465:3478   */\n  mul\n    /* \"#utility.yul\":3436:3487   */\n  tag_35\n  jump\t// in\ntag_90:\n    /* \"#utility.yul\":3432:3488   */\n  not\n    /* \"#utility.yul\":3517:3521   */\n  dup1\n    /* \"#utility.yul\":3511:3515   */\n  dup4\n    /* \"#utility.yul\":3507:3522   */\n  and\n    /* \"#utility.yul\":3497:3522   */\n  swap2\n  pop\n    /* \"#utility.yul\":3410:3528   */\n  pop\n    /* \"#utility.yul\":3359:3528   */\n  swap3\n  swap2\n  pop\n  pop\n  jump\t// out\n    /* \"#utility.yul\":3533:3828   */\ntag_37:\n    /* \"#utility.yul\":3609:3613   */\n  0x00\n    /* \"#utility.yul\":3755:3784   */\n  tag_92\n    /* \"#utility.yul\":3780:3783   */\n  dup4\n    /* \"#utility.yul\":3774:3778   */\n  dup4\n    /* \"#utility.yul\":3755:3784   */\n  tag_36\n  jump\t// in\ntag_92:\n    /* \"#utility.yul\":3747:3784   */\n  swap2\n  pop\n    /* \"#utility.yul\":3817:3820   */\n  dup3\n    /* \"#utility.yul\":3814:3815   */\n  0x02\n    /* \"#utility.yul\":3810:3821   */\n  mul\n    /* \"#utility.yul\":3804:3808   */\n  dup3\n    /* \"#utility.yul\":3801:3822   */\n  or\n    /* \"#utility.yul\":3793:3822   */\n  swap1\n  pop\n    /* \"#utility.yul\":3533:3828   */\n  swap3\n  swap2\n  pop\n  pop\n  jump\t// out\n    /* \"#utility.yul\":3833:5228   */\ntag_8:\n    /* \"#utility.yul\":3950:3987   */\n  tag_94\n    /* \"#utility.yul\":3983:3986   */\n  dup3\n    /* \"#utility.yul\":3950:3987   */\n  tag_18\n  jump\t// in\ntag_94:\n    /* \"#utility.yul\":4052:4070   */\n  0xffffffffffffffff\n    /* \"#utility.yul\":4044:4050   */\n  dup2\n    /* \"#utility.yul\":4041:4071   */\n  gt\n    /* \"#utility.yul\":4038:4094   */\n  iszero\n  tag_95\n  jumpi\n    /* \"#utility.yul\":4074:4092   */\n  tag_96\n  tag_19\n  jump\t// in\ntag_96:\n    /* \"#utility.yul\":4038:4094   */\ntag_95:\n    /* \"#utility.yul\":4118:4156   */\n  tag_97\n    /* \"#utility.yul\":4150:4154   */\n  dup3\n    /* \"#utility.yul\":4144:4155   */\n  sload\n    /* \"#utility.yul\":4118:4156   */\n  tag_21\n  jump\t// in\ntag_97:\n    /* \"#utility.yul\":4203:4270   */\n  tag_98\n    /* \"#utility.yul\":4263:4269   */\n  dup3\n    /* \"#utility.yul\":4255:4261   */\n  dup3\n    /* \"#utility.yul\":4249:4253   */\n  dup6\n    /* \"#utility.yul\":4203:4270   */\n  tag_34\n  jump\t// in\ntag_98:\n    /* \"#utility.yul\":4297:4298   */\n  0x00\n    /* \"#utility.yul\":4321:4325   */\n  0x20\n    /* \"#utility.yul\":4308:4325   */\n  swap1\n  pop\n    /* \"#utility.yul\":4353:4355   */\n  0x1f\n    /* \"#utility.yul\":4345:4351   */\n  dup4\n    /* \"#utility.yul\":4342:4356   */\n  gt\n    /* \"#utility.yul\":4370:4371   */\n  0x01\n    /* \"#utility.yul\":4365:4983   */\n  dup2\n  eq\n  tag_100\n  jumpi\n    /* \"#utility.yul\":5027:5028   */\n  0x00\n    /* \"#utility.yul\":5044:5050   */\n  dup5\n    /* \"#utility.yul\":5041:5118   */\n  iszero\n  tag_101\n  jumpi\n    /* \"#utility.yul\":5093:5102   */\n  dup3\n    /* \"#utility.yul\":5088:5091   */\n  dup8\n    /* \"#utility.yul\":5084:5103   */\n  add\n    /* \"#utility.yul\":5078:5104   */\n  mload\n    /* \"#utility.yul\":5069:5104   */\n  swap1\n  pop\n    /* \"#utility.yul\":5041:5118   */\ntag_101:\n    /* \"#utility.yul\":5144:5211   */\n  tag_102\n    /* \"#utility.yul\":5204:5210   */\n  dup6\n    /* \"#utility.yul\":5197:5202   */\n  dup3\n    /* \"#utility.yul\":5144:5211   */\n  tag_37\n  jump\t// in\ntag_102:\n    /* \"#utility.yul\":5138:5142   */\n  dup7\n    /* \"#utility.yul\":5131:5212   */\n  sstore\n    /* \"#utility.yul\":5000:5222   */\n  pop\n    /* \"#utility.yul\":4335:5222   */\n  jump(tag_99)\n    /* \"#utility.yul\":4365:4983   */\ntag_100:\n    /* \"#utility.yul\":4417:4421   */\n  0x1f\n    /* \"#utility.yul\":4413:4422   */\n  not\n    /* \"#utility.yul\":4405:4411   */\n  dup5\n    /* \"#utility.yul\":4401:4423   */\n  and\n    /* \"#utility.yul\":4451:4488   */\n  tag_103\n    /* \"#utility.yul\":4483:4487   */\n  dup7\n    /* \"#utility.yul\":4451:4488   */\n  tag_22\n  jump\t// in\ntag_103:\n    /* \"#utility.yul\":4510:4511   */\n  0x00\n    /* \"#utility.yul\":4524:4732   */\ntag_104:\n    /* \"#utility.yul\":4538:4545   */\n  dup3\n    /* \"#utility.yul\":4535:4536   */\n  dup2\n    /* \"#utility.yul\":4532:4546   */\n  lt\n    /* \"#utility.yul\":4524:4732   */\n  iszero\n  tag_106\n  jumpi\n    /* \"#utility.yul\":4617:4626   */\n  dup5\n    /* \"#utility.yul\":4612:4615   */\n  dup10\n    /* \"#utility.yul\":4608:4627   */\n  add\n    /* \"#utility.yul\":4602:4628   */\n  mload\n    /* \"#utility.yul\":4594:4600   */\n  dup3\n    /* \"#utility.yul\":4587:4629   */\n  sstore\n    /* \"#utility.yul\":4668:4669   */\n  0x01\n    /* \"#utility.yul\":4660:4666   */\n  dup3\n    /* \"#utility.yul\":4656:4670   */\n  add\n    /* \"#utility.yul\":4646:4670   */\n  swap2\n  pop\n    /* \"#utility.yul\":4715:4717   */\n  0x20\n    /* \"#utility.yul\":4704:4713   */\n  dup6\n    /* \"#utility.yul\":4700:4718   */\n  add\n    /* \"#utility.yul\":4687:4718   */\n  swap5\n  pop\n    /* \"#utility.yul\":4561:4565   */\n  0x20\n    /* \"#utility.yul\":4558:4559   */\n  dup2\n    /* \"#utility.yul\":4554:4566   */\n  add\n    /* \"#utility.yul\":4549:4566   */\n  swap1\n  pop\n    /* \"#utility.yul\":4524:4732   */\n  jump(tag_104)\ntag_106:\n    /* \"#utility.yul\":4760:4766   */\n  dup7\n    /* \"#utility.yul\":4751:4758   */\n  dup4\n    /* \"#utility.yul\":4748:4767   */\n  lt\n    /* \"#utility.yul\":4745:4924   */\n  iszero\n  tag_107\n  jumpi\n    /* \"#utility.yul\":4818:4827   */\n  dup5\n    /* \"#utility.yul\":4813:4816   */\n  dup10\n    /* \"#utility.yul\":4809:4828   */\n  add\n    /* \"#utility.yul\":4803:4829   */\n  mload\n    /* \"#utility.yul\":4861:4909   */\n  tag_108\n    /* \"#utility.yul\":4903:4907   */\n  0x1f\n    /* \"#utility.yul\":4895:4901   */\n  dup10\n    /* \"#utility.yul\":4891:4908   */\n  and\n    /* \"#utility.yul\":4880:4889   */\n  dup3\n    /* \"#utility.yul\":4861:4909   */\n  tag_36\n  jump\t// in\ntag_108:\n    /* \"#utility.yul\":4853:4859   */\n  dup4\n    /* \"#utility.yul\":4846:4910   */\n  sstore\n    /* \"#utility.yul\":4768:4924   */\n  pop\n    /* \"#utility.yul\":4745:4924   */\ntag_107:\n    /* \"#utility.yul\":4970:4971   */\n  0x01\n    /* \"#utility.yul\":4966:4967   */\n  0x02\n    /* \"#utility.yul\":4958:4964   */\n  dup9\n    /* \"#utility.yul\":4954:4968   */\n  mul\n    /* \"#utility.yul\":4950:4972   */\n  add\n    /* \"#utility.yul\":4944:4948   */\n  dup9\n    /* \"#utility.yul\":4937:4973   */\n  sstore\n    /* \"#utility.yul\":4372:4983   */\n  pop\n  pop\n  pop\n    /* \"#utility.yul\":4335:5222   */\ntag_99:\n  pop\n    /* \"#utility.yul\":3925:5228   */\n  pop\n  pop\n  pop\n    /* \"#utility.yul\":3833:5228   */\n  pop\n  pop\n  jump\t// out\n    /* \"#utility.yul\":5234:5381   */\ntag_38:\n    /* \"#utility.yul\":5335:5346   */\n  0x00\n    /* \"#utility.yul\":5372:5375   */\n  dup2\n    /* \"#utility.yul\":5357:5375   */\n  swap1\n  pop\n    /* \"#utility.yul\":5234:5381   */\n  swap3\n  swap2\n  pop\n  pop\n  jump\t// out\n    /* \"#utility.yul\":5387:5531   */\ntag_39:\n    /* \"#utility.yul\":5439:5443   */\n  0x00\n    /* \"#utility.yul\":5462:5465   */\n  dup2\n    /* \"#utility.yul\":5454:5465   */\n  swap1\n  pop\n    /* \"#utility.yul\":5485:5488   */\n  dup2\n    /* \"#utility.yul\":5482:5483   */\n  0x00\n    /* \"#utility.yul\":5475:5489   */\n  mstore\n    /* \"#utility.yul\":5519:5523   */\n  0x20\n    /* \"#utility.yul\":5516:5517   */\n  0x00\n    /* \"#utility.yul\":5506:5524   */\n  keccak256\n    /* \"#utility.yul\":5498:5524   */\n  swap1\n  pop\n    /* \"#utility.yul\":5387:5531   */\n  swap2\n  swap1\n  pop\n  jump\t// out\n    /* \"#utility.yul\":5559:6437   */\ntag_40:\n    /* \"#utility.yul\":5664:5667   */\n  0x00\n    /* \"#utility.yul\":5701:5706   */\n  dup2\n    /* \"#utility.yul\":5695:5707   */\n  sload\n    /* \"#utility.yul\":5730:5766   */\n  tag_112\n    /* \"#utility.yul\":5756:5765   */\n  dup2\n    /* \"#utility.yul\":5730:5766   */\n  tag_21\n  jump\t// in\ntag_112:\n    /* \"#utility.yul\":5782:5870   */\n  tag_113\n    /* \"#utility.yul\":5863:5869   */\n  dup2\n    /* \"#utility.yul\":5858:5861   */\n  dup7\n    /* \"#utility.yul\":5782:5870   */\n  tag_38\n  jump\t// in\ntag_113:\n    /* \"#utility.yul\":5775:5870   */\n  swap5\n  pop\n    /* \"#utility.yul\":5901:5902   */\n  0x01\n    /* \"#utility.yul\":5890:5899   */\n  dup3\n    /* \"#utility.yul\":5886:5903   */\n  and\n    /* \"#utility.yul\":5917:5918   */\n  0x00\n    /* \"#utility.yul\":5912:6078   */\n  dup2\n  eq\n  tag_115\n  jumpi\n    /* \"#utility.yul\":6092:6093   */\n  0x01\n    /* \"#utility.yul\":6087:6431   */\n  dup2\n  eq\n  tag_116\n  jumpi\n    /* \"#utility.yul\":5879:6431   */\n  jump(tag_114)\n    /* \"#utility.yul\":5912:6078   */\ntag_115:\n    /* \"#utility.yul\":5996:6000   */\n  0xff\n    /* \"#utility.yul\":5992:6001   */\n  not\n    /* \"#utility.yul\":5981:5990   */\n  dup4\n    /* \"#utility.yul\":5977:6002   */\n  and\n    /* \"#utility.yul\":5972:5975   */\n  dup7\n    /* \"#utility.yul\":5965:6003   */\n  mstore\n    /* \"#utility.yul\":6058:6064   */\n  dup2\n    /* \"#utility.yul\":6051:6065   */\n  iszero\n    /* \"#utility.yul\":6044:6066   */\n  iszero\n    /* \"#utility.yul\":6036:6042   */\n  dup3\n    /* \"#utility.yul\":6032:6067   */\n  mul\n    /* \"#utility.yul\":6027:6030   */\n  dup7\n    /* \"#utility.yul\":6023:6068   */\n  add\n    /* \"#utility.yul\":6016:6068   */\n  swap4\n  pop\n    /* \"#utility.yul\":5912:6078   */\n  jump(tag_114)\n    /* \"#utility.yul\":6087:6431   */\ntag_116:\n    /* \"#utility.yul\":6154:6195   */\n  tag_117\n    /* \"#utility.yul\":6189:6194   */\n  dup6\n    /* \"#utility.yul\":6154:6195   */\n  tag_39\n  jump\t// in\ntag_117:\n    /* \"#utility.yul\":6217:6218   */\n  0x00\n    /* \"#utility.yul\":6231:6385   */\ntag_118:\n    /* \"#utility.yul\":6245:6251   */\n  dup4\n    /* \"#utility.yul\":6242:6243   */\n  dup2\n    /* \"#utility.yul\":6239:6252   */\n  lt\n    /* \"#utility.yul\":6231:6385   */\n  iszero\n  tag_120\n  jumpi\n    /* \"#utility.yul\":6319:6326   */\n  dup2\n    /* \"#utility.yul\":6313:6327   */\n  sload\n    /* \"#utility.yul\":6309:6310   */\n  dup2\n    /* \"#utility.yul\":6304:6307   */\n  dup10\n    /* \"#utility.yul\":6300:6311   */\n  add\n    /* \"#utility.yul\":6293:6328   */\n  mstore\n    /* \"#utility.yul\":6369:6370   */\n  0x01\n    /* \"#utility.yul\":6360:6367   */\n  dup3\n    /* \"#utility.yul\":6356:6371   */\n  add\n    /* \"#utility.yul\":6345:6371   */\n  swap2\n  pop\n    /* \"#utility.yul\":6267:6271   */\n  0x20\n    /* \"#utility.yul\":6264:6265   */\n  dup2\n    /* \"#utility.yul\":6260:6272   */\n  add\n    /* \"#utility.yul\":6255:6272   */\n  swap1\n  pop\n    /* \"#utility.yul\":6231:6385   */\n  jump(tag_118)\ntag_120:\n    /* \"#utility.yul\":6414:6420   */\n  dup4\n    /* \"#utility.yul\":6409:6412   */\n  dup9\n    /* \"#utility.yul\":6405:6421   */\n  add\n    /* \"#utility.yul\":6398:6421   */\n  swap6\n  pop\n    /* \"#utility.yul\":6094:6431   */\n  pop\n  pop\n    /* \"#utility.yul\":5879:6431   */\ntag_114:\n  pop\n    /* \"#utility.yul\":5668:6437   */\n  pop\n  pop\n    /* \"#utility.yul\":5559:6437   */\n  swap3\n  swap2\n  pop\n  pop\n  jump\t// out\n    /* \"#utility.yul\":6443:6716   */\ntag_12:\n    /* \"#utility.yul\":6574:6577   */\n  0x00\n    /* \"#utility.yul\":6596:6690   */\n  tag_122\n    /* \"#utility.yul\":6686:6689   */\n  dup3\n    /* \"#utility.yul\":6677:6683   */\n  dup5\n    /* \"#utility.yul\":6596:6690   */\n  tag_40\n  jump\t// in\ntag_122:\n    /* \"#utility.yul\":6589:6690   */\n  swap2\n  pop\n    /* \"#utility.yul\":6707:6710   */\n  dup2\n    /* \"#utility.yul\":6700:6710   */\n  swap1\n  pop\n    /* \"#utility.yul\":6443:6716   */\n  swap3\n  swap2\n  pop\n  pop\n  jump\t// out\n    /* \"#utility.yul\":6722:6799   */\ntag_41:\n    /* \"#utility.yul\":6759:6766   */\n  0x00\n    /* \"#utility.yul\":6788:6793   */\n  dup2\n    /* \"#utility.yul\":6777:6793   */\n  swap1\n  pop\n    /* \"#utility.yul\":6722:6799   */\n  swap2\n  swap1\n  pop\n  jump\t// out\n    /* \"#utility.yul\":6805:6923   */\ntag_42:\n    /* \"#utility.yul\":6892:6916   */\n  tag_125\n    /* \"#utility.yul\":6910:6915   */\n  dup2\n    /* \"#utility.yul\":6892:6916   */\n  tag_41\n  jump\t// in\ntag_125:\n    /* \"#utility.yul\":6887:6890   */\n  dup3\n    /* \"#utility.yul\":6880:6917   */\n  mstore\n    /* \"#utility.yul\":6805:6923   */\n  pop\n  pop\n  jump\t// out\n    /* \"#utility.yul\":6929:7047   */\ntag_43:\n    /* \"#utility.yul\":7016:7040   */\n  tag_127\n    /* \"#utility.yul\":7034:7039   */\n  dup2\n    /* \"#utility.yul\":7016:7040   */\n  tag_26\n  jump\t// in\ntag_127:\n    /* \"#utility.yul\":7011:7014   */\n  dup3\n    /* \"#utility.yul\":7004:7041   */\n  mstore\n    /* \"#utility.yul\":6929:7047   */\n  pop\n  pop\n  jump\t// out\n    /* \"#utility.yul\":7053:7179   */\ntag_44:\n    /* \"#utility.yul\":7090:7097   */\n  0x00\n    /* \"#utility.yul\":7130:7172   */\n  0xffffffffffffffffffffffffffffffffffffffff\n    /* \"#utility.yul\":7123:7128   */\n  dup3\n    /* \"#utility.yul\":7119:7173   */\n  and\n    /* \"#utility.yul\":7108:7173   */\n  swap1\n  pop\n    /* \"#utility.yul\":7053:7179   */\n  swap2\n  swap1\n  pop\n  jump\t// out\n    /* \"#utility.yul\":7185:7281   */\ntag_45:\n    /* \"#utility.yul\":7222:7229   */\n  0x00\n    /* \"#utility.yul\":7251:7275   */\n  tag_130\n    /* \"#utility.yul\":7269:7274   */\n  dup3\n    /* \"#utility.yul\":7251:7275   */\n  tag_44\n  jump\t// in\ntag_130:\n    /* \"#utility.yul\":7240:7275   */\n  swap1\n  pop\n    /* \"#utility.yul\":7185:7281   */\n  swap2\n  swap1\n  pop\n  jump\t// out\n    /* \"#utility.yul\":7287:7405   */\ntag_46:\n    /* \"#utility.yul\":7374:7398   */\n  tag_132\n    /* \"#utility.yul\":7392:7397   */\n  dup2\n    /* \"#utility.yul\":7374:7398   */\n  tag_45\n  jump\t// in\ntag_132:\n    /* \"#utility.yul\":7369:7372   */\n  dup3\n    /* \"#utility.yul\":7362:7399   */\n  mstore\n    /* \"#utility.yul\":7287:7405   */\n  pop\n  pop\n  jump\t// out\n    /* \"#utility.yul\":7411:8075   */\ntag_14:\n    /* \"#utility.yul\":7616:7620   */\n  0x00\n    /* \"#utility.yul\":7654:7657   */\n  0xa0\n    /* \"#utility.yul\":7643:7652   */\n  dup3\n    /* \"#utility.yul\":7639:7658   */\n  add\n    /* \"#utility.yul\":7631:7658   */\n  swap1\n  pop\n    /* \"#utility.yul\":7668:7739   */\n  tag_134\n    /* \"#utility.yul\":7736:7737   */\n  0x00\n    /* \"#utility.yul\":7725:7734   */\n  dup4\n    /* \"#utility.yul\":7721:7738   */\n  add\n    /* \"#utility.yul\":7712:7718   */\n  dup9\n    /* \"#utility.yul\":7668:7739   */\n  tag_42\n  jump\t// in\ntag_134:\n    /* \"#utility.yul\":7749:7821   */\n  tag_135\n    /* \"#utility.yul\":7817:7819   */\n  0x20\n    /* \"#utility.yul\":7806:7815   */\n  dup4\n    /* \"#utility.yul\":7802:7820   */\n  add\n    /* \"#utility.yul\":7793:7799   */\n  dup8\n    /* \"#utility.yul\":7749:7821   */\n  tag_42\n  jump\t// in\ntag_135:\n    /* \"#utility.yul\":7831:7903   */\n  tag_136\n    /* \"#utility.yul\":7899:7901   */\n  0x40\n    /* \"#utility.yul\":7888:7897   */\n  dup4\n    /* \"#utility.yul\":7884:7902   */\n  add\n    /* \"#utility.yul\":7875:7881   */\n  dup7\n    /* \"#utility.yul\":7831:7903   */\n  tag_42\n  jump\t// in\ntag_136:\n    /* \"#utility.yul\":7913:7985   */\n  tag_137\n    /* \"#utility.yul\":7981:7983   */\n  0x60\n    /* \"#utility.yul\":7970:7979   */\n  dup4\n    /* \"#utility.yul\":7966:7984   */\n  add\n    /* \"#utility.yul\":7957:7963   */\n  dup6\n    /* \"#utility.yul\":7913:7985   */\n  tag_43\n  jump\t// in\ntag_137:\n    /* \"#utility.yul\":7995:8068   */\n  tag_138\n    /* \"#utility.yul\":8063:8066   */\n  0x80\n    /* \"#utility.yul\":8052:8061   */\n  dup4\n    /* \"#utility.yul\":8048:8067   */\n  add\n    /* \"#utility.yul\":8039:8045   */\n  dup5\n    /* \"#utility.yul\":7995:8068   */\n  tag_46\n  jump\t// in\ntag_138:\n    /* \"#utility.yul\":7411:8075   */\n  swap7\n  swap6\n  pop\n  pop\n  pop\n  pop\n  pop\n  pop\n  jump\t// out\n    /* \"USDC.sol\":199:1676  contract USDC is ERC20, ERC20Permit, Ownable {... */\ntag_17:\n  dataSize(sub_0)\n  dup1\n  dataOffset(sub_0)\n  0x00\n  codecopy\n  0x00\n  return\nstop\n\nsub_0: assembly {\n        /* \"USDC.sol\":199:1676  contract USDC is ERC20, ERC20Permit, Ownable {... */\n      mstore(0x40, 0x80)\n      callvalue\n      dup1\n      iszero\n      tag_1\n      jumpi\n      0x00\n      dup1\n      revert\n    tag_1:\n      pop\n      jumpi(tag_2, lt(calldatasize, 0x04))\n      shr(0xe0, calldataload(0x00))\n      dup1\n      0x7ecebe00\n      gt\n      tag_21\n      jumpi\n      dup1\n      0xa0712d68\n      gt\n      tag_22\n      jumpi\n      dup1\n      0xa0712d68\n      eq\n      tag_16\n      jumpi\n      dup1\n      0xa9059cbb\n      eq\n      tag_17\n      jumpi\n      dup1\n      0xb8f883f9\n      eq\n      tag_18\n      jumpi\n      dup1\n      0xd505accf\n      eq\n      tag_19\n      jumpi\n      dup1\n      0xdd62ed3e\n      eq\n      tag_20\n      jumpi\n      jump(tag_2)\n    tag_22:\n      dup1\n      0x7ecebe00\n      eq\n      tag_12\n      jumpi\n      dup1\n      0x880cdc31\n      eq\n      tag_13\n      jumpi\n      dup1\n      0x8da5cb5b\n      eq\n      tag_14\n      jumpi\n      dup1\n      0x95d89b41\n      eq\n      tag_15\n      jumpi\n      jump(tag_2)\n    tag_21:\n      dup1\n      0x23b872dd\n      gt\n      tag_23\n      jumpi\n      dup1\n      0x23b872dd\n      eq\n      tag_7\n      jumpi\n      dup1\n      0x313ce567\n      eq\n      tag_8\n      jumpi\n      dup1\n      0x3644e515\n      eq\n      tag_9\n      jumpi\n      dup1\n      0x42966c68\n      eq\n      tag_10\n      jumpi\n      dup1\n      0x70a08231\n      eq\n      tag_11\n      jumpi\n      jump(tag_2)\n    tag_23:\n      dup1\n      0x06fdde03\n      eq\n      tag_3\n      jumpi\n      dup1\n      0x095ea7b3\n      eq\n      tag_4\n      jumpi\n      dup1\n      0x15a27138\n      eq\n      tag_5\n      jumpi\n      dup1\n      0x18160ddd\n      eq\n      tag_6\n      jumpi\n    tag_2:\n      0x00\n      dup1\n      revert\n        /* \"token/ERC20.sol\":284:302  string public name */\n    tag_3:\n      tag_24\n      tag_25\n      jump\t// in\n    tag_24:\n      mload(0x40)\n      tag_26\n      swap2\n      swap1\n      tag_27\n      jump\t// in\n    tag_26:\n      mload(0x40)\n      dup1\n      swap2\n      sub\n      swap1\n      return\n        /* \"token/ERC20.sol\":708:911  function approve(address spender, uint256 amount) external returns (bool) {... */\n    tag_4:\n      tag_28\n      0x04\n      dup1\n      calldatasize\n      sub\n      dup2\n      add\n      swap1\n      tag_29\n      swap2\n      swap1\n      tag_30\n      jump\t// in\n    tag_29:\n      tag_31\n      jump\t// in\n    tag_28:\n      mload(0x40)\n      tag_32\n      swap2\n      swap1\n      tag_33\n      jump\t// in\n    tag_32:\n      mload(0x40)\n      dup1\n      swap2\n      sub\n      swap1\n      return\n        /* \"USDC.sol\":377:425  mapping(address => Balance) public minterBalance */\n    tag_5:\n      tag_34\n      0x04\n      dup1\n      calldatasize\n      sub\n      dup2\n      add\n      swap1\n      tag_35\n      swap2\n      swap1\n      tag_36\n      jump\t// in\n    tag_35:\n      tag_37\n      jump\t// in\n    tag_34:\n      mload(0x40)\n      tag_38\n      swap3\n      swap2\n      swap1\n      tag_39\n      jump\t// in\n    tag_38:\n      mload(0x40)\n      dup1\n      swap2\n      sub\n      swap1\n      return\n        /* \"token/ERC20.sol\":361:387  uint256 public totalSupply */\n    tag_6:\n      tag_40\n      tag_41\n      jump\t// in\n    tag_40:\n      mload(0x40)\n      tag_42\n      swap2\n      swap1\n      tag_43\n      jump\t// in\n    tag_42:\n      mload(0x40)\n      dup1\n      swap2\n      sub\n      swap1\n      return\n        /* \"token/ERC20.sol\":1275:1802  function transferFrom(... */\n    tag_7:\n      tag_44\n      0x04\n      dup1\n      calldatasize\n      sub\n      dup2\n      add\n      swap1\n      tag_45\n      swap2\n      swap1\n      tag_46\n      jump\t// in\n    tag_45:\n      tag_47\n      jump\t// in\n    tag_44:\n      mload(0x40)\n      tag_48\n      swap2\n      swap1\n      tag_33\n      jump\t// in\n    tag_48:\n      mload(0x40)\n      dup1\n      swap2\n      sub\n      swap1\n      return\n        /* \"token/ERC20.sol\":334:355  uint8 public decimals */\n    tag_8:\n      tag_49\n      tag_50\n      jump\t// in\n    tag_49:\n      mload(0x40)\n      tag_51\n      swap2\n      swap1\n      tag_52\n      jump\t// in\n    tag_51:\n      mload(0x40)\n      dup1\n      swap2\n      sub\n      swap1\n      return\n        /* \"token/ERC20Permit.sol\":253:284  bytes32 public DOMAIN_SEPARATOR */\n    tag_9:\n      tag_53\n      tag_54\n      jump\t// in\n    tag_53:\n      mload(0x40)\n      tag_55\n      swap2\n      swap1\n      tag_56\n      jump\t// in\n    tag_55:\n      mload(0x40)\n      dup1\n      swap2\n      sub\n      swap1\n      return\n        /* \"USDC.sol\":1209:1674  function burn(uint256 amount) external returns (bool) {... */\n    tag_10:\n      tag_57\n      0x04\n      dup1\n      calldatasize\n      sub\n      dup2\n      add\n      swap1\n      tag_58\n      swap2\n      swap1\n      tag_59\n      jump\t// in\n    tag_58:\n      tag_60\n      jump\t// in\n    tag_57:\n      mload(0x40)\n      tag_61\n      swap2\n      swap1\n      tag_33\n      jump\t// in\n    tag_61:\n      mload(0x40)\n      dup1\n      swap2\n      sub\n      swap1\n      return\n        /* \"token/ERC20.sol\":393:437  mapping(address => uint256) public balanceOf */\n    tag_11:\n      tag_62\n      0x04\n      dup1\n      calldatasize\n      sub\n      dup2\n      add\n      swap1\n      tag_63\n      swap2\n      swap1\n      tag_36\n      jump\t// in\n    tag_63:\n      tag_64\n      jump\t// in\n    tag_62:\n      mload(0x40)\n      tag_65\n      swap2\n      swap1\n      tag_43\n      jump\t// in\n    tag_65:\n      mload(0x40)\n      dup1\n      swap2\n      sub\n      swap1\n      return\n        /* \"token/ERC20Permit.sol\":290:331  mapping(address => uint256) public nonces */\n    tag_12:\n      tag_66\n      0x04\n      dup1\n      calldatasize\n      sub\n      dup2\n      add\n      swap1\n      tag_67\n      swap2\n      swap1\n      tag_36\n      jump\t// in\n    tag_67:\n      tag_68\n      jump\t// in\n    tag_66:\n      mload(0x40)\n      tag_69\n      swap2\n      swap1\n      tag_43\n      jump\t// in\n    tag_69:\n      mload(0x40)\n      dup1\n      swap2\n      sub\n      swap1\n      return\n        /* \"access/Ownable.sol\":319:446  function updateOwner(address newOwner) external onlyOwner {... */\n    tag_13:\n      tag_70\n      0x04\n      dup1\n      calldatasize\n      sub\n      dup2\n      add\n      swap1\n      tag_71\n      swap2\n      swap1\n      tag_36\n      jump\t// in\n    tag_71:\n      tag_72\n      jump\t// in\n    tag_70:\n      stop\n        /* \"access/Ownable.sol\":90:110  address public owner */\n    tag_14:\n      tag_73\n      tag_74\n      jump\t// in\n    tag_73:\n      mload(0x40)\n      tag_75\n      swap2\n      swap1\n      tag_76\n      jump\t// in\n    tag_75:\n      mload(0x40)\n      dup1\n      swap2\n      sub\n      swap1\n      return\n        /* \"token/ERC20.sol\":308:328  string public symbol */\n    tag_15:\n      tag_77\n      tag_78\n      jump\t// in\n    tag_77:\n      mload(0x40)\n      tag_79\n      swap2\n      swap1\n      tag_27\n      jump\t// in\n    tag_79:\n      mload(0x40)\n      dup1\n      swap2\n      sub\n      swap1\n      return\n        /* \"USDC.sol\":704:1203  function mint(uint256 amount) external returns (bool) {... */\n    tag_16:\n      tag_80\n      0x04\n      dup1\n      calldatasize\n      sub\n      dup2\n      add\n      swap1\n      tag_81\n      swap2\n      swap1\n      tag_59\n      jump\t// in\n    tag_81:\n      tag_82\n      jump\t// in\n    tag_80:\n      mload(0x40)\n      tag_83\n      swap2\n      swap1\n      tag_33\n      jump\t// in\n    tag_83:\n      mload(0x40)\n      dup1\n      swap2\n      sub\n      swap1\n      return\n        /* \"token/ERC20.sol\":917:1269  function transfer(address recipient, uint256 amount) external returns (bool) {... */\n    tag_17:\n      tag_84\n      0x04\n      dup1\n      calldatasize\n      sub\n      dup2\n      add\n      swap1\n      tag_85\n      swap2\n      swap1\n      tag_30\n      jump\t// in\n    tag_85:\n      tag_86\n      jump\t// in\n    tag_84:\n      mload(0x40)\n      tag_87\n      swap2\n      swap1\n      tag_33\n      jump\t// in\n    tag_87:\n      mload(0x40)\n      dup1\n      swap2\n      sub\n      swap1\n      return\n        /* \"USDC.sol\":496:698  function updateMinter(address minter, uint256 limit) external onlyOwner returns (bool) {... */\n    tag_18:\n      tag_88\n      0x04\n      dup1\n      calldatasize\n      sub\n      dup2\n      add\n      swap1\n      tag_89\n      swap2\n      swap1\n      tag_30\n      jump\t// in\n    tag_89:\n      tag_90\n      jump\t// in\n    tag_88:\n      mload(0x40)\n      tag_91\n      swap2\n      swap1\n      tag_33\n      jump\t// in\n    tag_91:\n      mload(0x40)\n      dup1\n      swap2\n      sub\n      swap1\n      return\n        /* \"token/ERC20Permit.sol\":582:1401  function permit(... */\n    tag_19:\n      tag_92\n      0x04\n      dup1\n      calldatasize\n      sub\n      dup2\n      add\n      swap1\n      tag_93\n      swap2\n      swap1\n      tag_94\n      jump\t// in\n    tag_93:\n      tag_95\n      jump\t// in\n    tag_92:\n      stop\n        /* \"token/ERC20.sol\":443:507  mapping(address => mapping(address => uint256)) public allowance */\n    tag_20:\n      tag_96\n      0x04\n      dup1\n      calldatasize\n      sub\n      dup2\n      add\n      swap1\n      tag_97\n      swap2\n      swap1\n      tag_98\n      jump\t// in\n    tag_97:\n      tag_99\n      jump\t// in\n    tag_96:\n      mload(0x40)\n      tag_100\n      swap2\n      swap1\n      tag_43\n      jump\t// in\n    tag_100:\n      mload(0x40)\n      dup1\n      swap2\n      sub\n      swap1\n      return\n        /* \"token/ERC20.sol\":284:302  string public name */\n    tag_25:\n      0x00\n      dup1\n      sload\n      tag_101\n      swap1\n      tag_102\n      jump\t// in\n    tag_101:\n      dup1\n      0x1f\n      add\n      0x20\n      dup1\n      swap2\n      div\n      mul\n      0x20\n      add\n      mload(0x40)\n      swap1\n      dup2\n      add\n      0x40\n      mstore\n      dup1\n      swap3\n      swap2\n      swap1\n      dup2\n      dup2\n      mstore\n      0x20\n      add\n      dup3\n      dup1\n      sload\n      tag_103\n      swap1\n      tag_102\n      jump\t// in\n    tag_103:\n      dup1\n      iszero\n      tag_104\n      jumpi\n      dup1\n      0x1f\n      lt\n      tag_105\n      jumpi\n      0x0100\n      dup1\n      dup4\n      sload\n      div\n      mul\n      dup4\n      mstore\n      swap2\n      0x20\n      add\n      swap2\n      jump(tag_104)\n    tag_105:\n      dup3\n      add\n      swap2\n      swap1\n      0x00\n      mstore\n      keccak256(0x00, 0x20)\n      swap1\n    tag_106:\n      dup2\n      sload\n      dup2\n      mstore\n      swap1\n      0x01\n      add\n      swap1\n      0x20\n      add\n      dup1\n      dup4\n      gt\n      tag_106\n      jumpi\n      dup3\n      swap1\n      sub\n      0x1f\n      and\n      dup3\n      add\n      swap2\n    tag_104:\n      pop\n      pop\n      pop\n      pop\n      pop\n      dup2\n      jump\t// out\n        /* \"token/ERC20.sol\":708:911  function approve(address spender, uint256 amount) external returns (bool) {... */\n    tag_31:\n        /* \"token/ERC20.sol\":776:780  bool */\n      0x00\n        /* \"token/ERC20.sol\":825:831  amount */\n      dup2\n        /* \"token/ERC20.sol\":792:801  allowance */\n      0x05\n        /* \"token/ERC20.sol\":792:813  allowance[msg.sender] */\n      0x00\n        /* \"token/ERC20.sol\":802:812  msg.sender */\n      caller\n        /* \"token/ERC20.sol\":792:813  allowance[msg.sender] */\n      0xffffffffffffffffffffffffffffffffffffffff\n      and\n      0xffffffffffffffffffffffffffffffffffffffff\n      and\n      dup2\n      mstore\n      0x20\n      add\n      swap1\n      dup2\n      mstore\n      0x20\n      add\n      0x00\n      keccak256\n        /* \"token/ERC20.sol\":792:822  allowance[msg.sender][spender] */\n      0x00\n        /* \"token/ERC20.sol\":814:821  spender */\n      dup6\n        /* \"token/ERC20.sol\":792:822  allowance[msg.sender][spender] */\n      0xffffffffffffffffffffffffffffffffffffffff\n      and\n      0xffffffffffffffffffffffffffffffffffffffff\n      and\n      dup2\n      mstore\n      0x20\n      add\n      swap1\n      dup2\n      mstore\n      0x20\n      add\n      0x00\n      keccak256\n        /* \"token/ERC20.sol\":792:831  allowance[msg.sender][spender] = amount */\n      dup2\n      swap1\n      sstore\n      pop\n        /* \"token/ERC20.sol\":867:874  spender */\n      dup3\n        /* \"token/ERC20.sol\":846:883  Approval(msg.sender, spender, amount) */\n      0xffffffffffffffffffffffffffffffffffffffff\n      and\n        /* \"token/ERC20.sol\":855:865  msg.sender */\n      caller\n        /* \"token/ERC20.sol\":846:883  Approval(msg.sender, spender, amount) */\n      0xffffffffffffffffffffffffffffffffffffffff\n      and\n      0x8c5be1e5ebec7d5bd14f71427d1e84f3dd0314c0f7b2291e5b200ac8c7c3b925\n        /* \"token/ERC20.sol\":876:882  amount */\n      dup5\n        /* \"token/ERC20.sol\":846:883  Approval(msg.sender, spender, amount) */\n      mload(0x40)\n      tag_108\n      swap2\n      swap1\n      tag_43\n      jump\t// in\n    tag_108:\n      mload(0x40)\n      dup1\n      swap2\n      sub\n      swap1\n      log3\n        /* \"token/ERC20.sol\":900:904  true */\n      0x01\n        /* \"token/ERC20.sol\":893:904  return true */\n      swap1\n      pop\n        /* \"token/ERC20.sol\":708:911  function approve(address spender, uint256 amount) external returns (bool) {... */\n      swap3\n      swap2\n      pop\n      pop\n      jump\t// out\n        /* \"USDC.sol\":377:425  mapping(address => Balance) public minterBalance */\n    tag_37:\n      mstore(0x20, 0x09)\n      dup1\n      0x00\n      mstore\n      keccak256(0x00, 0x40)\n      0x00\n      swap2\n      pop\n      swap1\n      pop\n      dup1\n      0x00\n      add\n      sload\n      swap1\n      dup1\n      0x01\n      add\n      sload\n      swap1\n      pop\n      dup3\n      jump\t// out\n        /* \"token/ERC20.sol\":361:387  uint256 public totalSupply */\n    tag_41:\n      sload(0x03)\n      dup2\n      jump\t// out\n        /* \"token/ERC20.sol\":1275:1802  function transferFrom(... */\n    tag_47:\n        /* \"token/ERC20.sol\":1396:1400  bool */\n      0x00\n        /* \"token/ERC20.sol\":1453:1459  amount */\n      dup2\n        /* \"token/ERC20.sol\":1420:1429  allowance */\n      0x05\n        /* \"token/ERC20.sol\":1420:1437  allowance[sender] */\n      0x00\n        /* \"token/ERC20.sol\":1430:1436  sender */\n      dup7\n        /* \"token/ERC20.sol\":1420:1437  allowance[sender] */\n      0xffffffffffffffffffffffffffffffffffffffff\n      and\n      0xffffffffffffffffffffffffffffffffffffffff\n      and\n      dup2\n      mstore\n      0x20\n      add\n      swap1\n      dup2\n      mstore\n      0x20\n      add\n      0x00\n      keccak256\n        /* \"token/ERC20.sol\":1420:1449  allowance[sender][msg.sender] */\n      0x00\n        /* \"token/ERC20.sol\":1438:1448  msg.sender */\n      caller\n        /* \"token/ERC20.sol\":1420:1449  allowance[sender][msg.sender] */\n      0xffffffffffffffffffffffffffffffffffffffff\n      and\n      0xffffffffffffffffffffffffffffffffffffffff\n      and\n      dup2\n      mstore\n      0x20\n      add\n      swap1\n      dup2\n      mstore\n      0x20\n      add\n      0x00\n      keccak256\n      sload\n        /* \"token/ERC20.sol\":1420:1459  allowance[sender][msg.sender] >= amount */\n      lt\n      iszero\n        /* \"token/ERC20.sol\":1412:1486  require(allowance[sender][msg.sender] >= amount, \"insufficient allowance\") */\n      tag_110\n      jumpi\n      mload(0x40)\n      0x08c379a000000000000000000000000000000000000000000000000000000000\n      dup2\n      mstore\n      0x04\n      add\n      tag_111\n      swap1\n      tag_112\n      jump\t// in\n    tag_111:\n      mload(0x40)\n      dup1\n      swap2\n      sub\n      swap1\n      revert\n    tag_110:\n        /* \"token/ERC20.sol\":1525:1531  amount */\n      dup2\n        /* \"token/ERC20.sol\":1504:1513  balanceOf */\n      0x04\n        /* \"token/ERC20.sol\":1504:1521  balanceOf[sender] */\n      0x00\n        /* \"token/ERC20.sol\":1514:1520  sender */\n      dup7\n        /* \"token/ERC20.sol\":1504:1521  balanceOf[sender] */\n      0xffffffffffffffffffffffffffffffffffffffff\n      and\n      0xffffffffffffffffffffffffffffffffffffffff\n      and\n      dup2\n      mstore\n      0x20\n      add\n      swap1\n      dup2\n      mstore\n      0x20\n      add\n      0x00\n      keccak256\n      sload\n        /* \"token/ERC20.sol\":1504:1531  balanceOf[sender] >= amount */\n      lt\n      iszero\n        /* \"token/ERC20.sol\":1496:1556  require(balanceOf[sender] >= amount, \"insufficient balance\") */\n      tag_113\n      jumpi\n      mload(0x40)\n      0x08c379a000000000000000000000000000000000000000000000000000000000\n      dup2\n      mstore\n      0x04\n      add\n      tag_114\n      swap1\n      tag_115\n      jump\t// in\n    tag_114:\n      mload(0x40)\n      dup1\n      swap2\n      sub\n      swap1\n      revert\n    tag_113:\n        /* \"token/ERC20.sol\":1623:1629  amount */\n      dup2\n        /* \"token/ERC20.sol\":1590:1599  allowance */\n      0x05\n        /* \"token/ERC20.sol\":1590:1607  allowance[sender] */\n      0x00\n        /* \"token/ERC20.sol\":1600:1606  sender */\n      dup7\n        /* \"token/ERC20.sol\":1590:1607  allowance[sender] */\n      0xffffffffffffffffffffffffffffffffffffffff\n      and\n      0xffffffffffffffffffffffffffffffffffffffff\n      and\n      dup2\n      mstore\n      0x20\n      add\n      swap1\n      dup2\n      mstore\n      0x20\n      add\n      0x00\n      keccak256\n        /* \"token/ERC20.sol\":1590:1619  allowance[sender][msg.sender] */\n      0x00\n        /* \"token/ERC20.sol\":1608:1618  msg.sender */\n      caller\n        /* \"token/ERC20.sol\":1590:1619  allowance[sender][msg.sender] */\n      0xffffffffffffffffffffffffffffffffffffffff\n      and\n      0xffffffffffffffffffffffffffffffffffffffff\n      and\n      dup2\n      mstore\n      0x20\n      add\n      swap1\n      dup2\n      mstore\n      0x20\n      add\n      0x00\n      keccak256\n      0x00\n        /* \"token/ERC20.sol\":1590:1629  allowance[sender][msg.sender] -= amount */\n      dup3\n      dup3\n      sload\n      sub\n      swap3\n      pop\n      pop\n      dup2\n      swap1\n      sstore\n      pop\n        /* \"token/ERC20.sol\":1664:1670  amount */\n      dup2\n        /* \"token/ERC20.sol\":1643:1652  balanceOf */\n      0x04\n        /* \"token/ERC20.sol\":1643:1660  balanceOf[sender] */\n      0x00\n        /* \"token/ERC20.sol\":1653:1659  sender */\n      dup7\n        /* \"token/ERC20.sol\":1643:1660  balanceOf[sender] */\n      0xffffffffffffffffffffffffffffffffffffffff\n      and\n      0xffffffffffffffffffffffffffffffffffffffff\n      and\n      dup2\n      mstore\n      0x20\n      add\n      swap1\n      dup2\n      mstore\n      0x20\n      add\n      0x00\n      keccak256\n      0x00\n        /* \"token/ERC20.sol\":1643:1670  balanceOf[sender] -= amount */\n      dup3\n      dup3\n      sload\n      sub\n      swap3\n      pop\n      pop\n      dup2\n      swap1\n      sstore\n      pop\n        /* \"token/ERC20.sol\":1708:1714  amount */\n      dup2\n        /* \"token/ERC20.sol\":1684:1693  balanceOf */\n      0x04\n        /* \"token/ERC20.sol\":1684:1704  balanceOf[recipient] */\n      0x00\n        /* \"token/ERC20.sol\":1694:1703  recipient */\n      dup6\n        /* \"token/ERC20.sol\":1684:1704  balanceOf[recipient] */\n      0xffffffffffffffffffffffffffffffffffffffff\n      and\n      0xffffffffffffffffffffffffffffffffffffffff\n      and\n      dup2\n      mstore\n      0x20\n      add\n      swap1\n      dup2\n      mstore\n      0x20\n      add\n      0x00\n      keccak256\n      0x00\n        /* \"token/ERC20.sol\":1684:1714  balanceOf[recipient] += amount */\n      dup3\n      dup3\n      sload\n      add\n      swap3\n      pop\n      pop\n      dup2\n      swap1\n      sstore\n      pop\n        /* \"token/ERC20.sol\":1756:1765  recipient */\n      dup3\n        /* \"token/ERC20.sol\":1739:1774  Transfer(sender, recipient, amount) */\n      0xffffffffffffffffffffffffffffffffffffffff\n      and\n        /* \"token/ERC20.sol\":1748:1754  sender */\n      dup5\n        /* \"token/ERC20.sol\":1739:1774  Transfer(sender, recipient, amount) */\n      0xffffffffffffffffffffffffffffffffffffffff\n      and\n      0xddf252ad1be2c89b69c2b068fc378daa952ba7f163c4a11628f55a4df523b3ef\n        /* \"token/ERC20.sol\":1767:1773  amount */\n      dup5\n        /* \"token/ERC20.sol\":1739:1774  Transfer(sender, recipient, amount) */\n      mload(0x40)\n      tag_116\n      swap2\n      swap1\n      tag_43\n      jump\t// in\n    tag_116:\n      mload(0x40)\n      dup1\n      swap2\n      sub\n      swap1\n      log3\n        /* \"token/ERC20.sol\":1791:1795  true */\n      0x01\n        /* \"token/ERC20.sol\":1784:1795  return true */\n      swap1\n      pop\n        /* \"token/ERC20.sol\":1275:1802  function transferFrom(... */\n      swap4\n      swap3\n      pop\n      pop\n      pop\n      jump\t// out\n        /* \"token/ERC20.sol\":334:355  uint8 public decimals */\n    tag_50:\n      0x02\n      0x00\n      swap1\n      sload\n      swap1\n      0x0100\n      exp\n      swap1\n      div\n      0xff\n      and\n      dup2\n      jump\t// out\n        /* \"token/ERC20Permit.sol\":253:284  bytes32 public DOMAIN_SEPARATOR */\n    tag_54:\n      sload(0x06)\n      dup2\n      jump\t// out\n        /* \"USDC.sol\":1209:1674  function burn(uint256 amount) external returns (bool) {... */\n    tag_60:\n        /* \"USDC.sol\":1257:1261  bool */\n      0x00\n        /* \"USDC.sol\":1317:1323  amount */\n      dup2\n        /* \"USDC.sol\":1281:1294  minterBalance */\n      0x09\n        /* \"USDC.sol\":1281:1306  minterBalance[msg.sender] */\n      0x00\n        /* \"USDC.sol\":1295:1305  msg.sender */\n      caller\n        /* \"USDC.sol\":1281:1306  minterBalance[msg.sender] */\n      0xffffffffffffffffffffffffffffffffffffffff\n      and\n      0xffffffffffffffffffffffffffffffffffffffff\n      and\n      dup2\n      mstore\n      0x20\n      add\n      swap1\n      dup2\n      mstore\n      0x20\n      add\n      0x00\n      keccak256\n        /* \"USDC.sol\":1281:1313  minterBalance[msg.sender].minted */\n      0x01\n      add\n      sload\n        /* \"USDC.sol\":1281:1323  minterBalance[msg.sender].minted >= amount */\n      lt\n      iszero\n        /* \"USDC.sol\":1273:1351  require(minterBalance[msg.sender].minted >= amount, \"insufficient burn limit\") */\n      tag_118\n      jumpi\n      mload(0x40)\n      0x08c379a000000000000000000000000000000000000000000000000000000000\n      dup2\n      mstore\n      0x04\n      add\n      tag_119\n      swap1\n      tag_120\n      jump\t// in\n    tag_119:\n      mload(0x40)\n      dup1\n      swap2\n      sub\n      swap1\n      revert\n    tag_118:\n        /* \"USDC.sol\":1394:1400  amount */\n      dup2\n        /* \"USDC.sol\":1369:1378  balanceOf */\n      0x04\n        /* \"USDC.sol\":1369:1390  balanceOf[msg.sender] */\n      0x00\n        /* \"USDC.sol\":1379:1389  msg.sender */\n      caller\n        /* \"USDC.sol\":1369:1390  balanceOf[msg.sender] */\n      0xffffffffffffffffffffffffffffffffffffffff\n      and\n      0xffffffffffffffffffffffffffffffffffffffff\n      and\n      dup2\n      mstore\n      0x20\n      add\n      swap1\n      dup2\n      mstore\n      0x20\n      add\n      0x00\n      keccak256\n      sload\n        /* \"USDC.sol\":1369:1400  balanceOf[msg.sender] >= amount */\n      lt\n      iszero\n        /* \"USDC.sol\":1361:1425  require(balanceOf[msg.sender] >= amount, \"insufficient balance\") */\n      tag_121\n      jumpi\n      mload(0x40)\n      0x08c379a000000000000000000000000000000000000000000000000000000000\n      dup2\n      mstore\n      0x04\n      add\n      tag_122\n      swap1\n      tag_115\n      jump\t// in\n    tag_122:\n      mload(0x40)\n      dup1\n      swap2\n      sub\n      swap1\n      revert\n    tag_121:\n        /* \"USDC.sol\":1495:1501  amount */\n      dup2\n        /* \"USDC.sol\":1459:1472  minterBalance */\n      0x09\n        /* \"USDC.sol\":1459:1484  minterBalance[msg.sender] */\n      0x00\n        /* \"USDC.sol\":1473:1483  msg.sender */\n      caller\n        /* \"USDC.sol\":1459:1484  minterBalance[msg.sender] */\n      0xffffffffffffffffffffffffffffffffffffffff\n      and\n      0xffffffffffffffffffffffffffffffffffffffff\n      and\n      dup2\n      mstore\n      0x20\n      add\n      swap1\n      dup2\n      mstore\n      0x20\n      add\n      0x00\n      keccak256\n        /* \"USDC.sol\":1459:1491  minterBalance[msg.sender].minted */\n      0x01\n      add\n      0x00\n        /* \"USDC.sol\":1459:1501  minterBalance[msg.sender].minted -= amount */\n      dup3\n      dup3\n      sload\n      sub\n      swap3\n      pop\n      pop\n      dup2\n      swap1\n      sstore\n      pop\n        /* \"USDC.sol\":1540:1546  amount */\n      dup2\n        /* \"USDC.sol\":1515:1524  balanceOf */\n      0x04\n        /* \"USDC.sol\":1515:1536  balanceOf[msg.sender] */\n      0x00\n        /* \"USDC.sol\":1525:1535  msg.sender */\n      caller\n        /* \"USDC.sol\":1515:1536  balanceOf[msg.sender] */\n      0xffffffffffffffffffffffffffffffffffffffff\n      and\n      0xffffffffffffffffffffffffffffffffffffffff\n      and\n      dup2\n      mstore\n      0x20\n      add\n      swap1\n      dup2\n      mstore\n      0x20\n      add\n      0x00\n      keccak256\n      0x00\n        /* \"USDC.sol\":1515:1546  balanceOf[msg.sender] -= amount */\n      dup3\n      dup3\n      sload\n      sub\n      swap3\n      pop\n      pop\n      dup2\n      swap1\n      sstore\n      pop\n        /* \"USDC.sol\":1575:1581  amount */\n      dup2\n        /* \"USDC.sol\":1560:1571  totalSupply */\n      0x03\n      0x00\n        /* \"USDC.sol\":1560:1581  totalSupply -= amount */\n      dup3\n      dup3\n      sload\n      sub\n      swap3\n      pop\n      pop\n      dup2\n      swap1\n      sstore\n      pop\n        /* \"USDC.sol\":1635:1636  0 */\n      0x00\n        /* \"USDC.sol\":1606:1646  Transfer(msg.sender, address(0), amount) */\n      0xffffffffffffffffffffffffffffffffffffffff\n      and\n        /* \"USDC.sol\":1615:1625  msg.sender */\n      caller\n        /* \"USDC.sol\":1606:1646  Transfer(msg.sender, address(0), amount) */\n      0xffffffffffffffffffffffffffffffffffffffff\n      and\n      0xddf252ad1be2c89b69c2b068fc378daa952ba7f163c4a11628f55a4df523b3ef\n        /* \"USDC.sol\":1639:1645  amount */\n      dup5\n        /* \"USDC.sol\":1606:1646  Transfer(msg.sender, address(0), amount) */\n      mload(0x40)\n      tag_123\n      swap2\n      swap1\n      tag_43\n      jump\t// in\n    tag_123:\n      mload(0x40)\n      dup1\n      swap2\n      sub\n      swap1\n      log3\n        /* \"USDC.sol\":1663:1667  true */\n      0x01\n        /* \"USDC.sol\":1656:1667  return true */\n      swap1\n      pop\n        /* \"USDC.sol\":1209:1674  function burn(uint256 amount) external returns (bool) {... */\n      swap2\n      swap1\n      pop\n      jump\t// out\n        /* \"token/ERC20.sol\":393:437  mapping(address => uint256) public balanceOf */\n    tag_64:\n      mstore(0x20, 0x04)\n      dup1\n      0x00\n      mstore\n      keccak256(0x00, 0x40)\n      0x00\n      swap2\n      pop\n      swap1\n      pop\n      sload\n      dup2\n      jump\t// out\n        /* \"token/ERC20Permit.sol\":290:331  mapping(address => uint256) public nonces */\n    tag_68:\n      mstore(0x20, 0x07)\n      dup1\n      0x00\n      mstore\n      keccak256(0x00, 0x40)\n      0x00\n      swap2\n      pop\n      swap1\n      pop\n      sload\n      dup2\n      jump\t// out\n        /* \"access/Ownable.sol\":319:446  function updateOwner(address newOwner) external onlyOwner {... */\n    tag_72:\n        /* \"access/Ownable.sol\":275:280  owner */\n      0x08\n      0x00\n      swap1\n      sload\n      swap1\n      0x0100\n      exp\n      swap1\n      div\n      0xffffffffffffffffffffffffffffffffffffffff\n      and\n        /* \"access/Ownable.sol\":261:280  msg.sender == owner */\n      0xffffffffffffffffffffffffffffffffffffffff\n      and\n        /* \"access/Ownable.sol\":261:271  msg.sender */\n      caller\n        /* \"access/Ownable.sol\":261:280  msg.sender == owner */\n      0xffffffffffffffffffffffffffffffffffffffff\n      and\n      eq\n        /* \"access/Ownable.sol\":253:295  require(msg.sender == owner, \"only owner\") */\n      tag_125\n      jumpi\n      mload(0x40)\n      0x08c379a000000000000000000000000000000000000000000000000000000000\n      dup2\n      mstore\n      0x04\n      add\n      tag_126\n      swap1\n      tag_127\n      jump\t// in\n    tag_126:\n      mload(0x40)\n      dup1\n      swap2\n      sub\n      swap1\n      revert\n    tag_125:\n        /* \"access/Ownable.sol\":395:403  newOwner */\n      dup1\n        /* \"access/Ownable.sol\":387:392  owner */\n      0x08\n      0x00\n        /* \"access/Ownable.sol\":387:403  owner = newOwner */\n      0x0100\n      exp\n      dup2\n      sload\n      dup2\n      0xffffffffffffffffffffffffffffffffffffffff\n      mul\n      not\n      and\n      swap1\n      dup4\n      0xffffffffffffffffffffffffffffffffffffffff\n      and\n      mul\n      or\n      swap1\n      sstore\n      pop\n        /* \"access/Ownable.sol\":430:438  newOwner */\n      dup1\n        /* \"access/Ownable.sol\":418:439  UpdateOwner(newOwner) */\n      0xffffffffffffffffffffffffffffffffffffffff\n      and\n      0x84022644ce39de434e8f39c4398a3628815893104188274c37205d41c2d50967\n      mload(0x40)\n      mload(0x40)\n      dup1\n      swap2\n      sub\n      swap1\n      log2\n        /* \"access/Ownable.sol\":319:446  function updateOwner(address newOwner) external onlyOwner {... */\n      pop\n      jump\t// out\n        /* \"access/Ownable.sol\":90:110  address public owner */\n    tag_74:\n      0x08\n      0x00\n      swap1\n      sload\n      swap1\n      0x0100\n      exp\n      swap1\n      div\n      0xffffffffffffffffffffffffffffffffffffffff\n      and\n      dup2\n      jump\t// out\n        /* \"token/ERC20.sol\":308:328  string public symbol */\n    tag_78:\n      0x01\n      dup1\n      sload\n      tag_129\n      swap1\n      tag_102\n      jump\t// in\n    tag_129:\n      dup1\n      0x1f\n      add\n      0x20\n      dup1\n      swap2\n      div\n      mul\n      0x20\n      add\n      mload(0x40)\n      swap1\n      dup2\n      add\n      0x40\n      mstore\n      dup1\n      swap3\n      swap2\n      swap1\n      dup2\n      dup2\n      mstore\n      0x20\n      add\n      dup3\n      dup1\n      sload\n      tag_130\n      swap1\n      tag_102\n      jump\t// in\n    tag_130:\n      dup1\n      iszero\n      tag_131\n      jumpi\n      dup1\n      0x1f\n      lt\n      tag_132\n      jumpi\n      0x0100\n      dup1\n      dup4\n      sload\n      div\n      mul\n      dup4\n      mstore\n      swap2\n      0x20\n      add\n      swap2\n      jump(tag_131)\n    tag_132:\n      dup3\n      add\n      swap2\n      swap1\n      0x00\n      mstore\n      keccak256(0x00, 0x20)\n      swap1\n    tag_133:\n      dup2\n      sload\n      dup2\n      mstore\n      swap1\n      0x01\n      add\n      swap1\n      0x20\n      add\n      dup1\n      dup4\n      gt\n      tag_133\n      jumpi\n      dup3\n      swap1\n      sub\n      0x1f\n      and\n      dup3\n      add\n      swap2\n    tag_131:\n      pop\n      pop\n      pop\n      pop\n      pop\n      dup2\n      jump\t// out\n        /* \"USDC.sol\":704:1203  function mint(uint256 amount) external returns (bool) {... */\n    tag_82:\n        /* \"USDC.sol\":752:756  bool */\n      0x00\n        /* \"USDC.sol\":846:852  amount */\n      dup2\n        /* \"USDC.sol\":811:824  minterBalance */\n      0x09\n        /* \"USDC.sol\":811:836  minterBalance[msg.sender] */\n      0x00\n        /* \"USDC.sol\":825:835  msg.sender */\n      caller\n        /* \"USDC.sol\":811:836  minterBalance[msg.sender] */\n      0xffffffffffffffffffffffffffffffffffffffff\n      and\n      0xffffffffffffffffffffffffffffffffffffffff\n      and\n      dup2\n      mstore\n      0x20\n      add\n      swap1\n      dup2\n      mstore\n      0x20\n      add\n      0x00\n      keccak256\n        /* \"USDC.sol\":811:843  minterBalance[msg.sender].minted */\n      0x01\n      add\n      sload\n        /* \"USDC.sol\":811:852  minterBalance[msg.sender].minted + amount */\n      tag_135\n      swap2\n      swap1\n      tag_136\n      jump\t// in\n    tag_135:\n        /* \"USDC.sol\":776:789  minterBalance */\n      0x09\n        /* \"USDC.sol\":776:801  minterBalance[msg.sender] */\n      0x00\n        /* \"USDC.sol\":790:800  msg.sender */\n      caller\n        /* \"USDC.sol\":776:801  minterBalance[msg.sender] */\n      0xffffffffffffffffffffffffffffffffffffffff\n      and\n      0xffffffffffffffffffffffffffffffffffffffff\n      and\n      dup2\n      mstore\n      0x20\n      add\n      swap1\n      dup2\n      mstore\n      0x20\n      add\n      0x00\n      keccak256\n        /* \"USDC.sol\":776:807  minterBalance[msg.sender].limit */\n      0x00\n      add\n      sload\n        /* \"USDC.sol\":776:852  minterBalance[msg.sender].limit >= minterBalance[msg.sender].minted + amount */\n      lt\n      iszero\n        /* \"USDC.sol\":768:880  require(minterBalance[msg.sender].limit >= minterBalance[msg.sender].minted + amount, \"insufficient mint limit\") */\n      tag_137\n      jumpi\n      mload(0x40)\n      0x08c379a000000000000000000000000000000000000000000000000000000000\n      dup2\n      mstore\n      0x04\n      add\n      tag_138\n      swap1\n      tag_139\n      jump\t// in\n    tag_138:\n      mload(0x40)\n      dup1\n      swap2\n      sub\n      swap1\n      revert\n    tag_137:\n        /* \"USDC.sol\":922:928  amount */\n      dup2\n        /* \"USDC.sol\":912:918  amount */\n      dup3\n        /* \"USDC.sol\":898:909  totalSupply */\n      sload(0x03)\n        /* \"USDC.sol\":898:918  totalSupply + amount */\n      tag_140\n      swap2\n      swap1\n      tag_136\n      jump\t// in\n    tag_140:\n        /* \"USDC.sol\":898:928  totalSupply + amount >= amount */\n      lt\n      iszero\n        /* \"USDC.sol\":890:954  require(totalSupply + amount >= amount, \"total supply overflow\") */\n      tag_141\n      jumpi\n      mload(0x40)\n      0x08c379a000000000000000000000000000000000000000000000000000000000\n      dup2\n      mstore\n      0x04\n      add\n      tag_142\n      swap1\n      tag_143\n      jump\t// in\n    tag_142:\n      mload(0x40)\n      dup1\n      swap2\n      sub\n      swap1\n      revert\n    tag_141:\n        /* \"USDC.sol\":1024:1030  amount */\n      dup2\n        /* \"USDC.sol\":988:1001  minterBalance */\n      0x09\n        /* \"USDC.sol\":988:1013  minterBalance[msg.sender] */\n      0x00\n        /* \"USDC.sol\":1002:1012  msg.sender */\n      caller\n        /* \"USDC.sol\":988:1013  minterBalance[msg.sender] */\n      0xffffffffffffffffffffffffffffffffffffffff\n      and\n      0xffffffffffffffffffffffffffffffffffffffff\n      and\n      dup2\n      mstore\n      0x20\n      add\n      swap1\n      dup2\n      mstore\n      0x20\n      add\n      0x00\n      keccak256\n        /* \"USDC.sol\":988:1020  minterBalance[msg.sender].minted */\n      0x01\n      add\n      0x00\n        /* \"USDC.sol\":988:1030  minterBalance[msg.sender].minted += amount */\n      dup3\n      dup3\n      sload\n      add\n      swap3\n      pop\n      pop\n      dup2\n      swap1\n      sstore\n      pop\n        /* \"USDC.sol\":1069:1075  amount */\n      dup2\n        /* \"USDC.sol\":1044:1053  balanceOf */\n      0x04\n        /* \"USDC.sol\":1044:1065  balanceOf[msg.sender] */\n      0x00\n        /* \"USDC.sol\":1054:1064  msg.sender */\n      caller\n        /* \"USDC.sol\":1044:1065  balanceOf[msg.sender] */\n      0xffffffffffffffffffffffffffffffffffffffff\n      and\n      0xffffffffffffffffffffffffffffffffffffffff\n      and\n      dup2\n      mstore\n      0x20\n      add\n      swap1\n      dup2\n      mstore\n      0x20\n      add\n      0x00\n      keccak256\n      0x00\n        /* \"USDC.sol\":1044:1075  balanceOf[msg.sender] += amount */\n      dup3\n      dup3\n      sload\n      add\n      swap3\n      pop\n      pop\n      dup2\n      swap1\n      sstore\n      pop\n        /* \"USDC.sol\":1104:1110  amount */\n      dup2\n        /* \"USDC.sol\":1089:1100  totalSupply */\n      0x03\n      0x00\n        /* \"USDC.sol\":1089:1110  totalSupply += amount */\n      dup3\n      dup3\n      sload\n      add\n      swap3\n      pop\n      pop\n      dup2\n      swap1\n      sstore\n      pop\n        /* \"USDC.sol\":1156:1166  msg.sender */\n      caller\n        /* \"USDC.sol\":1135:1175  Transfer(address(0), msg.sender, amount) */\n      0xffffffffffffffffffffffffffffffffffffffff\n      and\n        /* \"USDC.sol\":1152:1153  0 */\n      0x00\n        /* \"USDC.sol\":1135:1175  Transfer(address(0), msg.sender, amount) */\n      0xffffffffffffffffffffffffffffffffffffffff\n      and\n      0xddf252ad1be2c89b69c2b068fc378daa952ba7f163c4a11628f55a4df523b3ef\n        /* \"USDC.sol\":1168:1174  amount */\n      dup5\n        /* \"USDC.sol\":1135:1175  Transfer(address(0), msg.sender, amount) */\n      mload(0x40)\n      tag_144\n      swap2\n      swap1\n      tag_43\n      jump\t// in\n    tag_144:\n      mload(0x40)\n      dup1\n      swap2\n      sub\n      swap1\n      log3\n        /* \"USDC.sol\":1192:1196  true */\n      0x01\n        /* \"USDC.sol\":1185:1196  return true */\n      swap1\n      pop\n        /* \"USDC.sol\":704:1203  function mint(uint256 amount) external returns (bool) {... */\n      swap2\n      swap1\n      pop\n      jump\t// out\n        /* \"token/ERC20.sol\":917:1269  function transfer(address recipient, uint256 amount) external returns (bool) {... */\n    tag_86:\n        /* \"token/ERC20.sol\":988:992  bool */\n      0x00\n        /* \"token/ERC20.sol\":1037:1043  amount */\n      dup2\n        /* \"token/ERC20.sol\":1012:1021  balanceOf */\n      0x04\n        /* \"token/ERC20.sol\":1012:1033  balanceOf[msg.sender] */\n      0x00\n        /* \"token/ERC20.sol\":1022:1032  msg.sender */\n      caller\n        /* \"token/ERC20.sol\":1012:1033  balanceOf[msg.sender] */\n      0xffffffffffffffffffffffffffffffffffffffff\n      and\n      0xffffffffffffffffffffffffffffffffffffffff\n      and\n      dup2\n      mstore\n      0x20\n      add\n      swap1\n      dup2\n      mstore\n      0x20\n      add\n      0x00\n      keccak256\n      sload\n        /* \"token/ERC20.sol\":1012:1043  balanceOf[msg.sender] >= amount */\n      lt\n      iszero\n        /* \"token/ERC20.sol\":1004:1068  require(balanceOf[msg.sender] >= amount, \"insufficient balance\") */\n      tag_146\n      jumpi\n      mload(0x40)\n      0x08c379a000000000000000000000000000000000000000000000000000000000\n      dup2\n      mstore\n      0x04\n      add\n      tag_147\n      swap1\n      tag_115\n      jump\t// in\n    tag_147:\n      mload(0x40)\n      dup1\n      swap2\n      sub\n      swap1\n      revert\n    tag_146:\n        /* \"token/ERC20.sol\":1127:1133  amount */\n      dup2\n        /* \"token/ERC20.sol\":1102:1111  balanceOf */\n      0x04\n        /* \"token/ERC20.sol\":1102:1123  balanceOf[msg.sender] */\n      0x00\n        /* \"token/ERC20.sol\":1112:1122  msg.sender */\n      caller\n        /* \"token/ERC20.sol\":1102:1123  balanceOf[msg.sender] */\n      0xffffffffffffffffffffffffffffffffffffffff\n      and\n      0xffffffffffffffffffffffffffffffffffffffff\n      and\n      dup2\n      mstore\n      0x20\n      add\n      swap1\n      dup2\n      mstore\n      0x20\n      add\n      0x00\n      keccak256\n      0x00\n        /* \"token/ERC20.sol\":1102:1133  balanceOf[msg.sender] -= amount */\n      dup3\n      dup3\n      sload\n      sub\n      swap3\n      pop\n      pop\n      dup2\n      swap1\n      sstore\n      pop\n        /* \"token/ERC20.sol\":1171:1177  amount */\n      dup2\n        /* \"token/ERC20.sol\":1147:1156  balanceOf */\n      0x04\n        /* \"token/ERC20.sol\":1147:1167  balanceOf[recipient] */\n      0x00\n        /* \"token/ERC20.sol\":1157:1166  recipient */\n      dup6\n        /* \"token/ERC20.sol\":1147:1167  balanceOf[recipient] */\n      0xffffffffffffffffffffffffffffffffffffffff\n      and\n      0xffffffffffffffffffffffffffffffffffffffff\n      and\n      dup2\n      mstore\n      0x20\n      add\n      swap1\n      dup2\n      mstore\n      0x20\n      add\n      0x00\n      keccak256\n      0x00\n        /* \"token/ERC20.sol\":1147:1177  balanceOf[recipient] += amount */\n      dup3\n      dup3\n      sload\n      add\n      swap3\n      pop\n      pop\n      dup2\n      swap1\n      sstore\n      pop\n        /* \"token/ERC20.sol\":1223:1232  recipient */\n      dup3\n        /* \"token/ERC20.sol\":1202:1241  Transfer(msg.sender, recipient, amount) */\n      0xffffffffffffffffffffffffffffffffffffffff\n      and\n        /* \"token/ERC20.sol\":1211:1221  msg.sender */\n      caller\n        /* \"token/ERC20.sol\":1202:1241  Transfer(msg.sender, recipient, amount) */\n      0xffffffffffffffffffffffffffffffffffffffff\n      and\n      0xddf252ad1be2c89b69c2b068fc378daa952ba7f163c4a11628f55a4df523b3ef\n        /* \"token/ERC20.sol\":1234:1240  amount */\n      dup5\n        /* \"token/ERC20.sol\":1202:1241  Transfer(msg.sender, recipient, amount) */\n      mload(0x40)\n      tag_148\n      swap2\n      swap1\n      tag_43\n      jump\t// in\n    tag_148:\n      mload(0x40)\n      dup1\n      swap2\n      sub\n      swap1\n      log3\n        /* \"token/ERC20.sol\":1258:1262  true */\n      0x01\n        /* \"token/ERC20.sol\":1251:1262  return true */\n      swap1\n      pop\n        /* \"token/ERC20.sol\":917:1269  function transfer(address recipient, uint256 amount) external returns (bool) {... */\n      swap3\n      swap2\n      pop\n      pop\n      jump\t// out\n        /* \"USDC.sol\":496:698  function updateMinter(address minter, uint256 limit) external onlyOwner returns (bool) {... */\n    tag_90:\n        /* \"USDC.sol\":577:581  bool */\n      0x00\n        /* \"access/Ownable.sol\":275:280  owner */\n      0x08\n      0x00\n      swap1\n      sload\n      swap1\n      0x0100\n      exp\n      swap1\n      div\n      0xffffffffffffffffffffffffffffffffffffffff\n      and\n        /* \"access/Ownable.sol\":261:280  msg.sender == owner */\n      0xffffffffffffffffffffffffffffffffffffffff\n      and\n        /* \"access/Ownable.sol\":261:271  msg.sender */\n      caller\n        /* \"access/Ownable.sol\":261:280  msg.sender == owner */\n      0xffffffffffffffffffffffffffffffffffffffff\n      and\n      eq\n        /* \"access/Ownable.sol\":253:295  require(msg.sender == owner, \"only owner\") */\n      tag_150\n      jumpi\n      mload(0x40)\n      0x08c379a000000000000000000000000000000000000000000000000000000000\n      dup2\n      mstore\n      0x04\n      add\n      tag_151\n      swap1\n      tag_127\n      jump\t// in\n    tag_151:\n      mload(0x40)\n      dup1\n      swap2\n      sub\n      swap1\n      revert\n    tag_150:\n        /* \"USDC.sol\":623:628  limit */\n      dup2\n        /* \"USDC.sol\":593:606  minterBalance */\n      0x09\n        /* \"USDC.sol\":593:614  minterBalance[minter] */\n      0x00\n        /* \"USDC.sol\":607:613  minter */\n      dup6\n        /* \"USDC.sol\":593:614  minterBalance[minter] */\n      0xffffffffffffffffffffffffffffffffffffffff\n      and\n      0xffffffffffffffffffffffffffffffffffffffff\n      and\n      dup2\n      mstore\n      0x20\n      add\n      swap1\n      dup2\n      mstore\n      0x20\n      add\n      0x00\n      keccak256\n        /* \"USDC.sol\":593:620  minterBalance[minter].limit */\n      0x00\n      add\n        /* \"USDC.sol\":593:628  minterBalance[minter].limit = limit */\n      dup2\n      swap1\n      sstore\n      pop\n        /* \"USDC.sol\":656:662  minter */\n      dup3\n        /* \"USDC.sol\":643:670  UpdateMinter(minter, limit) */\n      0xffffffffffffffffffffffffffffffffffffffff\n      and\n      0xd695c44a53c79151b2c1e3151223d9a860164774700406f2d9c69cead40277bc\n        /* \"USDC.sol\":664:669  limit */\n      dup4\n        /* \"USDC.sol\":643:670  UpdateMinter(minter, limit) */\n      mload(0x40)\n      tag_153\n      swap2\n      swap1\n      tag_43\n      jump\t// in\n    tag_153:\n      mload(0x40)\n      dup1\n      swap2\n      sub\n      swap1\n      log2\n        /* \"USDC.sol\":687:691  true */\n      0x01\n        /* \"USDC.sol\":680:691  return true */\n      swap1\n      pop\n        /* \"USDC.sol\":496:698  function updateMinter(address minter, uint256 limit) external onlyOwner returns (bool) {... */\n      swap3\n      swap2\n      pop\n      pop\n      jump\t// out\n        /* \"token/ERC20Permit.sol\":582:1401  function permit(... */\n    tag_95:\n        /* \"token/ERC20Permit.sol\":801:816  block.timestamp */\n      timestamp\n        /* \"token/ERC20Permit.sol\":789:797  deadline */\n      dup5\n        /* \"token/ERC20Permit.sol\":789:816  deadline >= block.timestamp */\n      lt\n      iszero\n        /* \"token/ERC20Permit.sol\":781:835  require(deadline >= block.timestamp, \"permit expired\") */\n      tag_155\n      jumpi\n      mload(0x40)\n      0x08c379a000000000000000000000000000000000000000000000000000000000\n      dup2\n      mstore\n      0x04\n      add\n      tag_156\n      swap1\n      tag_157\n      jump\t// in\n    tag_156:\n      mload(0x40)\n      dup1\n      swap2\n      sub\n      swap1\n      revert\n    tag_155:\n        /* \"token/ERC20Permit.sol\":869:883  bytes32 digest */\n      0x00\n        /* \"token/ERC20Permit.sol\":925:941  DOMAIN_SEPARATOR */\n      sload(0x06)\n        /* \"token/ERC20Permit.sol\":964:1059  keccak256(\"Permit(address owner,address spender,uint256 value,uint256 nonce,uint256 deadline)\") */\n      0x6e71edae12b1b97f4d1f60370fef10105fa2faae0126114a169c64845d6126c9\n        /* \"token/ERC20Permit.sol\":1061:1066  owner */\n      dup10\n        /* \"token/ERC20Permit.sol\":1068:1075  spender */\n      dup10\n        /* \"token/ERC20Permit.sol\":1077:1082  value */\n      dup10\n        /* \"token/ERC20Permit.sol\":1084:1090  nonces */\n      0x07\n        /* \"token/ERC20Permit.sol\":1084:1097  nonces[owner] */\n      0x00\n        /* \"token/ERC20Permit.sol\":1091:1096  owner */\n      dup15\n        /* \"token/ERC20Permit.sol\":1084:1097  nonces[owner] */\n      0xffffffffffffffffffffffffffffffffffffffff\n      and\n      0xffffffffffffffffffffffffffffffffffffffff\n      and\n      dup2\n      mstore\n      0x20\n      add\n      swap1\n      dup2\n      mstore\n      0x20\n      add\n      0x00\n      keccak256\n      0x00\n        /* \"token/ERC20Permit.sol\":1084:1099  nonces[owner]++ */\n      dup2\n      sload\n      dup1\n      swap3\n      swap2\n      swap1\n      0x01\n      add\n      swap2\n      swap1\n      pop\n      sstore\n        /* \"token/ERC20Permit.sol\":1101:1109  deadline */\n      dup11\n        /* \"token/ERC20Permit.sol\":953:1110  abi.encode(keccak256(\"Permit(address owner,address spender,uint256 value,uint256 nonce,uint256 deadline)\"), owner, spender, value, nonces[owner]++, deadline) */\n      add(0x20, mload(0x40))\n      tag_158\n      swap7\n      swap6\n      swap5\n      swap4\n      swap3\n      swap2\n      swap1\n      tag_159\n      jump\t// in\n    tag_158:\n      mload(0x40)\n      0x20\n      dup2\n      dup4\n      sub\n      sub\n      dup2\n      mstore\n      swap1\n      0x40\n      mstore\n        /* \"token/ERC20Permit.sol\":943:1111  keccak256(abi.encode(keccak256(\"Permit(address owner,address spender,uint256 value,uint256 nonce,uint256 deadline)\"), owner, spender, value, nonces[owner]++, deadline)) */\n      dup1\n      mload\n      swap1\n      0x20\n      add\n      keccak256\n        /* \"token/ERC20Permit.sol\":896:1112  abi.encodePacked(\"\\x19\\x01\", DOMAIN_SEPARATOR, keccak256(abi.encode(keccak256(\"Permit(address owner,address spender,uint256 value,uint256 nonce,uint256 deadline)\"), owner, spender, value, nonces[owner]++, deadline))) */\n      add(0x20, mload(0x40))\n      tag_160\n      swap3\n      swap2\n      swap1\n      tag_161\n      jump\t// in\n    tag_160:\n      mload(0x40)\n      0x20\n      dup2\n      dup4\n      sub\n      sub\n      dup2\n      mstore\n      swap1\n      0x40\n      mstore\n        /* \"token/ERC20Permit.sol\":886:1113  keccak256(abi.encodePacked(\"\\x19\\x01\", DOMAIN_SEPARATOR, keccak256(abi.encode(keccak256(\"Permit(address owner,address spender,uint256 value,uint256 nonce,uint256 deadline)\"), owner, spender, value, nonces[owner]++, deadline)))) */\n      dup1\n      mload\n      swap1\n      0x20\n      add\n      keccak256\n        /* \"token/ERC20Permit.sol\":869:1113  bytes32 digest = keccak256(abi.encodePacked(\"\\x19\\x01\", DOMAIN_SEPARATOR, keccak256(abi.encode(keccak256(\"Permit(address owner,address spender,uint256 value,uint256 nonce,uint256 deadline)\"), owner, spender, value, nonces[owner]++, deadline)))) */\n      swap1\n      pop\n        /* \"token/ERC20Permit.sol\":1127:1151  address recoveredAddress */\n      0x00\n        /* \"token/ERC20Permit.sol\":1154:1180  ecrecover(digest, v, r, s) */\n      0x01\n        /* \"token/ERC20Permit.sol\":1164:1170  digest */\n      dup3\n        /* \"token/ERC20Permit.sol\":1172:1173  v */\n      dup7\n        /* \"token/ERC20Permit.sol\":1175:1176  r */\n      dup7\n        /* \"token/ERC20Permit.sol\":1178:1179  s */\n      dup7\n        /* \"token/ERC20Permit.sol\":1154:1180  ecrecover(digest, v, r, s) */\n      mload(0x40)\n      0x00\n      dup2\n      mstore\n      0x20\n      add\n      0x40\n      mstore\n      mload(0x40)\n      tag_162\n      swap5\n      swap4\n      swap3\n      swap2\n      swap1\n      tag_163\n      jump\t// in\n    tag_162:\n      0x20\n      mload(0x40)\n      0x20\n      dup2\n      sub\n      swap1\n      dup1\n      dup5\n      sub\n      swap1\n      dup6\n      gas\n      staticcall\n      iszero\n      dup1\n      iszero\n      tag_165\n      jumpi\n      returndatasize\n      0x00\n      dup1\n      returndatacopy\n      revert(0x00, returndatasize)\n    tag_165:\n      pop\n      pop\n      pop\n      mload(sub(mload(0x40), 0x20))\n        /* \"token/ERC20Permit.sol\":1127:1180  address recoveredAddress = ecrecover(digest, v, r, s) */\n      swap1\n      pop\n        /* \"token/ERC20Permit.sol\":1230:1231  0 */\n      0x00\n        /* \"token/ERC20Permit.sol\":1202:1232  recoveredAddress != address(0) */\n      0xffffffffffffffffffffffffffffffffffffffff\n      and\n        /* \"token/ERC20Permit.sol\":1202:1218  recoveredAddress */\n      dup2\n        /* \"token/ERC20Permit.sol\":1202:1232  recoveredAddress != address(0) */\n      0xffffffffffffffffffffffffffffffffffffffff\n      and\n      eq\n      iszero\n        /* \"token/ERC20Permit.sol\":1202:1261  recoveredAddress != address(0) && recoveredAddress == owner */\n      dup1\n      iszero\n      tag_166\n      jumpi\n      pop\n        /* \"token/ERC20Permit.sol\":1256:1261  owner */\n      dup9\n        /* \"token/ERC20Permit.sol\":1236:1261  recoveredAddress == owner */\n      0xffffffffffffffffffffffffffffffffffffffff\n      and\n        /* \"token/ERC20Permit.sol\":1236:1252  recoveredAddress */\n      dup2\n        /* \"token/ERC20Permit.sol\":1236:1261  recoveredAddress == owner */\n      0xffffffffffffffffffffffffffffffffffffffff\n      and\n      eq\n        /* \"token/ERC20Permit.sol\":1202:1261  recoveredAddress != address(0) && recoveredAddress == owner */\n    tag_166:\n        /* \"token/ERC20Permit.sol\":1194:1280  require(recoveredAddress != address(0) && recoveredAddress == owner, \"invalid signer\") */\n      tag_167\n      jumpi\n      mload(0x40)\n      0x08c379a000000000000000000000000000000000000000000000000000000000\n      dup2\n      mstore\n      0x04\n      add\n      tag_168\n      swap1\n      tag_169\n      jump\t// in\n    tag_168:\n      mload(0x40)\n      dup1\n      swap2\n      sub\n      swap1\n      revert\n    tag_167:\n        /* \"token/ERC20Permit.sol\":1333:1338  value */\n      dup7\n        /* \"token/ERC20Permit.sol\":1294:1303  allowance */\n      0x05\n        /* \"token/ERC20Permit.sol\":1294:1321  allowance[recoveredAddress] */\n      0x00\n        /* \"token/ERC20Permit.sol\":1304:1320  recoveredAddress */\n      dup4\n        /* \"token/ERC20Permit.sol\":1294:1321  allowance[recoveredAddress] */\n      0xffffffffffffffffffffffffffffffffffffffff\n      and\n      0xffffffffffffffffffffffffffffffffffffffff\n      and\n      dup2\n      mstore\n      0x20\n      add\n      swap1\n      dup2\n      mstore\n      0x20\n      add\n      0x00\n      keccak256\n        /* \"token/ERC20Permit.sol\":1294:1330  allowance[recoveredAddress][spender] */\n      0x00\n        /* \"token/ERC20Permit.sol\":1322:1329  spender */\n      dup11\n        /* \"token/ERC20Permit.sol\":1294:1330  allowance[recoveredAddress][spender] */\n      0xffffffffffffffffffffffffffffffffffffffff\n      and\n      0xffffffffffffffffffffffffffffffffffffffff\n      and\n      dup2\n      mstore\n      0x20\n      add\n      swap1\n      dup2\n      mstore\n      0x20\n      add\n      0x00\n      keccak256\n        /* \"token/ERC20Permit.sol\":1294:1338  allowance[recoveredAddress][spender] = value */\n      dup2\n      swap1\n      sstore\n      pop\n        /* \"token/ERC20Permit.sol\":845:1349  unchecked {... */\n      pop\n      pop\n        /* \"token/ERC20Permit.sol\":1379:1386  spender */\n      dup6\n        /* \"token/ERC20Permit.sol\":1363:1394  Approval(owner, spender, value) */\n      0xffffffffffffffffffffffffffffffffffffffff\n      and\n        /* \"token/ERC20Permit.sol\":1372:1377  owner */\n      dup8\n        /* \"token/ERC20Permit.sol\":1363:1394  Approval(owner, spender, value) */\n      0xffffffffffffffffffffffffffffffffffffffff\n      and\n      0x8c5be1e5ebec7d5bd14f71427d1e84f3dd0314c0f7b2291e5b200ac8c7c3b925\n        /* \"token/ERC20Permit.sol\":1388:1393  value */\n      dup8\n        /* \"token/ERC20Permit.sol\":1363:1394  Approval(owner, spender, value) */\n      mload(0x40)\n      tag_170\n      swap2\n      swap1\n      tag_43\n      jump\t// in\n    tag_170:\n      mload(0x40)\n      dup1\n      swap2\n      sub\n      swap1\n      log3\n        /* \"token/ERC20Permit.sol\":582:1401  function permit(... */\n      pop\n      pop\n      pop\n      pop\n      pop\n      pop\n      pop\n      jump\t// out\n        /* \"token/ERC20.sol\":443:507  mapping(address => mapping(address => uint256)) public allowance */\n    tag_99:\n      mstore(0x20, 0x05)\n      dup2\n      0x00\n      mstore\n      mstore(0x20, keccak256(0x00, 0x40))\n      dup1\n      0x00\n      mstore\n      keccak256(0x00, 0x40)\n      0x00\n      swap2\n      pop\n      swap2\n      pop\n      pop\n      sload\n      dup2\n      jump\t// out\n        /* \"#utility.yul\":7:106   */\n    tag_171:\n        /* \"#utility.yul\":59:65   */\n      0x00\n        /* \"#utility.yul\":93:98   */\n      dup2\n        /* \"#utility.yul\":87:99   */\n      mload\n        /* \"#utility.yul\":77:99   */\n      swap1\n      pop\n        /* \"#utility.yul\":7:106   */\n      swap2\n      swap1\n      pop\n      jump\t// out\n        /* \"#utility.yul\":112:281   */\n    tag_172:\n        /* \"#utility.yul\":196:207   */\n      0x00\n        /* \"#utility.yul\":230:236   */\n      dup3\n        /* \"#utility.yul\":225:228   */\n      dup3\n        /* \"#utility.yul\":218:237   */\n      mstore\n        /* \"#utility.yul\":270:274   */\n      0x20\n        /* \"#utility.yul\":265:268   */\n      dup3\n        /* \"#utility.yul\":261:275   */\n      add\n        /* \"#utility.yul\":246:275   */\n      swap1\n      pop\n        /* \"#utility.yul\":112:281   */\n      swap3\n      swap2\n      pop\n      pop\n      jump\t// out\n        /* \"#utility.yul\":287:533   */\n    tag_173:\n        /* \"#utility.yul\":368:369   */\n      0x00\n        /* \"#utility.yul\":378:491   */\n    tag_225:\n        /* \"#utility.yul\":392:398   */\n      dup4\n        /* \"#utility.yul\":389:390   */\n      dup2\n        /* \"#utility.yul\":386:399   */\n      lt\n        /* \"#utility.yul\":378:491   */\n      iszero\n      tag_227\n      jumpi\n        /* \"#utility.yul\":477:478   */\n      dup1\n        /* \"#utility.yul\":472:475   */\n      dup3\n        /* \"#utility.yul\":468:479   */\n      add\n        /* \"#utility.yul\":462:480   */\n      mload\n        /* \"#utility.yul\":458:459   */\n      dup2\n        /* \"#utility.yul\":453:456   */\n      dup5\n        /* \"#utility.yul\":449:460   */\n      add\n        /* \"#utility.yul\":442:481   */\n      mstore\n        /* \"#utility.yul\":414:416   */\n      0x20\n        /* \"#utility.yul\":411:412   */\n      dup2\n        /* \"#utility.yul\":407:417   */\n      add\n        /* \"#utility.yul\":402:417   */\n      swap1\n      pop\n        /* \"#utility.yul\":378:491   */\n      jump(tag_225)\n    tag_227:\n        /* \"#utility.yul\":525:526   */\n      0x00\n        /* \"#utility.yul\":516:522   */\n      dup5\n        /* \"#utility.yul\":511:514   */\n      dup5\n        /* \"#utility.yul\":507:523   */\n      add\n        /* \"#utility.yul\":500:527   */\n      mstore\n        /* \"#utility.yul\":349:533   */\n      pop\n        /* \"#utility.yul\":287:533   */\n      pop\n      pop\n      pop\n      jump\t// out\n        /* \"#utility.yul\":539:641   */\n    tag_174:\n        /* \"#utility.yul\":580:586   */\n      0x00\n        /* \"#utility.yul\":631:633   */\n      0x1f\n        /* \"#utility.yul\":627:634   */\n      not\n        /* \"#utility.yul\":622:624   */\n      0x1f\n        /* \"#utility.yul\":615:620   */\n      dup4\n        /* \"#utility.yul\":611:625   */\n      add\n        /* \"#utility.yul\":607:635   */\n      and\n        /* \"#utility.yul\":597:635   */\n      swap1\n      pop\n        /* \"#utility.yul\":539:641   */\n      swap2\n      swap1\n      pop\n      jump\t// out\n        /* \"#utility.yul\":647:1024   */\n    tag_175:\n        /* \"#utility.yul\":735:738   */\n      0x00\n        /* \"#utility.yul\":763:802   */\n      tag_230\n        /* \"#utility.yul\":796:801   */\n      dup3\n        /* \"#utility.yul\":763:802   */\n      tag_171\n      jump\t// in\n    tag_230:\n        /* \"#utility.yul\":818:889   */\n      tag_231\n        /* \"#utility.yul\":882:888   */\n      dup2\n        /* \"#utility.yul\":877:880   */\n      dup6\n        /* \"#utility.yul\":818:889   */\n      tag_172\n      jump\t// in\n    tag_231:\n        /* \"#utility.yul\":811:889   */\n      swap4\n      pop\n        /* \"#utility.yul\":898:963   */\n      tag_232\n        /* \"#utility.yul\":956:962   */\n      dup2\n        /* \"#utility.yul\":951:954   */\n      dup6\n        /* \"#utility.yul\":944:948   */\n      0x20\n        /* \"#utility.yul\":937:942   */\n      dup7\n        /* \"#utility.yul\":933:949   */\n      add\n        /* \"#utility.yul\":898:963   */\n      tag_173\n      jump\t// in\n    tag_232:\n        /* \"#utility.yul\":988:1017   */\n      tag_233\n        /* \"#utility.yul\":1010:1016   */\n      dup2\n        /* \"#utility.yul\":988:1017   */\n      tag_174\n      jump\t// in\n    tag_233:\n        /* \"#utility.yul\":983:986   */\n      dup5\n        /* \"#utility.yul\":979:1018   */\n      add\n        /* \"#utility.yul\":972:1018   */\n      swap2\n      pop\n        /* \"#utility.yul\":739:1024   */\n      pop\n        /* \"#utility.yul\":647:1024   */\n      swap3\n      swap2\n      pop\n      pop\n      jump\t// out\n        /* \"#utility.yul\":1030:1343   */\n    tag_27:\n        /* \"#utility.yul\":1143:1147   */\n      0x00\n        /* \"#utility.yul\":1181:1183   */\n      0x20\n        /* \"#utility.yul\":1170:1179   */\n      dup3\n        /* \"#utility.yul\":1166:1184   */\n      add\n        /* \"#utility.yul\":1158:1184   */\n      swap1\n      pop\n        /* \"#utility.yul\":1230:1239   */\n      dup2\n        /* \"#utility.yul\":1224:1228   */\n      dup2\n        /* \"#utility.yul\":1220:1240   */\n      sub\n        /* \"#utility.yul\":1216:1217   */\n      0x00\n        /* \"#utility.yul\":1205:1214   */\n      dup4\n        /* \"#utility.yul\":1201:1218   */\n      add\n        /* \"#utility.yul\":1194:1241   */\n      mstore\n        /* \"#utility.yul\":1258:1336   */\n      tag_235\n        /* \"#utility.yul\":1331:1335   */\n      dup2\n        /* \"#utility.yul\":1322:1328   */\n      dup5\n        /* \"#utility.yul\":1258:1336   */\n      tag_175\n      jump\t// in\n    tag_235:\n        /* \"#utility.yul\":1250:1336   */\n      swap1\n      pop\n        /* \"#utility.yul\":1030:1343   */\n      swap3\n      swap2\n      pop\n      pop\n      jump\t// out\n        /* \"#utility.yul\":1430:1547   */\n    tag_177:\n        /* \"#utility.yul\":1539:1540   */\n      0x00\n        /* \"#utility.yul\":1536:1537   */\n      dup1\n        /* \"#utility.yul\":1529:1541   */\n      revert\n        /* \"#utility.yul\":1676:1802   */\n    tag_179:\n        /* \"#utility.yul\":1713:1720   */\n      0x00\n        /* \"#utility.yul\":1753:1795   */\n      0xffffffffffffffffffffffffffffffffffffffff\n        /* \"#utility.yul\":1746:1751   */\n      dup3\n        /* \"#utility.yul\":1742:1796   */\n      and\n        /* \"#utility.yul\":1731:1796   */\n      swap1\n      pop\n        /* \"#utility.yul\":1676:1802   */\n      swap2\n      swap1\n      pop\n      jump\t// out\n        /* \"#utility.yul\":1808:1904   */\n    tag_180:\n        /* \"#utility.yul\":1845:1852   */\n      0x00\n        /* \"#utility.yul\":1874:1898   */\n      tag_241\n        /* \"#utility.yul\":1892:1897   */\n      dup3\n        /* \"#utility.yul\":1874:1898   */\n      tag_179\n      jump\t// in\n    tag_241:\n        /* \"#utility.yul\":1863:1898   */\n      swap1\n      pop\n        /* \"#utility.yul\":1808:1904   */\n      swap2\n      swap1\n      pop\n      jump\t// out\n        /* \"#utility.yul\":1910:2032   */\n    tag_181:\n        /* \"#utility.yul\":1983:2007   */\n      tag_243\n        /* \"#utility.yul\":2001:2006   */\n      dup2\n        /* \"#utility.yul\":1983:2007   */\n      tag_180\n      jump\t// in\n    tag_243:\n        /* \"#utility.yul\":1976:1981   */\n      dup2\n        /* \"#utility.yul\":1973:2008   */\n      eq\n        /* \"#utility.yul\":1963:2026   */\n      tag_244\n      jumpi\n        /* \"#utility.yul\":2022:2023   */\n      0x00\n        /* \"#utility.yul\":2019:2020   */\n      dup1\n        /* \"#utility.yul\":2012:2024   */\n      revert\n        /* \"#utility.yul\":1963:2026   */\n    tag_244:\n        /* \"#utility.yul\":1910:2032   */\n      pop\n      jump\t// out\n        /* \"#utility.yul\":2038:2177   */\n    tag_182:\n        /* \"#utility.yul\":2084:2089   */\n      0x00\n        /* \"#utility.yul\":2122:2128   */\n      dup2\n        /* \"#utility.yul\":2109:2129   */\n      calldataload\n        /* \"#utility.yul\":2100:2129   */\n      swap1\n      pop\n        /* \"#utility.yul\":2138:2171   */\n      tag_246\n        /* \"#utility.yul\":2165:2170   */\n      dup2\n        /* \"#utility.yul\":2138:2171   */\n      tag_181\n      jump\t// in\n    tag_246:\n        /* \"#utility.yul\":2038:2177   */\n      swap3\n      swap2\n      pop\n      pop\n      jump\t// out\n        /* \"#utility.yul\":2183:2260   */\n    tag_183:\n        /* \"#utility.yul\":2220:2227   */\n      0x00\n        /* \"#utility.yul\":2249:2254   */\n      dup2\n        /* \"#utility.yul\":2238:2254   */\n      swap1\n      pop\n        /* \"#utility.yul\":2183:2260   */\n      swap2\n      swap1\n      pop\n      jump\t// out\n        /* \"#utility.yul\":2266:2388   */\n    tag_184:\n        /* \"#utility.yul\":2339:2363   */\n      tag_249\n        /* \"#utility.yul\":2357:2362   */\n      dup2\n        /* \"#utility.yul\":2339:2363   */\n      tag_183\n      jump\t// in\n    tag_249:\n        /* \"#utility.yul\":2332:2337   */\n      dup2\n        /* \"#utility.yul\":2329:2364   */\n      eq\n        /* \"#utility.yul\":2319:2382   */\n      tag_250\n      jumpi\n        /* \"#utility.yul\":2378:2379   */\n      0x00\n        /* \"#utility.yul\":2375:2376   */\n      dup1\n        /* \"#utility.yul\":2368:2380   */\n      revert\n        /* \"#utility.yul\":2319:2382   */\n    tag_250:\n        /* \"#utility.yul\":2266:2388   */\n      pop\n      jump\t// out\n        /* \"#utility.yul\":2394:2533   */\n    tag_185:\n        /* \"#utility.yul\":2440:2445   */\n      0x00\n        /* \"#utility.yul\":2478:2484   */\n      dup2\n        /* \"#utility.yul\":2465:2485   */\n      calldataload\n        /* \"#utility.yul\":2456:2485   */\n      swap1\n      pop\n        /* \"#utility.yul\":2494:2527   */\n      tag_252\n        /* \"#utility.yul\":2521:2526   */\n      dup2\n        /* \"#utility.yul\":2494:2527   */\n      tag_184\n      jump\t// in\n    tag_252:\n        /* \"#utility.yul\":2394:2533   */\n      swap3\n      swap2\n      pop\n      pop\n      jump\t// out\n        /* \"#utility.yul\":2539:3013   */\n    tag_30:\n        /* \"#utility.yul\":2607:2613   */\n      0x00\n        /* \"#utility.yul\":2615:2621   */\n      dup1\n        /* \"#utility.yul\":2664:2666   */\n      0x40\n        /* \"#utility.yul\":2652:2661   */\n      dup4\n        /* \"#utility.yul\":2643:2650   */\n      dup6\n        /* \"#utility.yul\":2639:2662   */\n      sub\n        /* \"#utility.yul\":2635:2667   */\n      slt\n        /* \"#utility.yul\":2632:2751   */\n      iszero\n      tag_254\n      jumpi\n        /* \"#utility.yul\":2670:2749   */\n      tag_255\n      tag_177\n      jump\t// in\n    tag_255:\n        /* \"#utility.yul\":2632:2751   */\n    tag_254:\n        /* \"#utility.yul\":2790:2791   */\n      0x00\n        /* \"#utility.yul\":2815:2868   */\n      tag_256\n        /* \"#utility.yul\":2860:2867   */\n      dup6\n        /* \"#utility.yul\":2851:2857   */\n      dup3\n        /* \"#utility.yul\":2840:2849   */\n      dup7\n        /* \"#utility.yul\":2836:2858   */\n      add\n        /* \"#utility.yul\":2815:2868   */\n      tag_182\n      jump\t// in\n    tag_256:\n        /* \"#utility.yul\":2805:2868   */\n      swap3\n      pop\n        /* \"#utility.yul\":2761:2878   */\n      pop\n        /* \"#utility.yul\":2917:2919   */\n      0x20\n        /* \"#utility.yul\":2943:2996   */\n      tag_257\n        /* \"#utility.yul\":2988:2995   */\n      dup6\n        /* \"#utility.yul\":2979:2985   */\n      dup3\n        /* \"#utility.yul\":2968:2977   */\n      dup7\n        /* \"#utility.yul\":2964:2986   */\n      add\n        /* \"#utility.yul\":2943:2996   */\n      tag_185\n      jump\t// in\n    tag_257:\n        /* \"#utility.yul\":2933:2996   */\n      swap2\n      pop\n        /* \"#utility.yul\":2888:3006   */\n      pop\n        /* \"#utility.yul\":2539:3013   */\n      swap3\n      pop\n      swap3\n      swap1\n      pop\n      jump\t// out\n        /* \"#utility.yul\":3019:3109   */\n    tag_186:\n        /* \"#utility.yul\":3053:3060   */\n      0x00\n        /* \"#utility.yul\":3096:3101   */\n      dup2\n        /* \"#utility.yul\":3089:3102   */\n      iszero\n        /* \"#utility.yul\":3082:3103   */\n      iszero\n        /* \"#utility.yul\":3071:3103   */\n      swap1\n      pop\n        /* \"#utility.yul\":3019:3109   */\n      swap2\n      swap1\n      pop\n      jump\t// out\n        /* \"#utility.yul\":3115:3224   */\n    tag_187:\n        /* \"#utility.yul\":3196:3217   */\n      tag_260\n        /* \"#utility.yul\":3211:3216   */\n      dup2\n        /* \"#utility.yul\":3196:3217   */\n      tag_186\n      jump\t// in\n    tag_260:\n        /* \"#utility.yul\":3191:3194   */\n      dup3\n        /* \"#utility.yul\":3184:3218   */\n      mstore\n        /* \"#utility.yul\":3115:3224   */\n      pop\n      pop\n      jump\t// out\n        /* \"#utility.yul\":3230:3440   */\n    tag_33:\n        /* \"#utility.yul\":3317:3321   */\n      0x00\n        /* \"#utility.yul\":3355:3357   */\n      0x20\n        /* \"#utility.yul\":3344:3353   */\n      dup3\n        /* \"#utility.yul\":3340:3358   */\n      add\n        /* \"#utility.yul\":3332:3358   */\n      swap1\n      pop\n        /* \"#utility.yul\":3368:3433   */\n      tag_262\n        /* \"#utility.yul\":3430:3431   */\n      0x00\n        /* \"#utility.yul\":3419:3428   */\n      dup4\n        /* \"#utility.yul\":3415:3432   */\n      add\n        /* \"#utility.yul\":3406:3412   */\n      dup5\n        /* \"#utility.yul\":3368:3433   */\n      tag_187\n      jump\t// in\n    tag_262:\n        /* \"#utility.yul\":3230:3440   */\n      swap3\n      swap2\n      pop\n      pop\n      jump\t// out\n        /* \"#utility.yul\":3446:3775   */\n    tag_36:\n        /* \"#utility.yul\":3505:3511   */\n      0x00\n        /* \"#utility.yul\":3554:3556   */\n      0x20\n        /* \"#utility.yul\":3542:3551   */\n      dup3\n        /* \"#utility.yul\":3533:3540   */\n      dup5\n        /* \"#utility.yul\":3529:3552   */\n      sub\n        /* \"#utility.yul\":3525:3557   */\n      slt\n        /* \"#utility.yul\":3522:3641   */\n      iszero\n      tag_264\n      jumpi\n        /* \"#utility.yul\":3560:3639   */\n      tag_265\n      tag_177\n      jump\t// in\n    tag_265:\n        /* \"#utility.yul\":3522:3641   */\n    tag_264:\n        /* \"#utility.yul\":3680:3681   */\n      0x00\n        /* \"#utility.yul\":3705:3758   */\n      tag_266\n        /* \"#utility.yul\":3750:3757   */\n      dup5\n        /* \"#utility.yul\":3741:3747   */\n      dup3\n        /* \"#utility.yul\":3730:3739   */\n      dup6\n        /* \"#utility.yul\":3726:3748   */\n      add\n        /* \"#utility.yul\":3705:3758   */\n      tag_182\n      jump\t// in\n    tag_266:\n        /* \"#utility.yul\":3695:3758   */\n      swap2\n      pop\n        /* \"#utility.yul\":3651:3768   */\n      pop\n        /* \"#utility.yul\":3446:3775   */\n      swap3\n      swap2\n      pop\n      pop\n      jump\t// out\n        /* \"#utility.yul\":3781:3899   */\n    tag_188:\n        /* \"#utility.yul\":3868:3892   */\n      tag_268\n        /* \"#utility.yul\":3886:3891   */\n      dup2\n        /* \"#utility.yul\":3868:3892   */\n      tag_183\n      jump\t// in\n    tag_268:\n        /* \"#utility.yul\":3863:3866   */\n      dup3\n        /* \"#utility.yul\":3856:3893   */\n      mstore\n        /* \"#utility.yul\":3781:3899   */\n      pop\n      pop\n      jump\t// out\n        /* \"#utility.yul\":3905:4237   */\n    tag_39:\n        /* \"#utility.yul\":4026:4030   */\n      0x00\n        /* \"#utility.yul\":4064:4066   */\n      0x40\n        /* \"#utility.yul\":4053:4062   */\n      dup3\n        /* \"#utility.yul\":4049:4067   */\n      add\n        /* \"#utility.yul\":4041:4067   */\n      swap1\n      pop\n        /* \"#utility.yul\":4077:4148   */\n      tag_270\n        /* \"#utility.yul\":4145:4146   */\n      0x00\n        /* \"#utility.yul\":4134:4143   */\n      dup4\n        /* \"#utility.yul\":4130:4147   */\n      add\n        /* \"#utility.yul\":4121:4127   */\n      dup6\n        /* \"#utility.yul\":4077:4148   */\n      tag_188\n      jump\t// in\n    tag_270:\n        /* \"#utility.yul\":4158:4230   */\n      tag_271\n        /* \"#utility.yul\":4226:4228   */\n      0x20\n        /* \"#utility.yul\":4215:4224   */\n      dup4\n        /* \"#utility.yul\":4211:4229   */\n      add\n        /* \"#utility.yul\":4202:4208   */\n      dup5\n        /* \"#utility.yul\":4158:4230   */\n      tag_188\n      jump\t// in\n    tag_271:\n        /* \"#utility.yul\":3905:4237   */\n      swap4\n      swap3\n      pop\n      pop\n      pop\n      jump\t// out\n        /* \"#utility.yul\":4243:4465   */\n    tag_43:\n        /* \"#utility.yul\":4336:4340   */\n      0x00\n        /* \"#utility.yul\":4374:4376   */\n      0x20\n        /* \"#utility.yul\":4363:4372   */\n      dup3\n        /* \"#utility.yul\":4359:4377   */\n      add\n        /* \"#utility.yul\":4351:4377   */\n      swap1\n      pop\n        /* \"#utility.yul\":4387:4458   */\n      tag_273\n        /* \"#utility.yul\":4455:4456   */\n      0x00\n        /* \"#utility.yul\":4444:4453   */\n      dup4\n        /* \"#utility.yul\":4440:4457   */\n      add\n        /* \"#utility.yul\":4431:4437   */\n      dup5\n        /* \"#utility.yul\":4387:4458   */\n      tag_188\n      jump\t// in\n    tag_273:\n        /* \"#utility.yul\":4243:4465   */\n      swap3\n      swap2\n      pop\n      pop\n      jump\t// out\n        /* \"#utility.yul\":4471:5090   */\n    tag_46:\n        /* \"#utility.yul\":4548:4554   */\n      0x00\n        /* \"#utility.yul\":4556:4562   */\n      dup1\n        /* \"#utility.yul\":4564:4570   */\n      0x00\n        /* \"#utility.yul\":4613:4615   */\n      0x60\n        /* \"#utility.yul\":4601:4610   */\n      dup5\n        /* \"#utility.yul\":4592:4599   */\n      dup7\n        /* \"#utility.yul\":4588:4611   */\n      sub\n        /* \"#utility.yul\":4584:4616   */\n      slt\n        /* \"#utility.yul\":4581:4700   */\n      iszero\n      tag_275\n      jumpi\n        /* \"#utility.yul\":4619:4698   */\n      tag_276\n      tag_177\n      jump\t// in\n    tag_276:\n        /* \"#utility.yul\":4581:4700   */\n    tag_275:\n        /* \"#utility.yul\":4739:4740   */\n      0x00\n        /* \"#utility.yul\":4764:4817   */\n      tag_277\n        /* \"#utility.yul\":4809:4816   */\n      dup7\n        /* \"#utility.yul\":4800:4806   */\n      dup3\n        /* \"#utility.yul\":4789:4798   */\n      dup8\n        /* \"#utility.yul\":4785:4807   */\n      add\n        /* \"#utility.yul\":4764:4817   */\n      tag_182\n      jump\t// in\n    tag_277:\n        /* \"#utility.yul\":4754:4817   */\n      swap4\n      pop\n        /* \"#utility.yul\":4710:4827   */\n      pop\n        /* \"#utility.yul\":4866:4868   */\n      0x20\n        /* \"#utility.yul\":4892:4945   */\n      tag_278\n        /* \"#utility.yul\":4937:4944   */\n      dup7\n        /* \"#utility.yul\":4928:4934   */\n      dup3\n        /* \"#utility.yul\":4917:4926   */\n      dup8\n        /* \"#utility.yul\":4913:4935   */\n      add\n        /* \"#utility.yul\":4892:4945   */\n      tag_182\n      jump\t// in\n    tag_278:\n        /* \"#utility.yul\":4882:4945   */\n      swap3\n      pop\n        /* \"#utility.yul\":4837:4955   */\n      pop\n        /* \"#utility.yul\":4994:4996   */\n      0x40\n        /* \"#utility.yul\":5020:5073   */\n      tag_279\n        /* \"#utility.yul\":5065:5072   */\n      dup7\n        /* \"#utility.yul\":5056:5062   */\n      dup3\n        /* \"#utility.yul\":5045:5054   */\n      dup8\n        /* \"#utility.yul\":5041:5063   */\n      add\n        /* \"#utility.yul\":5020:5073   */\n      tag_185\n      jump\t// in\n    tag_279:\n        /* \"#utility.yul\":5010:5073   */\n      swap2\n      pop\n        /* \"#utility.yul\":4965:5083   */\n      pop\n        /* \"#utility.yul\":4471:5090   */\n      swap3\n      pop\n      swap3\n      pop\n      swap3\n      jump\t// out\n        /* \"#utility.yul\":5096:5182   */\n    tag_189:\n        /* \"#utility.yul\":5131:5138   */\n      0x00\n        /* \"#utility.yul\":5171:5175   */\n      0xff\n        /* \"#utility.yul\":5164:5169   */\n      dup3\n        /* \"#utility.yul\":5160:5176   */\n      and\n        /* \"#utility.yul\":5149:5176   */\n      swap1\n      pop\n        /* \"#utility.yul\":5096:5182   */\n      swap2\n      swap1\n      pop\n      jump\t// out\n        /* \"#utility.yul\":5188:5300   */\n    tag_190:\n        /* \"#utility.yul\":5271:5293   */\n      tag_282\n        /* \"#utility.yul\":5287:5292   */\n      dup2\n        /* \"#utility.yul\":5271:5293   */\n      tag_189\n      jump\t// in\n    tag_282:\n        /* \"#utility.yul\":5266:5269   */\n      dup3\n        /* \"#utility.yul\":5259:5294   */\n      mstore\n        /* \"#utility.yul\":5188:5300   */\n      pop\n      pop\n      jump\t// out\n        /* \"#utility.yul\":5306:5520   */\n    tag_52:\n        /* \"#utility.yul\":5395:5399   */\n      0x00\n        /* \"#utility.yul\":5433:5435   */\n      0x20\n        /* \"#utility.yul\":5422:5431   */\n      dup3\n        /* \"#utility.yul\":5418:5436   */\n      add\n        /* \"#utility.yul\":5410:5436   */\n      swap1\n      pop\n        /* \"#utility.yul\":5446:5513   */\n      tag_284\n        /* \"#utility.yul\":5510:5511   */\n      0x00\n        /* \"#utility.yul\":5499:5508   */\n      dup4\n        /* \"#utility.yul\":5495:5512   */\n      add\n        /* \"#utility.yul\":5486:5492   */\n      dup5\n        /* \"#utility.yul\":5446:5513   */\n      tag_190\n      jump\t// in\n    tag_284:\n        /* \"#utility.yul\":5306:5520   */\n      swap3\n      swap2\n      pop\n      pop\n      jump\t// out\n        /* \"#utility.yul\":5526:5603   */\n    tag_191:\n        /* \"#utility.yul\":5563:5570   */\n      0x00\n        /* \"#utility.yul\":5592:5597   */\n      dup2\n        /* \"#utility.yul\":5581:5597   */\n      swap1\n      pop\n        /* \"#utility.yul\":5526:5603   */\n      swap2\n      swap1\n      pop\n      jump\t// out\n        /* \"#utility.yul\":5609:5727   */\n    tag_192:\n        /* \"#utility.yul\":5696:5720   */\n      tag_287\n        /* \"#utility.yul\":5714:5719   */\n      dup2\n        /* \"#utility.yul\":5696:5720   */\n      tag_191\n      jump\t// in\n    tag_287:\n        /* \"#utility.yul\":5691:5694   */\n      dup3\n        /* \"#utility.yul\":5684:5721   */\n      mstore\n        /* \"#utility.yul\":5609:5727   */\n      pop\n      pop\n      jump\t// out\n        /* \"#utility.yul\":5733:5955   */\n    tag_56:\n        /* \"#utility.yul\":5826:5830   */\n      0x00\n        /* \"#utility.yul\":5864:5866   */\n      0x20\n        /* \"#utility.yul\":5853:5862   */\n      dup3\n        /* \"#utility.yul\":5849:5867   */\n      add\n        /* \"#utility.yul\":5841:5867   */\n      swap1\n      pop\n        /* \"#utility.yul\":5877:5948   */\n      tag_289\n        /* \"#utility.yul\":5945:5946   */\n      0x00\n        /* \"#utility.yul\":5934:5943   */\n      dup4\n        /* \"#utility.yul\":5930:5947   */\n      add\n        /* \"#utility.yul\":5921:5927   */\n      dup5\n        /* \"#utility.yul\":5877:5948   */\n      tag_192\n      jump\t// in\n    tag_289:\n        /* \"#utility.yul\":5733:5955   */\n      swap3\n      swap2\n      pop\n      pop\n      jump\t// out\n        /* \"#utility.yul\":5961:6290   */\n    tag_59:\n        /* \"#utility.yul\":6020:6026   */\n      0x00\n        /* \"#utility.yul\":6069:6071   */\n      0x20\n        /* \"#utility.yul\":6057:6066   */\n      dup3\n        /* \"#utility.yul\":6048:6055   */\n      dup5\n        /* \"#utility.yul\":6044:6067   */\n      sub\n        /* \"#utility.yul\":6040:6072   */\n      slt\n        /* \"#utility.yul\":6037:6156   */\n      iszero\n      tag_291\n      jumpi\n        /* \"#utility.yul\":6075:6154   */\n      tag_292\n      tag_177\n      jump\t// in\n    tag_292:\n        /* \"#utility.yul\":6037:6156   */\n    tag_291:\n        /* \"#utility.yul\":6195:6196   */\n      0x00\n        /* \"#utility.yul\":6220:6273   */\n      tag_293\n        /* \"#utility.yul\":6265:6272   */\n      dup5\n        /* \"#utility.yul\":6256:6262   */\n      dup3\n        /* \"#utility.yul\":6245:6254   */\n      dup6\n        /* \"#utility.yul\":6241:6263   */\n      add\n        /* \"#utility.yul\":6220:6273   */\n      tag_185\n      jump\t// in\n    tag_293:\n        /* \"#utility.yul\":6210:6273   */\n      swap2\n      pop\n        /* \"#utility.yul\":6166:6283   */\n      pop\n        /* \"#utility.yul\":5961:6290   */\n      swap3\n      swap2\n      pop\n      pop\n      jump\t// out\n        /* \"#utility.yul\":6296:6414   */\n    tag_193:\n        /* \"#utility.yul\":6383:6407   */\n      tag_295\n        /* \"#utility.yul\":6401:6406   */\n      dup2\n        /* \"#utility.yul\":6383:6407   */\n      tag_180\n      jump\t// in\n    tag_295:\n        /* \"#utility.yul\":6378:6381   */\n      dup3\n        /* \"#utility.yul\":6371:6408   */\n      mstore\n        /* \"#utility.yul\":6296:6414   */\n      pop\n      pop\n      jump\t// out\n        /* \"#utility.yul\":6420:6642   */\n    tag_76:\n        /* \"#utility.yul\":6513:6517   */\n      0x00\n        /* \"#utility.yul\":6551:6553   */\n      0x20\n        /* \"#utility.yul\":6540:6549   */\n      dup3\n        /* \"#utility.yul\":6536:6554   */\n      add\n        /* \"#utility.yul\":6528:6554   */\n      swap1\n      pop\n        /* \"#utility.yul\":6564:6635   */\n      tag_297\n        /* \"#utility.yul\":6632:6633   */\n      0x00\n        /* \"#utility.yul\":6621:6630   */\n      dup4\n        /* \"#utility.yul\":6617:6634   */\n      add\n        /* \"#utility.yul\":6608:6614   */\n      dup5\n        /* \"#utility.yul\":6564:6635   */\n      tag_193\n      jump\t// in\n    tag_297:\n        /* \"#utility.yul\":6420:6642   */\n      swap3\n      swap2\n      pop\n      pop\n      jump\t// out\n        /* \"#utility.yul\":6648:6766   */\n    tag_194:\n        /* \"#utility.yul\":6719:6741   */\n      tag_299\n        /* \"#utility.yul\":6735:6740   */\n      dup2\n        /* \"#utility.yul\":6719:6741   */\n      tag_189\n      jump\t// in\n    tag_299:\n        /* \"#utility.yul\":6712:6717   */\n      dup2\n        /* \"#utility.yul\":6709:6742   */\n      eq\n        /* \"#utility.yul\":6699:6760   */\n      tag_300\n      jumpi\n        /* \"#utility.yul\":6756:6757   */\n      0x00\n        /* \"#utility.yul\":6753:6754   */\n      dup1\n        /* \"#utility.yul\":6746:6758   */\n      revert\n        /* \"#utility.yul\":6699:6760   */\n    tag_300:\n        /* \"#utility.yul\":6648:6766   */\n      pop\n      jump\t// out\n        /* \"#utility.yul\":6772:6907   */\n    tag_195:\n        /* \"#utility.yul\":6816:6821   */\n      0x00\n        /* \"#utility.yul\":6854:6860   */\n      dup2\n        /* \"#utility.yul\":6841:6861   */\n      calldataload\n        /* \"#utility.yul\":6832:6861   */\n      swap1\n      pop\n        /* \"#utility.yul\":6870:6901   */\n      tag_302\n        /* \"#utility.yul\":6895:6900   */\n      dup2\n        /* \"#utility.yul\":6870:6901   */\n      tag_194\n      jump\t// in\n    tag_302:\n        /* \"#utility.yul\":6772:6907   */\n      swap3\n      swap2\n      pop\n      pop\n      jump\t// out\n        /* \"#utility.yul\":6913:7035   */\n    tag_196:\n        /* \"#utility.yul\":6986:7010   */\n      tag_304\n        /* \"#utility.yul\":7004:7009   */\n      dup2\n        /* \"#utility.yul\":6986:7010   */\n      tag_191\n      jump\t// in\n    tag_304:\n        /* \"#utility.yul\":6979:6984   */\n      dup2\n        /* \"#utility.yul\":6976:7011   */\n      eq\n        /* \"#utility.yul\":6966:7029   */\n      tag_305\n      jumpi\n        /* \"#utility.yul\":7025:7026   */\n      0x00\n        /* \"#utility.yul\":7022:7023   */\n      dup1\n        /* \"#utility.yul\":7015:7027   */\n      revert\n        /* \"#utility.yul\":6966:7029   */\n    tag_305:\n        /* \"#utility.yul\":6913:7035   */\n      pop\n      jump\t// out\n        /* \"#utility.yul\":7041:7180   */\n    tag_197:\n        /* \"#utility.yul\":7087:7092   */\n      0x00\n        /* \"#utility.yul\":7125:7131   */\n      dup2\n        /* \"#utility.yul\":7112:7132   */\n      calldataload\n        /* \"#utility.yul\":7103:7132   */\n      swap1\n      pop\n        /* \"#utility.yul\":7141:7174   */\n      tag_307\n        /* \"#utility.yul\":7168:7173   */\n      dup2\n        /* \"#utility.yul\":7141:7174   */\n      tag_196\n      jump\t// in\n    tag_307:\n        /* \"#utility.yul\":7041:7180   */\n      swap3\n      swap2\n      pop\n      pop\n      jump\t// out\n        /* \"#utility.yul\":7186:8385   */\n    tag_94:\n        /* \"#utility.yul\":7297:7303   */\n      0x00\n        /* \"#utility.yul\":7305:7311   */\n      dup1\n        /* \"#utility.yul\":7313:7319   */\n      0x00\n        /* \"#utility.yul\":7321:7327   */\n      dup1\n        /* \"#utility.yul\":7329:7335   */\n      0x00\n        /* \"#utility.yul\":7337:7343   */\n      dup1\n        /* \"#utility.yul\":7345:7351   */\n      0x00\n        /* \"#utility.yul\":7394:7397   */\n      0xe0\n        /* \"#utility.yul\":7382:7391   */\n      dup9\n        /* \"#utility.yul\":7373:7380   */\n      dup11\n        /* \"#utility.yul\":7369:7392   */\n      sub\n        /* \"#utility.yul\":7365:7398   */\n      slt\n        /* \"#utility.yul\":7362:7482   */\n      iszero\n      tag_309\n      jumpi\n        /* \"#utility.yul\":7401:7480   */\n      tag_310\n      tag_177\n      jump\t// in\n    tag_310:\n        /* \"#utility.yul\":7362:7482   */\n    tag_309:\n        /* \"#utility.yul\":7521:7522   */\n      0x00\n        /* \"#utility.yul\":7546:7599   */\n      tag_311\n        /* \"#utility.yul\":7591:7598   */\n      dup11\n        /* \"#utility.yul\":7582:7588   */\n      dup3\n        /* \"#utility.yul\":7571:7580   */\n      dup12\n        /* \"#utility.yul\":7567:7589   */\n      add\n        /* \"#utility.yul\":7546:7599   */\n      tag_182\n      jump\t// in\n    tag_311:\n        /* \"#utility.yul\":7536:7599   */\n      swap8\n      pop\n        /* \"#utility.yul\":7492:7609   */\n      pop\n        /* \"#utility.yul\":7648:7650   */\n      0x20\n        /* \"#utility.yul\":7674:7727   */\n      tag_312\n        /* \"#utility.yul\":7719:7726   */\n      dup11\n        /* \"#utility.yul\":7710:7716   */\n      dup3\n        /* \"#utility.yul\":7699:7708   */\n      dup12\n        /* \"#utility.yul\":7695:7717   */\n      add\n        /* \"#utility.yul\":7674:7727   */\n      tag_182\n      jump\t// in\n    tag_312:\n        /* \"#utility.yul\":7664:7727   */\n      swap7\n      pop\n        /* \"#utility.yul\":7619:7737   */\n      pop\n        /* \"#utility.yul\":7776:7778   */\n      0x40\n        /* \"#utility.yul\":7802:7855   */\n      tag_313\n        /* \"#utility.yul\":7847:7854   */\n      dup11\n        /* \"#utility.yul\":7838:7844   */\n      dup3\n        /* \"#utility.yul\":7827:7836   */\n      dup12\n        /* \"#utility.yul\":7823:7845   */\n      add\n        /* \"#utility.yul\":7802:7855   */\n      tag_185\n      jump\t// in\n    tag_313:\n        /* \"#utility.yul\":7792:7855   */\n      swap6\n      pop\n        /* \"#utility.yul\":7747:7865   */\n      pop\n        /* \"#utility.yul\":7904:7906   */\n      0x60\n        /* \"#utility.yul\":7930:7983   */\n      tag_314\n        /* \"#utility.yul\":7975:7982   */\n      dup11\n        /* \"#utility.yul\":7966:7972   */\n      dup3\n        /* \"#utility.yul\":7955:7964   */\n      dup12\n        /* \"#utility.yul\":7951:7973   */\n      add\n        /* \"#utility.yul\":7930:7983   */\n      tag_185\n      jump\t// in\n    tag_314:\n        /* \"#utility.yul\":7920:7983   */\n      swap5\n      pop\n        /* \"#utility.yul\":7875:7993   */\n      pop\n        /* \"#utility.yul\":8032:8035   */\n      0x80\n        /* \"#utility.yul\":8059:8110   */\n      tag_315\n        /* \"#utility.yul\":8102:8109   */\n      dup11\n        /* \"#utility.yul\":8093:8099   */\n      dup3\n        /* \"#utility.yul\":8082:8091   */\n      dup12\n        /* \"#utility.yul\":8078:8100   */\n      add\n        /* \"#utility.yul\":8059:8110   */\n      tag_195\n      jump\t// in\n    tag_315:\n        /* \"#utility.yul\":8049:8110   */\n      swap4\n      pop\n        /* \"#utility.yul\":8003:8120   */\n      pop\n        /* \"#utility.yul\":8159:8162   */\n      0xa0\n        /* \"#utility.yul\":8186:8239   */\n      tag_316\n        /* \"#utility.yul\":8231:8238   */\n      dup11\n        /* \"#utility.yul\":8222:8228   */\n      dup3\n        /* \"#utility.yul\":8211:8220   */\n      dup12\n        /* \"#utility.yul\":8207:8229   */\n      add\n        /* \"#utility.yul\":8186:8239   */\n      tag_197\n      jump\t// in\n    tag_316:\n        /* \"#utility.yul\":8176:8239   */\n      swap3\n      pop\n        /* \"#utility.yul\":8130:8249   */\n      pop\n        /* \"#utility.yul\":8288:8291   */\n      0xc0\n        /* \"#utility.yul\":8315:8368   */\n      tag_317\n        /* \"#utility.yul\":8360:8367   */\n      dup11\n        /* \"#utility.yul\":8351:8357   */\n      dup3\n        /* \"#utility.yul\":8340:8349   */\n      dup12\n        /* \"#utility.yul\":8336:8358   */\n      add\n        /* \"#utility.yul\":8315:8368   */\n      tag_197\n      jump\t// in\n    tag_317:\n        /* \"#utility.yul\":8305:8368   */\n      swap2\n      pop\n        /* \"#utility.yul\":8259:8378   */\n      pop\n        /* \"#utility.yul\":7186:8385   */\n      swap3\n      swap6\n      swap9\n      swap2\n      swap5\n      swap8\n      pop\n      swap3\n      swap6\n      pop\n      jump\t// out\n        /* \"#utility.yul\":8391:8865   */\n    tag_98:\n        /* \"#utility.yul\":8459:8465   */\n      0x00\n        /* \"#utility.yul\":8467:8473   */\n      dup1\n        /* \"#utility.yul\":8516:8518   */\n      0x40\n        /* \"#utility.yul\":8504:8513   */\n      dup4\n        /* \"#utility.yul\":8495:8502   */\n      dup6\n        /* \"#utility.yul\":8491:8514   */\n      sub\n        /* \"#utility.yul\":8487:8519   */\n      slt\n        /* \"#utility.yul\":8484:8603   */\n      iszero\n      tag_319\n      jumpi\n        /* \"#utility.yul\":8522:8601   */\n      tag_320\n      tag_177\n      jump\t// in\n    tag_320:\n        /* \"#utility.yul\":8484:8603   */\n    tag_319:\n        /* \"#utility.yul\":8642:8643   */\n      0x00\n        /* \"#utility.yul\":8667:8720   */\n      tag_321\n        /* \"#utility.yul\":8712:8719   */\n      dup6\n        /* \"#utility.yul\":8703:8709   */\n      dup3\n        /* \"#utility.yul\":8692:8701   */\n      dup7\n        /* \"#utility.yul\":8688:8710   */\n      add\n        /* \"#utility.yul\":8667:8720   */\n      tag_182\n      jump\t// in\n    tag_321:\n        /* \"#utility.yul\":8657:8720   */\n      swap3\n      pop\n        /* \"#utility.yul\":8613:8730   */\n      pop\n        /* \"#utility.yul\":8769:8771   */\n      0x20\n        /* \"#utility.yul\":8795:8848   */\n      tag_322\n        /* \"#utility.yul\":8840:8847   */\n      dup6\n        /* \"#utility.yul\":8831:8837   */\n      dup3\n        /* \"#utility.yul\":8820:8829   */\n      dup7\n        /* \"#utility.yul\":8816:8838   */\n      add\n        /* \"#utility.yul\":8795:8848   */\n      tag_182\n      jump\t// in\n    tag_322:\n        /* \"#utility.yul\":8785:8848   */\n      swap2\n      pop\n        /* \"#utility.yul\":8740:8858   */\n      pop\n        /* \"#utility.yul\":8391:8865   */\n      swap3\n      pop\n      swap3\n      swap1\n      pop\n      jump\t// out\n        /* \"#utility.yul\":8871:9051   */\n    tag_198:\n        /* \"#utility.yul\":8919:8996   */\n      0x4e487b7100000000000000000000000000000000000000000000000000000000\n        /* \"#utility.yul\":8916:8917   */\n      0x00\n        /* \"#utility.yul\":8909:8997   */\n      mstore\n        /* \"#utility.yul\":9016:9020   */\n      0x22\n        /* \"#utility.yul\":9013:9014   */\n      0x04\n        /* \"#utility.yul\":9006:9021   */\n      mstore\n        /* \"#utility.yul\":9040:9044   */\n      0x24\n        /* \"#utility.yul\":9037:9038   */\n      0x00\n        /* \"#utility.yul\":9030:9045   */\n      revert\n        /* \"#utility.yul\":9057:9377   */\n    tag_102:\n        /* \"#utility.yul\":9101:9107   */\n      0x00\n        /* \"#utility.yul\":9138:9139   */\n      0x02\n        /* \"#utility.yul\":9132:9136   */\n      dup3\n        /* \"#utility.yul\":9128:9140   */\n      div\n        /* \"#utility.yul\":9118:9140   */\n      swap1\n      pop\n        /* \"#utility.yul\":9185:9186   */\n      0x01\n        /* \"#utility.yul\":9179:9183   */\n      dup3\n        /* \"#utility.yul\":9175:9187   */\n      and\n        /* \"#utility.yul\":9206:9224   */\n      dup1\n        /* \"#utility.yul\":9196:9277   */\n      tag_325\n      jumpi\n        /* \"#utility.yul\":9262:9266   */\n      0x7f\n        /* \"#utility.yul\":9254:9260   */\n      dup3\n        /* \"#utility.yul\":9250:9267   */\n      and\n        /* \"#utility.yul\":9240:9267   */\n      swap2\n      pop\n        /* \"#utility.yul\":9196:9277   */\n    tag_325:\n        /* \"#utility.yul\":9324:9326   */\n      0x20\n        /* \"#utility.yul\":9316:9322   */\n      dup3\n        /* \"#utility.yul\":9313:9327   */\n      lt\n        /* \"#utility.yul\":9293:9311   */\n      dup2\n        /* \"#utility.yul\":9290:9328   */\n      sub\n        /* \"#utility.yul\":9287:9371   */\n      tag_326\n      jumpi\n        /* \"#utility.yul\":9343:9361   */\n      tag_327\n      tag_198\n      jump\t// in\n    tag_327:\n        /* \"#utility.yul\":9287:9371   */\n    tag_326:\n        /* \"#utility.yul\":9108:9377   */\n      pop\n        /* \"#utility.yul\":9057:9377   */\n      swap2\n      swap1\n      pop\n      jump\t// out\n        /* \"#utility.yul\":9383:9555   */\n    tag_199:\n        /* \"#utility.yul\":9523:9547   */\n      0x696e73756666696369656e7420616c6c6f77616e636500000000000000000000\n        /* \"#utility.yul\":9519:9520   */\n      0x00\n        /* \"#utility.yul\":9511:9517   */\n      dup3\n        /* \"#utility.yul\":9507:9521   */\n      add\n        /* \"#utility.yul\":9500:9548   */\n      mstore\n        /* \"#utility.yul\":9383:9555   */\n      pop\n      jump\t// out\n        /* \"#utility.yul\":9561:9927   */\n    tag_200:\n        /* \"#utility.yul\":9703:9706   */\n      0x00\n        /* \"#utility.yul\":9724:9791   */\n      tag_330\n        /* \"#utility.yul\":9788:9790   */\n      0x16\n        /* \"#utility.yul\":9783:9786   */\n      dup4\n        /* \"#utility.yul\":9724:9791   */\n      tag_172\n      jump\t// in\n    tag_330:\n        /* \"#utility.yul\":9717:9791   */\n      swap2\n      pop\n        /* \"#utility.yul\":9800:9893   */\n      tag_331\n        /* \"#utility.yul\":9889:9892   */\n      dup3\n        /* \"#utility.yul\":9800:9893   */\n      tag_199\n      jump\t// in\n    tag_331:\n        /* \"#utility.yul\":9918:9920   */\n      0x20\n        /* \"#utility.yul\":9913:9916   */\n      dup3\n        /* \"#utility.yul\":9909:9921   */\n      add\n        /* \"#utility.yul\":9902:9921   */\n      swap1\n      pop\n        /* \"#utility.yul\":9561:9927   */\n      swap2\n      swap1\n      pop\n      jump\t// out\n        /* \"#utility.yul\":9933:10352   */\n    tag_112:\n        /* \"#utility.yul\":10099:10103   */\n      0x00\n        /* \"#utility.yul\":10137:10139   */\n      0x20\n        /* \"#utility.yul\":10126:10135   */\n      dup3\n        /* \"#utility.yul\":10122:10140   */\n      add\n        /* \"#utility.yul\":10114:10140   */\n      swap1\n      pop\n        /* \"#utility.yul\":10186:10195   */\n      dup2\n        /* \"#utility.yul\":10180:10184   */\n      dup2\n        /* \"#utility.yul\":10176:10196   */\n      sub\n        /* \"#utility.yul\":10172:10173   */\n      0x00\n        /* \"#utility.yul\":10161:10170   */\n      dup4\n        /* \"#utility.yul\":10157:10174   */\n      add\n        /* \"#utility.yul\":10150:10197   */\n      mstore\n        /* \"#utility.yul\":10214:10345   */\n      tag_333\n        /* \"#utility.yul\":10340:10344   */\n      dup2\n        /* \"#utility.yul\":10214:10345   */\n      tag_200\n      jump\t// in\n    tag_333:\n        /* \"#utility.yul\":10206:10345   */\n      swap1\n      pop\n        /* \"#utility.yul\":9933:10352   */\n      swap2\n      swap1\n      pop\n      jump\t// out\n        /* \"#utility.yul\":10358:10528   */\n    tag_201:\n        /* \"#utility.yul\":10498:10520   */\n      0x696e73756666696369656e742062616c616e6365000000000000000000000000\n        /* \"#utility.yul\":10494:10495   */\n      0x00\n        /* \"#utility.yul\":10486:10492   */\n      dup3\n        /* \"#utility.yul\":10482:10496   */\n      add\n        /* \"#utility.yul\":10475:10521   */\n      mstore\n        /* \"#utility.yul\":10358:10528   */\n      pop\n      jump\t// out\n        /* \"#utility.yul\":10534:10900   */\n    tag_202:\n        /* \"#utility.yul\":10676:10679   */\n      0x00\n        /* \"#utility.yul\":10697:10764   */\n      tag_336\n        /* \"#utility.yul\":10761:10763   */\n      0x14\n        /* \"#utility.yul\":10756:10759   */\n      dup4\n        /* \"#utility.yul\":10697:10764   */\n      tag_172\n      jump\t// in\n    tag_336:\n        /* \"#utility.yul\":10690:10764   */\n      swap2\n      pop\n        /* \"#utility.yul\":10773:10866   */\n      tag_337\n        /* \"#utility.yul\":10862:10865   */\n      dup3\n        /* \"#utility.yul\":10773:10866   */\n      tag_201\n      jump\t// in\n    tag_337:\n        /* \"#utility.yul\":10891:10893   */\n      0x20\n        /* \"#utility.yul\":10886:10889   */\n      dup3\n        /* \"#utility.yul\":10882:10894   */\n      add\n        /* \"#utility.yul\":10875:10894   */\n      swap1\n      pop\n        /* \"#utility.yul\":10534:10900   */\n      swap2\n      swap1\n      pop\n      jump\t// out\n        /* \"#utility.yul\":10906:11325   */\n    tag_115:\n        /* \"#utility.yul\":11072:11076   */\n      0x00\n        /* \"#utility.yul\":11110:11112   */\n      0x20\n        /* \"#utility.yul\":11099:11108   */\n      dup3\n        /* \"#utility.yul\":11095:11113   */\n      add\n        /* \"#utility.yul\":11087:11113   */\n      swap1\n      pop\n        /* \"#utility.yul\":11159:11168   */\n      dup2\n        /* \"#utility.yul\":11153:11157   */\n      dup2\n        /* \"#utility.yul\":11149:11169   */\n      sub\n        /* \"#utility.yul\":11145:11146   */\n      0x00\n        /* \"#utility.yul\":11134:11143   */\n      dup4\n        /* \"#utility.yul\":11130:11147   */\n      add\n        /* \"#utility.yul\":11123:11170   */\n      mstore\n        /* \"#utility.yul\":11187:11318   */\n      tag_339\n        /* \"#utility.yul\":11313:11317   */\n      dup2\n        /* \"#utility.yul\":11187:11318   */\n      tag_202\n      jump\t// in\n    tag_339:\n        /* \"#utility.yul\":11179:11318   */\n      swap1\n      pop\n        /* \"#utility.yul\":10906:11325   */\n      swap2\n      swap1\n      pop\n      jump\t// out\n        /* \"#utility.yul\":11331:11504   */\n    tag_203:\n        /* \"#utility.yul\":11471:11496   */\n      0x696e73756666696369656e74206275726e206c696d6974000000000000000000\n        /* \"#utility.yul\":11467:11468   */\n      0x00\n        /* \"#utility.yul\":11459:11465   */\n      dup3\n        /* \"#utility.yul\":11455:11469   */\n      add\n        /* \"#utility.yul\":11448:11497   */\n      mstore\n        /* \"#utility.yul\":11331:11504   */\n      pop\n      jump\t// out\n        /* \"#utility.yul\":11510:11876   */\n    tag_204:\n        /* \"#utility.yul\":11652:11655   */\n      0x00\n        /* \"#utility.yul\":11673:11740   */\n      tag_342\n        /* \"#utility.yul\":11737:11739   */\n      0x17\n        /* \"#utility.yul\":11732:11735   */\n      dup4\n        /* \"#utility.yul\":11673:11740   */\n      tag_172\n      jump\t// in\n    tag_342:\n        /* \"#utility.yul\":11666:11740   */\n      swap2\n      pop\n        /* \"#utility.yul\":11749:11842   */\n      tag_343\n        /* \"#utility.yul\":11838:11841   */\n      dup3\n        /* \"#utility.yul\":11749:11842   */\n      tag_203\n      jump\t// in\n    tag_343:\n        /* \"#utility.yul\":11867:11869   */\n      0x20\n        /* \"#utility.yul\":11862:11865   */\n      dup3\n        /* \"#utility.yul\":11858:11870   */\n      add\n        /* \"#utility.yul\":11851:11870   */\n      swap1\n      pop\n        /* \"#utility.yul\":11510:11876   */\n      swap2\n      swap1\n      pop\n      jump\t// out\n        /* \"#utility.yul\":11882:12301   */\n    tag_120:\n        /* \"#utility.yul\":12048:12052   */\n      0x00\n        /* \"#utility.yul\":12086:12088   */\n      0x20\n        /* \"#utility.yul\":12075:12084   */\n      dup3\n        /* \"#utility.yul\":12071:12089   */\n      add\n        /* \"#utility.yul\":12063:12089   */\n      swap1\n      pop\n        /* \"#utility.yul\":12135:12144   */\n      dup2\n        /* \"#utility.yul\":12129:12133   */\n      dup2\n        /* \"#utility.yul\":12125:12145   */\n      sub\n        /* \"#utility.yul\":12121:12122   */\n      0x00\n        /* \"#utility.yul\":12110:12119   */\n      dup4\n        /* \"#utility.yul\":12106:12123   */\n      add\n        /* \"#utility.yul\":12099:12146   */\n      mstore\n        /* \"#utility.yul\":12163:12294   */\n      tag_345\n        /* \"#utility.yul\":12289:12293   */\n      dup2\n        /* \"#utility.yul\":12163:12294   */\n      tag_204\n      jump\t// in\n    tag_345:\n        /* \"#utility.yul\":12155:12294   */\n      swap1\n      pop\n        /* \"#utility.yul\":11882:12301   */\n      swap2\n      swap1\n      pop\n      jump\t// out\n        /* \"#utility.yul\":12307:12467   */\n    tag_205:\n        /* \"#utility.yul\":12447:12459   */\n      0x6f6e6c79206f776e657200000000000000000000000000000000000000000000\n        /* \"#utility.yul\":12443:12444   */\n      0x00\n        /* \"#utility.yul\":12435:12441   */\n      dup3\n        /* \"#utility.yul\":12431:12445   */\n      add\n        /* \"#utility.yul\":12424:12460   */\n      mstore\n        /* \"#utility.yul\":12307:12467   */\n      pop\n      jump\t// out\n        /* \"#utility.yul\":12473:12839   */\n    tag_206:\n        /* \"#utility.yul\":12615:12618   */\n      0x00\n        /* \"#utility.yul\":12636:12703   */\n      tag_348\n        /* \"#utility.yul\":12700:12702   */\n      0x0a\n        /* \"#utility.yul\":12695:12698   */\n      dup4\n        /* \"#utility.yul\":12636:12703   */\n      tag_172\n      jump\t// in\n    tag_348:\n        /* \"#utility.yul\":12629:12703   */\n      swap2\n      pop\n        /* \"#utility.yul\":12712:12805   */\n      tag_349\n        /* \"#utility.yul\":12801:12804   */\n      dup3\n        /* \"#utility.yul\":12712:12805   */\n      tag_205\n      jump\t// in\n    tag_349:\n        /* \"#utility.yul\":12830:12832   */\n      0x20\n        /* \"#utility.yul\":12825:12828   */\n      dup3\n        /* \"#utility.yul\":12821:12833   */\n      add\n        /* \"#utility.yul\":12814:12833   */\n      swap1\n      pop\n        /* \"#utility.yul\":12473:12839   */\n      swap2\n      swap1\n      pop\n      jump\t// out\n        /* \"#utility.yul\":12845:13264   */\n    tag_127:\n        /* \"#utility.yul\":13011:13015   */\n      0x00\n        /* \"#utility.yul\":13049:13051   */\n      0x20\n        /* \"#utility.yul\":13038:13047   */\n      dup3\n        /* \"#utility.yul\":13034:13052   */\n      add\n        /* \"#utility.yul\":13026:13052   */\n      swap1\n      pop\n        /* \"#utility.yul\":13098:13107   */\n      dup2\n        /* \"#utility.yul\":13092:13096   */\n      dup2\n        /* \"#utility.yul\":13088:13108   */\n      sub\n        /* \"#utility.yul\":13084:13085   */\n      0x00\n        /* \"#utility.yul\":13073:13082   */\n      dup4\n        /* \"#utility.yul\":13069:13086   */\n      add\n        /* \"#utility.yul\":13062:13109   */\n      mstore\n        /* \"#utility.yul\":13126:13257   */\n      tag_351\n        /* \"#utility.yul\":13252:13256   */\n      dup2\n        /* \"#utility.yul\":13126:13257   */\n      tag_206\n      jump\t// in\n    tag_351:\n        /* \"#utility.yul\":13118:13257   */\n      swap1\n      pop\n        /* \"#utility.yul\":12845:13264   */\n      swap2\n      swap1\n      pop\n      jump\t// out\n        /* \"#utility.yul\":13270:13450   */\n    tag_207:\n        /* \"#utility.yul\":13318:13395   */\n      0x4e487b7100000000000000000000000000000000000000000000000000000000\n        /* \"#utility.yul\":13315:13316   */\n      0x00\n        /* \"#utility.yul\":13308:13396   */\n      mstore\n        /* \"#utility.yul\":13415:13419   */\n      0x11\n        /* \"#utility.yul\":13412:13413   */\n      0x04\n        /* \"#utility.yul\":13405:13420   */\n      mstore\n        /* \"#utility.yul\":13439:13443   */\n      0x24\n        /* \"#utility.yul\":13436:13437   */\n      0x00\n        /* \"#utility.yul\":13429:13444   */\n      revert\n        /* \"#utility.yul\":13456:13647   */\n    tag_136:\n        /* \"#utility.yul\":13496:13499   */\n      0x00\n        /* \"#utility.yul\":13515:13535   */\n      tag_354\n        /* \"#utility.yul\":13533:13534   */\n      dup3\n        /* \"#utility.yul\":13515:13535   */\n      tag_183\n      jump\t// in\n    tag_354:\n        /* \"#utility.yul\":13510:13535   */\n      swap2\n      pop\n        /* \"#utility.yul\":13549:13569   */\n      tag_355\n        /* \"#utility.yul\":13567:13568   */\n      dup4\n        /* \"#utility.yul\":13549:13569   */\n      tag_183\n      jump\t// in\n    tag_355:\n        /* \"#utility.yul\":13544:13569   */\n      swap3\n      pop\n        /* \"#utility.yul\":13592:13593   */\n      dup3\n        /* \"#utility.yul\":13589:13590   */\n      dup3\n        /* \"#utility.yul\":13585:13594   */\n      add\n        /* \"#utility.yul\":13578:13594   */\n      swap1\n      pop\n        /* \"#utility.yul\":13613:13616   */\n      dup1\n        /* \"#utility.yul\":13610:13611   */\n      dup3\n        /* \"#utility.yul\":13607:13617   */\n      gt\n        /* \"#utility.yul\":13604:13640   */\n      iszero\n      tag_356\n      jumpi\n        /* \"#utility.yul\":13620:13638   */\n      tag_357\n      tag_207\n      jump\t// in\n    tag_357:\n        /* \"#utility.yul\":13604:13640   */\n    tag_356:\n        /* \"#utility.yul\":13456:13647   */\n      swap3\n      swap2\n      pop\n      pop\n      jump\t// out\n        /* \"#utility.yul\":13653:13826   */\n    tag_208:\n        /* \"#utility.yul\":13793:13818   */\n      0x696e73756666696369656e74206d696e74206c696d6974000000000000000000\n        /* \"#utility.yul\":13789:13790   */\n      0x00\n        /* \"#utility.yul\":13781:13787   */\n      dup3\n        /* \"#utility.yul\":13777:13791   */\n      add\n        /* \"#utility.yul\":13770:13819   */\n      mstore\n        /* \"#utility.yul\":13653:13826   */\n      pop\n      jump\t// out\n        /* \"#utility.yul\":13832:14198   */\n    tag_209:\n        /* \"#utility.yul\":13974:13977   */\n      0x00\n        /* \"#utility.yul\":13995:14062   */\n      tag_360\n        /* \"#utility.yul\":14059:14061   */\n      0x17\n        /* \"#utility.yul\":14054:14057   */\n      dup4\n        /* \"#utility.yul\":13995:14062   */\n      tag_172\n      jump\t// in\n    tag_360:\n        /* \"#utility.yul\":13988:14062   */\n      swap2\n      pop\n        /* \"#utility.yul\":14071:14164   */\n      tag_361\n        /* \"#utility.yul\":14160:14163   */\n      dup3\n        /* \"#utility.yul\":14071:14164   */\n      tag_208\n      jump\t// in\n    tag_361:\n        /* \"#utility.yul\":14189:14191   */\n      0x20\n        /* \"#utility.yul\":14184:14187   */\n      dup3\n        /* \"#utility.yul\":14180:14192   */\n      add\n        /* \"#utility.yul\":14173:14192   */\n      swap1\n      pop\n        /* \"#utility.yul\":13832:14198   */\n      swap2\n      swap1\n      pop\n      jump\t// out\n        /* \"#utility.yul\":14204:14623   */\n    tag_139:\n        /* \"#utility.yul\":14370:14374   */\n      0x00\n        /* \"#utility.yul\":14408:14410   */\n      0x20\n        /* \"#utility.yul\":14397:14406   */\n      dup3\n        /* \"#utility.yul\":14393:14411   */\n      add\n        /* \"#utility.yul\":14385:14411   */\n      swap1\n      pop\n        /* \"#utility.yul\":14457:14466   */\n      dup2\n        /* \"#utility.yul\":14451:14455   */\n      dup2\n        /* \"#utility.yul\":14447:14467   */\n      sub\n        /* \"#utility.yul\":14443:14444   */\n      0x00\n        /* \"#utility.yul\":14432:14441   */\n      dup4\n        /* \"#utility.yul\":14428:14445   */\n      add\n        /* \"#utility.yul\":14421:14468   */\n      mstore\n        /* \"#utility.yul\":14485:14616   */\n      tag_363\n        /* \"#utility.yul\":14611:14615   */\n      dup2\n        /* \"#utility.yul\":14485:14616   */\n      tag_209\n      jump\t// in\n    tag_363:\n        /* \"#utility.yul\":14477:14616   */\n      swap1\n      pop\n        /* \"#utility.yul\":14204:14623   */\n      swap2\n      swap1\n      pop\n      jump\t// out\n        /* \"#utility.yul\":14629:14800   */\n    tag_210:\n        /* \"#utility.yul\":14769:14792   */\n      0x746f74616c20737570706c79206f766572666c6f770000000000000000000000\n        /* \"#utility.yul\":14765:14766   */\n      0x00\n        /* \"#utility.yul\":14757:14763   */\n      dup3\n        /* \"#utility.yul\":14753:14767   */\n      add\n        /* \"#utility.yul\":14746:14793   */\n      mstore\n        /* \"#utility.yul\":14629:14800   */\n      pop\n      jump\t// out\n        /* \"#utility.yul\":14806:15172   */\n    tag_211:\n        /* \"#utility.yul\":14948:14951   */\n      0x00\n        /* \"#utility.yul\":14969:15036   */\n      tag_366\n        /* \"#utility.yul\":15033:15035   */\n      0x15\n        /* \"#utility.yul\":15028:15031   */\n      dup4\n        /* \"#utility.yul\":14969:15036   */\n      tag_172\n      jump\t// in\n    tag_366:\n        /* \"#utility.yul\":14962:15036   */\n      swap2\n      pop\n        /* \"#utility.yul\":15045:15138   */\n      tag_367\n        /* \"#utility.yul\":15134:15137   */\n      dup3\n        /* \"#utility.yul\":15045:15138   */\n      tag_210\n      jump\t// in\n    tag_367:\n        /* \"#utility.yul\":15163:15165   */\n      0x20\n        /* \"#utility.yul\":15158:15161   */\n      dup3\n        /* \"#utility.yul\":15154:15166   */\n      add\n        /* \"#utility.yul\":15147:15166   */\n      swap1\n      pop\n        /* \"#utility.yul\":14806:15172   */\n      swap2\n      swap1\n      pop\n      jump\t// out\n        /* \"#utility.yul\":15178:15597   */\n    tag_143:\n        /* \"#utility.yul\":15344:15348   */\n      0x00\n        /* \"#utility.yul\":15382:15384   */\n      0x20\n        /* \"#utility.yul\":15371:15380   */\n      dup3\n        /* \"#utility.yul\":15367:15385   */\n      add\n        /* \"#utility.yul\":15359:15385   */\n      swap1\n      pop\n        /* \"#utility.yul\":15431:15440   */\n      dup2\n        /* \"#utility.yul\":15425:15429   */\n      dup2\n        /* \"#utility.yul\":15421:15441   */\n      sub\n        /* \"#utility.yul\":15417:15418   */\n      0x00\n        /* \"#utility.yul\":15406:15415   */\n      dup4\n        /* \"#utility.yul\":15402:15419   */\n      add\n        /* \"#utility.yul\":15395:15442   */\n      mstore\n        /* \"#utility.yul\":15459:15590   */\n      tag_369\n        /* \"#utility.yul\":15585:15589   */\n      dup2\n        /* \"#utility.yul\":15459:15590   */\n      tag_211\n      jump\t// in\n    tag_369:\n        /* \"#utility.yul\":15451:15590   */\n      swap1\n      pop\n        /* \"#utility.yul\":15178:15597   */\n      swap2\n      swap1\n      pop\n      jump\t// out\n        /* \"#utility.yul\":15603:15767   */\n    tag_212:\n        /* \"#utility.yul\":15743:15759   */\n      0x7065726d69742065787069726564000000000000000000000000000000000000\n        /* \"#utility.yul\":15739:15740   */\n      0x00\n        /* \"#utility.yul\":15731:15737   */\n      dup3\n        /* \"#utility.yul\":15727:15741   */\n      add\n        /* \"#utility.yul\":15720:15760   */\n      mstore\n        /* \"#utility.yul\":15603:15767   */\n      pop\n      jump\t// out\n        /* \"#utility.yul\":15773:16139   */\n    tag_213:\n        /* \"#utility.yul\":15915:15918   */\n      0x00\n        /* \"#utility.yul\":15936:16003   */\n      tag_372\n        /* \"#utility.yul\":16000:16002   */\n      0x0e\n        /* \"#utility.yul\":15995:15998   */\n      dup4\n        /* \"#utility.yul\":15936:16003   */\n      tag_172\n      jump\t// in\n    tag_372:\n        /* \"#utility.yul\":15929:16003   */\n      swap2\n      pop\n        /* \"#utility.yul\":16012:16105   */\n      tag_373\n        /* \"#utility.yul\":16101:16104   */\n      dup3\n        /* \"#utility.yul\":16012:16105   */\n      tag_212\n      jump\t// in\n    tag_373:\n        /* \"#utility.yul\":16130:16132   */\n      0x20\n        /* \"#utility.yul\":16125:16128   */\n      dup3\n        /* \"#utility.yul\":16121:16133   */\n      add\n        /* \"#utility.yul\":16114:16133   */\n      swap1\n      pop\n        /* \"#utility.yul\":15773:16139   */\n      swap2\n      swap1\n      pop\n      jump\t// out\n        /* \"#utility.yul\":16145:16564   */\n    tag_157:\n        /* \"#utility.yul\":16311:16315   */\n      0x00\n        /* \"#utility.yul\":16349:16351   */\n      0x20\n        /* \"#utility.yul\":16338:16347   */\n      dup3\n        /* \"#utility.yul\":16334:16352   */\n      add\n        /* \"#utility.yul\":16326:16352   */\n      swap1\n      pop\n        /* \"#utility.yul\":16398:16407   */\n      dup2\n        /* \"#utility.yul\":16392:16396   */\n      dup2\n        /* \"#utility.yul\":16388:16408   */\n      sub\n        /* \"#utility.yul\":16384:16385   */\n      0x00\n        /* \"#utility.yul\":16373:16382   */\n      dup4\n        /* \"#utility.yul\":16369:16386   */\n      add\n        /* \"#utility.yul\":16362:16409   */\n      mstore\n        /* \"#utility.yul\":16426:16557   */\n      tag_375\n        /* \"#utility.yul\":16552:16556   */\n      dup2\n        /* \"#utility.yul\":16426:16557   */\n      tag_213\n      jump\t// in\n    tag_375:\n        /* \"#utility.yul\":16418:16557   */\n      swap1\n      pop\n        /* \"#utility.yul\":16145:16564   */\n      swap2\n      swap1\n      pop\n      jump\t// out\n        /* \"#utility.yul\":16570:17345   */\n    tag_159:\n        /* \"#utility.yul\":16803:16807   */\n      0x00\n        /* \"#utility.yul\":16841:16844   */\n      0xc0\n        /* \"#utility.yul\":16830:16839   */\n      dup3\n        /* \"#utility.yul\":16826:16845   */\n      add\n        /* \"#utility.yul\":16818:16845   */\n      swap1\n      pop\n        /* \"#utility.yul\":16855:16926   */\n      tag_377\n        /* \"#utility.yul\":16923:16924   */\n      0x00\n        /* \"#utility.yul\":16912:16921   */\n      dup4\n        /* \"#utility.yul\":16908:16925   */\n      add\n        /* \"#utility.yul\":16899:16905   */\n      dup10\n        /* \"#utility.yul\":16855:16926   */\n      tag_192\n      jump\t// in\n    tag_377:\n        /* \"#utility.yul\":16936:17008   */\n      tag_378\n        /* \"#utility.yul\":17004:17006   */\n      0x20\n        /* \"#utility.yul\":16993:17002   */\n      dup4\n        /* \"#utility.yul\":16989:17007   */\n      add\n        /* \"#utility.yul\":16980:16986   */\n      dup9\n        /* \"#utility.yul\":16936:17008   */\n      tag_193\n      jump\t// in\n    tag_378:\n        /* \"#utility.yul\":17018:17090   */\n      tag_379\n        /* \"#utility.yul\":17086:17088   */\n      0x40\n        /* \"#utility.yul\":17075:17084   */\n      dup4\n        /* \"#utility.yul\":17071:17089   */\n      add\n        /* \"#utility.yul\":17062:17068   */\n      dup8\n        /* \"#utility.yul\":17018:17090   */\n      tag_193\n      jump\t// in\n    tag_379:\n        /* \"#utility.yul\":17100:17172   */\n      tag_380\n        /* \"#utility.yul\":17168:17170   */\n      0x60\n        /* \"#utility.yul\":17157:17166   */\n      dup4\n        /* \"#utility.yul\":17153:17171   */\n      add\n        /* \"#utility.yul\":17144:17150   */\n      dup7\n        /* \"#utility.yul\":17100:17172   */\n      tag_188\n      jump\t// in\n    tag_380:\n        /* \"#utility.yul\":17182:17255   */\n      tag_381\n        /* \"#utility.yul\":17250:17253   */\n      0x80\n        /* \"#utility.yul\":17239:17248   */\n      dup4\n        /* \"#utility.yul\":17235:17254   */\n      add\n        /* \"#utility.yul\":17226:17232   */\n      dup6\n        /* \"#utility.yul\":17182:17255   */\n      tag_188\n      jump\t// in\n    tag_381:\n        /* \"#utility.yul\":17265:17338   */\n      tag_382\n        /* \"#utility.yul\":17333:17336   */\n      0xa0\n        /* \"#utility.yul\":17322:17331   */\n      dup4\n        /* \"#utility.yul\":17318:17337   */\n      add\n        /* \"#utility.yul\":17309:17315   */\n      dup5\n        /* \"#utility.yul\":17265:17338   */\n      tag_188\n      jump\t// in\n    tag_382:\n        /* \"#utility.yul\":16570:17345   */\n      swap8\n      swap7\n      pop\n      pop\n      pop\n      pop\n      pop\n      pop\n      pop\n      jump\t// out\n        /* \"#utility.yul\":17351:17499   */\n    tag_214:\n        /* \"#utility.yul\":17453:17464   */\n      0x00\n        /* \"#utility.yul\":17490:17493   */\n      dup2\n        /* \"#utility.yul\":17475:17493   */\n      swap1\n      pop\n        /* \"#utility.yul\":17351:17499   */\n      swap3\n      swap2\n      pop\n      pop\n      jump\t// out\n        /* \"#utility.yul\":17505:17719   */\n    tag_215:\n        /* \"#utility.yul\":17645:17711   */\n      0x1901000000000000000000000000000000000000000000000000000000000000\n        /* \"#utility.yul\":17641:17642   */\n      0x00\n        /* \"#utility.yul\":17633:17639   */\n      dup3\n        /* \"#utility.yul\":17629:17643   */\n      add\n        /* \"#utility.yul\":17622:17712   */\n      mstore\n        /* \"#utility.yul\":17505:17719   */\n      pop\n      jump\t// out\n        /* \"#utility.yul\":17725:18125   */\n    tag_216:\n        /* \"#utility.yul\":17885:17888   */\n      0x00\n        /* \"#utility.yul\":17906:17990   */\n      tag_386\n        /* \"#utility.yul\":17988:17989   */\n      0x02\n        /* \"#utility.yul\":17983:17986   */\n      dup4\n        /* \"#utility.yul\":17906:17990   */\n      tag_214\n      jump\t// in\n    tag_386:\n        /* \"#utility.yul\":17899:17990   */\n      swap2\n      pop\n        /* \"#utility.yul\":17999:18092   */\n      tag_387\n        /* \"#utility.yul\":18088:18091   */\n      dup3\n        /* \"#utility.yul\":17999:18092   */\n      tag_215\n      jump\t// in\n    tag_387:\n        /* \"#utility.yul\":18117:18118   */\n      0x02\n        /* \"#utility.yul\":18112:18115   */\n      dup3\n        /* \"#utility.yul\":18108:18119   */\n      add\n        /* \"#utility.yul\":18101:18119   */\n      swap1\n      pop\n        /* \"#utility.yul\":17725:18125   */\n      swap2\n      swap1\n      pop\n      jump\t// out\n        /* \"#utility.yul\":18131:18210   */\n    tag_217:\n        /* \"#utility.yul\":18170:18177   */\n      0x00\n        /* \"#utility.yul\":18199:18204   */\n      dup2\n        /* \"#utility.yul\":18188:18204   */\n      swap1\n      pop\n        /* \"#utility.yul\":18131:18210   */\n      swap2\n      swap1\n      pop\n      jump\t// out\n        /* \"#utility.yul\":18216:18373   */\n    tag_218:\n        /* \"#utility.yul\":18321:18366   */\n      tag_390\n        /* \"#utility.yul\":18341:18365   */\n      tag_391\n        /* \"#utility.yul\":18359:18364   */\n      dup3\n        /* \"#utility.yul\":18341:18365   */\n      tag_191\n      jump\t// in\n    tag_391:\n        /* \"#utility.yul\":18321:18366   */\n      tag_217\n      jump\t// in\n    tag_390:\n        /* \"#utility.yul\":18316:18319   */\n      dup3\n        /* \"#utility.yul\":18309:18367   */\n      mstore\n        /* \"#utility.yul\":18216:18373   */\n      pop\n      pop\n      jump\t// out\n        /* \"#utility.yul\":18379:19042   */\n    tag_161:\n        /* \"#utility.yul\":18620:18623   */\n      0x00\n        /* \"#utility.yul\":18642:18790   */\n      tag_393\n        /* \"#utility.yul\":18786:18789   */\n      dup3\n        /* \"#utility.yul\":18642:18790   */\n      tag_216\n      jump\t// in\n    tag_393:\n        /* \"#utility.yul\":18635:18790   */\n      swap2\n      pop\n        /* \"#utility.yul\":18800:18875   */\n      tag_394\n        /* \"#utility.yul\":18871:18874   */\n      dup3\n        /* \"#utility.yul\":18862:18868   */\n      dup6\n        /* \"#utility.yul\":18800:18875   */\n      tag_218\n      jump\t// in\n    tag_394:\n        /* \"#utility.yul\":18900:18902   */\n      0x20\n        /* \"#utility.yul\":18895:18898   */\n      dup3\n        /* \"#utility.yul\":18891:18903   */\n      add\n        /* \"#utility.yul\":18884:18903   */\n      swap2\n      pop\n        /* \"#utility.yul\":18913:18988   */\n      tag_395\n        /* \"#utility.yul\":18984:18987   */\n      dup3\n        /* \"#utility.yul\":18975:18981   */\n      dup5\n        /* \"#utility.yul\":18913:18988   */\n      tag_218\n      jump\t// in\n    tag_395:\n        /* \"#utility.yul\":19013:19015   */\n      0x20\n        /* \"#utility.yul\":19008:19011   */\n      dup3\n        /* \"#utility.yul\":19004:19016   */\n      add\n        /* \"#utility.yul\":18997:19016   */\n      swap2\n      pop\n        /* \"#utility.yul\":19033:19036   */\n      dup2\n        /* \"#utility.yul\":19026:19036   */\n      swap1\n      pop\n        /* \"#utility.yul\":18379:19042   */\n      swap4\n      swap3\n      pop\n      pop\n      pop\n      jump\t// out\n        /* \"#utility.yul\":19048:19593   */\n    tag_163:\n        /* \"#utility.yul\":19221:19225   */\n      0x00\n        /* \"#utility.yul\":19259:19262   */\n      0x80\n        /* \"#utility.yul\":19248:19257   */\n      dup3\n        /* \"#utility.yul\":19244:19263   */\n      add\n        /* \"#utility.yul\":19236:19263   */\n      swap1\n      pop\n        /* \"#utility.yul\":19273:19344   */\n      tag_397\n        /* \"#utility.yul\":19341:19342   */\n      0x00\n        /* \"#utility.yul\":19330:19339   */\n      dup4\n        /* \"#utility.yul\":19326:19343   */\n      add\n        /* \"#utility.yul\":19317:19323   */\n      dup8\n        /* \"#utility.yul\":19273:19344   */\n      tag_192\n      jump\t// in\n    tag_397:\n        /* \"#utility.yul\":19354:19422   */\n      tag_398\n        /* \"#utility.yul\":19418:19420   */\n      0x20\n        /* \"#utility.yul\":19407:19416   */\n      dup4\n        /* \"#utility.yul\":19403:19421   */\n      add\n        /* \"#utility.yul\":19394:19400   */\n      dup7\n        /* \"#utility.yul\":19354:19422   */\n      tag_190\n      jump\t// in\n    tag_398:\n        /* \"#utility.yul\":19432:19504   */\n      tag_399\n        /* \"#utility.yul\":19500:19502   */\n      0x40\n        /* \"#utility.yul\":19489:19498   */\n      dup4\n        /* \"#utility.yul\":19485:19503   */\n      add\n        /* \"#utility.yul\":19476:19482   */\n      dup6\n        /* \"#utility.yul\":19432:19504   */\n      tag_192\n      jump\t// in\n    tag_399:\n        /* \"#utility.yul\":19514:19586   */\n      tag_400\n        /* \"#utility.yul\":19582:19584   */\n      0x60\n        /* \"#utility.yul\":19571:19580   */\n      dup4\n        /* \"#utility.yul\":19567:19585   */\n      add\n        /* \"#utility.yul\":19558:19564   */\n      dup5\n        /* \"#utility.yul\":19514:19586   */\n      tag_192\n      jump\t// in\n    tag_400:\n        /* \"#utility.yul\":19048:19593   */\n      swap6\n      swap5\n      pop\n      pop\n      pop\n      pop\n      pop\n      jump\t// out\n        /* \"#utility.yul\":19599:19763   */\n    tag_219:\n        /* \"#utility.yul\":19739:19755   */\n      0x696e76616c6964207369676e6572000000000000000000000000000000000000\n        /* \"#utility.yul\":19735:19736   */\n      0x00\n        /* \"#utility.yul\":19727:19733   */\n      dup3\n        /* \"#utility.yul\":19723:19737   */\n      add\n        /* \"#utility.yul\":19716:19756   */\n      mstore\n        /* \"#utility.yul\":19599:19763   */\n      pop\n      jump\t// out\n        /* \"#utility.yul\":19769:20135   */\n    tag_220:\n        /* \"#utility.yul\":19911:19914   */\n      0x00\n        /* \"#utility.yul\":19932:19999   */\n      tag_403\n        /* \"#utility.yul\":19996:19998   */\n      0x0e\n        /* \"#utility.yul\":19991:19994   */\n      dup4\n        /* \"#utility.yul\":19932:19999   */\n      tag_172\n      jump\t// in\n    tag_403:\n        /* \"#utility.yul\":19925:19999   */\n      swap2\n      pop\n        /* \"#utility.yul\":20008:20101   */\n      tag_404\n        /* \"#utility.yul\":20097:20100   */\n      dup3\n        /* \"#utility.yul\":20008:20101   */\n      tag_219\n      jump\t// in\n    tag_404:\n        /* \"#utility.yul\":20126:20128   */\n      0x20\n        /* \"#utility.yul\":20121:20124   */\n      dup3\n        /* \"#utility.yul\":20117:20129   */\n      add\n        /* \"#utility.yul\":20110:20129   */\n      swap1\n      pop\n        /* \"#utility.yul\":19769:20135   */\n      swap2\n      swap1\n      pop\n      jump\t// out\n        /* \"#utility.yul\":20141:20560   */\n    tag_169:\n        /* \"#utility.yul\":20307:20311   */\n      0x00\n        /* \"#utility.yul\":20345:20347   */\n      0x20\n        /* \"#utility.yul\":20334:20343   */\n      dup3\n        /* \"#utility.yul\":20330:20348   */\n      add\n        /* \"#utility.yul\":20322:20348   */\n      swap1\n      pop\n        /* \"#utility.yul\":20394:20403   */\n      dup2\n        /* \"#utility.yul\":20388:20392   */\n      dup2\n        /* \"#utility.yul\":20384:20404   */\n      sub\n        /* \"#utility.yul\":20380:20381   */\n      0x00\n        /* \"#utility.yul\":20369:20378   */\n      dup4\n        /* \"#utility.yul\":20365:20382   */\n      add\n        /* \"#utility.yul\":20358:20405   */\n      mstore\n        /* \"#utility.yul\":20422:20553   */\n      tag_406\n        /* \"#utility.yul\":20548:20552   */\n      dup2\n        /* \"#utility.yul\":20422:20553   */\n      tag_220\n      jump\t// in\n    tag_406:\n        /* \"#utility.yul\":20414:20553   */\n      swap1\n      pop\n        /* \"#utility.yul\":20141:20560   */\n      swap2\n      swap1\n      pop\n      jump\t// out\n\n    auxdata: 0xa26469706673582212200b589905176aa7d1ce00bd6bf5c5b23073e2cd097be9fa1368d99ee64df7254464736f6c63430008120033\n}\n",
				"bytecode": {
					"linkReferences": {},
					"object": "60806040523480156200001157600080fd5b506040518060400160405280600881526020017f55534420436f696e0000000000000000000000000000000000000000000000008152506040518060400160405280600481526020017f55534443000000000000000000000000000000000000000000000000000000008152506012826000908162000091919062000412565b508160019081620000a3919062000412565b5080600260006101000a81548160ff021916908360ff1602179055505050507f8b73c3c69bb8fe3d512ecc4cf759cc79239f7b179b0ffacaa9a75d522b39400f6000604051620000f49190620005a8565b60405180910390207fc89efdaa54c0f20c7adf612882df0950f5a951637e0307cdcb4c672f298b8bc646306040516020016200013595949392919062000632565b6040516020818303038152906040528051906020012060068190555033600860006101000a81548173ffffffffffffffffffffffffffffffffffffffff021916908373ffffffffffffffffffffffffffffffffffffffff1602179055506200068f565b600081519050919050565b7f4e487b7100000000000000000000000000000000000000000000000000000000600052604160045260246000fd5b7f4e487b7100000000000000000000000000000000000000000000000000000000600052602260045260246000fd5b600060028204905060018216806200021a57607f821691505b60208210810362000230576200022f620001d2565b5b50919050565b60008190508160005260206000209050919050565b60006020601f8301049050919050565b600082821b905092915050565b6000600883026200029a7fffffffffffffffffffffffffffffffffffffffffffffffffffffffffffffffff826200025b565b620002a686836200025b565b95508019841693508086168417925050509392505050565b6000819050919050565b6000819050919050565b6000620002f3620002ed620002e784620002be565b620002c8565b620002be565b9050919050565b6000819050919050565b6200030f83620002d2565b620003276200031e82620002fa565b84845462000268565b825550505050565b600090565b6200033e6200032f565b6200034b81848462000304565b505050565b5b8181101562000373576200036760008262000334565b60018101905062000351565b5050565b601f821115620003c2576200038c8162000236565b62000397846200024b565b81016020851015620003a7578190505b620003bf620003b6856200024b565b83018262000350565b50505b505050565b600082821c905092915050565b6000620003e760001984600802620003c7565b1980831691505092915050565b6000620004028383620003d4565b9150826002028217905092915050565b6200041d8262000198565b67ffffffffffffffff811115620004395762000438620001a3565b5b62000445825462000201565b6200045282828562000377565b600060209050601f8311600181146200048a576000841562000475578287015190505b620004818582620003f4565b865550620004f1565b601f1984166200049a8662000236565b60005b82811015620004c4578489015182556001820191506020850194506020810190506200049d565b86831015620004e45784890151620004e0601f891682620003d4565b8355505b6001600288020188555050505b505050505050565b600081905092915050565b60008190508160005260206000209050919050565b60008154620005288162000201565b620005348186620004f9565b9450600182166000811462000552576001811462000568576200059f565b60ff19831686528115158202860193506200059f565b620005738562000504565b60005b83811015620005975781548189015260018201915060208101905062000576565b838801955050505b50505092915050565b6000620005b6828462000519565b915081905092915050565b6000819050919050565b620005d681620005c1565b82525050565b620005e781620002be565b82525050565b600073ffffffffffffffffffffffffffffffffffffffff82169050919050565b60006200061a82620005ed565b9050919050565b6200062c816200060d565b82525050565b600060a082019050620006496000830188620005cb565b620006586020830187620005cb565b620006676040830186620005cb565b620006766060830185620005dc565b62000685608083018462000621565b9695505050505050565b611efd806200069f6000396000f3fe608060405234801561001057600080fd5b50600436106101165760003560e01c80637ecebe00116100a2578063a0712d6811610071578063a0712d681461030c578063a9059cbb1461033c578063b8f883f91461036c578063d505accf1461039c578063dd62ed3e146103b857610116565b80637ecebe0014610284578063880cdc31146102b45780638da5cb5b146102d057806395d89b41146102ee57610116565b806323b872dd116100e957806323b872dd146101b8578063313ce567146101e85780633644e5151461020657806342966c681461022457806370a082311461025457610116565b806306fdde031461011b578063095ea7b31461013957806315a271381461016957806318160ddd1461019a575b600080fd5b6101236103e8565b604051610130919061154f565b60405180910390f35b610153600480360381019061014e919061160a565b610476565b6040516101609190611665565b60405180910390f35b610183600480360381019061017e9190611680565b610568565b6040516101919291906116bc565b60405180910390f35b6101a261058c565b6040516101af91906116e5565b60405180910390f35b6101d260048036038101906101cd9190611700565b610592565b6040516101df9190611665565b60405180910390f35b6101f0610869565b6040516101fd919061176f565b60405180910390f35b61020e61087c565b60405161021b91906117a3565b60405180910390f35b61023e600480360381019061023991906117be565b610882565b60405161024b9190611665565b60405180910390f35b61026e60048036038101906102699190611680565b610aa7565b60405161027b91906116e5565b60405180910390f35b61029e60048036038101906102999190611680565b610abf565b6040516102ab91906116e5565b60405180910390f35b6102ce60048036038101906102c99190611680565b610ad7565b005b6102d8610bee565b6040516102e591906117fa565b60405180910390f35b6102f6610c14565b604051610303919061154f565b60405180910390f35b610326600480360381019061032191906117be565b610ca2565b6040516103339190611665565b60405180910390f35b6103566004803603810190610351919061160a565b610ee2565b6040516103639190611665565b60405180910390f35b6103866004803603810190610381919061160a565b61106f565b6040516103939190611665565b60405180910390f35b6103b660048036038101906103b1919061186d565b6111a0565b005b6103d260048036038101906103cd919061190f565b61149a565b6040516103df91906116e5565b60405180910390f35b600080546103f59061197e565b80601f01602080910402602001604051908101604052809291908181526020018280546104219061197e565b801561046e5780601f106104435761010080835404028352916020019161046e565b820191906000526020600020905b81548152906001019060200180831161045157829003601f168201915b505050505081565b600081600560003373ffffffffffffffffffffffffffffffffffffffff1673ffffffffffffffffffffffffffffffffffffffff16815260200190815260200160002060008573ffffffffffffffffffffffffffffffffffffffff1673ffffffffffffffffffffffffffffffffffffffff168152602001908152602001600020819055508273ffffffffffffffffffffffffffffffffffffffff163373ffffffffffffffffffffffffffffffffffffffff167f8c5be1e5ebec7d5bd14f71427d1e84f3dd0314c0f7b2291e5b200ac8c7c3b9258460405161055691906116e5565b60405180910390a36001905092915050565b60096020528060005260406000206000915090508060000154908060010154905082565b60035481565b600081600560008673ffffffffffffffffffffffffffffffffffffffff1673ffffffffffffffffffffffffffffffffffffffff16815260200190815260200160002060003373ffffffffffffffffffffffffffffffffffffffff1673ffffffffffffffffffffffffffffffffffffffff168152602001908152602001600020541015610653576040517f08c379a000000000000000000000000000000000000000000000000000000000815260040161064a906119fb565b60405180910390fd5b81600460008673ffffffffffffffffffffffffffffffffffffffff1673ffffffffffffffffffffffffffffffffffffffff1681526020019081526020016000205410156106d5576040517f08c379a00000000000000000000000000000000000000000000000000000000081526004016106cc90611a67565b60405180910390fd5b81600560008673ffffffffffffffffffffffffffffffffffffffff1673ffffffffffffffffffffffffffffffffffffffff16815260200190815260200160002060003373ffffffffffffffffffffffffffffffffffffffff1673ffffffffffffffffffffffffffffffffffffffff1681526020019081526020016000206000828254039250508190555081600460008673ffffffffffffffffffffffffffffffffffffffff1673ffffffffffffffffffffffffffffffffffffffff1681526020019081526020016000206000828254039250508190555081600460008573ffffffffffffffffffffffffffffffffffffffff1673ffffffffffffffffffffffffffffffffffffffff168152602001908152602001600020600082825401925050819055508273ffffffffffffffffffffffffffffffffffffffff168473ffffffffffffffffffffffffffffffffffffffff167fddf252ad1be2c89b69c2b068fc378daa952ba7f163c4a11628f55a4df523b3ef8460405161085691906116e5565b60405180910390a3600190509392505050565b600260009054906101000a900460ff1681565b60065481565b600081600960003373ffffffffffffffffffffffffffffffffffffffff1673ffffffffffffffffffffffffffffffffffffffff168152602001908152602001600020600101541015610909576040517f08c379a000000000000000000000000000000000000000000000000000000000815260040161090090611ad3565b60405180910390fd5b81600460003373ffffffffffffffffffffffffffffffffffffffff1673ffffffffffffffffffffffffffffffffffffffff16815260200190815260200160002054101561098b576040517f08c379a000000000000000000000000000000000000000000000000000000000815260040161098290611a67565b60405180910390fd5b81600960003373ffffffffffffffffffffffffffffffffffffffff1673ffffffffffffffffffffffffffffffffffffffff1681526020019081526020016000206001016000828254039250508190555081600460003373ffffffffffffffffffffffffffffffffffffffff1673ffffffffffffffffffffffffffffffffffffffff1681526020019081526020016000206000828254039250508190555081600360008282540392505081905550600073ffffffffffffffffffffffffffffffffffffffff163373ffffffffffffffffffffffffffffffffffffffff167fddf252ad1be2c89b69c2b068fc378daa952ba7f163c4a11628f55a4df523b3ef84604051610a9691906116e5565b60405180910390a360019050919050565b60046020528060005260406000206000915090505481565b60076020528060005260406000206000915090505481565b600860009054906101000a900473ffffffffffffffffffffffffffffffffffffffff1673ffffffffffffffffffffffffffffffffffffffff163373ffffffffffffffffffffffffffffffffffffffff1614610b67576040517f08c379a0000000000000000000000000000000000000000000000000000000008152600401610b5e90611b3f565b60405180910390fd5b80600860006101000a81548173ffffffffffffffffffffffffffffffffffffffff021916908373ffffffffffffffffffffffffffffffffffffffff1602179055508073ffffffffffffffffffffffffffffffffffffffff167f84022644ce39de434e8f39c4398a3628815893104188274c37205d41c2d5096760405160405180910390a250565b600860009054906101000a900473ffffffffffffffffffffffffffffffffffffffff1681565b60018054610c219061197e565b80601f0160208091040260200160405190810160405280929190818152602001828054610c4d9061197e565b8015610c9a5780601f10610c6f57610100808354040283529160200191610c9a565b820191906000526020600020905b815481529060010190602001808311610c7d57829003601f168201915b505050505081565b600081600960003373ffffffffffffffffffffffffffffffffffffffff1673ffffffffffffffffffffffffffffffffffffffff16815260200190815260200160002060010154610cf29190611b8e565b600960003373ffffffffffffffffffffffffffffffffffffffff1673ffffffffffffffffffffffffffffffffffffffff168152602001908152602001600020600001541015610d76576040517f08c379a0000000000000000000000000000000000000000000000000000000008152600401610d6d90611c0e565b60405180910390fd5b8182600354610d859190611b8e565b1015610dc6576040517f08c379a0000000000000000000000000000000000000000000000000000000008152600401610dbd90611c7a565b60405180910390fd5b81600960003373ffffffffffffffffffffffffffffffffffffffff1673ffffffffffffffffffffffffffffffffffffffff1681526020019081526020016000206001016000828254019250508190555081600460003373ffffffffffffffffffffffffffffffffffffffff1673ffffffffffffffffffffffffffffffffffffffff16815260200190815260200160002060008282540192505081905550816003600082825401925050819055503373ffffffffffffffffffffffffffffffffffffffff16600073ffffffffffffffffffffffffffffffffffffffff167fddf252ad1be2c89b69c2b068fc378daa952ba7f163c4a11628f55a4df523b3ef84604051610ed191906116e5565b60405180910390a360019050919050565b600081600460003373ffffffffffffffffffffffffffffffffffffffff1673ffffffffffffffffffffffffffffffffffffffff168152602001908152602001600020541015610f66576040517f08c379a0000000000000000000000000000000000000000000000000000000008152600401610f5d90611a67565b60405180910390fd5b81600460003373ffffffffffffffffffffffffffffffffffffffff1673ffffffffffffffffffffffffffffffffffffffff1681526020019081526020016000206000828254039250508190555081600460008573ffffffffffffffffffffffffffffffffffffffff1673ffffffffffffffffffffffffffffffffffffffff168152602001908152602001600020600082825401925050819055508273ffffffffffffffffffffffffffffffffffffffff163373ffffffffffffffffffffffffffffffffffffffff167fddf252ad1be2c89b69c2b068fc378daa952ba7f163c4a11628f55a4df523b3ef8460405161105d91906116e5565b60405180910390a36001905092915050565b6000600860009054906101000a900473ffffffffffffffffffffffffffffffffffffffff1673ffffffffffffffffffffffffffffffffffffffff163373ffffffffffffffffffffffffffffffffffffffff1614611101576040517f08c379a00000000000000000000000000000000000000000000000000000000081526004016110f890611b3f565b60405180910390fd5b81600960008573ffffffffffffffffffffffffffffffffffffffff1673ffffffffffffffffffffffffffffffffffffffff168152602001908152602001600020600001819055508273ffffffffffffffffffffffffffffffffffffffff167fd695c44a53c79151b2c1e3151223d9a860164774700406f2d9c69cead40277bc8360405161118e91906116e5565b60405180910390a26001905092915050565b428410156111e3576040517f08c379a00000000000000000000000000000000000000000000000000000000081526004016111da90611ce6565b60405180910390fd5b60006006547f6e71edae12b1b97f4d1f60370fef10105fa2faae0126114a169c64845d6126c9898989600760008e73ffffffffffffffffffffffffffffffffffffffff1673ffffffffffffffffffffffffffffffffffffffff1681526020019081526020016000206000815480929190600101919050558a60405160200161127096959493929190611d06565b60405160208183030381529060405280519060200120604051602001611297929190611ddf565b6040516020818303038152906040528051906020012090506000600182868686604051600081526020016040526040516112d49493929190611e16565b6020604051602081039080840390855afa1580156112f6573d6000803e3d6000fd5b505050602060405103519050600073ffffffffffffffffffffffffffffffffffffffff168173ffffffffffffffffffffffffffffffffffffffff161415801561136a57508873ffffffffffffffffffffffffffffffffffffffff168173ffffffffffffffffffffffffffffffffffffffff16145b6113a9576040517f08c379a00000000000000000000000000000000000000000000000000000000081526004016113a090611ea7565b60405180910390fd5b86600560008373ffffffffffffffffffffffffffffffffffffffff1673ffffffffffffffffffffffffffffffffffffffff16815260200190815260200160002060008a73ffffffffffffffffffffffffffffffffffffffff1673ffffffffffffffffffffffffffffffffffffffff1681526020019081526020016000208190555050508573ffffffffffffffffffffffffffffffffffffffff168773ffffffffffffffffffffffffffffffffffffffff167f8c5be1e5ebec7d5bd14f71427d1e84f3dd0314c0f7b2291e5b200ac8c7c3b9258760405161148991906116e5565b60405180910390a350505050505050565b6005602052816000526040600020602052806000526040600020600091509150505481565b600081519050919050565b600082825260208201905092915050565b60005b838110156114f95780820151818401526020810190506114de565b60008484015250505050565b6000601f19601f8301169050919050565b6000611521826114bf565b61152b81856114ca565b935061153b8185602086016114db565b61154481611505565b840191505092915050565b600060208201905081810360008301526115698184611516565b905092915050565b600080fd5b600073ffffffffffffffffffffffffffffffffffffffff82169050919050565b60006115a182611576565b9050919050565b6115b181611596565b81146115bc57600080fd5b50565b6000813590506115ce816115a8565b92915050565b6000819050919050565b6115e7816115d4565b81146115f257600080fd5b50565b600081359050611604816115de565b92915050565b6000806040838503121561162157611620611571565b5b600061162f858286016115bf565b9250506020611640858286016115f5565b9150509250929050565b60008115159050919050565b61165f8161164a565b82525050565b600060208201905061167a6000830184611656565b92915050565b60006020828403121561169657611695611571565b5b60006116a4848285016115bf565b91505092915050565b6116b6816115d4565b82525050565b60006040820190506116d160008301856116ad565b6116de60208301846116ad565b9392505050565b60006020820190506116fa60008301846116ad565b92915050565b60008060006060848603121561171957611718611571565b5b6000611727868287016115bf565b9350506020611738868287016115bf565b9250506040611749868287016115f5565b9150509250925092565b600060ff82169050919050565b61176981611753565b82525050565b60006020820190506117846000830184611760565b92915050565b6000819050919050565b61179d8161178a565b82525050565b60006020820190506117b86000830184611794565b92915050565b6000602082840312156117d4576117d3611571565b5b60006117e2848285016115f5565b91505092915050565b6117f481611596565b82525050565b600060208201905061180f60008301846117eb565b92915050565b61181e81611753565b811461182957600080fd5b50565b60008135905061183b81611815565b92915050565b61184a8161178a565b811461185557600080fd5b50565b60008135905061186781611841565b92915050565b600080600080600080600060e0888a03121561188c5761188b611571565b5b600061189a8a828b016115bf565b97505060206118ab8a828b016115bf565b96505060406118bc8a828b016115f5565b95505060606118cd8a828b016115f5565b94505060806118de8a828b0161182c565b93505060a06118ef8a828b01611858565b92505060c06119008a828b01611858565b91505092959891949750929550565b6000806040838503121561192657611925611571565b5b6000611934858286016115bf565b9250506020611945858286016115bf565b9150509250929050565b7f4e487b7100000000000000000000000000000000000000000000000000000000600052602260045260246000fd5b6000600282049050600182168061199657607f821691505b6020821081036119a9576119a861194f565b5b50919050565b7f696e73756666696369656e7420616c6c6f77616e636500000000000000000000600082015250565b60006119e56016836114ca565b91506119f0826119af565b602082019050919050565b60006020820190508181036000830152611a14816119d8565b9050919050565b7f696e73756666696369656e742062616c616e6365000000000000000000000000600082015250565b6000611a516014836114ca565b9150611a5c82611a1b565b602082019050919050565b60006020820190508181036000830152611a8081611a44565b9050919050565b7f696e73756666696369656e74206275726e206c696d6974000000000000000000600082015250565b6000611abd6017836114ca565b9150611ac882611a87565b602082019050919050565b60006020820190508181036000830152611aec81611ab0565b9050919050565b7f6f6e6c79206f776e657200000000000000000000000000000000000000000000600082015250565b6000611b29600a836114ca565b9150611b3482611af3565b602082019050919050565b60006020820190508181036000830152611b5881611b1c565b9050919050565b7f4e487b7100000000000000000000000000000000000000000000000000000000600052601160045260246000fd5b6000611b99826115d4565b9150611ba4836115d4565b9250828201905080821115611bbc57611bbb611b5f565b5b92915050565b7f696e73756666696369656e74206d696e74206c696d6974000000000000000000600082015250565b6000611bf86017836114ca565b9150611c0382611bc2565b602082019050919050565b60006020820190508181036000830152611c2781611beb565b9050919050565b7f746f74616c20737570706c79206f766572666c6f770000000000000000000000600082015250565b6000611c646015836114ca565b9150611c6f82611c2e565b602082019050919050565b60006020820190508181036000830152611c9381611c57565b9050919050565b7f7065726d69742065787069726564000000000000000000000000000000000000600082015250565b6000611cd0600e836114ca565b9150611cdb82611c9a565b602082019050919050565b60006020820190508181036000830152611cff81611cc3565b9050919050565b600060c082019050611d1b6000830189611794565b611d2860208301886117eb565b611d3560408301876117eb565b611d4260608301866116ad565b611d4f60808301856116ad565b611d5c60a08301846116ad565b979650505050505050565b600081905092915050565b7f1901000000000000000000000000000000000000000000000000000000000000600082015250565b6000611da8600283611d67565b9150611db382611d72565b600282019050919050565b6000819050919050565b611dd9611dd48261178a565b611dbe565b82525050565b6000611dea82611d9b565b9150611df68285611dc8565b602082019150611e068284611dc8565b6020820191508190509392505050565b6000608082019050611e2b6000830187611794565b611e386020830186611760565b611e456040830185611794565b611e526060830184611794565b95945050505050565b7f696e76616c6964207369676e6572000000000000000000000000000000000000600082015250565b6000611e91600e836114ca565b9150611e9c82611e5b565b602082019050919050565b60006020820190508181036000830152611ec081611e84565b905091905056fea26469706673582212200b589905176aa7d1ce00bd6bf5c5b23073e2cd097be9fa1368d99ee64df7254464736f6c63430008120033",
					"opcodes": "PUSH1 0x80 PUSH1 0x40 MSTORE CALLVALUE DUP1 ISZERO PUSH3 0x11 JUMPI PUSH1 0x0 DUP1 REVERT JUMPDEST POP PUSH1 0x40 MLOAD DUP1 PUSH1 0x40 ADD PUSH1 0x40 MSTORE DUP1 PUSH1 0x8 DUP2 MSTORE PUSH1 0x20 ADD PUSH32 0x55534420436F696E000000000000000000000000000000000000000000000000 DUP2 MSTORE POP PUSH1 0x40 MLOAD DUP1 PUSH1 0x40 ADD PUSH1 0x40 MSTORE DUP1 PUSH1 0x4 DUP2 MSTORE PUSH1 0x20 ADD PUSH32 0x5553444300000000000000000000000000000000000000000000000000000000 DUP2 MSTORE POP PUSH1 0x12 DUP3 PUSH1 0x0 SWAP1 DUP2 PUSH3 0x91 SWAP2 SWAP1 PUSH3 0x412 JUMP JUMPDEST POP DUP2 PUSH1 0x1 SWAP1 DUP2 PUSH3 0xA3 SWAP2 SWAP1 PUSH3 0x412 JUMP JUMPDEST POP DUP1 PUSH1 0x2 PUSH1 0x0 PUSH2 0x100 EXP DUP2 SLOAD DUP2 PUSH1 0xFF MUL NOT AND SWAP1 DUP4 PUSH1 0xFF AND MUL OR SWAP1 SSTORE POP POP POP POP PUSH32 0x8B73C3C69BB8FE3D512ECC4CF759CC79239F7B179B0FFACAA9A75D522B39400F PUSH1 0x0 PUSH1 0x40 MLOAD PUSH3 0xF4 SWAP2 SWAP1 PUSH3 0x5A8 JUMP JUMPDEST PUSH1 0x40 MLOAD DUP1 SWAP2 SUB SWAP1 KECCAK256 PUSH32 0xC89EFDAA54C0F20C7ADF612882DF0950F5A951637E0307CDCB4C672F298B8BC6 CHAINID ADDRESS PUSH1 0x40 MLOAD PUSH1 0x20 ADD PUSH3 0x135 SWAP6 SWAP5 SWAP4 SWAP3 SWAP2 SWAP1 PUSH3 0x632 JUMP JUMPDEST PUSH1 0x40 MLOAD PUSH1 0x20 DUP2 DUP4 SUB SUB DUP2 MSTORE SWAP1 PUSH1 0x40 MSTORE DUP1 MLOAD SWAP1 PUSH1 0x20 ADD KECCAK256 PUSH1 0x6 DUP2 SWAP1 SSTORE POP CALLER PUSH1 0x8 PUSH1 0x0 PUSH2 0x100 EXP DUP2 SLOAD DUP2 PUSH20 0xFFFFFFFFFFFFFFFFFFFFFFFFFFFFFFFFFFFFFFFF MUL NOT AND SWAP1 DUP4 PUSH20 0xFFFFFFFFFFFFFFFFFFFFFFFFFFFFFFFFFFFFFFFF AND MUL OR SWAP1 SSTORE POP PUSH3 0x68F JUMP JUMPDEST PUSH1 0x0 DUP2 MLOAD SWAP1 POP SWAP2 SWAP1 POP JUMP JUMPDEST PUSH32 0x4E487B7100000000000000000000000000000000000000000000000000000000 PUSH1 0x0 MSTORE PUSH1 0x41 PUSH1 0x4 MSTORE PUSH1 0x24 PUSH1 0x0 REVERT JUMPDEST PUSH32 0x4E487B7100000000000000000000000000000000000000000000000000000000 PUSH1 0x0 MSTORE PUSH1 0x22 PUSH1 0x4 MSTORE PUSH1 0x24 PUSH1 0x0 REVERT JUMPDEST PUSH1 0x0 PUSH1 0x2 DUP3 DIV SWAP1 POP PUSH1 0x1 DUP3 AND DUP1 PUSH3 0x21A JUMPI PUSH1 0x7F DUP3 AND SWAP2 POP JUMPDEST PUSH1 0x20 DUP3 LT DUP2 SUB PUSH3 0x230 JUMPI PUSH3 0x22F PUSH3 0x1D2 JUMP JUMPDEST JUMPDEST POP SWAP2 SWAP1 POP JUMP JUMPDEST PUSH1 0x0 DUP2 SWAP1 POP DUP2 PUSH1 0x0 MSTORE PUSH1 0x20 PUSH1 0x0 KECCAK256 SWAP1 POP SWAP2 SWAP1 POP JUMP JUMPDEST PUSH1 0x0 PUSH1 0x20 PUSH1 0x1F DUP4 ADD DIV SWAP1 POP SWAP2 SWAP1 POP JUMP JUMPDEST PUSH1 0x0 DUP3 DUP3 SHL SWAP1 POP SWAP3 SWAP2 POP POP JUMP JUMPDEST PUSH1 0x0 PUSH1 0x8 DUP4 MUL PUSH3 0x29A PUSH32 0xFFFFFFFFFFFFFFFFFFFFFFFFFFFFFFFFFFFFFFFFFFFFFFFFFFFFFFFFFFFFFFFF DUP3 PUSH3 0x25B JUMP JUMPDEST PUSH3 0x2A6 DUP7 DUP4 PUSH3 0x25B JUMP JUMPDEST SWAP6 POP DUP1 NOT DUP5 AND SWAP4 POP DUP1 DUP7 AND DUP5 OR SWAP3 POP POP POP SWAP4 SWAP3 POP POP POP JUMP JUMPDEST PUSH1 0x0 DUP2 SWAP1 POP SWAP2 SWAP1 POP JUMP JUMPDEST PUSH1 0x0 DUP2 SWAP1 POP SWAP2 SWAP1 POP JUMP JUMPDEST PUSH1 0x0 PUSH3 0x2F3 PUSH3 0x2ED PUSH3 0x2E7 DUP5 PUSH3 0x2BE JUMP JUMPDEST PUSH3 0x2C8 JUMP JUMPDEST PUSH3 0x2BE JUMP JUMPDEST SWAP1 POP SWAP2 SWAP1 POP JUMP JUMPDEST PUSH1 0x0 DUP2 SWAP1 POP SWAP2 SWAP1 POP JUMP JUMPDEST PUSH3 0x30F DUP4 PUSH3 0x2D2 JUMP JUMPDEST PUSH3 0x327 PUSH3 0x31E DUP3 PUSH3 0x2FA JUMP JUMPDEST DUP5 DUP5 SLOAD PUSH3 0x268 JUMP JUMPDEST DUP3 SSTORE POP POP POP POP JUMP JUMPDEST PUSH1 0x0 SWAP1 JUMP JUMPDEST PUSH3 0x33E PUSH3 0x32F JUMP JUMPDEST PUSH3 0x34B DUP2 DUP5 DUP5 PUSH3 0x304 JUMP JUMPDEST POP POP POP JUMP JUMPDEST JUMPDEST DUP2 DUP2 LT ISZERO PUSH3 0x373 JUMPI PUSH3 0x367 PUSH1 0x0 DUP3 PUSH3 0x334 JUMP JUMPDEST PUSH1 0x1 DUP2 ADD SWAP1 POP PUSH3 0x351 JUMP JUMPDEST POP POP JUMP JUMPDEST PUSH1 0x1F DUP3 GT ISZERO PUSH3 0x3C2 JUMPI PUSH3 0x38C DUP2 PUSH3 0x236 JUMP JUMPDEST PUSH3 0x397 DUP5 PUSH3 0x24B JUMP JUMPDEST DUP2 ADD PUSH1 0x20 DUP6 LT ISZERO PUSH3 0x3A7 JUMPI DUP2 SWAP1 POP JUMPDEST PUSH3 0x3BF PUSH3 0x3B6 DUP6 PUSH3 0x24B JUMP JUMPDEST DUP4 ADD DUP3 PUSH3 0x350 JUMP JUMPDEST POP POP JUMPDEST POP POP POP JUMP JUMPDEST PUSH1 0x0 DUP3 DUP3 SHR SWAP1 POP SWAP3 SWAP2 POP POP JUMP JUMPDEST PUSH1 0x0 PUSH3 0x3E7 PUSH1 0x0 NOT DUP5 PUSH1 0x8 MUL PUSH3 0x3C7 JUMP JUMPDEST NOT DUP1 DUP4 AND SWAP2 POP POP SWAP3 SWAP2 POP POP JUMP JUMPDEST PUSH1 0x0 PUSH3 0x402 DUP4 DUP4 PUSH3 0x3D4 JUMP JUMPDEST SWAP2 POP DUP3 PUSH1 0x2 MUL DUP3 OR SWAP1 POP SWAP3 SWAP2 POP POP JUMP JUMPDEST PUSH3 0x41D DUP3 PUSH3 0x198 JUMP JUMPDEST PUSH8 0xFFFFFFFFFFFFFFFF DUP2 GT ISZERO PUSH3 0x439 JUMPI PUSH3 0x438 PUSH3 0x1A3 JUMP JUMPDEST JUMPDEST PUSH3 0x445 DUP3 SLOAD PUSH3 0x201 JUMP JUMPDEST PUSH3 0x452 DUP3 DUP3 DUP6 PUSH3 0x377 JUMP JUMPDEST PUSH1 0x0 PUSH1 0x20 SWAP1 POP PUSH1 0x1F DUP4 GT PUSH1 0x1 DUP2 EQ PUSH3 0x48A JUMPI PUSH1 0x0 DUP5 ISZERO PUSH3 0x475 JUMPI DUP3 DUP8 ADD MLOAD SWAP1 POP JUMPDEST PUSH3 0x481 DUP6 DUP3 PUSH3 0x3F4 JUMP JUMPDEST DUP7 SSTORE POP PUSH3 0x4F1 JUMP JUMPDEST PUSH1 0x1F NOT DUP5 AND PUSH3 0x49A DUP7 PUSH3 0x236 JUMP JUMPDEST PUSH1 0x0 JUMPDEST DUP3 DUP2 LT ISZERO PUSH3 0x4C4 JUMPI DUP5 DUP10 ADD MLOAD DUP3 SSTORE PUSH1 0x1 DUP3 ADD SWAP2 POP PUSH1 0x20 DUP6 ADD SWAP5 POP PUSH1 0x20 DUP2 ADD SWAP1 POP PUSH3 0x49D JUMP JUMPDEST DUP7 DUP4 LT ISZERO PUSH3 0x4E4 JUMPI DUP5 DUP10 ADD MLOAD PUSH3 0x4E0 PUSH1 0x1F DUP10 AND DUP3 PUSH3 0x3D4 JUMP JUMPDEST DUP4 SSTORE POP JUMPDEST PUSH1 0x1 PUSH1 0x2 DUP9 MUL ADD DUP9 SSTORE POP POP POP JUMPDEST POP POP POP POP POP POP JUMP JUMPDEST PUSH1 0x0 DUP2 SWAP1 POP SWAP3 SWAP2 POP POP JUMP JUMPDEST PUSH1 0x0 DUP2 SWAP1 POP DUP2 PUSH1 0x0 MSTORE PUSH1 0x20 PUSH1 0x0 KECCAK256 SWAP1 POP SWAP2 SWAP1 POP JUMP JUMPDEST PUSH1 0x0 DUP2 SLOAD PUSH3 0x528 DUP2 PUSH3 0x201 JUMP JUMPDEST PUSH3 0x534 DUP2 DUP7 PUSH3 0x4F9 JUMP JUMPDEST SWAP5 POP PUSH1 0x1 DUP3 AND PUSH1 0x0 DUP2 EQ PUSH3 0x552 JUMPI PUSH1 0x1 DUP2 EQ PUSH3 0x568 JUMPI PUSH3 0x59F JUMP JUMPDEST PUSH1 0xFF NOT DUP4 AND DUP7 MSTORE DUP2 ISZERO ISZERO DUP3 MUL DUP7 ADD SWAP4 POP PUSH3 0x59F JUMP JUMPDEST PUSH3 0x573 DUP6 PUSH3 0x504 JUMP JUMPDEST PUSH1 0x0 JUMPDEST DUP4 DUP2 LT ISZERO PUSH3 0x597 JUMPI DUP2 SLOAD DUP2 DUP10 ADD MSTORE PUSH1 0x1 DUP3 ADD SWAP2 POP PUSH1 0x20 DUP2 ADD SWAP1 POP PUSH3 0x576 JUMP JUMPDEST DUP4 DUP9 ADD SWAP6 POP POP POP JUMPDEST POP POP POP SWAP3 SWAP2 POP POP JUMP JUMPDEST PUSH1 0x0 PUSH3 0x5B6 DUP3 DUP5 PUSH3 0x519 JUMP JUMPDEST SWAP2 POP DUP2 SWAP1 POP SWAP3 SWAP2 POP POP JUMP JUMPDEST PUSH1 0x0 DUP2 SWAP1 POP SWAP2 SWAP1 POP JUMP JUMPDEST PUSH3 0x5D6 DUP2 PUSH3 0x5C1 JUMP JUMPDEST DUP3 MSTORE POP POP JUMP JUMPDEST PUSH3 0x5E7 DUP2 PUSH3 0x2BE JUMP JUMPDEST DUP3 MSTORE POP POP JUMP JUMPDEST PUSH1 0x0 PUSH20 0xFFFFFFFFFFFFFFFFFFFFFFFFFFFFFFFFFFFFFFFF DUP3 AND SWAP1 POP SWAP2 SWAP1 POP JUMP JUMPDEST PUSH1 0x0 PUSH3 0x61A DUP3 PUSH3 0x5ED JUMP JUMPDEST SWAP1 POP SWAP2 SWAP1 POP JUMP JUMPDEST PUSH3 0x62C DUP2 PUSH3 0x60D JUMP JUMPDEST DUP3 MSTORE POP POP JUMP JUMPDEST PUSH1 0x0 PUSH1 0xA0 DUP3 ADD SWAP1 POP PUSH3 0x649 PUSH1 0x0 DUP4 ADD DUP9 PUSH3 0x5CB JUMP JUMPDEST PUSH3 0x658 PUSH1 0x20 DUP4 ADD DUP8 PUSH3 0x5CB JUMP JUMPDEST PUSH3 0x667 PUSH1 0x40 DUP4 ADD DUP7 PUSH3 0x5CB JUMP JUMPDEST PUSH3 0x676 PUSH1 0x60 DUP4 ADD DUP6 PUSH3 0x5DC JUMP JUMPDEST PUSH3 0x685 PUSH1 0x80 DUP4 ADD DUP5 PUSH3 0x621 JUMP JUMPDEST SWAP7 SWAP6 POP POP POP POP POP POP JUMP JUMPDEST PUSH2 0x1EFD DUP1 PUSH3 0x69F PUSH1 0x0 CODECOPY PUSH1 0x0 RETURN INVALID PUSH1 0x80 PUSH1 0x40 MSTORE CALLVALUE DUP1 ISZERO PUSH2 0x10 JUMPI PUSH1 0x0 DUP1 REVERT JUMPDEST POP PUSH1 0x4 CALLDATASIZE LT PUSH2 0x116 JUMPI PUSH1 0x0 CALLDATALOAD PUSH1 0xE0 SHR DUP1 PUSH4 0x7ECEBE00 GT PUSH2 0xA2 JUMPI DUP1 PUSH4 0xA0712D68 GT PUSH2 0x71 JUMPI DUP1 PUSH4 0xA0712D68 EQ PUSH2 0x30C JUMPI DUP1 PUSH4 0xA9059CBB EQ PUSH2 0x33C JUMPI DUP1 PUSH4 0xB8F883F9 EQ PUSH2 0x36C JUMPI DUP1 PUSH4 0xD505ACCF EQ PUSH2 0x39C JUMPI DUP1 PUSH4 0xDD62ED3E EQ PUSH2 0x3B8 JUMPI PUSH2 0x116 JUMP JUMPDEST DUP1 PUSH4 0x7ECEBE00 EQ PUSH2 0x284 JUMPI DUP1 PUSH4 0x880CDC31 EQ PUSH2 0x2B4 JUMPI DUP1 PUSH4 0x8DA5CB5B EQ PUSH2 0x2D0 JUMPI DUP1 PUSH4 0x95D89B41 EQ PUSH2 0x2EE JUMPI PUSH2 0x116 JUMP JUMPDEST DUP1 PUSH4 0x23B872DD GT PUSH2 0xE9 JUMPI DUP1 PUSH4 0x23B872DD EQ PUSH2 0x1B8 JUMPI DUP1 PUSH4 0x313CE567 EQ PUSH2 0x1E8 JUMPI DUP1 PUSH4 0x3644E515 EQ PUSH2 0x206 JUMPI DUP1 PUSH4 0x42966C68 EQ PUSH2 0x224 JUMPI DUP1 PUSH4 0x70A08231 EQ PUSH2 0x254 JUMPI PUSH2 0x116 JUMP JUMPDEST DUP1 PUSH4 0x6FDDE03 EQ PUSH2 0x11B JUMPI DUP1 PUSH4 0x95EA7B3 EQ PUSH2 0x139 JUMPI DUP1 PUSH4 0x15A27138 EQ PUSH2 0x169 JUMPI DUP1 PUSH4 0x18160DDD EQ PUSH2 0x19A JUMPI JUMPDEST PUSH1 0x0 DUP1 REVERT JUMPDEST PUSH2 0x123 PUSH2 0x3E8 JUMP JUMPDEST PUSH1 0x40 MLOAD PUSH2 0x130 SWAP2 SWAP1 PUSH2 0x154F JUMP JUMPDEST PUSH1 0x40 MLOAD DUP1 SWAP2 SUB SWAP1 RETURN JUMPDEST PUSH2 0x153 PUSH1 0x4 DUP1 CALLDATASIZE SUB DUP2 ADD SWAP1 PUSH2 0x14E SWAP2 SWAP1 PUSH2 0x160A JUMP JUMPDEST PUSH2 0x476 JUMP JUMPDEST PUSH1 0x40 MLOAD PUSH2 0x160 SWAP2 SWAP1 PUSH2 0x1665 JUMP JUMPDEST PUSH1 0x40 MLOAD DUP1 SWAP2 SUB SWAP1 RETURN JUMPDEST PUSH2 0x183 PUSH1 0x4 DUP1 CALLDATASIZE SUB DUP2 ADD SWAP1 PUSH2 0x17E SWAP2 SWAP1 PUSH2 0x1680 JUMP JUMPDEST PUSH2 0x568 JUMP JUMPDEST PUSH1 0x40 MLOAD PUSH2 0x191 SWAP3 SWAP2 SWAP1 PUSH2 0x16BC JUMP JUMPDEST PUSH1 0x40 MLOAD DUP1 SWAP2 SUB SWAP1 RETURN JUMPDEST PUSH2 0x1A2 PUSH2 0x58C JUMP JUMPDEST PUSH1 0x40 MLOAD PUSH2 0x1AF SWAP2 SWAP1 PUSH2 0x16E5 JUMP JUMPDEST PUSH1 0x40 MLOAD DUP1 SWAP2 SUB SWAP1 RETURN JUMPDEST PUSH2 0x1D2 PUSH1 0x4 DUP1 CALLDATASIZE SUB DUP2 ADD SWAP1 PUSH2 0x1CD SWAP2 SWAP1 PUSH2 0x1700 JUMP JUMPDEST PUSH2 0x592 JUMP JUMPDEST PUSH1 0x40 MLOAD PUSH2 0x1DF SWAP2 SWAP1 PUSH2 0x1665 JUMP JUMPDEST PUSH1 0x40 MLOAD DUP1 SWAP2 SUB SWAP1 RETURN JUMPDEST PUSH2 0x1F0 PUSH2 0x869 JUMP JUMPDEST PUSH1 0x40 MLOAD PUSH2 0x1FD SWAP2 SWAP1 PUSH2 0x176F JUMP JUMPDEST PUSH1 0x40 MLOAD DUP1 SWAP2 SUB SWAP1 RETURN JUMPDEST PUSH2 0x20E PUSH2 0x87C JUMP JUMPDEST PUSH1 0x40 MLOAD PUSH2 0x21B SWAP2 SWAP1 PUSH2 0x17A3 JUMP JUMPDEST PUSH1 0x40 MLOAD DUP1 SWAP2 SUB SWAP1 RETURN JUMPDEST PUSH2 0x23E PUSH1 0x4 DUP1 CALLDATASIZE SUB DUP2 ADD SWAP1 PUSH2 0x239 SWAP2 SWAP1 PUSH2 0x17BE JUMP JUMPDEST PUSH2 0x882 JUMP JUMPDEST PUSH1 0x40 MLOAD PUSH2 0x24B SWAP2 SWAP1 PUSH2 0x1665 JUMP JUMPDEST PUSH1 0x40 MLOAD DUP1 SWAP2 SUB SWAP1 RETURN JUMPDEST PUSH2 0x26E PUSH1 0x4 DUP1 CALLDATASIZE SUB DUP2 ADD SWAP1 PUSH2 0x269 SWAP2 SWAP1 PUSH2 0x1680 JUMP JUMPDEST PUSH2 0xAA7 JUMP JUMPDEST PUSH1 0x40 MLOAD PUSH2 0x27B SWAP2 SWAP1 PUSH2 0x16E5 JUMP JUMPDEST PUSH1 0x40 MLOAD DUP1 SWAP2 SUB SWAP1 RETURN JUMPDEST PUSH2 0x29E PUSH1 0x4 DUP1 CALLDATASIZE SUB DUP2 ADD SWAP1 PUSH2 0x299 SWAP2 SWAP1 PUSH2 0x1680 JUMP JUMPDEST PUSH2 0xABF JUMP JUMPDEST PUSH1 0x40 MLOAD PUSH2 0x2AB SWAP2 SWAP1 PUSH2 0x16E5 JUMP JUMPDEST PUSH1 0x40 MLOAD DUP1 SWAP2 SUB SWAP1 RETURN JUMPDEST PUSH2 0x2CE PUSH1 0x4 DUP1 CALLDATASIZE SUB DUP2 ADD SWAP1 PUSH2 0x2C9 SWAP2 SWAP1 PUSH2 0x1680 JUMP JUMPDEST PUSH2 0xAD7 JUMP JUMPDEST STOP JUMPDEST PUSH2 0x2D8 PUSH2 0xBEE JUMP JUMPDEST PUSH1 0x40 MLOAD PUSH2 0x2E5 SWAP2 SWAP1 PUSH2 0x17FA JUMP JUMPDEST PUSH1 0x40 MLOAD DUP1 SWAP2 SUB SWAP1 RETURN JUMPDEST PUSH2 0x2F6 PUSH2 0xC14 JUMP JUMPDEST PUSH1 0x40 MLOAD PUSH2 0x303 SWAP2 SWAP1 PUSH2 0x154F JUMP JUMPDEST PUSH1 0x40 MLOAD DUP1 SWAP2 SUB SWAP1 RETURN JUMPDEST PUSH2 0x326 PUSH1 0x4 DUP1 CALLDATASIZE SUB DUP2 ADD SWAP1 PUSH2 0x321 SWAP2 SWAP1 PUSH2 0x17BE JUMP JUMPDEST PUSH2 0xCA2 JUMP JUMPDEST PUSH1 0x40 MLOAD PUSH2 0x333 SWAP2 SWAP1 PUSH2 0x1665 JUMP JUMPDEST PUSH1 0x40 MLOAD DUP1 SWAP2 SUB SWAP1 RETURN JUMPDEST PUSH2 0x356 PUSH1 0x4 DUP1 CALLDATASIZE SUB DUP2 ADD SWAP1 PUSH2 0x351 SWAP2 SWAP1 PUSH2 0x160A JUMP JUMPDEST PUSH2 0xEE2 JUMP JUMPDEST PUSH1 0x40 MLOAD PUSH2 0x363 SWAP2 SWAP1 PUSH2 0x1665 JUMP JUMPDEST PUSH1 0x40 MLOAD DUP1 SWAP2 SUB SWAP1 RETURN JUMPDEST PUSH2 0x386 PUSH1 0x4 DUP1 CALLDATASIZE SUB DUP2 ADD SWAP1 PUSH2 0x381 SWAP2 SWAP1 PUSH2 0x160A JUMP JUMPDEST PUSH2 0x106F JUMP JUMPDEST PUSH1 0x40 MLOAD PUSH2 0x393 SWAP2 SWAP1 PUSH2 0x1665 JUMP JUMPDEST PUSH1 0x40 MLOAD DUP1 SWAP2 SUB SWAP1 RETURN JUMPDEST PUSH2 0x3B6 PUSH1 0x4 DUP1 CALLDATASIZE SUB DUP2 ADD SWAP1 PUSH2 0x3B1 SWAP2 SWAP1 PUSH2 0x186D JUMP JUMPDEST PUSH2 0x11A0 JUMP JUMPDEST STOP JUMPDEST PUSH2 0x3D2 PUSH1 0x4 DUP1 CALLDATASIZE SUB DUP2 ADD SWAP1 PUSH2 0x3CD SWAP2 SWAP1 PUSH2 0x190F JUMP JUMPDEST PUSH2 0x149A JUMP JUMPDEST PUSH1 0x40 MLOAD PUSH2 0x3DF SWAP2 SWAP1 PUSH2 0x16E5 JUMP JUMPDEST PUSH1 0x40 MLOAD DUP1 SWAP2 SUB SWAP1 RETURN JUMPDEST PUSH1 0x0 DUP1 SLOAD PUSH2 0x3F5 SWAP1 PUSH2 0x197E JUMP JUMPDEST DUP1 PUSH1 0x1F ADD PUSH1 0x20 DUP1 SWAP2 DIV MUL PUSH1 0x20 ADD PUSH1 0x40 MLOAD SWAP1 DUP2 ADD PUSH1 0x40 MSTORE DUP1 SWAP3 SWAP2 SWAP1 DUP2 DUP2 MSTORE PUSH1 0x20 ADD DUP3 DUP1 SLOAD PUSH2 0x421 SWAP1 PUSH2 0x197E JUMP JUMPDEST DUP1 ISZERO PUSH2 0x46E JUMPI DUP1 PUSH1 0x1F LT PUSH2 0x443 JUMPI PUSH2 0x100 DUP1 DUP4 SLOAD DIV MUL DUP4 MSTORE SWAP2 PUSH1 0x20 ADD SWAP2 PUSH2 0x46E JUMP JUMPDEST DUP3 ADD SWAP2 SWAP1 PUSH1 0x0 MSTORE PUSH1 0x20 PUSH1 0x0 KECCAK256 SWAP1 JUMPDEST DUP2 SLOAD DUP2 MSTORE SWAP1 PUSH1 0x1 ADD SWAP1 PUSH1 0x20 ADD DUP1 DUP4 GT PUSH2 0x451 JUMPI DUP3 SWAP1 SUB PUSH1 0x1F AND DUP3 ADD SWAP2 JUMPDEST POP POP POP POP POP DUP2 JUMP JUMPDEST PUSH1 0x0 DUP2 PUSH1 0x5 PUSH1 0x0 CALLER PUSH20 0xFFFFFFFFFFFFFFFFFFFFFFFFFFFFFFFFFFFFFFFF AND PUSH20 0xFFFFFFFFFFFFFFFFFFFFFFFFFFFFFFFFFFFFFFFF AND DUP2 MSTORE PUSH1 0x20 ADD SWAP1 DUP2 MSTORE PUSH1 0x20 ADD PUSH1 0x0 KECCAK256 PUSH1 0x0 DUP6 PUSH20 0xFFFFFFFFFFFFFFFFFFFFFFFFFFFFFFFFFFFFFFFF AND PUSH20 0xFFFFFFFFFFFFFFFFFFFFFFFFFFFFFFFFFFFFFFFF AND DUP2 MSTORE PUSH1 0x20 ADD SWAP1 DUP2 MSTORE PUSH1 0x20 ADD PUSH1 0x0 KECCAK256 DUP2 SWAP1 SSTORE POP DUP3 PUSH20 0xFFFFFFFFFFFFFFFFFFFFFFFFFFFFFFFFFFFFFFFF AND CALLER PUSH20 0xFFFFFFFFFFFFFFFFFFFFFFFFFFFFFFFFFFFFFFFF AND PUSH32 0x8C5BE1E5EBEC7D5BD14F71427D1E84F3DD0314C0F7B2291E5B200AC8C7C3B925 DUP5 PUSH1 0x40 MLOAD PUSH2 0x556 SWAP2 SWAP1 PUSH2 0x16E5 JUMP JUMPDEST PUSH1 0x40 MLOAD DUP1 SWAP2 SUB SWAP1 LOG3 PUSH1 0x1 SWAP1 POP SWAP3 SWAP2 POP POP JUMP JUMPDEST PUSH1 0x9 PUSH1 0x20 MSTORE DUP1 PUSH1 0x0 MSTORE PUSH1 0x40 PUSH1 0x0 KECCAK256 PUSH1 0x0 SWAP2 POP SWAP1 POP DUP1 PUSH1 0x0 ADD SLOAD SWAP1 DUP1 PUSH1 0x1 ADD SLOAD SWAP1 POP DUP3 JUMP JUMPDEST PUSH1 0x3 SLOAD DUP2 JUMP JUMPDEST PUSH1 0x0 DUP2 PUSH1 0x5 PUSH1 0x0 DUP7 PUSH20 0xFFFFFFFFFFFFFFFFFFFFFFFFFFFFFFFFFFFFFFFF AND PUSH20 0xFFFFFFFFFFFFFFFFFFFFFFFFFFFFFFFFFFFFFFFF AND DUP2 MSTORE PUSH1 0x20 ADD SWAP1 DUP2 MSTORE PUSH1 0x20 ADD PUSH1 0x0 KECCAK256 PUSH1 0x0 CALLER PUSH20 0xFFFFFFFFFFFFFFFFFFFFFFFFFFFFFFFFFFFFFFFF AND PUSH20 0xFFFFFFFFFFFFFFFFFFFFFFFFFFFFFFFFFFFFFFFF AND DUP2 MSTORE PUSH1 0x20 ADD SWAP1 DUP2 MSTORE PUSH1 0x20 ADD PUSH1 0x0 KECCAK256 SLOAD LT ISZERO PUSH2 0x653 JUMPI PUSH1 0x40 MLOAD PUSH32 0x8C379A000000000000000000000000000000000000000000000000000000000 DUP2 MSTORE PUSH1 0x4 ADD PUSH2 0x64A SWAP1 PUSH2 0x19FB JUMP JUMPDEST PUSH1 0x40 MLOAD DUP1 SWAP2 SUB SWAP1 REVERT JUMPDEST DUP2 PUSH1 0x4 PUSH1 0x0 DUP7 PUSH20 0xFFFFFFFFFFFFFFFFFFFFFFFFFFFFFFFFFFFFFFFF AND PUSH20 0xFFFFFFFFFFFFFFFFFFFFFFFFFFFFFFFFFFFFFFFF AND DUP2 MSTORE PUSH1 0x20 ADD SWAP1 DUP2 MSTORE PUSH1 0x20 ADD PUSH1 0x0 KECCAK256 SLOAD LT ISZERO PUSH2 0x6D5 JUMPI PUSH1 0x40 MLOAD PUSH32 0x8C379A000000000000000000000000000000000000000000000000000000000 DUP2 MSTORE PUSH1 0x4 ADD PUSH2 0x6CC SWAP1 PUSH2 0x1A67 JUMP JUMPDEST PUSH1 0x40 MLOAD DUP1 SWAP2 SUB SWAP1 REVERT JUMPDEST DUP2 PUSH1 0x5 PUSH1 0x0 DUP7 PUSH20 0xFFFFFFFFFFFFFFFFFFFFFFFFFFFFFFFFFFFFFFFF AND PUSH20 0xFFFFFFFFFFFFFFFFFFFFFFFFFFFFFFFFFFFFFFFF AND DUP2 MSTORE PUSH1 0x20 ADD SWAP1 DUP2 MSTORE PUSH1 0x20 ADD PUSH1 0x0 KECCAK256 PUSH1 0x0 CALLER PUSH20 0xFFFFFFFFFFFFFFFFFFFFFFFFFFFFFFFFFFFFFFFF AND PUSH20 0xFFFFFFFFFFFFFFFFFFFFFFFFFFFFFFFFFFFFFFFF AND DUP2 MSTORE PUSH1 0x20 ADD SWAP1 DUP2 MSTORE PUSH1 0x20 ADD PUSH1 0x0 KECCAK256 PUSH1 0x0 DUP3 DUP3 SLOAD SUB SWAP3 POP POP DUP2 SWAP1 SSTORE POP DUP2 PUSH1 0x4 PUSH1 0x0 DUP7 PUSH20 0xFFFFFFFFFFFFFFFFFFFFFFFFFFFFFFFFFFFFFFFF AND PUSH20 0xFFFFFFFFFFFFFFFFFFFFFFFFFFFFFFFFFFFFFFFF AND DUP2 MSTORE PUSH1 0x20 ADD SWAP1 DUP2 MSTORE PUSH1 0x20 ADD PUSH1 0x0 KECCAK256 PUSH1 0x0 DUP3 DUP3 SLOAD SUB SWAP3 POP POP DUP2 SWAP1 SSTORE POP DUP2 PUSH1 0x4 PUSH1 0x0 DUP6 PUSH20 0xFFFFFFFFFFFFFFFFFFFFFFFFFFFFFFFFFFFFFFFF AND PUSH20 0xFFFFFFFFFFFFFFFFFFFFFFFFFFFFFFFFFFFFFFFF AND DUP2 MSTORE PUSH1 0x20 ADD SWAP1 DUP2 MSTORE PUSH1 0x20 ADD PUSH1 0x0 KECCAK256 PUSH1 0x0 DUP3 DUP3 SLOAD ADD SWAP3 POP POP DUP2 SWAP1 SSTORE POP DUP3 PUSH20 0xFFFFFFFFFFFFFFFFFFFFFFFFFFFFFFFFFFFFFFFF AND DUP5 PUSH20 0xFFFFFFFFFFFFFFFFFFFFFFFFFFFFFFFFFFFFFFFF AND PUSH32 0xDDF252AD1BE2C89B69C2B068FC378DAA952BA7F163C4A11628F55A4DF523B3EF DUP5 PUSH1 0x40 MLOAD PUSH2 0x856 SWAP2 SWAP1 PUSH2 0x16E5 JUMP JUMPDEST PUSH1 0x40 MLOAD DUP1 SWAP2 SUB SWAP1 LOG3 PUSH1 0x1 SWAP1 POP SWAP4 SWAP3 POP POP POP JUMP JUMPDEST PUSH1 0x2 PUSH1 0x0 SWAP1 SLOAD SWAP1 PUSH2 0x100 EXP SWAP1 DIV PUSH1 0xFF AND DUP2 JUMP JUMPDEST PUSH1 0x6 SLOAD DUP2 JUMP JUMPDEST PUSH1 0x0 DUP2 PUSH1 0x9 PUSH1 0x0 CALLER PUSH20 0xFFFFFFFFFFFFFFFFFFFFFFFFFFFFFFFFFFFFFFFF AND PUSH20 0xFFFFFFFFFFFFFFFFFFFFFFFFFFFFFFFFFFFFFFFF AND DUP2 MSTORE PUSH1 0x20 ADD SWAP1 DUP2 MSTORE PUSH1 0x20 ADD PUSH1 0x0 KECCAK256 PUSH1 0x1 ADD SLOAD LT ISZERO PUSH2 0x909 JUMPI PUSH1 0x40 MLOAD PUSH32 0x8C379A000000000000000000000000000000000000000000000000000000000 DUP2 MSTORE PUSH1 0x4 ADD PUSH2 0x900 SWAP1 PUSH2 0x1AD3 JUMP JUMPDEST PUSH1 0x40 MLOAD DUP1 SWAP2 SUB SWAP1 REVERT JUMPDEST DUP2 PUSH1 0x4 PUSH1 0x0 CALLER PUSH20 0xFFFFFFFFFFFFFFFFFFFFFFFFFFFFFFFFFFFFFFFF AND PUSH20 0xFFFFFFFFFFFFFFFFFFFFFFFFFFFFFFFFFFFFFFFF AND DUP2 MSTORE PUSH1 0x20 ADD SWAP1 DUP2 MSTORE PUSH1 0x20 ADD PUSH1 0x0 KECCAK256 SLOAD LT ISZERO PUSH2 0x98B JUMPI PUSH1 0x40 MLOAD PUSH32 0x8C379A000000000000000000000000000000000000000000000000000000000 DUP2 MSTORE PUSH1 0x4 ADD PUSH2 0x982 SWAP1 PUSH2 0x1A67 JUMP JUMPDEST PUSH1 0x40 MLOAD DUP1 SWAP2 SUB SWAP1 REVERT JUMPDEST DUP2 PUSH1 0x9 PUSH1 0x0 CALLER PUSH20 0xFFFFFFFFFFFFFFFFFFFFFFFFFFFFFFFFFFFFFFFF AND PUSH20 0xFFFFFFFFFFFFFFFFFFFFFFFFFFFFFFFFFFFFFFFF AND DUP2 MSTORE PUSH1 0x20 ADD SWAP1 DUP2 MSTORE PUSH1 0x20 ADD PUSH1 0x0 KECCAK256 PUSH1 0x1 ADD PUSH1 0x0 DUP3 DUP3 SLOAD SUB SWAP3 POP POP DUP2 SWAP1 SSTORE POP DUP2 PUSH1 0x4 PUSH1 0x0 CALLER PUSH20 0xFFFFFFFFFFFFFFFFFFFFFFFFFFFFFFFFFFFFFFFF AND PUSH20 0xFFFFFFFFFFFFFFFFFFFFFFFFFFFFFFFFFFFFFFFF AND DUP2 MSTORE PUSH1 0x20 ADD SWAP1 DUP2 MSTORE PUSH1 0x20 ADD PUSH1 0x0 KECCAK256 PUSH1 0x0 DUP3 DUP3 SLOAD SUB SWAP3 POP POP DUP2 SWAP1 SSTORE POP DUP2 PUSH1 0x3 PUSH1 0x0 DUP3 DUP3 SLOAD SUB SWAP3 POP POP DUP2 SWAP1 SSTORE POP PUSH1 0x0 PUSH20 0xFFFFFFFFFFFFFFFFFFFFFFFFFFFFFFFFFFFFFFFF AND CALLER PUSH20 0xFFFFFFFFFFFFFFFFFFFFFFFFFFFFFFFFFFFFFFFF AND PUSH32 0xDDF252AD1BE2C89B69C2B068FC378DAA952BA7F163C4A11628F55A4DF523B3EF DUP5 PUSH1 0x40 MLOAD PUSH2 0xA96 SWAP2 SWAP1 PUSH2 0x16E5 JUMP JUMPDEST PUSH1 0x40 MLOAD DUP1 SWAP2 SUB SWAP1 LOG3 PUSH1 0x1 SWAP1 POP SWAP2 SWAP1 POP JUMP JUMPDEST PUSH1 0x4 PUSH1 0x20 MSTORE DUP1 PUSH1 0x0 MSTORE PUSH1 0x40 PUSH1 0x0 KECCAK256 PUSH1 0x0 SWAP2 POP SWAP1 POP SLOAD DUP2 JUMP JUMPDEST PUSH1 0x7 PUSH1 0x20 MSTORE DUP1 PUSH1 0x0 MSTORE PUSH1 0x40 PUSH1 0x0 KECCAK256 PUSH1 0x0 SWAP2 POP SWAP1 POP SLOAD DUP2 JUMP JUMPDEST PUSH1 0x8 PUSH1 0x0 SWAP1 SLOAD SWAP1 PUSH2 0x100 EXP SWAP1 DIV PUSH20 0xFFFFFFFFFFFFFFFFFFFFFFFFFFFFFFFFFFFFFFFF AND PUSH20 0xFFFFFFFFFFFFFFFFFFFFFFFFFFFFFFFFFFFFFFFF AND CALLER PUSH20 0xFFFFFFFFFFFFFFFFFFFFFFFFFFFFFFFFFFFFFFFF AND EQ PUSH2 0xB67 JUMPI PUSH1 0x40 MLOAD PUSH32 0x8C379A000000000000000000000000000000000000000000000000000000000 DUP2 MSTORE PUSH1 0x4 ADD PUSH2 0xB5E SWAP1 PUSH2 0x1B3F JUMP JUMPDEST PUSH1 0x40 MLOAD DUP1 SWAP2 SUB SWAP1 REVERT JUMPDEST DUP1 PUSH1 0x8 PUSH1 0x0 PUSH2 0x100 EXP DUP2 SLOAD DUP2 PUSH20 0xFFFFFFFFFFFFFFFFFFFFFFFFFFFFFFFFFFFFFFFF MUL NOT AND SWAP1 DUP4 PUSH20 0xFFFFFFFFFFFFFFFFFFFFFFFFFFFFFFFFFFFFFFFF AND MUL OR SWAP1 SSTORE POP DUP1 PUSH20 0xFFFFFFFFFFFFFFFFFFFFFFFFFFFFFFFFFFFFFFFF AND PUSH32 0x84022644CE39DE434E8F39C4398A3628815893104188274C37205D41C2D50967 PUSH1 0x40 MLOAD PUSH1 0x40 MLOAD DUP1 SWAP2 SUB SWAP1 LOG2 POP JUMP JUMPDEST PUSH1 0x8 PUSH1 0x0 SWAP1 SLOAD SWAP1 PUSH2 0x100 EXP SWAP1 DIV PUSH20 0xFFFFFFFFFFFFFFFFFFFFFFFFFFFFFFFFFFFFFFFF AND DUP2 JUMP JUMPDEST PUSH1 0x1 DUP1 SLOAD PUSH2 0xC21 SWAP1 PUSH2 0x197E JUMP JUMPDEST DUP1 PUSH1 0x1F ADD PUSH1 0x20 DUP1 SWAP2 DIV MUL PUSH1 0x20 ADD PUSH1 0x40 MLOAD SWAP1 DUP2 ADD PUSH1 0x40 MSTORE DUP1 SWAP3 SWAP2 SWAP1 DUP2 DUP2 MSTORE PUSH1 0x20 ADD DUP3 DUP1 SLOAD PUSH2 0xC4D SWAP1 PUSH2 0x197E JUMP JUMPDEST DUP1 ISZERO PUSH2 0xC9A JUMPI DUP1 PUSH1 0x1F LT PUSH2 0xC6F JUMPI PUSH2 0x100 DUP1 DUP4 SLOAD DIV MUL DUP4 MSTORE SWAP2 PUSH1 0x20 ADD SWAP2 PUSH2 0xC9A JUMP JUMPDEST DUP3 ADD SWAP2 SWAP1 PUSH1 0x0 MSTORE PUSH1 0x20 PUSH1 0x0 KECCAK256 SWAP1 JUMPDEST DUP2 SLOAD DUP2 MSTORE SWAP1 PUSH1 0x1 ADD SWAP1 PUSH1 0x20 ADD DUP1 DUP4 GT PUSH2 0xC7D JUMPI DUP3 SWAP1 SUB PUSH1 0x1F AND DUP3 ADD SWAP2 JUMPDEST POP POP POP POP POP DUP2 JUMP JUMPDEST PUSH1 0x0 DUP2 PUSH1 0x9 PUSH1 0x0 CALLER PUSH20 0xFFFFFFFFFFFFFFFFFFFFFFFFFFFFFFFFFFFFFFFF AND PUSH20 0xFFFFFFFFFFFFFFFFFFFFFFFFFFFFFFFFFFFFFFFF AND DUP2 MSTORE PUSH1 0x20 ADD SWAP1 DUP2 MSTORE PUSH1 0x20 ADD PUSH1 0x0 KECCAK256 PUSH1 0x1 ADD SLOAD PUSH2 0xCF2 SWAP2 SWAP1 PUSH2 0x1B8E JUMP JUMPDEST PUSH1 0x9 PUSH1 0x0 CALLER PUSH20 0xFFFFFFFFFFFFFFFFFFFFFFFFFFFFFFFFFFFFFFFF AND PUSH20 0xFFFFFFFFFFFFFFFFFFFFFFFFFFFFFFFFFFFFFFFF AND DUP2 MSTORE PUSH1 0x20 ADD SWAP1 DUP2 MSTORE PUSH1 0x20 ADD PUSH1 0x0 KECCAK256 PUSH1 0x0 ADD SLOAD LT ISZERO PUSH2 0xD76 JUMPI PUSH1 0x40 MLOAD PUSH32 0x8C379A000000000000000000000000000000000000000000000000000000000 DUP2 MSTORE PUSH1 0x4 ADD PUSH2 0xD6D SWAP1 PUSH2 0x1C0E JUMP JUMPDEST PUSH1 0x40 MLOAD DUP1 SWAP2 SUB SWAP1 REVERT JUMPDEST DUP2 DUP3 PUSH1 0x3 SLOAD PUSH2 0xD85 SWAP2 SWAP1 PUSH2 0x1B8E JUMP JUMPDEST LT ISZERO PUSH2 0xDC6 JUMPI PUSH1 0x40 MLOAD PUSH32 0x8C379A000000000000000000000000000000000000000000000000000000000 DUP2 MSTORE PUSH1 0x4 ADD PUSH2 0xDBD SWAP1 PUSH2 0x1C7A JUMP JUMPDEST PUSH1 0x40 MLOAD DUP1 SWAP2 SUB SWAP1 REVERT JUMPDEST DUP2 PUSH1 0x9 PUSH1 0x0 CALLER PUSH20 0xFFFFFFFFFFFFFFFFFFFFFFFFFFFFFFFFFFFFFFFF AND PUSH20 0xFFFFFFFFFFFFFFFFFFFFFFFFFFFFFFFFFFFFFFFF AND DUP2 MSTORE PUSH1 0x20 ADD SWAP1 DUP2 MSTORE PUSH1 0x20 ADD PUSH1 0x0 KECCAK256 PUSH1 0x1 ADD PUSH1 0x0 DUP3 DUP3 SLOAD ADD SWAP3 POP POP DUP2 SWAP1 SSTORE POP DUP2 PUSH1 0x4 PUSH1 0x0 CALLER PUSH20 0xFFFFFFFFFFFFFFFFFFFFFFFFFFFFFFFFFFFFFFFF AND PUSH20 0xFFFFFFFFFFFFFFFFFFFFFFFFFFFFFFFFFFFFFFFF AND DUP2 MSTORE PUSH1 0x20 ADD SWAP1 DUP2 MSTORE PUSH1 0x20 ADD PUSH1 0x0 KECCAK256 PUSH1 0x0 DUP3 DUP3 SLOAD ADD SWAP3 POP POP DUP2 SWAP1 SSTORE POP DUP2 PUSH1 0x3 PUSH1 0x0 DUP3 DUP3 SLOAD ADD SWAP3 POP POP DUP2 SWAP1 SSTORE POP CALLER PUSH20 0xFFFFFFFFFFFFFFFFFFFFFFFFFFFFFFFFFFFFFFFF AND PUSH1 0x0 PUSH20 0xFFFFFFFFFFFFFFFFFFFFFFFFFFFFFFFFFFFFFFFF AND PUSH32 0xDDF252AD1BE2C89B69C2B068FC378DAA952BA7F163C4A11628F55A4DF523B3EF DUP5 PUSH1 0x40 MLOAD PUSH2 0xED1 SWAP2 SWAP1 PUSH2 0x16E5 JUMP JUMPDEST PUSH1 0x40 MLOAD DUP1 SWAP2 SUB SWAP1 LOG3 PUSH1 0x1 SWAP1 POP SWAP2 SWAP1 POP JUMP JUMPDEST PUSH1 0x0 DUP2 PUSH1 0x4 PUSH1 0x0 CALLER PUSH20 0xFFFFFFFFFFFFFFFFFFFFFFFFFFFFFFFFFFFFFFFF AND PUSH20 0xFFFFFFFFFFFFFFFFFFFFFFFFFFFFFFFFFFFFFFFF AND DUP2 MSTORE PUSH1 0x20 ADD SWAP1 DUP2 MSTORE PUSH1 0x20 ADD PUSH1 0x0 KECCAK256 SLOAD LT ISZERO PUSH2 0xF66 JUMPI PUSH1 0x40 MLOAD PUSH32 0x8C379A000000000000000000000000000000000000000000000000000000000 DUP2 MSTORE PUSH1 0x4 ADD PUSH2 0xF5D SWAP1 PUSH2 0x1A67 JUMP JUMPDEST PUSH1 0x40 MLOAD DUP1 SWAP2 SUB SWAP1 REVERT JUMPDEST DUP2 PUSH1 0x4 PUSH1 0x0 CALLER PUSH20 0xFFFFFFFFFFFFFFFFFFFFFFFFFFFFFFFFFFFFFFFF AND PUSH20 0xFFFFFFFFFFFFFFFFFFFFFFFFFFFFFFFFFFFFFFFF AND DUP2 MSTORE PUSH1 0x20 ADD SWAP1 DUP2 MSTORE PUSH1 0x20 ADD PUSH1 0x0 KECCAK256 PUSH1 0x0 DUP3 DUP3 SLOAD SUB SWAP3 POP POP DUP2 SWAP1 SSTORE POP DUP2 PUSH1 0x4 PUSH1 0x0 DUP6 PUSH20 0xFFFFFFFFFFFFFFFFFFFFFFFFFFFFFFFFFFFFFFFF AND PUSH20 0xFFFFFFFFFFFFFFFFFFFFFFFFFFFFFFFFFFFFFFFF AND DUP2 MSTORE PUSH1 0x20 ADD SWAP1 DUP2 MSTORE PUSH1 0x20 ADD PUSH1 0x0 KECCAK256 PUSH1 0x0 DUP3 DUP3 SLOAD ADD SWAP3 POP POP DUP2 SWAP1 SSTORE POP DUP3 PUSH20 0xFFFFFFFFFFFFFFFFFFFFFFFFFFFFFFFFFFFFFFFF AND CALLER PUSH20 0xFFFFFFFFFFFFFFFFFFFFFFFFFFFFFFFFFFFFFFFF AND PUSH32 0xDDF252AD1BE2C89B69C2B068FC378DAA952BA7F163C4A11628F55A4DF523B3EF DUP5 PUSH1 0x40 MLOAD PUSH2 0x105D SWAP2 SWAP1 PUSH2 0x16E5 JUMP JUMPDEST PUSH1 0x40 MLOAD DUP1 SWAP2 SUB SWAP1 LOG3 PUSH1 0x1 SWAP1 POP SWAP3 SWAP2 POP POP JUMP JUMPDEST PUSH1 0x0 PUSH1 0x8 PUSH1 0x0 SWAP1 SLOAD SWAP1 PUSH2 0x100 EXP SWAP1 DIV PUSH20 0xFFFFFFFFFFFFFFFFFFFFFFFFFFFFFFFFFFFFFFFF AND PUSH20 0xFFFFFFFFFFFFFFFFFFFFFFFFFFFFFFFFFFFFFFFF AND CALLER PUSH20 0xFFFFFFFFFFFFFFFFFFFFFFFFFFFFFFFFFFFFFFFF AND EQ PUSH2 0x1101 JUMPI PUSH1 0x40 MLOAD PUSH32 0x8C379A000000000000000000000000000000000000000000000000000000000 DUP2 MSTORE PUSH1 0x4 ADD PUSH2 0x10F8 SWAP1 PUSH2 0x1B3F JUMP JUMPDEST PUSH1 0x40 MLOAD DUP1 SWAP2 SUB SWAP1 REVERT JUMPDEST DUP2 PUSH1 0x9 PUSH1 0x0 DUP6 PUSH20 0xFFFFFFFFFFFFFFFFFFFFFFFFFFFFFFFFFFFFFFFF AND PUSH20 0xFFFFFFFFFFFFFFFFFFFFFFFFFFFFFFFFFFFFFFFF AND DUP2 MSTORE PUSH1 0x20 ADD SWAP1 DUP2 MSTORE PUSH1 0x20 ADD PUSH1 0x0 KECCAK256 PUSH1 0x0 ADD DUP2 SWAP1 SSTORE POP DUP3 PUSH20 0xFFFFFFFFFFFFFFFFFFFFFFFFFFFFFFFFFFFFFFFF AND PUSH32 0xD695C44A53C79151B2C1E3151223D9A860164774700406F2D9C69CEAD40277BC DUP4 PUSH1 0x40 MLOAD PUSH2 0x118E SWAP2 SWAP1 PUSH2 0x16E5 JUMP JUMPDEST PUSH1 0x40 MLOAD DUP1 SWAP2 SUB SWAP1 LOG2 PUSH1 0x1 SWAP1 POP SWAP3 SWAP2 POP POP JUMP JUMPDEST TIMESTAMP DUP5 LT ISZERO PUSH2 0x11E3 JUMPI PUSH1 0x40 MLOAD PUSH32 0x8C379A000000000000000000000000000000000000000000000000000000000 DUP2 MSTORE PUSH1 0x4 ADD PUSH2 0x11DA SWAP1 PUSH2 0x1CE6 JUMP JUMPDEST PUSH1 0x40 MLOAD DUP1 SWAP2 SUB SWAP1 REVERT JUMPDEST PUSH1 0x0 PUSH1 0x6 SLOAD PUSH32 0x6E71EDAE12B1B97F4D1F60370FEF10105FA2FAAE0126114A169C64845D6126C9 DUP10 DUP10 DUP10 PUSH1 0x7 PUSH1 0x0 DUP15 PUSH20 0xFFFFFFFFFFFFFFFFFFFFFFFFFFFFFFFFFFFFFFFF AND PUSH20 0xFFFFFFFFFFFFFFFFFFFFFFFFFFFFFFFFFFFFFFFF AND DUP2 MSTORE PUSH1 0x20 ADD SWAP1 DUP2 MSTORE PUSH1 0x20 ADD PUSH1 0x0 KECCAK256 PUSH1 0x0 DUP2 SLOAD DUP1 SWAP3 SWAP2 SWAP1 PUSH1 0x1 ADD SWAP2 SWAP1 POP SSTORE DUP11 PUSH1 0x40 MLOAD PUSH1 0x20 ADD PUSH2 0x1270 SWAP7 SWAP6 SWAP5 SWAP4 SWAP3 SWAP2 SWAP1 PUSH2 0x1D06 JUMP JUMPDEST PUSH1 0x40 MLOAD PUSH1 0x20 DUP2 DUP4 SUB SUB DUP2 MSTORE SWAP1 PUSH1 0x40 MSTORE DUP1 MLOAD SWAP1 PUSH1 0x20 ADD KECCAK256 PUSH1 0x40 MLOAD PUSH1 0x20 ADD PUSH2 0x1297 SWAP3 SWAP2 SWAP1 PUSH2 0x1DDF JUMP JUMPDEST PUSH1 0x40 MLOAD PUSH1 0x20 DUP2 DUP4 SUB SUB DUP2 MSTORE SWAP1 PUSH1 0x40 MSTORE DUP1 MLOAD SWAP1 PUSH1 0x20 ADD KECCAK256 SWAP1 POP PUSH1 0x0 PUSH1 0x1 DUP3 DUP7 DUP7 DUP7 PUSH1 0x40 MLOAD PUSH1 0x0 DUP2 MSTORE PUSH1 0x20 ADD PUSH1 0x40 MSTORE PUSH1 0x40 MLOAD PUSH2 0x12D4 SWAP5 SWAP4 SWAP3 SWAP2 SWAP1 PUSH2 0x1E16 JUMP JUMPDEST PUSH1 0x20 PUSH1 0x40 MLOAD PUSH1 0x20 DUP2 SUB SWAP1 DUP1 DUP5 SUB SWAP1 DUP6 GAS STATICCALL ISZERO DUP1 ISZERO PUSH2 0x12F6 JUMPI RETURNDATASIZE PUSH1 0x0 DUP1 RETURNDATACOPY RETURNDATASIZE PUSH1 0x0 REVERT JUMPDEST POP POP POP PUSH1 0x20 PUSH1 0x40 MLOAD SUB MLOAD SWAP1 POP PUSH1 0x0 PUSH20 0xFFFFFFFFFFFFFFFFFFFFFFFFFFFFFFFFFFFFFFFF AND DUP2 PUSH20 0xFFFFFFFFFFFFFFFFFFFFFFFFFFFFFFFFFFFFFFFF AND EQ ISZERO DUP1 ISZERO PUSH2 0x136A JUMPI POP DUP9 PUSH20 0xFFFFFFFFFFFFFFFFFFFFFFFFFFFFFFFFFFFFFFFF AND DUP2 PUSH20 0xFFFFFFFFFFFFFFFFFFFFFFFFFFFFFFFFFFFFFFFF AND EQ JUMPDEST PUSH2 0x13A9 JUMPI PUSH1 0x40 MLOAD PUSH32 0x8C379A000000000000000000000000000000000000000000000000000000000 DUP2 MSTORE PUSH1 0x4 ADD PUSH2 0x13A0 SWAP1 PUSH2 0x1EA7 JUMP JUMPDEST PUSH1 0x40 MLOAD DUP1 SWAP2 SUB SWAP1 REVERT JUMPDEST DUP7 PUSH1 0x5 PUSH1 0x0 DUP4 PUSH20 0xFFFFFFFFFFFFFFFFFFFFFFFFFFFFFFFFFFFFFFFF AND PUSH20 0xFFFFFFFFFFFFFFFFFFFFFFFFFFFFFFFFFFFFFFFF AND DUP2 MSTORE PUSH1 0x20 ADD SWAP1 DUP2 MSTORE PUSH1 0x20 ADD PUSH1 0x0 KECCAK256 PUSH1 0x0 DUP11 PUSH20 0xFFFFFFFFFFFFFFFFFFFFFFFFFFFFFFFFFFFFFFFF AND PUSH20 0xFFFFFFFFFFFFFFFFFFFFFFFFFFFFFFFFFFFFFFFF AND DUP2 MSTORE PUSH1 0x20 ADD SWAP1 DUP2 MSTORE PUSH1 0x20 ADD PUSH1 0x0 KECCAK256 DUP2 SWAP1 SSTORE POP POP POP DUP6 PUSH20 0xFFFFFFFFFFFFFFFFFFFFFFFFFFFFFFFFFFFFFFFF AND DUP8 PUSH20 0xFFFFFFFFFFFFFFFFFFFFFFFFFFFFFFFFFFFFFFFF AND PUSH32 0x8C5BE1E5EBEC7D5BD14F71427D1E84F3DD0314C0F7B2291E5B200AC8C7C3B925 DUP8 PUSH1 0x40 MLOAD PUSH2 0x1489 SWAP2 SWAP1 PUSH2 0x16E5 JUMP JUMPDEST PUSH1 0x40 MLOAD DUP1 SWAP2 SUB SWAP1 LOG3 POP POP POP POP POP POP POP JUMP JUMPDEST PUSH1 0x5 PUSH1 0x20 MSTORE DUP2 PUSH1 0x0 MSTORE PUSH1 0x40 PUSH1 0x0 KECCAK256 PUSH1 0x20 MSTORE DUP1 PUSH1 0x0 MSTORE PUSH1 0x40 PUSH1 0x0 KECCAK256 PUSH1 0x0 SWAP2 POP SWAP2 POP POP SLOAD DUP2 JUMP JUMPDEST PUSH1 0x0 DUP2 MLOAD SWAP1 POP SWAP2 SWAP1 POP JUMP JUMPDEST PUSH1 0x0 DUP3 DUP3 MSTORE PUSH1 0x20 DUP3 ADD SWAP1 POP SWAP3 SWAP2 POP POP JUMP JUMPDEST PUSH1 0x0 JUMPDEST DUP4 DUP2 LT ISZERO PUSH2 0x14F9 JUMPI DUP1 DUP3 ADD MLOAD DUP2 DUP5 ADD MSTORE PUSH1 0x20 DUP2 ADD SWAP1 POP PUSH2 0x14DE JUMP JUMPDEST PUSH1 0x0 DUP5 DUP5 ADD MSTORE POP POP POP POP JUMP JUMPDEST PUSH1 0x0 PUSH1 0x1F NOT PUSH1 0x1F DUP4 ADD AND SWAP1 POP SWAP2 SWAP1 POP JUMP JUMPDEST PUSH1 0x0 PUSH2 0x1521 DUP3 PUSH2 0x14BF JUMP JUMPDEST PUSH2 0x152B DUP2 DUP6 PUSH2 0x14CA JUMP JUMPDEST SWAP4 POP PUSH2 0x153B DUP2 DUP6 PUSH1 0x20 DUP7 ADD PUSH2 0x14DB JUMP JUMPDEST PUSH2 0x1544 DUP2 PUSH2 0x1505 JUMP JUMPDEST DUP5 ADD SWAP2 POP POP SWAP3 SWAP2 POP POP JUMP JUMPDEST PUSH1 0x0 PUSH1 0x20 DUP3 ADD SWAP1 POP DUP2 DUP2 SUB PUSH1 0x0 DUP4 ADD MSTORE PUSH2 0x1569 DUP2 DUP5 PUSH2 0x1516 JUMP JUMPDEST SWAP1 POP SWAP3 SWAP2 POP POP JUMP JUMPDEST PUSH1 0x0 DUP1 REVERT JUMPDEST PUSH1 0x0 PUSH20 0xFFFFFFFFFFFFFFFFFFFFFFFFFFFFFFFFFFFFFFFF DUP3 AND SWAP1 POP SWAP2 SWAP1 POP JUMP JUMPDEST PUSH1 0x0 PUSH2 0x15A1 DUP3 PUSH2 0x1576 JUMP JUMPDEST SWAP1 POP SWAP2 SWAP1 POP JUMP JUMPDEST PUSH2 0x15B1 DUP2 PUSH2 0x1596 JUMP JUMPDEST DUP2 EQ PUSH2 0x15BC JUMPI PUSH1 0x0 DUP1 REVERT JUMPDEST POP JUMP JUMPDEST PUSH1 0x0 DUP2 CALLDATALOAD SWAP1 POP PUSH2 0x15CE DUP2 PUSH2 0x15A8 JUMP JUMPDEST SWAP3 SWAP2 POP POP JUMP JUMPDEST PUSH1 0x0 DUP2 SWAP1 POP SWAP2 SWAP1 POP JUMP JUMPDEST PUSH2 0x15E7 DUP2 PUSH2 0x15D4 JUMP JUMPDEST DUP2 EQ PUSH2 0x15F2 JUMPI PUSH1 0x0 DUP1 REVERT JUMPDEST POP JUMP JUMPDEST PUSH1 0x0 DUP2 CALLDATALOAD SWAP1 POP PUSH2 0x1604 DUP2 PUSH2 0x15DE JUMP JUMPDEST SWAP3 SWAP2 POP POP JUMP JUMPDEST PUSH1 0x0 DUP1 PUSH1 0x40 DUP4 DUP6 SUB SLT ISZERO PUSH2 0x1621 JUMPI PUSH2 0x1620 PUSH2 0x1571 JUMP JUMPDEST JUMPDEST PUSH1 0x0 PUSH2 0x162F DUP6 DUP3 DUP7 ADD PUSH2 0x15BF JUMP JUMPDEST SWAP3 POP POP PUSH1 0x20 PUSH2 0x1640 DUP6 DUP3 DUP7 ADD PUSH2 0x15F5 JUMP JUMPDEST SWAP2 POP POP SWAP3 POP SWAP3 SWAP1 POP JUMP JUMPDEST PUSH1 0x0 DUP2 ISZERO ISZERO SWAP1 POP SWAP2 SWAP1 POP JUMP JUMPDEST PUSH2 0x165F DUP2 PUSH2 0x164A JUMP JUMPDEST DUP3 MSTORE POP POP JUMP JUMPDEST PUSH1 0x0 PUSH1 0x20 DUP3 ADD SWAP1 POP PUSH2 0x167A PUSH1 0x0 DUP4 ADD DUP5 PUSH2 0x1656 JUMP JUMPDEST SWAP3 SWAP2 POP POP JUMP JUMPDEST PUSH1 0x0 PUSH1 0x20 DUP3 DUP5 SUB SLT ISZERO PUSH2 0x1696 JUMPI PUSH2 0x1695 PUSH2 0x1571 JUMP JUMPDEST JUMPDEST PUSH1 0x0 PUSH2 0x16A4 DUP5 DUP3 DUP6 ADD PUSH2 0x15BF JUMP JUMPDEST SWAP2 POP POP SWAP3 SWAP2 POP POP JUMP JUMPDEST PUSH2 0x16B6 DUP2 PUSH2 0x15D4 JUMP JUMPDEST DUP3 MSTORE POP POP JUMP JUMPDEST PUSH1 0x0 PUSH1 0x40 DUP3 ADD SWAP1 POP PUSH2 0x16D1 PUSH1 0x0 DUP4 ADD DUP6 PUSH2 0x16AD JUMP JUMPDEST PUSH2 0x16DE PUSH1 0x20 DUP4 ADD DUP5 PUSH2 0x16AD JUMP JUMPDEST SWAP4 SWAP3 POP POP POP JUMP JUMPDEST PUSH1 0x0 PUSH1 0x20 DUP3 ADD SWAP1 POP PUSH2 0x16FA PUSH1 0x0 DUP4 ADD DUP5 PUSH2 0x16AD JUMP JUMPDEST SWAP3 SWAP2 POP POP JUMP JUMPDEST PUSH1 0x0 DUP1 PUSH1 0x0 PUSH1 0x60 DUP5 DUP7 SUB SLT ISZERO PUSH2 0x1719 JUMPI PUSH2 0x1718 PUSH2 0x1571 JUMP JUMPDEST JUMPDEST PUSH1 0x0 PUSH2 0x1727 DUP7 DUP3 DUP8 ADD PUSH2 0x15BF JUMP JUMPDEST SWAP4 POP POP PUSH1 0x20 PUSH2 0x1738 DUP7 DUP3 DUP8 ADD PUSH2 0x15BF JUMP JUMPDEST SWAP3 POP POP PUSH1 0x40 PUSH2 0x1749 DUP7 DUP3 DUP8 ADD PUSH2 0x15F5 JUMP JUMPDEST SWAP2 POP POP SWAP3 POP SWAP3 POP SWAP3 JUMP JUMPDEST PUSH1 0x0 PUSH1 0xFF DUP3 AND SWAP1 POP SWAP2 SWAP1 POP JUMP JUMPDEST PUSH2 0x1769 DUP2 PUSH2 0x1753 JUMP JUMPDEST DUP3 MSTORE POP POP JUMP JUMPDEST PUSH1 0x0 PUSH1 0x20 DUP3 ADD SWAP1 POP PUSH2 0x1784 PUSH1 0x0 DUP4 ADD DUP5 PUSH2 0x1760 JUMP JUMPDEST SWAP3 SWAP2 POP POP JUMP JUMPDEST PUSH1 0x0 DUP2 SWAP1 POP SWAP2 SWAP1 POP JUMP JUMPDEST PUSH2 0x179D DUP2 PUSH2 0x178A JUMP JUMPDEST DUP3 MSTORE POP POP JUMP JUMPDEST PUSH1 0x0 PUSH1 0x20 DUP3 ADD SWAP1 POP PUSH2 0x17B8 PUSH1 0x0 DUP4 ADD DUP5 PUSH2 0x1794 JUMP JUMPDEST SWAP3 SWAP2 POP POP JUMP JUMPDEST PUSH1 0x0 PUSH1 0x20 DUP3 DUP5 SUB SLT ISZERO PUSH2 0x17D4 JUMPI PUSH2 0x17D3 PUSH2 0x1571 JUMP JUMPDEST JUMPDEST PUSH1 0x0 PUSH2 0x17E2 DUP5 DUP3 DUP6 ADD PUSH2 0x15F5 JUMP JUMPDEST SWAP2 POP POP SWAP3 SWAP2 POP POP JUMP JUMPDEST PUSH2 0x17F4 DUP2 PUSH2 0x1596 JUMP JUMPDEST DUP3 MSTORE POP POP JUMP JUMPDEST PUSH1 0x0 PUSH1 0x20 DUP3 ADD SWAP1 POP PUSH2 0x180F PUSH1 0x0 DUP4 ADD DUP5 PUSH2 0x17EB JUMP JUMPDEST SWAP3 SWAP2 POP POP JUMP JUMPDEST PUSH2 0x181E DUP2 PUSH2 0x1753 JUMP JUMPDEST DUP2 EQ PUSH2 0x1829 JUMPI PUSH1 0x0 DUP1 REVERT JUMPDEST POP JUMP JUMPDEST PUSH1 0x0 DUP2 CALLDATALOAD SWAP1 POP PUSH2 0x183B DUP2 PUSH2 0x1815 JUMP JUMPDEST SWAP3 SWAP2 POP POP JUMP JUMPDEST PUSH2 0x184A DUP2 PUSH2 0x178A JUMP JUMPDEST DUP2 EQ PUSH2 0x1855 JUMPI PUSH1 0x0 DUP1 REVERT JUMPDEST POP JUMP JUMPDEST PUSH1 0x0 DUP2 CALLDATALOAD SWAP1 POP PUSH2 0x1867 DUP2 PUSH2 0x1841 JUMP JUMPDEST SWAP3 SWAP2 POP POP JUMP JUMPDEST PUSH1 0x0 DUP1 PUSH1 0x0 DUP1 PUSH1 0x0 DUP1 PUSH1 0x0 PUSH1 0xE0 DUP9 DUP11 SUB SLT ISZERO PUSH2 0x188C JUMPI PUSH2 0x188B PUSH2 0x1571 JUMP JUMPDEST JUMPDEST PUSH1 0x0 PUSH2 0x189A DUP11 DUP3 DUP12 ADD PUSH2 0x15BF JUMP JUMPDEST SWAP8 POP POP PUSH1 0x20 PUSH2 0x18AB DUP11 DUP3 DUP12 ADD PUSH2 0x15BF JUMP JUMPDEST SWAP7 POP POP PUSH1 0x40 PUSH2 0x18BC DUP11 DUP3 DUP12 ADD PUSH2 0x15F5 JUMP JUMPDEST SWAP6 POP POP PUSH1 0x60 PUSH2 0x18CD DUP11 DUP3 DUP12 ADD PUSH2 0x15F5 JUMP JUMPDEST SWAP5 POP POP PUSH1 0x80 PUSH2 0x18DE DUP11 DUP3 DUP12 ADD PUSH2 0x182C JUMP JUMPDEST SWAP4 POP POP PUSH1 0xA0 PUSH2 0x18EF DUP11 DUP3 DUP12 ADD PUSH2 0x1858 JUMP JUMPDEST SWAP3 POP POP PUSH1 0xC0 PUSH2 0x1900 DUP11 DUP3 DUP12 ADD PUSH2 0x1858 JUMP JUMPDEST SWAP2 POP POP SWAP3 SWAP6 SWAP9 SWAP2 SWAP5 SWAP8 POP SWAP3 SWAP6 POP JUMP JUMPDEST PUSH1 0x0 DUP1 PUSH1 0x40 DUP4 DUP6 SUB SLT ISZERO PUSH2 0x1926 JUMPI PUSH2 0x1925 PUSH2 0x1571 JUMP JUMPDEST JUMPDEST PUSH1 0x0 PUSH2 0x1934 DUP6 DUP3 DUP7 ADD PUSH2 0x15BF JUMP JUMPDEST SWAP3 POP POP PUSH1 0x20 PUSH2 0x1945 DUP6 DUP3 DUP7 ADD PUSH2 0x15BF JUMP JUMPDEST SWAP2 POP POP SWAP3 POP SWAP3 SWAP1 POP JUMP JUMPDEST PUSH32 0x4E487B7100000000000000000000000000000000000000000000000000000000 PUSH1 0x0 MSTORE PUSH1 0x22 PUSH1 0x4 MSTORE PUSH1 0x24 PUSH1 0x0 REVERT JUMPDEST PUSH1 0x0 PUSH1 0x2 DUP3 DIV SWAP1 POP PUSH1 0x1 DUP3 AND DUP1 PUSH2 0x1996 JUMPI PUSH1 0x7F DUP3 AND SWAP2 POP JUMPDEST PUSH1 0x20 DUP3 LT DUP2 SUB PUSH2 0x19A9 JUMPI PUSH2 0x19A8 PUSH2 0x194F JUMP JUMPDEST JUMPDEST POP SWAP2 SWAP1 POP JUMP JUMPDEST PUSH32 0x696E73756666696369656E7420616C6C6F77616E636500000000000000000000 PUSH1 0x0 DUP3 ADD MSTORE POP JUMP JUMPDEST PUSH1 0x0 PUSH2 0x19E5 PUSH1 0x16 DUP4 PUSH2 0x14CA JUMP JUMPDEST SWAP2 POP PUSH2 0x19F0 DUP3 PUSH2 0x19AF JUMP JUMPDEST PUSH1 0x20 DUP3 ADD SWAP1 POP SWAP2 SWAP1 POP JUMP JUMPDEST PUSH1 0x0 PUSH1 0x20 DUP3 ADD SWAP1 POP DUP2 DUP2 SUB PUSH1 0x0 DUP4 ADD MSTORE PUSH2 0x1A14 DUP2 PUSH2 0x19D8 JUMP JUMPDEST SWAP1 POP SWAP2 SWAP1 POP JUMP JUMPDEST PUSH32 0x696E73756666696369656E742062616C616E6365000000000000000000000000 PUSH1 0x0 DUP3 ADD MSTORE POP JUMP JUMPDEST PUSH1 0x0 PUSH2 0x1A51 PUSH1 0x14 DUP4 PUSH2 0x14CA JUMP JUMPDEST SWAP2 POP PUSH2 0x1A5C DUP3 PUSH2 0x1A1B JUMP JUMPDEST PUSH1 0x20 DUP3 ADD SWAP1 POP SWAP2 SWAP1 POP JUMP JUMPDEST PUSH1 0x0 PUSH1 0x20 DUP3 ADD SWAP1 POP DUP2 DUP2 SUB PUSH1 0x0 DUP4 ADD MSTORE PUSH2 0x1A80 DUP2 PUSH2 0x1A44 JUMP JUMPDEST SWAP1 POP SWAP2 SWAP1 POP JUMP JUMPDEST PUSH32 0x696E73756666696369656E74206275726E206C696D6974000000000000000000 PUSH1 0x0 DUP3 ADD MSTORE POP JUMP JUMPDEST PUSH1 0x0 PUSH2 0x1ABD PUSH1 0x17 DUP4 PUSH2 0x14CA JUMP JUMPDEST SWAP2 POP PUSH2 0x1AC8 DUP3 PUSH2 0x1A87 JUMP JUMPDEST PUSH1 0x20 DUP3 ADD SWAP1 POP SWAP2 SWAP1 POP JUMP JUMPDEST PUSH1 0x0 PUSH1 0x20 DUP3 ADD SWAP1 POP DUP2 DUP2 SUB PUSH1 0x0 DUP4 ADD MSTORE PUSH2 0x1AEC DUP2 PUSH2 0x1AB0 JUMP JUMPDEST SWAP1 POP SWAP2 SWAP1 POP JUMP JUMPDEST PUSH32 0x6F6E6C79206F776E657200000000000000000000000000000000000000000000 PUSH1 0x0 DUP3 ADD MSTORE POP JUMP JUMPDEST PUSH1 0x0 PUSH2 0x1B29 PUSH1 0xA DUP4 PUSH2 0x14CA JUMP JUMPDEST SWAP2 POP PUSH2 0x1B34 DUP3 PUSH2 0x1AF3 JUMP JUMPDEST PUSH1 0x20 DUP3 ADD SWAP1 POP SWAP2 SWAP1 POP JUMP JUMPDEST PUSH1 0x0 PUSH1 0x20 DUP3 ADD SWAP1 POP DUP2 DUP2 SUB PUSH1 0x0 DUP4 ADD MSTORE PUSH2 0x1B58 DUP2 PUSH2 0x1B1C JUMP JUMPDEST SWAP1 POP SWAP2 SWAP1 POP JUMP JUMPDEST PUSH32 0x4E487B7100000000000000000000000000000000000000000000000000000000 PUSH1 0x0 MSTORE PUSH1 0x11 PUSH1 0x4 MSTORE PUSH1 0x24 PUSH1 0x0 REVERT JUMPDEST PUSH1 0x0 PUSH2 0x1B99 DUP3 PUSH2 0x15D4 JUMP JUMPDEST SWAP2 POP PUSH2 0x1BA4 DUP4 PUSH2 0x15D4 JUMP JUMPDEST SWAP3 POP DUP3 DUP3 ADD SWAP1 POP DUP1 DUP3 GT ISZERO PUSH2 0x1BBC JUMPI PUSH2 0x1BBB PUSH2 0x1B5F JUMP JUMPDEST JUMPDEST SWAP3 SWAP2 POP POP JUMP JUMPDEST PUSH32 0x696E73756666696369656E74206D696E74206C696D6974000000000000000000 PUSH1 0x0 DUP3 ADD MSTORE POP JUMP JUMPDEST PUSH1 0x0 PUSH2 0x1BF8 PUSH1 0x17 DUP4 PUSH2 0x14CA JUMP JUMPDEST SWAP2 POP PUSH2 0x1C03 DUP3 PUSH2 0x1BC2 JUMP JUMPDEST PUSH1 0x20 DUP3 ADD SWAP1 POP SWAP2 SWAP1 POP JUMP JUMPDEST PUSH1 0x0 PUSH1 0x20 DUP3 ADD SWAP1 POP DUP2 DUP2 SUB PUSH1 0x0 DUP4 ADD MSTORE PUSH2 0x1C27 DUP2 PUSH2 0x1BEB JUMP JUMPDEST SWAP1 POP SWAP2 SWAP1 POP JUMP JUMPDEST PUSH32 0x746F74616C20737570706C79206F766572666C6F770000000000000000000000 PUSH1 0x0 DUP3 ADD MSTORE POP JUMP JUMPDEST PUSH1 0x0 PUSH2 0x1C64 PUSH1 0x15 DUP4 PUSH2 0x14CA JUMP JUMPDEST SWAP2 POP PUSH2 0x1C6F DUP3 PUSH2 0x1C2E JUMP JUMPDEST PUSH1 0x20 DUP3 ADD SWAP1 POP SWAP2 SWAP1 POP JUMP JUMPDEST PUSH1 0x0 PUSH1 0x20 DUP3 ADD SWAP1 POP DUP2 DUP2 SUB PUSH1 0x0 DUP4 ADD MSTORE PUSH2 0x1C93 DUP2 PUSH2 0x1C57 JUMP JUMPDEST SWAP1 POP SWAP2 SWAP1 POP JUMP JUMPDEST PUSH32 0x7065726D69742065787069726564000000000000000000000000000000000000 PUSH1 0x0 DUP3 ADD MSTORE POP JUMP JUMPDEST PUSH1 0x0 PUSH2 0x1CD0 PUSH1 0xE DUP4 PUSH2 0x14CA JUMP JUMPDEST SWAP2 POP PUSH2 0x1CDB DUP3 PUSH2 0x1C9A JUMP JUMPDEST PUSH1 0x20 DUP3 ADD SWAP1 POP SWAP2 SWAP1 POP JUMP JUMPDEST PUSH1 0x0 PUSH1 0x20 DUP3 ADD SWAP1 POP DUP2 DUP2 SUB PUSH1 0x0 DUP4 ADD MSTORE PUSH2 0x1CFF DUP2 PUSH2 0x1CC3 JUMP JUMPDEST SWAP1 POP SWAP2 SWAP1 POP JUMP JUMPDEST PUSH1 0x0 PUSH1 0xC0 DUP3 ADD SWAP1 POP PUSH2 0x1D1B PUSH1 0x0 DUP4 ADD DUP10 PUSH2 0x1794 JUMP JUMPDEST PUSH2 0x1D28 PUSH1 0x20 DUP4 ADD DUP9 PUSH2 0x17EB JUMP JUMPDEST PUSH2 0x1D35 PUSH1 0x40 DUP4 ADD DUP8 PUSH2 0x17EB JUMP JUMPDEST PUSH2 0x1D42 PUSH1 0x60 DUP4 ADD DUP7 PUSH2 0x16AD JUMP JUMPDEST PUSH2 0x1D4F PUSH1 0x80 DUP4 ADD DUP6 PUSH2 0x16AD JUMP JUMPDEST PUSH2 0x1D5C PUSH1 0xA0 DUP4 ADD DUP5 PUSH2 0x16AD JUMP JUMPDEST SWAP8 SWAP7 POP POP POP POP POP POP POP JUMP JUMPDEST PUSH1 0x0 DUP2 SWAP1 POP SWAP3 SWAP2 POP POP JUMP JUMPDEST PUSH32 0x1901000000000000000000000000000000000000000000000000000000000000 PUSH1 0x0 DUP3 ADD MSTORE POP JUMP JUMPDEST PUSH1 0x0 PUSH2 0x1DA8 PUSH1 0x2 DUP4 PUSH2 0x1D67 JUMP JUMPDEST SWAP2 POP PUSH2 0x1DB3 DUP3 PUSH2 0x1D72 JUMP JUMPDEST PUSH1 0x2 DUP3 ADD SWAP1 POP SWAP2 SWAP1 POP JUMP JUMPDEST PUSH1 0x0 DUP2 SWAP1 POP SWAP2 SWAP1 POP JUMP JUMPDEST PUSH2 0x1DD9 PUSH2 0x1DD4 DUP3 PUSH2 0x178A JUMP JUMPDEST PUSH2 0x1DBE JUMP JUMPDEST DUP3 MSTORE POP POP JUMP JUMPDEST PUSH1 0x0 PUSH2 0x1DEA DUP3 PUSH2 0x1D9B JUMP JUMPDEST SWAP2 POP PUSH2 0x1DF6 DUP3 DUP6 PUSH2 0x1DC8 JUMP JUMPDEST PUSH1 0x20 DUP3 ADD SWAP2 POP PUSH2 0x1E06 DUP3 DUP5 PUSH2 0x1DC8 JUMP JUMPDEST PUSH1 0x20 DUP3 ADD SWAP2 POP DUP2 SWAP1 POP SWAP4 SWAP3 POP POP POP JUMP JUMPDEST PUSH1 0x0 PUSH1 0x80 DUP3 ADD SWAP1 POP PUSH2 0x1E2B PUSH1 0x0 DUP4 ADD DUP8 PUSH2 0x1794 JUMP JUMPDEST PUSH2 0x1E38 PUSH1 0x20 DUP4 ADD DUP7 PUSH2 0x1760 JUMP JUMPDEST PUSH2 0x1E45 PUSH1 0x40 DUP4 ADD DUP6 PUSH2 0x1794 JUMP JUMPDEST PUSH2 0x1E52 PUSH1 0x60 DUP4 ADD DUP5 PUSH2 0x1794 JUMP JUMPDEST SWAP6 SWAP5 POP POP POP POP POP JUMP JUMPDEST PUSH32 0x696E76616C6964207369676E6572000000000000000000000000000000000000 PUSH1 0x0 DUP3 ADD MSTORE POP JUMP JUMPDEST PUSH1 0x0 PUSH2 0x1E91 PUSH1 0xE DUP4 PUSH2 0x14CA JUMP JUMPDEST SWAP2 POP PUSH2 0x1E9C DUP3 PUSH2 0x1E5B JUMP JUMPDEST PUSH1 0x20 DUP3 ADD SWAP1 POP SWAP2 SWAP1 POP JUMP JUMPDEST PUSH1 0x0 PUSH1 0x20 DUP3 ADD SWAP1 POP DUP2 DUP2 SUB PUSH1 0x0 DUP4 ADD MSTORE PUSH2 0x1EC0 DUP2 PUSH2 0x1E84 JUMP JUMPDEST SWAP1 POP SWAP2 SWAP1 POP JUMP INVALID LOG2 PUSH5 0x6970667358 0x22 SLT KECCAK256 SIGNEXTEND PC SWAP10 SDIV OR PUSH11 0xA7D1CE00BD6BF5C5B23073 0xE2 0xCD MULMOD PUSH28 0xE9FA1368D99EE64DF7254464736F6C63430008120033000000000000 "
				},
				"gasEstimates": {
					"creation": {
						"codeDepositCost": "1586600",
						"executionCost": "infinite",
						"totalCost": "infinite"
					},
					"external": {
						"DOMAIN_SEPARATOR()": "2496",
						"allowance(address,address)": "infinite",
						"approve(address,uint256)": "infinite",
						"balanceOf(address)": "2925",
						"burn(uint256)": "infinite",
						"decimals()": "2516",
						"mint(uint256)": "infinite",
						"minterBalance(address)": "infinite",
						"name()": "infinite",
						"nonces(address)": "2837",
						"owner()": "2581",
						"permit(address,address,uint256,uint256,uint8,bytes32,bytes32)": "infinite",
						"symbol()": "infinite",
						"totalSupply()": "2519",
						"transfer(address,uint256)": "infinite",
						"transferFrom(address,address,uint256)": "infinite",
						"updateMinter(address,uint256)": "infinite",
						"updateOwner(address)": "28098"
					}
				},
				"methodIdentifiers": {
					"DOMAIN_SEPARATOR()": "3644e515",
					"allowance(address,address)": "dd62ed3e",
					"approve(address,uint256)": "095ea7b3",
					"balanceOf(address)": "70a08231",
					"burn(uint256)": "42966c68",
					"decimals()": "313ce567",
					"mint(uint256)": "a0712d68",
					"minterBalance(address)": "15a27138",
					"name()": "06fdde03",
					"nonces(address)": "7ecebe00",
					"owner()": "8da5cb5b",
					"permit(address,address,uint256,uint256,uint8,bytes32,bytes32)": "d505accf",
					"symbol()": "95d89b41",
					"totalSupply()": "18160ddd",
					"transfer(address,uint256)": "a9059cbb",
					"transferFrom(address,address,uint256)": "23b872dd",
					"updateMinter(address,uint256)": "b8f883f9",
					"updateOwner(address)": "880cdc31"
				}
			},
			"storageLayout": {
				"storage": [
					{
						"astId": 389,
						"contract": "USDC.sol:USDC",
						"label": "name",
						"offset": 0,
						"slot": "0",
						"type": "t_string_storage"
					},
					{
						"astId": 391,
						"contract": "USDC.sol:USDC",
						"label": "symbol",
						"offset": 0,
						"slot": "1",
						"type": "t_string_storage"
					},
					{
						"astId": 393,
						"contract": "USDC.sol:USDC",
						"label": "decimals",
						"offset": 0,
						"slot": "2",
						"type": "t_uint8"
					},
					{
						"astId": 395,
						"contract": "USDC.sol:USDC",
						"label": "totalSupply",
						"offset": 0,
						"slot": "3",
						"type": "t_uint256"
					},
					{
						"astId": 399,
						"contract": "USDC.sol:USDC",
						"label": "balanceOf",
						"offset": 0,
						"slot": "4",
						"type": "t_mapping(t_address,t_uint256)"
					},
					{
						"astId": 405,
						"contract": "USDC.sol:USDC",
						"label": "allowance",
						"offset": 0,
						"slot": "5",
						"type": "t_mapping(t_address,t_mapping(t_address,t_uint256))"
					},
					{
						"astId": 574,
						"contract": "USDC.sol:USDC",
						"label": "DOMAIN_SEPARATOR",
						"offset": 0,
						"slot": "6",
						"type": "t_bytes32"
					},
					{
						"astId": 578,
						"contract": "USDC.sol:USDC",
						"label": "nonces",
						"offset": 0,
						"slot": "7",
						"type": "t_mapping(t_address,t_uint256)"
					},
					{
						"astId": 335,
						"contract": "USDC.sol:USDC",
						"label": "owner",
						"offset": 0,
						"slot": "8",
						"type": "t_address"
					},
					{
						"astId": 171,
						"contract": "USDC.sol:USDC",
						"label": "minterBalance",
						"offset": 0,
						"slot": "9",
						"type": "t_mapping(t_address,t_struct(Balance)166_storage)"
					}
				],
				"types": {
					"t_address": {
						"encoding": "inplace",
						"label": "address",
						"numberOfBytes": "20"
					},
					"t_bytes32": {
						"encoding": "inplace",
						"label": "bytes32",
						"numberOfBytes": "32"
					},
					"t_mapping(t_address,t_mapping(t_address,t_uint256))": {
						"encoding": "mapping",
						"key": "t_address",
						"label": "mapping(address => mapping(address => uint256))",
						"numberOfBytes": "32",
						"value": "t_mapping(t_address,t_uint256)"
					},
					"t_mapping(t_address,t_struct(Balance)166_storage)": {
						"encoding": "mapping",
						"key": "t_address",
						"label": "mapping(address => struct USDC.Balance)",
						"numberOfBytes": "32",
						"value": "t_struct(Balance)166_storage"
					},
					"t_mapping(t_address,t_uint256)": {
						"encoding": "mapping",
						"key": "t_address",
						"label": "mapping(address => uint256)",
						"numberOfBytes": "32",
						"value": "t_uint256"
					},
					"t_string_storage": {
						"encoding": "bytes",
						"label": "string",
						"numberOfBytes": "32"
					},
					"t_struct(Balance)166_storage": {
						"encoding": "inplace",
						"label": "struct USDC.Balance",
						"members": [
							{
								"astId": 163,
								"contract": "USDC.sol:USDC",
								"label": "limit",
								"offset": 0,
								"slot": "0",
								"type": "t_uint256"
							},
							{
								"astId": 165,
								"contract": "USDC.sol:USDC",
								"label": "minted",
								"offset": 0,
								"slot": "1",
								"type": "t_uint256"
							}
						],
						"numberOfBytes": "64"
					},
					"t_uint256": {
						"encoding": "inplace",
						"label": "uint256",
						"numberOfBytes": "32"
					},
					"t_uint8": {
						"encoding": "inplace",
						"label": "uint8",
						"numberOfBytes": "1"
					}
				}
			},
			"userdoc": {
				"kind": "user",
				"methods": {},
				"version": 1
			}
		}
	}
}