{
	"SimpleSwap.sol": {
		"SimpleSwap": {
			"abi": [
				{
					"anonymous": false,
					"inputs": [
						{
							"indexed": true,
							"internalType": "address",
							"name": "owner",
							"type": "address"
						},
						{
							"indexed": false,
							"internalType": "contract IERC20",
							"name": "selling",
							"type": "address"
						},
						{
							"indexed": false,
							"internalType": "uint256",
							"name": "sellingAmount",
							"type": "uint256"
						},
						{
							"indexed": false,
							"internalType": "contract IERC20",
							"name": "buying",
							"type": "address"
						},
						{
							"indexed": false,
							"internalType": "uint256",
							"name": "buyingAmount",
							"type": "uint256"
						}
					],
					"name": "Add",
					"type": "event"
				},
				{
					"anonymous": false,
					"inputs": [
						{
							"indexed": true,
							"internalType": "address",
							"name": "sender",
							"type": "address"
						},
						{
							"indexed": true,
							"internalType": "address",
							"name": "owner",
							"type": "address"
						},
						{
							"indexed": false,
							"internalType": "contract IERC20",
							"name": "selling",
							"type": "address"
						},
						{
							"indexed": false,
							"internalType": "uint256",
							"name": "sellingAmount",
							"type": "uint256"
						},
						{
							"indexed": false,
							"internalType": "contract IERC20",
							"name": "buying",
							"type": "address"
						},
						{
							"indexed": false,
							"internalType": "uint256",
							"name": "buyingAmount",
							"type": "uint256"
						}
					],
					"name": "Exchange",
					"type": "event"
				},
				{
					"inputs": [
						{
							"internalType": "contract IERC20",
							"name": "selling",
							"type": "address"
						},
						{
							"internalType": "uint256",
							"name": "sellingAmount",
							"type": "uint256"
						},
						{
							"internalType": "contract IERC20",
							"name": "buying",
							"type": "address"
						},
						{
							"internalType": "uint256",
							"name": "buyingAmount",
							"type": "uint256"
						}
					],
					"name": "add",
					"outputs": [
						{
							"internalType": "bool",
							"name": "",
							"type": "bool"
						}
					],
					"stateMutability": "nonpayable",
					"type": "function"
				},
				{
					"inputs": [
						{
							"internalType": "uint256",
							"name": "index",
							"type": "uint256"
						}
					],
					"name": "exchange",
					"outputs": [
						{
							"internalType": "bool",
							"name": "",
							"type": "bool"
						}
					],
					"stateMutability": "nonpayable",
					"type": "function"
				},
				{
					"inputs": [
						{
							"internalType": "uint256",
							"name": "",
							"type": "uint256"
						}
					],
					"name": "offers",
					"outputs": [
						{
							"internalType": "address",
							"name": "owner",
							"type": "address"
						},
						{
							"internalType": "contract IERC20",
							"name": "selling",
							"type": "address"
						},
						{
							"internalType": "uint256",
							"name": "sellingAmount",
							"type": "uint256"
						},
						{
							"internalType": "contract IERC20",
							"name": "buying",
							"type": "address"
						},
						{
							"internalType": "uint256",
							"name": "buyingAmount",
							"type": "uint256"
						},
						{
							"internalType": "bool",
							"name": "active",
							"type": "bool"
						}
					],
					"stateMutability": "view",
					"type": "function"
				}
			],
			"devdoc": {
				"kind": "dev",
				"methods": {},
				"version": 1
			},
			"evm": {
				"assembly": "    /* \"SimpleSwap.sol\":87:1511  contract SimpleSwap {... */\n  mstore(0x40, 0x80)\n  callvalue\n  dup1\n  iszero\n  tag_1\n  jumpi\n  0x00\n  dup1\n  revert\ntag_1:\n  pop\n  dataSize(sub_0)\n  dup1\n  dataOffset(sub_0)\n  0x00\n  codecopy\n  0x00\n  return\nstop\n\nsub_0: assembly {\n        /* \"SimpleSwap.sol\":87:1511  contract SimpleSwap {... */\n      mstore(0x40, 0x80)\n      callvalue\n      dup1\n      iszero\n      tag_1\n      jumpi\n      0x00\n      dup1\n      revert\n    tag_1:\n      pop\n      jumpi(tag_2, lt(calldatasize, 0x04))\n      shr(0xe0, calldataload(0x00))\n      dup1\n      0x53556559\n      eq\n      tag_3\n      jumpi\n      dup1\n      0x8a72ea6a\n      eq\n      tag_4\n      jumpi\n      dup1\n      0xe77e2c1b\n      eq\n      tag_5\n      jumpi\n    tag_2:\n      0x00\n      dup1\n      revert\n        /* \"SimpleSwap.sol\":742:1251  function exchange(uint256 index) public returns (bool) {... */\n    tag_3:\n      tag_6\n      0x04\n      dup1\n      calldatasize\n      sub\n      dup2\n      add\n      swap1\n      tag_7\n      swap2\n      swap1\n      tag_8\n      jump\t// in\n    tag_7:\n      tag_9\n      jump\t// in\n    tag_6:\n      mload(0x40)\n      tag_10\n      swap2\n      swap1\n      tag_11\n      jump\t// in\n    tag_10:\n      mload(0x40)\n      dup1\n      swap2\n      sub\n      swap1\n      return\n        /* \"SimpleSwap.sol\":291:312  Offer[] public offers */\n    tag_4:\n      tag_12\n      0x04\n      dup1\n      calldatasize\n      sub\n      dup2\n      add\n      swap1\n      tag_13\n      swap2\n      swap1\n      tag_8\n      jump\t// in\n    tag_13:\n      tag_14\n      jump\t// in\n    tag_12:\n      mload(0x40)\n      tag_15\n      swap7\n      swap6\n      swap5\n      swap4\n      swap3\n      swap2\n      swap1\n      tag_16\n      jump\t// in\n    tag_15:\n      mload(0x40)\n      dup1\n      swap2\n      sub\n      swap1\n      return\n        /* \"SimpleSwap.sol\":319:736  function add(... */\n    tag_5:\n      tag_17\n      0x04\n      dup1\n      calldatasize\n      sub\n      dup2\n      add\n      swap1\n      tag_18\n      swap2\n      swap1\n      tag_19\n      jump\t// in\n    tag_18:\n      tag_20\n      jump\t// in\n    tag_17:\n      mload(0x40)\n      tag_21\n      swap2\n      swap1\n      tag_11\n      jump\t// in\n    tag_21:\n      mload(0x40)\n      dup1\n      swap2\n      sub\n      swap1\n      return\n        /* \"SimpleSwap.sol\":742:1251  function exchange(uint256 index) public returns (bool) {... */\n    tag_9:\n        /* \"SimpleSwap.sol\":791:795  bool */\n      0x00\n        /* \"SimpleSwap.sol\":807:826  Offer storage offer */\n      dup1\n        /* \"SimpleSwap.sol\":829:835  offers */\n      0x00\n        /* \"SimpleSwap.sol\":836:841  index */\n      dup4\n        /* \"SimpleSwap.sol\":829:842  offers[index] */\n      dup2\n      sload\n      dup2\n      lt\n      tag_23\n      jumpi\n      tag_24\n      tag_25\n      jump\t// in\n    tag_24:\n    tag_23:\n      swap1\n      0x00\n      mstore\n      keccak256(0x00, 0x20)\n      swap1\n      0x06\n      mul\n      add\n        /* \"SimpleSwap.sol\":807:842  Offer storage offer = offers[index] */\n      swap1\n      pop\n        /* \"SimpleSwap.sol\":872:876  true */\n      0x01\n        /* \"SimpleSwap.sol\":856:876  offer.active == true */\n      iszero\n      iszero\n        /* \"SimpleSwap.sol\":856:861  offer */\n      dup2\n        /* \"SimpleSwap.sol\":856:868  offer.active */\n      0x05\n      add\n      0x00\n      swap1\n      sload\n      swap1\n      0x0100\n      exp\n      swap1\n      div\n      0xff\n      and\n        /* \"SimpleSwap.sol\":856:876  offer.active == true */\n      iszero\n      iszero\n      sub\n        /* \"SimpleSwap.sol\":852:1223  if (offer.active == true) {... */\n      tag_27\n      jumpi\n        /* \"SimpleSwap.sol\":892:897  offer */\n      dup1\n        /* \"SimpleSwap.sol\":892:905  offer.selling */\n      0x01\n      add\n      0x00\n      swap1\n      sload\n      swap1\n      0x0100\n      exp\n      swap1\n      div\n      0xffffffffffffffffffffffffffffffffffffffff\n      and\n        /* \"SimpleSwap.sol\":892:914  offer.selling.transfer */\n      0xffffffffffffffffffffffffffffffffffffffff\n      and\n      0xa9059cbb\n        /* \"SimpleSwap.sol\":915:925  msg.sender */\n      caller\n        /* \"SimpleSwap.sol\":927:932  offer */\n      dup4\n        /* \"SimpleSwap.sol\":927:946  offer.sellingAmount */\n      0x02\n      add\n      sload\n        /* \"SimpleSwap.sol\":892:947  offer.selling.transfer(msg.sender, offer.sellingAmount) */\n      mload(0x40)\n      dup4\n      0xffffffff\n      and\n      0xe0\n      shl\n      dup2\n      mstore\n      0x04\n      add\n      tag_28\n      swap3\n      swap2\n      swap1\n      tag_29\n      jump\t// in\n    tag_28:\n      0x20\n      mload(0x40)\n      dup1\n      dup4\n      sub\n      dup2\n      0x00\n      dup8\n      gas\n      call\n      iszero\n      dup1\n      iszero\n      tag_31\n      jumpi\n      returndatasize\n      0x00\n      dup1\n      returndatacopy\n      revert(0x00, returndatasize)\n    tag_31:\n      pop\n      pop\n      pop\n      pop\n      mload(0x40)\n      returndatasize\n      not(0x1f)\n      0x1f\n      dup3\n      add\n      and\n      dup3\n      add\n      dup1\n      0x40\n      mstore\n      pop\n      dup2\n      add\n      swap1\n      tag_32\n      swap2\n      swap1\n      tag_33\n      jump\t// in\n    tag_32:\n      pop\n        /* \"SimpleSwap.sol\":961:966  offer */\n      dup1\n        /* \"SimpleSwap.sol\":961:973  offer.buying */\n      0x03\n      add\n      0x00\n      swap1\n      sload\n      swap1\n      0x0100\n      exp\n      swap1\n      div\n      0xffffffffffffffffffffffffffffffffffffffff\n      and\n        /* \"SimpleSwap.sol\":961:986  offer.buying.transferFrom */\n      0xffffffffffffffffffffffffffffffffffffffff\n      and\n      0x23b872dd\n        /* \"SimpleSwap.sol\":987:997  msg.sender */\n      caller\n        /* \"SimpleSwap.sol\":999:1004  offer */\n      dup4\n        /* \"SimpleSwap.sol\":999:1010  offer.owner */\n      0x00\n      add\n      0x00\n      swap1\n      sload\n      swap1\n      0x0100\n      exp\n      swap1\n      div\n      0xffffffffffffffffffffffffffffffffffffffff\n      and\n        /* \"SimpleSwap.sol\":1012:1017  offer */\n      dup5\n        /* \"SimpleSwap.sol\":1012:1030  offer.buyingAmount */\n      0x04\n      add\n      sload\n        /* \"SimpleSwap.sol\":961:1031  offer.buying.transferFrom(msg.sender, offer.owner, offer.buyingAmount) */\n      mload(0x40)\n      dup5\n      0xffffffff\n      and\n      0xe0\n      shl\n      dup2\n      mstore\n      0x04\n      add\n      tag_34\n      swap4\n      swap3\n      swap2\n      swap1\n      tag_35\n      jump\t// in\n    tag_34:\n      0x20\n      mload(0x40)\n      dup1\n      dup4\n      sub\n      dup2\n      0x00\n      dup8\n      gas\n      call\n      iszero\n      dup1\n      iszero\n      tag_37\n      jumpi\n      returndatasize\n      0x00\n      dup1\n      returndatacopy\n      revert(0x00, returndatasize)\n    tag_37:\n      pop\n      pop\n      pop\n      pop\n      mload(0x40)\n      returndatasize\n      not(0x1f)\n      0x1f\n      dup3\n      add\n      and\n      dup3\n      add\n      dup1\n      0x40\n      mstore\n      pop\n      dup2\n      add\n      swap1\n      tag_38\n      swap2\n      swap1\n      tag_33\n      jump\t// in\n    tag_38:\n      pop\n        /* \"SimpleSwap.sol\":1060:1065  false */\n      0x00\n        /* \"SimpleSwap.sol\":1045:1050  offer */\n      dup2\n        /* \"SimpleSwap.sol\":1045:1057  offer.active */\n      0x05\n      add\n      0x00\n        /* \"SimpleSwap.sol\":1045:1065  offer.active = false */\n      0x0100\n      exp\n      dup2\n      sload\n      dup2\n      0xff\n      mul\n      not\n      and\n      swap1\n      dup4\n      iszero\n      iszero\n      mul\n      or\n      swap1\n      sstore\n      pop\n        /* \"SimpleSwap.sol\":1105:1110  offer */\n      dup1\n        /* \"SimpleSwap.sol\":1105:1116  offer.owner */\n      0x00\n      add\n      0x00\n      swap1\n      sload\n      swap1\n      0x0100\n      exp\n      swap1\n      div\n      0xffffffffffffffffffffffffffffffffffffffff\n      and\n        /* \"SimpleSwap.sol\":1084:1187  Exchange(msg.sender, offer.owner, offer.selling, offer.sellingAmount, offer.buying, offer.buyingAmount) */\n      0xffffffffffffffffffffffffffffffffffffffff\n      and\n        /* \"SimpleSwap.sol\":1093:1103  msg.sender */\n      caller\n        /* \"SimpleSwap.sol\":1084:1187  Exchange(msg.sender, offer.owner, offer.selling, offer.sellingAmount, offer.buying, offer.buyingAmount) */\n      0xffffffffffffffffffffffffffffffffffffffff\n      and\n      0xeca87c8091d5a2bc62e0658afcf53e701886f6509c5155d3c3b14a3c4b4852e7\n        /* \"SimpleSwap.sol\":1118:1123  offer */\n      dup4\n        /* \"SimpleSwap.sol\":1118:1131  offer.selling */\n      0x01\n      add\n      0x00\n      swap1\n      sload\n      swap1\n      0x0100\n      exp\n      swap1\n      div\n      0xffffffffffffffffffffffffffffffffffffffff\n      and\n        /* \"SimpleSwap.sol\":1133:1138  offer */\n      dup5\n        /* \"SimpleSwap.sol\":1133:1152  offer.sellingAmount */\n      0x02\n      add\n      sload\n        /* \"SimpleSwap.sol\":1154:1159  offer */\n      dup6\n        /* \"SimpleSwap.sol\":1154:1166  offer.buying */\n      0x03\n      add\n      0x00\n      swap1\n      sload\n      swap1\n      0x0100\n      exp\n      swap1\n      div\n      0xffffffffffffffffffffffffffffffffffffffff\n      and\n        /* \"SimpleSwap.sol\":1168:1173  offer */\n      dup7\n        /* \"SimpleSwap.sol\":1168:1186  offer.buyingAmount */\n      0x04\n      add\n      sload\n        /* \"SimpleSwap.sol\":1084:1187  Exchange(msg.sender, offer.owner, offer.selling, offer.sellingAmount, offer.buying, offer.buyingAmount) */\n      mload(0x40)\n      tag_39\n      swap5\n      swap4\n      swap3\n      swap2\n      swap1\n      tag_40\n      jump\t// in\n    tag_39:\n      mload(0x40)\n      dup1\n      swap2\n      sub\n      swap1\n      log3\n        /* \"SimpleSwap.sol\":1208:1212  true */\n      0x01\n        /* \"SimpleSwap.sol\":1201:1212  return true */\n      swap2\n      pop\n      pop\n      jump(tag_22)\n        /* \"SimpleSwap.sol\":852:1223  if (offer.active == true) {... */\n    tag_27:\n        /* \"SimpleSwap.sol\":1239:1244  false */\n      0x00\n        /* \"SimpleSwap.sol\":1232:1244  return false */\n      swap2\n      pop\n      pop\n        /* \"SimpleSwap.sol\":742:1251  function exchange(uint256 index) public returns (bool) {... */\n    tag_22:\n      swap2\n      swap1\n      pop\n      jump\t// out\n        /* \"SimpleSwap.sol\":291:312  Offer[] public offers */\n    tag_14:\n      0x00\n      dup2\n      dup2\n      sload\n      dup2\n      lt\n      tag_41\n      jumpi\n      0x00\n      dup1\n      revert\n    tag_41:\n      swap1\n      0x00\n      mstore\n      keccak256(0x00, 0x20)\n      swap1\n      0x06\n      mul\n      add\n      0x00\n      swap2\n      pop\n      swap1\n      pop\n      dup1\n      0x00\n      add\n      0x00\n      swap1\n      sload\n      swap1\n      0x0100\n      exp\n      swap1\n      div\n      0xffffffffffffffffffffffffffffffffffffffff\n      and\n      swap1\n      dup1\n      0x01\n      add\n      0x00\n      swap1\n      sload\n      swap1\n      0x0100\n      exp\n      swap1\n      div\n      0xffffffffffffffffffffffffffffffffffffffff\n      and\n      swap1\n      dup1\n      0x02\n      add\n      sload\n      swap1\n      dup1\n      0x03\n      add\n      0x00\n      swap1\n      sload\n      swap1\n      0x0100\n      exp\n      swap1\n      div\n      0xffffffffffffffffffffffffffffffffffffffff\n      and\n      swap1\n      dup1\n      0x04\n      add\n      sload\n      swap1\n      dup1\n      0x05\n      add\n      0x00\n      swap1\n      sload\n      swap1\n      0x0100\n      exp\n      swap1\n      div\n      0xff\n      and\n      swap1\n      pop\n      dup7\n      jump\t// out\n        /* \"SimpleSwap.sol\":319:736  function add(... */\n    tag_20:\n        /* \"SimpleSwap.sol\":462:466  bool */\n      0x00\n        /* \"SimpleSwap.sol\":478:485  selling */\n      dup5\n        /* \"SimpleSwap.sol\":478:498  selling.transferFrom */\n      0xffffffffffffffffffffffffffffffffffffffff\n      and\n      0x23b872dd\n        /* \"SimpleSwap.sol\":499:509  msg.sender */\n      caller\n        /* \"SimpleSwap.sol\":519:523  this */\n      address\n        /* \"SimpleSwap.sol\":526:539  sellingAmount */\n      dup8\n        /* \"SimpleSwap.sol\":478:540  selling.transferFrom(msg.sender, address(this), sellingAmount) */\n      mload(0x40)\n      dup5\n      0xffffffff\n      and\n      0xe0\n      shl\n      dup2\n      mstore\n      0x04\n      add\n      tag_44\n      swap4\n      swap3\n      swap2\n      swap1\n      tag_35\n      jump\t// in\n    tag_44:\n      0x20\n      mload(0x40)\n      dup1\n      dup4\n      sub\n      dup2\n      0x00\n      dup8\n      gas\n      call\n      iszero\n      dup1\n      iszero\n      tag_46\n      jumpi\n      returndatasize\n      0x00\n      dup1\n      returndatacopy\n      revert(0x00, returndatasize)\n    tag_46:\n      pop\n      pop\n      pop\n      pop\n      mload(0x40)\n      returndatasize\n      not(0x1f)\n      0x1f\n      dup3\n      add\n      and\n      dup3\n      add\n      dup1\n      0x40\n      mstore\n      pop\n      dup2\n      add\n      swap1\n      tag_47\n      swap2\n      swap1\n      tag_33\n      jump\t// in\n    tag_47:\n      pop\n        /* \"SimpleSwap.sol\":550:556  offers */\n      0x00\n        /* \"SimpleSwap.sol\":562:631  Offer(msg.sender, selling, sellingAmount, buying, buyingAmount, true) */\n      mload(0x40)\n      dup1\n      0xc0\n      add\n      0x40\n      mstore\n      dup1\n        /* \"SimpleSwap.sol\":568:578  msg.sender */\n      caller\n        /* \"SimpleSwap.sol\":562:631  Offer(msg.sender, selling, sellingAmount, buying, buyingAmount, true) */\n      0xffffffffffffffffffffffffffffffffffffffff\n      and\n      dup2\n      mstore\n      0x20\n      add\n        /* \"SimpleSwap.sol\":580:587  selling */\n      dup8\n        /* \"SimpleSwap.sol\":562:631  Offer(msg.sender, selling, sellingAmount, buying, buyingAmount, true) */\n      0xffffffffffffffffffffffffffffffffffffffff\n      and\n      dup2\n      mstore\n      0x20\n      add\n        /* \"SimpleSwap.sol\":589:602  sellingAmount */\n      dup7\n        /* \"SimpleSwap.sol\":562:631  Offer(msg.sender, selling, sellingAmount, buying, buyingAmount, true) */\n      dup2\n      mstore\n      0x20\n      add\n        /* \"SimpleSwap.sol\":604:610  buying */\n      dup6\n        /* \"SimpleSwap.sol\":562:631  Offer(msg.sender, selling, sellingAmount, buying, buyingAmount, true) */\n      0xffffffffffffffffffffffffffffffffffffffff\n      and\n      dup2\n      mstore\n      0x20\n      add\n        /* \"SimpleSwap.sol\":612:624  buyingAmount */\n      dup5\n        /* \"SimpleSwap.sol\":562:631  Offer(msg.sender, selling, sellingAmount, buying, buyingAmount, true) */\n      dup2\n      mstore\n      0x20\n      add\n        /* \"SimpleSwap.sol\":626:630  true */\n      0x01\n        /* \"SimpleSwap.sol\":562:631  Offer(msg.sender, selling, sellingAmount, buying, buyingAmount, true) */\n      iszero\n      iszero\n      dup2\n      mstore\n      pop\n        /* \"SimpleSwap.sol\":550:632  offers.push(Offer(msg.sender, selling, sellingAmount, buying, buyingAmount, true)) */\n      swap1\n      dup1\n      0x01\n      dup2\n      sload\n      add\n      dup1\n      dup3\n      sstore\n      dup1\n      swap2\n      pop\n      pop\n      0x01\n      swap1\n      sub\n      swap1\n      0x00\n      mstore\n      keccak256(0x00, 0x20)\n      swap1\n      0x06\n      mul\n      add\n      0x00\n      swap1\n      swap2\n      swap1\n      swap2\n      swap1\n      swap2\n      pop\n      0x00\n      dup3\n      add\n      mload\n      dup2\n      0x00\n      add\n      exp(0x0100, 0x00)\n      dup2\n      sload\n      dup2\n      0xffffffffffffffffffffffffffffffffffffffff\n      mul\n      not\n      and\n      swap1\n      dup4\n      0xffffffffffffffffffffffffffffffffffffffff\n      and\n      mul\n      or\n      swap1\n      sstore\n      pop\n      0x20\n      dup3\n      add\n      mload\n      dup2\n      0x01\n      add\n      exp(0x0100, 0x00)\n      dup2\n      sload\n      dup2\n      0xffffffffffffffffffffffffffffffffffffffff\n      mul\n      not\n      and\n      swap1\n      dup4\n      0xffffffffffffffffffffffffffffffffffffffff\n      and\n      mul\n      or\n      swap1\n      sstore\n      pop\n      0x40\n      dup3\n      add\n      mload\n      dup2\n      0x02\n      add\n      sstore\n      0x60\n      dup3\n      add\n      mload\n      dup2\n      0x03\n      add\n      exp(0x0100, 0x00)\n      dup2\n      sload\n      dup2\n      0xffffffffffffffffffffffffffffffffffffffff\n      mul\n      not\n      and\n      swap1\n      dup4\n      0xffffffffffffffffffffffffffffffffffffffff\n      and\n      mul\n      or\n      swap1\n      sstore\n      pop\n      0x80\n      dup3\n      add\n      mload\n      dup2\n      0x04\n      add\n      sstore\n      0xa0\n      dup3\n      add\n      mload\n      dup2\n      0x05\n      add\n      exp(0x0100, 0x00)\n      dup2\n      sload\n      dup2\n      0xff\n      mul\n      not\n      and\n      swap1\n      dup4\n      iszero\n      iszero\n      mul\n      or\n      swap1\n      sstore\n      pop\n      pop\n      pop\n        /* \"SimpleSwap.sol\":651:661  msg.sender */\n      caller\n        /* \"SimpleSwap.sol\":647:708  Add(msg.sender, selling, sellingAmount, buying, buyingAmount) */\n      0xffffffffffffffffffffffffffffffffffffffff\n      and\n      0xc04fc847f7b541ca5745975523ea1cb56c86867667754243230548fdb9e9b85f\n        /* \"SimpleSwap.sol\":663:670  selling */\n      dup7\n        /* \"SimpleSwap.sol\":672:685  sellingAmount */\n      dup7\n        /* \"SimpleSwap.sol\":687:693  buying */\n      dup7\n        /* \"SimpleSwap.sol\":695:707  buyingAmount */\n      dup7\n        /* \"SimpleSwap.sol\":647:708  Add(msg.sender, selling, sellingAmount, buying, buyingAmount) */\n      mload(0x40)\n      tag_49\n      swap5\n      swap4\n      swap3\n      swap2\n      swap1\n      tag_40\n      jump\t// in\n    tag_49:\n      mload(0x40)\n      dup1\n      swap2\n      sub\n      swap1\n      log2\n        /* \"SimpleSwap.sol\":725:729  true */\n      0x01\n        /* \"SimpleSwap.sol\":718:729  return true */\n      swap1\n      pop\n        /* \"SimpleSwap.sol\":319:736  function add(... */\n      swap5\n      swap4\n      pop\n      pop\n      pop\n      pop\n      jump\t// out\n        /* \"#utility.yul\":88:205   */\n    tag_51:\n        /* \"#utility.yul\":197:198   */\n      0x00\n        /* \"#utility.yul\":194:195   */\n      dup1\n        /* \"#utility.yul\":187:199   */\n      revert\n        /* \"#utility.yul\":334:411   */\n    tag_53:\n        /* \"#utility.yul\":371:378   */\n      0x00\n        /* \"#utility.yul\":400:405   */\n      dup2\n        /* \"#utility.yul\":389:405   */\n      swap1\n      pop\n        /* \"#utility.yul\":334:411   */\n      swap2\n      swap1\n      pop\n      jump\t// out\n        /* \"#utility.yul\":417:539   */\n    tag_54:\n        /* \"#utility.yul\":490:514   */\n      tag_78\n        /* \"#utility.yul\":508:513   */\n      dup2\n        /* \"#utility.yul\":490:514   */\n      tag_53\n      jump\t// in\n    tag_78:\n        /* \"#utility.yul\":483:488   */\n      dup2\n        /* \"#utility.yul\":480:515   */\n      eq\n        /* \"#utility.yul\":470:533   */\n      tag_79\n      jumpi\n        /* \"#utility.yul\":529:530   */\n      0x00\n        /* \"#utility.yul\":526:527   */\n      dup1\n        /* \"#utility.yul\":519:531   */\n      revert\n        /* \"#utility.yul\":470:533   */\n    tag_79:\n        /* \"#utility.yul\":417:539   */\n      pop\n      jump\t// out\n        /* \"#utility.yul\":545:684   */\n    tag_55:\n        /* \"#utility.yul\":591:596   */\n      0x00\n        /* \"#utility.yul\":629:635   */\n      dup2\n        /* \"#utility.yul\":616:636   */\n      calldataload\n        /* \"#utility.yul\":607:636   */\n      swap1\n      pop\n        /* \"#utility.yul\":645:678   */\n      tag_81\n        /* \"#utility.yul\":672:677   */\n      dup2\n        /* \"#utility.yul\":645:678   */\n      tag_54\n      jump\t// in\n    tag_81:\n        /* \"#utility.yul\":545:684   */\n      swap3\n      swap2\n      pop\n      pop\n      jump\t// out\n        /* \"#utility.yul\":690:1019   */\n    tag_8:\n        /* \"#utility.yul\":749:755   */\n      0x00\n        /* \"#utility.yul\":798:800   */\n      0x20\n        /* \"#utility.yul\":786:795   */\n      dup3\n        /* \"#utility.yul\":777:784   */\n      dup5\n        /* \"#utility.yul\":773:796   */\n      sub\n        /* \"#utility.yul\":769:801   */\n      slt\n        /* \"#utility.yul\":766:885   */\n      iszero\n      tag_83\n      jumpi\n        /* \"#utility.yul\":804:883   */\n      tag_84\n      tag_51\n      jump\t// in\n    tag_84:\n        /* \"#utility.yul\":766:885   */\n    tag_83:\n        /* \"#utility.yul\":924:925   */\n      0x00\n        /* \"#utility.yul\":949:1002   */\n      tag_85\n        /* \"#utility.yul\":994:1001   */\n      dup5\n        /* \"#utility.yul\":985:991   */\n      dup3\n        /* \"#utility.yul\":974:983   */\n      dup6\n        /* \"#utility.yul\":970:992   */\n      add\n        /* \"#utility.yul\":949:1002   */\n      tag_55\n      jump\t// in\n    tag_85:\n        /* \"#utility.yul\":939:1002   */\n      swap2\n      pop\n        /* \"#utility.yul\":895:1012   */\n      pop\n        /* \"#utility.yul\":690:1019   */\n      swap3\n      swap2\n      pop\n      pop\n      jump\t// out\n        /* \"#utility.yul\":1025:1115   */\n    tag_56:\n        /* \"#utility.yul\":1059:1066   */\n      0x00\n        /* \"#utility.yul\":1102:1107   */\n      dup2\n        /* \"#utility.yul\":1095:1108   */\n      iszero\n        /* \"#utility.yul\":1088:1109   */\n      iszero\n        /* \"#utility.yul\":1077:1109   */\n      swap1\n      pop\n        /* \"#utility.yul\":1025:1115   */\n      swap2\n      swap1\n      pop\n      jump\t// out\n        /* \"#utility.yul\":1121:1230   */\n    tag_57:\n        /* \"#utility.yul\":1202:1223   */\n      tag_88\n        /* \"#utility.yul\":1217:1222   */\n      dup2\n        /* \"#utility.yul\":1202:1223   */\n      tag_56\n      jump\t// in\n    tag_88:\n        /* \"#utility.yul\":1197:1200   */\n      dup3\n        /* \"#utility.yul\":1190:1224   */\n      mstore\n        /* \"#utility.yul\":1121:1230   */\n      pop\n      pop\n      jump\t// out\n        /* \"#utility.yul\":1236:1446   */\n    tag_11:\n        /* \"#utility.yul\":1323:1327   */\n      0x00\n        /* \"#utility.yul\":1361:1363   */\n      0x20\n        /* \"#utility.yul\":1350:1359   */\n      dup3\n        /* \"#utility.yul\":1346:1364   */\n      add\n        /* \"#utility.yul\":1338:1364   */\n      swap1\n      pop\n        /* \"#utility.yul\":1374:1439   */\n      tag_90\n        /* \"#utility.yul\":1436:1437   */\n      0x00\n        /* \"#utility.yul\":1425:1434   */\n      dup4\n        /* \"#utility.yul\":1421:1438   */\n      add\n        /* \"#utility.yul\":1412:1418   */\n      dup5\n        /* \"#utility.yul\":1374:1439   */\n      tag_57\n      jump\t// in\n    tag_90:\n        /* \"#utility.yul\":1236:1446   */\n      swap3\n      swap2\n      pop\n      pop\n      jump\t// out\n        /* \"#utility.yul\":1452:1578   */\n    tag_58:\n        /* \"#utility.yul\":1489:1496   */\n      0x00\n        /* \"#utility.yul\":1529:1571   */\n      0xffffffffffffffffffffffffffffffffffffffff\n        /* \"#utility.yul\":1522:1527   */\n      dup3\n        /* \"#utility.yul\":1518:1572   */\n      and\n        /* \"#utility.yul\":1507:1572   */\n      swap1\n      pop\n        /* \"#utility.yul\":1452:1578   */\n      swap2\n      swap1\n      pop\n      jump\t// out\n        /* \"#utility.yul\":1584:1680   */\n    tag_59:\n        /* \"#utility.yul\":1621:1628   */\n      0x00\n        /* \"#utility.yul\":1650:1674   */\n      tag_93\n        /* \"#utility.yul\":1668:1673   */\n      dup3\n        /* \"#utility.yul\":1650:1674   */\n      tag_58\n      jump\t// in\n    tag_93:\n        /* \"#utility.yul\":1639:1674   */\n      swap1\n      pop\n        /* \"#utility.yul\":1584:1680   */\n      swap2\n      swap1\n      pop\n      jump\t// out\n        /* \"#utility.yul\":1686:1804   */\n    tag_60:\n        /* \"#utility.yul\":1773:1797   */\n      tag_95\n        /* \"#utility.yul\":1791:1796   */\n      dup2\n        /* \"#utility.yul\":1773:1797   */\n      tag_59\n      jump\t// in\n    tag_95:\n        /* \"#utility.yul\":1768:1771   */\n      dup3\n        /* \"#utility.yul\":1761:1798   */\n      mstore\n        /* \"#utility.yul\":1686:1804   */\n      pop\n      pop\n      jump\t// out\n        /* \"#utility.yul\":1810:1870   */\n    tag_61:\n        /* \"#utility.yul\":1838:1841   */\n      0x00\n        /* \"#utility.yul\":1859:1864   */\n      dup2\n        /* \"#utility.yul\":1852:1864   */\n      swap1\n      pop\n        /* \"#utility.yul\":1810:1870   */\n      swap2\n      swap1\n      pop\n      jump\t// out\n        /* \"#utility.yul\":1876:2018   */\n    tag_62:\n        /* \"#utility.yul\":1926:1935   */\n      0x00\n        /* \"#utility.yul\":1959:2012   */\n      tag_98\n        /* \"#utility.yul\":1977:2011   */\n      tag_99\n        /* \"#utility.yul\":1986:2010   */\n      tag_100\n        /* \"#utility.yul\":2004:2009   */\n      dup5\n        /* \"#utility.yul\":1986:2010   */\n      tag_58\n      jump\t// in\n    tag_100:\n        /* \"#utility.yul\":1977:2011   */\n      tag_61\n      jump\t// in\n    tag_99:\n        /* \"#utility.yul\":1959:2012   */\n      tag_58\n      jump\t// in\n    tag_98:\n        /* \"#utility.yul\":1946:2012   */\n      swap1\n      pop\n        /* \"#utility.yul\":1876:2018   */\n      swap2\n      swap1\n      pop\n      jump\t// out\n        /* \"#utility.yul\":2024:2150   */\n    tag_63:\n        /* \"#utility.yul\":2074:2083   */\n      0x00\n        /* \"#utility.yul\":2107:2144   */\n      tag_102\n        /* \"#utility.yul\":2138:2143   */\n      dup3\n        /* \"#utility.yul\":2107:2144   */\n      tag_62\n      jump\t// in\n    tag_102:\n        /* \"#utility.yul\":2094:2144   */\n      swap1\n      pop\n        /* \"#utility.yul\":2024:2150   */\n      swap2\n      swap1\n      pop\n      jump\t// out\n        /* \"#utility.yul\":2156:2296   */\n    tag_64:\n        /* \"#utility.yul\":2220:2229   */\n      0x00\n        /* \"#utility.yul\":2253:2290   */\n      tag_104\n        /* \"#utility.yul\":2284:2289   */\n      dup3\n        /* \"#utility.yul\":2253:2290   */\n      tag_63\n      jump\t// in\n    tag_104:\n        /* \"#utility.yul\":2240:2290   */\n      swap1\n      pop\n        /* \"#utility.yul\":2156:2296   */\n      swap2\n      swap1\n      pop\n      jump\t// out\n        /* \"#utility.yul\":2302:2461   */\n    tag_65:\n        /* \"#utility.yul\":2403:2454   */\n      tag_106\n        /* \"#utility.yul\":2448:2453   */\n      dup2\n        /* \"#utility.yul\":2403:2454   */\n      tag_64\n      jump\t// in\n    tag_106:\n        /* \"#utility.yul\":2398:2401   */\n      dup3\n        /* \"#utility.yul\":2391:2455   */\n      mstore\n        /* \"#utility.yul\":2302:2461   */\n      pop\n      pop\n      jump\t// out\n        /* \"#utility.yul\":2467:2585   */\n    tag_66:\n        /* \"#utility.yul\":2554:2578   */\n      tag_108\n        /* \"#utility.yul\":2572:2577   */\n      dup2\n        /* \"#utility.yul\":2554:2578   */\n      tag_53\n      jump\t// in\n    tag_108:\n        /* \"#utility.yul\":2549:2552   */\n      dup3\n        /* \"#utility.yul\":2542:2579   */\n      mstore\n        /* \"#utility.yul\":2467:2585   */\n      pop\n      pop\n      jump\t// out\n        /* \"#utility.yul\":2591:3410   */\n    tag_16:\n        /* \"#utility.yul\":2846:2850   */\n      0x00\n        /* \"#utility.yul\":2884:2887   */\n      0xc0\n        /* \"#utility.yul\":2873:2882   */\n      dup3\n        /* \"#utility.yul\":2869:2888   */\n      add\n        /* \"#utility.yul\":2861:2888   */\n      swap1\n      pop\n        /* \"#utility.yul\":2898:2969   */\n      tag_110\n        /* \"#utility.yul\":2966:2967   */\n      0x00\n        /* \"#utility.yul\":2955:2964   */\n      dup4\n        /* \"#utility.yul\":2951:2968   */\n      add\n        /* \"#utility.yul\":2942:2948   */\n      dup10\n        /* \"#utility.yul\":2898:2969   */\n      tag_60\n      jump\t// in\n    tag_110:\n        /* \"#utility.yul\":2979:3065   */\n      tag_111\n        /* \"#utility.yul\":3061:3063   */\n      0x20\n        /* \"#utility.yul\":3050:3059   */\n      dup4\n        /* \"#utility.yul\":3046:3064   */\n      add\n        /* \"#utility.yul\":3037:3043   */\n      dup9\n        /* \"#utility.yul\":2979:3065   */\n      tag_65\n      jump\t// in\n    tag_111:\n        /* \"#utility.yul\":3075:3147   */\n      tag_112\n        /* \"#utility.yul\":3143:3145   */\n      0x40\n        /* \"#utility.yul\":3132:3141   */\n      dup4\n        /* \"#utility.yul\":3128:3146   */\n      add\n        /* \"#utility.yul\":3119:3125   */\n      dup8\n        /* \"#utility.yul\":3075:3147   */\n      tag_66\n      jump\t// in\n    tag_112:\n        /* \"#utility.yul\":3157:3243   */\n      tag_113\n        /* \"#utility.yul\":3239:3241   */\n      0x60\n        /* \"#utility.yul\":3228:3237   */\n      dup4\n        /* \"#utility.yul\":3224:3242   */\n      add\n        /* \"#utility.yul\":3215:3221   */\n      dup7\n        /* \"#utility.yul\":3157:3243   */\n      tag_65\n      jump\t// in\n    tag_113:\n        /* \"#utility.yul\":3253:3326   */\n      tag_114\n        /* \"#utility.yul\":3321:3324   */\n      0x80\n        /* \"#utility.yul\":3310:3319   */\n      dup4\n        /* \"#utility.yul\":3306:3325   */\n      add\n        /* \"#utility.yul\":3297:3303   */\n      dup6\n        /* \"#utility.yul\":3253:3326   */\n      tag_66\n      jump\t// in\n    tag_114:\n        /* \"#utility.yul\":3336:3403   */\n      tag_115\n        /* \"#utility.yul\":3398:3401   */\n      0xa0\n        /* \"#utility.yul\":3387:3396   */\n      dup4\n        /* \"#utility.yul\":3383:3402   */\n      add\n        /* \"#utility.yul\":3374:3380   */\n      dup5\n        /* \"#utility.yul\":3336:3403   */\n      tag_57\n      jump\t// in\n    tag_115:\n        /* \"#utility.yul\":2591:3410   */\n      swap8\n      swap7\n      pop\n      pop\n      pop\n      pop\n      pop\n      pop\n      pop\n      jump\t// out\n        /* \"#utility.yul\":3416:3526   */\n    tag_67:\n        /* \"#utility.yul\":3467:3474   */\n      0x00\n        /* \"#utility.yul\":3496:3520   */\n      tag_117\n        /* \"#utility.yul\":3514:3519   */\n      dup3\n        /* \"#utility.yul\":3496:3520   */\n      tag_59\n      jump\t// in\n    tag_117:\n        /* \"#utility.yul\":3485:3520   */\n      swap1\n      pop\n        /* \"#utility.yul\":3416:3526   */\n      swap2\n      swap1\n      pop\n      jump\t// out\n        /* \"#utility.yul\":3532:3682   */\n    tag_68:\n        /* \"#utility.yul\":3619:3657   */\n      tag_119\n        /* \"#utility.yul\":3651:3656   */\n      dup2\n        /* \"#utility.yul\":3619:3657   */\n      tag_67\n      jump\t// in\n    tag_119:\n        /* \"#utility.yul\":3612:3617   */\n      dup2\n        /* \"#utility.yul\":3609:3658   */\n      eq\n        /* \"#utility.yul\":3599:3676   */\n      tag_120\n      jumpi\n        /* \"#utility.yul\":3672:3673   */\n      0x00\n        /* \"#utility.yul\":3669:3670   */\n      dup1\n        /* \"#utility.yul\":3662:3674   */\n      revert\n        /* \"#utility.yul\":3599:3676   */\n    tag_120:\n        /* \"#utility.yul\":3532:3682   */\n      pop\n      jump\t// out\n        /* \"#utility.yul\":3688:3855   */\n    tag_69:\n        /* \"#utility.yul\":3748:3753   */\n      0x00\n        /* \"#utility.yul\":3786:3792   */\n      dup2\n        /* \"#utility.yul\":3773:3793   */\n      calldataload\n        /* \"#utility.yul\":3764:3793   */\n      swap1\n      pop\n        /* \"#utility.yul\":3802:3849   */\n      tag_122\n        /* \"#utility.yul\":3843:3848   */\n      dup2\n        /* \"#utility.yul\":3802:3849   */\n      tag_68\n      jump\t// in\n    tag_122:\n        /* \"#utility.yul\":3688:3855   */\n      swap3\n      swap2\n      pop\n      pop\n      jump\t// out\n        /* \"#utility.yul\":3861:4682   */\n    tag_19:\n        /* \"#utility.yul\":3975:3981   */\n      0x00\n        /* \"#utility.yul\":3983:3989   */\n      dup1\n        /* \"#utility.yul\":3991:3997   */\n      0x00\n        /* \"#utility.yul\":3999:4005   */\n      dup1\n        /* \"#utility.yul\":4048:4051   */\n      0x80\n        /* \"#utility.yul\":4036:4045   */\n      dup6\n        /* \"#utility.yul\":4027:4034   */\n      dup8\n        /* \"#utility.yul\":4023:4046   */\n      sub\n        /* \"#utility.yul\":4019:4052   */\n      slt\n        /* \"#utility.yul\":4016:4136   */\n      iszero\n      tag_124\n      jumpi\n        /* \"#utility.yul\":4055:4134   */\n      tag_125\n      tag_51\n      jump\t// in\n    tag_125:\n        /* \"#utility.yul\":4016:4136   */\n    tag_124:\n        /* \"#utility.yul\":4175:4176   */\n      0x00\n        /* \"#utility.yul\":4200:4267   */\n      tag_126\n        /* \"#utility.yul\":4259:4266   */\n      dup8\n        /* \"#utility.yul\":4250:4256   */\n      dup3\n        /* \"#utility.yul\":4239:4248   */\n      dup9\n        /* \"#utility.yul\":4235:4257   */\n      add\n        /* \"#utility.yul\":4200:4267   */\n      tag_69\n      jump\t// in\n    tag_126:\n        /* \"#utility.yul\":4190:4267   */\n      swap5\n      pop\n        /* \"#utility.yul\":4146:4277   */\n      pop\n        /* \"#utility.yul\":4316:4318   */\n      0x20\n        /* \"#utility.yul\":4342:4395   */\n      tag_127\n        /* \"#utility.yul\":4387:4394   */\n      dup8\n        /* \"#utility.yul\":4378:4384   */\n      dup3\n        /* \"#utility.yul\":4367:4376   */\n      dup9\n        /* \"#utility.yul\":4363:4385   */\n      add\n        /* \"#utility.yul\":4342:4395   */\n      tag_55\n      jump\t// in\n    tag_127:\n        /* \"#utility.yul\":4332:4395   */\n      swap4\n      pop\n        /* \"#utility.yul\":4287:4405   */\n      pop\n        /* \"#utility.yul\":4444:4446   */\n      0x40\n        /* \"#utility.yul\":4470:4537   */\n      tag_128\n        /* \"#utility.yul\":4529:4536   */\n      dup8\n        /* \"#utility.yul\":4520:4526   */\n      dup3\n        /* \"#utility.yul\":4509:4518   */\n      dup9\n        /* \"#utility.yul\":4505:4527   */\n      add\n        /* \"#utility.yul\":4470:4537   */\n      tag_69\n      jump\t// in\n    tag_128:\n        /* \"#utility.yul\":4460:4537   */\n      swap3\n      pop\n        /* \"#utility.yul\":4415:4547   */\n      pop\n        /* \"#utility.yul\":4586:4588   */\n      0x60\n        /* \"#utility.yul\":4612:4665   */\n      tag_129\n        /* \"#utility.yul\":4657:4664   */\n      dup8\n        /* \"#utility.yul\":4648:4654   */\n      dup3\n        /* \"#utility.yul\":4637:4646   */\n      dup9\n        /* \"#utility.yul\":4633:4655   */\n      add\n        /* \"#utility.yul\":4612:4665   */\n      tag_55\n      jump\t// in\n    tag_129:\n        /* \"#utility.yul\":4602:4665   */\n      swap2\n      pop\n        /* \"#utility.yul\":4557:4675   */\n      pop\n        /* \"#utility.yul\":3861:4682   */\n      swap3\n      swap6\n      swap2\n      swap5\n      pop\n      swap3\n      pop\n      jump\t// out\n        /* \"#utility.yul\":4688:4868   */\n    tag_25:\n        /* \"#utility.yul\":4736:4813   */\n      0x4e487b7100000000000000000000000000000000000000000000000000000000\n        /* \"#utility.yul\":4733:4734   */\n      0x00\n        /* \"#utility.yul\":4726:4814   */\n      mstore\n        /* \"#utility.yul\":4833:4837   */\n      0x32\n        /* \"#utility.yul\":4830:4831   */\n      0x04\n        /* \"#utility.yul\":4823:4838   */\n      mstore\n        /* \"#utility.yul\":4857:4861   */\n      0x24\n        /* \"#utility.yul\":4854:4855   */\n      0x00\n        /* \"#utility.yul\":4847:4862   */\n      revert\n        /* \"#utility.yul\":4874:5206   */\n    tag_29:\n        /* \"#utility.yul\":4995:4999   */\n      0x00\n        /* \"#utility.yul\":5033:5035   */\n      0x40\n        /* \"#utility.yul\":5022:5031   */\n      dup3\n        /* \"#utility.yul\":5018:5036   */\n      add\n        /* \"#utility.yul\":5010:5036   */\n      swap1\n      pop\n        /* \"#utility.yul\":5046:5117   */\n      tag_132\n        /* \"#utility.yul\":5114:5115   */\n      0x00\n        /* \"#utility.yul\":5103:5112   */\n      dup4\n        /* \"#utility.yul\":5099:5116   */\n      add\n        /* \"#utility.yul\":5090:5096   */\n      dup6\n        /* \"#utility.yul\":5046:5117   */\n      tag_60\n      jump\t// in\n    tag_132:\n        /* \"#utility.yul\":5127:5199   */\n      tag_133\n        /* \"#utility.yul\":5195:5197   */\n      0x20\n        /* \"#utility.yul\":5184:5193   */\n      dup4\n        /* \"#utility.yul\":5180:5198   */\n      add\n        /* \"#utility.yul\":5171:5177   */\n      dup5\n        /* \"#utility.yul\":5127:5199   */\n      tag_66\n      jump\t// in\n    tag_133:\n        /* \"#utility.yul\":4874:5206   */\n      swap4\n      swap3\n      pop\n      pop\n      pop\n      jump\t// out\n        /* \"#utility.yul\":5212:5328   */\n    tag_70:\n        /* \"#utility.yul\":5282:5303   */\n      tag_135\n        /* \"#utility.yul\":5297:5302   */\n      dup2\n        /* \"#utility.yul\":5282:5303   */\n      tag_56\n      jump\t// in\n    tag_135:\n        /* \"#utility.yul\":5275:5280   */\n      dup2\n        /* \"#utility.yul\":5272:5304   */\n      eq\n        /* \"#utility.yul\":5262:5322   */\n      tag_136\n      jumpi\n        /* \"#utility.yul\":5318:5319   */\n      0x00\n        /* \"#utility.yul\":5315:5316   */\n      dup1\n        /* \"#utility.yul\":5308:5320   */\n      revert\n        /* \"#utility.yul\":5262:5322   */\n    tag_136:\n        /* \"#utility.yul\":5212:5328   */\n      pop\n      jump\t// out\n        /* \"#utility.yul\":5334:5471   */\n    tag_71:\n        /* \"#utility.yul\":5388:5393   */\n      0x00\n        /* \"#utility.yul\":5419:5425   */\n      dup2\n        /* \"#utility.yul\":5413:5426   */\n      mload\n        /* \"#utility.yul\":5404:5426   */\n      swap1\n      pop\n        /* \"#utility.yul\":5435:5465   */\n      tag_138\n        /* \"#utility.yul\":5459:5464   */\n      dup2\n        /* \"#utility.yul\":5435:5465   */\n      tag_70\n      jump\t// in\n    tag_138:\n        /* \"#utility.yul\":5334:5471   */\n      swap3\n      swap2\n      pop\n      pop\n      jump\t// out\n        /* \"#utility.yul\":5477:5822   */\n    tag_33:\n        /* \"#utility.yul\":5544:5550   */\n      0x00\n        /* \"#utility.yul\":5593:5595   */\n      0x20\n        /* \"#utility.yul\":5581:5590   */\n      dup3\n        /* \"#utility.yul\":5572:5579   */\n      dup5\n        /* \"#utility.yul\":5568:5591   */\n      sub\n        /* \"#utility.yul\":5564:5596   */\n      slt\n        /* \"#utility.yul\":5561:5680   */\n      iszero\n      tag_140\n      jumpi\n        /* \"#utility.yul\":5599:5678   */\n      tag_141\n      tag_51\n      jump\t// in\n    tag_141:\n        /* \"#utility.yul\":5561:5680   */\n    tag_140:\n        /* \"#utility.yul\":5719:5720   */\n      0x00\n        /* \"#utility.yul\":5744:5805   */\n      tag_142\n        /* \"#utility.yul\":5797:5804   */\n      dup5\n        /* \"#utility.yul\":5788:5794   */\n      dup3\n        /* \"#utility.yul\":5777:5786   */\n      dup6\n        /* \"#utility.yul\":5773:5795   */\n      add\n        /* \"#utility.yul\":5744:5805   */\n      tag_71\n      jump\t// in\n    tag_142:\n        /* \"#utility.yul\":5734:5805   */\n      swap2\n      pop\n        /* \"#utility.yul\":5690:5815   */\n      pop\n        /* \"#utility.yul\":5477:5822   */\n      swap3\n      swap2\n      pop\n      pop\n      jump\t// out\n        /* \"#utility.yul\":5828:6270   */\n    tag_35:\n        /* \"#utility.yul\":5977:5981   */\n      0x00\n        /* \"#utility.yul\":6015:6017   */\n      0x60\n        /* \"#utility.yul\":6004:6013   */\n      dup3\n        /* \"#utility.yul\":6000:6018   */\n      add\n        /* \"#utility.yul\":5992:6018   */\n      swap1\n      pop\n        /* \"#utility.yul\":6028:6099   */\n      tag_144\n        /* \"#utility.yul\":6096:6097   */\n      0x00\n        /* \"#utility.yul\":6085:6094   */\n      dup4\n        /* \"#utility.yul\":6081:6098   */\n      add\n        /* \"#utility.yul\":6072:6078   */\n      dup7\n        /* \"#utility.yul\":6028:6099   */\n      tag_60\n      jump\t// in\n    tag_144:\n        /* \"#utility.yul\":6109:6181   */\n      tag_145\n        /* \"#utility.yul\":6177:6179   */\n      0x20\n        /* \"#utility.yul\":6166:6175   */\n      dup4\n        /* \"#utility.yul\":6162:6180   */\n      add\n        /* \"#utility.yul\":6153:6159   */\n      dup6\n        /* \"#utility.yul\":6109:6181   */\n      tag_60\n      jump\t// in\n    tag_145:\n        /* \"#utility.yul\":6191:6263   */\n      tag_146\n        /* \"#utility.yul\":6259:6261   */\n      0x40\n        /* \"#utility.yul\":6248:6257   */\n      dup4\n        /* \"#utility.yul\":6244:6262   */\n      add\n        /* \"#utility.yul\":6235:6241   */\n      dup5\n        /* \"#utility.yul\":6191:6263   */\n      tag_66\n      jump\t// in\n    tag_146:\n        /* \"#utility.yul\":5828:6270   */\n      swap5\n      swap4\n      pop\n      pop\n      pop\n      pop\n      jump\t// out\n        /* \"#utility.yul\":6276:6885   */\n    tag_40:\n        /* \"#utility.yul\":6481:6485   */\n      0x00\n        /* \"#utility.yul\":6519:6522   */\n      0x80\n        /* \"#utility.yul\":6508:6517   */\n      dup3\n        /* \"#utility.yul\":6504:6523   */\n      add\n        /* \"#utility.yul\":6496:6523   */\n      swap1\n      pop\n        /* \"#utility.yul\":6533:6618   */\n      tag_148\n        /* \"#utility.yul\":6615:6616   */\n      0x00\n        /* \"#utility.yul\":6604:6613   */\n      dup4\n        /* \"#utility.yul\":6600:6617   */\n      add\n        /* \"#utility.yul\":6591:6597   */\n      dup8\n        /* \"#utility.yul\":6533:6618   */\n      tag_65\n      jump\t// in\n    tag_148:\n        /* \"#utility.yul\":6628:6700   */\n      tag_149\n        /* \"#utility.yul\":6696:6698   */\n      0x20\n        /* \"#utility.yul\":6685:6694   */\n      dup4\n        /* \"#utility.yul\":6681:6699   */\n      add\n        /* \"#utility.yul\":6672:6678   */\n      dup7\n        /* \"#utility.yul\":6628:6700   */\n      tag_66\n      jump\t// in\n    tag_149:\n        /* \"#utility.yul\":6710:6796   */\n      tag_150\n        /* \"#utility.yul\":6792:6794   */\n      0x40\n        /* \"#utility.yul\":6781:6790   */\n      dup4\n        /* \"#utility.yul\":6777:6795   */\n      add\n        /* \"#utility.yul\":6768:6774   */\n      dup6\n        /* \"#utility.yul\":6710:6796   */\n      tag_65\n      jump\t// in\n    tag_150:\n        /* \"#utility.yul\":6806:6878   */\n      tag_151\n        /* \"#utility.yul\":6874:6876   */\n      0x60\n        /* \"#utility.yul\":6863:6872   */\n      dup4\n        /* \"#utility.yul\":6859:6877   */\n      add\n        /* \"#utility.yul\":6850:6856   */\n      dup5\n        /* \"#utility.yul\":6806:6878   */\n      tag_66\n      jump\t// in\n    tag_151:\n        /* \"#utility.yul\":6276:6885   */\n      swap6\n      swap5\n      pop\n      pop\n      pop\n      pop\n      pop\n      jump\t// out\n\n    auxdata: 0xa2646970667358221220b3351063bb89b1b9b13ae3f6abad2ca60d807b6894edf1e5e1d10e8c1be6401664736f6c63430008120033\n}\n",
				"bytecode": {
					"linkReferences": {},
					"object": "608060405234801561001057600080fd5b50610a9e806100206000396000f3fe608060405234801561001057600080fd5b50600436106100415760003560e01c806353556559146100465780638a72ea6a14610076578063e77e2c1b146100ab575b600080fd5b610060600480360381019061005b9190610723565b6100db565b60405161006d919061076b565b60405180910390f35b610090600480360381019061008b9190610723565b6103a4565b6040516100a296959493929190610835565b60405180910390f35b6100c560048036038101906100c091906108d4565b61045d565b6040516100d2919061076b565b60405180910390f35b600080600083815481106100f2576100f161093b565b5b90600052602060002090600602019050600115158160050160009054906101000a900460ff16151503610399578060010160009054906101000a900473ffffffffffffffffffffffffffffffffffffffff1673ffffffffffffffffffffffffffffffffffffffff1663a9059cbb3383600201546040518363ffffffff1660e01b815260040161018292919061096a565b6020604051808303816000875af11580156101a1573d6000803e3d6000fd5b505050506040513d601f19601f820116820180604052508101906101c591906109bf565b508060030160009054906101000a900473ffffffffffffffffffffffffffffffffffffffff1673ffffffffffffffffffffffffffffffffffffffff166323b872dd338360000160009054906101000a900473ffffffffffffffffffffffffffffffffffffffff1684600401546040518463ffffffff1660e01b815260040161024f939291906109ec565b6020604051808303816000875af115801561026e573d6000803e3d6000fd5b505050506040513d601f19601f8201168201806040525081019061029291906109bf565b5060008160050160006101000a81548160ff0219169083151502179055508060000160009054906101000a900473ffffffffffffffffffffffffffffffffffffffff1673ffffffffffffffffffffffffffffffffffffffff163373ffffffffffffffffffffffffffffffffffffffff167feca87c8091d5a2bc62e0658afcf53e701886f6509c5155d3c3b14a3c4b4852e78360010160009054906101000a900473ffffffffffffffffffffffffffffffffffffffff1684600201548560030160009054906101000a900473ffffffffffffffffffffffffffffffffffffffff1686600401546040516103879493929190610a23565b60405180910390a3600191505061039f565b60009150505b919050565b600081815481106103b457600080fd5b90600052602060002090600602016000915090508060000160009054906101000a900473ffffffffffffffffffffffffffffffffffffffff16908060010160009054906101000a900473ffffffffffffffffffffffffffffffffffffffff16908060020154908060030160009054906101000a900473ffffffffffffffffffffffffffffffffffffffff16908060040154908060050160009054906101000a900460ff16905086565b60008473ffffffffffffffffffffffffffffffffffffffff166323b872dd3330876040518463ffffffff1660e01b815260040161049c939291906109ec565b6020604051808303816000875af11580156104bb573d6000803e3d6000fd5b505050506040513d601f19601f820116820180604052508101906104df91906109bf565b5060006040518060c001604052803373ffffffffffffffffffffffffffffffffffffffff1681526020018773ffffffffffffffffffffffffffffffffffffffff1681526020018681526020018573ffffffffffffffffffffffffffffffffffffffff16815260200184815260200160011515815250908060018154018082558091505060019003906000526020600020906006020160009091909190915060008201518160000160006101000a81548173ffffffffffffffffffffffffffffffffffffffff021916908373ffffffffffffffffffffffffffffffffffffffff16021790555060208201518160010160006101000a81548173ffffffffffffffffffffffffffffffffffffffff021916908373ffffffffffffffffffffffffffffffffffffffff1602179055506040820151816002015560608201518160030160006101000a81548173ffffffffffffffffffffffffffffffffffffffff021916908373ffffffffffffffffffffffffffffffffffffffff1602179055506080820151816004015560a08201518160050160006101000a81548160ff02191690831515021790555050503373ffffffffffffffffffffffffffffffffffffffff167fc04fc847f7b541ca5745975523ea1cb56c86867667754243230548fdb9e9b85f868686866040516106d49493929190610a23565b60405180910390a260019050949350505050565b600080fd5b6000819050919050565b610700816106ed565b811461070b57600080fd5b50565b60008135905061071d816106f7565b92915050565b600060208284031215610739576107386106e8565b5b60006107478482850161070e565b91505092915050565b60008115159050919050565b61076581610750565b82525050565b6000602082019050610780600083018461075c565b92915050565b600073ffffffffffffffffffffffffffffffffffffffff82169050919050565b60006107b182610786565b9050919050565b6107c1816107a6565b82525050565b6000819050919050565b60006107ec6107e76107e284610786565b6107c7565b610786565b9050919050565b60006107fe826107d1565b9050919050565b6000610810826107f3565b9050919050565b61082081610805565b82525050565b61082f816106ed565b82525050565b600060c08201905061084a60008301896107b8565b6108576020830188610817565b6108646040830187610826565b6108716060830186610817565b61087e6080830185610826565b61088b60a083018461075c565b979650505050505050565b60006108a1826107a6565b9050919050565b6108b181610896565b81146108bc57600080fd5b50565b6000813590506108ce816108a8565b92915050565b600080600080608085870312156108ee576108ed6106e8565b5b60006108fc878288016108bf565b945050602061090d8782880161070e565b935050604061091e878288016108bf565b925050606061092f8782880161070e565b91505092959194509250565b7f4e487b7100000000000000000000000000000000000000000000000000000000600052603260045260246000fd5b600060408201905061097f60008301856107b8565b61098c6020830184610826565b9392505050565b61099c81610750565b81146109a757600080fd5b50565b6000815190506109b981610993565b92915050565b6000602082840312156109d5576109d46106e8565b5b60006109e3848285016109aa565b91505092915050565b6000606082019050610a0160008301866107b8565b610a0e60208301856107b8565b610a1b6040830184610826565b949350505050565b6000608082019050610a386000830187610817565b610a456020830186610826565b610a526040830185610817565b610a5f6060830184610826565b9594505050505056fea2646970667358221220b3351063bb89b1b9b13ae3f6abad2ca60d807b6894edf1e5e1d10e8c1be6401664736f6c63430008120033",
					"opcodes": "PUSH1 0x80 PUSH1 0x40 MSTORE CALLVALUE DUP1 ISZERO PUSH2 0x10 JUMPI PUSH1 0x0 DUP1 REVERT JUMPDEST POP PUSH2 0xA9E DUP1 PUSH2 0x20 PUSH1 0x0 CODECOPY PUSH1 0x0 RETURN INVALID PUSH1 0x80 PUSH1 0x40 MSTORE CALLVALUE DUP1 ISZERO PUSH2 0x10 JUMPI PUSH1 0x0 DUP1 REVERT JUMPDEST POP PUSH1 0x4 CALLDATASIZE LT PUSH2 0x41 JUMPI PUSH1 0x0 CALLDATALOAD PUSH1 0xE0 SHR DUP1 PUSH4 0x53556559 EQ PUSH2 0x46 JUMPI DUP1 PUSH4 0x8A72EA6A EQ PUSH2 0x76 JUMPI DUP1 PUSH4 0xE77E2C1B EQ PUSH2 0xAB JUMPI JUMPDEST PUSH1 0x0 DUP1 REVERT JUMPDEST PUSH2 0x60 PUSH1 0x4 DUP1 CALLDATASIZE SUB DUP2 ADD SWAP1 PUSH2 0x5B SWAP2 SWAP1 PUSH2 0x723 JUMP JUMPDEST PUSH2 0xDB JUMP JUMPDEST PUSH1 0x40 MLOAD PUSH2 0x6D SWAP2 SWAP1 PUSH2 0x76B JUMP JUMPDEST PUSH1 0x40 MLOAD DUP1 SWAP2 SUB SWAP1 RETURN JUMPDEST PUSH2 0x90 PUSH1 0x4 DUP1 CALLDATASIZE SUB DUP2 ADD SWAP1 PUSH2 0x8B SWAP2 SWAP1 PUSH2 0x723 JUMP JUMPDEST PUSH2 0x3A4 JUMP JUMPDEST PUSH1 0x40 MLOAD PUSH2 0xA2 SWAP7 SWAP6 SWAP5 SWAP4 SWAP3 SWAP2 SWAP1 PUSH2 0x835 JUMP JUMPDEST PUSH1 0x40 MLOAD DUP1 SWAP2 SUB SWAP1 RETURN JUMPDEST PUSH2 0xC5 PUSH1 0x4 DUP1 CALLDATASIZE SUB DUP2 ADD SWAP1 PUSH2 0xC0 SWAP2 SWAP1 PUSH2 0x8D4 JUMP JUMPDEST PUSH2 0x45D JUMP JUMPDEST PUSH1 0x40 MLOAD PUSH2 0xD2 SWAP2 SWAP1 PUSH2 0x76B JUMP JUMPDEST PUSH1 0x40 MLOAD DUP1 SWAP2 SUB SWAP1 RETURN JUMPDEST PUSH1 0x0 DUP1 PUSH1 0x0 DUP4 DUP2 SLOAD DUP2 LT PUSH2 0xF2 JUMPI PUSH2 0xF1 PUSH2 0x93B JUMP JUMPDEST JUMPDEST SWAP1 PUSH1 0x0 MSTORE PUSH1 0x20 PUSH1 0x0 KECCAK256 SWAP1 PUSH1 0x6 MUL ADD SWAP1 POP PUSH1 0x1 ISZERO ISZERO DUP2 PUSH1 0x5 ADD PUSH1 0x0 SWAP1 SLOAD SWAP1 PUSH2 0x100 EXP SWAP1 DIV PUSH1 0xFF AND ISZERO ISZERO SUB PUSH2 0x399 JUMPI DUP1 PUSH1 0x1 ADD PUSH1 0x0 SWAP1 SLOAD SWAP1 PUSH2 0x100 EXP SWAP1 DIV PUSH20 0xFFFFFFFFFFFFFFFFFFFFFFFFFFFFFFFFFFFFFFFF AND PUSH20 0xFFFFFFFFFFFFFFFFFFFFFFFFFFFFFFFFFFFFFFFF AND PUSH4 0xA9059CBB CALLER DUP4 PUSH1 0x2 ADD SLOAD PUSH1 0x40 MLOAD DUP4 PUSH4 0xFFFFFFFF AND PUSH1 0xE0 SHL DUP2 MSTORE PUSH1 0x4 ADD PUSH2 0x182 SWAP3 SWAP2 SWAP1 PUSH2 0x96A JUMP JUMPDEST PUSH1 0x20 PUSH1 0x40 MLOAD DUP1 DUP4 SUB DUP2 PUSH1 0x0 DUP8 GAS CALL ISZERO DUP1 ISZERO PUSH2 0x1A1 JUMPI RETURNDATASIZE PUSH1 0x0 DUP1 RETURNDATACOPY RETURNDATASIZE PUSH1 0x0 REVERT JUMPDEST POP POP POP POP PUSH1 0x40 MLOAD RETURNDATASIZE PUSH1 0x1F NOT PUSH1 0x1F DUP3 ADD AND DUP3 ADD DUP1 PUSH1 0x40 MSTORE POP DUP2 ADD SWAP1 PUSH2 0x1C5 SWAP2 SWAP1 PUSH2 0x9BF JUMP JUMPDEST POP DUP1 PUSH1 0x3 ADD PUSH1 0x0 SWAP1 SLOAD SWAP1 PUSH2 0x100 EXP SWAP1 DIV PUSH20 0xFFFFFFFFFFFFFFFFFFFFFFFFFFFFFFFFFFFFFFFF AND PUSH20 0xFFFFFFFFFFFFFFFFFFFFFFFFFFFFFFFFFFFFFFFF AND PUSH4 0x23B872DD CALLER DUP4 PUSH1 0x0 ADD PUSH1 0x0 SWAP1 SLOAD SWAP1 PUSH2 0x100 EXP SWAP1 DIV PUSH20 0xFFFFFFFFFFFFFFFFFFFFFFFFFFFFFFFFFFFFFFFF AND DUP5 PUSH1 0x4 ADD SLOAD PUSH1 0x40 MLOAD DUP5 PUSH4 0xFFFFFFFF AND PUSH1 0xE0 SHL DUP2 MSTORE PUSH1 0x4 ADD PUSH2 0x24F SWAP4 SWAP3 SWAP2 SWAP1 PUSH2 0x9EC JUMP JUMPDEST PUSH1 0x20 PUSH1 0x40 MLOAD DUP1 DUP4 SUB DUP2 PUSH1 0x0 DUP8 GAS CALL ISZERO DUP1 ISZERO PUSH2 0x26E JUMPI RETURNDATASIZE PUSH1 0x0 DUP1 RETURNDATACOPY RETURNDATASIZE PUSH1 0x0 REVERT JUMPDEST POP POP POP POP PUSH1 0x40 MLOAD RETURNDATASIZE PUSH1 0x1F NOT PUSH1 0x1F DUP3 ADD AND DUP3 ADD DUP1 PUSH1 0x40 MSTORE POP DUP2 ADD SWAP1 PUSH2 0x292 SWAP2 SWAP1 PUSH2 0x9BF JUMP JUMPDEST POP PUSH1 0x0 DUP2 PUSH1 0x5 ADD PUSH1 0x0 PUSH2 0x100 EXP DUP2 SLOAD DUP2 PUSH1 0xFF MUL NOT AND SWAP1 DUP4 ISZERO ISZERO MUL OR SWAP1 SSTORE POP DUP1 PUSH1 0x0 ADD PUSH1 0x0 SWAP1 SLOAD SWAP1 PUSH2 0x100 EXP SWAP1 DIV PUSH20 0xFFFFFFFFFFFFFFFFFFFFFFFFFFFFFFFFFFFFFFFF AND PUSH20 0xFFFFFFFFFFFFFFFFFFFFFFFFFFFFFFFFFFFFFFFF AND CALLER PUSH20 0xFFFFFFFFFFFFFFFFFFFFFFFFFFFFFFFFFFFFFFFF AND PUSH32 0xECA87C8091D5A2BC62E0658AFCF53E701886F6509C5155D3C3B14A3C4B4852E7 DUP4 PUSH1 0x1 ADD PUSH1 0x0 SWAP1 SLOAD SWAP1 PUSH2 0x100 EXP SWAP1 DIV PUSH20 0xFFFFFFFFFFFFFFFFFFFFFFFFFFFFFFFFFFFFFFFF AND DUP5 PUSH1 0x2 ADD SLOAD DUP6 PUSH1 0x3 ADD PUSH1 0x0 SWAP1 SLOAD SWAP1 PUSH2 0x100 EXP SWAP1 DIV PUSH20 0xFFFFFFFFFFFFFFFFFFFFFFFFFFFFFFFFFFFFFFFF AND DUP7 PUSH1 0x4 ADD SLOAD PUSH1 0x40 MLOAD PUSH2 0x387 SWAP5 SWAP4 SWAP3 SWAP2 SWAP1 PUSH2 0xA23 JUMP JUMPDEST PUSH1 0x40 MLOAD DUP1 SWAP2 SUB SWAP1 LOG3 PUSH1 0x1 SWAP2 POP POP PUSH2 0x39F JUMP JUMPDEST PUSH1 0x0 SWAP2 POP POP JUMPDEST SWAP2 SWAP1 POP JUMP JUMPDEST PUSH1 0x0 DUP2 DUP2 SLOAD DUP2 LT PUSH2 0x3B4 JUMPI PUSH1 0x0 DUP1 REVERT JUMPDEST SWAP1 PUSH1 0x0 MSTORE PUSH1 0x20 PUSH1 0x0 KECCAK256 SWAP1 PUSH1 0x6 MUL ADD PUSH1 0x0 SWAP2 POP SWAP1 POP DUP1 PUSH1 0x0 ADD PUSH1 0x0 SWAP1 SLOAD SWAP1 PUSH2 0x100 EXP SWAP1 DIV PUSH20 0xFFFFFFFFFFFFFFFFFFFFFFFFFFFFFFFFFFFFFFFF AND SWAP1 DUP1 PUSH1 0x1 ADD PUSH1 0x0 SWAP1 SLOAD SWAP1 PUSH2 0x100 EXP SWAP1 DIV PUSH20 0xFFFFFFFFFFFFFFFFFFFFFFFFFFFFFFFFFFFFFFFF AND SWAP1 DUP1 PUSH1 0x2 ADD SLOAD SWAP1 DUP1 PUSH1 0x3 ADD PUSH1 0x0 SWAP1 SLOAD SWAP1 PUSH2 0x100 EXP SWAP1 DIV PUSH20 0xFFFFFFFFFFFFFFFFFFFFFFFFFFFFFFFFFFFFFFFF AND SWAP1 DUP1 PUSH1 0x4 ADD SLOAD SWAP1 DUP1 PUSH1 0x5 ADD PUSH1 0x0 SWAP1 SLOAD SWAP1 PUSH2 0x100 EXP SWAP1 DIV PUSH1 0xFF AND SWAP1 POP DUP7 JUMP JUMPDEST PUSH1 0x0 DUP5 PUSH20 0xFFFFFFFFFFFFFFFFFFFFFFFFFFFFFFFFFFFFFFFF AND PUSH4 0x23B872DD CALLER ADDRESS DUP8 PUSH1 0x40 MLOAD DUP5 PUSH4 0xFFFFFFFF AND PUSH1 0xE0 SHL DUP2 MSTORE PUSH1 0x4 ADD PUSH2 0x49C SWAP4 SWAP3 SWAP2 SWAP1 PUSH2 0x9EC JUMP JUMPDEST PUSH1 0x20 PUSH1 0x40 MLOAD DUP1 DUP4 SUB DUP2 PUSH1 0x0 DUP8 GAS CALL ISZERO DUP1 ISZERO PUSH2 0x4BB JUMPI RETURNDATASIZE PUSH1 0x0 DUP1 RETURNDATACOPY RETURNDATASIZE PUSH1 0x0 REVERT JUMPDEST POP POP POP POP PUSH1 0x40 MLOAD RETURNDATASIZE PUSH1 0x1F NOT PUSH1 0x1F DUP3 ADD AND DUP3 ADD DUP1 PUSH1 0x40 MSTORE POP DUP2 ADD SWAP1 PUSH2 0x4DF SWAP2 SWAP1 PUSH2 0x9BF JUMP JUMPDEST POP PUSH1 0x0 PUSH1 0x40 MLOAD DUP1 PUSH1 0xC0 ADD PUSH1 0x40 MSTORE DUP1 CALLER PUSH20 0xFFFFFFFFFFFFFFFFFFFFFFFFFFFFFFFFFFFFFFFF AND DUP2 MSTORE PUSH1 0x20 ADD DUP8 PUSH20 0xFFFFFFFFFFFFFFFFFFFFFFFFFFFFFFFFFFFFFFFF AND DUP2 MSTORE PUSH1 0x20 ADD DUP7 DUP2 MSTORE PUSH1 0x20 ADD DUP6 PUSH20 0xFFFFFFFFFFFFFFFFFFFFFFFFFFFFFFFFFFFFFFFF AND DUP2 MSTORE PUSH1 0x20 ADD DUP5 DUP2 MSTORE PUSH1 0x20 ADD PUSH1 0x1 ISZERO ISZERO DUP2 MSTORE POP SWAP1 DUP1 PUSH1 0x1 DUP2 SLOAD ADD DUP1 DUP3 SSTORE DUP1 SWAP2 POP POP PUSH1 0x1 SWAP1 SUB SWAP1 PUSH1 0x0 MSTORE PUSH1 0x20 PUSH1 0x0 KECCAK256 SWAP1 PUSH1 0x6 MUL ADD PUSH1 0x0 SWAP1 SWAP2 SWAP1 SWAP2 SWAP1 SWAP2 POP PUSH1 0x0 DUP3 ADD MLOAD DUP2 PUSH1 0x0 ADD PUSH1 0x0 PUSH2 0x100 EXP DUP2 SLOAD DUP2 PUSH20 0xFFFFFFFFFFFFFFFFFFFFFFFFFFFFFFFFFFFFFFFF MUL NOT AND SWAP1 DUP4 PUSH20 0xFFFFFFFFFFFFFFFFFFFFFFFFFFFFFFFFFFFFFFFF AND MUL OR SWAP1 SSTORE POP PUSH1 0x20 DUP3 ADD MLOAD DUP2 PUSH1 0x1 ADD PUSH1 0x0 PUSH2 0x100 EXP DUP2 SLOAD DUP2 PUSH20 0xFFFFFFFFFFFFFFFFFFFFFFFFFFFFFFFFFFFFFFFF MUL NOT AND SWAP1 DUP4 PUSH20 0xFFFFFFFFFFFFFFFFFFFFFFFFFFFFFFFFFFFFFFFF AND MUL OR SWAP1 SSTORE POP PUSH1 0x40 DUP3 ADD MLOAD DUP2 PUSH1 0x2 ADD SSTORE PUSH1 0x60 DUP3 ADD MLOAD DUP2 PUSH1 0x3 ADD PUSH1 0x0 PUSH2 0x100 EXP DUP2 SLOAD DUP2 PUSH20 0xFFFFFFFFFFFFFFFFFFFFFFFFFFFFFFFFFFFFFFFF MUL NOT AND SWAP1 DUP4 PUSH20 0xFFFFFFFFFFFFFFFFFFFFFFFFFFFFFFFFFFFFFFFF AND MUL OR SWAP1 SSTORE POP PUSH1 0x80 DUP3 ADD MLOAD DUP2 PUSH1 0x4 ADD SSTORE PUSH1 0xA0 DUP3 ADD MLOAD DUP2 PUSH1 0x5 ADD PUSH1 0x0 PUSH2 0x100 EXP DUP2 SLOAD DUP2 PUSH1 0xFF MUL NOT AND SWAP1 DUP4 ISZERO ISZERO MUL OR SWAP1 SSTORE POP POP POP CALLER PUSH20 0xFFFFFFFFFFFFFFFFFFFFFFFFFFFFFFFFFFFFFFFF AND PUSH32 0xC04FC847F7B541CA5745975523EA1CB56C86867667754243230548FDB9E9B85F DUP7 DUP7 DUP7 DUP7 PUSH1 0x40 MLOAD PUSH2 0x6D4 SWAP5 SWAP4 SWAP3 SWAP2 SWAP1 PUSH2 0xA23 JUMP JUMPDEST PUSH1 0x40 MLOAD DUP1 SWAP2 SUB SWAP1 LOG2 PUSH1 0x1 SWAP1 POP SWAP5 SWAP4 POP POP POP POP JUMP JUMPDEST PUSH1 0x0 DUP1 REVERT JUMPDEST PUSH1 0x0 DUP2 SWAP1 POP SWAP2 SWAP1 POP JUMP JUMPDEST PUSH2 0x700 DUP2 PUSH2 0x6ED JUMP JUMPDEST DUP2 EQ PUSH2 0x70B JUMPI PUSH1 0x0 DUP1 REVERT JUMPDEST POP JUMP JUMPDEST PUSH1 0x0 DUP2 CALLDATALOAD SWAP1 POP PUSH2 0x71D DUP2 PUSH2 0x6F7 JUMP JUMPDEST SWAP3 SWAP2 POP POP JUMP JUMPDEST PUSH1 0x0 PUSH1 0x20 DUP3 DUP5 SUB SLT ISZERO PUSH2 0x739 JUMPI PUSH2 0x738 PUSH2 0x6E8 JUMP JUMPDEST JUMPDEST PUSH1 0x0 PUSH2 0x747 DUP5 DUP3 DUP6 ADD PUSH2 0x70E JUMP JUMPDEST SWAP2 POP POP SWAP3 SWAP2 POP POP JUMP JUMPDEST PUSH1 0x0 DUP2 ISZERO ISZERO SWAP1 POP SWAP2 SWAP1 POP JUMP JUMPDEST PUSH2 0x765 DUP2 PUSH2 0x750 JUMP JUMPDEST DUP3 MSTORE POP POP JUMP JUMPDEST PUSH1 0x0 PUSH1 0x20 DUP3 ADD SWAP1 POP PUSH2 0x780 PUSH1 0x0 DUP4 ADD DUP5 PUSH2 0x75C JUMP JUMPDEST SWAP3 SWAP2 POP POP JUMP JUMPDEST PUSH1 0x0 PUSH20 0xFFFFFFFFFFFFFFFFFFFFFFFFFFFFFFFFFFFFFFFF DUP3 AND SWAP1 POP SWAP2 SWAP1 POP JUMP JUMPDEST PUSH1 0x0 PUSH2 0x7B1 DUP3 PUSH2 0x786 JUMP JUMPDEST SWAP1 POP SWAP2 SWAP1 POP JUMP JUMPDEST PUSH2 0x7C1 DUP2 PUSH2 0x7A6 JUMP JUMPDEST DUP3 MSTORE POP POP JUMP JUMPDEST PUSH1 0x0 DUP2 SWAP1 POP SWAP2 SWAP1 POP JUMP JUMPDEST PUSH1 0x0 PUSH2 0x7EC PUSH2 0x7E7 PUSH2 0x7E2 DUP5 PUSH2 0x786 JUMP JUMPDEST PUSH2 0x7C7 JUMP JUMPDEST PUSH2 0x786 JUMP JUMPDEST SWAP1 POP SWAP2 SWAP1 POP JUMP JUMPDEST PUSH1 0x0 PUSH2 0x7FE DUP3 PUSH2 0x7D1 JUMP JUMPDEST SWAP1 POP SWAP2 SWAP1 POP JUMP JUMPDEST PUSH1 0x0 PUSH2 0x810 DUP3 PUSH2 0x7F3 JUMP JUMPDEST SWAP1 POP SWAP2 SWAP1 POP JUMP JUMPDEST PUSH2 0x820 DUP2 PUSH2 0x805 JUMP JUMPDEST DUP3 MSTORE POP POP JUMP JUMPDEST PUSH2 0x82F DUP2 PUSH2 0x6ED JUMP JUMPDEST DUP3 MSTORE POP POP JUMP JUMPDEST PUSH1 0x0 PUSH1 0xC0 DUP3 ADD SWAP1 POP PUSH2 0x84A PUSH1 0x0 DUP4 ADD DUP10 PUSH2 0x7B8 JUMP JUMPDEST PUSH2 0x857 PUSH1 0x20 DUP4 ADD DUP9 PUSH2 0x817 JUMP JUMPDEST PUSH2 0x864 PUSH1 0x40 DUP4 ADD DUP8 PUSH2 0x826 JUMP JUMPDEST PUSH2 0x871 PUSH1 0x60 DUP4 ADD DUP7 PUSH2 0x817 JUMP JUMPDEST PUSH2 0x87E PUSH1 0x80 DUP4 ADD DUP6 PUSH2 0x826 JUMP JUMPDEST PUSH2 0x88B PUSH1 0xA0 DUP4 ADD DUP5 PUSH2 0x75C JUMP JUMPDEST SWAP8 SWAP7 POP POP POP POP POP POP POP JUMP JUMPDEST PUSH1 0x0 PUSH2 0x8A1 DUP3 PUSH2 0x7A6 JUMP JUMPDEST SWAP1 POP SWAP2 SWAP1 POP JUMP JUMPDEST PUSH2 0x8B1 DUP2 PUSH2 0x896 JUMP JUMPDEST DUP2 EQ PUSH2 0x8BC JUMPI PUSH1 0x0 DUP1 REVERT JUMPDEST POP JUMP JUMPDEST PUSH1 0x0 DUP2 CALLDATALOAD SWAP1 POP PUSH2 0x8CE DUP2 PUSH2 0x8A8 JUMP JUMPDEST SWAP3 SWAP2 POP POP JUMP JUMPDEST PUSH1 0x0 DUP1 PUSH1 0x0 DUP1 PUSH1 0x80 DUP6 DUP8 SUB SLT ISZERO PUSH2 0x8EE JUMPI PUSH2 0x8ED PUSH2 0x6E8 JUMP JUMPDEST JUMPDEST PUSH1 0x0 PUSH2 0x8FC DUP8 DUP3 DUP9 ADD PUSH2 0x8BF JUMP JUMPDEST SWAP5 POP POP PUSH1 0x20 PUSH2 0x90D DUP8 DUP3 DUP9 ADD PUSH2 0x70E JUMP JUMPDEST SWAP4 POP POP PUSH1 0x40 PUSH2 0x91E DUP8 DUP3 DUP9 ADD PUSH2 0x8BF JUMP JUMPDEST SWAP3 POP POP PUSH1 0x60 PUSH2 0x92F DUP8 DUP3 DUP9 ADD PUSH2 0x70E JUMP JUMPDEST SWAP2 POP POP SWAP3 SWAP6 SWAP2 SWAP5 POP SWAP3 POP JUMP JUMPDEST PUSH32 0x4E487B7100000000000000000000000000000000000000000000000000000000 PUSH1 0x0 MSTORE PUSH1 0x32 PUSH1 0x4 MSTORE PUSH1 0x24 PUSH1 0x0 REVERT JUMPDEST PUSH1 0x0 PUSH1 0x40 DUP3 ADD SWAP1 POP PUSH2 0x97F PUSH1 0x0 DUP4 ADD DUP6 PUSH2 0x7B8 JUMP JUMPDEST PUSH2 0x98C PUSH1 0x20 DUP4 ADD DUP5 PUSH2 0x826 JUMP JUMPDEST SWAP4 SWAP3 POP POP POP JUMP JUMPDEST PUSH2 0x99C DUP2 PUSH2 0x750 JUMP JUMPDEST DUP2 EQ PUSH2 0x9A7 JUMPI PUSH1 0x0 DUP1 REVERT JUMPDEST POP JUMP JUMPDEST PUSH1 0x0 DUP2 MLOAD SWAP1 POP PUSH2 0x9B9 DUP2 PUSH2 0x993 JUMP JUMPDEST SWAP3 SWAP2 POP POP JUMP JUMPDEST PUSH1 0x0 PUSH1 0x20 DUP3 DUP5 SUB SLT ISZERO PUSH2 0x9D5 JUMPI PUSH2 0x9D4 PUSH2 0x6E8 JUMP JUMPDEST JUMPDEST PUSH1 0x0 PUSH2 0x9E3 DUP5 DUP3 DUP6 ADD PUSH2 0x9AA JUMP JUMPDEST SWAP2 POP POP SWAP3 SWAP2 POP POP JUMP JUMPDEST PUSH1 0x0 PUSH1 0x60 DUP3 ADD SWAP1 POP PUSH2 0xA01 PUSH1 0x0 DUP4 ADD DUP7 PUSH2 0x7B8 JUMP JUMPDEST PUSH2 0xA0E PUSH1 0x20 DUP4 ADD DUP6 PUSH2 0x7B8 JUMP JUMPDEST PUSH2 0xA1B PUSH1 0x40 DUP4 ADD DUP5 PUSH2 0x826 JUMP JUMPDEST SWAP5 SWAP4 POP POP POP POP JUMP JUMPDEST PUSH1 0x0 PUSH1 0x80 DUP3 ADD SWAP1 POP PUSH2 0xA38 PUSH1 0x0 DUP4 ADD DUP8 PUSH2 0x817 JUMP JUMPDEST PUSH2 0xA45 PUSH1 0x20 DUP4 ADD DUP7 PUSH2 0x826 JUMP JUMPDEST PUSH2 0xA52 PUSH1 0x40 DUP4 ADD DUP6 PUSH2 0x817 JUMP JUMPDEST PUSH2 0xA5F PUSH1 0x60 DUP4 ADD DUP5 PUSH2 0x826 JUMP JUMPDEST SWAP6 SWAP5 POP POP POP POP POP JUMP INVALID LOG2 PUSH5 0x6970667358 0x22 SLT KECCAK256 0xB3 CALLDATALOAD LT PUSH4 0xBB89B1B9 0xB1 GASPRICE 0xE3 0xF6 0xAB 0xAD 0x2C 0xA6 0xD DUP1 PUSH28 0x6894EDF1E5E1D10E8C1BE6401664736F6C6343000812003300000000 "
				},
				"gasEstimates": {
					"creation": {
						"codeDepositCost": "543600",
						"executionCost": "575",
						"totalCost": "544175"
					},
					"external": {
						"add(address,uint256,address,uint256)": "infinite",
						"exchange(uint256)": "infinite",
						"offers(uint256)": "infinite"
					}
				},
				"methodIdentifiers": {
					"add(address,uint256,address,uint256)": "e77e2c1b",
					"exchange(uint256)": "53556559",
					"offers(uint256)": "8a72ea6a"
				}
			},
			"storageLayout": {
				"storage": [
					{
						"astId": 211,
						"contract": "SimpleSwap.sol:SimpleSwap",
						"label": "offers",
						"offset": 0,
						"slot": "0",
						"type": "t_array(t_struct(Offer)207_storage)dyn_storage"
					}
				],
				"types": {
					"t_address": {
						"encoding": "inplace",
						"label": "address",
						"numberOfBytes": "20"
					},
					"t_array(t_struct(Offer)207_storage)dyn_storage": {
						"base": "t_struct(Offer)207_storage",
						"encoding": "dynamic_array",
						"label": "struct SimpleSwap.Offer[]",
						"numberOfBytes": "32"
					},
					"t_bool": {
						"encoding": "inplace",
						"label": "bool",
						"numberOfBytes": "1"
					},
					"t_contract(IERC20)189": {
						"encoding": "inplace",
						"label": "contract IERC20",
						"numberOfBytes": "20"
					},
					"t_struct(Offer)207_storage": {
						"encoding": "inplace",
						"label": "struct SimpleSwap.Offer",
						"members": [
							{
								"astId": 194,
								"contract": "SimpleSwap.sol:SimpleSwap",
								"label": "owner",
								"offset": 0,
								"slot": "0",
								"type": "t_address"
							},
							{
								"astId": 197,
								"contract": "SimpleSwap.sol:SimpleSwap",
								"label": "selling",
								"offset": 0,
								"slot": "1",
								"type": "t_contract(IERC20)189"
							},
							{
								"astId": 199,
								"contract": "SimpleSwap.sol:SimpleSwap",
								"label": "sellingAmount",
								"offset": 0,
								"slot": "2",
								"type": "t_uint256"
							},
							{
								"astId": 202,
								"contract": "SimpleSwap.sol:SimpleSwap",
								"label": "buying",
								"offset": 0,
								"slot": "3",
								"type": "t_contract(IERC20)189"
							},
							{
								"astId": 204,
								"contract": "SimpleSwap.sol:SimpleSwap",
								"label": "buyingAmount",
								"offset": 0,
								"slot": "4",
								"type": "t_uint256"
							},
							{
								"astId": 206,
								"contract": "SimpleSwap.sol:SimpleSwap",
								"label": "active",
								"offset": 0,
								"slot": "5",
								"type": "t_bool"
							}
						],
						"numberOfBytes": "192"
					},
					"t_uint256": {
						"encoding": "inplace",
						"label": "uint256",
						"numberOfBytes": "32"
					}
				}
			},
			"userdoc": {
				"kind": "user",
				"methods": {},
				"version": 1
			}
		}
	}
}