{
	"TNFT.sol": {
		"TNFT": {
			"abi": [
				{
					"anonymous": false,
					"inputs": [
						{
							"indexed": true,
							"internalType": "address",
							"name": "owner",
							"type": "address"
						},
						{
							"indexed": true,
							"internalType": "address",
							"name": "approved",
							"type": "address"
						},
						{
							"indexed": true,
							"internalType": "uint256",
							"name": "tokenId",
							"type": "uint256"
						}
					],
					"name": "Approval",
					"type": "event"
				},
				{
					"anonymous": false,
					"inputs": [
						{
							"indexed": true,
							"internalType": "address",
							"name": "owner",
							"type": "address"
						},
						{
							"indexed": true,
							"internalType": "address",
							"name": "operator",
							"type": "address"
						},
						{
							"indexed": false,
							"internalType": "bool",
							"name": "approved",
							"type": "bool"
						}
					],
					"name": "ApprovalForAll",
					"type": "event"
				},
				{
					"anonymous": false,
					"inputs": [
						{
							"indexed": true,
							"internalType": "address",
							"name": "from",
							"type": "address"
						},
						{
							"indexed": true,
							"internalType": "address",
							"name": "to",
							"type": "address"
						},
						{
							"indexed": true,
							"internalType": "uint256",
							"name": "tokenId",
							"type": "uint256"
						}
					],
					"name": "Transfer",
					"type": "event"
				},
				{
					"anonymous": false,
					"inputs": [
						{
							"indexed": true,
							"internalType": "address",
							"name": "newOwner",
							"type": "address"
						}
					],
					"name": "UpdateOwner",
					"type": "event"
				},
				{
					"inputs": [
						{
							"internalType": "address",
							"name": "spender",
							"type": "address"
						},
						{
							"internalType": "uint256",
							"name": "id",
							"type": "uint256"
						}
					],
					"name": "approve",
					"outputs": [],
					"stateMutability": "nonpayable",
					"type": "function"
				},
				{
					"inputs": [
						{
							"internalType": "address",
							"name": "owner",
							"type": "address"
						}
					],
					"name": "balanceOf",
					"outputs": [
						{
							"internalType": "uint256",
							"name": "",
							"type": "uint256"
						}
					],
					"stateMutability": "view",
					"type": "function"
				},
				{
					"inputs": [
						{
							"internalType": "uint256",
							"name": "id",
							"type": "uint256"
						},
						{
							"internalType": "address",
							"name": "token",
							"type": "address"
						},
						{
							"internalType": "uint256",
							"name": "amount",
							"type": "uint256"
						}
					],
					"name": "depositReward",
					"outputs": [],
					"stateMutability": "nonpayable",
					"type": "function"
				},
				{
					"inputs": [
						{
							"internalType": "uint256",
							"name": "id",
							"type": "uint256"
						}
					],
					"name": "getApproved",
					"outputs": [
						{
							"internalType": "address",
							"name": "",
							"type": "address"
						}
					],
					"stateMutability": "view",
					"type": "function"
				},
				{
					"inputs": [
						{
							"internalType": "address",
							"name": "",
							"type": "address"
						},
						{
							"internalType": "address",
							"name": "",
							"type": "address"
						}
					],
					"name": "isApprovedForAll",
					"outputs": [
						{
							"internalType": "bool",
							"name": "",
							"type": "bool"
						}
					],
					"stateMutability": "view",
					"type": "function"
				},
				{
					"inputs": [],
					"name": "mint",
					"outputs": [],
					"stateMutability": "nonpayable",
					"type": "function"
				},
				{
					"inputs": [],
					"name": "owner",
					"outputs": [
						{
							"internalType": "address",
							"name": "",
							"type": "address"
						}
					],
					"stateMutability": "view",
					"type": "function"
				},
				{
					"inputs": [
						{
							"internalType": "uint256",
							"name": "id",
							"type": "uint256"
						}
					],
					"name": "ownerOf",
					"outputs": [
						{
							"internalType": "address",
							"name": "owner",
							"type": "address"
						}
					],
					"stateMutability": "view",
					"type": "function"
				},
				{
					"inputs": [
						{
							"internalType": "uint256",
							"name": "",
							"type": "uint256"
						},
						{
							"internalType": "address",
							"name": "",
							"type": "address"
						}
					],
					"name": "reward",
					"outputs": [
						{
							"internalType": "uint256",
							"name": "",
							"type": "uint256"
						}
					],
					"stateMutability": "view",
					"type": "function"
				},
				{
					"inputs": [
						{
							"internalType": "address",
							"name": "from",
							"type": "address"
						},
						{
							"internalType": "address",
							"name": "to",
							"type": "address"
						},
						{
							"internalType": "uint256",
							"name": "id",
							"type": "uint256"
						}
					],
					"name": "safeTransferFrom",
					"outputs": [],
					"stateMutability": "nonpayable",
					"type": "function"
				},
				{
					"inputs": [
						{
							"internalType": "address",
							"name": "from",
							"type": "address"
						},
						{
							"internalType": "address",
							"name": "to",
							"type": "address"
						},
						{
							"internalType": "uint256",
							"name": "id",
							"type": "uint256"
						},
						{
							"internalType": "bytes",
							"name": "data",
							"type": "bytes"
						}
					],
					"name": "safeTransferFrom",
					"outputs": [],
					"stateMutability": "nonpayable",
					"type": "function"
				},
				{
					"inputs": [
						{
							"internalType": "address",
							"name": "operator",
							"type": "address"
						},
						{
							"internalType": "bool",
							"name": "approved",
							"type": "bool"
						}
					],
					"name": "setApprovalForAll",
					"outputs": [],
					"stateMutability": "nonpayable",
					"type": "function"
				},
				{
					"inputs": [
						{
							"internalType": "bytes4",
							"name": "interfaceId",
							"type": "bytes4"
						}
					],
					"name": "supportsInterface",
					"outputs": [
						{
							"internalType": "bool",
							"name": "",
							"type": "bool"
						}
					],
					"stateMutability": "pure",
					"type": "function"
				},
				{
					"inputs": [
						{
							"internalType": "address",
							"name": "from",
							"type": "address"
						},
						{
							"internalType": "address",
							"name": "to",
							"type": "address"
						},
						{
							"internalType": "uint256",
							"name": "id",
							"type": "uint256"
						}
					],
					"name": "transferFrom",
					"outputs": [],
					"stateMutability": "nonpayable",
					"type": "function"
				},
				{
					"inputs": [
						{
							"internalType": "address",
							"name": "newOwner",
							"type": "address"
						}
					],
					"name": "updateOwner",
					"outputs": [],
					"stateMutability": "nonpayable",
					"type": "function"
				},
				{
					"inputs": [
						{
							"internalType": "uint256",
							"name": "id",
							"type": "uint256"
						},
						{
							"internalType": "address",
							"name": "token",
							"type": "address"
						},
						{
							"internalType": "uint256",
							"name": "amount",
							"type": "uint256"
						}
					],
					"name": "withdrawReward",
					"outputs": [],
					"stateMutability": "nonpayable",
					"type": "function"
				}
			],
			"devdoc": {
				"events": {
					"Approval(address,address,uint256)": {
						"details": "Emitted when `owner` enables `approved` to manage the `tokenId` token."
					},
					"ApprovalForAll(address,address,bool)": {
						"details": "Emitted when `owner` enables or disables (`approved`) `operator` to manage all of its assets."
					},
					"Transfer(address,address,uint256)": {
						"details": "Emitted when `tokenId` token is transferred from `from` to `to`."
					}
				},
				"kind": "dev",
				"methods": {
					"balanceOf(address)": {
						"details": "Returns the number of tokens in ``owner``'s account."
					},
					"supportsInterface(bytes4)": {
						"details": "Returns true if this contract implements the interface defined by `interfaceId`. See the corresponding https://eips.ethereum.org/EIPS/eip-165#how-interfaces-are-identified[EIP section] to learn more about how these ids are created. This function call must use less than 30 000 gas."
					}
				},
				"version": 1
			},
			"evm": {
				"assembly": "    /* \"TNFT.sol\":219:940  contract TNFT is ERC721, Ownable {... */\n  mstore(0x40, 0x80)\n  callvalue\n  dup1\n  iszero\n  tag_1\n  jumpi\n  0x00\n  dup1\n  revert\ntag_1:\n  pop\n    /* \"access/Ownable.sol\":199:209  msg.sender */\n  caller\n    /* \"access/Ownable.sol\":191:196  owner */\n  0x04\n  0x00\n    /* \"access/Ownable.sol\":191:209  owner = msg.sender */\n  0x0100\n  exp\n  dup2\n  sload\n  dup2\n  0xffffffffffffffffffffffffffffffffffffffff\n  mul\n  not\n  and\n  swap1\n  dup4\n  0xffffffffffffffffffffffffffffffffffffffff\n  and\n  mul\n  or\n  swap1\n  sstore\n  pop\n    /* \"TNFT.sol\":219:940  contract TNFT is ERC721, Ownable {... */\n  dataSize(sub_0)\n  dup1\n  dataOffset(sub_0)\n  0x00\n  codecopy\n  0x00\n  return\nstop\n\nsub_0: assembly {\n        /* \"TNFT.sol\":219:940  contract TNFT is ERC721, Ownable {... */\n      mstore(0x40, 0x80)\n      callvalue\n      dup1\n      iszero\n      tag_1\n      jumpi\n      0x00\n      dup1\n      revert\n    tag_1:\n      pop\n      jumpi(tag_2, lt(calldatasize, 0x04))\n      shr(0xe0, calldataload(0x00))\n      dup1\n      0x71bb61f3\n      gt\n      tag_19\n      jumpi\n      dup1\n      0xb88d4fde\n      gt\n      tag_20\n      jumpi\n      dup1\n      0xb88d4fde\n      eq\n      tag_15\n      jumpi\n      dup1\n      0xda644b04\n      eq\n      tag_16\n      jumpi\n      dup1\n      0xe985e9c5\n      eq\n      tag_17\n      jumpi\n      dup1\n      0xfc6bcf39\n      eq\n      tag_18\n      jumpi\n      jump(tag_2)\n    tag_20:\n      dup1\n      0x71bb61f3\n      eq\n      tag_11\n      jumpi\n      dup1\n      0x880cdc31\n      eq\n      tag_12\n      jumpi\n      dup1\n      0x8da5cb5b\n      eq\n      tag_13\n      jumpi\n      dup1\n      0xa22cb465\n      eq\n      tag_14\n      jumpi\n      jump(tag_2)\n    tag_19:\n      dup1\n      0x23b872dd\n      gt\n      tag_21\n      jumpi\n      dup1\n      0x23b872dd\n      eq\n      tag_7\n      jumpi\n      dup1\n      0x42842e0e\n      eq\n      tag_8\n      jumpi\n      dup1\n      0x6352211e\n      eq\n      tag_9\n      jumpi\n      dup1\n      0x70a08231\n      eq\n      tag_10\n      jumpi\n      jump(tag_2)\n    tag_21:\n      dup1\n      0x01ffc9a7\n      eq\n      tag_3\n      jumpi\n      dup1\n      0x081812fc\n      eq\n      tag_4\n      jumpi\n      dup1\n      0x095ea7b3\n      eq\n      tag_5\n      jumpi\n      dup1\n      0x1249c58b\n      eq\n      tag_6\n      jumpi\n    tag_2:\n      0x00\n      dup1\n      revert\n        /* \"draft/ERC721.sol\":580:766  function supportsInterface(bytes4 interfaceId) external pure returns (bool) {... */\n    tag_3:\n      tag_22\n      0x04\n      dup1\n      calldatasize\n      sub\n      dup2\n      add\n      swap1\n      tag_23\n      swap2\n      swap1\n      tag_24\n      jump\t// in\n    tag_23:\n      tag_25\n      jump\t// in\n    tag_22:\n      mload(0x40)\n      tag_26\n      swap2\n      swap1\n      tag_27\n      jump\t// in\n    tag_26:\n      mload(0x40)\n      dup1\n      swap2\n      sub\n      swap1\n      return\n        /* \"draft/ERC721.sol\":1622:1796  function getApproved(uint256 id) external view returns (address) {... */\n    tag_4:\n      tag_28\n      0x04\n      dup1\n      calldatasize\n      sub\n      dup2\n      add\n      swap1\n      tag_29\n      swap2\n      swap1\n      tag_30\n      jump\t// in\n    tag_29:\n      tag_31\n      jump\t// in\n    tag_28:\n      mload(0x40)\n      tag_32\n      swap2\n      swap1\n      tag_33\n      jump\t// in\n    tag_32:\n      mload(0x40)\n      dup1\n      swap2\n      sub\n      swap1\n      return\n        /* \"draft/ERC721.sol\":1337:1614  function approve(address spender, uint256 id) external {... */\n    tag_5:\n      tag_34\n      0x04\n      dup1\n      calldatasize\n      sub\n      dup2\n      add\n      swap1\n      tag_35\n      swap2\n      swap1\n      tag_36\n      jump\t// in\n    tag_35:\n      tag_37\n      jump\t// in\n    tag_34:\n      stop\n        /* \"TNFT.sol\":355:455  function mint() external onlyOwner {... */\n    tag_6:\n      tag_38\n      tag_39\n      jump\t// in\n    tag_38:\n      stop\n        /* \"draft/ERC721.sol\":2056:2518  function transferFrom(... */\n    tag_7:\n      tag_40\n      0x04\n      dup1\n      calldatasize\n      sub\n      dup2\n      add\n      swap1\n      tag_41\n      swap2\n      swap1\n      tag_42\n      jump\t// in\n    tag_41:\n      tag_43\n      jump\t// in\n    tag_40:\n      stop\n        /* \"draft/ERC721.sol\":2526:2848  function safeTransferFrom(... */\n    tag_8:\n      tag_44\n      0x04\n      dup1\n      calldatasize\n      sub\n      dup2\n      add\n      swap1\n      tag_45\n      swap2\n      swap1\n      tag_42\n      jump\t// in\n    tag_45:\n      tag_46\n      jump\t// in\n    tag_44:\n      stop\n        /* \"draft/ERC721.sol\":774:942  function ownerOf(uint256 id) external view returns (address owner) {... */\n    tag_9:\n      tag_47\n      0x04\n      dup1\n      calldatasize\n      sub\n      dup2\n      add\n      swap1\n      tag_48\n      swap2\n      swap1\n      tag_30\n      jump\t// in\n    tag_48:\n      tag_49\n      jump\t// in\n    tag_47:\n      mload(0x40)\n      tag_50\n      swap2\n      swap1\n      tag_33\n      jump\t// in\n    tag_50:\n      mload(0x40)\n      dup1\n      swap2\n      sub\n      swap1\n      return\n        /* \"draft/ERC721.sol\":950:1122  function balanceOf(address owner) external view returns (uint256) {... */\n    tag_10:\n      tag_51\n      0x04\n      dup1\n      calldatasize\n      sub\n      dup2\n      add\n      swap1\n      tag_52\n      swap2\n      swap1\n      tag_53\n      jump\t// in\n    tag_52:\n      tag_54\n      jump\t// in\n    tag_51:\n      mload(0x40)\n      tag_55\n      swap2\n      swap1\n      tag_56\n      jump\t// in\n    tag_55:\n      mload(0x40)\n      dup1\n      swap2\n      sub\n      swap1\n      return\n        /* \"TNFT.sol\":287:348  mapping(uint256 => mapping(address => uint256)) public reward */\n    tag_11:\n      tag_57\n      0x04\n      dup1\n      calldatasize\n      sub\n      dup2\n      add\n      swap1\n      tag_58\n      swap2\n      swap1\n      tag_59\n      jump\t// in\n    tag_58:\n      tag_60\n      jump\t// in\n    tag_57:\n      mload(0x40)\n      tag_61\n      swap2\n      swap1\n      tag_56\n      jump\t// in\n    tag_61:\n      mload(0x40)\n      dup1\n      swap2\n      sub\n      swap1\n      return\n        /* \"access/Ownable.sol\":319:446  function updateOwner(address newOwner) external onlyOwner {... */\n    tag_12:\n      tag_62\n      0x04\n      dup1\n      calldatasize\n      sub\n      dup2\n      add\n      swap1\n      tag_63\n      swap2\n      swap1\n      tag_53\n      jump\t// in\n    tag_63:\n      tag_64\n      jump\t// in\n    tag_62:\n      stop\n        /* \"access/Ownable.sol\":90:110  address public owner */\n    tag_13:\n      tag_65\n      tag_66\n      jump\t// in\n    tag_65:\n      mload(0x40)\n      tag_67\n      swap2\n      swap1\n      tag_33\n      jump\t// in\n    tag_67:\n      mload(0x40)\n      dup1\n      swap2\n      sub\n      swap1\n      return\n        /* \"draft/ERC721.sol\":1130:1329  function setApprovalForAll(address operator, bool approved) external {... */\n    tag_14:\n      tag_68\n      0x04\n      dup1\n      calldatasize\n      sub\n      dup2\n      add\n      swap1\n      tag_69\n      swap2\n      swap1\n      tag_70\n      jump\t// in\n    tag_69:\n      tag_71\n      jump\t// in\n    tag_68:\n      stop\n        /* \"draft/ERC721.sol\":2856:3210  function safeTransferFrom(... */\n    tag_15:\n      tag_72\n      0x04\n      dup1\n      calldatasize\n      sub\n      dup2\n      add\n      swap1\n      tag_73\n      swap2\n      swap1\n      tag_74\n      jump\t// in\n    tag_73:\n      tag_75\n      jump\t// in\n    tag_72:\n      stop\n        /* \"TNFT.sol\":461:678  function depositReward(... */\n    tag_16:\n      tag_76\n      0x04\n      dup1\n      calldatasize\n      sub\n      dup2\n      add\n      swap1\n      tag_77\n      swap2\n      swap1\n      tag_78\n      jump\t// in\n    tag_77:\n      tag_79\n      jump\t// in\n    tag_76:\n      stop\n        /* \"draft/ERC721.sol\":503:571  mapping(address => mapping(address => bool)) public isApprovedForAll */\n    tag_17:\n      tag_80\n      0x04\n      dup1\n      calldatasize\n      sub\n      dup2\n      add\n      swap1\n      tag_81\n      swap2\n      swap1\n      tag_82\n      jump\t// in\n    tag_81:\n      tag_83\n      jump\t// in\n    tag_80:\n      mload(0x40)\n      tag_84\n      swap2\n      swap1\n      tag_27\n      jump\t// in\n    tag_84:\n      mload(0x40)\n      dup1\n      swap2\n      sub\n      swap1\n      return\n        /* \"TNFT.sol\":684:938  function withdrawReward(... */\n    tag_18:\n      tag_85\n      0x04\n      dup1\n      calldatasize\n      sub\n      dup2\n      add\n      swap1\n      tag_86\n      swap2\n      swap1\n      tag_78\n      jump\t// in\n    tag_86:\n      tag_87\n      jump\t// in\n    tag_85:\n      stop\n        /* \"draft/ERC721.sol\":580:766  function supportsInterface(bytes4 interfaceId) external pure returns (bool) {... */\n    tag_25:\n        /* \"draft/ERC721.sol\":650:654  bool */\n      0x00\n        /* \"draft/ERC721.sol\":689:714  type(IERC721).interfaceId */\n      0x80ac58cd00000000000000000000000000000000000000000000000000000000\n        /* \"draft/ERC721.sol\":674:714  interfaceId == type(IERC721).interfaceId */\n      not(0xffffffffffffffffffffffffffffffffffffffffffffffffffffffff)\n      and\n        /* \"draft/ERC721.sol\":674:685  interfaceId */\n      dup3\n        /* \"draft/ERC721.sol\":674:714  interfaceId == type(IERC721).interfaceId */\n      not(0xffffffffffffffffffffffffffffffffffffffffffffffffffffffff)\n      and\n      eq\n        /* \"draft/ERC721.sol\":674:758  interfaceId == type(IERC721).interfaceId || interfaceId == type(IERC165).interfaceId */\n      dup1\n      tag_89\n      jumpi\n      pop\n        /* \"draft/ERC721.sol\":733:758  type(IERC165).interfaceId */\n      0x01ffc9a700000000000000000000000000000000000000000000000000000000\n        /* \"draft/ERC721.sol\":718:758  interfaceId == type(IERC165).interfaceId */\n      not(0xffffffffffffffffffffffffffffffffffffffffffffffffffffffff)\n      and\n        /* \"draft/ERC721.sol\":718:729  interfaceId */\n      dup3\n        /* \"draft/ERC721.sol\":718:758  interfaceId == type(IERC165).interfaceId */\n      not(0xffffffffffffffffffffffffffffffffffffffffffffffffffffffff)\n      and\n      eq\n        /* \"draft/ERC721.sol\":674:758  interfaceId == type(IERC721).interfaceId || interfaceId == type(IERC165).interfaceId */\n    tag_89:\n        /* \"draft/ERC721.sol\":667:758  return interfaceId == type(IERC721).interfaceId || interfaceId == type(IERC165).interfaceId */\n      swap1\n      pop\n        /* \"draft/ERC721.sol\":580:766  function supportsInterface(bytes4 interfaceId) external pure returns (bool) {... */\n      swap2\n      swap1\n      pop\n      jump\t// out\n        /* \"draft/ERC721.sol\":1622:1796  function getApproved(uint256 id) external view returns (address) {... */\n    tag_31:\n        /* \"draft/ERC721.sol\":1678:1685  address */\n      0x00\n        /* \"draft/ERC721.sol\":1730:1731  0 */\n      dup1\n        /* \"draft/ERC721.sol\":1706:1732  _ownerOf[id] != address(0) */\n      0xffffffffffffffffffffffffffffffffffffffff\n      and\n        /* \"draft/ERC721.sol\":1706:1714  _ownerOf */\n      0x00\n        /* \"draft/ERC721.sol\":1706:1718  _ownerOf[id] */\n      dup1\n        /* \"draft/ERC721.sol\":1715:1717  id */\n      dup5\n        /* \"draft/ERC721.sol\":1706:1718  _ownerOf[id] */\n      dup2\n      mstore\n      0x20\n      add\n      swap1\n      dup2\n      mstore\n      0x20\n      add\n      0x00\n      keccak256\n      0x00\n      swap1\n      sload\n      swap1\n      0x0100\n      exp\n      swap1\n      div\n      0xffffffffffffffffffffffffffffffffffffffff\n      and\n        /* \"draft/ERC721.sol\":1706:1732  _ownerOf[id] != address(0) */\n      0xffffffffffffffffffffffffffffffffffffffff\n      and\n      sub\n        /* \"draft/ERC721.sol\":1698:1756  require(_ownerOf[id] != address(0), \"token doesn't exist\") */\n      tag_91\n      jumpi\n      mload(0x40)\n      0x08c379a000000000000000000000000000000000000000000000000000000000\n      dup2\n      mstore\n      0x04\n      add\n      tag_92\n      swap1\n      tag_93\n      jump\t// in\n    tag_92:\n      mload(0x40)\n      dup1\n      swap2\n      sub\n      swap1\n      revert\n    tag_91:\n        /* \"draft/ERC721.sol\":1774:1784  _approvals */\n      0x02\n        /* \"draft/ERC721.sol\":1774:1788  _approvals[id] */\n      0x00\n        /* \"draft/ERC721.sol\":1785:1787  id */\n      dup4\n        /* \"draft/ERC721.sol\":1774:1788  _approvals[id] */\n      dup2\n      mstore\n      0x20\n      add\n      swap1\n      dup2\n      mstore\n      0x20\n      add\n      0x00\n      keccak256\n      0x00\n      swap1\n      sload\n      swap1\n      0x0100\n      exp\n      swap1\n      div\n      0xffffffffffffffffffffffffffffffffffffffff\n      and\n        /* \"draft/ERC721.sol\":1767:1788  return _approvals[id] */\n      swap1\n      pop\n        /* \"draft/ERC721.sol\":1622:1796  function getApproved(uint256 id) external view returns (address) {... */\n      swap2\n      swap1\n      pop\n      jump\t// out\n        /* \"draft/ERC721.sol\":1337:1614  function approve(address spender, uint256 id) external {... */\n    tag_37:\n        /* \"draft/ERC721.sol\":1403:1416  address owner */\n      0x00\n        /* \"draft/ERC721.sol\":1419:1427  _ownerOf */\n      dup1\n        /* \"draft/ERC721.sol\":1419:1431  _ownerOf[id] */\n      0x00\n        /* \"draft/ERC721.sol\":1428:1430  id */\n      dup4\n        /* \"draft/ERC721.sol\":1419:1431  _ownerOf[id] */\n      dup2\n      mstore\n      0x20\n      add\n      swap1\n      dup2\n      mstore\n      0x20\n      add\n      0x00\n      keccak256\n      0x00\n      swap1\n      sload\n      swap1\n      0x0100\n      exp\n      swap1\n      div\n      0xffffffffffffffffffffffffffffffffffffffff\n      and\n        /* \"draft/ERC721.sol\":1403:1431  address owner = _ownerOf[id] */\n      swap1\n      pop\n        /* \"draft/ERC721.sol\":1464:1469  owner */\n      dup1\n        /* \"draft/ERC721.sol\":1450:1469  msg.sender == owner */\n      0xffffffffffffffffffffffffffffffffffffffff\n      and\n        /* \"draft/ERC721.sol\":1450:1460  msg.sender */\n      caller\n        /* \"draft/ERC721.sol\":1450:1469  msg.sender == owner */\n      0xffffffffffffffffffffffffffffffffffffffff\n      and\n      eq\n        /* \"draft/ERC721.sol\":1450:1508  msg.sender == owner || isApprovedForAll[owner][msg.sender] */\n      dup1\n      tag_95\n      jumpi\n      pop\n        /* \"draft/ERC721.sol\":1473:1489  isApprovedForAll */\n      0x03\n        /* \"draft/ERC721.sol\":1473:1496  isApprovedForAll[owner] */\n      0x00\n        /* \"draft/ERC721.sol\":1490:1495  owner */\n      dup3\n        /* \"draft/ERC721.sol\":1473:1496  isApprovedForAll[owner] */\n      0xffffffffffffffffffffffffffffffffffffffff\n      and\n      0xffffffffffffffffffffffffffffffffffffffff\n      and\n      dup2\n      mstore\n      0x20\n      add\n      swap1\n      dup2\n      mstore\n      0x20\n      add\n      0x00\n      keccak256\n        /* \"draft/ERC721.sol\":1473:1508  isApprovedForAll[owner][msg.sender] */\n      0x00\n        /* \"draft/ERC721.sol\":1497:1507  msg.sender */\n      caller\n        /* \"draft/ERC721.sol\":1473:1508  isApprovedForAll[owner][msg.sender] */\n      0xffffffffffffffffffffffffffffffffffffffff\n      and\n      0xffffffffffffffffffffffffffffffffffffffff\n      and\n      dup2\n      mstore\n      0x20\n      add\n      swap1\n      dup2\n      mstore\n      0x20\n      add\n      0x00\n      keccak256\n      0x00\n      swap1\n      sload\n      swap1\n      0x0100\n      exp\n      swap1\n      div\n      0xff\n      and\n        /* \"draft/ERC721.sol\":1450:1508  msg.sender == owner || isApprovedForAll[owner][msg.sender] */\n    tag_95:\n        /* \"draft/ERC721.sol\":1442:1527  require(msg.sender == owner || isApprovedForAll[owner][msg.sender], \"not authorized\") */\n      tag_96\n      jumpi\n      mload(0x40)\n      0x08c379a000000000000000000000000000000000000000000000000000000000\n      dup2\n      mstore\n      0x04\n      add\n      tag_97\n      swap1\n      tag_98\n      jump\t// in\n    tag_97:\n      mload(0x40)\n      dup1\n      swap2\n      sub\n      swap1\n      revert\n    tag_96:\n        /* \"draft/ERC721.sol\":1555:1562  spender */\n      dup3\n        /* \"draft/ERC721.sol\":1538:1548  _approvals */\n      0x02\n        /* \"draft/ERC721.sol\":1538:1552  _approvals[id] */\n      0x00\n        /* \"draft/ERC721.sol\":1549:1551  id */\n      dup5\n        /* \"draft/ERC721.sol\":1538:1552  _approvals[id] */\n      dup2\n      mstore\n      0x20\n      add\n      swap1\n      dup2\n      mstore\n      0x20\n      add\n      0x00\n      keccak256\n      0x00\n        /* \"draft/ERC721.sol\":1538:1562  _approvals[id] = spender */\n      0x0100\n      exp\n      dup2\n      sload\n      dup2\n      0xffffffffffffffffffffffffffffffffffffffff\n      mul\n      not\n      and\n      swap1\n      dup4\n      0xffffffffffffffffffffffffffffffffffffffff\n      and\n      mul\n      or\n      swap1\n      sstore\n      pop\n        /* \"draft/ERC721.sol\":1603:1605  id */\n      dup2\n        /* \"draft/ERC721.sol\":1594:1601  spender */\n      dup4\n        /* \"draft/ERC721.sol\":1578:1606  Approval(owner, spender, id) */\n      0xffffffffffffffffffffffffffffffffffffffff\n      and\n        /* \"draft/ERC721.sol\":1587:1592  owner */\n      dup3\n        /* \"draft/ERC721.sol\":1578:1606  Approval(owner, spender, id) */\n      0xffffffffffffffffffffffffffffffffffffffff\n      and\n      0x8c5be1e5ebec7d5bd14f71427d1e84f3dd0314c0f7b2291e5b200ac8c7c3b925\n      mload(0x40)\n      mload(0x40)\n      dup1\n      swap2\n      sub\n      swap1\n      log4\n        /* \"draft/ERC721.sol\":1392:1614  {... */\n      pop\n        /* \"draft/ERC721.sol\":1337:1614  function approve(address spender, uint256 id) external {... */\n      pop\n      pop\n      jump\t// out\n        /* \"TNFT.sol\":355:455  function mint() external onlyOwner {... */\n    tag_39:\n        /* \"access/Ownable.sol\":275:280  owner */\n      0x04\n      0x00\n      swap1\n      sload\n      swap1\n      0x0100\n      exp\n      swap1\n      div\n      0xffffffffffffffffffffffffffffffffffffffff\n      and\n        /* \"access/Ownable.sol\":261:280  msg.sender == owner */\n      0xffffffffffffffffffffffffffffffffffffffff\n      and\n        /* \"access/Ownable.sol\":261:271  msg.sender */\n      caller\n        /* \"access/Ownable.sol\":261:280  msg.sender == owner */\n      0xffffffffffffffffffffffffffffffffffffffff\n      and\n      eq\n        /* \"access/Ownable.sol\":253:295  require(msg.sender == owner, \"only owner\") */\n      tag_100\n      jumpi\n      mload(0x40)\n      0x08c379a000000000000000000000000000000000000000000000000000000000\n      dup2\n      mstore\n      0x04\n      add\n      tag_101\n      swap1\n      tag_102\n      jump\t// in\n    tag_101:\n      mload(0x40)\n      dup1\n      swap2\n      sub\n      swap1\n      revert\n    tag_100:\n        /* \"TNFT.sol\":400:426  _mint(msg.sender, counter) */\n      tag_104\n        /* \"TNFT.sol\":406:416  msg.sender */\n      caller\n        /* \"TNFT.sol\":418:425  counter */\n      sload(0x05)\n        /* \"TNFT.sol\":400:405  _mint */\n      tag_105\n        /* \"TNFT.sol\":400:426  _mint(msg.sender, counter) */\n      jump\t// in\n    tag_104:\n        /* \"TNFT.sol\":447:448  1 */\n      0x01\n        /* \"TNFT.sol\":436:443  counter */\n      0x05\n      0x00\n        /* \"TNFT.sol\":436:448  counter += 1 */\n      dup3\n      dup3\n      sload\n      tag_106\n      swap2\n      swap1\n      tag_107\n      jump\t// in\n    tag_106:\n      swap3\n      pop\n      pop\n      dup2\n      swap1\n      sstore\n      pop\n        /* \"TNFT.sol\":355:455  function mint() external onlyOwner {... */\n      jump\t// out\n        /* \"draft/ERC721.sol\":2056:2518  function transferFrom(... */\n    tag_43:\n        /* \"draft/ERC721.sol\":2184:2192  _ownerOf */\n      0x00\n        /* \"draft/ERC721.sol\":2184:2196  _ownerOf[id] */\n      dup1\n        /* \"draft/ERC721.sol\":2193:2195  id */\n      dup3\n        /* \"draft/ERC721.sol\":2184:2196  _ownerOf[id] */\n      dup2\n      mstore\n      0x20\n      add\n      swap1\n      dup2\n      mstore\n      0x20\n      add\n      0x00\n      keccak256\n      0x00\n      swap1\n      sload\n      swap1\n      0x0100\n      exp\n      swap1\n      div\n      0xffffffffffffffffffffffffffffffffffffffff\n      and\n        /* \"draft/ERC721.sol\":2176:2196  from == _ownerOf[id] */\n      0xffffffffffffffffffffffffffffffffffffffff\n      and\n        /* \"draft/ERC721.sol\":2176:2180  from */\n      dup4\n        /* \"draft/ERC721.sol\":2176:2196  from == _ownerOf[id] */\n      0xffffffffffffffffffffffffffffffffffffffff\n      and\n      eq\n        /* \"draft/ERC721.sol\":2168:2214  require(from == _ownerOf[id], \"from != owner\") */\n      tag_109\n      jumpi\n      mload(0x40)\n      0x08c379a000000000000000000000000000000000000000000000000000000000\n      dup2\n      mstore\n      0x04\n      add\n      tag_110\n      swap1\n      tag_111\n      jump\t// in\n    tag_110:\n      mload(0x40)\n      dup1\n      swap2\n      sub\n      swap1\n      revert\n    tag_109:\n        /* \"draft/ERC721.sol\":2247:2248  0 */\n      0x00\n        /* \"draft/ERC721.sol\":2233:2249  to != address(0) */\n      0xffffffffffffffffffffffffffffffffffffffff\n      and\n        /* \"draft/ERC721.sol\":2233:2235  to */\n      dup3\n        /* \"draft/ERC721.sol\":2233:2249  to != address(0) */\n      0xffffffffffffffffffffffffffffffffffffffff\n      and\n      sub\n        /* \"draft/ERC721.sol\":2225:2278  require(to != address(0), \"transfer to zero address\") */\n      tag_112\n      jumpi\n      mload(0x40)\n      0x08c379a000000000000000000000000000000000000000000000000000000000\n      dup2\n      mstore\n      0x04\n      add\n      tag_113\n      swap1\n      tag_114\n      jump\t// in\n    tag_113:\n      mload(0x40)\n      dup1\n      swap2\n      sub\n      swap1\n      revert\n    tag_112:\n        /* \"draft/ERC721.sol\":2297:2337  _isApprovedOrOwner(from, msg.sender, id) */\n      tag_115\n        /* \"draft/ERC721.sol\":2316:2320  from */\n      dup4\n        /* \"draft/ERC721.sol\":2322:2332  msg.sender */\n      caller\n        /* \"draft/ERC721.sol\":2334:2336  id */\n      dup4\n        /* \"draft/ERC721.sol\":2297:2315  _isApprovedOrOwner */\n      tag_116\n        /* \"draft/ERC721.sol\":2297:2337  _isApprovedOrOwner(from, msg.sender, id) */\n      jump\t// in\n    tag_115:\n        /* \"draft/ERC721.sol\":2289:2356  require(_isApprovedOrOwner(from, msg.sender, id), \"not authorized\") */\n      tag_117\n      jumpi\n      mload(0x40)\n      0x08c379a000000000000000000000000000000000000000000000000000000000\n      dup2\n      mstore\n      0x04\n      add\n      tag_118\n      swap1\n      tag_98\n      jump\t// in\n    tag_118:\n      mload(0x40)\n      dup1\n      swap2\n      sub\n      swap1\n      revert\n    tag_117:\n        /* \"draft/ERC721.sol\":2367:2377  _balanceOf */\n      0x01\n        /* \"draft/ERC721.sol\":2367:2383  _balanceOf[from] */\n      0x00\n        /* \"draft/ERC721.sol\":2378:2382  from */\n      dup5\n        /* \"draft/ERC721.sol\":2367:2383  _balanceOf[from] */\n      0xffffffffffffffffffffffffffffffffffffffff\n      and\n      0xffffffffffffffffffffffffffffffffffffffff\n      and\n      dup2\n      mstore\n      0x20\n      add\n      swap1\n      dup2\n      mstore\n      0x20\n      add\n      0x00\n      keccak256\n      0x00\n        /* \"draft/ERC721.sol\":2367:2385  _balanceOf[from]-- */\n      dup2\n      sload\n      dup1\n      swap3\n      swap2\n      swap1\n      tag_119\n      swap1\n      tag_120\n      jump\t// in\n    tag_119:\n      swap2\n      swap1\n      pop\n      sstore\n      pop\n        /* \"draft/ERC721.sol\":2396:2406  _balanceOf */\n      0x01\n        /* \"draft/ERC721.sol\":2396:2410  _balanceOf[to] */\n      0x00\n        /* \"draft/ERC721.sol\":2407:2409  to */\n      dup4\n        /* \"draft/ERC721.sol\":2396:2410  _balanceOf[to] */\n      0xffffffffffffffffffffffffffffffffffffffff\n      and\n      0xffffffffffffffffffffffffffffffffffffffff\n      and\n      dup2\n      mstore\n      0x20\n      add\n      swap1\n      dup2\n      mstore\n      0x20\n      add\n      0x00\n      keccak256\n      0x00\n        /* \"draft/ERC721.sol\":2396:2412  _balanceOf[to]++ */\n      dup2\n      sload\n      dup1\n      swap3\n      swap2\n      swap1\n      tag_121\n      swap1\n      tag_122\n      jump\t// in\n    tag_121:\n      swap2\n      swap1\n      pop\n      sstore\n      pop\n        /* \"draft/ERC721.sol\":2438:2440  to */\n      dup2\n        /* \"draft/ERC721.sol\":2423:2431  _ownerOf */\n      0x00\n        /* \"draft/ERC721.sol\":2423:2435  _ownerOf[id] */\n      dup1\n        /* \"draft/ERC721.sol\":2432:2434  id */\n      dup4\n        /* \"draft/ERC721.sol\":2423:2435  _ownerOf[id] */\n      dup2\n      mstore\n      0x20\n      add\n      swap1\n      dup2\n      mstore\n      0x20\n      add\n      0x00\n      keccak256\n      0x00\n        /* \"draft/ERC721.sol\":2423:2440  _ownerOf[id] = to */\n      0x0100\n      exp\n      dup2\n      sload\n      dup2\n      0xffffffffffffffffffffffffffffffffffffffff\n      mul\n      not\n      and\n      swap1\n      dup4\n      0xffffffffffffffffffffffffffffffffffffffff\n      and\n      mul\n      or\n      swap1\n      sstore\n      pop\n        /* \"draft/ERC721.sol\":2458:2468  _approvals */\n      0x02\n        /* \"draft/ERC721.sol\":2458:2472  _approvals[id] */\n      0x00\n        /* \"draft/ERC721.sol\":2469:2471  id */\n      dup3\n        /* \"draft/ERC721.sol\":2458:2472  _approvals[id] */\n      dup2\n      mstore\n      0x20\n      add\n      swap1\n      dup2\n      mstore\n      0x20\n      add\n      0x00\n      keccak256\n      0x00\n        /* \"draft/ERC721.sol\":2451:2472  delete _approvals[id] */\n      0x0100\n      exp\n      dup2\n      sload\n      swap1\n      0xffffffffffffffffffffffffffffffffffffffff\n      mul\n      not\n      and\n      swap1\n      sstore\n        /* \"draft/ERC721.sol\":2507:2509  id */\n      dup1\n        /* \"draft/ERC721.sol\":2503:2505  to */\n      dup3\n        /* \"draft/ERC721.sol\":2488:2510  Transfer(from, to, id) */\n      0xffffffffffffffffffffffffffffffffffffffff\n      and\n        /* \"draft/ERC721.sol\":2497:2501  from */\n      dup5\n        /* \"draft/ERC721.sol\":2488:2510  Transfer(from, to, id) */\n      0xffffffffffffffffffffffffffffffffffffffff\n      and\n      0xddf252ad1be2c89b69c2b068fc378daa952ba7f163c4a11628f55a4df523b3ef\n      mload(0x40)\n      mload(0x40)\n      dup1\n      swap2\n      sub\n      swap1\n      log4\n        /* \"draft/ERC721.sol\":2056:2518  function transferFrom(... */\n      pop\n      pop\n      pop\n      jump\t// out\n        /* \"draft/ERC721.sol\":2526:2848  function safeTransferFrom(... */\n    tag_46:\n        /* \"draft/ERC721.sol\":2644:2670  transferFrom(from, to, id) */\n      tag_124\n        /* \"draft/ERC721.sol\":2657:2661  from */\n      dup4\n        /* \"draft/ERC721.sol\":2663:2665  to */\n      dup4\n        /* \"draft/ERC721.sol\":2667:2669  id */\n      dup4\n        /* \"draft/ERC721.sol\":2644:2656  transferFrom */\n      tag_43\n        /* \"draft/ERC721.sol\":2644:2670  transferFrom(from, to, id) */\n      jump\t// in\n    tag_124:\n        /* \"draft/ERC721.sol\":2707:2708  0 */\n      0x00\n        /* \"draft/ERC721.sol\":2689:2691  to */\n      dup3\n        /* \"draft/ERC721.sol\":2689:2703  to.code.length */\n      0xffffffffffffffffffffffffffffffffffffffff\n      and\n      extcodesize\n        /* \"draft/ERC721.sol\":2689:2708  to.code.length == 0 */\n      eq\n        /* \"draft/ERC721.sol\":2689:2819  to.code.length == 0 || IERC721Receiver(to).onERC721Received(msg.sender, from, id, \"\") == IERC721Receiver.onERC721Received.selector */\n      dup1\n      tag_125\n      jumpi\n      pop\n        /* \"draft/ERC721.sol\":2778:2819  IERC721Receiver.onERC721Received.selector */\n      shl(0xe0, 0x150b7a02)\n        /* \"draft/ERC721.sol\":2712:2819  IERC721Receiver(to).onERC721Received(msg.sender, from, id, \"\") == IERC721Receiver.onERC721Received.selector */\n      not(0xffffffffffffffffffffffffffffffffffffffffffffffffffffffff)\n      and\n        /* \"draft/ERC721.sol\":2728:2730  to */\n      dup3\n        /* \"draft/ERC721.sol\":2712:2748  IERC721Receiver(to).onERC721Received */\n      0xffffffffffffffffffffffffffffffffffffffff\n      and\n      0x150b7a02\n        /* \"draft/ERC721.sol\":2749:2759  msg.sender */\n      caller\n        /* \"draft/ERC721.sol\":2761:2765  from */\n      dup7\n        /* \"draft/ERC721.sol\":2767:2769  id */\n      dup6\n        /* \"draft/ERC721.sol\":2712:2774  IERC721Receiver(to).onERC721Received(msg.sender, from, id, \"\") */\n      mload(0x40)\n      dup5\n      0xffffffff\n      and\n      0xe0\n      shl\n      dup2\n      mstore\n      0x04\n      add\n      tag_126\n      swap4\n      swap3\n      swap2\n      swap1\n      tag_127\n      jump\t// in\n    tag_126:\n      0x20\n      mload(0x40)\n      dup1\n      dup4\n      sub\n      dup2\n      0x00\n      dup8\n      gas\n      call\n      iszero\n      dup1\n      iszero\n      tag_129\n      jumpi\n      returndatasize\n      0x00\n      dup1\n      returndatacopy\n      revert(0x00, returndatasize)\n    tag_129:\n      pop\n      pop\n      pop\n      pop\n      mload(0x40)\n      returndatasize\n      not(0x1f)\n      0x1f\n      dup3\n      add\n      and\n      dup3\n      add\n      dup1\n      0x40\n      mstore\n      pop\n      dup2\n      add\n      swap1\n      tag_130\n      swap2\n      swap1\n      tag_131\n      jump\t// in\n    tag_130:\n        /* \"draft/ERC721.sol\":2712:2819  IERC721Receiver(to).onERC721Received(msg.sender, from, id, \"\") == IERC721Receiver.onERC721Received.selector */\n      not(0xffffffffffffffffffffffffffffffffffffffffffffffffffffffff)\n      and\n      eq\n        /* \"draft/ERC721.sol\":2689:2819  to.code.length == 0 || IERC721Receiver(to).onERC721Received(msg.sender, from, id, \"\") == IERC721Receiver.onERC721Received.selector */\n    tag_125:\n        /* \"draft/ERC721.sol\":2681:2840  require(to.code.length == 0 || IERC721Receiver(to).onERC721Received(msg.sender, from, id, \"\") == IERC721Receiver.onERC721Received.selector, \"unsafe recipient\") */\n      tag_132\n      jumpi\n      mload(0x40)\n      0x08c379a000000000000000000000000000000000000000000000000000000000\n      dup2\n      mstore\n      0x04\n      add\n      tag_133\n      swap1\n      tag_134\n      jump\t// in\n    tag_133:\n      mload(0x40)\n      dup1\n      swap2\n      sub\n      swap1\n      revert\n    tag_132:\n        /* \"draft/ERC721.sol\":2526:2848  function safeTransferFrom(... */\n      pop\n      pop\n      pop\n      jump\t// out\n        /* \"draft/ERC721.sol\":774:942  function ownerOf(uint256 id) external view returns (address owner) {... */\n    tag_49:\n        /* \"draft/ERC721.sol\":826:839  address owner */\n      0x00\n        /* \"draft/ERC721.sol\":860:868  _ownerOf */\n      dup1\n        /* \"draft/ERC721.sol\":860:872  _ownerOf[id] */\n      0x00\n        /* \"draft/ERC721.sol\":869:871  id */\n      dup4\n        /* \"draft/ERC721.sol\":860:872  _ownerOf[id] */\n      dup2\n      mstore\n      0x20\n      add\n      swap1\n      dup2\n      mstore\n      0x20\n      add\n      0x00\n      keccak256\n      0x00\n      swap1\n      sload\n      swap1\n      0x0100\n      exp\n      swap1\n      div\n      0xffffffffffffffffffffffffffffffffffffffff\n      and\n        /* \"draft/ERC721.sol\":852:872  owner = _ownerOf[id] */\n      swap1\n      pop\n        /* \"draft/ERC721.sol\":908:909  0 */\n      0x00\n        /* \"draft/ERC721.sol\":891:910  owner != address(0) */\n      0xffffffffffffffffffffffffffffffffffffffff\n      and\n        /* \"draft/ERC721.sol\":891:896  owner */\n      dup2\n        /* \"draft/ERC721.sol\":891:910  owner != address(0) */\n      0xffffffffffffffffffffffffffffffffffffffff\n      and\n      sub\n        /* \"draft/ERC721.sol\":883:934  require(owner != address(0), \"token doesn't exist\") */\n      tag_136\n      jumpi\n      mload(0x40)\n      0x08c379a000000000000000000000000000000000000000000000000000000000\n      dup2\n      mstore\n      0x04\n      add\n      tag_137\n      swap1\n      tag_93\n      jump\t// in\n    tag_137:\n      mload(0x40)\n      dup1\n      swap2\n      sub\n      swap1\n      revert\n    tag_136:\n        /* \"draft/ERC721.sol\":774:942  function ownerOf(uint256 id) external view returns (address owner) {... */\n      swap2\n      swap1\n      pop\n      jump\t// out\n        /* \"draft/ERC721.sol\":950:1122  function balanceOf(address owner) external view returns (uint256) {... */\n    tag_54:\n        /* \"draft/ERC721.sol\":1007:1014  uint256 */\n      0x00\n        /* \"draft/ERC721.sol\":1052:1053  0 */\n      dup1\n        /* \"draft/ERC721.sol\":1035:1054  owner != address(0) */\n      0xffffffffffffffffffffffffffffffffffffffff\n      and\n        /* \"draft/ERC721.sol\":1035:1040  owner */\n      dup3\n        /* \"draft/ERC721.sol\":1035:1054  owner != address(0) */\n      0xffffffffffffffffffffffffffffffffffffffff\n      and\n      sub\n        /* \"draft/ERC721.sol\":1027:1079  require(owner != address(0), \"owner = zero address\") */\n      tag_139\n      jumpi\n      mload(0x40)\n      0x08c379a000000000000000000000000000000000000000000000000000000000\n      dup2\n      mstore\n      0x04\n      add\n      tag_140\n      swap1\n      tag_141\n      jump\t// in\n    tag_140:\n      mload(0x40)\n      dup1\n      swap2\n      sub\n      swap1\n      revert\n    tag_139:\n        /* \"draft/ERC721.sol\":1097:1107  _balanceOf */\n      0x01\n        /* \"draft/ERC721.sol\":1097:1114  _balanceOf[owner] */\n      0x00\n        /* \"draft/ERC721.sol\":1108:1113  owner */\n      dup4\n        /* \"draft/ERC721.sol\":1097:1114  _balanceOf[owner] */\n      0xffffffffffffffffffffffffffffffffffffffff\n      and\n      0xffffffffffffffffffffffffffffffffffffffff\n      and\n      dup2\n      mstore\n      0x20\n      add\n      swap1\n      dup2\n      mstore\n      0x20\n      add\n      0x00\n      keccak256\n      sload\n        /* \"draft/ERC721.sol\":1090:1114  return _balanceOf[owner] */\n      swap1\n      pop\n        /* \"draft/ERC721.sol\":950:1122  function balanceOf(address owner) external view returns (uint256) {... */\n      swap2\n      swap1\n      pop\n      jump\t// out\n        /* \"TNFT.sol\":287:348  mapping(uint256 => mapping(address => uint256)) public reward */\n    tag_60:\n      mstore(0x20, 0x06)\n      dup2\n      0x00\n      mstore\n      mstore(0x20, keccak256(0x00, 0x40))\n      dup1\n      0x00\n      mstore\n      keccak256(0x00, 0x40)\n      0x00\n      swap2\n      pop\n      swap2\n      pop\n      pop\n      sload\n      dup2\n      jump\t// out\n        /* \"access/Ownable.sol\":319:446  function updateOwner(address newOwner) external onlyOwner {... */\n    tag_64:\n        /* \"access/Ownable.sol\":275:280  owner */\n      0x04\n      0x00\n      swap1\n      sload\n      swap1\n      0x0100\n      exp\n      swap1\n      div\n      0xffffffffffffffffffffffffffffffffffffffff\n      and\n        /* \"access/Ownable.sol\":261:280  msg.sender == owner */\n      0xffffffffffffffffffffffffffffffffffffffff\n      and\n        /* \"access/Ownable.sol\":261:271  msg.sender */\n      caller\n        /* \"access/Ownable.sol\":261:280  msg.sender == owner */\n      0xffffffffffffffffffffffffffffffffffffffff\n      and\n      eq\n        /* \"access/Ownable.sol\":253:295  require(msg.sender == owner, \"only owner\") */\n      tag_143\n      jumpi\n      mload(0x40)\n      0x08c379a000000000000000000000000000000000000000000000000000000000\n      dup2\n      mstore\n      0x04\n      add\n      tag_144\n      swap1\n      tag_102\n      jump\t// in\n    tag_144:\n      mload(0x40)\n      dup1\n      swap2\n      sub\n      swap1\n      revert\n    tag_143:\n        /* \"access/Ownable.sol\":395:403  newOwner */\n      dup1\n        /* \"access/Ownable.sol\":387:392  owner */\n      0x04\n      0x00\n        /* \"access/Ownable.sol\":387:403  owner = newOwner */\n      0x0100\n      exp\n      dup2\n      sload\n      dup2\n      0xffffffffffffffffffffffffffffffffffffffff\n      mul\n      not\n      and\n      swap1\n      dup4\n      0xffffffffffffffffffffffffffffffffffffffff\n      and\n      mul\n      or\n      swap1\n      sstore\n      pop\n        /* \"access/Ownable.sol\":430:438  newOwner */\n      dup1\n        /* \"access/Ownable.sol\":418:439  UpdateOwner(newOwner) */\n      0xffffffffffffffffffffffffffffffffffffffff\n      and\n      0x84022644ce39de434e8f39c4398a3628815893104188274c37205d41c2d50967\n      mload(0x40)\n      mload(0x40)\n      dup1\n      swap2\n      sub\n      swap1\n      log2\n        /* \"access/Ownable.sol\":319:446  function updateOwner(address newOwner) external onlyOwner {... */\n      pop\n      jump\t// out\n        /* \"access/Ownable.sol\":90:110  address public owner */\n    tag_66:\n      0x04\n      0x00\n      swap1\n      sload\n      swap1\n      0x0100\n      exp\n      swap1\n      div\n      0xffffffffffffffffffffffffffffffffffffffff\n      and\n      dup2\n      jump\t// out\n        /* \"draft/ERC721.sol\":1130:1329  function setApprovalForAll(address operator, bool approved) external {... */\n    tag_71:\n        /* \"draft/ERC721.sol\":1251:1259  approved */\n      dup1\n        /* \"draft/ERC721.sol\":1210:1226  isApprovedForAll */\n      0x03\n        /* \"draft/ERC721.sol\":1210:1238  isApprovedForAll[msg.sender] */\n      0x00\n        /* \"draft/ERC721.sol\":1227:1237  msg.sender */\n      caller\n        /* \"draft/ERC721.sol\":1210:1238  isApprovedForAll[msg.sender] */\n      0xffffffffffffffffffffffffffffffffffffffff\n      and\n      0xffffffffffffffffffffffffffffffffffffffff\n      and\n      dup2\n      mstore\n      0x20\n      add\n      swap1\n      dup2\n      mstore\n      0x20\n      add\n      0x00\n      keccak256\n        /* \"draft/ERC721.sol\":1210:1248  isApprovedForAll[msg.sender][operator] */\n      0x00\n        /* \"draft/ERC721.sol\":1239:1247  operator */\n      dup5\n        /* \"draft/ERC721.sol\":1210:1248  isApprovedForAll[msg.sender][operator] */\n      0xffffffffffffffffffffffffffffffffffffffff\n      and\n      0xffffffffffffffffffffffffffffffffffffffff\n      and\n      dup2\n      mstore\n      0x20\n      add\n      swap1\n      dup2\n      mstore\n      0x20\n      add\n      0x00\n      keccak256\n      0x00\n        /* \"draft/ERC721.sol\":1210:1259  isApprovedForAll[msg.sender][operator] = approved */\n      0x0100\n      exp\n      dup2\n      sload\n      dup2\n      0xff\n      mul\n      not\n      and\n      swap1\n      dup4\n      iszero\n      iszero\n      mul\n      or\n      swap1\n      sstore\n      pop\n        /* \"draft/ERC721.sol\":1302:1310  operator */\n      dup2\n        /* \"draft/ERC721.sol\":1275:1321  ApprovalForAll(msg.sender, operator, approved) */\n      0xffffffffffffffffffffffffffffffffffffffff\n      and\n        /* \"draft/ERC721.sol\":1290:1300  msg.sender */\n      caller\n        /* \"draft/ERC721.sol\":1275:1321  ApprovalForAll(msg.sender, operator, approved) */\n      0xffffffffffffffffffffffffffffffffffffffff\n      and\n      0x17307eab39ab6107e8899845ad3d59bd9653f200f220920489ca2b5937696c31\n        /* \"draft/ERC721.sol\":1312:1320  approved */\n      dup4\n        /* \"draft/ERC721.sol\":1275:1321  ApprovalForAll(msg.sender, operator, approved) */\n      mload(0x40)\n      tag_147\n      swap2\n      swap1\n      tag_27\n      jump\t// in\n    tag_147:\n      mload(0x40)\n      dup1\n      swap2\n      sub\n      swap1\n      log3\n        /* \"draft/ERC721.sol\":1130:1329  function setApprovalForAll(address operator, bool approved) external {... */\n      pop\n      pop\n      jump\t// out\n        /* \"draft/ERC721.sol\":2856:3210  function safeTransferFrom(... */\n    tag_75:\n        /* \"draft/ERC721.sol\":3004:3030  transferFrom(from, to, id) */\n      tag_149\n        /* \"draft/ERC721.sol\":3017:3021  from */\n      dup6\n        /* \"draft/ERC721.sol\":3023:3025  to */\n      dup6\n        /* \"draft/ERC721.sol\":3027:3029  id */\n      dup6\n        /* \"draft/ERC721.sol\":3004:3016  transferFrom */\n      tag_43\n        /* \"draft/ERC721.sol\":3004:3030  transferFrom(from, to, id) */\n      jump\t// in\n    tag_149:\n        /* \"draft/ERC721.sol\":3067:3068  0 */\n      0x00\n        /* \"draft/ERC721.sol\":3049:3051  to */\n      dup5\n        /* \"draft/ERC721.sol\":3049:3063  to.code.length */\n      0xffffffffffffffffffffffffffffffffffffffff\n      and\n      extcodesize\n        /* \"draft/ERC721.sol\":3049:3068  to.code.length == 0 */\n      eq\n        /* \"draft/ERC721.sol\":3049:3181  to.code.length == 0 || IERC721Receiver(to).onERC721Received(msg.sender, from, id, data) == IERC721Receiver.onERC721Received.selector */\n      dup1\n      tag_150\n      jumpi\n      pop\n        /* \"draft/ERC721.sol\":3140:3181  IERC721Receiver.onERC721Received.selector */\n      shl(0xe0, 0x150b7a02)\n        /* \"draft/ERC721.sol\":3072:3181  IERC721Receiver(to).onERC721Received(msg.sender, from, id, data) == IERC721Receiver.onERC721Received.selector */\n      not(0xffffffffffffffffffffffffffffffffffffffffffffffffffffffff)\n      and\n        /* \"draft/ERC721.sol\":3088:3090  to */\n      dup5\n        /* \"draft/ERC721.sol\":3072:3108  IERC721Receiver(to).onERC721Received */\n      0xffffffffffffffffffffffffffffffffffffffff\n      and\n      0x150b7a02\n        /* \"draft/ERC721.sol\":3109:3119  msg.sender */\n      caller\n        /* \"draft/ERC721.sol\":3121:3125  from */\n      dup9\n        /* \"draft/ERC721.sol\":3127:3129  id */\n      dup8\n        /* \"draft/ERC721.sol\":3131:3135  data */\n      dup8\n      dup8\n        /* \"draft/ERC721.sol\":3072:3136  IERC721Receiver(to).onERC721Received(msg.sender, from, id, data) */\n      mload(0x40)\n      dup7\n      0xffffffff\n      and\n      0xe0\n      shl\n      dup2\n      mstore\n      0x04\n      add\n      tag_151\n      swap6\n      swap5\n      swap4\n      swap3\n      swap2\n      swap1\n      tag_152\n      jump\t// in\n    tag_151:\n      0x20\n      mload(0x40)\n      dup1\n      dup4\n      sub\n      dup2\n      0x00\n      dup8\n      gas\n      call\n      iszero\n      dup1\n      iszero\n      tag_154\n      jumpi\n      returndatasize\n      0x00\n      dup1\n      returndatacopy\n      revert(0x00, returndatasize)\n    tag_154:\n      pop\n      pop\n      pop\n      pop\n      mload(0x40)\n      returndatasize\n      not(0x1f)\n      0x1f\n      dup3\n      add\n      and\n      dup3\n      add\n      dup1\n      0x40\n      mstore\n      pop\n      dup2\n      add\n      swap1\n      tag_155\n      swap2\n      swap1\n      tag_131\n      jump\t// in\n    tag_155:\n        /* \"draft/ERC721.sol\":3072:3181  IERC721Receiver(to).onERC721Received(msg.sender, from, id, data) == IERC721Receiver.onERC721Received.selector */\n      not(0xffffffffffffffffffffffffffffffffffffffffffffffffffffffff)\n      and\n      eq\n        /* \"draft/ERC721.sol\":3049:3181  to.code.length == 0 || IERC721Receiver(to).onERC721Received(msg.sender, from, id, data) == IERC721Receiver.onERC721Received.selector */\n    tag_150:\n        /* \"draft/ERC721.sol\":3041:3202  require(to.code.length == 0 || IERC721Receiver(to).onERC721Received(msg.sender, from, id, data) == IERC721Receiver.onERC721Received.selector, \"unsafe recipient\") */\n      tag_156\n      jumpi\n      mload(0x40)\n      0x08c379a000000000000000000000000000000000000000000000000000000000\n      dup2\n      mstore\n      0x04\n      add\n      tag_157\n      swap1\n      tag_134\n      jump\t// in\n    tag_157:\n      mload(0x40)\n      dup1\n      swap2\n      sub\n      swap1\n      revert\n    tag_156:\n        /* \"draft/ERC721.sol\":2856:3210  function safeTransferFrom(... */\n      pop\n      pop\n      pop\n      pop\n      pop\n      jump\t// out\n        /* \"TNFT.sol\":461:678  function depositReward(... */\n    tag_79:\n        /* \"TNFT.sol\":581:586  token */\n      dup2\n        /* \"TNFT.sol\":574:600  IERC20(token).transferFrom */\n      0xffffffffffffffffffffffffffffffffffffffff\n      and\n      0x23b872dd\n        /* \"TNFT.sol\":601:611  msg.sender */\n      caller\n        /* \"TNFT.sol\":621:625  this */\n      address\n        /* \"TNFT.sol\":628:634  amount */\n      dup5\n        /* \"TNFT.sol\":574:635  IERC20(token).transferFrom(msg.sender, address(this), amount) */\n      mload(0x40)\n      dup5\n      0xffffffff\n      and\n      0xe0\n      shl\n      dup2\n      mstore\n      0x04\n      add\n      tag_159\n      swap4\n      swap3\n      swap2\n      swap1\n      tag_160\n      jump\t// in\n    tag_159:\n      0x20\n      mload(0x40)\n      dup1\n      dup4\n      sub\n      dup2\n      0x00\n      dup8\n      gas\n      call\n      iszero\n      dup1\n      iszero\n      tag_162\n      jumpi\n      returndatasize\n      0x00\n      dup1\n      returndatacopy\n      revert(0x00, returndatasize)\n    tag_162:\n      pop\n      pop\n      pop\n      pop\n      mload(0x40)\n      returndatasize\n      not(0x1f)\n      0x1f\n      dup3\n      add\n      and\n      dup3\n      add\n      dup1\n      0x40\n      mstore\n      pop\n      dup2\n      add\n      swap1\n      tag_163\n      swap2\n      swap1\n      tag_164\n      jump\t// in\n    tag_163:\n      pop\n        /* \"TNFT.sol\":665:671  amount */\n      dup1\n        /* \"TNFT.sol\":645:651  reward */\n      0x06\n        /* \"TNFT.sol\":645:655  reward[id] */\n      0x00\n        /* \"TNFT.sol\":652:654  id */\n      dup6\n        /* \"TNFT.sol\":645:655  reward[id] */\n      dup2\n      mstore\n      0x20\n      add\n      swap1\n      dup2\n      mstore\n      0x20\n      add\n      0x00\n      keccak256\n        /* \"TNFT.sol\":645:662  reward[id][token] */\n      0x00\n        /* \"TNFT.sol\":656:661  token */\n      dup5\n        /* \"TNFT.sol\":645:662  reward[id][token] */\n      0xffffffffffffffffffffffffffffffffffffffff\n      and\n      0xffffffffffffffffffffffffffffffffffffffff\n      and\n      dup2\n      mstore\n      0x20\n      add\n      swap1\n      dup2\n      mstore\n      0x20\n      add\n      0x00\n      keccak256\n        /* \"TNFT.sol\":645:671  reward[id][token] = amount */\n      dup2\n      swap1\n      sstore\n      pop\n        /* \"TNFT.sol\":461:678  function depositReward(... */\n      pop\n      pop\n      pop\n      jump\t// out\n        /* \"draft/ERC721.sol\":503:571  mapping(address => mapping(address => bool)) public isApprovedForAll */\n    tag_83:\n      mstore(0x20, 0x03)\n      dup2\n      0x00\n      mstore\n      mstore(0x20, keccak256(0x00, 0x40))\n      dup1\n      0x00\n      mstore\n      keccak256(0x00, 0x40)\n      0x00\n      swap2\n      pop\n      swap2\n      pop\n      swap1\n      sload\n      swap1\n      0x0100\n      exp\n      swap1\n      div\n      0xff\n      and\n      dup2\n      jump\t// out\n        /* \"TNFT.sol\":684:938  function withdrawReward(... */\n    tag_87:\n        /* \"TNFT.sol\":820:828  _ownerOf */\n      0x00\n        /* \"TNFT.sol\":820:832  _ownerOf[id] */\n      dup1\n        /* \"TNFT.sol\":829:831  id */\n      dup5\n        /* \"TNFT.sol\":820:832  _ownerOf[id] */\n      dup2\n      mstore\n      0x20\n      add\n      swap1\n      dup2\n      mstore\n      0x20\n      add\n      0x00\n      keccak256\n      0x00\n      swap1\n      sload\n      swap1\n      0x0100\n      exp\n      swap1\n      div\n      0xffffffffffffffffffffffffffffffffffffffff\n      and\n        /* \"TNFT.sol\":806:832  msg.sender == _ownerOf[id] */\n      0xffffffffffffffffffffffffffffffffffffffff\n      and\n        /* \"TNFT.sol\":806:816  msg.sender */\n      caller\n        /* \"TNFT.sol\":806:832  msg.sender == _ownerOf[id] */\n      0xffffffffffffffffffffffffffffffffffffffff\n      and\n      eq\n        /* \"TNFT.sol\":798:833  require(msg.sender == _ownerOf[id]) */\n      tag_166\n      jumpi\n      0x00\n      dup1\n      revert\n    tag_166:\n        /* \"TNFT.sol\":872:878  amount */\n      dup1\n        /* \"TNFT.sol\":851:857  reward */\n      0x06\n        /* \"TNFT.sol\":851:861  reward[id] */\n      0x00\n        /* \"TNFT.sol\":858:860  id */\n      dup6\n        /* \"TNFT.sol\":851:861  reward[id] */\n      dup2\n      mstore\n      0x20\n      add\n      swap1\n      dup2\n      mstore\n      0x20\n      add\n      0x00\n      keccak256\n        /* \"TNFT.sol\":851:868  reward[id][token] */\n      0x00\n        /* \"TNFT.sol\":862:867  token */\n      dup5\n        /* \"TNFT.sol\":851:868  reward[id][token] */\n      0xffffffffffffffffffffffffffffffffffffffff\n      and\n      0xffffffffffffffffffffffffffffffffffffffff\n      and\n      dup2\n      mstore\n      0x20\n      add\n      swap1\n      dup2\n      mstore\n      0x20\n      add\n      0x00\n      keccak256\n      sload\n        /* \"TNFT.sol\":851:878  reward[id][token] >= amount */\n      lt\n      iszero\n        /* \"TNFT.sol\":843:879  require(reward[id][token] >= amount) */\n      tag_167\n      jumpi\n      0x00\n      dup1\n      revert\n    tag_167:\n        /* \"TNFT.sol\":896:901  token */\n      dup2\n        /* \"TNFT.sol\":889:911  IERC20(token).transfer */\n      0xffffffffffffffffffffffffffffffffffffffff\n      and\n      0xa9059cbb\n        /* \"TNFT.sol\":912:922  msg.sender */\n      caller\n        /* \"TNFT.sol\":924:930  amount */\n      dup4\n        /* \"TNFT.sol\":889:931  IERC20(token).transfer(msg.sender, amount) */\n      mload(0x40)\n      dup4\n      0xffffffff\n      and\n      0xe0\n      shl\n      dup2\n      mstore\n      0x04\n      add\n      tag_168\n      swap3\n      swap2\n      swap1\n      tag_169\n      jump\t// in\n    tag_168:\n      0x20\n      mload(0x40)\n      dup1\n      dup4\n      sub\n      dup2\n      0x00\n      dup8\n      gas\n      call\n      iszero\n      dup1\n      iszero\n      tag_171\n      jumpi\n      returndatasize\n      0x00\n      dup1\n      returndatacopy\n      revert(0x00, returndatasize)\n    tag_171:\n      pop\n      pop\n      pop\n      pop\n      mload(0x40)\n      returndatasize\n      not(0x1f)\n      0x1f\n      dup3\n      add\n      and\n      dup3\n      add\n      dup1\n      0x40\n      mstore\n      pop\n      dup2\n      add\n      swap1\n      tag_172\n      swap2\n      swap1\n      tag_164\n      jump\t// in\n    tag_172:\n      pop\n        /* \"TNFT.sol\":684:938  function withdrawReward(... */\n      pop\n      pop\n      pop\n      jump\t// out\n        /* \"draft/ERC721.sol\":3218:3497  function _mint(address to, uint256 id) internal {... */\n    tag_105:\n        /* \"draft/ERC721.sol\":3299:3300  0 */\n      0x00\n        /* \"draft/ERC721.sol\":3285:3301  to != address(0) */\n      0xffffffffffffffffffffffffffffffffffffffff\n      and\n        /* \"draft/ERC721.sol\":3285:3287  to */\n      dup3\n        /* \"draft/ERC721.sol\":3285:3301  to != address(0) */\n      0xffffffffffffffffffffffffffffffffffffffff\n      and\n      sub\n        /* \"draft/ERC721.sol\":3277:3326  require(to != address(0), \"mint to zero address\") */\n      tag_174\n      jumpi\n      mload(0x40)\n      0x08c379a000000000000000000000000000000000000000000000000000000000\n      dup2\n      mstore\n      0x04\n      add\n      tag_175\n      swap1\n      tag_176\n      jump\t// in\n    tag_175:\n      mload(0x40)\n      dup1\n      swap2\n      sub\n      swap1\n      revert\n    tag_174:\n        /* \"draft/ERC721.sol\":3369:3370  0 */\n      0x00\n        /* \"draft/ERC721.sol\":3345:3371  _ownerOf[id] == address(0) */\n      0xffffffffffffffffffffffffffffffffffffffff\n      and\n        /* \"draft/ERC721.sol\":3345:3353  _ownerOf */\n      0x00\n        /* \"draft/ERC721.sol\":3345:3357  _ownerOf[id] */\n      dup1\n        /* \"draft/ERC721.sol\":3354:3356  id */\n      dup4\n        /* \"draft/ERC721.sol\":3345:3357  _ownerOf[id] */\n      dup2\n      mstore\n      0x20\n      add\n      swap1\n      dup2\n      mstore\n      0x20\n      add\n      0x00\n      keccak256\n      0x00\n      swap1\n      sload\n      swap1\n      0x0100\n      exp\n      swap1\n      div\n      0xffffffffffffffffffffffffffffffffffffffff\n      and\n        /* \"draft/ERC721.sol\":3345:3371  _ownerOf[id] == address(0) */\n      0xffffffffffffffffffffffffffffffffffffffff\n      and\n      eq\n        /* \"draft/ERC721.sol\":3337:3390  require(_ownerOf[id] == address(0), \"already minted\") */\n      tag_177\n      jumpi\n      mload(0x40)\n      0x08c379a000000000000000000000000000000000000000000000000000000000\n      dup2\n      mstore\n      0x04\n      add\n      tag_178\n      swap1\n      tag_179\n      jump\t// in\n    tag_178:\n      mload(0x40)\n      dup1\n      swap2\n      sub\n      swap1\n      revert\n    tag_177:\n        /* \"draft/ERC721.sol\":3401:3411  _balanceOf */\n      0x01\n        /* \"draft/ERC721.sol\":3401:3415  _balanceOf[to] */\n      0x00\n        /* \"draft/ERC721.sol\":3412:3414  to */\n      dup4\n        /* \"draft/ERC721.sol\":3401:3415  _balanceOf[to] */\n      0xffffffffffffffffffffffffffffffffffffffff\n      and\n      0xffffffffffffffffffffffffffffffffffffffff\n      and\n      dup2\n      mstore\n      0x20\n      add\n      swap1\n      dup2\n      mstore\n      0x20\n      add\n      0x00\n      keccak256\n      0x00\n        /* \"draft/ERC721.sol\":3401:3417  _balanceOf[to]++ */\n      dup2\n      sload\n      dup1\n      swap3\n      swap2\n      swap1\n      tag_180\n      swap1\n      tag_122\n      jump\t// in\n    tag_180:\n      swap2\n      swap1\n      pop\n      sstore\n      pop\n        /* \"draft/ERC721.sol\":3443:3445  to */\n      dup2\n        /* \"draft/ERC721.sol\":3428:3436  _ownerOf */\n      0x00\n        /* \"draft/ERC721.sol\":3428:3440  _ownerOf[id] */\n      dup1\n        /* \"draft/ERC721.sol\":3437:3439  id */\n      dup4\n        /* \"draft/ERC721.sol\":3428:3440  _ownerOf[id] */\n      dup2\n      mstore\n      0x20\n      add\n      swap1\n      dup2\n      mstore\n      0x20\n      add\n      0x00\n      keccak256\n      0x00\n        /* \"draft/ERC721.sol\":3428:3445  _ownerOf[id] = to */\n      0x0100\n      exp\n      dup2\n      sload\n      dup2\n      0xffffffffffffffffffffffffffffffffffffffff\n      mul\n      not\n      and\n      swap1\n      dup4\n      0xffffffffffffffffffffffffffffffffffffffff\n      and\n      mul\n      or\n      swap1\n      sstore\n      pop\n        /* \"draft/ERC721.sol\":3486:3488  id */\n      dup1\n        /* \"draft/ERC721.sol\":3482:3484  to */\n      dup3\n        /* \"draft/ERC721.sol\":3461:3489  Transfer(address(0), to, id) */\n      0xffffffffffffffffffffffffffffffffffffffff\n      and\n        /* \"draft/ERC721.sol\":3478:3479  0 */\n      0x00\n        /* \"draft/ERC721.sol\":3461:3489  Transfer(address(0), to, id) */\n      0xffffffffffffffffffffffffffffffffffffffff\n      and\n      0xddf252ad1be2c89b69c2b068fc378daa952ba7f163c4a11628f55a4df523b3ef\n      mload(0x40)\n      mload(0x40)\n      dup1\n      swap2\n      sub\n      swap1\n      log4\n        /* \"draft/ERC721.sol\":3218:3497  function _mint(address to, uint256 id) internal {... */\n      pop\n      pop\n      jump\t// out\n        /* \"draft/ERC721.sol\":1804:2048  function _isApprovedOrOwner(... */\n    tag_116:\n        /* \"draft/ERC721.sol\":1933:1937  bool */\n      0x00\n        /* \"draft/ERC721.sol\":1969:1974  owner */\n      dup4\n        /* \"draft/ERC721.sol\":1958:1974  spender == owner */\n      0xffffffffffffffffffffffffffffffffffffffff\n      and\n        /* \"draft/ERC721.sol\":1958:1965  spender */\n      dup4\n        /* \"draft/ERC721.sol\":1958:1974  spender == owner */\n      0xffffffffffffffffffffffffffffffffffffffff\n      and\n      eq\n        /* \"draft/ERC721.sol\":1958:2010  spender == owner || isApprovedForAll[owner][spender] */\n      dup1\n      tag_182\n      jumpi\n      pop\n        /* \"draft/ERC721.sol\":1978:1994  isApprovedForAll */\n      0x03\n        /* \"draft/ERC721.sol\":1978:2001  isApprovedForAll[owner] */\n      0x00\n        /* \"draft/ERC721.sol\":1995:2000  owner */\n      dup6\n        /* \"draft/ERC721.sol\":1978:2001  isApprovedForAll[owner] */\n      0xffffffffffffffffffffffffffffffffffffffff\n      and\n      0xffffffffffffffffffffffffffffffffffffffff\n      and\n      dup2\n      mstore\n      0x20\n      add\n      swap1\n      dup2\n      mstore\n      0x20\n      add\n      0x00\n      keccak256\n        /* \"draft/ERC721.sol\":1978:2010  isApprovedForAll[owner][spender] */\n      0x00\n        /* \"draft/ERC721.sol\":2002:2009  spender */\n      dup5\n        /* \"draft/ERC721.sol\":1978:2010  isApprovedForAll[owner][spender] */\n      0xffffffffffffffffffffffffffffffffffffffff\n      and\n      0xffffffffffffffffffffffffffffffffffffffff\n      and\n      dup2\n      mstore\n      0x20\n      add\n      swap1\n      dup2\n      mstore\n      0x20\n      add\n      0x00\n      keccak256\n      0x00\n      swap1\n      sload\n      swap1\n      0x0100\n      exp\n      swap1\n      div\n      0xff\n      and\n        /* \"draft/ERC721.sol\":1958:2010  spender == owner || isApprovedForAll[owner][spender] */\n    tag_182:\n        /* \"draft/ERC721.sol\":1958:2039  spender == owner || isApprovedForAll[owner][spender] || spender == _approvals[id] */\n      dup1\n      tag_183\n      jumpi\n      pop\n        /* \"draft/ERC721.sol\":2025:2035  _approvals */\n      0x02\n        /* \"draft/ERC721.sol\":2025:2039  _approvals[id] */\n      0x00\n        /* \"draft/ERC721.sol\":2036:2038  id */\n      dup4\n        /* \"draft/ERC721.sol\":2025:2039  _approvals[id] */\n      dup2\n      mstore\n      0x20\n      add\n      swap1\n      dup2\n      mstore\n      0x20\n      add\n      0x00\n      keccak256\n      0x00\n      swap1\n      sload\n      swap1\n      0x0100\n      exp\n      swap1\n      div\n      0xffffffffffffffffffffffffffffffffffffffff\n      and\n        /* \"draft/ERC721.sol\":2014:2039  spender == _approvals[id] */\n      0xffffffffffffffffffffffffffffffffffffffff\n      and\n        /* \"draft/ERC721.sol\":2014:2021  spender */\n      dup4\n        /* \"draft/ERC721.sol\":2014:2039  spender == _approvals[id] */\n      0xffffffffffffffffffffffffffffffffffffffff\n      and\n      eq\n        /* \"draft/ERC721.sol\":1958:2039  spender == owner || isApprovedForAll[owner][spender] || spender == _approvals[id] */\n    tag_183:\n        /* \"draft/ERC721.sol\":1950:2040  return (spender == owner || isApprovedForAll[owner][spender] || spender == _approvals[id]) */\n      swap1\n      pop\n        /* \"draft/ERC721.sol\":1804:2048  function _isApprovedOrOwner(... */\n      swap4\n      swap3\n      pop\n      pop\n      pop\n      jump\t// out\n        /* \"#utility.yul\":88:205   */\n    tag_185:\n        /* \"#utility.yul\":197:198   */\n      0x00\n        /* \"#utility.yul\":194:195   */\n      dup1\n        /* \"#utility.yul\":187:199   */\n      revert\n        /* \"#utility.yul\":211:328   */\n    tag_186:\n        /* \"#utility.yul\":320:321   */\n      0x00\n        /* \"#utility.yul\":317:318   */\n      dup1\n        /* \"#utility.yul\":310:322   */\n      revert\n        /* \"#utility.yul\":334:483   */\n    tag_187:\n        /* \"#utility.yul\":370:377   */\n      0x00\n        /* \"#utility.yul\":410:476   */\n      0xffffffff00000000000000000000000000000000000000000000000000000000\n        /* \"#utility.yul\":403:408   */\n      dup3\n        /* \"#utility.yul\":399:477   */\n      and\n        /* \"#utility.yul\":388:477   */\n      swap1\n      pop\n        /* \"#utility.yul\":334:483   */\n      swap2\n      swap1\n      pop\n      jump\t// out\n        /* \"#utility.yul\":489:609   */\n    tag_188:\n        /* \"#utility.yul\":561:584   */\n      tag_241\n        /* \"#utility.yul\":578:583   */\n      dup2\n        /* \"#utility.yul\":561:584   */\n      tag_187\n      jump\t// in\n    tag_241:\n        /* \"#utility.yul\":554:559   */\n      dup2\n        /* \"#utility.yul\":551:585   */\n      eq\n        /* \"#utility.yul\":541:603   */\n      tag_242\n      jumpi\n        /* \"#utility.yul\":599:600   */\n      0x00\n        /* \"#utility.yul\":596:597   */\n      dup1\n        /* \"#utility.yul\":589:601   */\n      revert\n        /* \"#utility.yul\":541:603   */\n    tag_242:\n        /* \"#utility.yul\":489:609   */\n      pop\n      jump\t// out\n        /* \"#utility.yul\":615:752   */\n    tag_189:\n        /* \"#utility.yul\":660:665   */\n      0x00\n        /* \"#utility.yul\":698:704   */\n      dup2\n        /* \"#utility.yul\":685:705   */\n      calldataload\n        /* \"#utility.yul\":676:705   */\n      swap1\n      pop\n        /* \"#utility.yul\":714:746   */\n      tag_244\n        /* \"#utility.yul\":740:745   */\n      dup2\n        /* \"#utility.yul\":714:746   */\n      tag_188\n      jump\t// in\n    tag_244:\n        /* \"#utility.yul\":615:752   */\n      swap3\n      swap2\n      pop\n      pop\n      jump\t// out\n        /* \"#utility.yul\":758:1085   */\n    tag_24:\n        /* \"#utility.yul\":816:822   */\n      0x00\n        /* \"#utility.yul\":865:867   */\n      0x20\n        /* \"#utility.yul\":853:862   */\n      dup3\n        /* \"#utility.yul\":844:851   */\n      dup5\n        /* \"#utility.yul\":840:863   */\n      sub\n        /* \"#utility.yul\":836:868   */\n      slt\n        /* \"#utility.yul\":833:952   */\n      iszero\n      tag_246\n      jumpi\n        /* \"#utility.yul\":871:950   */\n      tag_247\n      tag_185\n      jump\t// in\n    tag_247:\n        /* \"#utility.yul\":833:952   */\n    tag_246:\n        /* \"#utility.yul\":991:992   */\n      0x00\n        /* \"#utility.yul\":1016:1068   */\n      tag_248\n        /* \"#utility.yul\":1060:1067   */\n      dup5\n        /* \"#utility.yul\":1051:1057   */\n      dup3\n        /* \"#utility.yul\":1040:1049   */\n      dup6\n        /* \"#utility.yul\":1036:1058   */\n      add\n        /* \"#utility.yul\":1016:1068   */\n      tag_189\n      jump\t// in\n    tag_248:\n        /* \"#utility.yul\":1006:1068   */\n      swap2\n      pop\n        /* \"#utility.yul\":962:1078   */\n      pop\n        /* \"#utility.yul\":758:1085   */\n      swap3\n      swap2\n      pop\n      pop\n      jump\t// out\n        /* \"#utility.yul\":1091:1181   */\n    tag_190:\n        /* \"#utility.yul\":1125:1132   */\n      0x00\n        /* \"#utility.yul\":1168:1173   */\n      dup2\n        /* \"#utility.yul\":1161:1174   */\n      iszero\n        /* \"#utility.yul\":1154:1175   */\n      iszero\n        /* \"#utility.yul\":1143:1175   */\n      swap1\n      pop\n        /* \"#utility.yul\":1091:1181   */\n      swap2\n      swap1\n      pop\n      jump\t// out\n        /* \"#utility.yul\":1187:1296   */\n    tag_191:\n        /* \"#utility.yul\":1268:1289   */\n      tag_251\n        /* \"#utility.yul\":1283:1288   */\n      dup2\n        /* \"#utility.yul\":1268:1289   */\n      tag_190\n      jump\t// in\n    tag_251:\n        /* \"#utility.yul\":1263:1266   */\n      dup3\n        /* \"#utility.yul\":1256:1290   */\n      mstore\n        /* \"#utility.yul\":1187:1296   */\n      pop\n      pop\n      jump\t// out\n        /* \"#utility.yul\":1302:1512   */\n    tag_27:\n        /* \"#utility.yul\":1389:1393   */\n      0x00\n        /* \"#utility.yul\":1427:1429   */\n      0x20\n        /* \"#utility.yul\":1416:1425   */\n      dup3\n        /* \"#utility.yul\":1412:1430   */\n      add\n        /* \"#utility.yul\":1404:1430   */\n      swap1\n      pop\n        /* \"#utility.yul\":1440:1505   */\n      tag_253\n        /* \"#utility.yul\":1502:1503   */\n      0x00\n        /* \"#utility.yul\":1491:1500   */\n      dup4\n        /* \"#utility.yul\":1487:1504   */\n      add\n        /* \"#utility.yul\":1478:1484   */\n      dup5\n        /* \"#utility.yul\":1440:1505   */\n      tag_191\n      jump\t// in\n    tag_253:\n        /* \"#utility.yul\":1302:1512   */\n      swap3\n      swap2\n      pop\n      pop\n      jump\t// out\n        /* \"#utility.yul\":1518:1595   */\n    tag_192:\n        /* \"#utility.yul\":1555:1562   */\n      0x00\n        /* \"#utility.yul\":1584:1589   */\n      dup2\n        /* \"#utility.yul\":1573:1589   */\n      swap1\n      pop\n        /* \"#utility.yul\":1518:1595   */\n      swap2\n      swap1\n      pop\n      jump\t// out\n        /* \"#utility.yul\":1601:1723   */\n    tag_193:\n        /* \"#utility.yul\":1674:1698   */\n      tag_256\n        /* \"#utility.yul\":1692:1697   */\n      dup2\n        /* \"#utility.yul\":1674:1698   */\n      tag_192\n      jump\t// in\n    tag_256:\n        /* \"#utility.yul\":1667:1672   */\n      dup2\n        /* \"#utility.yul\":1664:1699   */\n      eq\n        /* \"#utility.yul\":1654:1717   */\n      tag_257\n      jumpi\n        /* \"#utility.yul\":1713:1714   */\n      0x00\n        /* \"#utility.yul\":1710:1711   */\n      dup1\n        /* \"#utility.yul\":1703:1715   */\n      revert\n        /* \"#utility.yul\":1654:1717   */\n    tag_257:\n        /* \"#utility.yul\":1601:1723   */\n      pop\n      jump\t// out\n        /* \"#utility.yul\":1729:1868   */\n    tag_194:\n        /* \"#utility.yul\":1775:1780   */\n      0x00\n        /* \"#utility.yul\":1813:1819   */\n      dup2\n        /* \"#utility.yul\":1800:1820   */\n      calldataload\n        /* \"#utility.yul\":1791:1820   */\n      swap1\n      pop\n        /* \"#utility.yul\":1829:1862   */\n      tag_259\n        /* \"#utility.yul\":1856:1861   */\n      dup2\n        /* \"#utility.yul\":1829:1862   */\n      tag_193\n      jump\t// in\n    tag_259:\n        /* \"#utility.yul\":1729:1868   */\n      swap3\n      swap2\n      pop\n      pop\n      jump\t// out\n        /* \"#utility.yul\":1874:2203   */\n    tag_30:\n        /* \"#utility.yul\":1933:1939   */\n      0x00\n        /* \"#utility.yul\":1982:1984   */\n      0x20\n        /* \"#utility.yul\":1970:1979   */\n      dup3\n        /* \"#utility.yul\":1961:1968   */\n      dup5\n        /* \"#utility.yul\":1957:1980   */\n      sub\n        /* \"#utility.yul\":1953:1985   */\n      slt\n        /* \"#utility.yul\":1950:2069   */\n      iszero\n      tag_261\n      jumpi\n        /* \"#utility.yul\":1988:2067   */\n      tag_262\n      tag_185\n      jump\t// in\n    tag_262:\n        /* \"#utility.yul\":1950:2069   */\n    tag_261:\n        /* \"#utility.yul\":2108:2109   */\n      0x00\n        /* \"#utility.yul\":2133:2186   */\n      tag_263\n        /* \"#utility.yul\":2178:2185   */\n      dup5\n        /* \"#utility.yul\":2169:2175   */\n      dup3\n        /* \"#utility.yul\":2158:2167   */\n      dup6\n        /* \"#utility.yul\":2154:2176   */\n      add\n        /* \"#utility.yul\":2133:2186   */\n      tag_194\n      jump\t// in\n    tag_263:\n        /* \"#utility.yul\":2123:2186   */\n      swap2\n      pop\n        /* \"#utility.yul\":2079:2196   */\n      pop\n        /* \"#utility.yul\":1874:2203   */\n      swap3\n      swap2\n      pop\n      pop\n      jump\t// out\n        /* \"#utility.yul\":2209:2335   */\n    tag_195:\n        /* \"#utility.yul\":2246:2253   */\n      0x00\n        /* \"#utility.yul\":2286:2328   */\n      0xffffffffffffffffffffffffffffffffffffffff\n        /* \"#utility.yul\":2279:2284   */\n      dup3\n        /* \"#utility.yul\":2275:2329   */\n      and\n        /* \"#utility.yul\":2264:2329   */\n      swap1\n      pop\n        /* \"#utility.yul\":2209:2335   */\n      swap2\n      swap1\n      pop\n      jump\t// out\n        /* \"#utility.yul\":2341:2437   */\n    tag_196:\n        /* \"#utility.yul\":2378:2385   */\n      0x00\n        /* \"#utility.yul\":2407:2431   */\n      tag_266\n        /* \"#utility.yul\":2425:2430   */\n      dup3\n        /* \"#utility.yul\":2407:2431   */\n      tag_195\n      jump\t// in\n    tag_266:\n        /* \"#utility.yul\":2396:2431   */\n      swap1\n      pop\n        /* \"#utility.yul\":2341:2437   */\n      swap2\n      swap1\n      pop\n      jump\t// out\n        /* \"#utility.yul\":2443:2561   */\n    tag_197:\n        /* \"#utility.yul\":2530:2554   */\n      tag_268\n        /* \"#utility.yul\":2548:2553   */\n      dup2\n        /* \"#utility.yul\":2530:2554   */\n      tag_196\n      jump\t// in\n    tag_268:\n        /* \"#utility.yul\":2525:2528   */\n      dup3\n        /* \"#utility.yul\":2518:2555   */\n      mstore\n        /* \"#utility.yul\":2443:2561   */\n      pop\n      pop\n      jump\t// out\n        /* \"#utility.yul\":2567:2789   */\n    tag_33:\n        /* \"#utility.yul\":2660:2664   */\n      0x00\n        /* \"#utility.yul\":2698:2700   */\n      0x20\n        /* \"#utility.yul\":2687:2696   */\n      dup3\n        /* \"#utility.yul\":2683:2701   */\n      add\n        /* \"#utility.yul\":2675:2701   */\n      swap1\n      pop\n        /* \"#utility.yul\":2711:2782   */\n      tag_270\n        /* \"#utility.yul\":2779:2780   */\n      0x00\n        /* \"#utility.yul\":2768:2777   */\n      dup4\n        /* \"#utility.yul\":2764:2781   */\n      add\n        /* \"#utility.yul\":2755:2761   */\n      dup5\n        /* \"#utility.yul\":2711:2782   */\n      tag_197\n      jump\t// in\n    tag_270:\n        /* \"#utility.yul\":2567:2789   */\n      swap3\n      swap2\n      pop\n      pop\n      jump\t// out\n        /* \"#utility.yul\":2795:2917   */\n    tag_198:\n        /* \"#utility.yul\":2868:2892   */\n      tag_272\n        /* \"#utility.yul\":2886:2891   */\n      dup2\n        /* \"#utility.yul\":2868:2892   */\n      tag_196\n      jump\t// in\n    tag_272:\n        /* \"#utility.yul\":2861:2866   */\n      dup2\n        /* \"#utility.yul\":2858:2893   */\n      eq\n        /* \"#utility.yul\":2848:2911   */\n      tag_273\n      jumpi\n        /* \"#utility.yul\":2907:2908   */\n      0x00\n        /* \"#utility.yul\":2904:2905   */\n      dup1\n        /* \"#utility.yul\":2897:2909   */\n      revert\n        /* \"#utility.yul\":2848:2911   */\n    tag_273:\n        /* \"#utility.yul\":2795:2917   */\n      pop\n      jump\t// out\n        /* \"#utility.yul\":2923:3062   */\n    tag_199:\n        /* \"#utility.yul\":2969:2974   */\n      0x00\n        /* \"#utility.yul\":3007:3013   */\n      dup2\n        /* \"#utility.yul\":2994:3014   */\n      calldataload\n        /* \"#utility.yul\":2985:3014   */\n      swap1\n      pop\n        /* \"#utility.yul\":3023:3056   */\n      tag_275\n        /* \"#utility.yul\":3050:3055   */\n      dup2\n        /* \"#utility.yul\":3023:3056   */\n      tag_198\n      jump\t// in\n    tag_275:\n        /* \"#utility.yul\":2923:3062   */\n      swap3\n      swap2\n      pop\n      pop\n      jump\t// out\n        /* \"#utility.yul\":3068:3542   */\n    tag_36:\n        /* \"#utility.yul\":3136:3142   */\n      0x00\n        /* \"#utility.yul\":3144:3150   */\n      dup1\n        /* \"#utility.yul\":3193:3195   */\n      0x40\n        /* \"#utility.yul\":3181:3190   */\n      dup4\n        /* \"#utility.yul\":3172:3179   */\n      dup6\n        /* \"#utility.yul\":3168:3191   */\n      sub\n        /* \"#utility.yul\":3164:3196   */\n      slt\n        /* \"#utility.yul\":3161:3280   */\n      iszero\n      tag_277\n      jumpi\n        /* \"#utility.yul\":3199:3278   */\n      tag_278\n      tag_185\n      jump\t// in\n    tag_278:\n        /* \"#utility.yul\":3161:3280   */\n    tag_277:\n        /* \"#utility.yul\":3319:3320   */\n      0x00\n        /* \"#utility.yul\":3344:3397   */\n      tag_279\n        /* \"#utility.yul\":3389:3396   */\n      dup6\n        /* \"#utility.yul\":3380:3386   */\n      dup3\n        /* \"#utility.yul\":3369:3378   */\n      dup7\n        /* \"#utility.yul\":3365:3387   */\n      add\n        /* \"#utility.yul\":3344:3397   */\n      tag_199\n      jump\t// in\n    tag_279:\n        /* \"#utility.yul\":3334:3397   */\n      swap3\n      pop\n        /* \"#utility.yul\":3290:3407   */\n      pop\n        /* \"#utility.yul\":3446:3448   */\n      0x20\n        /* \"#utility.yul\":3472:3525   */\n      tag_280\n        /* \"#utility.yul\":3517:3524   */\n      dup6\n        /* \"#utility.yul\":3508:3514   */\n      dup3\n        /* \"#utility.yul\":3497:3506   */\n      dup7\n        /* \"#utility.yul\":3493:3515   */\n      add\n        /* \"#utility.yul\":3472:3525   */\n      tag_194\n      jump\t// in\n    tag_280:\n        /* \"#utility.yul\":3462:3525   */\n      swap2\n      pop\n        /* \"#utility.yul\":3417:3535   */\n      pop\n        /* \"#utility.yul\":3068:3542   */\n      swap3\n      pop\n      swap3\n      swap1\n      pop\n      jump\t// out\n        /* \"#utility.yul\":3548:4167   */\n    tag_42:\n        /* \"#utility.yul\":3625:3631   */\n      0x00\n        /* \"#utility.yul\":3633:3639   */\n      dup1\n        /* \"#utility.yul\":3641:3647   */\n      0x00\n        /* \"#utility.yul\":3690:3692   */\n      0x60\n        /* \"#utility.yul\":3678:3687   */\n      dup5\n        /* \"#utility.yul\":3669:3676   */\n      dup7\n        /* \"#utility.yul\":3665:3688   */\n      sub\n        /* \"#utility.yul\":3661:3693   */\n      slt\n        /* \"#utility.yul\":3658:3777   */\n      iszero\n      tag_282\n      jumpi\n        /* \"#utility.yul\":3696:3775   */\n      tag_283\n      tag_185\n      jump\t// in\n    tag_283:\n        /* \"#utility.yul\":3658:3777   */\n    tag_282:\n        /* \"#utility.yul\":3816:3817   */\n      0x00\n        /* \"#utility.yul\":3841:3894   */\n      tag_284\n        /* \"#utility.yul\":3886:3893   */\n      dup7\n        /* \"#utility.yul\":3877:3883   */\n      dup3\n        /* \"#utility.yul\":3866:3875   */\n      dup8\n        /* \"#utility.yul\":3862:3884   */\n      add\n        /* \"#utility.yul\":3841:3894   */\n      tag_199\n      jump\t// in\n    tag_284:\n        /* \"#utility.yul\":3831:3894   */\n      swap4\n      pop\n        /* \"#utility.yul\":3787:3904   */\n      pop\n        /* \"#utility.yul\":3943:3945   */\n      0x20\n        /* \"#utility.yul\":3969:4022   */\n      tag_285\n        /* \"#utility.yul\":4014:4021   */\n      dup7\n        /* \"#utility.yul\":4005:4011   */\n      dup3\n        /* \"#utility.yul\":3994:4003   */\n      dup8\n        /* \"#utility.yul\":3990:4012   */\n      add\n        /* \"#utility.yul\":3969:4022   */\n      tag_199\n      jump\t// in\n    tag_285:\n        /* \"#utility.yul\":3959:4022   */\n      swap3\n      pop\n        /* \"#utility.yul\":3914:4032   */\n      pop\n        /* \"#utility.yul\":4071:4073   */\n      0x40\n        /* \"#utility.yul\":4097:4150   */\n      tag_286\n        /* \"#utility.yul\":4142:4149   */\n      dup7\n        /* \"#utility.yul\":4133:4139   */\n      dup3\n        /* \"#utility.yul\":4122:4131   */\n      dup8\n        /* \"#utility.yul\":4118:4140   */\n      add\n        /* \"#utility.yul\":4097:4150   */\n      tag_194\n      jump\t// in\n    tag_286:\n        /* \"#utility.yul\":4087:4150   */\n      swap2\n      pop\n        /* \"#utility.yul\":4042:4160   */\n      pop\n        /* \"#utility.yul\":3548:4167   */\n      swap3\n      pop\n      swap3\n      pop\n      swap3\n      jump\t// out\n        /* \"#utility.yul\":4173:4502   */\n    tag_53:\n        /* \"#utility.yul\":4232:4238   */\n      0x00\n        /* \"#utility.yul\":4281:4283   */\n      0x20\n        /* \"#utility.yul\":4269:4278   */\n      dup3\n        /* \"#utility.yul\":4260:4267   */\n      dup5\n        /* \"#utility.yul\":4256:4279   */\n      sub\n        /* \"#utility.yul\":4252:4284   */\n      slt\n        /* \"#utility.yul\":4249:4368   */\n      iszero\n      tag_288\n      jumpi\n        /* \"#utility.yul\":4287:4366   */\n      tag_289\n      tag_185\n      jump\t// in\n    tag_289:\n        /* \"#utility.yul\":4249:4368   */\n    tag_288:\n        /* \"#utility.yul\":4407:4408   */\n      0x00\n        /* \"#utility.yul\":4432:4485   */\n      tag_290\n        /* \"#utility.yul\":4477:4484   */\n      dup5\n        /* \"#utility.yul\":4468:4474   */\n      dup3\n        /* \"#utility.yul\":4457:4466   */\n      dup6\n        /* \"#utility.yul\":4453:4475   */\n      add\n        /* \"#utility.yul\":4432:4485   */\n      tag_199\n      jump\t// in\n    tag_290:\n        /* \"#utility.yul\":4422:4485   */\n      swap2\n      pop\n        /* \"#utility.yul\":4378:4495   */\n      pop\n        /* \"#utility.yul\":4173:4502   */\n      swap3\n      swap2\n      pop\n      pop\n      jump\t// out\n        /* \"#utility.yul\":4508:4626   */\n    tag_200:\n        /* \"#utility.yul\":4595:4619   */\n      tag_292\n        /* \"#utility.yul\":4613:4618   */\n      dup2\n        /* \"#utility.yul\":4595:4619   */\n      tag_192\n      jump\t// in\n    tag_292:\n        /* \"#utility.yul\":4590:4593   */\n      dup3\n        /* \"#utility.yul\":4583:4620   */\n      mstore\n        /* \"#utility.yul\":4508:4626   */\n      pop\n      pop\n      jump\t// out\n        /* \"#utility.yul\":4632:4854   */\n    tag_56:\n        /* \"#utility.yul\":4725:4729   */\n      0x00\n        /* \"#utility.yul\":4763:4765   */\n      0x20\n        /* \"#utility.yul\":4752:4761   */\n      dup3\n        /* \"#utility.yul\":4748:4766   */\n      add\n        /* \"#utility.yul\":4740:4766   */\n      swap1\n      pop\n        /* \"#utility.yul\":4776:4847   */\n      tag_294\n        /* \"#utility.yul\":4844:4845   */\n      0x00\n        /* \"#utility.yul\":4833:4842   */\n      dup4\n        /* \"#utility.yul\":4829:4846   */\n      add\n        /* \"#utility.yul\":4820:4826   */\n      dup5\n        /* \"#utility.yul\":4776:4847   */\n      tag_200\n      jump\t// in\n    tag_294:\n        /* \"#utility.yul\":4632:4854   */\n      swap3\n      swap2\n      pop\n      pop\n      jump\t// out\n        /* \"#utility.yul\":4860:5334   */\n    tag_59:\n        /* \"#utility.yul\":4928:4934   */\n      0x00\n        /* \"#utility.yul\":4936:4942   */\n      dup1\n        /* \"#utility.yul\":4985:4987   */\n      0x40\n        /* \"#utility.yul\":4973:4982   */\n      dup4\n        /* \"#utility.yul\":4964:4971   */\n      dup6\n        /* \"#utility.yul\":4960:4983   */\n      sub\n        /* \"#utility.yul\":4956:4988   */\n      slt\n        /* \"#utility.yul\":4953:5072   */\n      iszero\n      tag_296\n      jumpi\n        /* \"#utility.yul\":4991:5070   */\n      tag_297\n      tag_185\n      jump\t// in\n    tag_297:\n        /* \"#utility.yul\":4953:5072   */\n    tag_296:\n        /* \"#utility.yul\":5111:5112   */\n      0x00\n        /* \"#utility.yul\":5136:5189   */\n      tag_298\n        /* \"#utility.yul\":5181:5188   */\n      dup6\n        /* \"#utility.yul\":5172:5178   */\n      dup3\n        /* \"#utility.yul\":5161:5170   */\n      dup7\n        /* \"#utility.yul\":5157:5179   */\n      add\n        /* \"#utility.yul\":5136:5189   */\n      tag_194\n      jump\t// in\n    tag_298:\n        /* \"#utility.yul\":5126:5189   */\n      swap3\n      pop\n        /* \"#utility.yul\":5082:5199   */\n      pop\n        /* \"#utility.yul\":5238:5240   */\n      0x20\n        /* \"#utility.yul\":5264:5317   */\n      tag_299\n        /* \"#utility.yul\":5309:5316   */\n      dup6\n        /* \"#utility.yul\":5300:5306   */\n      dup3\n        /* \"#utility.yul\":5289:5298   */\n      dup7\n        /* \"#utility.yul\":5285:5307   */\n      add\n        /* \"#utility.yul\":5264:5317   */\n      tag_199\n      jump\t// in\n    tag_299:\n        /* \"#utility.yul\":5254:5317   */\n      swap2\n      pop\n        /* \"#utility.yul\":5209:5327   */\n      pop\n        /* \"#utility.yul\":4860:5334   */\n      swap3\n      pop\n      swap3\n      swap1\n      pop\n      jump\t// out\n        /* \"#utility.yul\":5340:5456   */\n    tag_201:\n        /* \"#utility.yul\":5410:5431   */\n      tag_301\n        /* \"#utility.yul\":5425:5430   */\n      dup2\n        /* \"#utility.yul\":5410:5431   */\n      tag_190\n      jump\t// in\n    tag_301:\n        /* \"#utility.yul\":5403:5408   */\n      dup2\n        /* \"#utility.yul\":5400:5432   */\n      eq\n        /* \"#utility.yul\":5390:5450   */\n      tag_302\n      jumpi\n        /* \"#utility.yul\":5446:5447   */\n      0x00\n        /* \"#utility.yul\":5443:5444   */\n      dup1\n        /* \"#utility.yul\":5436:5448   */\n      revert\n        /* \"#utility.yul\":5390:5450   */\n    tag_302:\n        /* \"#utility.yul\":5340:5456   */\n      pop\n      jump\t// out\n        /* \"#utility.yul\":5462:5595   */\n    tag_202:\n        /* \"#utility.yul\":5505:5510   */\n      0x00\n        /* \"#utility.yul\":5543:5549   */\n      dup2\n        /* \"#utility.yul\":5530:5550   */\n      calldataload\n        /* \"#utility.yul\":5521:5550   */\n      swap1\n      pop\n        /* \"#utility.yul\":5559:5589   */\n      tag_304\n        /* \"#utility.yul\":5583:5588   */\n      dup2\n        /* \"#utility.yul\":5559:5589   */\n      tag_201\n      jump\t// in\n    tag_304:\n        /* \"#utility.yul\":5462:5595   */\n      swap3\n      swap2\n      pop\n      pop\n      jump\t// out\n        /* \"#utility.yul\":5601:6069   */\n    tag_70:\n        /* \"#utility.yul\":5666:5672   */\n      0x00\n        /* \"#utility.yul\":5674:5680   */\n      dup1\n        /* \"#utility.yul\":5723:5725   */\n      0x40\n        /* \"#utility.yul\":5711:5720   */\n      dup4\n        /* \"#utility.yul\":5702:5709   */\n      dup6\n        /* \"#utility.yul\":5698:5721   */\n      sub\n        /* \"#utility.yul\":5694:5726   */\n      slt\n        /* \"#utility.yul\":5691:5810   */\n      iszero\n      tag_306\n      jumpi\n        /* \"#utility.yul\":5729:5808   */\n      tag_307\n      tag_185\n      jump\t// in\n    tag_307:\n        /* \"#utility.yul\":5691:5810   */\n    tag_306:\n        /* \"#utility.yul\":5849:5850   */\n      0x00\n        /* \"#utility.yul\":5874:5927   */\n      tag_308\n        /* \"#utility.yul\":5919:5926   */\n      dup6\n        /* \"#utility.yul\":5910:5916   */\n      dup3\n        /* \"#utility.yul\":5899:5908   */\n      dup7\n        /* \"#utility.yul\":5895:5917   */\n      add\n        /* \"#utility.yul\":5874:5927   */\n      tag_199\n      jump\t// in\n    tag_308:\n        /* \"#utility.yul\":5864:5927   */\n      swap3\n      pop\n        /* \"#utility.yul\":5820:5937   */\n      pop\n        /* \"#utility.yul\":5976:5978   */\n      0x20\n        /* \"#utility.yul\":6002:6052   */\n      tag_309\n        /* \"#utility.yul\":6044:6051   */\n      dup6\n        /* \"#utility.yul\":6035:6041   */\n      dup3\n        /* \"#utility.yul\":6024:6033   */\n      dup7\n        /* \"#utility.yul\":6020:6042   */\n      add\n        /* \"#utility.yul\":6002:6052   */\n      tag_202\n      jump\t// in\n    tag_309:\n        /* \"#utility.yul\":5992:6052   */\n      swap2\n      pop\n        /* \"#utility.yul\":5947:6062   */\n      pop\n        /* \"#utility.yul\":5601:6069   */\n      swap3\n      pop\n      swap3\n      swap1\n      pop\n      jump\t// out\n        /* \"#utility.yul\":6075:6192   */\n    tag_203:\n        /* \"#utility.yul\":6184:6185   */\n      0x00\n        /* \"#utility.yul\":6181:6182   */\n      dup1\n        /* \"#utility.yul\":6174:6186   */\n      revert\n        /* \"#utility.yul\":6198:6315   */\n    tag_204:\n        /* \"#utility.yul\":6307:6308   */\n      0x00\n        /* \"#utility.yul\":6304:6305   */\n      dup1\n        /* \"#utility.yul\":6297:6309   */\n      revert\n        /* \"#utility.yul\":6321:6438   */\n    tag_205:\n        /* \"#utility.yul\":6430:6431   */\n      0x00\n        /* \"#utility.yul\":6427:6428   */\n      dup1\n        /* \"#utility.yul\":6420:6432   */\n      revert\n        /* \"#utility.yul\":6457:7009   */\n    tag_206:\n        /* \"#utility.yul\":6514:6522   */\n      0x00\n        /* \"#utility.yul\":6524:6530   */\n      dup1\n        /* \"#utility.yul\":6574:6577   */\n      dup4\n        /* \"#utility.yul\":6567:6571   */\n      0x1f\n        /* \"#utility.yul\":6559:6565   */\n      dup5\n        /* \"#utility.yul\":6555:6572   */\n      add\n        /* \"#utility.yul\":6551:6578   */\n      slt\n        /* \"#utility.yul\":6541:6663   */\n      tag_314\n      jumpi\n        /* \"#utility.yul\":6582:6661   */\n      tag_315\n      tag_203\n      jump\t// in\n    tag_315:\n        /* \"#utility.yul\":6541:6663   */\n    tag_314:\n        /* \"#utility.yul\":6695:6701   */\n      dup3\n        /* \"#utility.yul\":6682:6702   */\n      calldataload\n        /* \"#utility.yul\":6672:6702   */\n      swap1\n      pop\n        /* \"#utility.yul\":6725:6743   */\n      0xffffffffffffffff\n        /* \"#utility.yul\":6717:6723   */\n      dup2\n        /* \"#utility.yul\":6714:6744   */\n      gt\n        /* \"#utility.yul\":6711:6828   */\n      iszero\n      tag_316\n      jumpi\n        /* \"#utility.yul\":6747:6826   */\n      tag_317\n      tag_204\n      jump\t// in\n    tag_317:\n        /* \"#utility.yul\":6711:6828   */\n    tag_316:\n        /* \"#utility.yul\":6861:6865   */\n      0x20\n        /* \"#utility.yul\":6853:6859   */\n      dup4\n        /* \"#utility.yul\":6849:6866   */\n      add\n        /* \"#utility.yul\":6837:6866   */\n      swap2\n      pop\n        /* \"#utility.yul\":6915:6918   */\n      dup4\n        /* \"#utility.yul\":6907:6911   */\n      0x01\n        /* \"#utility.yul\":6899:6905   */\n      dup3\n        /* \"#utility.yul\":6895:6912   */\n      mul\n        /* \"#utility.yul\":6885:6893   */\n      dup4\n        /* \"#utility.yul\":6881:6913   */\n      add\n        /* \"#utility.yul\":6878:6919   */\n      gt\n        /* \"#utility.yul\":6875:7003   */\n      iszero\n      tag_318\n      jumpi\n        /* \"#utility.yul\":6922:7001   */\n      tag_319\n      tag_205\n      jump\t// in\n    tag_319:\n        /* \"#utility.yul\":6875:7003   */\n    tag_318:\n        /* \"#utility.yul\":6457:7009   */\n      swap3\n      pop\n      swap3\n      swap1\n      pop\n      jump\t// out\n        /* \"#utility.yul\":7015:7978   */\n    tag_74:\n        /* \"#utility.yul\":7112:7118   */\n      0x00\n        /* \"#utility.yul\":7120:7126   */\n      dup1\n        /* \"#utility.yul\":7128:7134   */\n      0x00\n        /* \"#utility.yul\":7136:7142   */\n      dup1\n        /* \"#utility.yul\":7144:7150   */\n      0x00\n        /* \"#utility.yul\":7193:7196   */\n      0x80\n        /* \"#utility.yul\":7181:7190   */\n      dup7\n        /* \"#utility.yul\":7172:7179   */\n      dup9\n        /* \"#utility.yul\":7168:7191   */\n      sub\n        /* \"#utility.yul\":7164:7197   */\n      slt\n        /* \"#utility.yul\":7161:7281   */\n      iszero\n      tag_321\n      jumpi\n        /* \"#utility.yul\":7200:7279   */\n      tag_322\n      tag_185\n      jump\t// in\n    tag_322:\n        /* \"#utility.yul\":7161:7281   */\n    tag_321:\n        /* \"#utility.yul\":7320:7321   */\n      0x00\n        /* \"#utility.yul\":7345:7398   */\n      tag_323\n        /* \"#utility.yul\":7390:7397   */\n      dup9\n        /* \"#utility.yul\":7381:7387   */\n      dup3\n        /* \"#utility.yul\":7370:7379   */\n      dup10\n        /* \"#utility.yul\":7366:7388   */\n      add\n        /* \"#utility.yul\":7345:7398   */\n      tag_199\n      jump\t// in\n    tag_323:\n        /* \"#utility.yul\":7335:7398   */\n      swap6\n      pop\n        /* \"#utility.yul\":7291:7408   */\n      pop\n        /* \"#utility.yul\":7447:7449   */\n      0x20\n        /* \"#utility.yul\":7473:7526   */\n      tag_324\n        /* \"#utility.yul\":7518:7525   */\n      dup9\n        /* \"#utility.yul\":7509:7515   */\n      dup3\n        /* \"#utility.yul\":7498:7507   */\n      dup10\n        /* \"#utility.yul\":7494:7516   */\n      add\n        /* \"#utility.yul\":7473:7526   */\n      tag_199\n      jump\t// in\n    tag_324:\n        /* \"#utility.yul\":7463:7526   */\n      swap5\n      pop\n        /* \"#utility.yul\":7418:7536   */\n      pop\n        /* \"#utility.yul\":7575:7577   */\n      0x40\n        /* \"#utility.yul\":7601:7654   */\n      tag_325\n        /* \"#utility.yul\":7646:7653   */\n      dup9\n        /* \"#utility.yul\":7637:7643   */\n      dup3\n        /* \"#utility.yul\":7626:7635   */\n      dup10\n        /* \"#utility.yul\":7622:7644   */\n      add\n        /* \"#utility.yul\":7601:7654   */\n      tag_194\n      jump\t// in\n    tag_325:\n        /* \"#utility.yul\":7591:7654   */\n      swap4\n      pop\n        /* \"#utility.yul\":7546:7664   */\n      pop\n        /* \"#utility.yul\":7731:7733   */\n      0x60\n        /* \"#utility.yul\":7720:7729   */\n      dup7\n        /* \"#utility.yul\":7716:7734   */\n      add\n        /* \"#utility.yul\":7703:7735   */\n      calldataload\n        /* \"#utility.yul\":7762:7780   */\n      0xffffffffffffffff\n        /* \"#utility.yul\":7754:7760   */\n      dup2\n        /* \"#utility.yul\":7751:7781   */\n      gt\n        /* \"#utility.yul\":7748:7865   */\n      iszero\n      tag_326\n      jumpi\n        /* \"#utility.yul\":7784:7863   */\n      tag_327\n      tag_186\n      jump\t// in\n    tag_327:\n        /* \"#utility.yul\":7748:7865   */\n    tag_326:\n        /* \"#utility.yul\":7897:7961   */\n      tag_328\n        /* \"#utility.yul\":7953:7960   */\n      dup9\n        /* \"#utility.yul\":7944:7950   */\n      dup3\n        /* \"#utility.yul\":7933:7942   */\n      dup10\n        /* \"#utility.yul\":7929:7951   */\n      add\n        /* \"#utility.yul\":7897:7961   */\n      tag_206\n      jump\t// in\n    tag_328:\n        /* \"#utility.yul\":7879:7961   */\n      swap3\n      pop\n      swap3\n      pop\n        /* \"#utility.yul\":7674:7971   */\n      pop\n        /* \"#utility.yul\":7015:7978   */\n      swap3\n      swap6\n      pop\n      swap3\n      swap6\n      swap1\n      swap4\n      pop\n      jump\t// out\n        /* \"#utility.yul\":7984:8603   */\n    tag_78:\n        /* \"#utility.yul\":8061:8067   */\n      0x00\n        /* \"#utility.yul\":8069:8075   */\n      dup1\n        /* \"#utility.yul\":8077:8083   */\n      0x00\n        /* \"#utility.yul\":8126:8128   */\n      0x60\n        /* \"#utility.yul\":8114:8123   */\n      dup5\n        /* \"#utility.yul\":8105:8112   */\n      dup7\n        /* \"#utility.yul\":8101:8124   */\n      sub\n        /* \"#utility.yul\":8097:8129   */\n      slt\n        /* \"#utility.yul\":8094:8213   */\n      iszero\n      tag_330\n      jumpi\n        /* \"#utility.yul\":8132:8211   */\n      tag_331\n      tag_185\n      jump\t// in\n    tag_331:\n        /* \"#utility.yul\":8094:8213   */\n    tag_330:\n        /* \"#utility.yul\":8252:8253   */\n      0x00\n        /* \"#utility.yul\":8277:8330   */\n      tag_332\n        /* \"#utility.yul\":8322:8329   */\n      dup7\n        /* \"#utility.yul\":8313:8319   */\n      dup3\n        /* \"#utility.yul\":8302:8311   */\n      dup8\n        /* \"#utility.yul\":8298:8320   */\n      add\n        /* \"#utility.yul\":8277:8330   */\n      tag_194\n      jump\t// in\n    tag_332:\n        /* \"#utility.yul\":8267:8330   */\n      swap4\n      pop\n        /* \"#utility.yul\":8223:8340   */\n      pop\n        /* \"#utility.yul\":8379:8381   */\n      0x20\n        /* \"#utility.yul\":8405:8458   */\n      tag_333\n        /* \"#utility.yul\":8450:8457   */\n      dup7\n        /* \"#utility.yul\":8441:8447   */\n      dup3\n        /* \"#utility.yul\":8430:8439   */\n      dup8\n        /* \"#utility.yul\":8426:8448   */\n      add\n        /* \"#utility.yul\":8405:8458   */\n      tag_199\n      jump\t// in\n    tag_333:\n        /* \"#utility.yul\":8395:8458   */\n      swap3\n      pop\n        /* \"#utility.yul\":8350:8468   */\n      pop\n        /* \"#utility.yul\":8507:8509   */\n      0x40\n        /* \"#utility.yul\":8533:8586   */\n      tag_334\n        /* \"#utility.yul\":8578:8585   */\n      dup7\n        /* \"#utility.yul\":8569:8575   */\n      dup3\n        /* \"#utility.yul\":8558:8567   */\n      dup8\n        /* \"#utility.yul\":8554:8576   */\n      add\n        /* \"#utility.yul\":8533:8586   */\n      tag_194\n      jump\t// in\n    tag_334:\n        /* \"#utility.yul\":8523:8586   */\n      swap2\n      pop\n        /* \"#utility.yul\":8478:8596   */\n      pop\n        /* \"#utility.yul\":7984:8603   */\n      swap3\n      pop\n      swap3\n      pop\n      swap3\n      jump\t// out\n        /* \"#utility.yul\":8609:9083   */\n    tag_82:\n        /* \"#utility.yul\":8677:8683   */\n      0x00\n        /* \"#utility.yul\":8685:8691   */\n      dup1\n        /* \"#utility.yul\":8734:8736   */\n      0x40\n        /* \"#utility.yul\":8722:8731   */\n      dup4\n        /* \"#utility.yul\":8713:8720   */\n      dup6\n        /* \"#utility.yul\":8709:8732   */\n      sub\n        /* \"#utility.yul\":8705:8737   */\n      slt\n        /* \"#utility.yul\":8702:8821   */\n      iszero\n      tag_336\n      jumpi\n        /* \"#utility.yul\":8740:8819   */\n      tag_337\n      tag_185\n      jump\t// in\n    tag_337:\n        /* \"#utility.yul\":8702:8821   */\n    tag_336:\n        /* \"#utility.yul\":8860:8861   */\n      0x00\n        /* \"#utility.yul\":8885:8938   */\n      tag_338\n        /* \"#utility.yul\":8930:8937   */\n      dup6\n        /* \"#utility.yul\":8921:8927   */\n      dup3\n        /* \"#utility.yul\":8910:8919   */\n      dup7\n        /* \"#utility.yul\":8906:8928   */\n      add\n        /* \"#utility.yul\":8885:8938   */\n      tag_199\n      jump\t// in\n    tag_338:\n        /* \"#utility.yul\":8875:8938   */\n      swap3\n      pop\n        /* \"#utility.yul\":8831:8948   */\n      pop\n        /* \"#utility.yul\":8987:8989   */\n      0x20\n        /* \"#utility.yul\":9013:9066   */\n      tag_339\n        /* \"#utility.yul\":9058:9065   */\n      dup6\n        /* \"#utility.yul\":9049:9055   */\n      dup3\n        /* \"#utility.yul\":9038:9047   */\n      dup7\n        /* \"#utility.yul\":9034:9056   */\n      add\n        /* \"#utility.yul\":9013:9066   */\n      tag_199\n      jump\t// in\n    tag_339:\n        /* \"#utility.yul\":9003:9066   */\n      swap2\n      pop\n        /* \"#utility.yul\":8958:9076   */\n      pop\n        /* \"#utility.yul\":8609:9083   */\n      swap3\n      pop\n      swap3\n      swap1\n      pop\n      jump\t// out\n        /* \"#utility.yul\":9089:9258   */\n    tag_207:\n        /* \"#utility.yul\":9173:9184   */\n      0x00\n        /* \"#utility.yul\":9207:9213   */\n      dup3\n        /* \"#utility.yul\":9202:9205   */\n      dup3\n        /* \"#utility.yul\":9195:9214   */\n      mstore\n        /* \"#utility.yul\":9247:9251   */\n      0x20\n        /* \"#utility.yul\":9242:9245   */\n      dup3\n        /* \"#utility.yul\":9238:9252   */\n      add\n        /* \"#utility.yul\":9223:9252   */\n      swap1\n      pop\n        /* \"#utility.yul\":9089:9258   */\n      swap3\n      swap2\n      pop\n      pop\n      jump\t// out\n        /* \"#utility.yul\":9264:9433   */\n    tag_208:\n        /* \"#utility.yul\":9404:9425   */\n      0x746f6b656e20646f65736e277420657869737400000000000000000000000000\n        /* \"#utility.yul\":9400:9401   */\n      0x00\n        /* \"#utility.yul\":9392:9398   */\n      dup3\n        /* \"#utility.yul\":9388:9402   */\n      add\n        /* \"#utility.yul\":9381:9426   */\n      mstore\n        /* \"#utility.yul\":9264:9433   */\n      pop\n      jump\t// out\n        /* \"#utility.yul\":9439:9805   */\n    tag_209:\n        /* \"#utility.yul\":9581:9584   */\n      0x00\n        /* \"#utility.yul\":9602:9669   */\n      tag_343\n        /* \"#utility.yul\":9666:9668   */\n      0x13\n        /* \"#utility.yul\":9661:9664   */\n      dup4\n        /* \"#utility.yul\":9602:9669   */\n      tag_207\n      jump\t// in\n    tag_343:\n        /* \"#utility.yul\":9595:9669   */\n      swap2\n      pop\n        /* \"#utility.yul\":9678:9771   */\n      tag_344\n        /* \"#utility.yul\":9767:9770   */\n      dup3\n        /* \"#utility.yul\":9678:9771   */\n      tag_208\n      jump\t// in\n    tag_344:\n        /* \"#utility.yul\":9796:9798   */\n      0x20\n        /* \"#utility.yul\":9791:9794   */\n      dup3\n        /* \"#utility.yul\":9787:9799   */\n      add\n        /* \"#utility.yul\":9780:9799   */\n      swap1\n      pop\n        /* \"#utility.yul\":9439:9805   */\n      swap2\n      swap1\n      pop\n      jump\t// out\n        /* \"#utility.yul\":9811:10230   */\n    tag_93:\n        /* \"#utility.yul\":9977:9981   */\n      0x00\n        /* \"#utility.yul\":10015:10017   */\n      0x20\n        /* \"#utility.yul\":10004:10013   */\n      dup3\n        /* \"#utility.yul\":10000:10018   */\n      add\n        /* \"#utility.yul\":9992:10018   */\n      swap1\n      pop\n        /* \"#utility.yul\":10064:10073   */\n      dup2\n        /* \"#utility.yul\":10058:10062   */\n      dup2\n        /* \"#utility.yul\":10054:10074   */\n      sub\n        /* \"#utility.yul\":10050:10051   */\n      0x00\n        /* \"#utility.yul\":10039:10048   */\n      dup4\n        /* \"#utility.yul\":10035:10052   */\n      add\n        /* \"#utility.yul\":10028:10075   */\n      mstore\n        /* \"#utility.yul\":10092:10223   */\n      tag_346\n        /* \"#utility.yul\":10218:10222   */\n      dup2\n        /* \"#utility.yul\":10092:10223   */\n      tag_209\n      jump\t// in\n    tag_346:\n        /* \"#utility.yul\":10084:10223   */\n      swap1\n      pop\n        /* \"#utility.yul\":9811:10230   */\n      swap2\n      swap1\n      pop\n      jump\t// out\n        /* \"#utility.yul\":10236:10400   */\n    tag_210:\n        /* \"#utility.yul\":10376:10392   */\n      0x6e6f7420617574686f72697a6564000000000000000000000000000000000000\n        /* \"#utility.yul\":10372:10373   */\n      0x00\n        /* \"#utility.yul\":10364:10370   */\n      dup3\n        /* \"#utility.yul\":10360:10374   */\n      add\n        /* \"#utility.yul\":10353:10393   */\n      mstore\n        /* \"#utility.yul\":10236:10400   */\n      pop\n      jump\t// out\n        /* \"#utility.yul\":10406:10772   */\n    tag_211:\n        /* \"#utility.yul\":10548:10551   */\n      0x00\n        /* \"#utility.yul\":10569:10636   */\n      tag_349\n        /* \"#utility.yul\":10633:10635   */\n      0x0e\n        /* \"#utility.yul\":10628:10631   */\n      dup4\n        /* \"#utility.yul\":10569:10636   */\n      tag_207\n      jump\t// in\n    tag_349:\n        /* \"#utility.yul\":10562:10636   */\n      swap2\n      pop\n        /* \"#utility.yul\":10645:10738   */\n      tag_350\n        /* \"#utility.yul\":10734:10737   */\n      dup3\n        /* \"#utility.yul\":10645:10738   */\n      tag_210\n      jump\t// in\n    tag_350:\n        /* \"#utility.yul\":10763:10765   */\n      0x20\n        /* \"#utility.yul\":10758:10761   */\n      dup3\n        /* \"#utility.yul\":10754:10766   */\n      add\n        /* \"#utility.yul\":10747:10766   */\n      swap1\n      pop\n        /* \"#utility.yul\":10406:10772   */\n      swap2\n      swap1\n      pop\n      jump\t// out\n        /* \"#utility.yul\":10778:11197   */\n    tag_98:\n        /* \"#utility.yul\":10944:10948   */\n      0x00\n        /* \"#utility.yul\":10982:10984   */\n      0x20\n        /* \"#utility.yul\":10971:10980   */\n      dup3\n        /* \"#utility.yul\":10967:10985   */\n      add\n        /* \"#utility.yul\":10959:10985   */\n      swap1\n      pop\n        /* \"#utility.yul\":11031:11040   */\n      dup2\n        /* \"#utility.yul\":11025:11029   */\n      dup2\n        /* \"#utility.yul\":11021:11041   */\n      sub\n        /* \"#utility.yul\":11017:11018   */\n      0x00\n        /* \"#utility.yul\":11006:11015   */\n      dup4\n        /* \"#utility.yul\":11002:11019   */\n      add\n        /* \"#utility.yul\":10995:11042   */\n      mstore\n        /* \"#utility.yul\":11059:11190   */\n      tag_352\n        /* \"#utility.yul\":11185:11189   */\n      dup2\n        /* \"#utility.yul\":11059:11190   */\n      tag_211\n      jump\t// in\n    tag_352:\n        /* \"#utility.yul\":11051:11190   */\n      swap1\n      pop\n        /* \"#utility.yul\":10778:11197   */\n      swap2\n      swap1\n      pop\n      jump\t// out\n        /* \"#utility.yul\":11203:11363   */\n    tag_212:\n        /* \"#utility.yul\":11343:11355   */\n      0x6f6e6c79206f776e657200000000000000000000000000000000000000000000\n        /* \"#utility.yul\":11339:11340   */\n      0x00\n        /* \"#utility.yul\":11331:11337   */\n      dup3\n        /* \"#utility.yul\":11327:11341   */\n      add\n        /* \"#utility.yul\":11320:11356   */\n      mstore\n        /* \"#utility.yul\":11203:11363   */\n      pop\n      jump\t// out\n        /* \"#utility.yul\":11369:11735   */\n    tag_213:\n        /* \"#utility.yul\":11511:11514   */\n      0x00\n        /* \"#utility.yul\":11532:11599   */\n      tag_355\n        /* \"#utility.yul\":11596:11598   */\n      0x0a\n        /* \"#utility.yul\":11591:11594   */\n      dup4\n        /* \"#utility.yul\":11532:11599   */\n      tag_207\n      jump\t// in\n    tag_355:\n        /* \"#utility.yul\":11525:11599   */\n      swap2\n      pop\n        /* \"#utility.yul\":11608:11701   */\n      tag_356\n        /* \"#utility.yul\":11697:11700   */\n      dup3\n        /* \"#utility.yul\":11608:11701   */\n      tag_212\n      jump\t// in\n    tag_356:\n        /* \"#utility.yul\":11726:11728   */\n      0x20\n        /* \"#utility.yul\":11721:11724   */\n      dup3\n        /* \"#utility.yul\":11717:11729   */\n      add\n        /* \"#utility.yul\":11710:11729   */\n      swap1\n      pop\n        /* \"#utility.yul\":11369:11735   */\n      swap2\n      swap1\n      pop\n      jump\t// out\n        /* \"#utility.yul\":11741:12160   */\n    tag_102:\n        /* \"#utility.yul\":11907:11911   */\n      0x00\n        /* \"#utility.yul\":11945:11947   */\n      0x20\n        /* \"#utility.yul\":11934:11943   */\n      dup3\n        /* \"#utility.yul\":11930:11948   */\n      add\n        /* \"#utility.yul\":11922:11948   */\n      swap1\n      pop\n        /* \"#utility.yul\":11994:12003   */\n      dup2\n        /* \"#utility.yul\":11988:11992   */\n      dup2\n        /* \"#utility.yul\":11984:12004   */\n      sub\n        /* \"#utility.yul\":11980:11981   */\n      0x00\n        /* \"#utility.yul\":11969:11978   */\n      dup4\n        /* \"#utility.yul\":11965:11982   */\n      add\n        /* \"#utility.yul\":11958:12005   */\n      mstore\n        /* \"#utility.yul\":12022:12153   */\n      tag_358\n        /* \"#utility.yul\":12148:12152   */\n      dup2\n        /* \"#utility.yul\":12022:12153   */\n      tag_213\n      jump\t// in\n    tag_358:\n        /* \"#utility.yul\":12014:12153   */\n      swap1\n      pop\n        /* \"#utility.yul\":11741:12160   */\n      swap2\n      swap1\n      pop\n      jump\t// out\n        /* \"#utility.yul\":12166:12346   */\n    tag_214:\n        /* \"#utility.yul\":12214:12291   */\n      0x4e487b7100000000000000000000000000000000000000000000000000000000\n        /* \"#utility.yul\":12211:12212   */\n      0x00\n        /* \"#utility.yul\":12204:12292   */\n      mstore\n        /* \"#utility.yul\":12311:12315   */\n      0x11\n        /* \"#utility.yul\":12308:12309   */\n      0x04\n        /* \"#utility.yul\":12301:12316   */\n      mstore\n        /* \"#utility.yul\":12335:12339   */\n      0x24\n        /* \"#utility.yul\":12332:12333   */\n      0x00\n        /* \"#utility.yul\":12325:12340   */\n      revert\n        /* \"#utility.yul\":12352:12543   */\n    tag_107:\n        /* \"#utility.yul\":12392:12395   */\n      0x00\n        /* \"#utility.yul\":12411:12431   */\n      tag_361\n        /* \"#utility.yul\":12429:12430   */\n      dup3\n        /* \"#utility.yul\":12411:12431   */\n      tag_192\n      jump\t// in\n    tag_361:\n        /* \"#utility.yul\":12406:12431   */\n      swap2\n      pop\n        /* \"#utility.yul\":12445:12465   */\n      tag_362\n        /* \"#utility.yul\":12463:12464   */\n      dup4\n        /* \"#utility.yul\":12445:12465   */\n      tag_192\n      jump\t// in\n    tag_362:\n        /* \"#utility.yul\":12440:12465   */\n      swap3\n      pop\n        /* \"#utility.yul\":12488:12489   */\n      dup3\n        /* \"#utility.yul\":12485:12486   */\n      dup3\n        /* \"#utility.yul\":12481:12490   */\n      add\n        /* \"#utility.yul\":12474:12490   */\n      swap1\n      pop\n        /* \"#utility.yul\":12509:12512   */\n      dup1\n        /* \"#utility.yul\":12506:12507   */\n      dup3\n        /* \"#utility.yul\":12503:12513   */\n      gt\n        /* \"#utility.yul\":12500:12536   */\n      iszero\n      tag_363\n      jumpi\n        /* \"#utility.yul\":12516:12534   */\n      tag_364\n      tag_214\n      jump\t// in\n    tag_364:\n        /* \"#utility.yul\":12500:12536   */\n    tag_363:\n        /* \"#utility.yul\":12352:12543   */\n      swap3\n      swap2\n      pop\n      pop\n      jump\t// out\n        /* \"#utility.yul\":12549:12712   */\n    tag_215:\n        /* \"#utility.yul\":12689:12704   */\n      0x66726f6d20213d206f776e657200000000000000000000000000000000000000\n        /* \"#utility.yul\":12685:12686   */\n      0x00\n        /* \"#utility.yul\":12677:12683   */\n      dup3\n        /* \"#utility.yul\":12673:12687   */\n      add\n        /* \"#utility.yul\":12666:12705   */\n      mstore\n        /* \"#utility.yul\":12549:12712   */\n      pop\n      jump\t// out\n        /* \"#utility.yul\":12718:13084   */\n    tag_216:\n        /* \"#utility.yul\":12860:12863   */\n      0x00\n        /* \"#utility.yul\":12881:12948   */\n      tag_367\n        /* \"#utility.yul\":12945:12947   */\n      0x0d\n        /* \"#utility.yul\":12940:12943   */\n      dup4\n        /* \"#utility.yul\":12881:12948   */\n      tag_207\n      jump\t// in\n    tag_367:\n        /* \"#utility.yul\":12874:12948   */\n      swap2\n      pop\n        /* \"#utility.yul\":12957:13050   */\n      tag_368\n        /* \"#utility.yul\":13046:13049   */\n      dup3\n        /* \"#utility.yul\":12957:13050   */\n      tag_215\n      jump\t// in\n    tag_368:\n        /* \"#utility.yul\":13075:13077   */\n      0x20\n        /* \"#utility.yul\":13070:13073   */\n      dup3\n        /* \"#utility.yul\":13066:13078   */\n      add\n        /* \"#utility.yul\":13059:13078   */\n      swap1\n      pop\n        /* \"#utility.yul\":12718:13084   */\n      swap2\n      swap1\n      pop\n      jump\t// out\n        /* \"#utility.yul\":13090:13509   */\n    tag_111:\n        /* \"#utility.yul\":13256:13260   */\n      0x00\n        /* \"#utility.yul\":13294:13296   */\n      0x20\n        /* \"#utility.yul\":13283:13292   */\n      dup3\n        /* \"#utility.yul\":13279:13297   */\n      add\n        /* \"#utility.yul\":13271:13297   */\n      swap1\n      pop\n        /* \"#utility.yul\":13343:13352   */\n      dup2\n        /* \"#utility.yul\":13337:13341   */\n      dup2\n        /* \"#utility.yul\":13333:13353   */\n      sub\n        /* \"#utility.yul\":13329:13330   */\n      0x00\n        /* \"#utility.yul\":13318:13327   */\n      dup4\n        /* \"#utility.yul\":13314:13331   */\n      add\n        /* \"#utility.yul\":13307:13354   */\n      mstore\n        /* \"#utility.yul\":13371:13502   */\n      tag_370\n        /* \"#utility.yul\":13497:13501   */\n      dup2\n        /* \"#utility.yul\":13371:13502   */\n      tag_216\n      jump\t// in\n    tag_370:\n        /* \"#utility.yul\":13363:13502   */\n      swap1\n      pop\n        /* \"#utility.yul\":13090:13509   */\n      swap2\n      swap1\n      pop\n      jump\t// out\n        /* \"#utility.yul\":13515:13689   */\n    tag_217:\n        /* \"#utility.yul\":13655:13681   */\n      0x7472616e7366657220746f207a65726f20616464726573730000000000000000\n        /* \"#utility.yul\":13651:13652   */\n      0x00\n        /* \"#utility.yul\":13643:13649   */\n      dup3\n        /* \"#utility.yul\":13639:13653   */\n      add\n        /* \"#utility.yul\":13632:13682   */\n      mstore\n        /* \"#utility.yul\":13515:13689   */\n      pop\n      jump\t// out\n        /* \"#utility.yul\":13695:14061   */\n    tag_218:\n        /* \"#utility.yul\":13837:13840   */\n      0x00\n        /* \"#utility.yul\":13858:13925   */\n      tag_373\n        /* \"#utility.yul\":13922:13924   */\n      0x18\n        /* \"#utility.yul\":13917:13920   */\n      dup4\n        /* \"#utility.yul\":13858:13925   */\n      tag_207\n      jump\t// in\n    tag_373:\n        /* \"#utility.yul\":13851:13925   */\n      swap2\n      pop\n        /* \"#utility.yul\":13934:14027   */\n      tag_374\n        /* \"#utility.yul\":14023:14026   */\n      dup3\n        /* \"#utility.yul\":13934:14027   */\n      tag_217\n      jump\t// in\n    tag_374:\n        /* \"#utility.yul\":14052:14054   */\n      0x20\n        /* \"#utility.yul\":14047:14050   */\n      dup3\n        /* \"#utility.yul\":14043:14055   */\n      add\n        /* \"#utility.yul\":14036:14055   */\n      swap1\n      pop\n        /* \"#utility.yul\":13695:14061   */\n      swap2\n      swap1\n      pop\n      jump\t// out\n        /* \"#utility.yul\":14067:14486   */\n    tag_114:\n        /* \"#utility.yul\":14233:14237   */\n      0x00\n        /* \"#utility.yul\":14271:14273   */\n      0x20\n        /* \"#utility.yul\":14260:14269   */\n      dup3\n        /* \"#utility.yul\":14256:14274   */\n      add\n        /* \"#utility.yul\":14248:14274   */\n      swap1\n      pop\n        /* \"#utility.yul\":14320:14329   */\n      dup2\n        /* \"#utility.yul\":14314:14318   */\n      dup2\n        /* \"#utility.yul\":14310:14330   */\n      sub\n        /* \"#utility.yul\":14306:14307   */\n      0x00\n        /* \"#utility.yul\":14295:14304   */\n      dup4\n        /* \"#utility.yul\":14291:14308   */\n      add\n        /* \"#utility.yul\":14284:14331   */\n      mstore\n        /* \"#utility.yul\":14348:14479   */\n      tag_376\n        /* \"#utility.yul\":14474:14478   */\n      dup2\n        /* \"#utility.yul\":14348:14479   */\n      tag_218\n      jump\t// in\n    tag_376:\n        /* \"#utility.yul\":14340:14479   */\n      swap1\n      pop\n        /* \"#utility.yul\":14067:14486   */\n      swap2\n      swap1\n      pop\n      jump\t// out\n        /* \"#utility.yul\":14492:14663   */\n    tag_120:\n        /* \"#utility.yul\":14531:14534   */\n      0x00\n        /* \"#utility.yul\":14554:14578   */\n      tag_378\n        /* \"#utility.yul\":14572:14577   */\n      dup3\n        /* \"#utility.yul\":14554:14578   */\n      tag_192\n      jump\t// in\n    tag_378:\n        /* \"#utility.yul\":14545:14578   */\n      swap2\n      pop\n        /* \"#utility.yul\":14600:14604   */\n      0x00\n        /* \"#utility.yul\":14593:14598   */\n      dup3\n        /* \"#utility.yul\":14590:14605   */\n      sub\n        /* \"#utility.yul\":14587:14628   */\n      tag_379\n      jumpi\n        /* \"#utility.yul\":14608:14626   */\n      tag_380\n      tag_214\n      jump\t// in\n    tag_380:\n        /* \"#utility.yul\":14587:14628   */\n    tag_379:\n        /* \"#utility.yul\":14655:14656   */\n      0x01\n        /* \"#utility.yul\":14648:14653   */\n      dup3\n        /* \"#utility.yul\":14644:14657   */\n      sub\n        /* \"#utility.yul\":14637:14657   */\n      swap1\n      pop\n        /* \"#utility.yul\":14492:14663   */\n      swap2\n      swap1\n      pop\n      jump\t// out\n        /* \"#utility.yul\":14669:14902   */\n    tag_122:\n        /* \"#utility.yul\":14708:14711   */\n      0x00\n        /* \"#utility.yul\":14731:14755   */\n      tag_382\n        /* \"#utility.yul\":14749:14754   */\n      dup3\n        /* \"#utility.yul\":14731:14755   */\n      tag_192\n      jump\t// in\n    tag_382:\n        /* \"#utility.yul\":14722:14755   */\n      swap2\n      pop\n        /* \"#utility.yul\":14777:14843   */\n      0xffffffffffffffffffffffffffffffffffffffffffffffffffffffffffffffff\n        /* \"#utility.yul\":14770:14775   */\n      dup3\n        /* \"#utility.yul\":14767:14844   */\n      sub\n        /* \"#utility.yul\":14764:14867   */\n      tag_383\n      jumpi\n        /* \"#utility.yul\":14847:14865   */\n      tag_384\n      tag_214\n      jump\t// in\n    tag_384:\n        /* \"#utility.yul\":14764:14867   */\n    tag_383:\n        /* \"#utility.yul\":14894:14895   */\n      0x01\n        /* \"#utility.yul\":14887:14892   */\n      dup3\n        /* \"#utility.yul\":14883:14896   */\n      add\n        /* \"#utility.yul\":14876:14896   */\n      swap1\n      pop\n        /* \"#utility.yul\":14669:14902   */\n      swap2\n      swap1\n      pop\n      jump\t// out\n        /* \"#utility.yul\":14908:15076   */\n    tag_219:\n        /* \"#utility.yul\":14991:15002   */\n      0x00\n        /* \"#utility.yul\":15025:15031   */\n      dup3\n        /* \"#utility.yul\":15020:15023   */\n      dup3\n        /* \"#utility.yul\":15013:15032   */\n      mstore\n        /* \"#utility.yul\":15065:15069   */\n      0x20\n        /* \"#utility.yul\":15060:15063   */\n      dup3\n        /* \"#utility.yul\":15056:15070   */\n      add\n        /* \"#utility.yul\":15041:15070   */\n      swap1\n      pop\n        /* \"#utility.yul\":14908:15076   */\n      swap3\n      swap2\n      pop\n      pop\n      jump\t// out\n        /* \"#utility.yul\":15082:15196   */\n    tag_220:\n      pop\n      jump\t// out\n        /* \"#utility.yul\":15202:15564   */\n    tag_221:\n        /* \"#utility.yul\":15343:15346   */\n      0x00\n        /* \"#utility.yul\":15364:15429   */\n      tag_388\n        /* \"#utility.yul\":15427:15428   */\n      0x00\n        /* \"#utility.yul\":15422:15425   */\n      dup4\n        /* \"#utility.yul\":15364:15429   */\n      tag_219\n      jump\t// in\n    tag_388:\n        /* \"#utility.yul\":15357:15429   */\n      swap2\n      pop\n        /* \"#utility.yul\":15438:15531   */\n      tag_389\n        /* \"#utility.yul\":15527:15530   */\n      dup3\n        /* \"#utility.yul\":15438:15531   */\n      tag_220\n      jump\t// in\n    tag_389:\n        /* \"#utility.yul\":15556:15557   */\n      0x00\n        /* \"#utility.yul\":15551:15554   */\n      dup3\n        /* \"#utility.yul\":15547:15558   */\n      add\n        /* \"#utility.yul\":15540:15558   */\n      swap1\n      pop\n        /* \"#utility.yul\":15202:15564   */\n      swap2\n      swap1\n      pop\n      jump\t// out\n        /* \"#utility.yul\":15570:16318   */\n    tag_127:\n        /* \"#utility.yul\":15819:15823   */\n      0x00\n        /* \"#utility.yul\":15857:15860   */\n      0x80\n        /* \"#utility.yul\":15846:15855   */\n      dup3\n        /* \"#utility.yul\":15842:15861   */\n      add\n        /* \"#utility.yul\":15834:15861   */\n      swap1\n      pop\n        /* \"#utility.yul\":15871:15942   */\n      tag_391\n        /* \"#utility.yul\":15939:15940   */\n      0x00\n        /* \"#utility.yul\":15928:15937   */\n      dup4\n        /* \"#utility.yul\":15924:15941   */\n      add\n        /* \"#utility.yul\":15915:15921   */\n      dup7\n        /* \"#utility.yul\":15871:15942   */\n      tag_197\n      jump\t// in\n    tag_391:\n        /* \"#utility.yul\":15952:16024   */\n      tag_392\n        /* \"#utility.yul\":16020:16022   */\n      0x20\n        /* \"#utility.yul\":16009:16018   */\n      dup4\n        /* \"#utility.yul\":16005:16023   */\n      add\n        /* \"#utility.yul\":15996:16002   */\n      dup6\n        /* \"#utility.yul\":15952:16024   */\n      tag_197\n      jump\t// in\n    tag_392:\n        /* \"#utility.yul\":16034:16106   */\n      tag_393\n        /* \"#utility.yul\":16102:16104   */\n      0x40\n        /* \"#utility.yul\":16091:16100   */\n      dup4\n        /* \"#utility.yul\":16087:16105   */\n      add\n        /* \"#utility.yul\":16078:16084   */\n      dup5\n        /* \"#utility.yul\":16034:16106   */\n      tag_200\n      jump\t// in\n    tag_393:\n        /* \"#utility.yul\":16153:16162   */\n      dup2\n        /* \"#utility.yul\":16147:16151   */\n      dup2\n        /* \"#utility.yul\":16143:16163   */\n      sub\n        /* \"#utility.yul\":16138:16140   */\n      0x60\n        /* \"#utility.yul\":16127:16136   */\n      dup4\n        /* \"#utility.yul\":16123:16141   */\n      add\n        /* \"#utility.yul\":16116:16164   */\n      mstore\n        /* \"#utility.yul\":16181:16311   */\n      tag_394\n        /* \"#utility.yul\":16306:16310   */\n      dup2\n        /* \"#utility.yul\":16181:16311   */\n      tag_221\n      jump\t// in\n    tag_394:\n        /* \"#utility.yul\":16173:16311   */\n      swap1\n      pop\n        /* \"#utility.yul\":15570:16318   */\n      swap5\n      swap4\n      pop\n      pop\n      pop\n      pop\n      jump\t// out\n        /* \"#utility.yul\":16324:16465   */\n    tag_222:\n        /* \"#utility.yul\":16380:16385   */\n      0x00\n        /* \"#utility.yul\":16411:16417   */\n      dup2\n        /* \"#utility.yul\":16405:16418   */\n      mload\n        /* \"#utility.yul\":16396:16418   */\n      swap1\n      pop\n        /* \"#utility.yul\":16427:16459   */\n      tag_396\n        /* \"#utility.yul\":16453:16458   */\n      dup2\n        /* \"#utility.yul\":16427:16459   */\n      tag_188\n      jump\t// in\n    tag_396:\n        /* \"#utility.yul\":16324:16465   */\n      swap3\n      swap2\n      pop\n      pop\n      jump\t// out\n        /* \"#utility.yul\":16471:16820   */\n    tag_131:\n        /* \"#utility.yul\":16540:16546   */\n      0x00\n        /* \"#utility.yul\":16589:16591   */\n      0x20\n        /* \"#utility.yul\":16577:16586   */\n      dup3\n        /* \"#utility.yul\":16568:16575   */\n      dup5\n        /* \"#utility.yul\":16564:16587   */\n      sub\n        /* \"#utility.yul\":16560:16592   */\n      slt\n        /* \"#utility.yul\":16557:16676   */\n      iszero\n      tag_398\n      jumpi\n        /* \"#utility.yul\":16595:16674   */\n      tag_399\n      tag_185\n      jump\t// in\n    tag_399:\n        /* \"#utility.yul\":16557:16676   */\n    tag_398:\n        /* \"#utility.yul\":16715:16716   */\n      0x00\n        /* \"#utility.yul\":16740:16803   */\n      tag_400\n        /* \"#utility.yul\":16795:16802   */\n      dup5\n        /* \"#utility.yul\":16786:16792   */\n      dup3\n        /* \"#utility.yul\":16775:16784   */\n      dup6\n        /* \"#utility.yul\":16771:16793   */\n      add\n        /* \"#utility.yul\":16740:16803   */\n      tag_222\n      jump\t// in\n    tag_400:\n        /* \"#utility.yul\":16730:16803   */\n      swap2\n      pop\n        /* \"#utility.yul\":16686:16813   */\n      pop\n        /* \"#utility.yul\":16471:16820   */\n      swap3\n      swap2\n      pop\n      pop\n      jump\t// out\n        /* \"#utility.yul\":16826:16992   */\n    tag_223:\n        /* \"#utility.yul\":16966:16984   */\n      0x756e7361666520726563697069656e7400000000000000000000000000000000\n        /* \"#utility.yul\":16962:16963   */\n      0x00\n        /* \"#utility.yul\":16954:16960   */\n      dup3\n        /* \"#utility.yul\":16950:16964   */\n      add\n        /* \"#utility.yul\":16943:16985   */\n      mstore\n        /* \"#utility.yul\":16826:16992   */\n      pop\n      jump\t// out\n        /* \"#utility.yul\":16998:17364   */\n    tag_224:\n        /* \"#utility.yul\":17140:17143   */\n      0x00\n        /* \"#utility.yul\":17161:17228   */\n      tag_403\n        /* \"#utility.yul\":17225:17227   */\n      0x10\n        /* \"#utility.yul\":17220:17223   */\n      dup4\n        /* \"#utility.yul\":17161:17228   */\n      tag_207\n      jump\t// in\n    tag_403:\n        /* \"#utility.yul\":17154:17228   */\n      swap2\n      pop\n        /* \"#utility.yul\":17237:17330   */\n      tag_404\n        /* \"#utility.yul\":17326:17329   */\n      dup3\n        /* \"#utility.yul\":17237:17330   */\n      tag_223\n      jump\t// in\n    tag_404:\n        /* \"#utility.yul\":17355:17357   */\n      0x20\n        /* \"#utility.yul\":17350:17353   */\n      dup3\n        /* \"#utility.yul\":17346:17358   */\n      add\n        /* \"#utility.yul\":17339:17358   */\n      swap1\n      pop\n        /* \"#utility.yul\":16998:17364   */\n      swap2\n      swap1\n      pop\n      jump\t// out\n        /* \"#utility.yul\":17370:17789   */\n    tag_134:\n        /* \"#utility.yul\":17536:17540   */\n      0x00\n        /* \"#utility.yul\":17574:17576   */\n      0x20\n        /* \"#utility.yul\":17563:17572   */\n      dup3\n        /* \"#utility.yul\":17559:17577   */\n      add\n        /* \"#utility.yul\":17551:17577   */\n      swap1\n      pop\n        /* \"#utility.yul\":17623:17632   */\n      dup2\n        /* \"#utility.yul\":17617:17621   */\n      dup2\n        /* \"#utility.yul\":17613:17633   */\n      sub\n        /* \"#utility.yul\":17609:17610   */\n      0x00\n        /* \"#utility.yul\":17598:17607   */\n      dup4\n        /* \"#utility.yul\":17594:17611   */\n      add\n        /* \"#utility.yul\":17587:17634   */\n      mstore\n        /* \"#utility.yul\":17651:17782   */\n      tag_406\n        /* \"#utility.yul\":17777:17781   */\n      dup2\n        /* \"#utility.yul\":17651:17782   */\n      tag_224\n      jump\t// in\n    tag_406:\n        /* \"#utility.yul\":17643:17782   */\n      swap1\n      pop\n        /* \"#utility.yul\":17370:17789   */\n      swap2\n      swap1\n      pop\n      jump\t// out\n        /* \"#utility.yul\":17795:17965   */\n    tag_225:\n        /* \"#utility.yul\":17935:17957   */\n      0x6f776e6572203d207a65726f2061646472657373000000000000000000000000\n        /* \"#utility.yul\":17931:17932   */\n      0x00\n        /* \"#utility.yul\":17923:17929   */\n      dup3\n        /* \"#utility.yul\":17919:17933   */\n      add\n        /* \"#utility.yul\":17912:17958   */\n      mstore\n        /* \"#utility.yul\":17795:17965   */\n      pop\n      jump\t// out\n        /* \"#utility.yul\":17971:18337   */\n    tag_226:\n        /* \"#utility.yul\":18113:18116   */\n      0x00\n        /* \"#utility.yul\":18134:18201   */\n      tag_409\n        /* \"#utility.yul\":18198:18200   */\n      0x14\n        /* \"#utility.yul\":18193:18196   */\n      dup4\n        /* \"#utility.yul\":18134:18201   */\n      tag_207\n      jump\t// in\n    tag_409:\n        /* \"#utility.yul\":18127:18201   */\n      swap2\n      pop\n        /* \"#utility.yul\":18210:18303   */\n      tag_410\n        /* \"#utility.yul\":18299:18302   */\n      dup3\n        /* \"#utility.yul\":18210:18303   */\n      tag_225\n      jump\t// in\n    tag_410:\n        /* \"#utility.yul\":18328:18330   */\n      0x20\n        /* \"#utility.yul\":18323:18326   */\n      dup3\n        /* \"#utility.yul\":18319:18331   */\n      add\n        /* \"#utility.yul\":18312:18331   */\n      swap1\n      pop\n        /* \"#utility.yul\":17971:18337   */\n      swap2\n      swap1\n      pop\n      jump\t// out\n        /* \"#utility.yul\":18343:18762   */\n    tag_141:\n        /* \"#utility.yul\":18509:18513   */\n      0x00\n        /* \"#utility.yul\":18547:18549   */\n      0x20\n        /* \"#utility.yul\":18536:18545   */\n      dup3\n        /* \"#utility.yul\":18532:18550   */\n      add\n        /* \"#utility.yul\":18524:18550   */\n      swap1\n      pop\n        /* \"#utility.yul\":18596:18605   */\n      dup2\n        /* \"#utility.yul\":18590:18594   */\n      dup2\n        /* \"#utility.yul\":18586:18606   */\n      sub\n        /* \"#utility.yul\":18582:18583   */\n      0x00\n        /* \"#utility.yul\":18571:18580   */\n      dup4\n        /* \"#utility.yul\":18567:18584   */\n      add\n        /* \"#utility.yul\":18560:18607   */\n      mstore\n        /* \"#utility.yul\":18624:18755   */\n      tag_412\n        /* \"#utility.yul\":18750:18754   */\n      dup2\n        /* \"#utility.yul\":18624:18755   */\n      tag_226\n      jump\t// in\n    tag_412:\n        /* \"#utility.yul\":18616:18755   */\n      swap1\n      pop\n        /* \"#utility.yul\":18343:18762   */\n      swap2\n      swap1\n      pop\n      jump\t// out\n        /* \"#utility.yul\":18768:18914   */\n    tag_227:\n        /* \"#utility.yul\":18865:18871   */\n      dup3\n        /* \"#utility.yul\":18860:18863   */\n      dup2\n        /* \"#utility.yul\":18855:18858   */\n      dup4\n        /* \"#utility.yul\":18842:18872   */\n      calldatacopy\n        /* \"#utility.yul\":18906:18907   */\n      0x00\n        /* \"#utility.yul\":18897:18903   */\n      dup4\n        /* \"#utility.yul\":18892:18895   */\n      dup4\n        /* \"#utility.yul\":18888:18904   */\n      add\n        /* \"#utility.yul\":18881:18908   */\n      mstore\n        /* \"#utility.yul\":18768:18914   */\n      pop\n      pop\n      pop\n      jump\t// out\n        /* \"#utility.yul\":18920:19022   */\n    tag_228:\n        /* \"#utility.yul\":18961:18967   */\n      0x00\n        /* \"#utility.yul\":19012:19014   */\n      0x1f\n        /* \"#utility.yul\":19008:19015   */\n      not\n        /* \"#utility.yul\":19003:19005   */\n      0x1f\n        /* \"#utility.yul\":18996:19001   */\n      dup4\n        /* \"#utility.yul\":18992:19006   */\n      add\n        /* \"#utility.yul\":18988:19016   */\n      and\n        /* \"#utility.yul\":18978:19016   */\n      swap1\n      pop\n        /* \"#utility.yul\":18920:19022   */\n      swap2\n      swap1\n      pop\n      jump\t// out\n        /* \"#utility.yul\":19050:19364   */\n    tag_229:\n        /* \"#utility.yul\":19146:19149   */\n      0x00\n        /* \"#utility.yul\":19167:19237   */\n      tag_416\n        /* \"#utility.yul\":19230:19236   */\n      dup4\n        /* \"#utility.yul\":19225:19228   */\n      dup6\n        /* \"#utility.yul\":19167:19237   */\n      tag_219\n      jump\t// in\n    tag_416:\n        /* \"#utility.yul\":19160:19237   */\n      swap4\n      pop\n        /* \"#utility.yul\":19247:19303   */\n      tag_417\n        /* \"#utility.yul\":19296:19302   */\n      dup4\n        /* \"#utility.yul\":19291:19294   */\n      dup6\n        /* \"#utility.yul\":19284:19289   */\n      dup5\n        /* \"#utility.yul\":19247:19303   */\n      tag_227\n      jump\t// in\n    tag_417:\n        /* \"#utility.yul\":19328:19357   */\n      tag_418\n        /* \"#utility.yul\":19350:19356   */\n      dup4\n        /* \"#utility.yul\":19328:19357   */\n      tag_228\n      jump\t// in\n    tag_418:\n        /* \"#utility.yul\":19323:19326   */\n      dup5\n        /* \"#utility.yul\":19319:19358   */\n      add\n        /* \"#utility.yul\":19312:19358   */\n      swap1\n      pop\n        /* \"#utility.yul\":19050:19364   */\n      swap4\n      swap3\n      pop\n      pop\n      pop\n      jump\t// out\n        /* \"#utility.yul\":19370:20030   */\n    tag_152:\n        /* \"#utility.yul\":19575:19579   */\n      0x00\n        /* \"#utility.yul\":19613:19616   */\n      0x80\n        /* \"#utility.yul\":19602:19611   */\n      dup3\n        /* \"#utility.yul\":19598:19617   */\n      add\n        /* \"#utility.yul\":19590:19617   */\n      swap1\n      pop\n        /* \"#utility.yul\":19627:19698   */\n      tag_420\n        /* \"#utility.yul\":19695:19696   */\n      0x00\n        /* \"#utility.yul\":19684:19693   */\n      dup4\n        /* \"#utility.yul\":19680:19697   */\n      add\n        /* \"#utility.yul\":19671:19677   */\n      dup9\n        /* \"#utility.yul\":19627:19698   */\n      tag_197\n      jump\t// in\n    tag_420:\n        /* \"#utility.yul\":19708:19780   */\n      tag_421\n        /* \"#utility.yul\":19776:19778   */\n      0x20\n        /* \"#utility.yul\":19765:19774   */\n      dup4\n        /* \"#utility.yul\":19761:19779   */\n      add\n        /* \"#utility.yul\":19752:19758   */\n      dup8\n        /* \"#utility.yul\":19708:19780   */\n      tag_197\n      jump\t// in\n    tag_421:\n        /* \"#utility.yul\":19790:19862   */\n      tag_422\n        /* \"#utility.yul\":19858:19860   */\n      0x40\n        /* \"#utility.yul\":19847:19856   */\n      dup4\n        /* \"#utility.yul\":19843:19861   */\n      add\n        /* \"#utility.yul\":19834:19840   */\n      dup7\n        /* \"#utility.yul\":19790:19862   */\n      tag_200\n      jump\t// in\n    tag_422:\n        /* \"#utility.yul\":19909:19918   */\n      dup2\n        /* \"#utility.yul\":19903:19907   */\n      dup2\n        /* \"#utility.yul\":19899:19919   */\n      sub\n        /* \"#utility.yul\":19894:19896   */\n      0x60\n        /* \"#utility.yul\":19883:19892   */\n      dup4\n        /* \"#utility.yul\":19879:19897   */\n      add\n        /* \"#utility.yul\":19872:19920   */\n      mstore\n        /* \"#utility.yul\":19937:20023   */\n      tag_423\n        /* \"#utility.yul\":20018:20022   */\n      dup2\n        /* \"#utility.yul\":20009:20015   */\n      dup5\n        /* \"#utility.yul\":20001:20007   */\n      dup7\n        /* \"#utility.yul\":19937:20023   */\n      tag_229\n      jump\t// in\n    tag_423:\n        /* \"#utility.yul\":19929:20023   */\n      swap1\n      pop\n        /* \"#utility.yul\":19370:20030   */\n      swap7\n      swap6\n      pop\n      pop\n      pop\n      pop\n      pop\n      pop\n      jump\t// out\n        /* \"#utility.yul\":20036:20478   */\n    tag_160:\n        /* \"#utility.yul\":20185:20189   */\n      0x00\n        /* \"#utility.yul\":20223:20225   */\n      0x60\n        /* \"#utility.yul\":20212:20221   */\n      dup3\n        /* \"#utility.yul\":20208:20226   */\n      add\n        /* \"#utility.yul\":20200:20226   */\n      swap1\n      pop\n        /* \"#utility.yul\":20236:20307   */\n      tag_425\n        /* \"#utility.yul\":20304:20305   */\n      0x00\n        /* \"#utility.yul\":20293:20302   */\n      dup4\n        /* \"#utility.yul\":20289:20306   */\n      add\n        /* \"#utility.yul\":20280:20286   */\n      dup7\n        /* \"#utility.yul\":20236:20307   */\n      tag_197\n      jump\t// in\n    tag_425:\n        /* \"#utility.yul\":20317:20389   */\n      tag_426\n        /* \"#utility.yul\":20385:20387   */\n      0x20\n        /* \"#utility.yul\":20374:20383   */\n      dup4\n        /* \"#utility.yul\":20370:20388   */\n      add\n        /* \"#utility.yul\":20361:20367   */\n      dup6\n        /* \"#utility.yul\":20317:20389   */\n      tag_197\n      jump\t// in\n    tag_426:\n        /* \"#utility.yul\":20399:20471   */\n      tag_427\n        /* \"#utility.yul\":20467:20469   */\n      0x40\n        /* \"#utility.yul\":20456:20465   */\n      dup4\n        /* \"#utility.yul\":20452:20470   */\n      add\n        /* \"#utility.yul\":20443:20449   */\n      dup5\n        /* \"#utility.yul\":20399:20471   */\n      tag_200\n      jump\t// in\n    tag_427:\n        /* \"#utility.yul\":20036:20478   */\n      swap5\n      swap4\n      pop\n      pop\n      pop\n      pop\n      jump\t// out\n        /* \"#utility.yul\":20484:20621   */\n    tag_230:\n        /* \"#utility.yul\":20538:20543   */\n      0x00\n        /* \"#utility.yul\":20569:20575   */\n      dup2\n        /* \"#utility.yul\":20563:20576   */\n      mload\n        /* \"#utility.yul\":20554:20576   */\n      swap1\n      pop\n        /* \"#utility.yul\":20585:20615   */\n      tag_429\n        /* \"#utility.yul\":20609:20614   */\n      dup2\n        /* \"#utility.yul\":20585:20615   */\n      tag_201\n      jump\t// in\n    tag_429:\n        /* \"#utility.yul\":20484:20621   */\n      swap3\n      swap2\n      pop\n      pop\n      jump\t// out\n        /* \"#utility.yul\":20627:20972   */\n    tag_164:\n        /* \"#utility.yul\":20694:20700   */\n      0x00\n        /* \"#utility.yul\":20743:20745   */\n      0x20\n        /* \"#utility.yul\":20731:20740   */\n      dup3\n        /* \"#utility.yul\":20722:20729   */\n      dup5\n        /* \"#utility.yul\":20718:20741   */\n      sub\n        /* \"#utility.yul\":20714:20746   */\n      slt\n        /* \"#utility.yul\":20711:20830   */\n      iszero\n      tag_431\n      jumpi\n        /* \"#utility.yul\":20749:20828   */\n      tag_432\n      tag_185\n      jump\t// in\n    tag_432:\n        /* \"#utility.yul\":20711:20830   */\n    tag_431:\n        /* \"#utility.yul\":20869:20870   */\n      0x00\n        /* \"#utility.yul\":20894:20955   */\n      tag_433\n        /* \"#utility.yul\":20947:20954   */\n      dup5\n        /* \"#utility.yul\":20938:20944   */\n      dup3\n        /* \"#utility.yul\":20927:20936   */\n      dup6\n        /* \"#utility.yul\":20923:20945   */\n      add\n        /* \"#utility.yul\":20894:20955   */\n      tag_230\n      jump\t// in\n    tag_433:\n        /* \"#utility.yul\":20884:20955   */\n      swap2\n      pop\n        /* \"#utility.yul\":20840:20965   */\n      pop\n        /* \"#utility.yul\":20627:20972   */\n      swap3\n      swap2\n      pop\n      pop\n      jump\t// out\n        /* \"#utility.yul\":20978:21310   */\n    tag_169:\n        /* \"#utility.yul\":21099:21103   */\n      0x00\n        /* \"#utility.yul\":21137:21139   */\n      0x40\n        /* \"#utility.yul\":21126:21135   */\n      dup3\n        /* \"#utility.yul\":21122:21140   */\n      add\n        /* \"#utility.yul\":21114:21140   */\n      swap1\n      pop\n        /* \"#utility.yul\":21150:21221   */\n      tag_435\n        /* \"#utility.yul\":21218:21219   */\n      0x00\n        /* \"#utility.yul\":21207:21216   */\n      dup4\n        /* \"#utility.yul\":21203:21220   */\n      add\n        /* \"#utility.yul\":21194:21200   */\n      dup6\n        /* \"#utility.yul\":21150:21221   */\n      tag_197\n      jump\t// in\n    tag_435:\n        /* \"#utility.yul\":21231:21303   */\n      tag_436\n        /* \"#utility.yul\":21299:21301   */\n      0x20\n        /* \"#utility.yul\":21288:21297   */\n      dup4\n        /* \"#utility.yul\":21284:21302   */\n      add\n        /* \"#utility.yul\":21275:21281   */\n      dup5\n        /* \"#utility.yul\":21231:21303   */\n      tag_200\n      jump\t// in\n    tag_436:\n        /* \"#utility.yul\":20978:21310   */\n      swap4\n      swap3\n      pop\n      pop\n      pop\n      jump\t// out\n        /* \"#utility.yul\":21316:21486   */\n    tag_231:\n        /* \"#utility.yul\":21456:21478   */\n      0x6d696e7420746f207a65726f2061646472657373000000000000000000000000\n        /* \"#utility.yul\":21452:21453   */\n      0x00\n        /* \"#utility.yul\":21444:21450   */\n      dup3\n        /* \"#utility.yul\":21440:21454   */\n      add\n        /* \"#utility.yul\":21433:21479   */\n      mstore\n        /* \"#utility.yul\":21316:21486   */\n      pop\n      jump\t// out\n        /* \"#utility.yul\":21492:21858   */\n    tag_232:\n        /* \"#utility.yul\":21634:21637   */\n      0x00\n        /* \"#utility.yul\":21655:21722   */\n      tag_439\n        /* \"#utility.yul\":21719:21721   */\n      0x14\n        /* \"#utility.yul\":21714:21717   */\n      dup4\n        /* \"#utility.yul\":21655:21722   */\n      tag_207\n      jump\t// in\n    tag_439:\n        /* \"#utility.yul\":21648:21722   */\n      swap2\n      pop\n        /* \"#utility.yul\":21731:21824   */\n      tag_440\n        /* \"#utility.yul\":21820:21823   */\n      dup3\n        /* \"#utility.yul\":21731:21824   */\n      tag_231\n      jump\t// in\n    tag_440:\n        /* \"#utility.yul\":21849:21851   */\n      0x20\n        /* \"#utility.yul\":21844:21847   */\n      dup3\n        /* \"#utility.yul\":21840:21852   */\n      add\n        /* \"#utility.yul\":21833:21852   */\n      swap1\n      pop\n        /* \"#utility.yul\":21492:21858   */\n      swap2\n      swap1\n      pop\n      jump\t// out\n        /* \"#utility.yul\":21864:22283   */\n    tag_176:\n        /* \"#utility.yul\":22030:22034   */\n      0x00\n        /* \"#utility.yul\":22068:22070   */\n      0x20\n        /* \"#utility.yul\":22057:22066   */\n      dup3\n        /* \"#utility.yul\":22053:22071   */\n      add\n        /* \"#utility.yul\":22045:22071   */\n      swap1\n      pop\n        /* \"#utility.yul\":22117:22126   */\n      dup2\n        /* \"#utility.yul\":22111:22115   */\n      dup2\n        /* \"#utility.yul\":22107:22127   */\n      sub\n        /* \"#utility.yul\":22103:22104   */\n      0x00\n        /* \"#utility.yul\":22092:22101   */\n      dup4\n        /* \"#utility.yul\":22088:22105   */\n      add\n        /* \"#utility.yul\":22081:22128   */\n      mstore\n        /* \"#utility.yul\":22145:22276   */\n      tag_442\n        /* \"#utility.yul\":22271:22275   */\n      dup2\n        /* \"#utility.yul\":22145:22276   */\n      tag_232\n      jump\t// in\n    tag_442:\n        /* \"#utility.yul\":22137:22276   */\n      swap1\n      pop\n        /* \"#utility.yul\":21864:22283   */\n      swap2\n      swap1\n      pop\n      jump\t// out\n        /* \"#utility.yul\":22289:22453   */\n    tag_233:\n        /* \"#utility.yul\":22429:22445   */\n      0x616c7265616479206d696e746564000000000000000000000000000000000000\n        /* \"#utility.yul\":22425:22426   */\n      0x00\n        /* \"#utility.yul\":22417:22423   */\n      dup3\n        /* \"#utility.yul\":22413:22427   */\n      add\n        /* \"#utility.yul\":22406:22446   */\n      mstore\n        /* \"#utility.yul\":22289:22453   */\n      pop\n      jump\t// out\n        /* \"#utility.yul\":22459:22825   */\n    tag_234:\n        /* \"#utility.yul\":22601:22604   */\n      0x00\n        /* \"#utility.yul\":22622:22689   */\n      tag_445\n        /* \"#utility.yul\":22686:22688   */\n      0x0e\n        /* \"#utility.yul\":22681:22684   */\n      dup4\n        /* \"#utility.yul\":22622:22689   */\n      tag_207\n      jump\t// in\n    tag_445:\n        /* \"#utility.yul\":22615:22689   */\n      swap2\n      pop\n        /* \"#utility.yul\":22698:22791   */\n      tag_446\n        /* \"#utility.yul\":22787:22790   */\n      dup3\n        /* \"#utility.yul\":22698:22791   */\n      tag_233\n      jump\t// in\n    tag_446:\n        /* \"#utility.yul\":22816:22818   */\n      0x20\n        /* \"#utility.yul\":22811:22814   */\n      dup3\n        /* \"#utility.yul\":22807:22819   */\n      add\n        /* \"#utility.yul\":22800:22819   */\n      swap1\n      pop\n        /* \"#utility.yul\":22459:22825   */\n      swap2\n      swap1\n      pop\n      jump\t// out\n        /* \"#utility.yul\":22831:23250   */\n    tag_179:\n        /* \"#utility.yul\":22997:23001   */\n      0x00\n        /* \"#utility.yul\":23035:23037   */\n      0x20\n        /* \"#utility.yul\":23024:23033   */\n      dup3\n        /* \"#utility.yul\":23020:23038   */\n      add\n        /* \"#utility.yul\":23012:23038   */\n      swap1\n      pop\n        /* \"#utility.yul\":23084:23093   */\n      dup2\n        /* \"#utility.yul\":23078:23082   */\n      dup2\n        /* \"#utility.yul\":23074:23094   */\n      sub\n        /* \"#utility.yul\":23070:23071   */\n      0x00\n        /* \"#utility.yul\":23059:23068   */\n      dup4\n        /* \"#utility.yul\":23055:23072   */\n      add\n        /* \"#utility.yul\":23048:23095   */\n      mstore\n        /* \"#utility.yul\":23112:23243   */\n      tag_448\n        /* \"#utility.yul\":23238:23242   */\n      dup2\n        /* \"#utility.yul\":23112:23243   */\n      tag_234\n      jump\t// in\n    tag_448:\n        /* \"#utility.yul\":23104:23243   */\n      swap1\n      pop\n        /* \"#utility.yul\":22831:23250   */\n      swap2\n      swap1\n      pop\n      jump\t// out\n\n    auxdata: 0xa264697066735822122009ec22c184979078fd0afe02a976af19781a50b20939fa63a8f54628cb1ff0ab64736f6c63430008120033\n}\n",
				"bytecode": {
					"linkReferences": {},
					"object": "608060405234801561001057600080fd5b5033600460006101000a81548173ffffffffffffffffffffffffffffffffffffffff021916908373ffffffffffffffffffffffffffffffffffffffff1602179055506121e9806100616000396000f3fe608060405234801561001057600080fd5b50600436106101005760003560e01c806371bb61f311610097578063b88d4fde11610066578063b88d4fde146102a9578063da644b04146102c5578063e985e9c5146102e1578063fc6bcf391461031157610100565b806371bb61f314610223578063880cdc31146102535780638da5cb5b1461026f578063a22cb4651461028d57610100565b806323b872dd116100d357806323b872dd1461018b57806342842e0e146101a75780636352211e146101c357806370a08231146101f357610100565b806301ffc9a714610105578063081812fc14610135578063095ea7b3146101655780631249c58b14610181575b600080fd5b61011f600480360381019061011a919061169e565b61032d565b60405161012c91906116e6565b60405180910390f35b61014f600480360381019061014a9190611737565b6103ff565b60405161015c91906117a5565b60405180910390f35b61017f600480360381019061017a91906117ec565b6104dc565b005b6101896106c4565b005b6101a560048036038101906101a0919061182c565b61077c565b005b6101c160048036038101906101bc919061182c565b610a66565b005b6101dd60048036038101906101d89190611737565b610b9e565b6040516101ea91906117a5565b60405180910390f35b61020d6004803603810190610208919061187f565b610c49565b60405161021a91906118bb565b60405180910390f35b61023d600480360381019061023891906118d6565b610d00565b60405161024a91906118bb565b60405180910390f35b61026d6004803603810190610268919061187f565b610d25565b005b610277610e3c565b60405161028491906117a5565b60405180910390f35b6102a760048036038101906102a29190611942565b610e62565b005b6102c360048036038101906102be91906119e7565b610f5f565b005b6102df60048036038101906102da9190611a6f565b61109d565b005b6102fb60048036038101906102f69190611ac2565b611178565b60405161030891906116e6565b60405180910390f35b61032b60048036038101906103269190611a6f565b6111a7565b005b60007f80ac58cd000000000000000000000000000000000000000000000000000000007bffffffffffffffffffffffffffffffffffffffffffffffffffffffff1916827bffffffffffffffffffffffffffffffffffffffffffffffffffffffff191614806103f857507f01ffc9a7000000000000000000000000000000000000000000000000000000007bffffffffffffffffffffffffffffffffffffffffffffffffffffffff1916827bffffffffffffffffffffffffffffffffffffffffffffffffffffffff1916145b9050919050565b60008073ffffffffffffffffffffffffffffffffffffffff1660008084815260200190815260200160002060009054906101000a900473ffffffffffffffffffffffffffffffffffffffff1673ffffffffffffffffffffffffffffffffffffffff16036104a1576040517f08c379a000000000000000000000000000000000000000000000000000000000815260040161049890611b5f565b60405180910390fd5b6002600083815260200190815260200160002060009054906101000a900473ffffffffffffffffffffffffffffffffffffffff169050919050565b600080600083815260200190815260200160002060009054906101000a900473ffffffffffffffffffffffffffffffffffffffff1690508073ffffffffffffffffffffffffffffffffffffffff163373ffffffffffffffffffffffffffffffffffffffff1614806105d35750600360008273ffffffffffffffffffffffffffffffffffffffff1673ffffffffffffffffffffffffffffffffffffffff16815260200190815260200160002060003373ffffffffffffffffffffffffffffffffffffffff1673ffffffffffffffffffffffffffffffffffffffff16815260200190815260200160002060009054906101000a900460ff165b610612576040517f08c379a000000000000000000000000000000000000000000000000000000000815260040161060990611bcb565b60405180910390fd5b826002600084815260200190815260200160002060006101000a81548173ffffffffffffffffffffffffffffffffffffffff021916908373ffffffffffffffffffffffffffffffffffffffff160217905550818373ffffffffffffffffffffffffffffffffffffffff168273ffffffffffffffffffffffffffffffffffffffff167f8c5be1e5ebec7d5bd14f71427d1e84f3dd0314c0f7b2291e5b200ac8c7c3b92560405160405180910390a4505050565b600460009054906101000a900473ffffffffffffffffffffffffffffffffffffffff1673ffffffffffffffffffffffffffffffffffffffff163373ffffffffffffffffffffffffffffffffffffffff1614610754576040517f08c379a000000000000000000000000000000000000000000000000000000000815260040161074b90611c37565b60405180910390fd5b610760336005546112f2565b6001600560008282546107739190611c86565b92505081905550565b60008082815260200190815260200160002060009054906101000a900473ffffffffffffffffffffffffffffffffffffffff1673ffffffffffffffffffffffffffffffffffffffff168373ffffffffffffffffffffffffffffffffffffffff161461081c576040517f08c379a000000000000000000000000000000000000000000000000000000000815260040161081390611d06565b60405180910390fd5b600073ffffffffffffffffffffffffffffffffffffffff168273ffffffffffffffffffffffffffffffffffffffff160361088b576040517f08c379a000000000000000000000000000000000000000000000000000000000815260040161088290611d72565b60405180910390fd5b610896833383611508565b6108d5576040517f08c379a00000000000000000000000000000000000000000000000000000000081526004016108cc90611bcb565b60405180910390fd5b600160008473ffffffffffffffffffffffffffffffffffffffff1673ffffffffffffffffffffffffffffffffffffffff168152602001908152602001600020600081548092919061092590611d92565b9190505550600160008373ffffffffffffffffffffffffffffffffffffffff1673ffffffffffffffffffffffffffffffffffffffff168152602001908152602001600020600081548092919061097a90611dbb565b91905055508160008083815260200190815260200160002060006101000a81548173ffffffffffffffffffffffffffffffffffffffff021916908373ffffffffffffffffffffffffffffffffffffffff1602179055506002600082815260200190815260200160002060006101000a81549073ffffffffffffffffffffffffffffffffffffffff0219169055808273ffffffffffffffffffffffffffffffffffffffff168473ffffffffffffffffffffffffffffffffffffffff167fddf252ad1be2c89b69c2b068fc378daa952ba7f163c4a11628f55a4df523b3ef60405160405180910390a4505050565b610a7183838361077c565b60008273ffffffffffffffffffffffffffffffffffffffff163b1480610b5a575063150b7a0260e01b7bffffffffffffffffffffffffffffffffffffffffffffffffffffffff19168273ffffffffffffffffffffffffffffffffffffffff1663150b7a023386856040518463ffffffff1660e01b8152600401610af693929190611e3a565b6020604051808303816000875af1158015610b15573d6000803e3d6000fd5b505050506040513d601f19601f82011682018060405250810190610b399190611e99565b7bffffffffffffffffffffffffffffffffffffffffffffffffffffffff1916145b610b99576040517f08c379a0000000000000000000000000000000000000000000000000000000008152600401610b9090611f12565b60405180910390fd5b505050565b600080600083815260200190815260200160002060009054906101000a900473ffffffffffffffffffffffffffffffffffffffff169050600073ffffffffffffffffffffffffffffffffffffffff168173ffffffffffffffffffffffffffffffffffffffff1603610c44576040517f08c379a0000000000000000000000000000000000000000000000000000000008152600401610c3b90611b5f565b60405180910390fd5b919050565b60008073ffffffffffffffffffffffffffffffffffffffff168273ffffffffffffffffffffffffffffffffffffffff1603610cb9576040517f08c379a0000000000000000000000000000000000000000000000000000000008152600401610cb090611f7e565b60405180910390fd5b600160008373ffffffffffffffffffffffffffffffffffffffff1673ffffffffffffffffffffffffffffffffffffffff168152602001908152602001600020549050919050565b6006602052816000526040600020602052806000526040600020600091509150505481565b600460009054906101000a900473ffffffffffffffffffffffffffffffffffffffff1673ffffffffffffffffffffffffffffffffffffffff163373ffffffffffffffffffffffffffffffffffffffff1614610db5576040517f08c379a0000000000000000000000000000000000000000000000000000000008152600401610dac90611c37565b60405180910390fd5b80600460006101000a81548173ffffffffffffffffffffffffffffffffffffffff021916908373ffffffffffffffffffffffffffffffffffffffff1602179055508073ffffffffffffffffffffffffffffffffffffffff167f84022644ce39de434e8f39c4398a3628815893104188274c37205d41c2d5096760405160405180910390a250565b600460009054906101000a900473ffffffffffffffffffffffffffffffffffffffff1681565b80600360003373ffffffffffffffffffffffffffffffffffffffff1673ffffffffffffffffffffffffffffffffffffffff16815260200190815260200160002060008473ffffffffffffffffffffffffffffffffffffffff1673ffffffffffffffffffffffffffffffffffffffff16815260200190815260200160002060006101000a81548160ff0219169083151502179055508173ffffffffffffffffffffffffffffffffffffffff163373ffffffffffffffffffffffffffffffffffffffff167f17307eab39ab6107e8899845ad3d59bd9653f200f220920489ca2b5937696c3183604051610f5391906116e6565b60405180910390a35050565b610f6a85858561077c565b60008473ffffffffffffffffffffffffffffffffffffffff163b1480611057575063150b7a0260e01b7bffffffffffffffffffffffffffffffffffffffffffffffffffffffff19168473ffffffffffffffffffffffffffffffffffffffff1663150b7a0233888787876040518663ffffffff1660e01b8152600401610ff3959493929190611feb565b6020604051808303816000875af1158015611012573d6000803e3d6000fd5b505050506040513d601f19601f820116820180604052508101906110369190611e99565b7bffffffffffffffffffffffffffffffffffffffffffffffffffffffff1916145b611096576040517f08c379a000000000000000000000000000000000000000000000000000000000815260040161108d90611f12565b60405180910390fd5b5050505050565b8173ffffffffffffffffffffffffffffffffffffffff166323b872dd3330846040518463ffffffff1660e01b81526004016110da93929190612039565b6020604051808303816000875af11580156110f9573d6000803e3d6000fd5b505050506040513d601f19601f8201168201806040525081019061111d9190612085565b50806006600085815260200190815260200160002060008473ffffffffffffffffffffffffffffffffffffffff1673ffffffffffffffffffffffffffffffffffffffff16815260200190815260200160002081905550505050565b60036020528160005260406000206020528060005260406000206000915091509054906101000a900460ff1681565b60008084815260200190815260200160002060009054906101000a900473ffffffffffffffffffffffffffffffffffffffff1673ffffffffffffffffffffffffffffffffffffffff163373ffffffffffffffffffffffffffffffffffffffff161461121157600080fd5b806006600085815260200190815260200160002060008473ffffffffffffffffffffffffffffffffffffffff1673ffffffffffffffffffffffffffffffffffffffff16815260200190815260200160002054101561126e57600080fd5b8173ffffffffffffffffffffffffffffffffffffffff1663a9059cbb33836040518363ffffffff1660e01b81526004016112a99291906120b2565b6020604051808303816000875af11580156112c8573d6000803e3d6000fd5b505050506040513d601f19601f820116820180604052508101906112ec9190612085565b50505050565b600073ffffffffffffffffffffffffffffffffffffffff168273ffffffffffffffffffffffffffffffffffffffff1603611361576040517f08c379a000000000000000000000000000000000000000000000000000000000815260040161135890612127565b60405180910390fd5b600073ffffffffffffffffffffffffffffffffffffffff1660008083815260200190815260200160002060009054906101000a900473ffffffffffffffffffffffffffffffffffffffff1673ffffffffffffffffffffffffffffffffffffffff1614611402576040517f08c379a00000000000000000000000000000000000000000000000000000000081526004016113f990612193565b60405180910390fd5b600160008373ffffffffffffffffffffffffffffffffffffffff1673ffffffffffffffffffffffffffffffffffffffff168152602001908152602001600020600081548092919061145290611dbb565b91905055508160008083815260200190815260200160002060006101000a81548173ffffffffffffffffffffffffffffffffffffffff021916908373ffffffffffffffffffffffffffffffffffffffff160217905550808273ffffffffffffffffffffffffffffffffffffffff16600073ffffffffffffffffffffffffffffffffffffffff167fddf252ad1be2c89b69c2b068fc378daa952ba7f163c4a11628f55a4df523b3ef60405160405180910390a45050565b60008373ffffffffffffffffffffffffffffffffffffffff168373ffffffffffffffffffffffffffffffffffffffff1614806115ca5750600360008573ffffffffffffffffffffffffffffffffffffffff1673ffffffffffffffffffffffffffffffffffffffff16815260200190815260200160002060008473ffffffffffffffffffffffffffffffffffffffff1673ffffffffffffffffffffffffffffffffffffffff16815260200190815260200160002060009054906101000a900460ff165b8061163357506002600083815260200190815260200160002060009054906101000a900473ffffffffffffffffffffffffffffffffffffffff1673ffffffffffffffffffffffffffffffffffffffff168373ffffffffffffffffffffffffffffffffffffffff16145b90509392505050565b600080fd5b600080fd5b60007fffffffff0000000000000000000000000000000000000000000000000000000082169050919050565b61167b81611646565b811461168657600080fd5b50565b60008135905061169881611672565b92915050565b6000602082840312156116b4576116b361163c565b5b60006116c284828501611689565b91505092915050565b60008115159050919050565b6116e0816116cb565b82525050565b60006020820190506116fb60008301846116d7565b92915050565b6000819050919050565b61171481611701565b811461171f57600080fd5b50565b6000813590506117318161170b565b92915050565b60006020828403121561174d5761174c61163c565b5b600061175b84828501611722565b91505092915050565b600073ffffffffffffffffffffffffffffffffffffffff82169050919050565b600061178f82611764565b9050919050565b61179f81611784565b82525050565b60006020820190506117ba6000830184611796565b92915050565b6117c981611784565b81146117d457600080fd5b50565b6000813590506117e6816117c0565b92915050565b600080604083850312156118035761180261163c565b5b6000611811858286016117d7565b925050602061182285828601611722565b9150509250929050565b6000806000606084860312156118455761184461163c565b5b6000611853868287016117d7565b9350506020611864868287016117d7565b925050604061187586828701611722565b9150509250925092565b6000602082840312156118955761189461163c565b5b60006118a3848285016117d7565b91505092915050565b6118b581611701565b82525050565b60006020820190506118d060008301846118ac565b92915050565b600080604083850312156118ed576118ec61163c565b5b60006118fb85828601611722565b925050602061190c858286016117d7565b9150509250929050565b61191f816116cb565b811461192a57600080fd5b50565b60008135905061193c81611916565b92915050565b600080604083850312156119595761195861163c565b5b6000611967858286016117d7565b92505060206119788582860161192d565b9150509250929050565b600080fd5b600080fd5b600080fd5b60008083601f8401126119a7576119a6611982565b5b8235905067ffffffffffffffff8111156119c4576119c3611987565b5b6020830191508360018202830111156119e0576119df61198c565b5b9250929050565b600080600080600060808688031215611a0357611a0261163c565b5b6000611a11888289016117d7565b9550506020611a22888289016117d7565b9450506040611a3388828901611722565b935050606086013567ffffffffffffffff811115611a5457611a53611641565b5b611a6088828901611991565b92509250509295509295909350565b600080600060608486031215611a8857611a8761163c565b5b6000611a9686828701611722565b9350506020611aa7868287016117d7565b9250506040611ab886828701611722565b9150509250925092565b60008060408385031215611ad957611ad861163c565b5b6000611ae7858286016117d7565b9250506020611af8858286016117d7565b9150509250929050565b600082825260208201905092915050565b7f746f6b656e20646f65736e277420657869737400000000000000000000000000600082015250565b6000611b49601383611b02565b9150611b5482611b13565b602082019050919050565b60006020820190508181036000830152611b7881611b3c565b9050919050565b7f6e6f7420617574686f72697a6564000000000000000000000000000000000000600082015250565b6000611bb5600e83611b02565b9150611bc082611b7f565b602082019050919050565b60006020820190508181036000830152611be481611ba8565b9050919050565b7f6f6e6c79206f776e657200000000000000000000000000000000000000000000600082015250565b6000611c21600a83611b02565b9150611c2c82611beb565b602082019050919050565b60006020820190508181036000830152611c5081611c14565b9050919050565b7f4e487b7100000000000000000000000000000000000000000000000000000000600052601160045260246000fd5b6000611c9182611701565b9150611c9c83611701565b9250828201905080821115611cb457611cb3611c57565b5b92915050565b7f66726f6d20213d206f776e657200000000000000000000000000000000000000600082015250565b6000611cf0600d83611b02565b9150611cfb82611cba565b602082019050919050565b60006020820190508181036000830152611d1f81611ce3565b9050919050565b7f7472616e7366657220746f207a65726f20616464726573730000000000000000600082015250565b6000611d5c601883611b02565b9150611d6782611d26565b602082019050919050565b60006020820190508181036000830152611d8b81611d4f565b9050919050565b6000611d9d82611701565b915060008203611db057611daf611c57565b5b600182039050919050565b6000611dc682611701565b91507fffffffffffffffffffffffffffffffffffffffffffffffffffffffffffffffff8203611df857611df7611c57565b5b600182019050919050565b600082825260208201905092915050565b50565b6000611e24600083611e03565b9150611e2f82611e14565b600082019050919050565b6000608082019050611e4f6000830186611796565b611e5c6020830185611796565b611e6960408301846118ac565b8181036060830152611e7a81611e17565b9050949350505050565b600081519050611e9381611672565b92915050565b600060208284031215611eaf57611eae61163c565b5b6000611ebd84828501611e84565b91505092915050565b7f756e7361666520726563697069656e7400000000000000000000000000000000600082015250565b6000611efc601083611b02565b9150611f0782611ec6565b602082019050919050565b60006020820190508181036000830152611f2b81611eef565b9050919050565b7f6f776e6572203d207a65726f2061646472657373000000000000000000000000600082015250565b6000611f68601483611b02565b9150611f7382611f32565b602082019050919050565b60006020820190508181036000830152611f9781611f5b565b9050919050565b82818337600083830152505050565b6000601f19601f8301169050919050565b6000611fca8385611e03565b9350611fd7838584611f9e565b611fe083611fad565b840190509392505050565b60006080820190506120006000830188611796565b61200d6020830187611796565b61201a60408301866118ac565b818103606083015261202d818486611fbe565b90509695505050505050565b600060608201905061204e6000830186611796565b61205b6020830185611796565b61206860408301846118ac565b949350505050565b60008151905061207f81611916565b92915050565b60006020828403121561209b5761209a61163c565b5b60006120a984828501612070565b91505092915050565b60006040820190506120c76000830185611796565b6120d460208301846118ac565b9392505050565b7f6d696e7420746f207a65726f2061646472657373000000000000000000000000600082015250565b6000612111601483611b02565b915061211c826120db565b602082019050919050565b6000602082019050818103600083015261214081612104565b9050919050565b7f616c7265616479206d696e746564000000000000000000000000000000000000600082015250565b600061217d600e83611b02565b915061218882612147565b602082019050919050565b600060208201905081810360008301526121ac81612170565b905091905056fea264697066735822122009ec22c184979078fd0afe02a976af19781a50b20939fa63a8f54628cb1ff0ab64736f6c63430008120033",
					"opcodes": "PUSH1 0x80 PUSH1 0x40 MSTORE CALLVALUE DUP1 ISZERO PUSH2 0x10 JUMPI PUSH1 0x0 DUP1 REVERT JUMPDEST POP CALLER PUSH1 0x4 PUSH1 0x0 PUSH2 0x100 EXP DUP2 SLOAD DUP2 PUSH20 0xFFFFFFFFFFFFFFFFFFFFFFFFFFFFFFFFFFFFFFFF MUL NOT AND SWAP1 DUP4 PUSH20 0xFFFFFFFFFFFFFFFFFFFFFFFFFFFFFFFFFFFFFFFF AND MUL OR SWAP1 SSTORE POP PUSH2 0x21E9 DUP1 PUSH2 0x61 PUSH1 0x0 CODECOPY PUSH1 0x0 RETURN INVALID PUSH1 0x80 PUSH1 0x40 MSTORE CALLVALUE DUP1 ISZERO PUSH2 0x10 JUMPI PUSH1 0x0 DUP1 REVERT JUMPDEST POP PUSH1 0x4 CALLDATASIZE LT PUSH2 0x100 JUMPI PUSH1 0x0 CALLDATALOAD PUSH1 0xE0 SHR DUP1 PUSH4 0x71BB61F3 GT PUSH2 0x97 JUMPI DUP1 PUSH4 0xB88D4FDE GT PUSH2 0x66 JUMPI DUP1 PUSH4 0xB88D4FDE EQ PUSH2 0x2A9 JUMPI DUP1 PUSH4 0xDA644B04 EQ PUSH2 0x2C5 JUMPI DUP1 PUSH4 0xE985E9C5 EQ PUSH2 0x2E1 JUMPI DUP1 PUSH4 0xFC6BCF39 EQ PUSH2 0x311 JUMPI PUSH2 0x100 JUMP JUMPDEST DUP1 PUSH4 0x71BB61F3 EQ PUSH2 0x223 JUMPI DUP1 PUSH4 0x880CDC31 EQ PUSH2 0x253 JUMPI DUP1 PUSH4 0x8DA5CB5B EQ PUSH2 0x26F JUMPI DUP1 PUSH4 0xA22CB465 EQ PUSH2 0x28D JUMPI PUSH2 0x100 JUMP JUMPDEST DUP1 PUSH4 0x23B872DD GT PUSH2 0xD3 JUMPI DUP1 PUSH4 0x23B872DD EQ PUSH2 0x18B JUMPI DUP1 PUSH4 0x42842E0E EQ PUSH2 0x1A7 JUMPI DUP1 PUSH4 0x6352211E EQ PUSH2 0x1C3 JUMPI DUP1 PUSH4 0x70A08231 EQ PUSH2 0x1F3 JUMPI PUSH2 0x100 JUMP JUMPDEST DUP1 PUSH4 0x1FFC9A7 EQ PUSH2 0x105 JUMPI DUP1 PUSH4 0x81812FC EQ PUSH2 0x135 JUMPI DUP1 PUSH4 0x95EA7B3 EQ PUSH2 0x165 JUMPI DUP1 PUSH4 0x1249C58B EQ PUSH2 0x181 JUMPI JUMPDEST PUSH1 0x0 DUP1 REVERT JUMPDEST PUSH2 0x11F PUSH1 0x4 DUP1 CALLDATASIZE SUB DUP2 ADD SWAP1 PUSH2 0x11A SWAP2 SWAP1 PUSH2 0x169E JUMP JUMPDEST PUSH2 0x32D JUMP JUMPDEST PUSH1 0x40 MLOAD PUSH2 0x12C SWAP2 SWAP1 PUSH2 0x16E6 JUMP JUMPDEST PUSH1 0x40 MLOAD DUP1 SWAP2 SUB SWAP1 RETURN JUMPDEST PUSH2 0x14F PUSH1 0x4 DUP1 CALLDATASIZE SUB DUP2 ADD SWAP1 PUSH2 0x14A SWAP2 SWAP1 PUSH2 0x1737 JUMP JUMPDEST PUSH2 0x3FF JUMP JUMPDEST PUSH1 0x40 MLOAD PUSH2 0x15C SWAP2 SWAP1 PUSH2 0x17A5 JUMP JUMPDEST PUSH1 0x40 MLOAD DUP1 SWAP2 SUB SWAP1 RETURN JUMPDEST PUSH2 0x17F PUSH1 0x4 DUP1 CALLDATASIZE SUB DUP2 ADD SWAP1 PUSH2 0x17A SWAP2 SWAP1 PUSH2 0x17EC JUMP JUMPDEST PUSH2 0x4DC JUMP JUMPDEST STOP JUMPDEST PUSH2 0x189 PUSH2 0x6C4 JUMP JUMPDEST STOP JUMPDEST PUSH2 0x1A5 PUSH1 0x4 DUP1 CALLDATASIZE SUB DUP2 ADD SWAP1 PUSH2 0x1A0 SWAP2 SWAP1 PUSH2 0x182C JUMP JUMPDEST PUSH2 0x77C JUMP JUMPDEST STOP JUMPDEST PUSH2 0x1C1 PUSH1 0x4 DUP1 CALLDATASIZE SUB DUP2 ADD SWAP1 PUSH2 0x1BC SWAP2 SWAP1 PUSH2 0x182C JUMP JUMPDEST PUSH2 0xA66 JUMP JUMPDEST STOP JUMPDEST PUSH2 0x1DD PUSH1 0x4 DUP1 CALLDATASIZE SUB DUP2 ADD SWAP1 PUSH2 0x1D8 SWAP2 SWAP1 PUSH2 0x1737 JUMP JUMPDEST PUSH2 0xB9E JUMP JUMPDEST PUSH1 0x40 MLOAD PUSH2 0x1EA SWAP2 SWAP1 PUSH2 0x17A5 JUMP JUMPDEST PUSH1 0x40 MLOAD DUP1 SWAP2 SUB SWAP1 RETURN JUMPDEST PUSH2 0x20D PUSH1 0x4 DUP1 CALLDATASIZE SUB DUP2 ADD SWAP1 PUSH2 0x208 SWAP2 SWAP1 PUSH2 0x187F JUMP JUMPDEST PUSH2 0xC49 JUMP JUMPDEST PUSH1 0x40 MLOAD PUSH2 0x21A SWAP2 SWAP1 PUSH2 0x18BB JUMP JUMPDEST PUSH1 0x40 MLOAD DUP1 SWAP2 SUB SWAP1 RETURN JUMPDEST PUSH2 0x23D PUSH1 0x4 DUP1 CALLDATASIZE SUB DUP2 ADD SWAP1 PUSH2 0x238 SWAP2 SWAP1 PUSH2 0x18D6 JUMP JUMPDEST PUSH2 0xD00 JUMP JUMPDEST PUSH1 0x40 MLOAD PUSH2 0x24A SWAP2 SWAP1 PUSH2 0x18BB JUMP JUMPDEST PUSH1 0x40 MLOAD DUP1 SWAP2 SUB SWAP1 RETURN JUMPDEST PUSH2 0x26D PUSH1 0x4 DUP1 CALLDATASIZE SUB DUP2 ADD SWAP1 PUSH2 0x268 SWAP2 SWAP1 PUSH2 0x187F JUMP JUMPDEST PUSH2 0xD25 JUMP JUMPDEST STOP JUMPDEST PUSH2 0x277 PUSH2 0xE3C JUMP JUMPDEST PUSH1 0x40 MLOAD PUSH2 0x284 SWAP2 SWAP1 PUSH2 0x17A5 JUMP JUMPDEST PUSH1 0x40 MLOAD DUP1 SWAP2 SUB SWAP1 RETURN JUMPDEST PUSH2 0x2A7 PUSH1 0x4 DUP1 CALLDATASIZE SUB DUP2 ADD SWAP1 PUSH2 0x2A2 SWAP2 SWAP1 PUSH2 0x1942 JUMP JUMPDEST PUSH2 0xE62 JUMP JUMPDEST STOP JUMPDEST PUSH2 0x2C3 PUSH1 0x4 DUP1 CALLDATASIZE SUB DUP2 ADD SWAP1 PUSH2 0x2BE SWAP2 SWAP1 PUSH2 0x19E7 JUMP JUMPDEST PUSH2 0xF5F JUMP JUMPDEST STOP JUMPDEST PUSH2 0x2DF PUSH1 0x4 DUP1 CALLDATASIZE SUB DUP2 ADD SWAP1 PUSH2 0x2DA SWAP2 SWAP1 PUSH2 0x1A6F JUMP JUMPDEST PUSH2 0x109D JUMP JUMPDEST STOP JUMPDEST PUSH2 0x2FB PUSH1 0x4 DUP1 CALLDATASIZE SUB DUP2 ADD SWAP1 PUSH2 0x2F6 SWAP2 SWAP1 PUSH2 0x1AC2 JUMP JUMPDEST PUSH2 0x1178 JUMP JUMPDEST PUSH1 0x40 MLOAD PUSH2 0x308 SWAP2 SWAP1 PUSH2 0x16E6 JUMP JUMPDEST PUSH1 0x40 MLOAD DUP1 SWAP2 SUB SWAP1 RETURN JUMPDEST PUSH2 0x32B PUSH1 0x4 DUP1 CALLDATASIZE SUB DUP2 ADD SWAP1 PUSH2 0x326 SWAP2 SWAP1 PUSH2 0x1A6F JUMP JUMPDEST PUSH2 0x11A7 JUMP JUMPDEST STOP JUMPDEST PUSH1 0x0 PUSH32 0x80AC58CD00000000000000000000000000000000000000000000000000000000 PUSH28 0xFFFFFFFFFFFFFFFFFFFFFFFFFFFFFFFFFFFFFFFFFFFFFFFFFFFFFFFF NOT AND DUP3 PUSH28 0xFFFFFFFFFFFFFFFFFFFFFFFFFFFFFFFFFFFFFFFFFFFFFFFFFFFFFFFF NOT AND EQ DUP1 PUSH2 0x3F8 JUMPI POP PUSH32 0x1FFC9A700000000000000000000000000000000000000000000000000000000 PUSH28 0xFFFFFFFFFFFFFFFFFFFFFFFFFFFFFFFFFFFFFFFFFFFFFFFFFFFFFFFF NOT AND DUP3 PUSH28 0xFFFFFFFFFFFFFFFFFFFFFFFFFFFFFFFFFFFFFFFFFFFFFFFFFFFFFFFF NOT AND EQ JUMPDEST SWAP1 POP SWAP2 SWAP1 POP JUMP JUMPDEST PUSH1 0x0 DUP1 PUSH20 0xFFFFFFFFFFFFFFFFFFFFFFFFFFFFFFFFFFFFFFFF AND PUSH1 0x0 DUP1 DUP5 DUP2 MSTORE PUSH1 0x20 ADD SWAP1 DUP2 MSTORE PUSH1 0x20 ADD PUSH1 0x0 KECCAK256 PUSH1 0x0 SWAP1 SLOAD SWAP1 PUSH2 0x100 EXP SWAP1 DIV PUSH20 0xFFFFFFFFFFFFFFFFFFFFFFFFFFFFFFFFFFFFFFFF AND PUSH20 0xFFFFFFFFFFFFFFFFFFFFFFFFFFFFFFFFFFFFFFFF AND SUB PUSH2 0x4A1 JUMPI PUSH1 0x40 MLOAD PUSH32 0x8C379A000000000000000000000000000000000000000000000000000000000 DUP2 MSTORE PUSH1 0x4 ADD PUSH2 0x498 SWAP1 PUSH2 0x1B5F JUMP JUMPDEST PUSH1 0x40 MLOAD DUP1 SWAP2 SUB SWAP1 REVERT JUMPDEST PUSH1 0x2 PUSH1 0x0 DUP4 DUP2 MSTORE PUSH1 0x20 ADD SWAP1 DUP2 MSTORE PUSH1 0x20 ADD PUSH1 0x0 KECCAK256 PUSH1 0x0 SWAP1 SLOAD SWAP1 PUSH2 0x100 EXP SWAP1 DIV PUSH20 0xFFFFFFFFFFFFFFFFFFFFFFFFFFFFFFFFFFFFFFFF AND SWAP1 POP SWAP2 SWAP1 POP JUMP JUMPDEST PUSH1 0x0 DUP1 PUSH1 0x0 DUP4 DUP2 MSTORE PUSH1 0x20 ADD SWAP1 DUP2 MSTORE PUSH1 0x20 ADD PUSH1 0x0 KECCAK256 PUSH1 0x0 SWAP1 SLOAD SWAP1 PUSH2 0x100 EXP SWAP1 DIV PUSH20 0xFFFFFFFFFFFFFFFFFFFFFFFFFFFFFFFFFFFFFFFF AND SWAP1 POP DUP1 PUSH20 0xFFFFFFFFFFFFFFFFFFFFFFFFFFFFFFFFFFFFFFFF AND CALLER PUSH20 0xFFFFFFFFFFFFFFFFFFFFFFFFFFFFFFFFFFFFFFFF AND EQ DUP1 PUSH2 0x5D3 JUMPI POP PUSH1 0x3 PUSH1 0x0 DUP3 PUSH20 0xFFFFFFFFFFFFFFFFFFFFFFFFFFFFFFFFFFFFFFFF AND PUSH20 0xFFFFFFFFFFFFFFFFFFFFFFFFFFFFFFFFFFFFFFFF AND DUP2 MSTORE PUSH1 0x20 ADD SWAP1 DUP2 MSTORE PUSH1 0x20 ADD PUSH1 0x0 KECCAK256 PUSH1 0x0 CALLER PUSH20 0xFFFFFFFFFFFFFFFFFFFFFFFFFFFFFFFFFFFFFFFF AND PUSH20 0xFFFFFFFFFFFFFFFFFFFFFFFFFFFFFFFFFFFFFFFF AND DUP2 MSTORE PUSH1 0x20 ADD SWAP1 DUP2 MSTORE PUSH1 0x20 ADD PUSH1 0x0 KECCAK256 PUSH1 0x0 SWAP1 SLOAD SWAP1 PUSH2 0x100 EXP SWAP1 DIV PUSH1 0xFF AND JUMPDEST PUSH2 0x612 JUMPI PUSH1 0x40 MLOAD PUSH32 0x8C379A000000000000000000000000000000000000000000000000000000000 DUP2 MSTORE PUSH1 0x4 ADD PUSH2 0x609 SWAP1 PUSH2 0x1BCB JUMP JUMPDEST PUSH1 0x40 MLOAD DUP1 SWAP2 SUB SWAP1 REVERT JUMPDEST DUP3 PUSH1 0x2 PUSH1 0x0 DUP5 DUP2 MSTORE PUSH1 0x20 ADD SWAP1 DUP2 MSTORE PUSH1 0x20 ADD PUSH1 0x0 KECCAK256 PUSH1 0x0 PUSH2 0x100 EXP DUP2 SLOAD DUP2 PUSH20 0xFFFFFFFFFFFFFFFFFFFFFFFFFFFFFFFFFFFFFFFF MUL NOT AND SWAP1 DUP4 PUSH20 0xFFFFFFFFFFFFFFFFFFFFFFFFFFFFFFFFFFFFFFFF AND MUL OR SWAP1 SSTORE POP DUP2 DUP4 PUSH20 0xFFFFFFFFFFFFFFFFFFFFFFFFFFFFFFFFFFFFFFFF AND DUP3 PUSH20 0xFFFFFFFFFFFFFFFFFFFFFFFFFFFFFFFFFFFFFFFF AND PUSH32 0x8C5BE1E5EBEC7D5BD14F71427D1E84F3DD0314C0F7B2291E5B200AC8C7C3B925 PUSH1 0x40 MLOAD PUSH1 0x40 MLOAD DUP1 SWAP2 SUB SWAP1 LOG4 POP POP POP JUMP JUMPDEST PUSH1 0x4 PUSH1 0x0 SWAP1 SLOAD SWAP1 PUSH2 0x100 EXP SWAP1 DIV PUSH20 0xFFFFFFFFFFFFFFFFFFFFFFFFFFFFFFFFFFFFFFFF AND PUSH20 0xFFFFFFFFFFFFFFFFFFFFFFFFFFFFFFFFFFFFFFFF AND CALLER PUSH20 0xFFFFFFFFFFFFFFFFFFFFFFFFFFFFFFFFFFFFFFFF AND EQ PUSH2 0x754 JUMPI PUSH1 0x40 MLOAD PUSH32 0x8C379A000000000000000000000000000000000000000000000000000000000 DUP2 MSTORE PUSH1 0x4 ADD PUSH2 0x74B SWAP1 PUSH2 0x1C37 JUMP JUMPDEST PUSH1 0x40 MLOAD DUP1 SWAP2 SUB SWAP1 REVERT JUMPDEST PUSH2 0x760 CALLER PUSH1 0x5 SLOAD PUSH2 0x12F2 JUMP JUMPDEST PUSH1 0x1 PUSH1 0x5 PUSH1 0x0 DUP3 DUP3 SLOAD PUSH2 0x773 SWAP2 SWAP1 PUSH2 0x1C86 JUMP JUMPDEST SWAP3 POP POP DUP2 SWAP1 SSTORE POP JUMP JUMPDEST PUSH1 0x0 DUP1 DUP3 DUP2 MSTORE PUSH1 0x20 ADD SWAP1 DUP2 MSTORE PUSH1 0x20 ADD PUSH1 0x0 KECCAK256 PUSH1 0x0 SWAP1 SLOAD SWAP1 PUSH2 0x100 EXP SWAP1 DIV PUSH20 0xFFFFFFFFFFFFFFFFFFFFFFFFFFFFFFFFFFFFFFFF AND PUSH20 0xFFFFFFFFFFFFFFFFFFFFFFFFFFFFFFFFFFFFFFFF AND DUP4 PUSH20 0xFFFFFFFFFFFFFFFFFFFFFFFFFFFFFFFFFFFFFFFF AND EQ PUSH2 0x81C JUMPI PUSH1 0x40 MLOAD PUSH32 0x8C379A000000000000000000000000000000000000000000000000000000000 DUP2 MSTORE PUSH1 0x4 ADD PUSH2 0x813 SWAP1 PUSH2 0x1D06 JUMP JUMPDEST PUSH1 0x40 MLOAD DUP1 SWAP2 SUB SWAP1 REVERT JUMPDEST PUSH1 0x0 PUSH20 0xFFFFFFFFFFFFFFFFFFFFFFFFFFFFFFFFFFFFFFFF AND DUP3 PUSH20 0xFFFFFFFFFFFFFFFFFFFFFFFFFFFFFFFFFFFFFFFF AND SUB PUSH2 0x88B JUMPI PUSH1 0x40 MLOAD PUSH32 0x8C379A000000000000000000000000000000000000000000000000000000000 DUP2 MSTORE PUSH1 0x4 ADD PUSH2 0x882 SWAP1 PUSH2 0x1D72 JUMP JUMPDEST PUSH1 0x40 MLOAD DUP1 SWAP2 SUB SWAP1 REVERT JUMPDEST PUSH2 0x896 DUP4 CALLER DUP4 PUSH2 0x1508 JUMP JUMPDEST PUSH2 0x8D5 JUMPI PUSH1 0x40 MLOAD PUSH32 0x8C379A000000000000000000000000000000000000000000000000000000000 DUP2 MSTORE PUSH1 0x4 ADD PUSH2 0x8CC SWAP1 PUSH2 0x1BCB JUMP JUMPDEST PUSH1 0x40 MLOAD DUP1 SWAP2 SUB SWAP1 REVERT JUMPDEST PUSH1 0x1 PUSH1 0x0 DUP5 PUSH20 0xFFFFFFFFFFFFFFFFFFFFFFFFFFFFFFFFFFFFFFFF AND PUSH20 0xFFFFFFFFFFFFFFFFFFFFFFFFFFFFFFFFFFFFFFFF AND DUP2 MSTORE PUSH1 0x20 ADD SWAP1 DUP2 MSTORE PUSH1 0x20 ADD PUSH1 0x0 KECCAK256 PUSH1 0x0 DUP2 SLOAD DUP1 SWAP3 SWAP2 SWAP1 PUSH2 0x925 SWAP1 PUSH2 0x1D92 JUMP JUMPDEST SWAP2 SWAP1 POP SSTORE POP PUSH1 0x1 PUSH1 0x0 DUP4 PUSH20 0xFFFFFFFFFFFFFFFFFFFFFFFFFFFFFFFFFFFFFFFF AND PUSH20 0xFFFFFFFFFFFFFFFFFFFFFFFFFFFFFFFFFFFFFFFF AND DUP2 MSTORE PUSH1 0x20 ADD SWAP1 DUP2 MSTORE PUSH1 0x20 ADD PUSH1 0x0 KECCAK256 PUSH1 0x0 DUP2 SLOAD DUP1 SWAP3 SWAP2 SWAP1 PUSH2 0x97A SWAP1 PUSH2 0x1DBB JUMP JUMPDEST SWAP2 SWAP1 POP SSTORE POP DUP2 PUSH1 0x0 DUP1 DUP4 DUP2 MSTORE PUSH1 0x20 ADD SWAP1 DUP2 MSTORE PUSH1 0x20 ADD PUSH1 0x0 KECCAK256 PUSH1 0x0 PUSH2 0x100 EXP DUP2 SLOAD DUP2 PUSH20 0xFFFFFFFFFFFFFFFFFFFFFFFFFFFFFFFFFFFFFFFF MUL NOT AND SWAP1 DUP4 PUSH20 0xFFFFFFFFFFFFFFFFFFFFFFFFFFFFFFFFFFFFFFFF AND MUL OR SWAP1 SSTORE POP PUSH1 0x2 PUSH1 0x0 DUP3 DUP2 MSTORE PUSH1 0x20 ADD SWAP1 DUP2 MSTORE PUSH1 0x20 ADD PUSH1 0x0 KECCAK256 PUSH1 0x0 PUSH2 0x100 EXP DUP2 SLOAD SWAP1 PUSH20 0xFFFFFFFFFFFFFFFFFFFFFFFFFFFFFFFFFFFFFFFF MUL NOT AND SWAP1 SSTORE DUP1 DUP3 PUSH20 0xFFFFFFFFFFFFFFFFFFFFFFFFFFFFFFFFFFFFFFFF AND DUP5 PUSH20 0xFFFFFFFFFFFFFFFFFFFFFFFFFFFFFFFFFFFFFFFF AND PUSH32 0xDDF252AD1BE2C89B69C2B068FC378DAA952BA7F163C4A11628F55A4DF523B3EF PUSH1 0x40 MLOAD PUSH1 0x40 MLOAD DUP1 SWAP2 SUB SWAP1 LOG4 POP POP POP JUMP JUMPDEST PUSH2 0xA71 DUP4 DUP4 DUP4 PUSH2 0x77C JUMP JUMPDEST PUSH1 0x0 DUP3 PUSH20 0xFFFFFFFFFFFFFFFFFFFFFFFFFFFFFFFFFFFFFFFF AND EXTCODESIZE EQ DUP1 PUSH2 0xB5A JUMPI POP PUSH4 0x150B7A02 PUSH1 0xE0 SHL PUSH28 0xFFFFFFFFFFFFFFFFFFFFFFFFFFFFFFFFFFFFFFFFFFFFFFFFFFFFFFFF NOT AND DUP3 PUSH20 0xFFFFFFFFFFFFFFFFFFFFFFFFFFFFFFFFFFFFFFFF AND PUSH4 0x150B7A02 CALLER DUP7 DUP6 PUSH1 0x40 MLOAD DUP5 PUSH4 0xFFFFFFFF AND PUSH1 0xE0 SHL DUP2 MSTORE PUSH1 0x4 ADD PUSH2 0xAF6 SWAP4 SWAP3 SWAP2 SWAP1 PUSH2 0x1E3A JUMP JUMPDEST PUSH1 0x20 PUSH1 0x40 MLOAD DUP1 DUP4 SUB DUP2 PUSH1 0x0 DUP8 GAS CALL ISZERO DUP1 ISZERO PUSH2 0xB15 JUMPI RETURNDATASIZE PUSH1 0x0 DUP1 RETURNDATACOPY RETURNDATASIZE PUSH1 0x0 REVERT JUMPDEST POP POP POP POP PUSH1 0x40 MLOAD RETURNDATASIZE PUSH1 0x1F NOT PUSH1 0x1F DUP3 ADD AND DUP3 ADD DUP1 PUSH1 0x40 MSTORE POP DUP2 ADD SWAP1 PUSH2 0xB39 SWAP2 SWAP1 PUSH2 0x1E99 JUMP JUMPDEST PUSH28 0xFFFFFFFFFFFFFFFFFFFFFFFFFFFFFFFFFFFFFFFFFFFFFFFFFFFFFFFF NOT AND EQ JUMPDEST PUSH2 0xB99 JUMPI PUSH1 0x40 MLOAD PUSH32 0x8C379A000000000000000000000000000000000000000000000000000000000 DUP2 MSTORE PUSH1 0x4 ADD PUSH2 0xB90 SWAP1 PUSH2 0x1F12 JUMP JUMPDEST PUSH1 0x40 MLOAD DUP1 SWAP2 SUB SWAP1 REVERT JUMPDEST POP POP POP JUMP JUMPDEST PUSH1 0x0 DUP1 PUSH1 0x0 DUP4 DUP2 MSTORE PUSH1 0x20 ADD SWAP1 DUP2 MSTORE PUSH1 0x20 ADD PUSH1 0x0 KECCAK256 PUSH1 0x0 SWAP1 SLOAD SWAP1 PUSH2 0x100 EXP SWAP1 DIV PUSH20 0xFFFFFFFFFFFFFFFFFFFFFFFFFFFFFFFFFFFFFFFF AND SWAP1 POP PUSH1 0x0 PUSH20 0xFFFFFFFFFFFFFFFFFFFFFFFFFFFFFFFFFFFFFFFF AND DUP2 PUSH20 0xFFFFFFFFFFFFFFFFFFFFFFFFFFFFFFFFFFFFFFFF AND SUB PUSH2 0xC44 JUMPI PUSH1 0x40 MLOAD PUSH32 0x8C379A000000000000000000000000000000000000000000000000000000000 DUP2 MSTORE PUSH1 0x4 ADD PUSH2 0xC3B SWAP1 PUSH2 0x1B5F JUMP JUMPDEST PUSH1 0x40 MLOAD DUP1 SWAP2 SUB SWAP1 REVERT JUMPDEST SWAP2 SWAP1 POP JUMP JUMPDEST PUSH1 0x0 DUP1 PUSH20 0xFFFFFFFFFFFFFFFFFFFFFFFFFFFFFFFFFFFFFFFF AND DUP3 PUSH20 0xFFFFFFFFFFFFFFFFFFFFFFFFFFFFFFFFFFFFFFFF AND SUB PUSH2 0xCB9 JUMPI PUSH1 0x40 MLOAD PUSH32 0x8C379A000000000000000000000000000000000000000000000000000000000 DUP2 MSTORE PUSH1 0x4 ADD PUSH2 0xCB0 SWAP1 PUSH2 0x1F7E JUMP JUMPDEST PUSH1 0x40 MLOAD DUP1 SWAP2 SUB SWAP1 REVERT JUMPDEST PUSH1 0x1 PUSH1 0x0 DUP4 PUSH20 0xFFFFFFFFFFFFFFFFFFFFFFFFFFFFFFFFFFFFFFFF AND PUSH20 0xFFFFFFFFFFFFFFFFFFFFFFFFFFFFFFFFFFFFFFFF AND DUP2 MSTORE PUSH1 0x20 ADD SWAP1 DUP2 MSTORE PUSH1 0x20 ADD PUSH1 0x0 KECCAK256 SLOAD SWAP1 POP SWAP2 SWAP1 POP JUMP JUMPDEST PUSH1 0x6 PUSH1 0x20 MSTORE DUP2 PUSH1 0x0 MSTORE PUSH1 0x40 PUSH1 0x0 KECCAK256 PUSH1 0x20 MSTORE DUP1 PUSH1 0x0 MSTORE PUSH1 0x40 PUSH1 0x0 KECCAK256 PUSH1 0x0 SWAP2 POP SWAP2 POP POP SLOAD DUP2 JUMP JUMPDEST PUSH1 0x4 PUSH1 0x0 SWAP1 SLOAD SWAP1 PUSH2 0x100 EXP SWAP1 DIV PUSH20 0xFFFFFFFFFFFFFFFFFFFFFFFFFFFFFFFFFFFFFFFF AND PUSH20 0xFFFFFFFFFFFFFFFFFFFFFFFFFFFFFFFFFFFFFFFF AND CALLER PUSH20 0xFFFFFFFFFFFFFFFFFFFFFFFFFFFFFFFFFFFFFFFF AND EQ PUSH2 0xDB5 JUMPI PUSH1 0x40 MLOAD PUSH32 0x8C379A000000000000000000000000000000000000000000000000000000000 DUP2 MSTORE PUSH1 0x4 ADD PUSH2 0xDAC SWAP1 PUSH2 0x1C37 JUMP JUMPDEST PUSH1 0x40 MLOAD DUP1 SWAP2 SUB SWAP1 REVERT JUMPDEST DUP1 PUSH1 0x4 PUSH1 0x0 PUSH2 0x100 EXP DUP2 SLOAD DUP2 PUSH20 0xFFFFFFFFFFFFFFFFFFFFFFFFFFFFFFFFFFFFFFFF MUL NOT AND SWAP1 DUP4 PUSH20 0xFFFFFFFFFFFFFFFFFFFFFFFFFFFFFFFFFFFFFFFF AND MUL OR SWAP1 SSTORE POP DUP1 PUSH20 0xFFFFFFFFFFFFFFFFFFFFFFFFFFFFFFFFFFFFFFFF AND PUSH32 0x84022644CE39DE434E8F39C4398A3628815893104188274C37205D41C2D50967 PUSH1 0x40 MLOAD PUSH1 0x40 MLOAD DUP1 SWAP2 SUB SWAP1 LOG2 POP JUMP JUMPDEST PUSH1 0x4 PUSH1 0x0 SWAP1 SLOAD SWAP1 PUSH2 0x100 EXP SWAP1 DIV PUSH20 0xFFFFFFFFFFFFFFFFFFFFFFFFFFFFFFFFFFFFFFFF AND DUP2 JUMP JUMPDEST DUP1 PUSH1 0x3 PUSH1 0x0 CALLER PUSH20 0xFFFFFFFFFFFFFFFFFFFFFFFFFFFFFFFFFFFFFFFF AND PUSH20 0xFFFFFFFFFFFFFFFFFFFFFFFFFFFFFFFFFFFFFFFF AND DUP2 MSTORE PUSH1 0x20 ADD SWAP1 DUP2 MSTORE PUSH1 0x20 ADD PUSH1 0x0 KECCAK256 PUSH1 0x0 DUP5 PUSH20 0xFFFFFFFFFFFFFFFFFFFFFFFFFFFFFFFFFFFFFFFF AND PUSH20 0xFFFFFFFFFFFFFFFFFFFFFFFFFFFFFFFFFFFFFFFF AND DUP2 MSTORE PUSH1 0x20 ADD SWAP1 DUP2 MSTORE PUSH1 0x20 ADD PUSH1 0x0 KECCAK256 PUSH1 0x0 PUSH2 0x100 EXP DUP2 SLOAD DUP2 PUSH1 0xFF MUL NOT AND SWAP1 DUP4 ISZERO ISZERO MUL OR SWAP1 SSTORE POP DUP2 PUSH20 0xFFFFFFFFFFFFFFFFFFFFFFFFFFFFFFFFFFFFFFFF AND CALLER PUSH20 0xFFFFFFFFFFFFFFFFFFFFFFFFFFFFFFFFFFFFFFFF AND PUSH32 0x17307EAB39AB6107E8899845AD3D59BD9653F200F220920489CA2B5937696C31 DUP4 PUSH1 0x40 MLOAD PUSH2 0xF53 SWAP2 SWAP1 PUSH2 0x16E6 JUMP JUMPDEST PUSH1 0x40 MLOAD DUP1 SWAP2 SUB SWAP1 LOG3 POP POP JUMP JUMPDEST PUSH2 0xF6A DUP6 DUP6 DUP6 PUSH2 0x77C JUMP JUMPDEST PUSH1 0x0 DUP5 PUSH20 0xFFFFFFFFFFFFFFFFFFFFFFFFFFFFFFFFFFFFFFFF AND EXTCODESIZE EQ DUP1 PUSH2 0x1057 JUMPI POP PUSH4 0x150B7A02 PUSH1 0xE0 SHL PUSH28 0xFFFFFFFFFFFFFFFFFFFFFFFFFFFFFFFFFFFFFFFFFFFFFFFFFFFFFFFF NOT AND DUP5 PUSH20 0xFFFFFFFFFFFFFFFFFFFFFFFFFFFFFFFFFFFFFFFF AND PUSH4 0x150B7A02 CALLER DUP9 DUP8 DUP8 DUP8 PUSH1 0x40 MLOAD DUP7 PUSH4 0xFFFFFFFF AND PUSH1 0xE0 SHL DUP2 MSTORE PUSH1 0x4 ADD PUSH2 0xFF3 SWAP6 SWAP5 SWAP4 SWAP3 SWAP2 SWAP1 PUSH2 0x1FEB JUMP JUMPDEST PUSH1 0x20 PUSH1 0x40 MLOAD DUP1 DUP4 SUB DUP2 PUSH1 0x0 DUP8 GAS CALL ISZERO DUP1 ISZERO PUSH2 0x1012 JUMPI RETURNDATASIZE PUSH1 0x0 DUP1 RETURNDATACOPY RETURNDATASIZE PUSH1 0x0 REVERT JUMPDEST POP POP POP POP PUSH1 0x40 MLOAD RETURNDATASIZE PUSH1 0x1F NOT PUSH1 0x1F DUP3 ADD AND DUP3 ADD DUP1 PUSH1 0x40 MSTORE POP DUP2 ADD SWAP1 PUSH2 0x1036 SWAP2 SWAP1 PUSH2 0x1E99 JUMP JUMPDEST PUSH28 0xFFFFFFFFFFFFFFFFFFFFFFFFFFFFFFFFFFFFFFFFFFFFFFFFFFFFFFFF NOT AND EQ JUMPDEST PUSH2 0x1096 JUMPI PUSH1 0x40 MLOAD PUSH32 0x8C379A000000000000000000000000000000000000000000000000000000000 DUP2 MSTORE PUSH1 0x4 ADD PUSH2 0x108D SWAP1 PUSH2 0x1F12 JUMP JUMPDEST PUSH1 0x40 MLOAD DUP1 SWAP2 SUB SWAP1 REVERT JUMPDEST POP POP POP POP POP JUMP JUMPDEST DUP2 PUSH20 0xFFFFFFFFFFFFFFFFFFFFFFFFFFFFFFFFFFFFFFFF AND PUSH4 0x23B872DD CALLER ADDRESS DUP5 PUSH1 0x40 MLOAD DUP5 PUSH4 0xFFFFFFFF AND PUSH1 0xE0 SHL DUP2 MSTORE PUSH1 0x4 ADD PUSH2 0x10DA SWAP4 SWAP3 SWAP2 SWAP1 PUSH2 0x2039 JUMP JUMPDEST PUSH1 0x20 PUSH1 0x40 MLOAD DUP1 DUP4 SUB DUP2 PUSH1 0x0 DUP8 GAS CALL ISZERO DUP1 ISZERO PUSH2 0x10F9 JUMPI RETURNDATASIZE PUSH1 0x0 DUP1 RETURNDATACOPY RETURNDATASIZE PUSH1 0x0 REVERT JUMPDEST POP POP POP POP PUSH1 0x40 MLOAD RETURNDATASIZE PUSH1 0x1F NOT PUSH1 0x1F DUP3 ADD AND DUP3 ADD DUP1 PUSH1 0x40 MSTORE POP DUP2 ADD SWAP1 PUSH2 0x111D SWAP2 SWAP1 PUSH2 0x2085 JUMP JUMPDEST POP DUP1 PUSH1 0x6 PUSH1 0x0 DUP6 DUP2 MSTORE PUSH1 0x20 ADD SWAP1 DUP2 MSTORE PUSH1 0x20 ADD PUSH1 0x0 KECCAK256 PUSH1 0x0 DUP5 PUSH20 0xFFFFFFFFFFFFFFFFFFFFFFFFFFFFFFFFFFFFFFFF AND PUSH20 0xFFFFFFFFFFFFFFFFFFFFFFFFFFFFFFFFFFFFFFFF AND DUP2 MSTORE PUSH1 0x20 ADD SWAP1 DUP2 MSTORE PUSH1 0x20 ADD PUSH1 0x0 KECCAK256 DUP2 SWAP1 SSTORE POP POP POP POP JUMP JUMPDEST PUSH1 0x3 PUSH1 0x20 MSTORE DUP2 PUSH1 0x0 MSTORE PUSH1 0x40 PUSH1 0x0 KECCAK256 PUSH1 0x20 MSTORE DUP1 PUSH1 0x0 MSTORE PUSH1 0x40 PUSH1 0x0 KECCAK256 PUSH1 0x0 SWAP2 POP SWAP2 POP SWAP1 SLOAD SWAP1 PUSH2 0x100 EXP SWAP1 DIV PUSH1 0xFF AND DUP2 JUMP JUMPDEST PUSH1 0x0 DUP1 DUP5 DUP2 MSTORE PUSH1 0x20 ADD SWAP1 DUP2 MSTORE PUSH1 0x20 ADD PUSH1 0x0 KECCAK256 PUSH1 0x0 SWAP1 SLOAD SWAP1 PUSH2 0x100 EXP SWAP1 DIV PUSH20 0xFFFFFFFFFFFFFFFFFFFFFFFFFFFFFFFFFFFFFFFF AND PUSH20 0xFFFFFFFFFFFFFFFFFFFFFFFFFFFFFFFFFFFFFFFF AND CALLER PUSH20 0xFFFFFFFFFFFFFFFFFFFFFFFFFFFFFFFFFFFFFFFF AND EQ PUSH2 0x1211 JUMPI PUSH1 0x0 DUP1 REVERT JUMPDEST DUP1 PUSH1 0x6 PUSH1 0x0 DUP6 DUP2 MSTORE PUSH1 0x20 ADD SWAP1 DUP2 MSTORE PUSH1 0x20 ADD PUSH1 0x0 KECCAK256 PUSH1 0x0 DUP5 PUSH20 0xFFFFFFFFFFFFFFFFFFFFFFFFFFFFFFFFFFFFFFFF AND PUSH20 0xFFFFFFFFFFFFFFFFFFFFFFFFFFFFFFFFFFFFFFFF AND DUP2 MSTORE PUSH1 0x20 ADD SWAP1 DUP2 MSTORE PUSH1 0x20 ADD PUSH1 0x0 KECCAK256 SLOAD LT ISZERO PUSH2 0x126E JUMPI PUSH1 0x0 DUP1 REVERT JUMPDEST DUP2 PUSH20 0xFFFFFFFFFFFFFFFFFFFFFFFFFFFFFFFFFFFFFFFF AND PUSH4 0xA9059CBB CALLER DUP4 PUSH1 0x40 MLOAD DUP4 PUSH4 0xFFFFFFFF AND PUSH1 0xE0 SHL DUP2 MSTORE PUSH1 0x4 ADD PUSH2 0x12A9 SWAP3 SWAP2 SWAP1 PUSH2 0x20B2 JUMP JUMPDEST PUSH1 0x20 PUSH1 0x40 MLOAD DUP1 DUP4 SUB DUP2 PUSH1 0x0 DUP8 GAS CALL ISZERO DUP1 ISZERO PUSH2 0x12C8 JUMPI RETURNDATASIZE PUSH1 0x0 DUP1 RETURNDATACOPY RETURNDATASIZE PUSH1 0x0 REVERT JUMPDEST POP POP POP POP PUSH1 0x40 MLOAD RETURNDATASIZE PUSH1 0x1F NOT PUSH1 0x1F DUP3 ADD AND DUP3 ADD DUP1 PUSH1 0x40 MSTORE POP DUP2 ADD SWAP1 PUSH2 0x12EC SWAP2 SWAP1 PUSH2 0x2085 JUMP JUMPDEST POP POP POP POP JUMP JUMPDEST PUSH1 0x0 PUSH20 0xFFFFFFFFFFFFFFFFFFFFFFFFFFFFFFFFFFFFFFFF AND DUP3 PUSH20 0xFFFFFFFFFFFFFFFFFFFFFFFFFFFFFFFFFFFFFFFF AND SUB PUSH2 0x1361 JUMPI PUSH1 0x40 MLOAD PUSH32 0x8C379A000000000000000000000000000000000000000000000000000000000 DUP2 MSTORE PUSH1 0x4 ADD PUSH2 0x1358 SWAP1 PUSH2 0x2127 JUMP JUMPDEST PUSH1 0x40 MLOAD DUP1 SWAP2 SUB SWAP1 REVERT JUMPDEST PUSH1 0x0 PUSH20 0xFFFFFFFFFFFFFFFFFFFFFFFFFFFFFFFFFFFFFFFF AND PUSH1 0x0 DUP1 DUP4 DUP2 MSTORE PUSH1 0x20 ADD SWAP1 DUP2 MSTORE PUSH1 0x20 ADD PUSH1 0x0 KECCAK256 PUSH1 0x0 SWAP1 SLOAD SWAP1 PUSH2 0x100 EXP SWAP1 DIV PUSH20 0xFFFFFFFFFFFFFFFFFFFFFFFFFFFFFFFFFFFFFFFF AND PUSH20 0xFFFFFFFFFFFFFFFFFFFFFFFFFFFFFFFFFFFFFFFF AND EQ PUSH2 0x1402 JUMPI PUSH1 0x40 MLOAD PUSH32 0x8C379A000000000000000000000000000000000000000000000000000000000 DUP2 MSTORE PUSH1 0x4 ADD PUSH2 0x13F9 SWAP1 PUSH2 0x2193 JUMP JUMPDEST PUSH1 0x40 MLOAD DUP1 SWAP2 SUB SWAP1 REVERT JUMPDEST PUSH1 0x1 PUSH1 0x0 DUP4 PUSH20 0xFFFFFFFFFFFFFFFFFFFFFFFFFFFFFFFFFFFFFFFF AND PUSH20 0xFFFFFFFFFFFFFFFFFFFFFFFFFFFFFFFFFFFFFFFF AND DUP2 MSTORE PUSH1 0x20 ADD SWAP1 DUP2 MSTORE PUSH1 0x20 ADD PUSH1 0x0 KECCAK256 PUSH1 0x0 DUP2 SLOAD DUP1 SWAP3 SWAP2 SWAP1 PUSH2 0x1452 SWAP1 PUSH2 0x1DBB JUMP JUMPDEST SWAP2 SWAP1 POP SSTORE POP DUP2 PUSH1 0x0 DUP1 DUP4 DUP2 MSTORE PUSH1 0x20 ADD SWAP1 DUP2 MSTORE PUSH1 0x20 ADD PUSH1 0x0 KECCAK256 PUSH1 0x0 PUSH2 0x100 EXP DUP2 SLOAD DUP2 PUSH20 0xFFFFFFFFFFFFFFFFFFFFFFFFFFFFFFFFFFFFFFFF MUL NOT AND SWAP1 DUP4 PUSH20 0xFFFFFFFFFFFFFFFFFFFFFFFFFFFFFFFFFFFFFFFF AND MUL OR SWAP1 SSTORE POP DUP1 DUP3 PUSH20 0xFFFFFFFFFFFFFFFFFFFFFFFFFFFFFFFFFFFFFFFF AND PUSH1 0x0 PUSH20 0xFFFFFFFFFFFFFFFFFFFFFFFFFFFFFFFFFFFFFFFF AND PUSH32 0xDDF252AD1BE2C89B69C2B068FC378DAA952BA7F163C4A11628F55A4DF523B3EF PUSH1 0x40 MLOAD PUSH1 0x40 MLOAD DUP1 SWAP2 SUB SWAP1 LOG4 POP POP JUMP JUMPDEST PUSH1 0x0 DUP4 PUSH20 0xFFFFFFFFFFFFFFFFFFFFFFFFFFFFFFFFFFFFFFFF AND DUP4 PUSH20 0xFFFFFFFFFFFFFFFFFFFFFFFFFFFFFFFFFFFFFFFF AND EQ DUP1 PUSH2 0x15CA JUMPI POP PUSH1 0x3 PUSH1 0x0 DUP6 PUSH20 0xFFFFFFFFFFFFFFFFFFFFFFFFFFFFFFFFFFFFFFFF AND PUSH20 0xFFFFFFFFFFFFFFFFFFFFFFFFFFFFFFFFFFFFFFFF AND DUP2 MSTORE PUSH1 0x20 ADD SWAP1 DUP2 MSTORE PUSH1 0x20 ADD PUSH1 0x0 KECCAK256 PUSH1 0x0 DUP5 PUSH20 0xFFFFFFFFFFFFFFFFFFFFFFFFFFFFFFFFFFFFFFFF AND PUSH20 0xFFFFFFFFFFFFFFFFFFFFFFFFFFFFFFFFFFFFFFFF AND DUP2 MSTORE PUSH1 0x20 ADD SWAP1 DUP2 MSTORE PUSH1 0x20 ADD PUSH1 0x0 KECCAK256 PUSH1 0x0 SWAP1 SLOAD SWAP1 PUSH2 0x100 EXP SWAP1 DIV PUSH1 0xFF AND JUMPDEST DUP1 PUSH2 0x1633 JUMPI POP PUSH1 0x2 PUSH1 0x0 DUP4 DUP2 MSTORE PUSH1 0x20 ADD SWAP1 DUP2 MSTORE PUSH1 0x20 ADD PUSH1 0x0 KECCAK256 PUSH1 0x0 SWAP1 SLOAD SWAP1 PUSH2 0x100 EXP SWAP1 DIV PUSH20 0xFFFFFFFFFFFFFFFFFFFFFFFFFFFFFFFFFFFFFFFF AND PUSH20 0xFFFFFFFFFFFFFFFFFFFFFFFFFFFFFFFFFFFFFFFF AND DUP4 PUSH20 0xFFFFFFFFFFFFFFFFFFFFFFFFFFFFFFFFFFFFFFFF AND EQ JUMPDEST SWAP1 POP SWAP4 SWAP3 POP POP POP JUMP JUMPDEST PUSH1 0x0 DUP1 REVERT JUMPDEST PUSH1 0x0 DUP1 REVERT JUMPDEST PUSH1 0x0 PUSH32 0xFFFFFFFF00000000000000000000000000000000000000000000000000000000 DUP3 AND SWAP1 POP SWAP2 SWAP1 POP JUMP JUMPDEST PUSH2 0x167B DUP2 PUSH2 0x1646 JUMP JUMPDEST DUP2 EQ PUSH2 0x1686 JUMPI PUSH1 0x0 DUP1 REVERT JUMPDEST POP JUMP JUMPDEST PUSH1 0x0 DUP2 CALLDATALOAD SWAP1 POP PUSH2 0x1698 DUP2 PUSH2 0x1672 JUMP JUMPDEST SWAP3 SWAP2 POP POP JUMP JUMPDEST PUSH1 0x0 PUSH1 0x20 DUP3 DUP5 SUB SLT ISZERO PUSH2 0x16B4 JUMPI PUSH2 0x16B3 PUSH2 0x163C JUMP JUMPDEST JUMPDEST PUSH1 0x0 PUSH2 0x16C2 DUP5 DUP3 DUP6 ADD PUSH2 0x1689 JUMP JUMPDEST SWAP2 POP POP SWAP3 SWAP2 POP POP JUMP JUMPDEST PUSH1 0x0 DUP2 ISZERO ISZERO SWAP1 POP SWAP2 SWAP1 POP JUMP JUMPDEST PUSH2 0x16E0 DUP2 PUSH2 0x16CB JUMP JUMPDEST DUP3 MSTORE POP POP JUMP JUMPDEST PUSH1 0x0 PUSH1 0x20 DUP3 ADD SWAP1 POP PUSH2 0x16FB PUSH1 0x0 DUP4 ADD DUP5 PUSH2 0x16D7 JUMP JUMPDEST SWAP3 SWAP2 POP POP JUMP JUMPDEST PUSH1 0x0 DUP2 SWAP1 POP SWAP2 SWAP1 POP JUMP JUMPDEST PUSH2 0x1714 DUP2 PUSH2 0x1701 JUMP JUMPDEST DUP2 EQ PUSH2 0x171F JUMPI PUSH1 0x0 DUP1 REVERT JUMPDEST POP JUMP JUMPDEST PUSH1 0x0 DUP2 CALLDATALOAD SWAP1 POP PUSH2 0x1731 DUP2 PUSH2 0x170B JUMP JUMPDEST SWAP3 SWAP2 POP POP JUMP JUMPDEST PUSH1 0x0 PUSH1 0x20 DUP3 DUP5 SUB SLT ISZERO PUSH2 0x174D JUMPI PUSH2 0x174C PUSH2 0x163C JUMP JUMPDEST JUMPDEST PUSH1 0x0 PUSH2 0x175B DUP5 DUP3 DUP6 ADD PUSH2 0x1722 JUMP JUMPDEST SWAP2 POP POP SWAP3 SWAP2 POP POP JUMP JUMPDEST PUSH1 0x0 PUSH20 0xFFFFFFFFFFFFFFFFFFFFFFFFFFFFFFFFFFFFFFFF DUP3 AND SWAP1 POP SWAP2 SWAP1 POP JUMP JUMPDEST PUSH1 0x0 PUSH2 0x178F DUP3 PUSH2 0x1764 JUMP JUMPDEST SWAP1 POP SWAP2 SWAP1 POP JUMP JUMPDEST PUSH2 0x179F DUP2 PUSH2 0x1784 JUMP JUMPDEST DUP3 MSTORE POP POP JUMP JUMPDEST PUSH1 0x0 PUSH1 0x20 DUP3 ADD SWAP1 POP PUSH2 0x17BA PUSH1 0x0 DUP4 ADD DUP5 PUSH2 0x1796 JUMP JUMPDEST SWAP3 SWAP2 POP POP JUMP JUMPDEST PUSH2 0x17C9 DUP2 PUSH2 0x1784 JUMP JUMPDEST DUP2 EQ PUSH2 0x17D4 JUMPI PUSH1 0x0 DUP1 REVERT JUMPDEST POP JUMP JUMPDEST PUSH1 0x0 DUP2 CALLDATALOAD SWAP1 POP PUSH2 0x17E6 DUP2 PUSH2 0x17C0 JUMP JUMPDEST SWAP3 SWAP2 POP POP JUMP JUMPDEST PUSH1 0x0 DUP1 PUSH1 0x40 DUP4 DUP6 SUB SLT ISZERO PUSH2 0x1803 JUMPI PUSH2 0x1802 PUSH2 0x163C JUMP JUMPDEST JUMPDEST PUSH1 0x0 PUSH2 0x1811 DUP6 DUP3 DUP7 ADD PUSH2 0x17D7 JUMP JUMPDEST SWAP3 POP POP PUSH1 0x20 PUSH2 0x1822 DUP6 DUP3 DUP7 ADD PUSH2 0x1722 JUMP JUMPDEST SWAP2 POP POP SWAP3 POP SWAP3 SWAP1 POP JUMP JUMPDEST PUSH1 0x0 DUP1 PUSH1 0x0 PUSH1 0x60 DUP5 DUP7 SUB SLT ISZERO PUSH2 0x1845 JUMPI PUSH2 0x1844 PUSH2 0x163C JUMP JUMPDEST JUMPDEST PUSH1 0x0 PUSH2 0x1853 DUP7 DUP3 DUP8 ADD PUSH2 0x17D7 JUMP JUMPDEST SWAP4 POP POP PUSH1 0x20 PUSH2 0x1864 DUP7 DUP3 DUP8 ADD PUSH2 0x17D7 JUMP JUMPDEST SWAP3 POP POP PUSH1 0x40 PUSH2 0x1875 DUP7 DUP3 DUP8 ADD PUSH2 0x1722 JUMP JUMPDEST SWAP2 POP POP SWAP3 POP SWAP3 POP SWAP3 JUMP JUMPDEST PUSH1 0x0 PUSH1 0x20 DUP3 DUP5 SUB SLT ISZERO PUSH2 0x1895 JUMPI PUSH2 0x1894 PUSH2 0x163C JUMP JUMPDEST JUMPDEST PUSH1 0x0 PUSH2 0x18A3 DUP5 DUP3 DUP6 ADD PUSH2 0x17D7 JUMP JUMPDEST SWAP2 POP POP SWAP3 SWAP2 POP POP JUMP JUMPDEST PUSH2 0x18B5 DUP2 PUSH2 0x1701 JUMP JUMPDEST DUP3 MSTORE POP POP JUMP JUMPDEST PUSH1 0x0 PUSH1 0x20 DUP3 ADD SWAP1 POP PUSH2 0x18D0 PUSH1 0x0 DUP4 ADD DUP5 PUSH2 0x18AC JUMP JUMPDEST SWAP3 SWAP2 POP POP JUMP JUMPDEST PUSH1 0x0 DUP1 PUSH1 0x40 DUP4 DUP6 SUB SLT ISZERO PUSH2 0x18ED JUMPI PUSH2 0x18EC PUSH2 0x163C JUMP JUMPDEST JUMPDEST PUSH1 0x0 PUSH2 0x18FB DUP6 DUP3 DUP7 ADD PUSH2 0x1722 JUMP JUMPDEST SWAP3 POP POP PUSH1 0x20 PUSH2 0x190C DUP6 DUP3 DUP7 ADD PUSH2 0x17D7 JUMP JUMPDEST SWAP2 POP POP SWAP3 POP SWAP3 SWAP1 POP JUMP JUMPDEST PUSH2 0x191F DUP2 PUSH2 0x16CB JUMP JUMPDEST DUP2 EQ PUSH2 0x192A JUMPI PUSH1 0x0 DUP1 REVERT JUMPDEST POP JUMP JUMPDEST PUSH1 0x0 DUP2 CALLDATALOAD SWAP1 POP PUSH2 0x193C DUP2 PUSH2 0x1916 JUMP JUMPDEST SWAP3 SWAP2 POP POP JUMP JUMPDEST PUSH1 0x0 DUP1 PUSH1 0x40 DUP4 DUP6 SUB SLT ISZERO PUSH2 0x1959 JUMPI PUSH2 0x1958 PUSH2 0x163C JUMP JUMPDEST JUMPDEST PUSH1 0x0 PUSH2 0x1967 DUP6 DUP3 DUP7 ADD PUSH2 0x17D7 JUMP JUMPDEST SWAP3 POP POP PUSH1 0x20 PUSH2 0x1978 DUP6 DUP3 DUP7 ADD PUSH2 0x192D JUMP JUMPDEST SWAP2 POP POP SWAP3 POP SWAP3 SWAP1 POP JUMP JUMPDEST PUSH1 0x0 DUP1 REVERT JUMPDEST PUSH1 0x0 DUP1 REVERT JUMPDEST PUSH1 0x0 DUP1 REVERT JUMPDEST PUSH1 0x0 DUP1 DUP4 PUSH1 0x1F DUP5 ADD SLT PUSH2 0x19A7 JUMPI PUSH2 0x19A6 PUSH2 0x1982 JUMP JUMPDEST JUMPDEST DUP3 CALLDATALOAD SWAP1 POP PUSH8 0xFFFFFFFFFFFFFFFF DUP2 GT ISZERO PUSH2 0x19C4 JUMPI PUSH2 0x19C3 PUSH2 0x1987 JUMP JUMPDEST JUMPDEST PUSH1 0x20 DUP4 ADD SWAP2 POP DUP4 PUSH1 0x1 DUP3 MUL DUP4 ADD GT ISZERO PUSH2 0x19E0 JUMPI PUSH2 0x19DF PUSH2 0x198C JUMP JUMPDEST JUMPDEST SWAP3 POP SWAP3 SWAP1 POP JUMP JUMPDEST PUSH1 0x0 DUP1 PUSH1 0x0 DUP1 PUSH1 0x0 PUSH1 0x80 DUP7 DUP9 SUB SLT ISZERO PUSH2 0x1A03 JUMPI PUSH2 0x1A02 PUSH2 0x163C JUMP JUMPDEST JUMPDEST PUSH1 0x0 PUSH2 0x1A11 DUP9 DUP3 DUP10 ADD PUSH2 0x17D7 JUMP JUMPDEST SWAP6 POP POP PUSH1 0x20 PUSH2 0x1A22 DUP9 DUP3 DUP10 ADD PUSH2 0x17D7 JUMP JUMPDEST SWAP5 POP POP PUSH1 0x40 PUSH2 0x1A33 DUP9 DUP3 DUP10 ADD PUSH2 0x1722 JUMP JUMPDEST SWAP4 POP POP PUSH1 0x60 DUP7 ADD CALLDATALOAD PUSH8 0xFFFFFFFFFFFFFFFF DUP2 GT ISZERO PUSH2 0x1A54 JUMPI PUSH2 0x1A53 PUSH2 0x1641 JUMP JUMPDEST JUMPDEST PUSH2 0x1A60 DUP9 DUP3 DUP10 ADD PUSH2 0x1991 JUMP JUMPDEST SWAP3 POP SWAP3 POP POP SWAP3 SWAP6 POP SWAP3 SWAP6 SWAP1 SWAP4 POP JUMP JUMPDEST PUSH1 0x0 DUP1 PUSH1 0x0 PUSH1 0x60 DUP5 DUP7 SUB SLT ISZERO PUSH2 0x1A88 JUMPI PUSH2 0x1A87 PUSH2 0x163C JUMP JUMPDEST JUMPDEST PUSH1 0x0 PUSH2 0x1A96 DUP7 DUP3 DUP8 ADD PUSH2 0x1722 JUMP JUMPDEST SWAP4 POP POP PUSH1 0x20 PUSH2 0x1AA7 DUP7 DUP3 DUP8 ADD PUSH2 0x17D7 JUMP JUMPDEST SWAP3 POP POP PUSH1 0x40 PUSH2 0x1AB8 DUP7 DUP3 DUP8 ADD PUSH2 0x1722 JUMP JUMPDEST SWAP2 POP POP SWAP3 POP SWAP3 POP SWAP3 JUMP JUMPDEST PUSH1 0x0 DUP1 PUSH1 0x40 DUP4 DUP6 SUB SLT ISZERO PUSH2 0x1AD9 JUMPI PUSH2 0x1AD8 PUSH2 0x163C JUMP JUMPDEST JUMPDEST PUSH1 0x0 PUSH2 0x1AE7 DUP6 DUP3 DUP7 ADD PUSH2 0x17D7 JUMP JUMPDEST SWAP3 POP POP PUSH1 0x20 PUSH2 0x1AF8 DUP6 DUP3 DUP7 ADD PUSH2 0x17D7 JUMP JUMPDEST SWAP2 POP POP SWAP3 POP SWAP3 SWAP1 POP JUMP JUMPDEST PUSH1 0x0 DUP3 DUP3 MSTORE PUSH1 0x20 DUP3 ADD SWAP1 POP SWAP3 SWAP2 POP POP JUMP JUMPDEST PUSH32 0x746F6B656E20646F65736E277420657869737400000000000000000000000000 PUSH1 0x0 DUP3 ADD MSTORE POP JUMP JUMPDEST PUSH1 0x0 PUSH2 0x1B49 PUSH1 0x13 DUP4 PUSH2 0x1B02 JUMP JUMPDEST SWAP2 POP PUSH2 0x1B54 DUP3 PUSH2 0x1B13 JUMP JUMPDEST PUSH1 0x20 DUP3 ADD SWAP1 POP SWAP2 SWAP1 POP JUMP JUMPDEST PUSH1 0x0 PUSH1 0x20 DUP3 ADD SWAP1 POP DUP2 DUP2 SUB PUSH1 0x0 DUP4 ADD MSTORE PUSH2 0x1B78 DUP2 PUSH2 0x1B3C JUMP JUMPDEST SWAP1 POP SWAP2 SWAP1 POP JUMP JUMPDEST PUSH32 0x6E6F7420617574686F72697A6564000000000000000000000000000000000000 PUSH1 0x0 DUP3 ADD MSTORE POP JUMP JUMPDEST PUSH1 0x0 PUSH2 0x1BB5 PUSH1 0xE DUP4 PUSH2 0x1B02 JUMP JUMPDEST SWAP2 POP PUSH2 0x1BC0 DUP3 PUSH2 0x1B7F JUMP JUMPDEST PUSH1 0x20 DUP3 ADD SWAP1 POP SWAP2 SWAP1 POP JUMP JUMPDEST PUSH1 0x0 PUSH1 0x20 DUP3 ADD SWAP1 POP DUP2 DUP2 SUB PUSH1 0x0 DUP4 ADD MSTORE PUSH2 0x1BE4 DUP2 PUSH2 0x1BA8 JUMP JUMPDEST SWAP1 POP SWAP2 SWAP1 POP JUMP JUMPDEST PUSH32 0x6F6E6C79206F776E657200000000000000000000000000000000000000000000 PUSH1 0x0 DUP3 ADD MSTORE POP JUMP JUMPDEST PUSH1 0x0 PUSH2 0x1C21 PUSH1 0xA DUP4 PUSH2 0x1B02 JUMP JUMPDEST SWAP2 POP PUSH2 0x1C2C DUP3 PUSH2 0x1BEB JUMP JUMPDEST PUSH1 0x20 DUP3 ADD SWAP1 POP SWAP2 SWAP1 POP JUMP JUMPDEST PUSH1 0x0 PUSH1 0x20 DUP3 ADD SWAP1 POP DUP2 DUP2 SUB PUSH1 0x0 DUP4 ADD MSTORE PUSH2 0x1C50 DUP2 PUSH2 0x1C14 JUMP JUMPDEST SWAP1 POP SWAP2 SWAP1 POP JUMP JUMPDEST PUSH32 0x4E487B7100000000000000000000000000000000000000000000000000000000 PUSH1 0x0 MSTORE PUSH1 0x11 PUSH1 0x4 MSTORE PUSH1 0x24 PUSH1 0x0 REVERT JUMPDEST PUSH1 0x0 PUSH2 0x1C91 DUP3 PUSH2 0x1701 JUMP JUMPDEST SWAP2 POP PUSH2 0x1C9C DUP4 PUSH2 0x1701 JUMP JUMPDEST SWAP3 POP DUP3 DUP3 ADD SWAP1 POP DUP1 DUP3 GT ISZERO PUSH2 0x1CB4 JUMPI PUSH2 0x1CB3 PUSH2 0x1C57 JUMP JUMPDEST JUMPDEST SWAP3 SWAP2 POP POP JUMP JUMPDEST PUSH32 0x66726F6D20213D206F776E657200000000000000000000000000000000000000 PUSH1 0x0 DUP3 ADD MSTORE POP JUMP JUMPDEST PUSH1 0x0 PUSH2 0x1CF0 PUSH1 0xD DUP4 PUSH2 0x1B02 JUMP JUMPDEST SWAP2 POP PUSH2 0x1CFB DUP3 PUSH2 0x1CBA JUMP JUMPDEST PUSH1 0x20 DUP3 ADD SWAP1 POP SWAP2 SWAP1 POP JUMP JUMPDEST PUSH1 0x0 PUSH1 0x20 DUP3 ADD SWAP1 POP DUP2 DUP2 SUB PUSH1 0x0 DUP4 ADD MSTORE PUSH2 0x1D1F DUP2 PUSH2 0x1CE3 JUMP JUMPDEST SWAP1 POP SWAP2 SWAP1 POP JUMP JUMPDEST PUSH32 0x7472616E7366657220746F207A65726F20616464726573730000000000000000 PUSH1 0x0 DUP3 ADD MSTORE POP JUMP JUMPDEST PUSH1 0x0 PUSH2 0x1D5C PUSH1 0x18 DUP4 PUSH2 0x1B02 JUMP JUMPDEST SWAP2 POP PUSH2 0x1D67 DUP3 PUSH2 0x1D26 JUMP JUMPDEST PUSH1 0x20 DUP3 ADD SWAP1 POP SWAP2 SWAP1 POP JUMP JUMPDEST PUSH1 0x0 PUSH1 0x20 DUP3 ADD SWAP1 POP DUP2 DUP2 SUB PUSH1 0x0 DUP4 ADD MSTORE PUSH2 0x1D8B DUP2 PUSH2 0x1D4F JUMP JUMPDEST SWAP1 POP SWAP2 SWAP1 POP JUMP JUMPDEST PUSH1 0x0 PUSH2 0x1D9D DUP3 PUSH2 0x1701 JUMP JUMPDEST SWAP2 POP PUSH1 0x0 DUP3 SUB PUSH2 0x1DB0 JUMPI PUSH2 0x1DAF PUSH2 0x1C57 JUMP JUMPDEST JUMPDEST PUSH1 0x1 DUP3 SUB SWAP1 POP SWAP2 SWAP1 POP JUMP JUMPDEST PUSH1 0x0 PUSH2 0x1DC6 DUP3 PUSH2 0x1701 JUMP JUMPDEST SWAP2 POP PUSH32 0xFFFFFFFFFFFFFFFFFFFFFFFFFFFFFFFFFFFFFFFFFFFFFFFFFFFFFFFFFFFFFFFF DUP3 SUB PUSH2 0x1DF8 JUMPI PUSH2 0x1DF7 PUSH2 0x1C57 JUMP JUMPDEST JUMPDEST PUSH1 0x1 DUP3 ADD SWAP1 POP SWAP2 SWAP1 POP JUMP JUMPDEST PUSH1 0x0 DUP3 DUP3 MSTORE PUSH1 0x20 DUP3 ADD SWAP1 POP SWAP3 SWAP2 POP POP JUMP JUMPDEST POP JUMP JUMPDEST PUSH1 0x0 PUSH2 0x1E24 PUSH1 0x0 DUP4 PUSH2 0x1E03 JUMP JUMPDEST SWAP2 POP PUSH2 0x1E2F DUP3 PUSH2 0x1E14 JUMP JUMPDEST PUSH1 0x0 DUP3 ADD SWAP1 POP SWAP2 SWAP1 POP JUMP JUMPDEST PUSH1 0x0 PUSH1 0x80 DUP3 ADD SWAP1 POP PUSH2 0x1E4F PUSH1 0x0 DUP4 ADD DUP7 PUSH2 0x1796 JUMP JUMPDEST PUSH2 0x1E5C PUSH1 0x20 DUP4 ADD DUP6 PUSH2 0x1796 JUMP JUMPDEST PUSH2 0x1E69 PUSH1 0x40 DUP4 ADD DUP5 PUSH2 0x18AC JUMP JUMPDEST DUP2 DUP2 SUB PUSH1 0x60 DUP4 ADD MSTORE PUSH2 0x1E7A DUP2 PUSH2 0x1E17 JUMP JUMPDEST SWAP1 POP SWAP5 SWAP4 POP POP POP POP JUMP JUMPDEST PUSH1 0x0 DUP2 MLOAD SWAP1 POP PUSH2 0x1E93 DUP2 PUSH2 0x1672 JUMP JUMPDEST SWAP3 SWAP2 POP POP JUMP JUMPDEST PUSH1 0x0 PUSH1 0x20 DUP3 DUP5 SUB SLT ISZERO PUSH2 0x1EAF JUMPI PUSH2 0x1EAE PUSH2 0x163C JUMP JUMPDEST JUMPDEST PUSH1 0x0 PUSH2 0x1EBD DUP5 DUP3 DUP6 ADD PUSH2 0x1E84 JUMP JUMPDEST SWAP2 POP POP SWAP3 SWAP2 POP POP JUMP JUMPDEST PUSH32 0x756E7361666520726563697069656E7400000000000000000000000000000000 PUSH1 0x0 DUP3 ADD MSTORE POP JUMP JUMPDEST PUSH1 0x0 PUSH2 0x1EFC PUSH1 0x10 DUP4 PUSH2 0x1B02 JUMP JUMPDEST SWAP2 POP PUSH2 0x1F07 DUP3 PUSH2 0x1EC6 JUMP JUMPDEST PUSH1 0x20 DUP3 ADD SWAP1 POP SWAP2 SWAP1 POP JUMP JUMPDEST PUSH1 0x0 PUSH1 0x20 DUP3 ADD SWAP1 POP DUP2 DUP2 SUB PUSH1 0x0 DUP4 ADD MSTORE PUSH2 0x1F2B DUP2 PUSH2 0x1EEF JUMP JUMPDEST SWAP1 POP SWAP2 SWAP1 POP JUMP JUMPDEST PUSH32 0x6F776E6572203D207A65726F2061646472657373000000000000000000000000 PUSH1 0x0 DUP3 ADD MSTORE POP JUMP JUMPDEST PUSH1 0x0 PUSH2 0x1F68 PUSH1 0x14 DUP4 PUSH2 0x1B02 JUMP JUMPDEST SWAP2 POP PUSH2 0x1F73 DUP3 PUSH2 0x1F32 JUMP JUMPDEST PUSH1 0x20 DUP3 ADD SWAP1 POP SWAP2 SWAP1 POP JUMP JUMPDEST PUSH1 0x0 PUSH1 0x20 DUP3 ADD SWAP1 POP DUP2 DUP2 SUB PUSH1 0x0 DUP4 ADD MSTORE PUSH2 0x1F97 DUP2 PUSH2 0x1F5B JUMP JUMPDEST SWAP1 POP SWAP2 SWAP1 POP JUMP JUMPDEST DUP3 DUP2 DUP4 CALLDATACOPY PUSH1 0x0 DUP4 DUP4 ADD MSTORE POP POP POP JUMP JUMPDEST PUSH1 0x0 PUSH1 0x1F NOT PUSH1 0x1F DUP4 ADD AND SWAP1 POP SWAP2 SWAP1 POP JUMP JUMPDEST PUSH1 0x0 PUSH2 0x1FCA DUP4 DUP6 PUSH2 0x1E03 JUMP JUMPDEST SWAP4 POP PUSH2 0x1FD7 DUP4 DUP6 DUP5 PUSH2 0x1F9E JUMP JUMPDEST PUSH2 0x1FE0 DUP4 PUSH2 0x1FAD JUMP JUMPDEST DUP5 ADD SWAP1 POP SWAP4 SWAP3 POP POP POP JUMP JUMPDEST PUSH1 0x0 PUSH1 0x80 DUP3 ADD SWAP1 POP PUSH2 0x2000 PUSH1 0x0 DUP4 ADD DUP9 PUSH2 0x1796 JUMP JUMPDEST PUSH2 0x200D PUSH1 0x20 DUP4 ADD DUP8 PUSH2 0x1796 JUMP JUMPDEST PUSH2 0x201A PUSH1 0x40 DUP4 ADD DUP7 PUSH2 0x18AC JUMP JUMPDEST DUP2 DUP2 SUB PUSH1 0x60 DUP4 ADD MSTORE PUSH2 0x202D DUP2 DUP5 DUP7 PUSH2 0x1FBE JUMP JUMPDEST SWAP1 POP SWAP7 SWAP6 POP POP POP POP POP POP JUMP JUMPDEST PUSH1 0x0 PUSH1 0x60 DUP3 ADD SWAP1 POP PUSH2 0x204E PUSH1 0x0 DUP4 ADD DUP7 PUSH2 0x1796 JUMP JUMPDEST PUSH2 0x205B PUSH1 0x20 DUP4 ADD DUP6 PUSH2 0x1796 JUMP JUMPDEST PUSH2 0x2068 PUSH1 0x40 DUP4 ADD DUP5 PUSH2 0x18AC JUMP JUMPDEST SWAP5 SWAP4 POP POP POP POP JUMP JUMPDEST PUSH1 0x0 DUP2 MLOAD SWAP1 POP PUSH2 0x207F DUP2 PUSH2 0x1916 JUMP JUMPDEST SWAP3 SWAP2 POP POP JUMP JUMPDEST PUSH1 0x0 PUSH1 0x20 DUP3 DUP5 SUB SLT ISZERO PUSH2 0x209B JUMPI PUSH2 0x209A PUSH2 0x163C JUMP JUMPDEST JUMPDEST PUSH1 0x0 PUSH2 0x20A9 DUP5 DUP3 DUP6 ADD PUSH2 0x2070 JUMP JUMPDEST SWAP2 POP POP SWAP3 SWAP2 POP POP JUMP JUMPDEST PUSH1 0x0 PUSH1 0x40 DUP3 ADD SWAP1 POP PUSH2 0x20C7 PUSH1 0x0 DUP4 ADD DUP6 PUSH2 0x1796 JUMP JUMPDEST PUSH2 0x20D4 PUSH1 0x20 DUP4 ADD DUP5 PUSH2 0x18AC JUMP JUMPDEST SWAP4 SWAP3 POP POP POP JUMP JUMPDEST PUSH32 0x6D696E7420746F207A65726F2061646472657373000000000000000000000000 PUSH1 0x0 DUP3 ADD MSTORE POP JUMP JUMPDEST PUSH1 0x0 PUSH2 0x2111 PUSH1 0x14 DUP4 PUSH2 0x1B02 JUMP JUMPDEST SWAP2 POP PUSH2 0x211C DUP3 PUSH2 0x20DB JUMP JUMPDEST PUSH1 0x20 DUP3 ADD SWAP1 POP SWAP2 SWAP1 POP JUMP JUMPDEST PUSH1 0x0 PUSH1 0x20 DUP3 ADD SWAP1 POP DUP2 DUP2 SUB PUSH1 0x0 DUP4 ADD MSTORE PUSH2 0x2140 DUP2 PUSH2 0x2104 JUMP JUMPDEST SWAP1 POP SWAP2 SWAP1 POP JUMP JUMPDEST PUSH32 0x616C7265616479206D696E746564000000000000000000000000000000000000 PUSH1 0x0 DUP3 ADD MSTORE POP JUMP JUMPDEST PUSH1 0x0 PUSH2 0x217D PUSH1 0xE DUP4 PUSH2 0x1B02 JUMP JUMPDEST SWAP2 POP PUSH2 0x2188 DUP3 PUSH2 0x2147 JUMP JUMPDEST PUSH1 0x20 DUP3 ADD SWAP1 POP SWAP2 SWAP1 POP JUMP JUMPDEST PUSH1 0x0 PUSH1 0x20 DUP3 ADD SWAP1 POP DUP2 DUP2 SUB PUSH1 0x0 DUP4 ADD MSTORE PUSH2 0x21AC DUP2 PUSH2 0x2170 JUMP JUMPDEST SWAP1 POP SWAP2 SWAP1 POP JUMP INVALID LOG2 PUSH5 0x6970667358 0x22 SLT KECCAK256 MULMOD 0xEC 0x22 0xC1 DUP5 SWAP8 SWAP1 PUSH25 0xFD0AFE02A976AF19781A50B20939FA63A8F54628CB1FF0AB64 PUSH20 0x6F6C634300081200330000000000000000000000 "
				},
				"gasEstimates": {
					"creation": {
						"codeDepositCost": "1736200",
						"executionCost": "26093",
						"totalCost": "1762293"
					},
					"external": {
						"approve(address,uint256)": "31562",
						"balanceOf(address)": "2965",
						"depositReward(uint256,address,uint256)": "infinite",
						"getApproved(uint256)": "5160",
						"isApprovedForAll(address,address)": "infinite",
						"mint()": "infinite",
						"owner()": "2581",
						"ownerOf(uint256)": "3020",
						"reward(uint256,address)": "infinite",
						"safeTransferFrom(address,address,uint256)": "infinite",
						"safeTransferFrom(address,address,uint256,bytes)": "infinite",
						"setApprovalForAll(address,bool)": "infinite",
						"supportsInterface(bytes4)": "708",
						"transferFrom(address,address,uint256)": "infinite",
						"updateOwner(address)": "28098",
						"withdrawReward(uint256,address,uint256)": "infinite"
					}
				},
				"methodIdentifiers": {
					"approve(address,uint256)": "095ea7b3",
					"balanceOf(address)": "70a08231",
					"depositReward(uint256,address,uint256)": "da644b04",
					"getApproved(uint256)": "081812fc",
					"isApprovedForAll(address,address)": "e985e9c5",
					"mint()": "1249c58b",
					"owner()": "8da5cb5b",
					"ownerOf(uint256)": "6352211e",
					"reward(uint256,address)": "71bb61f3",
					"safeTransferFrom(address,address,uint256)": "42842e0e",
					"safeTransferFrom(address,address,uint256,bytes)": "b88d4fde",
					"setApprovalForAll(address,bool)": "a22cb465",
					"supportsInterface(bytes4)": "01ffc9a7",
					"transferFrom(address,address,uint256)": "23b872dd",
					"updateOwner(address)": "880cdc31",
					"withdrawReward(uint256,address,uint256)": "fc6bcf39"
				}
			},
			"storageLayout": {
				"storage": [
					{
						"astId": 395,
						"contract": "TNFT.sol:TNFT",
						"label": "_ownerOf",
						"offset": 0,
						"slot": "0",
						"type": "t_mapping(t_uint256,t_address)"
					},
					{
						"astId": 399,
						"contract": "TNFT.sol:TNFT",
						"label": "_balanceOf",
						"offset": 0,
						"slot": "1",
						"type": "t_mapping(t_address,t_uint256)"
					},
					{
						"astId": 403,
						"contract": "TNFT.sol:TNFT",
						"label": "_approvals",
						"offset": 0,
						"slot": "2",
						"type": "t_mapping(t_uint256,t_address)"
					},
					{
						"astId": 409,
						"contract": "TNFT.sol:TNFT",
						"label": "isApprovedForAll",
						"offset": 0,
						"slot": "3",
						"type": "t_mapping(t_address,t_mapping(t_address,t_bool))"
					},
					{
						"astId": 339,
						"contract": "TNFT.sol:TNFT",
						"label": "owner",
						"offset": 0,
						"slot": "4",
						"type": "t_address"
					},
					{
						"astId": 243,
						"contract": "TNFT.sol:TNFT",
						"label": "counter",
						"offset": 0,
						"slot": "5",
						"type": "t_uint256"
					},
					{
						"astId": 249,
						"contract": "TNFT.sol:TNFT",
						"label": "reward",
						"offset": 0,
						"slot": "6",
						"type": "t_mapping(t_uint256,t_mapping(t_address,t_uint256))"
					}
				],
				"types": {
					"t_address": {
						"encoding": "inplace",
						"label": "address",
						"numberOfBytes": "20"
					},
					"t_bool": {
						"encoding": "inplace",
						"label": "bool",
						"numberOfBytes": "1"
					},
					"t_mapping(t_address,t_bool)": {
						"encoding": "mapping",
						"key": "t_address",
						"label": "mapping(address => bool)",
						"numberOfBytes": "32",
						"value": "t_bool"
					},
					"t_mapping(t_address,t_mapping(t_address,t_bool))": {
						"encoding": "mapping",
						"key": "t_address",
						"label": "mapping(address => mapping(address => bool))",
						"numberOfBytes": "32",
						"value": "t_mapping(t_address,t_bool)"
					},
					"t_mapping(t_address,t_uint256)": {
						"encoding": "mapping",
						"key": "t_address",
						"label": "mapping(address => uint256)",
						"numberOfBytes": "32",
						"value": "t_uint256"
					},
					"t_mapping(t_uint256,t_address)": {
						"encoding": "mapping",
						"key": "t_uint256",
						"label": "mapping(uint256 => address)",
						"numberOfBytes": "32",
						"value": "t_address"
					},
					"t_mapping(t_uint256,t_mapping(t_address,t_uint256))": {
						"encoding": "mapping",
						"key": "t_uint256",
						"label": "mapping(uint256 => mapping(address => uint256))",
						"numberOfBytes": "32",
						"value": "t_mapping(t_address,t_uint256)"
					},
					"t_uint256": {
						"encoding": "inplace",
						"label": "uint256",
						"numberOfBytes": "32"
					}
				}
			},
			"userdoc": {
				"kind": "user",
				"methods": {},
				"version": 1
			}
		}
	}
}