{
	"SimpleSwap.sol": {
		"SimpleSwap": {
			"abi": [
				{
					"inputs": [
						{
							"internalType": "contract IERC20",
							"name": "sell",
							"type": "address"
						},
						{
							"internalType": "uint256",
							"name": "sellAmount",
							"type": "uint256"
						},
						{
							"internalType": "contract IERC20",
							"name": "buy",
							"type": "address"
						},
						{
							"internalType": "uint256",
							"name": "buyAmount",
							"type": "uint256"
						}
					],
					"name": "Add",
					"outputs": [
						{
							"internalType": "bool",
							"name": "",
							"type": "bool"
						}
					],
					"stateMutability": "nonpayable",
					"type": "function"
				},
				{
					"inputs": [
						{
							"internalType": "uint256",
							"name": "index",
							"type": "uint256"
						}
					],
					"name": "Exchange",
					"outputs": [
						{
							"internalType": "bool",
							"name": "",
							"type": "bool"
						}
					],
					"stateMutability": "nonpayable",
					"type": "function"
				},
				{
					"inputs": [
						{
							"internalType": "uint256",
							"name": "",
							"type": "uint256"
						}
					],
					"name": "offers",
					"outputs": [
						{
							"internalType": "address",
							"name": "seller",
							"type": "address"
						},
						{
							"internalType": "contract IERC20",
							"name": "sell",
							"type": "address"
						},
						{
							"internalType": "uint256",
							"name": "sellAmount",
							"type": "uint256"
						},
						{
							"internalType": "contract IERC20",
							"name": "buy",
							"type": "address"
						},
						{
							"internalType": "uint256",
							"name": "buyAmount",
							"type": "uint256"
						},
						{
							"internalType": "bool",
							"name": "active",
							"type": "bool"
						}
					],
					"stateMutability": "view",
					"type": "function"
				}
			],
			"devdoc": {
				"kind": "dev",
				"methods": {},
				"version": 1
			},
			"evm": {
				"assembly": "    /* \"SimpleSwap.sol\":87:1003  contract SimpleSwap {... */\n  mstore(0x40, 0x80)\n  callvalue\n  dup1\n  iszero\n  tag_1\n  jumpi\n  0x00\n  dup1\n  revert\ntag_1:\n  pop\n  dataSize(sub_0)\n  dup1\n  dataOffset(sub_0)\n  0x00\n  codecopy\n  0x00\n  return\nstop\n\nsub_0: assembly {\n        /* \"SimpleSwap.sol\":87:1003  contract SimpleSwap {... */\n      mstore(0x40, 0x80)\n      callvalue\n      dup1\n      iszero\n      tag_1\n      jumpi\n      0x00\n      dup1\n      revert\n    tag_1:\n      pop\n      jumpi(tag_2, lt(calldatasize, 0x04))\n      shr(0xe0, calldataload(0x00))\n      dup1\n      0x11d92a08\n      eq\n      tag_3\n      jumpi\n      dup1\n      0x288c98a0\n      eq\n      tag_4\n      jumpi\n      dup1\n      0x8a72ea6a\n      eq\n      tag_5\n      jumpi\n    tag_2:\n      0x00\n      dup1\n      revert\n        /* \"SimpleSwap.sol\":625:1001  function Exchange(uint256 index) public returns (bool) {... */\n    tag_3:\n      tag_6\n      0x04\n      dup1\n      calldatasize\n      sub\n      dup2\n      add\n      swap1\n      tag_7\n      swap2\n      swap1\n      tag_8\n      jump\t// in\n    tag_7:\n      tag_9\n      jump\t// in\n    tag_6:\n      mload(0x40)\n      tag_10\n      swap2\n      swap1\n      tag_11\n      jump\t// in\n    tag_10:\n      mload(0x40)\n      dup1\n      swap2\n      sub\n      swap1\n      return\n        /* \"SimpleSwap.sol\":308:619  function Add(... */\n    tag_4:\n      tag_12\n      0x04\n      dup1\n      calldatasize\n      sub\n      dup2\n      add\n      swap1\n      tag_13\n      swap2\n      swap1\n      tag_14\n      jump\t// in\n    tag_13:\n      tag_15\n      jump\t// in\n    tag_12:\n      mload(0x40)\n      tag_16\n      swap2\n      swap1\n      tag_11\n      jump\t// in\n    tag_16:\n      mload(0x40)\n      dup1\n      swap2\n      sub\n      swap1\n      return\n        /* \"SimpleSwap.sol\":280:301  Offer[] public offers */\n    tag_5:\n      tag_17\n      0x04\n      dup1\n      calldatasize\n      sub\n      dup2\n      add\n      swap1\n      tag_18\n      swap2\n      swap1\n      tag_8\n      jump\t// in\n    tag_18:\n      tag_19\n      jump\t// in\n    tag_17:\n      mload(0x40)\n      tag_20\n      swap7\n      swap6\n      swap5\n      swap4\n      swap3\n      swap2\n      swap1\n      tag_21\n      jump\t// in\n    tag_20:\n      mload(0x40)\n      dup1\n      swap2\n      sub\n      swap1\n      return\n        /* \"SimpleSwap.sol\":625:1001  function Exchange(uint256 index) public returns (bool) {... */\n    tag_9:\n        /* \"SimpleSwap.sol\":674:678  bool */\n      0x00\n        /* \"SimpleSwap.sol\":690:709  Offer storage offer */\n      dup1\n        /* \"SimpleSwap.sol\":712:718  offers */\n      0x00\n        /* \"SimpleSwap.sol\":719:724  index */\n      dup4\n        /* \"SimpleSwap.sol\":712:725  offers[index] */\n      dup2\n      sload\n      dup2\n      lt\n      tag_23\n      jumpi\n      tag_24\n      tag_25\n      jump\t// in\n    tag_24:\n    tag_23:\n      swap1\n      0x00\n      mstore\n      keccak256(0x00, 0x20)\n      swap1\n      0x06\n      mul\n      add\n        /* \"SimpleSwap.sol\":690:725  Offer storage offer = offers[index] */\n      swap1\n      pop\n        /* \"SimpleSwap.sol\":755:759  true */\n      0x01\n        /* \"SimpleSwap.sol\":739:759  offer.active == true */\n      iszero\n      iszero\n        /* \"SimpleSwap.sol\":739:744  offer */\n      dup2\n        /* \"SimpleSwap.sol\":739:751  offer.active */\n      0x05\n      add\n      0x00\n      swap1\n      sload\n      swap1\n      0x0100\n      exp\n      swap1\n      div\n      0xff\n      and\n        /* \"SimpleSwap.sol\":739:759  offer.active == true */\n      iszero\n      iszero\n      sub\n        /* \"SimpleSwap.sol\":735:973  if (offer.active == true) {... */\n      tag_27\n      jumpi\n        /* \"SimpleSwap.sol\":775:780  offer */\n      dup1\n        /* \"SimpleSwap.sol\":775:785  offer.sell */\n      0x01\n      add\n      0x00\n      swap1\n      sload\n      swap1\n      0x0100\n      exp\n      swap1\n      div\n      0xffffffffffffffffffffffffffffffffffffffff\n      and\n        /* \"SimpleSwap.sol\":775:794  offer.sell.transfer */\n      0xffffffffffffffffffffffffffffffffffffffff\n      and\n      0xa9059cbb\n        /* \"SimpleSwap.sol\":795:805  msg.sender */\n      caller\n        /* \"SimpleSwap.sol\":807:812  offer */\n      dup4\n        /* \"SimpleSwap.sol\":807:823  offer.sellAmount */\n      0x02\n      add\n      sload\n        /* \"SimpleSwap.sol\":775:824  offer.sell.transfer(msg.sender, offer.sellAmount) */\n      mload(0x40)\n      dup4\n      0xffffffff\n      and\n      0xe0\n      shl\n      dup2\n      mstore\n      0x04\n      add\n      tag_28\n      swap3\n      swap2\n      swap1\n      tag_29\n      jump\t// in\n    tag_28:\n      0x20\n      mload(0x40)\n      dup1\n      dup4\n      sub\n      dup2\n      0x00\n      dup8\n      gas\n      call\n      iszero\n      dup1\n      iszero\n      tag_31\n      jumpi\n      returndatasize\n      0x00\n      dup1\n      returndatacopy\n      revert(0x00, returndatasize)\n    tag_31:\n      pop\n      pop\n      pop\n      pop\n      mload(0x40)\n      returndatasize\n      not(0x1f)\n      0x1f\n      dup3\n      add\n      and\n      dup3\n      add\n      dup1\n      0x40\n      mstore\n      pop\n      dup2\n      add\n      swap1\n      tag_32\n      swap2\n      swap1\n      tag_33\n      jump\t// in\n    tag_32:\n      pop\n        /* \"SimpleSwap.sol\":838:843  offer */\n      dup1\n        /* \"SimpleSwap.sol\":838:847  offer.buy */\n      0x03\n      add\n      0x00\n      swap1\n      sload\n      swap1\n      0x0100\n      exp\n      swap1\n      div\n      0xffffffffffffffffffffffffffffffffffffffff\n      and\n        /* \"SimpleSwap.sol\":838:860  offer.buy.transferFrom */\n      0xffffffffffffffffffffffffffffffffffffffff\n      and\n      0x23b872dd\n        /* \"SimpleSwap.sol\":861:871  msg.sender */\n      caller\n        /* \"SimpleSwap.sol\":873:878  offer */\n      dup4\n        /* \"SimpleSwap.sol\":873:885  offer.seller */\n      0x00\n      add\n      0x00\n      swap1\n      sload\n      swap1\n      0x0100\n      exp\n      swap1\n      div\n      0xffffffffffffffffffffffffffffffffffffffff\n      and\n        /* \"SimpleSwap.sol\":887:892  offer */\n      dup5\n        /* \"SimpleSwap.sol\":887:902  offer.buyAmount */\n      0x04\n      add\n      sload\n        /* \"SimpleSwap.sol\":838:903  offer.buy.transferFrom(msg.sender, offer.seller, offer.buyAmount) */\n      mload(0x40)\n      dup5\n      0xffffffff\n      and\n      0xe0\n      shl\n      dup2\n      mstore\n      0x04\n      add\n      tag_34\n      swap4\n      swap3\n      swap2\n      swap1\n      tag_35\n      jump\t// in\n    tag_34:\n      0x20\n      mload(0x40)\n      dup1\n      dup4\n      sub\n      dup2\n      0x00\n      dup8\n      gas\n      call\n      iszero\n      dup1\n      iszero\n      tag_37\n      jumpi\n      returndatasize\n      0x00\n      dup1\n      returndatacopy\n      revert(0x00, returndatasize)\n    tag_37:\n      pop\n      pop\n      pop\n      pop\n      mload(0x40)\n      returndatasize\n      not(0x1f)\n      0x1f\n      dup3\n      add\n      and\n      dup3\n      add\n      dup1\n      0x40\n      mstore\n      pop\n      dup2\n      add\n      swap1\n      tag_38\n      swap2\n      swap1\n      tag_33\n      jump\t// in\n    tag_38:\n      pop\n        /* \"SimpleSwap.sol\":932:937  false */\n      0x00\n        /* \"SimpleSwap.sol\":917:922  offer */\n      dup2\n        /* \"SimpleSwap.sol\":917:929  offer.active */\n      0x05\n      add\n      0x00\n        /* \"SimpleSwap.sol\":917:937  offer.active = false */\n      0x0100\n      exp\n      dup2\n      sload\n      dup2\n      0xff\n      mul\n      not\n      and\n      swap1\n      dup4\n      iszero\n      iszero\n      mul\n      or\n      swap1\n      sstore\n      pop\n        /* \"SimpleSwap.sol\":958:962  true */\n      0x01\n        /* \"SimpleSwap.sol\":951:962  return true */\n      swap2\n      pop\n      pop\n      jump(tag_22)\n        /* \"SimpleSwap.sol\":735:973  if (offer.active == true) {... */\n    tag_27:\n        /* \"SimpleSwap.sol\":989:994  false */\n      0x00\n        /* \"SimpleSwap.sol\":982:994  return false */\n      swap2\n      pop\n      pop\n        /* \"SimpleSwap.sol\":625:1001  function Exchange(uint256 index) public returns (bool) {... */\n    tag_22:\n      swap2\n      swap1\n      pop\n      jump\t// out\n        /* \"SimpleSwap.sol\":308:619  function Add(... */\n    tag_15:\n        /* \"SimpleSwap.sol\":439:443  bool */\n      0x00\n        /* \"SimpleSwap.sol\":455:459  sell */\n      dup5\n        /* \"SimpleSwap.sol\":455:472  sell.transferFrom */\n      0xffffffffffffffffffffffffffffffffffffffff\n      and\n      0x23b872dd\n        /* \"SimpleSwap.sol\":473:483  msg.sender */\n      caller\n        /* \"SimpleSwap.sol\":493:497  this */\n      address\n        /* \"SimpleSwap.sol\":500:510  sellAmount */\n      dup8\n        /* \"SimpleSwap.sol\":455:511  sell.transferFrom(msg.sender, address(this), sellAmount) */\n      mload(0x40)\n      dup5\n      0xffffffff\n      and\n      0xe0\n      shl\n      dup2\n      mstore\n      0x04\n      add\n      tag_40\n      swap4\n      swap3\n      swap2\n      swap1\n      tag_35\n      jump\t// in\n    tag_40:\n      0x20\n      mload(0x40)\n      dup1\n      dup4\n      sub\n      dup2\n      0x00\n      dup8\n      gas\n      call\n      iszero\n      dup1\n      iszero\n      tag_42\n      jumpi\n      returndatasize\n      0x00\n      dup1\n      returndatacopy\n      revert(0x00, returndatasize)\n    tag_42:\n      pop\n      pop\n      pop\n      pop\n      mload(0x40)\n      returndatasize\n      not(0x1f)\n      0x1f\n      dup3\n      add\n      and\n      dup3\n      add\n      dup1\n      0x40\n      mstore\n      pop\n      dup2\n      add\n      swap1\n      tag_43\n      swap2\n      swap1\n      tag_33\n      jump\t// in\n    tag_43:\n      pop\n        /* \"SimpleSwap.sol\":521:527  offers */\n      0x00\n        /* \"SimpleSwap.sol\":533:590  Offer(msg.sender, sell, sellAmount, buy, buyAmount, true) */\n      mload(0x40)\n      dup1\n      0xc0\n      add\n      0x40\n      mstore\n      dup1\n        /* \"SimpleSwap.sol\":539:549  msg.sender */\n      caller\n        /* \"SimpleSwap.sol\":533:590  Offer(msg.sender, sell, sellAmount, buy, buyAmount, true) */\n      0xffffffffffffffffffffffffffffffffffffffff\n      and\n      dup2\n      mstore\n      0x20\n      add\n        /* \"SimpleSwap.sol\":551:555  sell */\n      dup8\n        /* \"SimpleSwap.sol\":533:590  Offer(msg.sender, sell, sellAmount, buy, buyAmount, true) */\n      0xffffffffffffffffffffffffffffffffffffffff\n      and\n      dup2\n      mstore\n      0x20\n      add\n        /* \"SimpleSwap.sol\":557:567  sellAmount */\n      dup7\n        /* \"SimpleSwap.sol\":533:590  Offer(msg.sender, sell, sellAmount, buy, buyAmount, true) */\n      dup2\n      mstore\n      0x20\n      add\n        /* \"SimpleSwap.sol\":569:572  buy */\n      dup6\n        /* \"SimpleSwap.sol\":533:590  Offer(msg.sender, sell, sellAmount, buy, buyAmount, true) */\n      0xffffffffffffffffffffffffffffffffffffffff\n      and\n      dup2\n      mstore\n      0x20\n      add\n        /* \"SimpleSwap.sol\":574:583  buyAmount */\n      dup5\n        /* \"SimpleSwap.sol\":533:590  Offer(msg.sender, sell, sellAmount, buy, buyAmount, true) */\n      dup2\n      mstore\n      0x20\n      add\n        /* \"SimpleSwap.sol\":585:589  true */\n      0x01\n        /* \"SimpleSwap.sol\":533:590  Offer(msg.sender, sell, sellAmount, buy, buyAmount, true) */\n      iszero\n      iszero\n      dup2\n      mstore\n      pop\n        /* \"SimpleSwap.sol\":521:591  offers.push(Offer(msg.sender, sell, sellAmount, buy, buyAmount, true)) */\n      swap1\n      dup1\n      0x01\n      dup2\n      sload\n      add\n      dup1\n      dup3\n      sstore\n      dup1\n      swap2\n      pop\n      pop\n      0x01\n      swap1\n      sub\n      swap1\n      0x00\n      mstore\n      keccak256(0x00, 0x20)\n      swap1\n      0x06\n      mul\n      add\n      0x00\n      swap1\n      swap2\n      swap1\n      swap2\n      swap1\n      swap2\n      pop\n      0x00\n      dup3\n      add\n      mload\n      dup2\n      0x00\n      add\n      exp(0x0100, 0x00)\n      dup2\n      sload\n      dup2\n      0xffffffffffffffffffffffffffffffffffffffff\n      mul\n      not\n      and\n      swap1\n      dup4\n      0xffffffffffffffffffffffffffffffffffffffff\n      and\n      mul\n      or\n      swap1\n      sstore\n      pop\n      0x20\n      dup3\n      add\n      mload\n      dup2\n      0x01\n      add\n      exp(0x0100, 0x00)\n      dup2\n      sload\n      dup2\n      0xffffffffffffffffffffffffffffffffffffffff\n      mul\n      not\n      and\n      swap1\n      dup4\n      0xffffffffffffffffffffffffffffffffffffffff\n      and\n      mul\n      or\n      swap1\n      sstore\n      pop\n      0x40\n      dup3\n      add\n      mload\n      dup2\n      0x02\n      add\n      sstore\n      0x60\n      dup3\n      add\n      mload\n      dup2\n      0x03\n      add\n      exp(0x0100, 0x00)\n      dup2\n      sload\n      dup2\n      0xffffffffffffffffffffffffffffffffffffffff\n      mul\n      not\n      and\n      swap1\n      dup4\n      0xffffffffffffffffffffffffffffffffffffffff\n      and\n      mul\n      or\n      swap1\n      sstore\n      pop\n      0x80\n      dup3\n      add\n      mload\n      dup2\n      0x04\n      add\n      sstore\n      0xa0\n      dup3\n      add\n      mload\n      dup2\n      0x05\n      add\n      exp(0x0100, 0x00)\n      dup2\n      sload\n      dup2\n      0xff\n      mul\n      not\n      and\n      swap1\n      dup4\n      iszero\n      iszero\n      mul\n      or\n      swap1\n      sstore\n      pop\n      pop\n      pop\n        /* \"SimpleSwap.sol\":608:612  true */\n      0x01\n        /* \"SimpleSwap.sol\":601:612  return true */\n      swap1\n      pop\n        /* \"SimpleSwap.sol\":308:619  function Add(... */\n      swap5\n      swap4\n      pop\n      pop\n      pop\n      pop\n      jump\t// out\n        /* \"SimpleSwap.sol\":280:301  Offer[] public offers */\n    tag_19:\n      0x00\n      dup2\n      dup2\n      sload\n      dup2\n      lt\n      tag_45\n      jumpi\n      0x00\n      dup1\n      revert\n    tag_45:\n      swap1\n      0x00\n      mstore\n      keccak256(0x00, 0x20)\n      swap1\n      0x06\n      mul\n      add\n      0x00\n      swap2\n      pop\n      swap1\n      pop\n      dup1\n      0x00\n      add\n      0x00\n      swap1\n      sload\n      swap1\n      0x0100\n      exp\n      swap1\n      div\n      0xffffffffffffffffffffffffffffffffffffffff\n      and\n      swap1\n      dup1\n      0x01\n      add\n      0x00\n      swap1\n      sload\n      swap1\n      0x0100\n      exp\n      swap1\n      div\n      0xffffffffffffffffffffffffffffffffffffffff\n      and\n      swap1\n      dup1\n      0x02\n      add\n      sload\n      swap1\n      dup1\n      0x03\n      add\n      0x00\n      swap1\n      sload\n      swap1\n      0x0100\n      exp\n      swap1\n      div\n      0xffffffffffffffffffffffffffffffffffffffff\n      and\n      swap1\n      dup1\n      0x04\n      add\n      sload\n      swap1\n      dup1\n      0x05\n      add\n      0x00\n      swap1\n      sload\n      swap1\n      0x0100\n      exp\n      swap1\n      div\n      0xff\n      and\n      swap1\n      pop\n      dup7\n      jump\t// out\n        /* \"#utility.yul\":88:205   */\n    tag_48:\n        /* \"#utility.yul\":197:198   */\n      0x00\n        /* \"#utility.yul\":194:195   */\n      dup1\n        /* \"#utility.yul\":187:199   */\n      revert\n        /* \"#utility.yul\":334:411   */\n    tag_50:\n        /* \"#utility.yul\":371:378   */\n      0x00\n        /* \"#utility.yul\":400:405   */\n      dup2\n        /* \"#utility.yul\":389:405   */\n      swap1\n      pop\n        /* \"#utility.yul\":334:411   */\n      swap2\n      swap1\n      pop\n      jump\t// out\n        /* \"#utility.yul\":417:539   */\n    tag_51:\n        /* \"#utility.yul\":490:514   */\n      tag_75\n        /* \"#utility.yul\":508:513   */\n      dup2\n        /* \"#utility.yul\":490:514   */\n      tag_50\n      jump\t// in\n    tag_75:\n        /* \"#utility.yul\":483:488   */\n      dup2\n        /* \"#utility.yul\":480:515   */\n      eq\n        /* \"#utility.yul\":470:533   */\n      tag_76\n      jumpi\n        /* \"#utility.yul\":529:530   */\n      0x00\n        /* \"#utility.yul\":526:527   */\n      dup1\n        /* \"#utility.yul\":519:531   */\n      revert\n        /* \"#utility.yul\":470:533   */\n    tag_76:\n        /* \"#utility.yul\":417:539   */\n      pop\n      jump\t// out\n        /* \"#utility.yul\":545:684   */\n    tag_52:\n        /* \"#utility.yul\":591:596   */\n      0x00\n        /* \"#utility.yul\":629:635   */\n      dup2\n        /* \"#utility.yul\":616:636   */\n      calldataload\n        /* \"#utility.yul\":607:636   */\n      swap1\n      pop\n        /* \"#utility.yul\":645:678   */\n      tag_78\n        /* \"#utility.yul\":672:677   */\n      dup2\n        /* \"#utility.yul\":645:678   */\n      tag_51\n      jump\t// in\n    tag_78:\n        /* \"#utility.yul\":545:684   */\n      swap3\n      swap2\n      pop\n      pop\n      jump\t// out\n        /* \"#utility.yul\":690:1019   */\n    tag_8:\n        /* \"#utility.yul\":749:755   */\n      0x00\n        /* \"#utility.yul\":798:800   */\n      0x20\n        /* \"#utility.yul\":786:795   */\n      dup3\n        /* \"#utility.yul\":777:784   */\n      dup5\n        /* \"#utility.yul\":773:796   */\n      sub\n        /* \"#utility.yul\":769:801   */\n      slt\n        /* \"#utility.yul\":766:885   */\n      iszero\n      tag_80\n      jumpi\n        /* \"#utility.yul\":804:883   */\n      tag_81\n      tag_48\n      jump\t// in\n    tag_81:\n        /* \"#utility.yul\":766:885   */\n    tag_80:\n        /* \"#utility.yul\":924:925   */\n      0x00\n        /* \"#utility.yul\":949:1002   */\n      tag_82\n        /* \"#utility.yul\":994:1001   */\n      dup5\n        /* \"#utility.yul\":985:991   */\n      dup3\n        /* \"#utility.yul\":974:983   */\n      dup6\n        /* \"#utility.yul\":970:992   */\n      add\n        /* \"#utility.yul\":949:1002   */\n      tag_52\n      jump\t// in\n    tag_82:\n        /* \"#utility.yul\":939:1002   */\n      swap2\n      pop\n        /* \"#utility.yul\":895:1012   */\n      pop\n        /* \"#utility.yul\":690:1019   */\n      swap3\n      swap2\n      pop\n      pop\n      jump\t// out\n        /* \"#utility.yul\":1025:1115   */\n    tag_53:\n        /* \"#utility.yul\":1059:1066   */\n      0x00\n        /* \"#utility.yul\":1102:1107   */\n      dup2\n        /* \"#utility.yul\":1095:1108   */\n      iszero\n        /* \"#utility.yul\":1088:1109   */\n      iszero\n        /* \"#utility.yul\":1077:1109   */\n      swap1\n      pop\n        /* \"#utility.yul\":1025:1115   */\n      swap2\n      swap1\n      pop\n      jump\t// out\n        /* \"#utility.yul\":1121:1230   */\n    tag_54:\n        /* \"#utility.yul\":1202:1223   */\n      tag_85\n        /* \"#utility.yul\":1217:1222   */\n      dup2\n        /* \"#utility.yul\":1202:1223   */\n      tag_53\n      jump\t// in\n    tag_85:\n        /* \"#utility.yul\":1197:1200   */\n      dup3\n        /* \"#utility.yul\":1190:1224   */\n      mstore\n        /* \"#utility.yul\":1121:1230   */\n      pop\n      pop\n      jump\t// out\n        /* \"#utility.yul\":1236:1446   */\n    tag_11:\n        /* \"#utility.yul\":1323:1327   */\n      0x00\n        /* \"#utility.yul\":1361:1363   */\n      0x20\n        /* \"#utility.yul\":1350:1359   */\n      dup3\n        /* \"#utility.yul\":1346:1364   */\n      add\n        /* \"#utility.yul\":1338:1364   */\n      swap1\n      pop\n        /* \"#utility.yul\":1374:1439   */\n      tag_87\n        /* \"#utility.yul\":1436:1437   */\n      0x00\n        /* \"#utility.yul\":1425:1434   */\n      dup4\n        /* \"#utility.yul\":1421:1438   */\n      add\n        /* \"#utility.yul\":1412:1418   */\n      dup5\n        /* \"#utility.yul\":1374:1439   */\n      tag_54\n      jump\t// in\n    tag_87:\n        /* \"#utility.yul\":1236:1446   */\n      swap3\n      swap2\n      pop\n      pop\n      jump\t// out\n        /* \"#utility.yul\":1452:1578   */\n    tag_55:\n        /* \"#utility.yul\":1489:1496   */\n      0x00\n        /* \"#utility.yul\":1529:1571   */\n      0xffffffffffffffffffffffffffffffffffffffff\n        /* \"#utility.yul\":1522:1527   */\n      dup3\n        /* \"#utility.yul\":1518:1572   */\n      and\n        /* \"#utility.yul\":1507:1572   */\n      swap1\n      pop\n        /* \"#utility.yul\":1452:1578   */\n      swap2\n      swap1\n      pop\n      jump\t// out\n        /* \"#utility.yul\":1584:1680   */\n    tag_56:\n        /* \"#utility.yul\":1621:1628   */\n      0x00\n        /* \"#utility.yul\":1650:1674   */\n      tag_90\n        /* \"#utility.yul\":1668:1673   */\n      dup3\n        /* \"#utility.yul\":1650:1674   */\n      tag_55\n      jump\t// in\n    tag_90:\n        /* \"#utility.yul\":1639:1674   */\n      swap1\n      pop\n        /* \"#utility.yul\":1584:1680   */\n      swap2\n      swap1\n      pop\n      jump\t// out\n        /* \"#utility.yul\":1686:1796   */\n    tag_57:\n        /* \"#utility.yul\":1737:1744   */\n      0x00\n        /* \"#utility.yul\":1766:1790   */\n      tag_92\n        /* \"#utility.yul\":1784:1789   */\n      dup3\n        /* \"#utility.yul\":1766:1790   */\n      tag_56\n      jump\t// in\n    tag_92:\n        /* \"#utility.yul\":1755:1790   */\n      swap1\n      pop\n        /* \"#utility.yul\":1686:1796   */\n      swap2\n      swap1\n      pop\n      jump\t// out\n        /* \"#utility.yul\":1802:1952   */\n    tag_58:\n        /* \"#utility.yul\":1889:1927   */\n      tag_94\n        /* \"#utility.yul\":1921:1926   */\n      dup2\n        /* \"#utility.yul\":1889:1927   */\n      tag_57\n      jump\t// in\n    tag_94:\n        /* \"#utility.yul\":1882:1887   */\n      dup2\n        /* \"#utility.yul\":1879:1928   */\n      eq\n        /* \"#utility.yul\":1869:1946   */\n      tag_95\n      jumpi\n        /* \"#utility.yul\":1942:1943   */\n      0x00\n        /* \"#utility.yul\":1939:1940   */\n      dup1\n        /* \"#utility.yul\":1932:1944   */\n      revert\n        /* \"#utility.yul\":1869:1946   */\n    tag_95:\n        /* \"#utility.yul\":1802:1952   */\n      pop\n      jump\t// out\n        /* \"#utility.yul\":1958:2125   */\n    tag_59:\n        /* \"#utility.yul\":2018:2023   */\n      0x00\n        /* \"#utility.yul\":2056:2062   */\n      dup2\n        /* \"#utility.yul\":2043:2063   */\n      calldataload\n        /* \"#utility.yul\":2034:2063   */\n      swap1\n      pop\n        /* \"#utility.yul\":2072:2119   */\n      tag_97\n        /* \"#utility.yul\":2113:2118   */\n      dup2\n        /* \"#utility.yul\":2072:2119   */\n      tag_58\n      jump\t// in\n    tag_97:\n        /* \"#utility.yul\":1958:2125   */\n      swap3\n      swap2\n      pop\n      pop\n      jump\t// out\n        /* \"#utility.yul\":2131:2952   */\n    tag_14:\n        /* \"#utility.yul\":2245:2251   */\n      0x00\n        /* \"#utility.yul\":2253:2259   */\n      dup1\n        /* \"#utility.yul\":2261:2267   */\n      0x00\n        /* \"#utility.yul\":2269:2275   */\n      dup1\n        /* \"#utility.yul\":2318:2321   */\n      0x80\n        /* \"#utility.yul\":2306:2315   */\n      dup6\n        /* \"#utility.yul\":2297:2304   */\n      dup8\n        /* \"#utility.yul\":2293:2316   */\n      sub\n        /* \"#utility.yul\":2289:2322   */\n      slt\n        /* \"#utility.yul\":2286:2406   */\n      iszero\n      tag_99\n      jumpi\n        /* \"#utility.yul\":2325:2404   */\n      tag_100\n      tag_48\n      jump\t// in\n    tag_100:\n        /* \"#utility.yul\":2286:2406   */\n    tag_99:\n        /* \"#utility.yul\":2445:2446   */\n      0x00\n        /* \"#utility.yul\":2470:2537   */\n      tag_101\n        /* \"#utility.yul\":2529:2536   */\n      dup8\n        /* \"#utility.yul\":2520:2526   */\n      dup3\n        /* \"#utility.yul\":2509:2518   */\n      dup9\n        /* \"#utility.yul\":2505:2527   */\n      add\n        /* \"#utility.yul\":2470:2537   */\n      tag_59\n      jump\t// in\n    tag_101:\n        /* \"#utility.yul\":2460:2537   */\n      swap5\n      pop\n        /* \"#utility.yul\":2416:2547   */\n      pop\n        /* \"#utility.yul\":2586:2588   */\n      0x20\n        /* \"#utility.yul\":2612:2665   */\n      tag_102\n        /* \"#utility.yul\":2657:2664   */\n      dup8\n        /* \"#utility.yul\":2648:2654   */\n      dup3\n        /* \"#utility.yul\":2637:2646   */\n      dup9\n        /* \"#utility.yul\":2633:2655   */\n      add\n        /* \"#utility.yul\":2612:2665   */\n      tag_52\n      jump\t// in\n    tag_102:\n        /* \"#utility.yul\":2602:2665   */\n      swap4\n      pop\n        /* \"#utility.yul\":2557:2675   */\n      pop\n        /* \"#utility.yul\":2714:2716   */\n      0x40\n        /* \"#utility.yul\":2740:2807   */\n      tag_103\n        /* \"#utility.yul\":2799:2806   */\n      dup8\n        /* \"#utility.yul\":2790:2796   */\n      dup3\n        /* \"#utility.yul\":2779:2788   */\n      dup9\n        /* \"#utility.yul\":2775:2797   */\n      add\n        /* \"#utility.yul\":2740:2807   */\n      tag_59\n      jump\t// in\n    tag_103:\n        /* \"#utility.yul\":2730:2807   */\n      swap3\n      pop\n        /* \"#utility.yul\":2685:2817   */\n      pop\n        /* \"#utility.yul\":2856:2858   */\n      0x60\n        /* \"#utility.yul\":2882:2935   */\n      tag_104\n        /* \"#utility.yul\":2927:2934   */\n      dup8\n        /* \"#utility.yul\":2918:2924   */\n      dup3\n        /* \"#utility.yul\":2907:2916   */\n      dup9\n        /* \"#utility.yul\":2903:2925   */\n      add\n        /* \"#utility.yul\":2882:2935   */\n      tag_52\n      jump\t// in\n    tag_104:\n        /* \"#utility.yul\":2872:2935   */\n      swap2\n      pop\n        /* \"#utility.yul\":2827:2945   */\n      pop\n        /* \"#utility.yul\":2131:2952   */\n      swap3\n      swap6\n      swap2\n      swap5\n      pop\n      swap3\n      pop\n      jump\t// out\n        /* \"#utility.yul\":2958:3076   */\n    tag_60:\n        /* \"#utility.yul\":3045:3069   */\n      tag_106\n        /* \"#utility.yul\":3063:3068   */\n      dup2\n        /* \"#utility.yul\":3045:3069   */\n      tag_56\n      jump\t// in\n    tag_106:\n        /* \"#utility.yul\":3040:3043   */\n      dup3\n        /* \"#utility.yul\":3033:3070   */\n      mstore\n        /* \"#utility.yul\":2958:3076   */\n      pop\n      pop\n      jump\t// out\n        /* \"#utility.yul\":3082:3142   */\n    tag_61:\n        /* \"#utility.yul\":3110:3113   */\n      0x00\n        /* \"#utility.yul\":3131:3136   */\n      dup2\n        /* \"#utility.yul\":3124:3136   */\n      swap1\n      pop\n        /* \"#utility.yul\":3082:3142   */\n      swap2\n      swap1\n      pop\n      jump\t// out\n        /* \"#utility.yul\":3148:3290   */\n    tag_62:\n        /* \"#utility.yul\":3198:3207   */\n      0x00\n        /* \"#utility.yul\":3231:3284   */\n      tag_109\n        /* \"#utility.yul\":3249:3283   */\n      tag_110\n        /* \"#utility.yul\":3258:3282   */\n      tag_111\n        /* \"#utility.yul\":3276:3281   */\n      dup5\n        /* \"#utility.yul\":3258:3282   */\n      tag_55\n      jump\t// in\n    tag_111:\n        /* \"#utility.yul\":3249:3283   */\n      tag_61\n      jump\t// in\n    tag_110:\n        /* \"#utility.yul\":3231:3284   */\n      tag_55\n      jump\t// in\n    tag_109:\n        /* \"#utility.yul\":3218:3284   */\n      swap1\n      pop\n        /* \"#utility.yul\":3148:3290   */\n      swap2\n      swap1\n      pop\n      jump\t// out\n        /* \"#utility.yul\":3296:3422   */\n    tag_63:\n        /* \"#utility.yul\":3346:3355   */\n      0x00\n        /* \"#utility.yul\":3379:3416   */\n      tag_113\n        /* \"#utility.yul\":3410:3415   */\n      dup3\n        /* \"#utility.yul\":3379:3416   */\n      tag_62\n      jump\t// in\n    tag_113:\n        /* \"#utility.yul\":3366:3416   */\n      swap1\n      pop\n        /* \"#utility.yul\":3296:3422   */\n      swap2\n      swap1\n      pop\n      jump\t// out\n        /* \"#utility.yul\":3428:3568   */\n    tag_64:\n        /* \"#utility.yul\":3492:3501   */\n      0x00\n        /* \"#utility.yul\":3525:3562   */\n      tag_115\n        /* \"#utility.yul\":3556:3561   */\n      dup3\n        /* \"#utility.yul\":3525:3562   */\n      tag_63\n      jump\t// in\n    tag_115:\n        /* \"#utility.yul\":3512:3562   */\n      swap1\n      pop\n        /* \"#utility.yul\":3428:3568   */\n      swap2\n      swap1\n      pop\n      jump\t// out\n        /* \"#utility.yul\":3574:3733   */\n    tag_65:\n        /* \"#utility.yul\":3675:3726   */\n      tag_117\n        /* \"#utility.yul\":3720:3725   */\n      dup2\n        /* \"#utility.yul\":3675:3726   */\n      tag_64\n      jump\t// in\n    tag_117:\n        /* \"#utility.yul\":3670:3673   */\n      dup3\n        /* \"#utility.yul\":3663:3727   */\n      mstore\n        /* \"#utility.yul\":3574:3733   */\n      pop\n      pop\n      jump\t// out\n        /* \"#utility.yul\":3739:3857   */\n    tag_66:\n        /* \"#utility.yul\":3826:3850   */\n      tag_119\n        /* \"#utility.yul\":3844:3849   */\n      dup2\n        /* \"#utility.yul\":3826:3850   */\n      tag_50\n      jump\t// in\n    tag_119:\n        /* \"#utility.yul\":3821:3824   */\n      dup3\n        /* \"#utility.yul\":3814:3851   */\n      mstore\n        /* \"#utility.yul\":3739:3857   */\n      pop\n      pop\n      jump\t// out\n        /* \"#utility.yul\":3863:4682   */\n    tag_21:\n        /* \"#utility.yul\":4118:4122   */\n      0x00\n        /* \"#utility.yul\":4156:4159   */\n      0xc0\n        /* \"#utility.yul\":4145:4154   */\n      dup3\n        /* \"#utility.yul\":4141:4160   */\n      add\n        /* \"#utility.yul\":4133:4160   */\n      swap1\n      pop\n        /* \"#utility.yul\":4170:4241   */\n      tag_121\n        /* \"#utility.yul\":4238:4239   */\n      0x00\n        /* \"#utility.yul\":4227:4236   */\n      dup4\n        /* \"#utility.yul\":4223:4240   */\n      add\n        /* \"#utility.yul\":4214:4220   */\n      dup10\n        /* \"#utility.yul\":4170:4241   */\n      tag_60\n      jump\t// in\n    tag_121:\n        /* \"#utility.yul\":4251:4337   */\n      tag_122\n        /* \"#utility.yul\":4333:4335   */\n      0x20\n        /* \"#utility.yul\":4322:4331   */\n      dup4\n        /* \"#utility.yul\":4318:4336   */\n      add\n        /* \"#utility.yul\":4309:4315   */\n      dup9\n        /* \"#utility.yul\":4251:4337   */\n      tag_65\n      jump\t// in\n    tag_122:\n        /* \"#utility.yul\":4347:4419   */\n      tag_123\n        /* \"#utility.yul\":4415:4417   */\n      0x40\n        /* \"#utility.yul\":4404:4413   */\n      dup4\n        /* \"#utility.yul\":4400:4418   */\n      add\n        /* \"#utility.yul\":4391:4397   */\n      dup8\n        /* \"#utility.yul\":4347:4419   */\n      tag_66\n      jump\t// in\n    tag_123:\n        /* \"#utility.yul\":4429:4515   */\n      tag_124\n        /* \"#utility.yul\":4511:4513   */\n      0x60\n        /* \"#utility.yul\":4500:4509   */\n      dup4\n        /* \"#utility.yul\":4496:4514   */\n      add\n        /* \"#utility.yul\":4487:4493   */\n      dup7\n        /* \"#utility.yul\":4429:4515   */\n      tag_65\n      jump\t// in\n    tag_124:\n        /* \"#utility.yul\":4525:4598   */\n      tag_125\n        /* \"#utility.yul\":4593:4596   */\n      0x80\n        /* \"#utility.yul\":4582:4591   */\n      dup4\n        /* \"#utility.yul\":4578:4597   */\n      add\n        /* \"#utility.yul\":4569:4575   */\n      dup6\n        /* \"#utility.yul\":4525:4598   */\n      tag_66\n      jump\t// in\n    tag_125:\n        /* \"#utility.yul\":4608:4675   */\n      tag_126\n        /* \"#utility.yul\":4670:4673   */\n      0xa0\n        /* \"#utility.yul\":4659:4668   */\n      dup4\n        /* \"#utility.yul\":4655:4674   */\n      add\n        /* \"#utility.yul\":4646:4652   */\n      dup5\n        /* \"#utility.yul\":4608:4675   */\n      tag_54\n      jump\t// in\n    tag_126:\n        /* \"#utility.yul\":3863:4682   */\n      swap8\n      swap7\n      pop\n      pop\n      pop\n      pop\n      pop\n      pop\n      pop\n      jump\t// out\n        /* \"#utility.yul\":4688:4868   */\n    tag_25:\n        /* \"#utility.yul\":4736:4813   */\n      0x4e487b7100000000000000000000000000000000000000000000000000000000\n        /* \"#utility.yul\":4733:4734   */\n      0x00\n        /* \"#utility.yul\":4726:4814   */\n      mstore\n        /* \"#utility.yul\":4833:4837   */\n      0x32\n        /* \"#utility.yul\":4830:4831   */\n      0x04\n        /* \"#utility.yul\":4823:4838   */\n      mstore\n        /* \"#utility.yul\":4857:4861   */\n      0x24\n        /* \"#utility.yul\":4854:4855   */\n      0x00\n        /* \"#utility.yul\":4847:4862   */\n      revert\n        /* \"#utility.yul\":4874:5206   */\n    tag_29:\n        /* \"#utility.yul\":4995:4999   */\n      0x00\n        /* \"#utility.yul\":5033:5035   */\n      0x40\n        /* \"#utility.yul\":5022:5031   */\n      dup3\n        /* \"#utility.yul\":5018:5036   */\n      add\n        /* \"#utility.yul\":5010:5036   */\n      swap1\n      pop\n        /* \"#utility.yul\":5046:5117   */\n      tag_129\n        /* \"#utility.yul\":5114:5115   */\n      0x00\n        /* \"#utility.yul\":5103:5112   */\n      dup4\n        /* \"#utility.yul\":5099:5116   */\n      add\n        /* \"#utility.yul\":5090:5096   */\n      dup6\n        /* \"#utility.yul\":5046:5117   */\n      tag_60\n      jump\t// in\n    tag_129:\n        /* \"#utility.yul\":5127:5199   */\n      tag_130\n        /* \"#utility.yul\":5195:5197   */\n      0x20\n        /* \"#utility.yul\":5184:5193   */\n      dup4\n        /* \"#utility.yul\":5180:5198   */\n      add\n        /* \"#utility.yul\":5171:5177   */\n      dup5\n        /* \"#utility.yul\":5127:5199   */\n      tag_66\n      jump\t// in\n    tag_130:\n        /* \"#utility.yul\":4874:5206   */\n      swap4\n      swap3\n      pop\n      pop\n      pop\n      jump\t// out\n        /* \"#utility.yul\":5212:5328   */\n    tag_67:\n        /* \"#utility.yul\":5282:5303   */\n      tag_132\n        /* \"#utility.yul\":5297:5302   */\n      dup2\n        /* \"#utility.yul\":5282:5303   */\n      tag_53\n      jump\t// in\n    tag_132:\n        /* \"#utility.yul\":5275:5280   */\n      dup2\n        /* \"#utility.yul\":5272:5304   */\n      eq\n        /* \"#utility.yul\":5262:5322   */\n      tag_133\n      jumpi\n        /* \"#utility.yul\":5318:5319   */\n      0x00\n        /* \"#utility.yul\":5315:5316   */\n      dup1\n        /* \"#utility.yul\":5308:5320   */\n      revert\n        /* \"#utility.yul\":5262:5322   */\n    tag_133:\n        /* \"#utility.yul\":5212:5328   */\n      pop\n      jump\t// out\n        /* \"#utility.yul\":5334:5471   */\n    tag_68:\n        /* \"#utility.yul\":5388:5393   */\n      0x00\n        /* \"#utility.yul\":5419:5425   */\n      dup2\n        /* \"#utility.yul\":5413:5426   */\n      mload\n        /* \"#utility.yul\":5404:5426   */\n      swap1\n      pop\n        /* \"#utility.yul\":5435:5465   */\n      tag_135\n        /* \"#utility.yul\":5459:5464   */\n      dup2\n        /* \"#utility.yul\":5435:5465   */\n      tag_67\n      jump\t// in\n    tag_135:\n        /* \"#utility.yul\":5334:5471   */\n      swap3\n      swap2\n      pop\n      pop\n      jump\t// out\n        /* \"#utility.yul\":5477:5822   */\n    tag_33:\n        /* \"#utility.yul\":5544:5550   */\n      0x00\n        /* \"#utility.yul\":5593:5595   */\n      0x20\n        /* \"#utility.yul\":5581:5590   */\n      dup3\n        /* \"#utility.yul\":5572:5579   */\n      dup5\n        /* \"#utility.yul\":5568:5591   */\n      sub\n        /* \"#utility.yul\":5564:5596   */\n      slt\n        /* \"#utility.yul\":5561:5680   */\n      iszero\n      tag_137\n      jumpi\n        /* \"#utility.yul\":5599:5678   */\n      tag_138\n      tag_48\n      jump\t// in\n    tag_138:\n        /* \"#utility.yul\":5561:5680   */\n    tag_137:\n        /* \"#utility.yul\":5719:5720   */\n      0x00\n        /* \"#utility.yul\":5744:5805   */\n      tag_139\n        /* \"#utility.yul\":5797:5804   */\n      dup5\n        /* \"#utility.yul\":5788:5794   */\n      dup3\n        /* \"#utility.yul\":5777:5786   */\n      dup6\n        /* \"#utility.yul\":5773:5795   */\n      add\n        /* \"#utility.yul\":5744:5805   */\n      tag_68\n      jump\t// in\n    tag_139:\n        /* \"#utility.yul\":5734:5805   */\n      swap2\n      pop\n        /* \"#utility.yul\":5690:5815   */\n      pop\n        /* \"#utility.yul\":5477:5822   */\n      swap3\n      swap2\n      pop\n      pop\n      jump\t// out\n        /* \"#utility.yul\":5828:6270   */\n    tag_35:\n        /* \"#utility.yul\":5977:5981   */\n      0x00\n        /* \"#utility.yul\":6015:6017   */\n      0x60\n        /* \"#utility.yul\":6004:6013   */\n      dup3\n        /* \"#utility.yul\":6000:6018   */\n      add\n        /* \"#utility.yul\":5992:6018   */\n      swap1\n      pop\n        /* \"#utility.yul\":6028:6099   */\n      tag_141\n        /* \"#utility.yul\":6096:6097   */\n      0x00\n        /* \"#utility.yul\":6085:6094   */\n      dup4\n        /* \"#utility.yul\":6081:6098   */\n      add\n        /* \"#utility.yul\":6072:6078   */\n      dup7\n        /* \"#utility.yul\":6028:6099   */\n      tag_60\n      jump\t// in\n    tag_141:\n        /* \"#utility.yul\":6109:6181   */\n      tag_142\n        /* \"#utility.yul\":6177:6179   */\n      0x20\n        /* \"#utility.yul\":6166:6175   */\n      dup4\n        /* \"#utility.yul\":6162:6180   */\n      add\n        /* \"#utility.yul\":6153:6159   */\n      dup6\n        /* \"#utility.yul\":6109:6181   */\n      tag_60\n      jump\t// in\n    tag_142:\n        /* \"#utility.yul\":6191:6263   */\n      tag_143\n        /* \"#utility.yul\":6259:6261   */\n      0x40\n        /* \"#utility.yul\":6248:6257   */\n      dup4\n        /* \"#utility.yul\":6244:6262   */\n      add\n        /* \"#utility.yul\":6235:6241   */\n      dup5\n        /* \"#utility.yul\":6191:6263   */\n      tag_66\n      jump\t// in\n    tag_143:\n        /* \"#utility.yul\":5828:6270   */\n      swap5\n      swap4\n      pop\n      pop\n      pop\n      pop\n      jump\t// out\n\n    auxdata: 0xa2646970667358221220c2a346a0e3190f3095396bd1438b38bb99114e3a3451b9458730f5f6d799226464736f6c63430008120033\n}\n",
				"bytecode": {
					"linkReferences": {},
					"object": "608060405234801561001057600080fd5b50610926806100206000396000f3fe608060405234801561001057600080fd5b50600436106100415760003560e01c806311d92a0814610046578063288c98a0146100765780638a72ea6a146100a6575b600080fd5b610060600480360381019061005b91906105f0565b6100db565b60405161006d9190610638565b60405180910390f35b610090600480360381019061008b91906106c3565b6102c5565b60405161009d9190610638565b60405180910390f35b6100c060048036038101906100bb91906105f0565b6104fc565b6040516100d2969594939291906107a7565b60405180910390f35b600080600083815481106100f2576100f1610808565b5b90600052602060002090600602019050600115158160050160009054906101000a900460ff161515036102ba578060010160009054906101000a900473ffffffffffffffffffffffffffffffffffffffff1673ffffffffffffffffffffffffffffffffffffffff1663a9059cbb3383600201546040518363ffffffff1660e01b8152600401610182929190610837565b6020604051808303816000875af11580156101a1573d6000803e3d6000fd5b505050506040513d601f19601f820116820180604052508101906101c5919061088c565b508060030160009054906101000a900473ffffffffffffffffffffffffffffffffffffffff1673ffffffffffffffffffffffffffffffffffffffff166323b872dd338360000160009054906101000a900473ffffffffffffffffffffffffffffffffffffffff1684600401546040518463ffffffff1660e01b815260040161024f939291906108b9565b6020604051808303816000875af115801561026e573d6000803e3d6000fd5b505050506040513d601f19601f82011682018060405250810190610292919061088c565b5060008160050160006101000a81548160ff02191690831515021790555060019150506102c0565b60009150505b919050565b60008473ffffffffffffffffffffffffffffffffffffffff166323b872dd3330876040518463ffffffff1660e01b8152600401610304939291906108b9565b6020604051808303816000875af1158015610323573d6000803e3d6000fd5b505050506040513d601f19601f82011682018060405250810190610347919061088c565b5060006040518060c001604052803373ffffffffffffffffffffffffffffffffffffffff1681526020018773ffffffffffffffffffffffffffffffffffffffff1681526020018681526020018573ffffffffffffffffffffffffffffffffffffffff16815260200184815260200160011515815250908060018154018082558091505060019003906000526020600020906006020160009091909190915060008201518160000160006101000a81548173ffffffffffffffffffffffffffffffffffffffff021916908373ffffffffffffffffffffffffffffffffffffffff16021790555060208201518160010160006101000a81548173ffffffffffffffffffffffffffffffffffffffff021916908373ffffffffffffffffffffffffffffffffffffffff1602179055506040820151816002015560608201518160030160006101000a81548173ffffffffffffffffffffffffffffffffffffffff021916908373ffffffffffffffffffffffffffffffffffffffff1602179055506080820151816004015560a08201518160050160006101000a81548160ff021916908315150217905550505060019050949350505050565b6000818154811061050c57600080fd5b90600052602060002090600602016000915090508060000160009054906101000a900473ffffffffffffffffffffffffffffffffffffffff16908060010160009054906101000a900473ffffffffffffffffffffffffffffffffffffffff16908060020154908060030160009054906101000a900473ffffffffffffffffffffffffffffffffffffffff16908060040154908060050160009054906101000a900460ff16905086565b600080fd5b6000819050919050565b6105cd816105ba565b81146105d857600080fd5b50565b6000813590506105ea816105c4565b92915050565b600060208284031215610606576106056105b5565b5b6000610614848285016105db565b91505092915050565b60008115159050919050565b6106328161061d565b82525050565b600060208201905061064d6000830184610629565b92915050565b600073ffffffffffffffffffffffffffffffffffffffff82169050919050565b600061067e82610653565b9050919050565b600061069082610673565b9050919050565b6106a081610685565b81146106ab57600080fd5b50565b6000813590506106bd81610697565b92915050565b600080600080608085870312156106dd576106dc6105b5565b5b60006106eb878288016106ae565b94505060206106fc878288016105db565b935050604061070d878288016106ae565b925050606061071e878288016105db565b91505092959194509250565b61073381610673565b82525050565b6000819050919050565b600061075e61075961075484610653565b610739565b610653565b9050919050565b600061077082610743565b9050919050565b600061078282610765565b9050919050565b61079281610777565b82525050565b6107a1816105ba565b82525050565b600060c0820190506107bc600083018961072a565b6107c96020830188610789565b6107d66040830187610798565b6107e36060830186610789565b6107f06080830185610798565b6107fd60a0830184610629565b979650505050505050565b7f4e487b7100000000000000000000000000000000000000000000000000000000600052603260045260246000fd5b600060408201905061084c600083018561072a565b6108596020830184610798565b9392505050565b6108698161061d565b811461087457600080fd5b50565b60008151905061088681610860565b92915050565b6000602082840312156108a2576108a16105b5565b5b60006108b084828501610877565b91505092915050565b60006060820190506108ce600083018661072a565b6108db602083018561072a565b6108e86040830184610798565b94935050505056fea2646970667358221220c2a346a0e3190f3095396bd1438b38bb99114e3a3451b9458730f5f6d799226464736f6c63430008120033",
					"opcodes": "PUSH1 0x80 PUSH1 0x40 MSTORE CALLVALUE DUP1 ISZERO PUSH2 0x10 JUMPI PUSH1 0x0 DUP1 REVERT JUMPDEST POP PUSH2 0x926 DUP1 PUSH2 0x20 PUSH1 0x0 CODECOPY PUSH1 0x0 RETURN INVALID PUSH1 0x80 PUSH1 0x40 MSTORE CALLVALUE DUP1 ISZERO PUSH2 0x10 JUMPI PUSH1 0x0 DUP1 REVERT JUMPDEST POP PUSH1 0x4 CALLDATASIZE LT PUSH2 0x41 JUMPI PUSH1 0x0 CALLDATALOAD PUSH1 0xE0 SHR DUP1 PUSH4 0x11D92A08 EQ PUSH2 0x46 JUMPI DUP1 PUSH4 0x288C98A0 EQ PUSH2 0x76 JUMPI DUP1 PUSH4 0x8A72EA6A EQ PUSH2 0xA6 JUMPI JUMPDEST PUSH1 0x0 DUP1 REVERT JUMPDEST PUSH2 0x60 PUSH1 0x4 DUP1 CALLDATASIZE SUB DUP2 ADD SWAP1 PUSH2 0x5B SWAP2 SWAP1 PUSH2 0x5F0 JUMP JUMPDEST PUSH2 0xDB JUMP JUMPDEST PUSH1 0x40 MLOAD PUSH2 0x6D SWAP2 SWAP1 PUSH2 0x638 JUMP JUMPDEST PUSH1 0x40 MLOAD DUP1 SWAP2 SUB SWAP1 RETURN JUMPDEST PUSH2 0x90 PUSH1 0x4 DUP1 CALLDATASIZE SUB DUP2 ADD SWAP1 PUSH2 0x8B SWAP2 SWAP1 PUSH2 0x6C3 JUMP JUMPDEST PUSH2 0x2C5 JUMP JUMPDEST PUSH1 0x40 MLOAD PUSH2 0x9D SWAP2 SWAP1 PUSH2 0x638 JUMP JUMPDEST PUSH1 0x40 MLOAD DUP1 SWAP2 SUB SWAP1 RETURN JUMPDEST PUSH2 0xC0 PUSH1 0x4 DUP1 CALLDATASIZE SUB DUP2 ADD SWAP1 PUSH2 0xBB SWAP2 SWAP1 PUSH2 0x5F0 JUMP JUMPDEST PUSH2 0x4FC JUMP JUMPDEST PUSH1 0x40 MLOAD PUSH2 0xD2 SWAP7 SWAP6 SWAP5 SWAP4 SWAP3 SWAP2 SWAP1 PUSH2 0x7A7 JUMP JUMPDEST PUSH1 0x40 MLOAD DUP1 SWAP2 SUB SWAP1 RETURN JUMPDEST PUSH1 0x0 DUP1 PUSH1 0x0 DUP4 DUP2 SLOAD DUP2 LT PUSH2 0xF2 JUMPI PUSH2 0xF1 PUSH2 0x808 JUMP JUMPDEST JUMPDEST SWAP1 PUSH1 0x0 MSTORE PUSH1 0x20 PUSH1 0x0 KECCAK256 SWAP1 PUSH1 0x6 MUL ADD SWAP1 POP PUSH1 0x1 ISZERO ISZERO DUP2 PUSH1 0x5 ADD PUSH1 0x0 SWAP1 SLOAD SWAP1 PUSH2 0x100 EXP SWAP1 DIV PUSH1 0xFF AND ISZERO ISZERO SUB PUSH2 0x2BA JUMPI DUP1 PUSH1 0x1 ADD PUSH1 0x0 SWAP1 SLOAD SWAP1 PUSH2 0x100 EXP SWAP1 DIV PUSH20 0xFFFFFFFFFFFFFFFFFFFFFFFFFFFFFFFFFFFFFFFF AND PUSH20 0xFFFFFFFFFFFFFFFFFFFFFFFFFFFFFFFFFFFFFFFF AND PUSH4 0xA9059CBB CALLER DUP4 PUSH1 0x2 ADD SLOAD PUSH1 0x40 MLOAD DUP4 PUSH4 0xFFFFFFFF AND PUSH1 0xE0 SHL DUP2 MSTORE PUSH1 0x4 ADD PUSH2 0x182 SWAP3 SWAP2 SWAP1 PUSH2 0x837 JUMP JUMPDEST PUSH1 0x20 PUSH1 0x40 MLOAD DUP1 DUP4 SUB DUP2 PUSH1 0x0 DUP8 GAS CALL ISZERO DUP1 ISZERO PUSH2 0x1A1 JUMPI RETURNDATASIZE PUSH1 0x0 DUP1 RETURNDATACOPY RETURNDATASIZE PUSH1 0x0 REVERT JUMPDEST POP POP POP POP PUSH1 0x40 MLOAD RETURNDATASIZE PUSH1 0x1F NOT PUSH1 0x1F DUP3 ADD AND DUP3 ADD DUP1 PUSH1 0x40 MSTORE POP DUP2 ADD SWAP1 PUSH2 0x1C5 SWAP2 SWAP1 PUSH2 0x88C JUMP JUMPDEST POP DUP1 PUSH1 0x3 ADD PUSH1 0x0 SWAP1 SLOAD SWAP1 PUSH2 0x100 EXP SWAP1 DIV PUSH20 0xFFFFFFFFFFFFFFFFFFFFFFFFFFFFFFFFFFFFFFFF AND PUSH20 0xFFFFFFFFFFFFFFFFFFFFFFFFFFFFFFFFFFFFFFFF AND PUSH4 0x23B872DD CALLER DUP4 PUSH1 0x0 ADD PUSH1 0x0 SWAP1 SLOAD SWAP1 PUSH2 0x100 EXP SWAP1 DIV PUSH20 0xFFFFFFFFFFFFFFFFFFFFFFFFFFFFFFFFFFFFFFFF AND DUP5 PUSH1 0x4 ADD SLOAD PUSH1 0x40 MLOAD DUP5 PUSH4 0xFFFFFFFF AND PUSH1 0xE0 SHL DUP2 MSTORE PUSH1 0x4 ADD PUSH2 0x24F SWAP4 SWAP3 SWAP2 SWAP1 PUSH2 0x8B9 JUMP JUMPDEST PUSH1 0x20 PUSH1 0x40 MLOAD DUP1 DUP4 SUB DUP2 PUSH1 0x0 DUP8 GAS CALL ISZERO DUP1 ISZERO PUSH2 0x26E JUMPI RETURNDATASIZE PUSH1 0x0 DUP1 RETURNDATACOPY RETURNDATASIZE PUSH1 0x0 REVERT JUMPDEST POP POP POP POP PUSH1 0x40 MLOAD RETURNDATASIZE PUSH1 0x1F NOT PUSH1 0x1F DUP3 ADD AND DUP3 ADD DUP1 PUSH1 0x40 MSTORE POP DUP2 ADD SWAP1 PUSH2 0x292 SWAP2 SWAP1 PUSH2 0x88C JUMP JUMPDEST POP PUSH1 0x0 DUP2 PUSH1 0x5 ADD PUSH1 0x0 PUSH2 0x100 EXP DUP2 SLOAD DUP2 PUSH1 0xFF MUL NOT AND SWAP1 DUP4 ISZERO ISZERO MUL OR SWAP1 SSTORE POP PUSH1 0x1 SWAP2 POP POP PUSH2 0x2C0 JUMP JUMPDEST PUSH1 0x0 SWAP2 POP POP JUMPDEST SWAP2 SWAP1 POP JUMP JUMPDEST PUSH1 0x0 DUP5 PUSH20 0xFFFFFFFFFFFFFFFFFFFFFFFFFFFFFFFFFFFFFFFF AND PUSH4 0x23B872DD CALLER ADDRESS DUP8 PUSH1 0x40 MLOAD DUP5 PUSH4 0xFFFFFFFF AND PUSH1 0xE0 SHL DUP2 MSTORE PUSH1 0x4 ADD PUSH2 0x304 SWAP4 SWAP3 SWAP2 SWAP1 PUSH2 0x8B9 JUMP JUMPDEST PUSH1 0x20 PUSH1 0x40 MLOAD DUP1 DUP4 SUB DUP2 PUSH1 0x0 DUP8 GAS CALL ISZERO DUP1 ISZERO PUSH2 0x323 JUMPI RETURNDATASIZE PUSH1 0x0 DUP1 RETURNDATACOPY RETURNDATASIZE PUSH1 0x0 REVERT JUMPDEST POP POP POP POP PUSH1 0x40 MLOAD RETURNDATASIZE PUSH1 0x1F NOT PUSH1 0x1F DUP3 ADD AND DUP3 ADD DUP1 PUSH1 0x40 MSTORE POP DUP2 ADD SWAP1 PUSH2 0x347 SWAP2 SWAP1 PUSH2 0x88C JUMP JUMPDEST POP PUSH1 0x0 PUSH1 0x40 MLOAD DUP1 PUSH1 0xC0 ADD PUSH1 0x40 MSTORE DUP1 CALLER PUSH20 0xFFFFFFFFFFFFFFFFFFFFFFFFFFFFFFFFFFFFFFFF AND DUP2 MSTORE PUSH1 0x20 ADD DUP8 PUSH20 0xFFFFFFFFFFFFFFFFFFFFFFFFFFFFFFFFFFFFFFFF AND DUP2 MSTORE PUSH1 0x20 ADD DUP7 DUP2 MSTORE PUSH1 0x20 ADD DUP6 PUSH20 0xFFFFFFFFFFFFFFFFFFFFFFFFFFFFFFFFFFFFFFFF AND DUP2 MSTORE PUSH1 0x20 ADD DUP5 DUP2 MSTORE PUSH1 0x20 ADD PUSH1 0x1 ISZERO ISZERO DUP2 MSTORE POP SWAP1 DUP1 PUSH1 0x1 DUP2 SLOAD ADD DUP1 DUP3 SSTORE DUP1 SWAP2 POP POP PUSH1 0x1 SWAP1 SUB SWAP1 PUSH1 0x0 MSTORE PUSH1 0x20 PUSH1 0x0 KECCAK256 SWAP1 PUSH1 0x6 MUL ADD PUSH1 0x0 SWAP1 SWAP2 SWAP1 SWAP2 SWAP1 SWAP2 POP PUSH1 0x0 DUP3 ADD MLOAD DUP2 PUSH1 0x0 ADD PUSH1 0x0 PUSH2 0x100 EXP DUP2 SLOAD DUP2 PUSH20 0xFFFFFFFFFFFFFFFFFFFFFFFFFFFFFFFFFFFFFFFF MUL NOT AND SWAP1 DUP4 PUSH20 0xFFFFFFFFFFFFFFFFFFFFFFFFFFFFFFFFFFFFFFFF AND MUL OR SWAP1 SSTORE POP PUSH1 0x20 DUP3 ADD MLOAD DUP2 PUSH1 0x1 ADD PUSH1 0x0 PUSH2 0x100 EXP DUP2 SLOAD DUP2 PUSH20 0xFFFFFFFFFFFFFFFFFFFFFFFFFFFFFFFFFFFFFFFF MUL NOT AND SWAP1 DUP4 PUSH20 0xFFFFFFFFFFFFFFFFFFFFFFFFFFFFFFFFFFFFFFFF AND MUL OR SWAP1 SSTORE POP PUSH1 0x40 DUP3 ADD MLOAD DUP2 PUSH1 0x2 ADD SSTORE PUSH1 0x60 DUP3 ADD MLOAD DUP2 PUSH1 0x3 ADD PUSH1 0x0 PUSH2 0x100 EXP DUP2 SLOAD DUP2 PUSH20 0xFFFFFFFFFFFFFFFFFFFFFFFFFFFFFFFFFFFFFFFF MUL NOT AND SWAP1 DUP4 PUSH20 0xFFFFFFFFFFFFFFFFFFFFFFFFFFFFFFFFFFFFFFFF AND MUL OR SWAP1 SSTORE POP PUSH1 0x80 DUP3 ADD MLOAD DUP2 PUSH1 0x4 ADD SSTORE PUSH1 0xA0 DUP3 ADD MLOAD DUP2 PUSH1 0x5 ADD PUSH1 0x0 PUSH2 0x100 EXP DUP2 SLOAD DUP2 PUSH1 0xFF MUL NOT AND SWAP1 DUP4 ISZERO ISZERO MUL OR SWAP1 SSTORE POP POP POP PUSH1 0x1 SWAP1 POP SWAP5 SWAP4 POP POP POP POP JUMP JUMPDEST PUSH1 0x0 DUP2 DUP2 SLOAD DUP2 LT PUSH2 0x50C JUMPI PUSH1 0x0 DUP1 REVERT JUMPDEST SWAP1 PUSH1 0x0 MSTORE PUSH1 0x20 PUSH1 0x0 KECCAK256 SWAP1 PUSH1 0x6 MUL ADD PUSH1 0x0 SWAP2 POP SWAP1 POP DUP1 PUSH1 0x0 ADD PUSH1 0x0 SWAP1 SLOAD SWAP1 PUSH2 0x100 EXP SWAP1 DIV PUSH20 0xFFFFFFFFFFFFFFFFFFFFFFFFFFFFFFFFFFFFFFFF AND SWAP1 DUP1 PUSH1 0x1 ADD PUSH1 0x0 SWAP1 SLOAD SWAP1 PUSH2 0x100 EXP SWAP1 DIV PUSH20 0xFFFFFFFFFFFFFFFFFFFFFFFFFFFFFFFFFFFFFFFF AND SWAP1 DUP1 PUSH1 0x2 ADD SLOAD SWAP1 DUP1 PUSH1 0x3 ADD PUSH1 0x0 SWAP1 SLOAD SWAP1 PUSH2 0x100 EXP SWAP1 DIV PUSH20 0xFFFFFFFFFFFFFFFFFFFFFFFFFFFFFFFFFFFFFFFF AND SWAP1 DUP1 PUSH1 0x4 ADD SLOAD SWAP1 DUP1 PUSH1 0x5 ADD PUSH1 0x0 SWAP1 SLOAD SWAP1 PUSH2 0x100 EXP SWAP1 DIV PUSH1 0xFF AND SWAP1 POP DUP7 JUMP JUMPDEST PUSH1 0x0 DUP1 REVERT JUMPDEST PUSH1 0x0 DUP2 SWAP1 POP SWAP2 SWAP1 POP JUMP JUMPDEST PUSH2 0x5CD DUP2 PUSH2 0x5BA JUMP JUMPDEST DUP2 EQ PUSH2 0x5D8 JUMPI PUSH1 0x0 DUP1 REVERT JUMPDEST POP JUMP JUMPDEST PUSH1 0x0 DUP2 CALLDATALOAD SWAP1 POP PUSH2 0x5EA DUP2 PUSH2 0x5C4 JUMP JUMPDEST SWAP3 SWAP2 POP POP JUMP JUMPDEST PUSH1 0x0 PUSH1 0x20 DUP3 DUP5 SUB SLT ISZERO PUSH2 0x606 JUMPI PUSH2 0x605 PUSH2 0x5B5 JUMP JUMPDEST JUMPDEST PUSH1 0x0 PUSH2 0x614 DUP5 DUP3 DUP6 ADD PUSH2 0x5DB JUMP JUMPDEST SWAP2 POP POP SWAP3 SWAP2 POP POP JUMP JUMPDEST PUSH1 0x0 DUP2 ISZERO ISZERO SWAP1 POP SWAP2 SWAP1 POP JUMP JUMPDEST PUSH2 0x632 DUP2 PUSH2 0x61D JUMP JUMPDEST DUP3 MSTORE POP POP JUMP JUMPDEST PUSH1 0x0 PUSH1 0x20 DUP3 ADD SWAP1 POP PUSH2 0x64D PUSH1 0x0 DUP4 ADD DUP5 PUSH2 0x629 JUMP JUMPDEST SWAP3 SWAP2 POP POP JUMP JUMPDEST PUSH1 0x0 PUSH20 0xFFFFFFFFFFFFFFFFFFFFFFFFFFFFFFFFFFFFFFFF DUP3 AND SWAP1 POP SWAP2 SWAP1 POP JUMP JUMPDEST PUSH1 0x0 PUSH2 0x67E DUP3 PUSH2 0x653 JUMP JUMPDEST SWAP1 POP SWAP2 SWAP1 POP JUMP JUMPDEST PUSH1 0x0 PUSH2 0x690 DUP3 PUSH2 0x673 JUMP JUMPDEST SWAP1 POP SWAP2 SWAP1 POP JUMP JUMPDEST PUSH2 0x6A0 DUP2 PUSH2 0x685 JUMP JUMPDEST DUP2 EQ PUSH2 0x6AB JUMPI PUSH1 0x0 DUP1 REVERT JUMPDEST POP JUMP JUMPDEST PUSH1 0x0 DUP2 CALLDATALOAD SWAP1 POP PUSH2 0x6BD DUP2 PUSH2 0x697 JUMP JUMPDEST SWAP3 SWAP2 POP POP JUMP JUMPDEST PUSH1 0x0 DUP1 PUSH1 0x0 DUP1 PUSH1 0x80 DUP6 DUP8 SUB SLT ISZERO PUSH2 0x6DD JUMPI PUSH2 0x6DC PUSH2 0x5B5 JUMP JUMPDEST JUMPDEST PUSH1 0x0 PUSH2 0x6EB DUP8 DUP3 DUP9 ADD PUSH2 0x6AE JUMP JUMPDEST SWAP5 POP POP PUSH1 0x20 PUSH2 0x6FC DUP8 DUP3 DUP9 ADD PUSH2 0x5DB JUMP JUMPDEST SWAP4 POP POP PUSH1 0x40 PUSH2 0x70D DUP8 DUP3 DUP9 ADD PUSH2 0x6AE JUMP JUMPDEST SWAP3 POP POP PUSH1 0x60 PUSH2 0x71E DUP8 DUP3 DUP9 ADD PUSH2 0x5DB JUMP JUMPDEST SWAP2 POP POP SWAP3 SWAP6 SWAP2 SWAP5 POP SWAP3 POP JUMP JUMPDEST PUSH2 0x733 DUP2 PUSH2 0x673 JUMP JUMPDEST DUP3 MSTORE POP POP JUMP JUMPDEST PUSH1 0x0 DUP2 SWAP1 POP SWAP2 SWAP1 POP JUMP JUMPDEST PUSH1 0x0 PUSH2 0x75E PUSH2 0x759 PUSH2 0x754 DUP5 PUSH2 0x653 JUMP JUMPDEST PUSH2 0x739 JUMP JUMPDEST PUSH2 0x653 JUMP JUMPDEST SWAP1 POP SWAP2 SWAP1 POP JUMP JUMPDEST PUSH1 0x0 PUSH2 0x770 DUP3 PUSH2 0x743 JUMP JUMPDEST SWAP1 POP SWAP2 SWAP1 POP JUMP JUMPDEST PUSH1 0x0 PUSH2 0x782 DUP3 PUSH2 0x765 JUMP JUMPDEST SWAP1 POP SWAP2 SWAP1 POP JUMP JUMPDEST PUSH2 0x792 DUP2 PUSH2 0x777 JUMP JUMPDEST DUP3 MSTORE POP POP JUMP JUMPDEST PUSH2 0x7A1 DUP2 PUSH2 0x5BA JUMP JUMPDEST DUP3 MSTORE POP POP JUMP JUMPDEST PUSH1 0x0 PUSH1 0xC0 DUP3 ADD SWAP1 POP PUSH2 0x7BC PUSH1 0x0 DUP4 ADD DUP10 PUSH2 0x72A JUMP JUMPDEST PUSH2 0x7C9 PUSH1 0x20 DUP4 ADD DUP9 PUSH2 0x789 JUMP JUMPDEST PUSH2 0x7D6 PUSH1 0x40 DUP4 ADD DUP8 PUSH2 0x798 JUMP JUMPDEST PUSH2 0x7E3 PUSH1 0x60 DUP4 ADD DUP7 PUSH2 0x789 JUMP JUMPDEST PUSH2 0x7F0 PUSH1 0x80 DUP4 ADD DUP6 PUSH2 0x798 JUMP JUMPDEST PUSH2 0x7FD PUSH1 0xA0 DUP4 ADD DUP5 PUSH2 0x629 JUMP JUMPDEST SWAP8 SWAP7 POP POP POP POP POP POP POP JUMP JUMPDEST PUSH32 0x4E487B7100000000000000000000000000000000000000000000000000000000 PUSH1 0x0 MSTORE PUSH1 0x32 PUSH1 0x4 MSTORE PUSH1 0x24 PUSH1 0x0 REVERT JUMPDEST PUSH1 0x0 PUSH1 0x40 DUP3 ADD SWAP1 POP PUSH2 0x84C PUSH1 0x0 DUP4 ADD DUP6 PUSH2 0x72A JUMP JUMPDEST PUSH2 0x859 PUSH1 0x20 DUP4 ADD DUP5 PUSH2 0x798 JUMP JUMPDEST SWAP4 SWAP3 POP POP POP JUMP JUMPDEST PUSH2 0x869 DUP2 PUSH2 0x61D JUMP JUMPDEST DUP2 EQ PUSH2 0x874 JUMPI PUSH1 0x0 DUP1 REVERT JUMPDEST POP JUMP JUMPDEST PUSH1 0x0 DUP2 MLOAD SWAP1 POP PUSH2 0x886 DUP2 PUSH2 0x860 JUMP JUMPDEST SWAP3 SWAP2 POP POP JUMP JUMPDEST PUSH1 0x0 PUSH1 0x20 DUP3 DUP5 SUB SLT ISZERO PUSH2 0x8A2 JUMPI PUSH2 0x8A1 PUSH2 0x5B5 JUMP JUMPDEST JUMPDEST PUSH1 0x0 PUSH2 0x8B0 DUP5 DUP3 DUP6 ADD PUSH2 0x877 JUMP JUMPDEST SWAP2 POP POP SWAP3 SWAP2 POP POP JUMP JUMPDEST PUSH1 0x0 PUSH1 0x60 DUP3 ADD SWAP1 POP PUSH2 0x8CE PUSH1 0x0 DUP4 ADD DUP7 PUSH2 0x72A JUMP JUMPDEST PUSH2 0x8DB PUSH1 0x20 DUP4 ADD DUP6 PUSH2 0x72A JUMP JUMPDEST PUSH2 0x8E8 PUSH1 0x40 DUP4 ADD DUP5 PUSH2 0x798 JUMP JUMPDEST SWAP5 SWAP4 POP POP POP POP JUMP INVALID LOG2 PUSH5 0x6970667358 0x22 SLT KECCAK256 0xC2 LOG3 CHAINID LOG0 0xE3 NOT 0xF ADDRESS SWAP6 CODECOPY PUSH12 0xD1438B38BB99114E3A3451B9 GASLIMIT DUP8 ADDRESS CREATE2 0xF6 0xD7 SWAP10 0x22 PUSH5 0x64736F6C63 NUMBER STOP ADDMOD SLT STOP CALLER "
				},
				"gasEstimates": {
					"creation": {
						"codeDepositCost": "468400",
						"executionCost": "505",
						"totalCost": "468905"
					},
					"external": {
						"Add(address,uint256,address,uint256)": "infinite",
						"Exchange(uint256)": "infinite",
						"offers(uint256)": "infinite"
					}
				},
				"methodIdentifiers": {
					"Add(address,uint256,address,uint256)": "288c98a0",
					"Exchange(uint256)": "11d92a08",
					"offers(uint256)": "8a72ea6a"
				}
			},
			"storageLayout": {
				"storage": [
					{
						"astId": 211,
						"contract": "SimpleSwap.sol:SimpleSwap",
						"label": "offers",
						"offset": 0,
						"slot": "0",
						"type": "t_array(t_struct(Offer)207_storage)dyn_storage"
					}
				],
				"types": {
					"t_address": {
						"encoding": "inplace",
						"label": "address",
						"numberOfBytes": "20"
					},
					"t_array(t_struct(Offer)207_storage)dyn_storage": {
						"base": "t_struct(Offer)207_storage",
						"encoding": "dynamic_array",
						"label": "struct SimpleSwap.Offer[]",
						"numberOfBytes": "32"
					},
					"t_bool": {
						"encoding": "inplace",
						"label": "bool",
						"numberOfBytes": "1"
					},
					"t_contract(IERC20)189": {
						"encoding": "inplace",
						"label": "contract IERC20",
						"numberOfBytes": "20"
					},
					"t_struct(Offer)207_storage": {
						"encoding": "inplace",
						"label": "struct SimpleSwap.Offer",
						"members": [
							{
								"astId": 194,
								"contract": "SimpleSwap.sol:SimpleSwap",
								"label": "seller",
								"offset": 0,
								"slot": "0",
								"type": "t_address"
							},
							{
								"astId": 197,
								"contract": "SimpleSwap.sol:SimpleSwap",
								"label": "sell",
								"offset": 0,
								"slot": "1",
								"type": "t_contract(IERC20)189"
							},
							{
								"astId": 199,
								"contract": "SimpleSwap.sol:SimpleSwap",
								"label": "sellAmount",
								"offset": 0,
								"slot": "2",
								"type": "t_uint256"
							},
							{
								"astId": 202,
								"contract": "SimpleSwap.sol:SimpleSwap",
								"label": "buy",
								"offset": 0,
								"slot": "3",
								"type": "t_contract(IERC20)189"
							},
							{
								"astId": 204,
								"contract": "SimpleSwap.sol:SimpleSwap",
								"label": "buyAmount",
								"offset": 0,
								"slot": "4",
								"type": "t_uint256"
							},
							{
								"astId": 206,
								"contract": "SimpleSwap.sol:SimpleSwap",
								"label": "active",
								"offset": 0,
								"slot": "5",
								"type": "t_bool"
							}
						],
						"numberOfBytes": "192"
					},
					"t_uint256": {
						"encoding": "inplace",
						"label": "uint256",
						"numberOfBytes": "32"
					}
				}
			},
			"userdoc": {
				"kind": "user",
				"methods": {},
				"version": 1
			}
		}
	}
}