{
	"tests/WETH_test.sol": {
		"testSuite": {
			"abi": [
				{
					"inputs": [],
					"name": "beforeEach",
					"outputs": [],
					"stateMutability": "nonpayable",
					"type": "function"
				},
				{
					"inputs": [],
					"name": "checkSymbol",
					"outputs": [
						{
							"internalType": "bool",
							"name": "",
							"type": "bool"
						}
					],
					"stateMutability": "nonpayable",
					"type": "function"
				},
				{
					"inputs": [],
					"name": "checkTotalSupply",
					"outputs": [
						{
							"internalType": "bool",
							"name": "",
							"type": "bool"
						}
					],
					"stateMutability": "nonpayable",
					"type": "function"
				}
			],
			"devdoc": {
				"kind": "dev",
				"methods": {},
				"version": 1
			},
			"evm": {
				"assembly": "    /* \"tests/WETH_test.sol\":496:949  contract testSuite {... */\n  mstore(0x40, 0x80)\n  callvalue\n  dup1\n  iszero\n  tag_1\n  jumpi\n  0x00\n  dup1\n  revert\ntag_1:\n  pop\n  dataSize(sub_0)\n  dup1\n  dataOffset(sub_0)\n  0x00\n  codecopy\n  0x00\n  return\nstop\n\nsub_0: assembly {\n        /* \"tests/WETH_test.sol\":496:949  contract testSuite {... */\n      mstore(0x40, 0x80)\n      callvalue\n      dup1\n      iszero\n      tag_1\n      jumpi\n      0x00\n      dup1\n      revert\n    tag_1:\n      pop\n      jumpi(tag_2, lt(calldatasize, 0x04))\n      shr(0xe0, calldataload(0x00))\n      dup1\n      0x6331e7d4\n      eq\n      tag_3\n      jumpi\n      dup1\n      0xa511eb2c\n      eq\n      tag_4\n      jumpi\n      dup1\n      0xaed8774b\n      eq\n      tag_5\n      jumpi\n    tag_2:\n      0x00\n      dup1\n      revert\n        /* \"tests/WETH_test.sol\":537:600  function beforeEach() public {... */\n    tag_3:\n      tag_6\n      tag_7\n      jump\t// in\n    tag_6:\n      stop\n        /* \"tests/WETH_test.sol\":806:947  function checkTotalSupply() public returns (bool) {... */\n    tag_4:\n      tag_8\n      tag_9\n      jump\t// in\n    tag_8:\n      mload(0x40)\n      tag_10\n      swap2\n      swap1\n      tag_11\n      jump\t// in\n    tag_10:\n      mload(0x40)\n      dup1\n      swap2\n      sub\n      swap1\n      return\n        /* \"tests/WETH_test.sol\":606:800  function checkSymbol() public returns (bool) {... */\n    tag_5:\n      tag_12\n      tag_13\n      jump\t// in\n    tag_12:\n      mload(0x40)\n      tag_14\n      swap2\n      swap1\n      tag_11\n      jump\t// in\n    tag_14:\n      mload(0x40)\n      dup1\n      swap2\n      sub\n      swap1\n      return\n        /* \"tests/WETH_test.sol\":537:600  function beforeEach() public {... */\n    tag_7:\n        /* \"tests/WETH_test.sol\":583:593  new WETH() */\n      mload(0x40)\n      tag_16\n      swap1\n      tag_17\n      jump\t// in\n    tag_16:\n      mload(0x40)\n      dup1\n      swap2\n      sub\n      swap1\n      0x00\n      create\n      dup1\n      iszero\n      dup1\n      iszero\n      tag_18\n      jumpi\n      returndatasize\n      0x00\n      dup1\n      returndatacopy\n      revert(0x00, returndatasize)\n    tag_18:\n      pop\n        /* \"tests/WETH_test.sol\":576:580  weth */\n      0x00\n      dup1\n        /* \"tests/WETH_test.sol\":576:593  weth = new WETH() */\n      0x0100\n      exp\n      dup2\n      sload\n      dup2\n      0xffffffffffffffffffffffffffffffffffffffff\n      mul\n      not\n      and\n      swap1\n      dup4\n      0xffffffffffffffffffffffffffffffffffffffff\n      and\n      mul\n      or\n      swap1\n      sstore\n      pop\n        /* \"tests/WETH_test.sol\":537:600  function beforeEach() public {... */\n      jump\t// out\n        /* \"tests/WETH_test.sol\":806:947  function checkTotalSupply() public returns (bool) {... */\n    tag_9:\n        /* \"tests/WETH_test.sol\":850:854  bool */\n      0x00\n        /* \"tests/WETH_test.sol\":873:879  Assert */\n      linkerSymbol(\"acbfb1c35000d78352310b16a054a6b1066124b9c6f054b10c085f549bff80c6\")\n        /* \"tests/WETH_test.sol\":873:885  Assert.equal */\n      0xabcd7960\n        /* \"tests/WETH_test.sol\":886:890  weth */\n      0x00\n      dup1\n      sload\n      swap1\n      0x0100\n      exp\n      swap1\n      div\n      0xffffffffffffffffffffffffffffffffffffffff\n      and\n        /* \"tests/WETH_test.sol\":886:902  weth.totalSupply */\n      0xffffffffffffffffffffffffffffffffffffffff\n      and\n      0x18160ddd\n        /* \"tests/WETH_test.sol\":886:904  weth.totalSupply() */\n      mload(0x40)\n      dup2\n      0xffffffff\n      and\n      0xe0\n      shl\n      dup2\n      mstore\n      0x04\n      add\n      0x20\n      mload(0x40)\n      dup1\n      dup4\n      sub\n      dup2\n      dup7\n      gas\n      staticcall\n      iszero\n      dup1\n      iszero\n      tag_21\n      jumpi\n      returndatasize\n      0x00\n      dup1\n      returndatacopy\n      revert(0x00, returndatasize)\n    tag_21:\n      pop\n      pop\n      pop\n      pop\n      mload(0x40)\n      returndatasize\n      not(0x1f)\n      0x1f\n      dup3\n      add\n      and\n      dup3\n      add\n      dup1\n      0x40\n      mstore\n      pop\n      dup2\n      add\n      swap1\n      tag_22\n      swap2\n      swap1\n      tag_23\n      jump\t// in\n    tag_22:\n        /* \"tests/WETH_test.sol\":906:907  0 */\n      0x00\n        /* \"tests/WETH_test.sol\":873:940  Assert.equal(weth.totalSupply(), 0, \"initial value is not correct\") */\n      mload(0x40)\n      dup4\n      0xffffffff\n      and\n      0xe0\n      shl\n      dup2\n      mstore\n      0x04\n      add\n      tag_24\n      swap3\n      swap2\n      swap1\n      tag_25\n      jump\t// in\n    tag_24:\n      0x20\n      mload(0x40)\n      dup1\n      dup4\n      sub\n      dup2\n      dup7\n      gas\n      delegatecall\n      iszero\n      dup1\n      iszero\n      tag_27\n      jumpi\n      returndatasize\n      0x00\n      dup1\n      returndatacopy\n      revert(0x00, returndatasize)\n    tag_27:\n      pop\n      pop\n      pop\n      pop\n      mload(0x40)\n      returndatasize\n      not(0x1f)\n      0x1f\n      dup3\n      add\n      and\n      dup3\n      add\n      dup1\n      0x40\n      mstore\n      pop\n      dup2\n      add\n      swap1\n      tag_28\n      swap2\n      swap1\n      tag_29\n      jump\t// in\n    tag_28:\n        /* \"tests/WETH_test.sol\":866:940  return Assert.equal(weth.totalSupply(), 0, \"initial value is not correct\") */\n      swap1\n      pop\n        /* \"tests/WETH_test.sol\":806:947  function checkTotalSupply() public returns (bool) {... */\n      swap1\n      jump\t// out\n        /* \"tests/WETH_test.sol\":606:800  function checkSymbol() public returns (bool) {... */\n    tag_13:\n        /* \"tests/WETH_test.sol\":645:649  bool */\n      0x00\n        /* \"tests/WETH_test.sol\":668:674  Assert */\n      linkerSymbol(\"acbfb1c35000d78352310b16a054a6b1066124b9c6f054b10c085f549bff80c6\")\n        /* \"tests/WETH_test.sol\":668:680  Assert.equal */\n      0xea79dd79\n        /* \"tests/WETH_test.sol\":708:712  weth */\n      0x00\n      dup1\n      sload\n      swap1\n      0x0100\n      exp\n      swap1\n      div\n      0xffffffffffffffffffffffffffffffffffffffff\n      and\n        /* \"tests/WETH_test.sol\":708:719  weth.symbol */\n      0xffffffffffffffffffffffffffffffffffffffff\n      and\n      0x95d89b41\n        /* \"tests/WETH_test.sol\":708:721  weth.symbol() */\n      mload(0x40)\n      dup2\n      0xffffffff\n      and\n      0xe0\n      shl\n      dup2\n      mstore\n      0x04\n      add\n      0x00\n      mload(0x40)\n      dup1\n      dup4\n      sub\n      dup2\n      dup7\n      gas\n      staticcall\n      iszero\n      dup1\n      iszero\n      tag_32\n      jumpi\n      returndatasize\n      0x00\n      dup1\n      returndatacopy\n      revert(0x00, returndatasize)\n    tag_32:\n      pop\n      pop\n      pop\n      pop\n      mload(0x40)\n      returndatasize\n      0x00\n      dup3\n      returndatacopy\n      returndatasize\n      not(0x1f)\n      0x1f\n      dup3\n      add\n      and\n      dup3\n      add\n      dup1\n      0x40\n      mstore\n      pop\n      dup2\n      add\n      swap1\n      tag_33\n      swap2\n      swap1\n      tag_34\n      jump\t// in\n    tag_33:\n        /* \"tests/WETH_test.sol\":691:722  abi.encodePacked(weth.symbol()) */\n      add(0x20, mload(0x40))\n      tag_35\n      swap2\n      swap1\n      tag_36\n      jump\t// in\n    tag_35:\n      mload(0x40)\n      0x20\n      dup2\n      dup4\n      sub\n      sub\n      dup2\n      mstore\n      swap1\n      0x40\n      mstore\n        /* \"tests/WETH_test.sol\":681:723  keccak256(abi.encodePacked(weth.symbol())) */\n      dup1\n      mload\n      swap1\n      0x20\n      add\n      keccak256\n        /* \"tests/WETH_test.sol\":735:759  abi.encodePacked(\"WETH\") */\n      add(0x20, mload(0x40))\n      tag_37\n      swap1\n      tag_38\n      jump\t// in\n    tag_37:\n      mload(0x40)\n      0x20\n      dup2\n      dup4\n      sub\n      sub\n      dup2\n      mstore\n      swap1\n      0x40\n      mstore\n        /* \"tests/WETH_test.sol\":725:760  keccak256(abi.encodePacked(\"WETH\")) */\n      dup1\n      mload\n      swap1\n      0x20\n      add\n      keccak256\n        /* \"tests/WETH_test.sol\":668:793  Assert.equal(keccak256(abi.encodePacked(weth.symbol())), keccak256(abi.encodePacked(\"WETH\")), \"initial value is not correct\") */\n      mload(0x40)\n      dup4\n      0xffffffff\n      and\n      0xe0\n      shl\n      dup2\n      mstore\n      0x04\n      add\n      tag_39\n      swap3\n      swap2\n      swap1\n      tag_40\n      jump\t// in\n    tag_39:\n      0x20\n      mload(0x40)\n      dup1\n      dup4\n      sub\n      dup2\n      dup7\n      gas\n      delegatecall\n      iszero\n      dup1\n      iszero\n      tag_42\n      jumpi\n      returndatasize\n      0x00\n      dup1\n      returndatacopy\n      revert(0x00, returndatasize)\n    tag_42:\n      pop\n      pop\n      pop\n      pop\n      mload(0x40)\n      returndatasize\n      not(0x1f)\n      0x1f\n      dup3\n      add\n      and\n      dup3\n      add\n      dup1\n      0x40\n      mstore\n      pop\n      dup2\n      add\n      swap1\n      tag_43\n      swap2\n      swap1\n      tag_29\n      jump\t// in\n    tag_43:\n        /* \"tests/WETH_test.sol\":661:793  return Assert.equal(keccak256(abi.encodePacked(weth.symbol())), keccak256(abi.encodePacked(\"WETH\")), \"initial value is not correct\") */\n      swap1\n      pop\n        /* \"tests/WETH_test.sol\":606:800  function checkSymbol() public returns (bool) {... */\n      swap1\n      jump\t// out\n    tag_17:\n      dataSize(sub_0)\n      dup1\n      dataOffset(sub_0)\n      dup4\n      codecopy\n      add\n      swap1\n      jump\t// out\n        /* \"#utility.yul\":7:97   */\n    tag_44:\n        /* \"#utility.yul\":41:48   */\n      0x00\n        /* \"#utility.yul\":84:89   */\n      dup2\n        /* \"#utility.yul\":77:90   */\n      iszero\n        /* \"#utility.yul\":70:91   */\n      iszero\n        /* \"#utility.yul\":59:91   */\n      swap1\n      pop\n        /* \"#utility.yul\":7:97   */\n      swap2\n      swap1\n      pop\n      jump\t// out\n        /* \"#utility.yul\":103:212   */\n    tag_45:\n        /* \"#utility.yul\":184:205   */\n      tag_82\n        /* \"#utility.yul\":199:204   */\n      dup2\n        /* \"#utility.yul\":184:205   */\n      tag_44\n      jump\t// in\n    tag_82:\n        /* \"#utility.yul\":179:182   */\n      dup3\n        /* \"#utility.yul\":172:206   */\n      mstore\n        /* \"#utility.yul\":103:212   */\n      pop\n      pop\n      jump\t// out\n        /* \"#utility.yul\":218:428   */\n    tag_11:\n        /* \"#utility.yul\":305:309   */\n      0x00\n        /* \"#utility.yul\":343:345   */\n      0x20\n        /* \"#utility.yul\":332:341   */\n      dup3\n        /* \"#utility.yul\":328:346   */\n      add\n        /* \"#utility.yul\":320:346   */\n      swap1\n      pop\n        /* \"#utility.yul\":356:421   */\n      tag_84\n        /* \"#utility.yul\":418:419   */\n      0x00\n        /* \"#utility.yul\":407:416   */\n      dup4\n        /* \"#utility.yul\":403:420   */\n      add\n        /* \"#utility.yul\":394:400   */\n      dup5\n        /* \"#utility.yul\":356:421   */\n      tag_45\n      jump\t// in\n    tag_84:\n        /* \"#utility.yul\":218:428   */\n      swap3\n      swap2\n      pop\n      pop\n      jump\t// out\n        /* \"#utility.yul\":434:509   */\n    tag_46:\n        /* \"#utility.yul\":467:473   */\n      0x00\n        /* \"#utility.yul\":500:502   */\n      0x40\n        /* \"#utility.yul\":494:503   */\n      mload\n        /* \"#utility.yul\":484:503   */\n      swap1\n      pop\n        /* \"#utility.yul\":434:509   */\n      swap1\n      jump\t// out\n        /* \"#utility.yul\":515:632   */\n    tag_47:\n        /* \"#utility.yul\":624:625   */\n      0x00\n        /* \"#utility.yul\":621:622   */\n      dup1\n        /* \"#utility.yul\":614:626   */\n      revert\n        /* \"#utility.yul\":638:755   */\n    tag_48:\n        /* \"#utility.yul\":747:748   */\n      0x00\n        /* \"#utility.yul\":744:745   */\n      dup1\n        /* \"#utility.yul\":737:749   */\n      revert\n        /* \"#utility.yul\":761:838   */\n    tag_49:\n        /* \"#utility.yul\":798:805   */\n      0x00\n        /* \"#utility.yul\":827:832   */\n      dup2\n        /* \"#utility.yul\":816:832   */\n      swap1\n      pop\n        /* \"#utility.yul\":761:838   */\n      swap2\n      swap1\n      pop\n      jump\t// out\n        /* \"#utility.yul\":844:966   */\n    tag_50:\n        /* \"#utility.yul\":917:941   */\n      tag_90\n        /* \"#utility.yul\":935:940   */\n      dup2\n        /* \"#utility.yul\":917:941   */\n      tag_49\n      jump\t// in\n    tag_90:\n        /* \"#utility.yul\":910:915   */\n      dup2\n        /* \"#utility.yul\":907:942   */\n      eq\n        /* \"#utility.yul\":897:960   */\n      tag_91\n      jumpi\n        /* \"#utility.yul\":956:957   */\n      0x00\n        /* \"#utility.yul\":953:954   */\n      dup1\n        /* \"#utility.yul\":946:958   */\n      revert\n        /* \"#utility.yul\":897:960   */\n    tag_91:\n        /* \"#utility.yul\":844:966   */\n      pop\n      jump\t// out\n        /* \"#utility.yul\":972:1115   */\n    tag_51:\n        /* \"#utility.yul\":1029:1034   */\n      0x00\n        /* \"#utility.yul\":1060:1066   */\n      dup2\n        /* \"#utility.yul\":1054:1067   */\n      mload\n        /* \"#utility.yul\":1045:1067   */\n      swap1\n      pop\n        /* \"#utility.yul\":1076:1109   */\n      tag_93\n        /* \"#utility.yul\":1103:1108   */\n      dup2\n        /* \"#utility.yul\":1076:1109   */\n      tag_50\n      jump\t// in\n    tag_93:\n        /* \"#utility.yul\":972:1115   */\n      swap3\n      swap2\n      pop\n      pop\n      jump\t// out\n        /* \"#utility.yul\":1121:1472   */\n    tag_23:\n        /* \"#utility.yul\":1191:1197   */\n      0x00\n        /* \"#utility.yul\":1240:1242   */\n      0x20\n        /* \"#utility.yul\":1228:1237   */\n      dup3\n        /* \"#utility.yul\":1219:1226   */\n      dup5\n        /* \"#utility.yul\":1215:1238   */\n      sub\n        /* \"#utility.yul\":1211:1243   */\n      slt\n        /* \"#utility.yul\":1208:1327   */\n      iszero\n      tag_95\n      jumpi\n        /* \"#utility.yul\":1246:1325   */\n      tag_96\n      tag_47\n      jump\t// in\n    tag_96:\n        /* \"#utility.yul\":1208:1327   */\n    tag_95:\n        /* \"#utility.yul\":1366:1367   */\n      0x00\n        /* \"#utility.yul\":1391:1455   */\n      tag_97\n        /* \"#utility.yul\":1447:1454   */\n      dup5\n        /* \"#utility.yul\":1438:1444   */\n      dup3\n        /* \"#utility.yul\":1427:1436   */\n      dup6\n        /* \"#utility.yul\":1423:1445   */\n      add\n        /* \"#utility.yul\":1391:1455   */\n      tag_51\n      jump\t// in\n    tag_97:\n        /* \"#utility.yul\":1381:1455   */\n      swap2\n      pop\n        /* \"#utility.yul\":1337:1465   */\n      pop\n        /* \"#utility.yul\":1121:1472   */\n      swap3\n      swap2\n      pop\n      pop\n      jump\t// out\n        /* \"#utility.yul\":1478:1604   */\n    tag_52:\n        /* \"#utility.yul\":1573:1597   */\n      tag_99\n        /* \"#utility.yul\":1591:1596   */\n      dup2\n        /* \"#utility.yul\":1573:1597   */\n      tag_49\n      jump\t// in\n    tag_99:\n        /* \"#utility.yul\":1568:1571   */\n      dup3\n        /* \"#utility.yul\":1561:1598   */\n      mstore\n        /* \"#utility.yul\":1478:1604   */\n      pop\n      pop\n      jump\t// out\n        /* \"#utility.yul\":1610:1695   */\n    tag_53:\n        /* \"#utility.yul\":1655:1662   */\n      0x00\n        /* \"#utility.yul\":1684:1689   */\n      dup2\n        /* \"#utility.yul\":1673:1689   */\n      swap1\n      pop\n        /* \"#utility.yul\":1610:1695   */\n      swap2\n      swap1\n      pop\n      jump\t// out\n        /* \"#utility.yul\":1701:1761   */\n    tag_54:\n        /* \"#utility.yul\":1729:1732   */\n      0x00\n        /* \"#utility.yul\":1750:1755   */\n      dup2\n        /* \"#utility.yul\":1743:1755   */\n      swap1\n      pop\n        /* \"#utility.yul\":1701:1761   */\n      swap2\n      swap1\n      pop\n      jump\t// out\n        /* \"#utility.yul\":1767:1925   */\n    tag_55:\n        /* \"#utility.yul\":1825:1834   */\n      0x00\n        /* \"#utility.yul\":1858:1919   */\n      tag_103\n        /* \"#utility.yul\":1876:1918   */\n      tag_104\n        /* \"#utility.yul\":1885:1917   */\n      tag_105\n        /* \"#utility.yul\":1911:1916   */\n      dup5\n        /* \"#utility.yul\":1885:1917   */\n      tag_53\n      jump\t// in\n    tag_105:\n        /* \"#utility.yul\":1876:1918   */\n      tag_54\n      jump\t// in\n    tag_104:\n        /* \"#utility.yul\":1858:1919   */\n      tag_49\n      jump\t// in\n    tag_103:\n        /* \"#utility.yul\":1845:1919   */\n      swap1\n      pop\n        /* \"#utility.yul\":1767:1925   */\n      swap2\n      swap1\n      pop\n      jump\t// out\n        /* \"#utility.yul\":1931:2086   */\n    tag_56:\n        /* \"#utility.yul\":2034:2079   */\n      tag_107\n        /* \"#utility.yul\":2073:2078   */\n      dup2\n        /* \"#utility.yul\":2034:2079   */\n      tag_55\n      jump\t// in\n    tag_107:\n        /* \"#utility.yul\":2029:2032   */\n      dup3\n        /* \"#utility.yul\":2022:2080   */\n      mstore\n        /* \"#utility.yul\":1931:2086   */\n      pop\n      pop\n      jump\t// out\n        /* \"#utility.yul\":2092:2269   */\n    tag_57:\n        /* \"#utility.yul\":2184:2195   */\n      0x00\n        /* \"#utility.yul\":2218:2224   */\n      dup3\n        /* \"#utility.yul\":2213:2216   */\n      dup3\n        /* \"#utility.yul\":2206:2225   */\n      mstore\n        /* \"#utility.yul\":2258:2262   */\n      0x20\n        /* \"#utility.yul\":2253:2256   */\n      dup3\n        /* \"#utility.yul\":2249:2263   */\n      add\n        /* \"#utility.yul\":2234:2263   */\n      swap1\n      pop\n        /* \"#utility.yul\":2092:2269   */\n      swap3\n      swap2\n      pop\n      pop\n      jump\t// out\n        /* \"#utility.yul\":2275:2453   */\n    tag_58:\n        /* \"#utility.yul\":2415:2445   */\n      0x696e697469616c2076616c7565206973206e6f7420636f727265637400000000\n        /* \"#utility.yul\":2411:2412   */\n      0x00\n        /* \"#utility.yul\":2403:2409   */\n      dup3\n        /* \"#utility.yul\":2399:2413   */\n      add\n        /* \"#utility.yul\":2392:2446   */\n      mstore\n        /* \"#utility.yul\":2275:2453   */\n      pop\n      jump\t// out\n        /* \"#utility.yul\":2459:2841   */\n    tag_59:\n        /* \"#utility.yul\":2609:2612   */\n      0x00\n        /* \"#utility.yul\":2630:2705   */\n      tag_111\n        /* \"#utility.yul\":2702:2704   */\n      0x1c\n        /* \"#utility.yul\":2697:2700   */\n      dup4\n        /* \"#utility.yul\":2630:2705   */\n      tag_57\n      jump\t// in\n    tag_111:\n        /* \"#utility.yul\":2623:2705   */\n      swap2\n      pop\n        /* \"#utility.yul\":2714:2807   */\n      tag_112\n        /* \"#utility.yul\":2803:2806   */\n      dup3\n        /* \"#utility.yul\":2714:2807   */\n      tag_58\n      jump\t// in\n    tag_112:\n        /* \"#utility.yul\":2832:2834   */\n      0x20\n        /* \"#utility.yul\":2827:2830   */\n      dup3\n        /* \"#utility.yul\":2823:2835   */\n      add\n        /* \"#utility.yul\":2816:2835   */\n      swap1\n      pop\n        /* \"#utility.yul\":2459:2841   */\n      swap2\n      swap1\n      pop\n      jump\t// out\n        /* \"#utility.yul\":2847:3534   */\n    tag_25:\n        /* \"#utility.yul\":3085:3089   */\n      0x00\n        /* \"#utility.yul\":3123:3125   */\n      0x60\n        /* \"#utility.yul\":3112:3121   */\n      dup3\n        /* \"#utility.yul\":3108:3126   */\n      add\n        /* \"#utility.yul\":3100:3126   */\n      swap1\n      pop\n        /* \"#utility.yul\":3136:3215   */\n      tag_114\n        /* \"#utility.yul\":3212:3213   */\n      0x00\n        /* \"#utility.yul\":3201:3210   */\n      dup4\n        /* \"#utility.yul\":3197:3214   */\n      add\n        /* \"#utility.yul\":3188:3194   */\n      dup6\n        /* \"#utility.yul\":3136:3215   */\n      tag_52\n      jump\t// in\n    tag_114:\n        /* \"#utility.yul\":3225:3313   */\n      tag_115\n        /* \"#utility.yul\":3309:3311   */\n      0x20\n        /* \"#utility.yul\":3298:3307   */\n      dup4\n        /* \"#utility.yul\":3294:3312   */\n      add\n        /* \"#utility.yul\":3285:3291   */\n      dup5\n        /* \"#utility.yul\":3225:3313   */\n      tag_56\n      jump\t// in\n    tag_115:\n        /* \"#utility.yul\":3360:3369   */\n      dup2\n        /* \"#utility.yul\":3354:3358   */\n      dup2\n        /* \"#utility.yul\":3350:3370   */\n      sub\n        /* \"#utility.yul\":3345:3347   */\n      0x40\n        /* \"#utility.yul\":3334:3343   */\n      dup4\n        /* \"#utility.yul\":3330:3348   */\n      add\n        /* \"#utility.yul\":3323:3371   */\n      mstore\n        /* \"#utility.yul\":3388:3527   */\n      tag_116\n        /* \"#utility.yul\":3522:3526   */\n      dup2\n        /* \"#utility.yul\":3388:3527   */\n      tag_59\n      jump\t// in\n    tag_116:\n        /* \"#utility.yul\":3380:3527   */\n      swap1\n      pop\n        /* \"#utility.yul\":2847:3534   */\n      swap4\n      swap3\n      pop\n      pop\n      pop\n      jump\t// out\n        /* \"#utility.yul\":3540:3656   */\n    tag_60:\n        /* \"#utility.yul\":3610:3631   */\n      tag_118\n        /* \"#utility.yul\":3625:3630   */\n      dup2\n        /* \"#utility.yul\":3610:3631   */\n      tag_44\n      jump\t// in\n    tag_118:\n        /* \"#utility.yul\":3603:3608   */\n      dup2\n        /* \"#utility.yul\":3600:3632   */\n      eq\n        /* \"#utility.yul\":3590:3650   */\n      tag_119\n      jumpi\n        /* \"#utility.yul\":3646:3647   */\n      0x00\n        /* \"#utility.yul\":3643:3644   */\n      dup1\n        /* \"#utility.yul\":3636:3648   */\n      revert\n        /* \"#utility.yul\":3590:3650   */\n    tag_119:\n        /* \"#utility.yul\":3540:3656   */\n      pop\n      jump\t// out\n        /* \"#utility.yul\":3662:3799   */\n    tag_61:\n        /* \"#utility.yul\":3716:3721   */\n      0x00\n        /* \"#utility.yul\":3747:3753   */\n      dup2\n        /* \"#utility.yul\":3741:3754   */\n      mload\n        /* \"#utility.yul\":3732:3754   */\n      swap1\n      pop\n        /* \"#utility.yul\":3763:3793   */\n      tag_121\n        /* \"#utility.yul\":3787:3792   */\n      dup2\n        /* \"#utility.yul\":3763:3793   */\n      tag_60\n      jump\t// in\n    tag_121:\n        /* \"#utility.yul\":3662:3799   */\n      swap3\n      swap2\n      pop\n      pop\n      jump\t// out\n        /* \"#utility.yul\":3805:4150   */\n    tag_29:\n        /* \"#utility.yul\":3872:3878   */\n      0x00\n        /* \"#utility.yul\":3921:3923   */\n      0x20\n        /* \"#utility.yul\":3909:3918   */\n      dup3\n        /* \"#utility.yul\":3900:3907   */\n      dup5\n        /* \"#utility.yul\":3896:3919   */\n      sub\n        /* \"#utility.yul\":3892:3924   */\n      slt\n        /* \"#utility.yul\":3889:4008   */\n      iszero\n      tag_123\n      jumpi\n        /* \"#utility.yul\":3927:4006   */\n      tag_124\n      tag_47\n      jump\t// in\n    tag_124:\n        /* \"#utility.yul\":3889:4008   */\n    tag_123:\n        /* \"#utility.yul\":4047:4048   */\n      0x00\n        /* \"#utility.yul\":4072:4133   */\n      tag_125\n        /* \"#utility.yul\":4125:4132   */\n      dup5\n        /* \"#utility.yul\":4116:4122   */\n      dup3\n        /* \"#utility.yul\":4105:4114   */\n      dup6\n        /* \"#utility.yul\":4101:4123   */\n      add\n        /* \"#utility.yul\":4072:4133   */\n      tag_61\n      jump\t// in\n    tag_125:\n        /* \"#utility.yul\":4062:4133   */\n      swap2\n      pop\n        /* \"#utility.yul\":4018:4143   */\n      pop\n        /* \"#utility.yul\":3805:4150   */\n      swap3\n      swap2\n      pop\n      pop\n      jump\t// out\n        /* \"#utility.yul\":4156:4273   */\n    tag_62:\n        /* \"#utility.yul\":4265:4266   */\n      0x00\n        /* \"#utility.yul\":4262:4263   */\n      dup1\n        /* \"#utility.yul\":4255:4267   */\n      revert\n        /* \"#utility.yul\":4279:4396   */\n    tag_63:\n        /* \"#utility.yul\":4388:4389   */\n      0x00\n        /* \"#utility.yul\":4385:4386   */\n      dup1\n        /* \"#utility.yul\":4378:4390   */\n      revert\n        /* \"#utility.yul\":4402:4504   */\n    tag_64:\n        /* \"#utility.yul\":4443:4449   */\n      0x00\n        /* \"#utility.yul\":4494:4496   */\n      0x1f\n        /* \"#utility.yul\":4490:4497   */\n      not\n        /* \"#utility.yul\":4485:4487   */\n      0x1f\n        /* \"#utility.yul\":4478:4483   */\n      dup4\n        /* \"#utility.yul\":4474:4488   */\n      add\n        /* \"#utility.yul\":4470:4498   */\n      and\n        /* \"#utility.yul\":4460:4498   */\n      swap1\n      pop\n        /* \"#utility.yul\":4402:4504   */\n      swap2\n      swap1\n      pop\n      jump\t// out\n        /* \"#utility.yul\":4510:4690   */\n    tag_65:\n        /* \"#utility.yul\":4558:4635   */\n      0x4e487b7100000000000000000000000000000000000000000000000000000000\n        /* \"#utility.yul\":4555:4556   */\n      0x00\n        /* \"#utility.yul\":4548:4636   */\n      mstore\n        /* \"#utility.yul\":4655:4659   */\n      0x41\n        /* \"#utility.yul\":4652:4653   */\n      0x04\n        /* \"#utility.yul\":4645:4660   */\n      mstore\n        /* \"#utility.yul\":4679:4683   */\n      0x24\n        /* \"#utility.yul\":4676:4677   */\n      0x00\n        /* \"#utility.yul\":4669:4684   */\n      revert\n        /* \"#utility.yul\":4696:4977   */\n    tag_66:\n        /* \"#utility.yul\":4779:4806   */\n      tag_131\n        /* \"#utility.yul\":4801:4805   */\n      dup3\n        /* \"#utility.yul\":4779:4806   */\n      tag_64\n      jump\t// in\n    tag_131:\n        /* \"#utility.yul\":4771:4777   */\n      dup2\n        /* \"#utility.yul\":4767:4807   */\n      add\n        /* \"#utility.yul\":4909:4915   */\n      dup2\n        /* \"#utility.yul\":4897:4907   */\n      dup2\n        /* \"#utility.yul\":4894:4916   */\n      lt\n        /* \"#utility.yul\":4873:4891   */\n      0xffffffffffffffff\n        /* \"#utility.yul\":4861:4871   */\n      dup3\n        /* \"#utility.yul\":4858:4892   */\n      gt\n        /* \"#utility.yul\":4855:4917   */\n      or\n        /* \"#utility.yul\":4852:4940   */\n      iszero\n      tag_132\n      jumpi\n        /* \"#utility.yul\":4920:4938   */\n      tag_133\n      tag_65\n      jump\t// in\n    tag_133:\n        /* \"#utility.yul\":4852:4940   */\n    tag_132:\n        /* \"#utility.yul\":4960:4970   */\n      dup1\n        /* \"#utility.yul\":4956:4958   */\n      0x40\n        /* \"#utility.yul\":4949:4971   */\n      mstore\n        /* \"#utility.yul\":4739:4977   */\n      pop\n        /* \"#utility.yul\":4696:4977   */\n      pop\n      pop\n      jump\t// out\n        /* \"#utility.yul\":4983:5112   */\n    tag_67:\n        /* \"#utility.yul\":5017:5023   */\n      0x00\n        /* \"#utility.yul\":5044:5064   */\n      tag_135\n      tag_46\n      jump\t// in\n    tag_135:\n        /* \"#utility.yul\":5034:5064   */\n      swap1\n      pop\n        /* \"#utility.yul\":5073:5106   */\n      tag_136\n        /* \"#utility.yul\":5101:5105   */\n      dup3\n        /* \"#utility.yul\":5093:5099   */\n      dup3\n        /* \"#utility.yul\":5073:5106   */\n      tag_66\n      jump\t// in\n    tag_136:\n        /* \"#utility.yul\":4983:5112   */\n      swap2\n      swap1\n      pop\n      jump\t// out\n        /* \"#utility.yul\":5118:5426   */\n    tag_68:\n        /* \"#utility.yul\":5180:5184   */\n      0x00\n        /* \"#utility.yul\":5270:5288   */\n      0xffffffffffffffff\n        /* \"#utility.yul\":5262:5268   */\n      dup3\n        /* \"#utility.yul\":5259:5289   */\n      gt\n        /* \"#utility.yul\":5256:5312   */\n      iszero\n      tag_138\n      jumpi\n        /* \"#utility.yul\":5292:5310   */\n      tag_139\n      tag_65\n      jump\t// in\n    tag_139:\n        /* \"#utility.yul\":5256:5312   */\n    tag_138:\n        /* \"#utility.yul\":5330:5359   */\n      tag_140\n        /* \"#utility.yul\":5352:5358   */\n      dup3\n        /* \"#utility.yul\":5330:5359   */\n      tag_64\n      jump\t// in\n    tag_140:\n        /* \"#utility.yul\":5322:5359   */\n      swap1\n      pop\n        /* \"#utility.yul\":5414:5418   */\n      0x20\n        /* \"#utility.yul\":5408:5412   */\n      dup2\n        /* \"#utility.yul\":5404:5419   */\n      add\n        /* \"#utility.yul\":5396:5419   */\n      swap1\n      pop\n        /* \"#utility.yul\":5118:5426   */\n      swap2\n      swap1\n      pop\n      jump\t// out\n        /* \"#utility.yul\":5432:5678   */\n    tag_69:\n        /* \"#utility.yul\":5513:5514   */\n      0x00\n        /* \"#utility.yul\":5523:5636   */\n    tag_142:\n        /* \"#utility.yul\":5537:5543   */\n      dup4\n        /* \"#utility.yul\":5534:5535   */\n      dup2\n        /* \"#utility.yul\":5531:5544   */\n      lt\n        /* \"#utility.yul\":5523:5636   */\n      iszero\n      tag_144\n      jumpi\n        /* \"#utility.yul\":5622:5623   */\n      dup1\n        /* \"#utility.yul\":5617:5620   */\n      dup3\n        /* \"#utility.yul\":5613:5624   */\n      add\n        /* \"#utility.yul\":5607:5625   */\n      mload\n        /* \"#utility.yul\":5603:5604   */\n      dup2\n        /* \"#utility.yul\":5598:5601   */\n      dup5\n        /* \"#utility.yul\":5594:5605   */\n      add\n        /* \"#utility.yul\":5587:5626   */\n      mstore\n        /* \"#utility.yul\":5559:5561   */\n      0x20\n        /* \"#utility.yul\":5556:5557   */\n      dup2\n        /* \"#utility.yul\":5552:5562   */\n      add\n        /* \"#utility.yul\":5547:5562   */\n      swap1\n      pop\n        /* \"#utility.yul\":5523:5636   */\n      jump(tag_142)\n    tag_144:\n        /* \"#utility.yul\":5670:5671   */\n      0x00\n        /* \"#utility.yul\":5661:5667   */\n      dup5\n        /* \"#utility.yul\":5656:5659   */\n      dup5\n        /* \"#utility.yul\":5652:5668   */\n      add\n        /* \"#utility.yul\":5645:5672   */\n      mstore\n        /* \"#utility.yul\":5494:5678   */\n      pop\n        /* \"#utility.yul\":5432:5678   */\n      pop\n      pop\n      pop\n      jump\t// out\n        /* \"#utility.yul\":5684:6118   */\n    tag_70:\n        /* \"#utility.yul\":5773:5778   */\n      0x00\n        /* \"#utility.yul\":5798:5864   */\n      tag_146\n        /* \"#utility.yul\":5814:5863   */\n      tag_147\n        /* \"#utility.yul\":5856:5862   */\n      dup5\n        /* \"#utility.yul\":5814:5863   */\n      tag_68\n      jump\t// in\n    tag_147:\n        /* \"#utility.yul\":5798:5864   */\n      tag_67\n      jump\t// in\n    tag_146:\n        /* \"#utility.yul\":5789:5864   */\n      swap1\n      pop\n        /* \"#utility.yul\":5887:5893   */\n      dup3\n        /* \"#utility.yul\":5880:5885   */\n      dup2\n        /* \"#utility.yul\":5873:5894   */\n      mstore\n        /* \"#utility.yul\":5925:5929   */\n      0x20\n        /* \"#utility.yul\":5918:5923   */\n      dup2\n        /* \"#utility.yul\":5914:5930   */\n      add\n        /* \"#utility.yul\":5963:5966   */\n      dup5\n        /* \"#utility.yul\":5954:5960   */\n      dup5\n        /* \"#utility.yul\":5949:5952   */\n      dup5\n        /* \"#utility.yul\":5945:5961   */\n      add\n        /* \"#utility.yul\":5942:5967   */\n      gt\n        /* \"#utility.yul\":5939:6051   */\n      iszero\n      tag_148\n      jumpi\n        /* \"#utility.yul\":5970:6049   */\n      tag_149\n      tag_63\n      jump\t// in\n    tag_149:\n        /* \"#utility.yul\":5939:6051   */\n    tag_148:\n        /* \"#utility.yul\":6060:6112   */\n      tag_150\n        /* \"#utility.yul\":6105:6111   */\n      dup5\n        /* \"#utility.yul\":6100:6103   */\n      dup3\n        /* \"#utility.yul\":6095:6098   */\n      dup6\n        /* \"#utility.yul\":6060:6112   */\n      tag_69\n      jump\t// in\n    tag_150:\n        /* \"#utility.yul\":5779:6118   */\n      pop\n        /* \"#utility.yul\":5684:6118   */\n      swap4\n      swap3\n      pop\n      pop\n      pop\n      jump\t// out\n        /* \"#utility.yul\":6138:6493   */\n    tag_71:\n        /* \"#utility.yul\":6205:6210   */\n      0x00\n        /* \"#utility.yul\":6254:6257   */\n      dup3\n        /* \"#utility.yul\":6247:6251   */\n      0x1f\n        /* \"#utility.yul\":6239:6245   */\n      dup4\n        /* \"#utility.yul\":6235:6252   */\n      add\n        /* \"#utility.yul\":6231:6258   */\n      slt\n        /* \"#utility.yul\":6221:6343   */\n      tag_152\n      jumpi\n        /* \"#utility.yul\":6262:6341   */\n      tag_153\n      tag_62\n      jump\t// in\n    tag_153:\n        /* \"#utility.yul\":6221:6343   */\n    tag_152:\n        /* \"#utility.yul\":6372:6378   */\n      dup2\n        /* \"#utility.yul\":6366:6379   */\n      mload\n        /* \"#utility.yul\":6397:6487   */\n      tag_154\n        /* \"#utility.yul\":6483:6486   */\n      dup5\n        /* \"#utility.yul\":6475:6481   */\n      dup3\n        /* \"#utility.yul\":6468:6472   */\n      0x20\n        /* \"#utility.yul\":6460:6466   */\n      dup7\n        /* \"#utility.yul\":6456:6473   */\n      add\n        /* \"#utility.yul\":6397:6487   */\n      tag_70\n      jump\t// in\n    tag_154:\n        /* \"#utility.yul\":6388:6487   */\n      swap2\n      pop\n        /* \"#utility.yul\":6211:6493   */\n      pop\n        /* \"#utility.yul\":6138:6493   */\n      swap3\n      swap2\n      pop\n      pop\n      jump\t// out\n        /* \"#utility.yul\":6499:7023   */\n    tag_34:\n        /* \"#utility.yul\":6579:6585   */\n      0x00\n        /* \"#utility.yul\":6628:6630   */\n      0x20\n        /* \"#utility.yul\":6616:6625   */\n      dup3\n        /* \"#utility.yul\":6607:6614   */\n      dup5\n        /* \"#utility.yul\":6603:6626   */\n      sub\n        /* \"#utility.yul\":6599:6631   */\n      slt\n        /* \"#utility.yul\":6596:6715   */\n      iszero\n      tag_156\n      jumpi\n        /* \"#utility.yul\":6634:6713   */\n      tag_157\n      tag_47\n      jump\t// in\n    tag_157:\n        /* \"#utility.yul\":6596:6715   */\n    tag_156:\n        /* \"#utility.yul\":6775:6776   */\n      0x00\n        /* \"#utility.yul\":6764:6773   */\n      dup3\n        /* \"#utility.yul\":6760:6777   */\n      add\n        /* \"#utility.yul\":6754:6778   */\n      mload\n        /* \"#utility.yul\":6805:6823   */\n      0xffffffffffffffff\n        /* \"#utility.yul\":6797:6803   */\n      dup2\n        /* \"#utility.yul\":6794:6824   */\n      gt\n        /* \"#utility.yul\":6791:6908   */\n      iszero\n      tag_158\n      jumpi\n        /* \"#utility.yul\":6827:6906   */\n      tag_159\n      tag_48\n      jump\t// in\n    tag_159:\n        /* \"#utility.yul\":6791:6908   */\n    tag_158:\n        /* \"#utility.yul\":6932:7006   */\n      tag_160\n        /* \"#utility.yul\":6998:7005   */\n      dup5\n        /* \"#utility.yul\":6989:6995   */\n      dup3\n        /* \"#utility.yul\":6978:6987   */\n      dup6\n        /* \"#utility.yul\":6974:6996   */\n      add\n        /* \"#utility.yul\":6932:7006   */\n      tag_71\n      jump\t// in\n    tag_160:\n        /* \"#utility.yul\":6922:7006   */\n      swap2\n      pop\n        /* \"#utility.yul\":6725:7016   */\n      pop\n        /* \"#utility.yul\":6499:7023   */\n      swap3\n      swap2\n      pop\n      pop\n      jump\t// out\n        /* \"#utility.yul\":7029:7128   */\n    tag_72:\n        /* \"#utility.yul\":7081:7087   */\n      0x00\n        /* \"#utility.yul\":7115:7120   */\n      dup2\n        /* \"#utility.yul\":7109:7121   */\n      mload\n        /* \"#utility.yul\":7099:7121   */\n      swap1\n      pop\n        /* \"#utility.yul\":7029:7128   */\n      swap2\n      swap1\n      pop\n      jump\t// out\n        /* \"#utility.yul\":7134:7282   */\n    tag_73:\n        /* \"#utility.yul\":7236:7247   */\n      0x00\n        /* \"#utility.yul\":7273:7276   */\n      dup2\n        /* \"#utility.yul\":7258:7276   */\n      swap1\n      pop\n        /* \"#utility.yul\":7134:7282   */\n      swap3\n      swap2\n      pop\n      pop\n      jump\t// out\n        /* \"#utility.yul\":7288:7678   */\n    tag_74:\n        /* \"#utility.yul\":7394:7397   */\n      0x00\n        /* \"#utility.yul\":7422:7461   */\n      tag_164\n        /* \"#utility.yul\":7455:7460   */\n      dup3\n        /* \"#utility.yul\":7422:7461   */\n      tag_72\n      jump\t// in\n    tag_164:\n        /* \"#utility.yul\":7477:7566   */\n      tag_165\n        /* \"#utility.yul\":7559:7565   */\n      dup2\n        /* \"#utility.yul\":7554:7557   */\n      dup6\n        /* \"#utility.yul\":7477:7566   */\n      tag_73\n      jump\t// in\n    tag_165:\n        /* \"#utility.yul\":7470:7566   */\n      swap4\n      pop\n        /* \"#utility.yul\":7575:7640   */\n      tag_166\n        /* \"#utility.yul\":7633:7639   */\n      dup2\n        /* \"#utility.yul\":7628:7631   */\n      dup6\n        /* \"#utility.yul\":7621:7625   */\n      0x20\n        /* \"#utility.yul\":7614:7619   */\n      dup7\n        /* \"#utility.yul\":7610:7626   */\n      add\n        /* \"#utility.yul\":7575:7640   */\n      tag_69\n      jump\t// in\n    tag_166:\n        /* \"#utility.yul\":7665:7671   */\n      dup1\n        /* \"#utility.yul\":7660:7663   */\n      dup5\n        /* \"#utility.yul\":7656:7672   */\n      add\n        /* \"#utility.yul\":7649:7672   */\n      swap2\n      pop\n        /* \"#utility.yul\":7398:7678   */\n      pop\n        /* \"#utility.yul\":7288:7678   */\n      swap3\n      swap2\n      pop\n      pop\n      jump\t// out\n        /* \"#utility.yul\":7684:7959   */\n    tag_36:\n        /* \"#utility.yul\":7816:7819   */\n      0x00\n        /* \"#utility.yul\":7838:7933   */\n      tag_168\n        /* \"#utility.yul\":7929:7932   */\n      dup3\n        /* \"#utility.yul\":7920:7926   */\n      dup5\n        /* \"#utility.yul\":7838:7933   */\n      tag_74\n      jump\t// in\n    tag_168:\n        /* \"#utility.yul\":7831:7933   */\n      swap2\n      pop\n        /* \"#utility.yul\":7950:7953   */\n      dup2\n        /* \"#utility.yul\":7943:7953   */\n      swap1\n      pop\n        /* \"#utility.yul\":7684:7959   */\n      swap3\n      swap2\n      pop\n      pop\n      jump\t// out\n        /* \"#utility.yul\":7965:8119   */\n    tag_75:\n        /* \"#utility.yul\":8105:8111   */\n      0x5745544800000000000000000000000000000000000000000000000000000000\n        /* \"#utility.yul\":8101:8102   */\n      0x00\n        /* \"#utility.yul\":8093:8099   */\n      dup3\n        /* \"#utility.yul\":8089:8103   */\n      add\n        /* \"#utility.yul\":8082:8112   */\n      mstore\n        /* \"#utility.yul\":7965:8119   */\n      pop\n      jump\t// out\n        /* \"#utility.yul\":8125:8525   */\n    tag_76:\n        /* \"#utility.yul\":8285:8288   */\n      0x00\n        /* \"#utility.yul\":8306:8390   */\n      tag_171\n        /* \"#utility.yul\":8388:8389   */\n      0x04\n        /* \"#utility.yul\":8383:8386   */\n      dup4\n        /* \"#utility.yul\":8306:8390   */\n      tag_73\n      jump\t// in\n    tag_171:\n        /* \"#utility.yul\":8299:8390   */\n      swap2\n      pop\n        /* \"#utility.yul\":8399:8492   */\n      tag_172\n        /* \"#utility.yul\":8488:8491   */\n      dup3\n        /* \"#utility.yul\":8399:8492   */\n      tag_75\n      jump\t// in\n    tag_172:\n        /* \"#utility.yul\":8517:8518   */\n      0x04\n        /* \"#utility.yul\":8512:8515   */\n      dup3\n        /* \"#utility.yul\":8508:8519   */\n      add\n        /* \"#utility.yul\":8501:8519   */\n      swap1\n      pop\n        /* \"#utility.yul\":8125:8525   */\n      swap2\n      swap1\n      pop\n      jump\t// out\n        /* \"#utility.yul\":8531:8912   */\n    tag_38:\n        /* \"#utility.yul\":8716:8719   */\n      0x00\n        /* \"#utility.yul\":8738:8886   */\n      tag_174\n        /* \"#utility.yul\":8882:8885   */\n      dup3\n        /* \"#utility.yul\":8738:8886   */\n      tag_76\n      jump\t// in\n    tag_174:\n        /* \"#utility.yul\":8731:8886   */\n      swap2\n      pop\n        /* \"#utility.yul\":8903:8906   */\n      dup2\n        /* \"#utility.yul\":8896:8906   */\n      swap1\n      pop\n        /* \"#utility.yul\":8531:8912   */\n      swap2\n      swap1\n      pop\n      jump\t// out\n        /* \"#utility.yul\":8918:8995   */\n    tag_77:\n        /* \"#utility.yul\":8955:8962   */\n      0x00\n        /* \"#utility.yul\":8984:8989   */\n      dup2\n        /* \"#utility.yul\":8973:8989   */\n      swap1\n      pop\n        /* \"#utility.yul\":8918:8995   */\n      swap2\n      swap1\n      pop\n      jump\t// out\n        /* \"#utility.yul\":9001:9127   */\n    tag_78:\n        /* \"#utility.yul\":9096:9120   */\n      tag_177\n        /* \"#utility.yul\":9114:9119   */\n      dup2\n        /* \"#utility.yul\":9096:9120   */\n      tag_77\n      jump\t// in\n    tag_177:\n        /* \"#utility.yul\":9091:9094   */\n      dup3\n        /* \"#utility.yul\":9084:9121   */\n      mstore\n        /* \"#utility.yul\":9001:9127   */\n      pop\n      pop\n      jump\t// out\n        /* \"#utility.yul\":9133:9804   */\n    tag_40:\n        /* \"#utility.yul\":9363:9367   */\n      0x00\n        /* \"#utility.yul\":9401:9403   */\n      0x60\n        /* \"#utility.yul\":9390:9399   */\n      dup3\n        /* \"#utility.yul\":9386:9404   */\n      add\n        /* \"#utility.yul\":9378:9404   */\n      swap1\n      pop\n        /* \"#utility.yul\":9414:9493   */\n      tag_179\n        /* \"#utility.yul\":9490:9491   */\n      0x00\n        /* \"#utility.yul\":9479:9488   */\n      dup4\n        /* \"#utility.yul\":9475:9492   */\n      add\n        /* \"#utility.yul\":9466:9472   */\n      dup6\n        /* \"#utility.yul\":9414:9493   */\n      tag_78\n      jump\t// in\n    tag_179:\n        /* \"#utility.yul\":9503:9583   */\n      tag_180\n        /* \"#utility.yul\":9579:9581   */\n      0x20\n        /* \"#utility.yul\":9568:9577   */\n      dup4\n        /* \"#utility.yul\":9564:9582   */\n      add\n        /* \"#utility.yul\":9555:9561   */\n      dup5\n        /* \"#utility.yul\":9503:9583   */\n      tag_78\n      jump\t// in\n    tag_180:\n        /* \"#utility.yul\":9630:9639   */\n      dup2\n        /* \"#utility.yul\":9624:9628   */\n      dup2\n        /* \"#utility.yul\":9620:9640   */\n      sub\n        /* \"#utility.yul\":9615:9617   */\n      0x40\n        /* \"#utility.yul\":9604:9613   */\n      dup4\n        /* \"#utility.yul\":9600:9618   */\n      add\n        /* \"#utility.yul\":9593:9641   */\n      mstore\n        /* \"#utility.yul\":9658:9797   */\n      tag_181\n        /* \"#utility.yul\":9792:9796   */\n      dup2\n        /* \"#utility.yul\":9658:9797   */\n      tag_59\n      jump\t// in\n    tag_181:\n        /* \"#utility.yul\":9650:9797   */\n      swap1\n      pop\n        /* \"#utility.yul\":9133:9804   */\n      swap4\n      swap3\n      pop\n      pop\n      pop\n      jump\t// out\n    stop\n\n    sub_0: assembly {\n            /* \"WETH.sol\":209:521  contract WETH is ERC20, IWETH {... */\n          mstore(0x40, 0x80)\n            /* \"WETH.sol\":245:295  constructor() ERC20(\"Wrapped Ethereum\", \"WETH\") {} */\n          callvalue\n          dup1\n          iszero\n          tag_1\n          jumpi\n          0x00\n          dup1\n          revert\n        tag_1:\n          pop\n            /* \"token/ERC20.sol\":923:1057  constructor(string memory _name, string memory _symbol) {... */\n          mload(0x40)\n          dup1\n          0x40\n          add\n          0x40\n          mstore\n          dup1\n          0x10\n          dup2\n          mstore\n          0x20\n          add\n          0x5772617070656420457468657265756d00000000000000000000000000000000\n          dup2\n          mstore\n          pop\n          mload(0x40)\n          dup1\n          0x40\n          add\n          0x40\n          mstore\n          dup1\n          0x04\n          dup2\n          mstore\n          0x20\n          add\n          0x5745544800000000000000000000000000000000000000000000000000000000\n          dup2\n          mstore\n          pop\n            /* \"token/ERC20.sol\":996:1001  _name */\n          dup2\n            /* \"token/ERC20.sol\":989:993  name */\n          0x00\n            /* \"token/ERC20.sol\":989:1001  name = _name */\n          swap1\n          dup2\n          tag_5\n          swap2\n          swap1\n          tag_6\n          jump\t// in\n        tag_5:\n          pop\n            /* \"token/ERC20.sol\":1020:1027  _symbol */\n          dup1\n            /* \"token/ERC20.sol\":1011:1017  symbol */\n          0x01\n            /* \"token/ERC20.sol\":1011:1027  symbol = _symbol */\n          swap1\n          dup2\n          tag_7\n          swap2\n          swap1\n          tag_6\n          jump\t// in\n        tag_7:\n          pop\n            /* \"token/ERC20.sol\":1048:1050  18 */\n          0x12\n            /* \"token/ERC20.sol\":1037:1045  decimals */\n          0x02\n          0x00\n            /* \"token/ERC20.sol\":1037:1050  decimals = 18 */\n          0x0100\n          exp\n          dup2\n          sload\n          dup2\n          0xff\n          mul\n          not\n          and\n          swap1\n          dup4\n          0xff\n          and\n          mul\n          or\n          swap1\n          sstore\n          pop\n            /* \"token/ERC20.sol\":923:1057  constructor(string memory _name, string memory _symbol) {... */\n          pop\n          pop\n            /* \"WETH.sol\":209:521  contract WETH is ERC20, IWETH {... */\n          jump(tag_9)\n            /* \"#utility.yul\":7:106   */\n        tag_10:\n            /* \"#utility.yul\":59:65   */\n          0x00\n            /* \"#utility.yul\":93:98   */\n          dup2\n            /* \"#utility.yul\":87:99   */\n          mload\n            /* \"#utility.yul\":77:99   */\n          swap1\n          pop\n            /* \"#utility.yul\":7:106   */\n          swap2\n          swap1\n          pop\n          jump\t// out\n            /* \"#utility.yul\":112:292   */\n        tag_11:\n            /* \"#utility.yul\":160:237   */\n          0x4e487b7100000000000000000000000000000000000000000000000000000000\n            /* \"#utility.yul\":157:158   */\n          0x00\n            /* \"#utility.yul\":150:238   */\n          mstore\n            /* \"#utility.yul\":257:261   */\n          0x41\n            /* \"#utility.yul\":254:255   */\n          0x04\n            /* \"#utility.yul\":247:262   */\n          mstore\n            /* \"#utility.yul\":281:285   */\n          0x24\n            /* \"#utility.yul\":278:279   */\n          0x00\n            /* \"#utility.yul\":271:286   */\n          revert\n            /* \"#utility.yul\":298:478   */\n        tag_12:\n            /* \"#utility.yul\":346:423   */\n          0x4e487b7100000000000000000000000000000000000000000000000000000000\n            /* \"#utility.yul\":343:344   */\n          0x00\n            /* \"#utility.yul\":336:424   */\n          mstore\n            /* \"#utility.yul\":443:447   */\n          0x22\n            /* \"#utility.yul\":440:441   */\n          0x04\n            /* \"#utility.yul\":433:448   */\n          mstore\n            /* \"#utility.yul\":467:471   */\n          0x24\n            /* \"#utility.yul\":464:465   */\n          0x00\n            /* \"#utility.yul\":457:472   */\n          revert\n            /* \"#utility.yul\":484:804   */\n        tag_13:\n            /* \"#utility.yul\":528:534   */\n          0x00\n            /* \"#utility.yul\":565:566   */\n          0x02\n            /* \"#utility.yul\":559:563   */\n          dup3\n            /* \"#utility.yul\":555:567   */\n          div\n            /* \"#utility.yul\":545:567   */\n          swap1\n          pop\n            /* \"#utility.yul\":612:613   */\n          0x01\n            /* \"#utility.yul\":606:610   */\n          dup3\n            /* \"#utility.yul\":602:614   */\n          and\n            /* \"#utility.yul\":633:651   */\n          dup1\n            /* \"#utility.yul\":623:704   */\n          tag_35\n          jumpi\n            /* \"#utility.yul\":689:693   */\n          0x7f\n            /* \"#utility.yul\":681:687   */\n          dup3\n            /* \"#utility.yul\":677:694   */\n          and\n            /* \"#utility.yul\":667:694   */\n          swap2\n          pop\n            /* \"#utility.yul\":623:704   */\n        tag_35:\n            /* \"#utility.yul\":751:753   */\n          0x20\n            /* \"#utility.yul\":743:749   */\n          dup3\n            /* \"#utility.yul\":740:754   */\n          lt\n            /* \"#utility.yul\":720:738   */\n          dup2\n            /* \"#utility.yul\":717:755   */\n          sub\n            /* \"#utility.yul\":714:798   */\n          tag_36\n          jumpi\n            /* \"#utility.yul\":770:788   */\n          tag_37\n          tag_12\n          jump\t// in\n        tag_37:\n            /* \"#utility.yul\":714:798   */\n        tag_36:\n            /* \"#utility.yul\":535:804   */\n          pop\n            /* \"#utility.yul\":484:804   */\n          swap2\n          swap1\n          pop\n          jump\t// out\n            /* \"#utility.yul\":810:951   */\n        tag_14:\n            /* \"#utility.yul\":859:863   */\n          0x00\n            /* \"#utility.yul\":882:885   */\n          dup2\n            /* \"#utility.yul\":874:885   */\n          swap1\n          pop\n            /* \"#utility.yul\":905:908   */\n          dup2\n            /* \"#utility.yul\":902:903   */\n          0x00\n            /* \"#utility.yul\":895:909   */\n          mstore\n            /* \"#utility.yul\":939:943   */\n          0x20\n            /* \"#utility.yul\":936:937   */\n          0x00\n            /* \"#utility.yul\":926:944   */\n          keccak256\n            /* \"#utility.yul\":918:944   */\n          swap1\n          pop\n            /* \"#utility.yul\":810:951   */\n          swap2\n          swap1\n          pop\n          jump\t// out\n            /* \"#utility.yul\":957:1050   */\n        tag_15:\n            /* \"#utility.yul\":994:1000   */\n          0x00\n            /* \"#utility.yul\":1041:1043   */\n          0x20\n            /* \"#utility.yul\":1036:1038   */\n          0x1f\n            /* \"#utility.yul\":1029:1034   */\n          dup4\n            /* \"#utility.yul\":1025:1039   */\n          add\n            /* \"#utility.yul\":1021:1044   */\n          div\n            /* \"#utility.yul\":1011:1044   */\n          swap1\n          pop\n            /* \"#utility.yul\":957:1050   */\n          swap2\n          swap1\n          pop\n          jump\t// out\n            /* \"#utility.yul\":1056:1163   */\n        tag_16:\n            /* \"#utility.yul\":1100:1108   */\n          0x00\n            /* \"#utility.yul\":1150:1155   */\n          dup3\n            /* \"#utility.yul\":1144:1148   */\n          dup3\n            /* \"#utility.yul\":1140:1156   */\n          shl\n            /* \"#utility.yul\":1119:1156   */\n          swap1\n          pop\n            /* \"#utility.yul\":1056:1163   */\n          swap3\n          swap2\n          pop\n          pop\n          jump\t// out\n            /* \"#utility.yul\":1169:1562   */\n        tag_17:\n            /* \"#utility.yul\":1238:1244   */\n          0x00\n            /* \"#utility.yul\":1288:1289   */\n          0x08\n            /* \"#utility.yul\":1276:1286   */\n          dup4\n            /* \"#utility.yul\":1272:1290   */\n          mul\n            /* \"#utility.yul\":1311:1408   */\n          tag_42\n            /* \"#utility.yul\":1341:1407   */\n          0xffffffffffffffffffffffffffffffffffffffffffffffffffffffffffffffff\n            /* \"#utility.yul\":1330:1339   */\n          dup3\n            /* \"#utility.yul\":1311:1408   */\n          tag_16\n          jump\t// in\n        tag_42:\n            /* \"#utility.yul\":1429:1468   */\n          tag_43\n            /* \"#utility.yul\":1459:1467   */\n          dup7\n            /* \"#utility.yul\":1448:1457   */\n          dup4\n            /* \"#utility.yul\":1429:1468   */\n          tag_16\n          jump\t// in\n        tag_43:\n            /* \"#utility.yul\":1417:1468   */\n          swap6\n          pop\n            /* \"#utility.yul\":1501:1505   */\n          dup1\n            /* \"#utility.yul\":1497:1506   */\n          not\n            /* \"#utility.yul\":1490:1495   */\n          dup5\n            /* \"#utility.yul\":1486:1507   */\n          and\n            /* \"#utility.yul\":1477:1507   */\n          swap4\n          pop\n            /* \"#utility.yul\":1550:1554   */\n          dup1\n            /* \"#utility.yul\":1540:1548   */\n          dup7\n            /* \"#utility.yul\":1536:1555   */\n          and\n            /* \"#utility.yul\":1529:1534   */\n          dup5\n            /* \"#utility.yul\":1526:1556   */\n          or\n            /* \"#utility.yul\":1516:1556   */\n          swap3\n          pop\n            /* \"#utility.yul\":1245:1562   */\n          pop\n          pop\n            /* \"#utility.yul\":1169:1562   */\n          swap4\n          swap3\n          pop\n          pop\n          pop\n          jump\t// out\n            /* \"#utility.yul\":1568:1645   */\n        tag_18:\n            /* \"#utility.yul\":1605:1612   */\n          0x00\n            /* \"#utility.yul\":1634:1639   */\n          dup2\n            /* \"#utility.yul\":1623:1639   */\n          swap1\n          pop\n            /* \"#utility.yul\":1568:1645   */\n          swap2\n          swap1\n          pop\n          jump\t// out\n            /* \"#utility.yul\":1651:1711   */\n        tag_19:\n            /* \"#utility.yul\":1679:1682   */\n          0x00\n            /* \"#utility.yul\":1700:1705   */\n          dup2\n            /* \"#utility.yul\":1693:1705   */\n          swap1\n          pop\n            /* \"#utility.yul\":1651:1711   */\n          swap2\n          swap1\n          pop\n          jump\t// out\n            /* \"#utility.yul\":1717:1859   */\n        tag_20:\n            /* \"#utility.yul\":1767:1776   */\n          0x00\n            /* \"#utility.yul\":1800:1853   */\n          tag_47\n            /* \"#utility.yul\":1818:1852   */\n          tag_48\n            /* \"#utility.yul\":1827:1851   */\n          tag_49\n            /* \"#utility.yul\":1845:1850   */\n          dup5\n            /* \"#utility.yul\":1827:1851   */\n          tag_18\n          jump\t// in\n        tag_49:\n            /* \"#utility.yul\":1818:1852   */\n          tag_19\n          jump\t// in\n        tag_48:\n            /* \"#utility.yul\":1800:1853   */\n          tag_18\n          jump\t// in\n        tag_47:\n            /* \"#utility.yul\":1787:1853   */\n          swap1\n          pop\n            /* \"#utility.yul\":1717:1859   */\n          swap2\n          swap1\n          pop\n          jump\t// out\n            /* \"#utility.yul\":1865:1940   */\n        tag_21:\n            /* \"#utility.yul\":1908:1911   */\n          0x00\n            /* \"#utility.yul\":1929:1934   */\n          dup2\n            /* \"#utility.yul\":1922:1934   */\n          swap1\n          pop\n            /* \"#utility.yul\":1865:1940   */\n          swap2\n          swap1\n          pop\n          jump\t// out\n            /* \"#utility.yul\":1946:2215   */\n        tag_22:\n            /* \"#utility.yul\":2056:2095   */\n          tag_52\n            /* \"#utility.yul\":2087:2094   */\n          dup4\n            /* \"#utility.yul\":2056:2095   */\n          tag_20\n          jump\t// in\n        tag_52:\n            /* \"#utility.yul\":2117:2208   */\n          tag_53\n            /* \"#utility.yul\":2166:2207   */\n          tag_54\n            /* \"#utility.yul\":2190:2206   */\n          dup3\n            /* \"#utility.yul\":2166:2207   */\n          tag_21\n          jump\t// in\n        tag_54:\n            /* \"#utility.yul\":2158:2164   */\n          dup5\n            /* \"#utility.yul\":2151:2155   */\n          dup5\n            /* \"#utility.yul\":2145:2156   */\n          sload\n            /* \"#utility.yul\":2117:2208   */\n          tag_17\n          jump\t// in\n        tag_53:\n            /* \"#utility.yul\":2111:2115   */\n          dup3\n            /* \"#utility.yul\":2104:2209   */\n          sstore\n            /* \"#utility.yul\":2022:2215   */\n          pop\n            /* \"#utility.yul\":1946:2215   */\n          pop\n          pop\n          pop\n          jump\t// out\n            /* \"#utility.yul\":2221:2294   */\n        tag_23:\n            /* \"#utility.yul\":2266:2269   */\n          0x00\n            /* \"#utility.yul\":2221:2294   */\n          swap1\n          jump\t// out\n            /* \"#utility.yul\":2300:2489   */\n        tag_24:\n            /* \"#utility.yul\":2377:2409   */\n          tag_57\n          tag_23\n          jump\t// in\n        tag_57:\n            /* \"#utility.yul\":2418:2483   */\n          tag_58\n            /* \"#utility.yul\":2476:2482   */\n          dup2\n            /* \"#utility.yul\":2468:2474   */\n          dup5\n            /* \"#utility.yul\":2462:2466   */\n          dup5\n            /* \"#utility.yul\":2418:2483   */\n          tag_22\n          jump\t// in\n        tag_58:\n            /* \"#utility.yul\":2353:2489   */\n          pop\n            /* \"#utility.yul\":2300:2489   */\n          pop\n          pop\n          jump\t// out\n            /* \"#utility.yul\":2495:2681   */\n        tag_25:\n            /* \"#utility.yul\":2555:2675   */\n        tag_60:\n            /* \"#utility.yul\":2572:2575   */\n          dup2\n            /* \"#utility.yul\":2565:2570   */\n          dup2\n            /* \"#utility.yul\":2562:2576   */\n          lt\n            /* \"#utility.yul\":2555:2675   */\n          iszero\n          tag_62\n          jumpi\n            /* \"#utility.yul\":2626:2665   */\n          tag_63\n            /* \"#utility.yul\":2663:2664   */\n          0x00\n            /* \"#utility.yul\":2656:2661   */\n          dup3\n            /* \"#utility.yul\":2626:2665   */\n          tag_24\n          jump\t// in\n        tag_63:\n            /* \"#utility.yul\":2599:2600   */\n          0x01\n            /* \"#utility.yul\":2592:2597   */\n          dup2\n            /* \"#utility.yul\":2588:2601   */\n          add\n            /* \"#utility.yul\":2579:2601   */\n          swap1\n          pop\n            /* \"#utility.yul\":2555:2675   */\n          jump(tag_60)\n        tag_62:\n            /* \"#utility.yul\":2495:2681   */\n          pop\n          pop\n          jump\t// out\n            /* \"#utility.yul\":2687:3230   */\n        tag_26:\n            /* \"#utility.yul\":2788:2790   */\n          0x1f\n            /* \"#utility.yul\":2783:2786   */\n          dup3\n            /* \"#utility.yul\":2780:2791   */\n          gt\n            /* \"#utility.yul\":2777:3223   */\n          iszero\n          tag_65\n          jumpi\n            /* \"#utility.yul\":2822:2860   */\n          tag_66\n            /* \"#utility.yul\":2854:2859   */\n          dup2\n            /* \"#utility.yul\":2822:2860   */\n          tag_14\n          jump\t// in\n        tag_66:\n            /* \"#utility.yul\":2906:2935   */\n          tag_67\n            /* \"#utility.yul\":2924:2934   */\n          dup5\n            /* \"#utility.yul\":2906:2935   */\n          tag_15\n          jump\t// in\n        tag_67:\n            /* \"#utility.yul\":2896:2904   */\n          dup2\n            /* \"#utility.yul\":2892:2936   */\n          add\n            /* \"#utility.yul\":3089:3091   */\n          0x20\n            /* \"#utility.yul\":3077:3087   */\n          dup6\n            /* \"#utility.yul\":3074:3092   */\n          lt\n            /* \"#utility.yul\":3071:3120   */\n          iszero\n          tag_68\n          jumpi\n            /* \"#utility.yul\":3110:3118   */\n          dup2\n            /* \"#utility.yul\":3095:3118   */\n          swap1\n          pop\n            /* \"#utility.yul\":3071:3120   */\n        tag_68:\n            /* \"#utility.yul\":3133:3213   */\n          tag_69\n            /* \"#utility.yul\":3189:3211   */\n          tag_70\n            /* \"#utility.yul\":3207:3210   */\n          dup6\n            /* \"#utility.yul\":3189:3211   */\n          tag_15\n          jump\t// in\n        tag_70:\n            /* \"#utility.yul\":3179:3187   */\n          dup4\n            /* \"#utility.yul\":3175:3212   */\n          add\n            /* \"#utility.yul\":3162:3173   */\n          dup3\n            /* \"#utility.yul\":3133:3213   */\n          tag_25\n          jump\t// in\n        tag_69:\n            /* \"#utility.yul\":2792:3223   */\n          pop\n          pop\n            /* \"#utility.yul\":2777:3223   */\n        tag_65:\n            /* \"#utility.yul\":2687:3230   */\n          pop\n          pop\n          pop\n          jump\t// out\n            /* \"#utility.yul\":3236:3353   */\n        tag_27:\n            /* \"#utility.yul\":3290:3298   */\n          0x00\n            /* \"#utility.yul\":3340:3345   */\n          dup3\n            /* \"#utility.yul\":3334:3338   */\n          dup3\n            /* \"#utility.yul\":3330:3346   */\n          shr\n            /* \"#utility.yul\":3309:3346   */\n          swap1\n          pop\n            /* \"#utility.yul\":3236:3353   */\n          swap3\n          swap2\n          pop\n          pop\n          jump\t// out\n            /* \"#utility.yul\":3359:3528   */\n        tag_28:\n            /* \"#utility.yul\":3403:3409   */\n          0x00\n            /* \"#utility.yul\":3436:3487   */\n          tag_73\n            /* \"#utility.yul\":3484:3485   */\n          0x00\n            /* \"#utility.yul\":3480:3486   */\n          not\n            /* \"#utility.yul\":3472:3477   */\n          dup5\n            /* \"#utility.yul\":3469:3470   */\n          0x08\n            /* \"#utility.yul\":3465:3478   */\n          mul\n            /* \"#utility.yul\":3436:3487   */\n          tag_27\n          jump\t// in\n        tag_73:\n            /* \"#utility.yul\":3432:3488   */\n          not\n            /* \"#utility.yul\":3517:3521   */\n          dup1\n            /* \"#utility.yul\":3511:3515   */\n          dup4\n            /* \"#utility.yul\":3507:3522   */\n          and\n            /* \"#utility.yul\":3497:3522   */\n          swap2\n          pop\n            /* \"#utility.yul\":3410:3528   */\n          pop\n            /* \"#utility.yul\":3359:3528   */\n          swap3\n          swap2\n          pop\n          pop\n          jump\t// out\n            /* \"#utility.yul\":3533:3828   */\n        tag_29:\n            /* \"#utility.yul\":3609:3613   */\n          0x00\n            /* \"#utility.yul\":3755:3784   */\n          tag_75\n            /* \"#utility.yul\":3780:3783   */\n          dup4\n            /* \"#utility.yul\":3774:3778   */\n          dup4\n            /* \"#utility.yul\":3755:3784   */\n          tag_28\n          jump\t// in\n        tag_75:\n            /* \"#utility.yul\":3747:3784   */\n          swap2\n          pop\n            /* \"#utility.yul\":3817:3820   */\n          dup3\n            /* \"#utility.yul\":3814:3815   */\n          0x02\n            /* \"#utility.yul\":3810:3821   */\n          mul\n            /* \"#utility.yul\":3804:3808   */\n          dup3\n            /* \"#utility.yul\":3801:3822   */\n          or\n            /* \"#utility.yul\":3793:3822   */\n          swap1\n          pop\n            /* \"#utility.yul\":3533:3828   */\n          swap3\n          swap2\n          pop\n          pop\n          jump\t// out\n            /* \"#utility.yul\":3833:5228   */\n        tag_6:\n            /* \"#utility.yul\":3950:3987   */\n          tag_77\n            /* \"#utility.yul\":3983:3986   */\n          dup3\n            /* \"#utility.yul\":3950:3987   */\n          tag_10\n          jump\t// in\n        tag_77:\n            /* \"#utility.yul\":4052:4070   */\n          0xffffffffffffffff\n            /* \"#utility.yul\":4044:4050   */\n          dup2\n            /* \"#utility.yul\":4041:4071   */\n          gt\n            /* \"#utility.yul\":4038:4094   */\n          iszero\n          tag_78\n          jumpi\n            /* \"#utility.yul\":4074:4092   */\n          tag_79\n          tag_11\n          jump\t// in\n        tag_79:\n            /* \"#utility.yul\":4038:4094   */\n        tag_78:\n            /* \"#utility.yul\":4118:4156   */\n          tag_80\n            /* \"#utility.yul\":4150:4154   */\n          dup3\n            /* \"#utility.yul\":4144:4155   */\n          sload\n            /* \"#utility.yul\":4118:4156   */\n          tag_13\n          jump\t// in\n        tag_80:\n            /* \"#utility.yul\":4203:4270   */\n          tag_81\n            /* \"#utility.yul\":4263:4269   */\n          dup3\n            /* \"#utility.yul\":4255:4261   */\n          dup3\n            /* \"#utility.yul\":4249:4253   */\n          dup6\n            /* \"#utility.yul\":4203:4270   */\n          tag_26\n          jump\t// in\n        tag_81:\n            /* \"#utility.yul\":4297:4298   */\n          0x00\n            /* \"#utility.yul\":4321:4325   */\n          0x20\n            /* \"#utility.yul\":4308:4325   */\n          swap1\n          pop\n            /* \"#utility.yul\":4353:4355   */\n          0x1f\n            /* \"#utility.yul\":4345:4351   */\n          dup4\n            /* \"#utility.yul\":4342:4356   */\n          gt\n            /* \"#utility.yul\":4370:4371   */\n          0x01\n            /* \"#utility.yul\":4365:4983   */\n          dup2\n          eq\n          tag_83\n          jumpi\n            /* \"#utility.yul\":5027:5028   */\n          0x00\n            /* \"#utility.yul\":5044:5050   */\n          dup5\n            /* \"#utility.yul\":5041:5118   */\n          iszero\n          tag_84\n          jumpi\n            /* \"#utility.yul\":5093:5102   */\n          dup3\n            /* \"#utility.yul\":5088:5091   */\n          dup8\n            /* \"#utility.yul\":5084:5103   */\n          add\n            /* \"#utility.yul\":5078:5104   */\n          mload\n            /* \"#utility.yul\":5069:5104   */\n          swap1\n          pop\n            /* \"#utility.yul\":5041:5118   */\n        tag_84:\n            /* \"#utility.yul\":5144:5211   */\n          tag_85\n            /* \"#utility.yul\":5204:5210   */\n          dup6\n            /* \"#utility.yul\":5197:5202   */\n          dup3\n            /* \"#utility.yul\":5144:5211   */\n          tag_29\n          jump\t// in\n        tag_85:\n            /* \"#utility.yul\":5138:5142   */\n          dup7\n            /* \"#utility.yul\":5131:5212   */\n          sstore\n            /* \"#utility.yul\":5000:5222   */\n          pop\n            /* \"#utility.yul\":4335:5222   */\n          jump(tag_82)\n            /* \"#utility.yul\":4365:4983   */\n        tag_83:\n            /* \"#utility.yul\":4417:4421   */\n          0x1f\n            /* \"#utility.yul\":4413:4422   */\n          not\n            /* \"#utility.yul\":4405:4411   */\n          dup5\n            /* \"#utility.yul\":4401:4423   */\n          and\n            /* \"#utility.yul\":4451:4488   */\n          tag_86\n            /* \"#utility.yul\":4483:4487   */\n          dup7\n            /* \"#utility.yul\":4451:4488   */\n          tag_14\n          jump\t// in\n        tag_86:\n            /* \"#utility.yul\":4510:4511   */\n          0x00\n            /* \"#utility.yul\":4524:4732   */\n        tag_87:\n            /* \"#utility.yul\":4538:4545   */\n          dup3\n            /* \"#utility.yul\":4535:4536   */\n          dup2\n            /* \"#utility.yul\":4532:4546   */\n          lt\n            /* \"#utility.yul\":4524:4732   */\n          iszero\n          tag_89\n          jumpi\n            /* \"#utility.yul\":4617:4626   */\n          dup5\n            /* \"#utility.yul\":4612:4615   */\n          dup10\n            /* \"#utility.yul\":4608:4627   */\n          add\n            /* \"#utility.yul\":4602:4628   */\n          mload\n            /* \"#utility.yul\":4594:4600   */\n          dup3\n            /* \"#utility.yul\":4587:4629   */\n          sstore\n            /* \"#utility.yul\":4668:4669   */\n          0x01\n            /* \"#utility.yul\":4660:4666   */\n          dup3\n            /* \"#utility.yul\":4656:4670   */\n          add\n            /* \"#utility.yul\":4646:4670   */\n          swap2\n          pop\n            /* \"#utility.yul\":4715:4717   */\n          0x20\n            /* \"#utility.yul\":4704:4713   */\n          dup6\n            /* \"#utility.yul\":4700:4718   */\n          add\n            /* \"#utility.yul\":4687:4718   */\n          swap5\n          pop\n            /* \"#utility.yul\":4561:4565   */\n          0x20\n            /* \"#utility.yul\":4558:4559   */\n          dup2\n            /* \"#utility.yul\":4554:4566   */\n          add\n            /* \"#utility.yul\":4549:4566   */\n          swap1\n          pop\n            /* \"#utility.yul\":4524:4732   */\n          jump(tag_87)\n        tag_89:\n            /* \"#utility.yul\":4760:4766   */\n          dup7\n            /* \"#utility.yul\":4751:4758   */\n          dup4\n            /* \"#utility.yul\":4748:4767   */\n          lt\n            /* \"#utility.yul\":4745:4924   */\n          iszero\n          tag_90\n          jumpi\n            /* \"#utility.yul\":4818:4827   */\n          dup5\n            /* \"#utility.yul\":4813:4816   */\n          dup10\n            /* \"#utility.yul\":4809:4828   */\n          add\n            /* \"#utility.yul\":4803:4829   */\n          mload\n            /* \"#utility.yul\":4861:4909   */\n          tag_91\n            /* \"#utility.yul\":4903:4907   */\n          0x1f\n            /* \"#utility.yul\":4895:4901   */\n          dup10\n            /* \"#utility.yul\":4891:4908   */\n          and\n            /* \"#utility.yul\":4880:4889   */\n          dup3\n            /* \"#utility.yul\":4861:4909   */\n          tag_28\n          jump\t// in\n        tag_91:\n            /* \"#utility.yul\":4853:4859   */\n          dup4\n            /* \"#utility.yul\":4846:4910   */\n          sstore\n            /* \"#utility.yul\":4768:4924   */\n          pop\n            /* \"#utility.yul\":4745:4924   */\n        tag_90:\n            /* \"#utility.yul\":4970:4971   */\n          0x01\n            /* \"#utility.yul\":4966:4967   */\n          0x02\n            /* \"#utility.yul\":4958:4964   */\n          dup9\n            /* \"#utility.yul\":4954:4968   */\n          mul\n            /* \"#utility.yul\":4950:4972   */\n          add\n            /* \"#utility.yul\":4944:4948   */\n          dup9\n            /* \"#utility.yul\":4937:4973   */\n          sstore\n            /* \"#utility.yul\":4372:4983   */\n          pop\n          pop\n          pop\n            /* \"#utility.yul\":4335:5222   */\n        tag_82:\n          pop\n            /* \"#utility.yul\":3925:5228   */\n          pop\n          pop\n          pop\n            /* \"#utility.yul\":3833:5228   */\n          pop\n          pop\n          jump\t// out\n            /* \"WETH.sol\":209:521  contract WETH is ERC20, IWETH {... */\n        tag_9:\n          dataSize(sub_0)\n          dup1\n          dataOffset(sub_0)\n          0x00\n          codecopy\n          0x00\n          return\n        stop\n\n        sub_0: assembly {\n                /* \"WETH.sol\":209:521  contract WETH is ERC20, IWETH {... */\n              mstore(0x40, 0x80)\n              jumpi(tag_1, lt(calldatasize, 0x04))\n              shr(0xe0, calldataload(0x00))\n              dup1\n              0x313ce567\n              gt\n              tag_13\n              jumpi\n              dup1\n              0x313ce567\n              eq\n              tag_7\n              jumpi\n              dup1\n              0x70a08231\n              eq\n              tag_8\n              jumpi\n              dup1\n              0x95d89b41\n              eq\n              tag_9\n              jumpi\n              dup1\n              0xa9059cbb\n              eq\n              tag_10\n              jumpi\n              dup1\n              0xd0e30db0\n              eq\n              tag_11\n              jumpi\n              dup1\n              0xdd62ed3e\n              eq\n              tag_12\n              jumpi\n              jump(tag_1)\n            tag_13:\n              dup1\n              0x06fdde03\n              eq\n              tag_2\n              jumpi\n              dup1\n              0x095ea7b3\n              eq\n              tag_3\n              jumpi\n              dup1\n              0x18160ddd\n              eq\n              tag_4\n              jumpi\n              dup1\n              0x23b872dd\n              eq\n              tag_5\n              jumpi\n              dup1\n              0x2e1a7d4d\n              eq\n              tag_6\n              jumpi\n            tag_1:\n              0x00\n              dup1\n              revert\n                /* \"token/ERC20.sol\":518:536  string public name */\n            tag_2:\n              callvalue\n              dup1\n              iszero\n              tag_14\n              jumpi\n              0x00\n              dup1\n              revert\n            tag_14:\n              pop\n              tag_15\n              tag_16\n              jump\t// in\n            tag_15:\n              mload(0x40)\n              tag_17\n              swap2\n              swap1\n              tag_18\n              jump\t// in\n            tag_17:\n              mload(0x40)\n              dup1\n              swap2\n              sub\n              swap1\n              return\n                /* \"token/ERC20.sol\":1843:2046  function approve(address spender, uint256 amount) external returns (bool) {... */\n            tag_3:\n              callvalue\n              dup1\n              iszero\n              tag_19\n              jumpi\n              0x00\n              dup1\n              revert\n            tag_19:\n              pop\n              tag_20\n              0x04\n              dup1\n              calldatasize\n              sub\n              dup2\n              add\n              swap1\n              tag_21\n              swap2\n              swap1\n              tag_22\n              jump\t// in\n            tag_21:\n              tag_23\n              jump\t// in\n            tag_20:\n              mload(0x40)\n              tag_24\n              swap2\n              swap1\n              tag_25\n              jump\t// in\n            tag_24:\n              mload(0x40)\n              dup1\n              swap2\n              sub\n              swap1\n              return\n                /* \"token/ERC20.sol\":595:621  uint256 public totalSupply */\n            tag_4:\n              callvalue\n              dup1\n              iszero\n              tag_26\n              jumpi\n              0x00\n              dup1\n              revert\n            tag_26:\n              pop\n              tag_27\n              tag_28\n              jump\t// in\n            tag_27:\n              mload(0x40)\n              tag_29\n              swap2\n              swap1\n              tag_30\n              jump\t// in\n            tag_29:\n              mload(0x40)\n              dup1\n              swap2\n              sub\n              swap1\n              return\n                /* \"token/ERC20.sol\":2311:2647  function transferFrom(... */\n            tag_5:\n              callvalue\n              dup1\n              iszero\n              tag_31\n              jumpi\n              0x00\n              dup1\n              revert\n            tag_31:\n              pop\n              tag_32\n              0x04\n              dup1\n              calldatasize\n              sub\n              dup2\n              add\n              swap1\n              tag_33\n              swap2\n              swap1\n              tag_34\n              jump\t// in\n            tag_33:\n              tag_35\n              jump\t// in\n            tag_32:\n              mload(0x40)\n              tag_36\n              swap2\n              swap1\n              tag_25\n              jump\t// in\n            tag_36:\n              mload(0x40)\n              dup1\n              swap2\n              sub\n              swap1\n              return\n                /* \"WETH.sol\":388:519  function withdraw(uint256 amount) external {... */\n            tag_6:\n              callvalue\n              dup1\n              iszero\n              tag_37\n              jumpi\n              0x00\n              dup1\n              revert\n            tag_37:\n              pop\n              tag_38\n              0x04\n              dup1\n              calldatasize\n              sub\n              dup2\n              add\n              swap1\n              tag_39\n              swap2\n              swap1\n              tag_40\n              jump\t// in\n            tag_39:\n              tag_41\n              jump\t// in\n            tag_38:\n              stop\n                /* \"token/ERC20.sol\":568:589  uint8 public decimals */\n            tag_7:\n              callvalue\n              dup1\n              iszero\n              tag_42\n              jumpi\n              0x00\n              dup1\n              revert\n            tag_42:\n              pop\n              tag_43\n              tag_44\n              jump\t// in\n            tag_43:\n              mload(0x40)\n              tag_45\n              swap2\n              swap1\n              tag_46\n              jump\t// in\n            tag_45:\n              mload(0x40)\n              dup1\n              swap2\n              sub\n              swap1\n              return\n                /* \"token/ERC20.sol\":627:671  mapping(address => uint256) public balanceOf */\n            tag_8:\n              callvalue\n              dup1\n              iszero\n              tag_47\n              jumpi\n              0x00\n              dup1\n              revert\n            tag_47:\n              pop\n              tag_48\n              0x04\n              dup1\n              calldatasize\n              sub\n              dup2\n              add\n              swap1\n              tag_49\n              swap2\n              swap1\n              tag_50\n              jump\t// in\n            tag_49:\n              tag_51\n              jump\t// in\n            tag_48:\n              mload(0x40)\n              tag_52\n              swap2\n              swap1\n              tag_30\n              jump\t// in\n            tag_52:\n              mload(0x40)\n              dup1\n              swap2\n              sub\n              swap1\n              return\n                /* \"token/ERC20.sol\":542:562  string public symbol */\n            tag_9:\n              callvalue\n              dup1\n              iszero\n              tag_53\n              jumpi\n              0x00\n              dup1\n              revert\n            tag_53:\n              pop\n              tag_54\n              tag_55\n              jump\t// in\n            tag_54:\n              mload(0x40)\n              tag_56\n              swap2\n              swap1\n              tag_18\n              jump\t// in\n            tag_56:\n              mload(0x40)\n              dup1\n              swap2\n              sub\n              swap1\n              return\n                /* \"token/ERC20.sol\":2052:2305  function transfer(address to, uint256 amount) external returns (bool) {... */\n            tag_10:\n              callvalue\n              dup1\n              iszero\n              tag_57\n              jumpi\n              0x00\n              dup1\n              revert\n            tag_57:\n              pop\n              tag_58\n              0x04\n              dup1\n              calldatasize\n              sub\n              dup2\n              add\n              swap1\n              tag_59\n              swap2\n              swap1\n              tag_22\n              jump\t// in\n            tag_59:\n              tag_60\n              jump\t// in\n            tag_58:\n              mload(0x40)\n              tag_61\n              swap2\n              swap1\n              tag_25\n              jump\t// in\n            tag_61:\n              mload(0x40)\n              dup1\n              swap2\n              sub\n              swap1\n              return\n                /* \"WETH.sol\":301:382  function deposit() external payable {... */\n            tag_11:\n              tag_62\n              tag_63\n              jump\t// in\n            tag_62:\n              stop\n                /* \"token/ERC20.sol\":677:741  mapping(address => mapping(address => uint256)) public allowance */\n            tag_12:\n              callvalue\n              dup1\n              iszero\n              tag_64\n              jumpi\n              0x00\n              dup1\n              revert\n            tag_64:\n              pop\n              tag_65\n              0x04\n              dup1\n              calldatasize\n              sub\n              dup2\n              add\n              swap1\n              tag_66\n              swap2\n              swap1\n              tag_67\n              jump\t// in\n            tag_66:\n              tag_68\n              jump\t// in\n            tag_65:\n              mload(0x40)\n              tag_69\n              swap2\n              swap1\n              tag_30\n              jump\t// in\n            tag_69:\n              mload(0x40)\n              dup1\n              swap2\n              sub\n              swap1\n              return\n                /* \"token/ERC20.sol\":518:536  string public name */\n            tag_16:\n              0x00\n              dup1\n              sload\n              tag_70\n              swap1\n              tag_71\n              jump\t// in\n            tag_70:\n              dup1\n              0x1f\n              add\n              0x20\n              dup1\n              swap2\n              div\n              mul\n              0x20\n              add\n              mload(0x40)\n              swap1\n              dup2\n              add\n              0x40\n              mstore\n              dup1\n              swap3\n              swap2\n              swap1\n              dup2\n              dup2\n              mstore\n              0x20\n              add\n              dup3\n              dup1\n              sload\n              tag_72\n              swap1\n              tag_71\n              jump\t// in\n            tag_72:\n              dup1\n              iszero\n              tag_73\n              jumpi\n              dup1\n              0x1f\n              lt\n              tag_74\n              jumpi\n              0x0100\n              dup1\n              dup4\n              sload\n              div\n              mul\n              dup4\n              mstore\n              swap2\n              0x20\n              add\n              swap2\n              jump(tag_73)\n            tag_74:\n              dup3\n              add\n              swap2\n              swap1\n              0x00\n              mstore\n              keccak256(0x00, 0x20)\n              swap1\n            tag_75:\n              dup2\n              sload\n              dup2\n              mstore\n              swap1\n              0x01\n              add\n              swap1\n              0x20\n              add\n              dup1\n              dup4\n              gt\n              tag_75\n              jumpi\n              dup3\n              swap1\n              sub\n              0x1f\n              and\n              dup3\n              add\n              swap2\n            tag_73:\n              pop\n              pop\n              pop\n              pop\n              pop\n              dup2\n              jump\t// out\n                /* \"token/ERC20.sol\":1843:2046  function approve(address spender, uint256 amount) external returns (bool) {... */\n            tag_23:\n                /* \"token/ERC20.sol\":1911:1915  bool */\n              0x00\n                /* \"token/ERC20.sol\":1960:1966  amount */\n              dup2\n                /* \"token/ERC20.sol\":1927:1936  allowance */\n              0x05\n                /* \"token/ERC20.sol\":1927:1948  allowance[msg.sender] */\n              0x00\n                /* \"token/ERC20.sol\":1937:1947  msg.sender */\n              caller\n                /* \"token/ERC20.sol\":1927:1948  allowance[msg.sender] */\n              0xffffffffffffffffffffffffffffffffffffffff\n              and\n              0xffffffffffffffffffffffffffffffffffffffff\n              and\n              dup2\n              mstore\n              0x20\n              add\n              swap1\n              dup2\n              mstore\n              0x20\n              add\n              0x00\n              keccak256\n                /* \"token/ERC20.sol\":1927:1957  allowance[msg.sender][spender] */\n              0x00\n                /* \"token/ERC20.sol\":1949:1956  spender */\n              dup6\n                /* \"token/ERC20.sol\":1927:1957  allowance[msg.sender][spender] */\n              0xffffffffffffffffffffffffffffffffffffffff\n              and\n              0xffffffffffffffffffffffffffffffffffffffff\n              and\n              dup2\n              mstore\n              0x20\n              add\n              swap1\n              dup2\n              mstore\n              0x20\n              add\n              0x00\n              keccak256\n                /* \"token/ERC20.sol\":1927:1966  allowance[msg.sender][spender] = amount */\n              dup2\n              swap1\n              sstore\n              pop\n                /* \"token/ERC20.sol\":2002:2009  spender */\n              dup3\n                /* \"token/ERC20.sol\":1981:2018  Approval(msg.sender, spender, amount) */\n              0xffffffffffffffffffffffffffffffffffffffff\n              and\n                /* \"token/ERC20.sol\":1990:2000  msg.sender */\n              caller\n                /* \"token/ERC20.sol\":1981:2018  Approval(msg.sender, spender, amount) */\n              0xffffffffffffffffffffffffffffffffffffffff\n              and\n              0x8c5be1e5ebec7d5bd14f71427d1e84f3dd0314c0f7b2291e5b200ac8c7c3b925\n                /* \"token/ERC20.sol\":2011:2017  amount */\n              dup5\n                /* \"token/ERC20.sol\":1981:2018  Approval(msg.sender, spender, amount) */\n              mload(0x40)\n              tag_77\n              swap2\n              swap1\n              tag_30\n              jump\t// in\n            tag_77:\n              mload(0x40)\n              dup1\n              swap2\n              sub\n              swap1\n              log3\n                /* \"token/ERC20.sol\":2035:2039  true */\n              0x01\n                /* \"token/ERC20.sol\":2028:2039  return true */\n              swap1\n              pop\n                /* \"token/ERC20.sol\":1843:2046  function approve(address spender, uint256 amount) external returns (bool) {... */\n              swap3\n              swap2\n              pop\n              pop\n              jump\t// out\n                /* \"token/ERC20.sol\":595:621  uint256 public totalSupply */\n            tag_28:\n              sload(0x03)\n              dup2\n              jump\t// out\n                /* \"token/ERC20.sol\":2311:2647  function transferFrom(... */\n            tag_35:\n                /* \"token/ERC20.sol\":2423:2427  bool */\n              0x00\n                /* \"token/ERC20.sol\":2470:2476  amount */\n              dup2\n                /* \"token/ERC20.sol\":2439:2448  allowance */\n              0x05\n                /* \"token/ERC20.sol\":2439:2454  allowance[from] */\n              0x00\n                /* \"token/ERC20.sol\":2449:2453  from */\n              dup7\n                /* \"token/ERC20.sol\":2439:2454  allowance[from] */\n              0xffffffffffffffffffffffffffffffffffffffff\n              and\n              0xffffffffffffffffffffffffffffffffffffffff\n              and\n              dup2\n              mstore\n              0x20\n              add\n              swap1\n              dup2\n              mstore\n              0x20\n              add\n              0x00\n              keccak256\n                /* \"token/ERC20.sol\":2439:2466  allowance[from][msg.sender] */\n              0x00\n                /* \"token/ERC20.sol\":2455:2465  msg.sender */\n              caller\n                /* \"token/ERC20.sol\":2439:2466  allowance[from][msg.sender] */\n              0xffffffffffffffffffffffffffffffffffffffff\n              and\n              0xffffffffffffffffffffffffffffffffffffffff\n              and\n              dup2\n              mstore\n              0x20\n              add\n              swap1\n              dup2\n              mstore\n              0x20\n              add\n              0x00\n              keccak256\n              0x00\n                /* \"token/ERC20.sol\":2439:2476  allowance[from][msg.sender] -= amount */\n              dup3\n              dup3\n              sload\n              tag_79\n              swap2\n              swap1\n              tag_80\n              jump\t// in\n            tag_79:\n              swap3\n              pop\n              pop\n              dup2\n              swap1\n              sstore\n              pop\n                /* \"token/ERC20.sol\":2505:2511  amount */\n              dup2\n                /* \"token/ERC20.sol\":2486:2495  balanceOf */\n              0x04\n                /* \"token/ERC20.sol\":2486:2501  balanceOf[from] */\n              0x00\n                /* \"token/ERC20.sol\":2496:2500  from */\n              dup7\n                /* \"token/ERC20.sol\":2486:2501  balanceOf[from] */\n              0xffffffffffffffffffffffffffffffffffffffff\n              and\n              0xffffffffffffffffffffffffffffffffffffffff\n              and\n              dup2\n              mstore\n              0x20\n              add\n              swap1\n              dup2\n              mstore\n              0x20\n              add\n              0x00\n              keccak256\n              0x00\n                /* \"token/ERC20.sol\":2486:2511  balanceOf[from] -= amount */\n              dup3\n              dup3\n              sload\n              tag_81\n              swap2\n              swap1\n              tag_80\n              jump\t// in\n            tag_81:\n              swap3\n              pop\n              pop\n              dup2\n              swap1\n              sstore\n              pop\n                /* \"token/ERC20.sol\":2562:2568  amount */\n              dup2\n                /* \"token/ERC20.sol\":2545:2554  balanceOf */\n              0x04\n                /* \"token/ERC20.sol\":2545:2558  balanceOf[to] */\n              0x00\n                /* \"token/ERC20.sol\":2555:2557  to */\n              dup6\n                /* \"token/ERC20.sol\":2545:2558  balanceOf[to] */\n              0xffffffffffffffffffffffffffffffffffffffff\n              and\n              0xffffffffffffffffffffffffffffffffffffffff\n              and\n              dup2\n              mstore\n              0x20\n              add\n              swap1\n              dup2\n              mstore\n              0x20\n              add\n              0x00\n              keccak256\n              0x00\n                /* \"token/ERC20.sol\":2545:2568  balanceOf[to] += amount */\n              dup3\n              dup3\n              sload\n              add\n              swap3\n              pop\n              pop\n              dup2\n              swap1\n              sstore\n              pop\n                /* \"token/ERC20.sol\":2608:2610  to */\n              dup3\n                /* \"token/ERC20.sol\":2593:2619  Transfer(from, to, amount) */\n              0xffffffffffffffffffffffffffffffffffffffff\n              and\n                /* \"token/ERC20.sol\":2602:2606  from */\n              dup5\n                /* \"token/ERC20.sol\":2593:2619  Transfer(from, to, amount) */\n              0xffffffffffffffffffffffffffffffffffffffff\n              and\n              0xddf252ad1be2c89b69c2b068fc378daa952ba7f163c4a11628f55a4df523b3ef\n                /* \"token/ERC20.sol\":2612:2618  amount */\n              dup5\n                /* \"token/ERC20.sol\":2593:2619  Transfer(from, to, amount) */\n              mload(0x40)\n              tag_82\n              swap2\n              swap1\n              tag_30\n              jump\t// in\n            tag_82:\n              mload(0x40)\n              dup1\n              swap2\n              sub\n              swap1\n              log3\n                /* \"token/ERC20.sol\":2636:2640  true */\n              0x01\n                /* \"token/ERC20.sol\":2629:2640  return true */\n              swap1\n              pop\n                /* \"token/ERC20.sol\":2311:2647  function transferFrom(... */\n              swap4\n              swap3\n              pop\n              pop\n              pop\n              jump\t// out\n                /* \"WETH.sol\":388:519  function withdraw(uint256 amount) external {... */\n            tag_41:\n                /* \"WETH.sol\":441:466  _burn(msg.sender, amount) */\n              tag_84\n                /* \"WETH.sol\":447:457  msg.sender */\n              caller\n                /* \"WETH.sol\":459:465  amount */\n              dup3\n                /* \"WETH.sol\":441:446  _burn */\n              tag_85\n                /* \"WETH.sol\":441:466  _burn(msg.sender, amount) */\n              jump\t// in\n            tag_84:\n                /* \"WETH.sol\":484:494  msg.sender */\n              caller\n                /* \"WETH.sol\":476:504  payable(msg.sender).transfer */\n              0xffffffffffffffffffffffffffffffffffffffff\n              and\n                /* \"WETH.sol\":476:512  payable(msg.sender).transfer(amount) */\n              0x08fc\n                /* \"WETH.sol\":505:511  amount */\n              dup3\n                /* \"WETH.sol\":476:512  payable(msg.sender).transfer(amount) */\n              swap1\n              dup2\n              iszero\n              mul\n              swap1\n              mload(0x40)\n              0x00\n              mload(0x40)\n              dup1\n              dup4\n              sub\n              dup2\n              dup6\n              dup9\n              dup9\n              call\n              swap4\n              pop\n              pop\n              pop\n              pop\n              iszero\n              dup1\n              iszero\n              tag_87\n              jumpi\n              returndatasize\n              0x00\n              dup1\n              returndatacopy\n              revert(0x00, returndatasize)\n            tag_87:\n              pop\n                /* \"WETH.sol\":388:519  function withdraw(uint256 amount) external {... */\n              pop\n              jump\t// out\n                /* \"token/ERC20.sol\":568:589  uint8 public decimals */\n            tag_44:\n              0x02\n              0x00\n              swap1\n              sload\n              swap1\n              0x0100\n              exp\n              swap1\n              div\n              0xff\n              and\n              dup2\n              jump\t// out\n                /* \"token/ERC20.sol\":627:671  mapping(address => uint256) public balanceOf */\n            tag_51:\n              mstore(0x20, 0x04)\n              dup1\n              0x00\n              mstore\n              keccak256(0x00, 0x40)\n              0x00\n              swap2\n              pop\n              swap1\n              pop\n              sload\n              dup2\n              jump\t// out\n                /* \"token/ERC20.sol\":542:562  string public symbol */\n            tag_55:\n              0x01\n              dup1\n              sload\n              tag_88\n              swap1\n              tag_71\n              jump\t// in\n            tag_88:\n              dup1\n              0x1f\n              add\n              0x20\n              dup1\n              swap2\n              div\n              mul\n              0x20\n              add\n              mload(0x40)\n              swap1\n              dup2\n              add\n              0x40\n              mstore\n              dup1\n              swap3\n              swap2\n              swap1\n              dup2\n              dup2\n              mstore\n              0x20\n              add\n              dup3\n              dup1\n              sload\n              tag_89\n              swap1\n              tag_71\n              jump\t// in\n            tag_89:\n              dup1\n              iszero\n              tag_90\n              jumpi\n              dup1\n              0x1f\n              lt\n              tag_91\n              jumpi\n              0x0100\n              dup1\n              dup4\n              sload\n              div\n              mul\n              dup4\n              mstore\n              swap2\n              0x20\n              add\n              swap2\n              jump(tag_90)\n            tag_91:\n              dup3\n              add\n              swap2\n              swap1\n              0x00\n              mstore\n              keccak256(0x00, 0x20)\n              swap1\n            tag_92:\n              dup2\n              sload\n              dup2\n              mstore\n              swap1\n              0x01\n              add\n              swap1\n              0x20\n              add\n              dup1\n              dup4\n              gt\n              tag_92\n              jumpi\n              dup3\n              swap1\n              sub\n              0x1f\n              and\n              dup3\n              add\n              swap2\n            tag_90:\n              pop\n              pop\n              pop\n              pop\n              pop\n              dup2\n              jump\t// out\n                /* \"token/ERC20.sol\":2052:2305  function transfer(address to, uint256 amount) external returns (bool) {... */\n            tag_60:\n                /* \"token/ERC20.sol\":2116:2120  bool */\n              0x00\n                /* \"token/ERC20.sol\":2157:2163  amount */\n              dup2\n                /* \"token/ERC20.sol\":2132:2141  balanceOf */\n              0x04\n                /* \"token/ERC20.sol\":2132:2153  balanceOf[msg.sender] */\n              0x00\n                /* \"token/ERC20.sol\":2142:2152  msg.sender */\n              caller\n                /* \"token/ERC20.sol\":2132:2153  balanceOf[msg.sender] */\n              0xffffffffffffffffffffffffffffffffffffffff\n              and\n              0xffffffffffffffffffffffffffffffffffffffff\n              and\n              dup2\n              mstore\n              0x20\n              add\n              swap1\n              dup2\n              mstore\n              0x20\n              add\n              0x00\n              keccak256\n              0x00\n                /* \"token/ERC20.sol\":2132:2163  balanceOf[msg.sender] -= amount */\n              dup3\n              dup3\n              sload\n              tag_94\n              swap2\n              swap1\n              tag_80\n              jump\t// in\n            tag_94:\n              swap3\n              pop\n              pop\n              dup2\n              swap1\n              sstore\n              pop\n                /* \"token/ERC20.sol\":2214:2220  amount */\n              dup2\n                /* \"token/ERC20.sol\":2197:2206  balanceOf */\n              0x04\n                /* \"token/ERC20.sol\":2197:2210  balanceOf[to] */\n              0x00\n                /* \"token/ERC20.sol\":2207:2209  to */\n              dup6\n                /* \"token/ERC20.sol\":2197:2210  balanceOf[to] */\n              0xffffffffffffffffffffffffffffffffffffffff\n              and\n              0xffffffffffffffffffffffffffffffffffffffff\n              and\n              dup2\n              mstore\n              0x20\n              add\n              swap1\n              dup2\n              mstore\n              0x20\n              add\n              0x00\n              keccak256\n              0x00\n                /* \"token/ERC20.sol\":2197:2220  balanceOf[to] += amount */\n              dup3\n              dup3\n              sload\n              add\n              swap3\n              pop\n              pop\n              dup2\n              swap1\n              sstore\n              pop\n                /* \"token/ERC20.sol\":2266:2268  to */\n              dup3\n                /* \"token/ERC20.sol\":2245:2277  Transfer(msg.sender, to, amount) */\n              0xffffffffffffffffffffffffffffffffffffffff\n              and\n                /* \"token/ERC20.sol\":2254:2264  msg.sender */\n              caller\n                /* \"token/ERC20.sol\":2245:2277  Transfer(msg.sender, to, amount) */\n              0xffffffffffffffffffffffffffffffffffffffff\n              and\n              0xddf252ad1be2c89b69c2b068fc378daa952ba7f163c4a11628f55a4df523b3ef\n                /* \"token/ERC20.sol\":2270:2276  amount */\n              dup5\n                /* \"token/ERC20.sol\":2245:2277  Transfer(msg.sender, to, amount) */\n              mload(0x40)\n              tag_95\n              swap2\n              swap1\n              tag_30\n              jump\t// in\n            tag_95:\n              mload(0x40)\n              dup1\n              swap2\n              sub\n              swap1\n              log3\n                /* \"token/ERC20.sol\":2294:2298  true */\n              0x01\n                /* \"token/ERC20.sol\":2287:2298  return true */\n              swap1\n              pop\n                /* \"token/ERC20.sol\":2052:2305  function transfer(address to, uint256 amount) external returns (bool) {... */\n              swap3\n              swap2\n              pop\n              pop\n              jump\t// out\n                /* \"WETH.sol\":301:382  function deposit() external payable {... */\n            tag_63:\n                /* \"WETH.sol\":347:375  _mint(msg.sender, msg.value) */\n              tag_97\n                /* \"WETH.sol\":353:363  msg.sender */\n              caller\n                /* \"WETH.sol\":365:374  msg.value */\n              callvalue\n                /* \"WETH.sol\":347:352  _mint */\n              tag_98\n                /* \"WETH.sol\":347:375  _mint(msg.sender, msg.value) */\n              jump\t// in\n            tag_97:\n                /* \"WETH.sol\":301:382  function deposit() external payable {... */\n              jump\t// out\n                /* \"token/ERC20.sol\":677:741  mapping(address => mapping(address => uint256)) public allowance */\n            tag_68:\n              mstore(0x20, 0x05)\n              dup2\n              0x00\n              mstore\n              mstore(0x20, keccak256(0x00, 0x40))\n              dup1\n              0x00\n              mstore\n              keccak256(0x00, 0x40)\n              0x00\n              swap2\n              pop\n              swap2\n              pop\n              pop\n              sload\n              dup2\n              jump\t// out\n                /* \"token/ERC20.sol\":1451:1661  function _burn(address from, uint256 amount) internal {... */\n            tag_85:\n                /* \"token/ERC20.sol\":1534:1540  amount */\n              dup1\n                /* \"token/ERC20.sol\":1515:1524  balanceOf */\n              0x04\n                /* \"token/ERC20.sol\":1515:1530  balanceOf[from] */\n              0x00\n                /* \"token/ERC20.sol\":1525:1529  from */\n              dup5\n                /* \"token/ERC20.sol\":1515:1530  balanceOf[from] */\n              0xffffffffffffffffffffffffffffffffffffffff\n              and\n              0xffffffffffffffffffffffffffffffffffffffff\n              and\n              dup2\n              mstore\n              0x20\n              add\n              swap1\n              dup2\n              mstore\n              0x20\n              add\n              0x00\n              keccak256\n              0x00\n                /* \"token/ERC20.sol\":1515:1540  balanceOf[from] -= amount */\n              dup3\n              dup3\n              sload\n              tag_100\n              swap2\n              swap1\n              tag_80\n              jump\t// in\n            tag_100:\n              swap3\n              pop\n              pop\n              dup2\n              swap1\n              sstore\n              pop\n                /* \"token/ERC20.sol\":1589:1595  amount */\n              dup1\n                /* \"token/ERC20.sol\":1574:1585  totalSupply */\n              0x03\n              0x00\n                /* \"token/ERC20.sol\":1574:1595  totalSupply -= amount */\n              dup3\n              dup3\n              sload\n              sub\n              swap3\n              pop\n              pop\n              dup2\n              swap1\n              sstore\n              pop\n                /* \"token/ERC20.sol\":1643:1644  0 */\n              0x00\n                /* \"token/ERC20.sol\":1620:1654  Transfer(from, address(0), amount) */\n              0xffffffffffffffffffffffffffffffffffffffff\n              and\n                /* \"token/ERC20.sol\":1629:1633  from */\n              dup3\n                /* \"token/ERC20.sol\":1620:1654  Transfer(from, address(0), amount) */\n              0xffffffffffffffffffffffffffffffffffffffff\n              and\n              0xddf252ad1be2c89b69c2b068fc378daa952ba7f163c4a11628f55a4df523b3ef\n                /* \"token/ERC20.sol\":1647:1653  amount */\n              dup4\n                /* \"token/ERC20.sol\":1620:1654  Transfer(from, address(0), amount) */\n              mload(0x40)\n              tag_101\n              swap2\n              swap1\n              tag_30\n              jump\t// in\n            tag_101:\n              mload(0x40)\n              dup1\n              swap2\n              sub\n              swap1\n              log3\n                /* \"token/ERC20.sol\":1451:1661  function _burn(address from, uint256 amount) internal {... */\n              pop\n              pop\n              jump\t// out\n                /* \"token/ERC20.sol\":1241:1445  function _mint(address to, uint256 amount) internal {... */\n            tag_98:\n                /* \"token/ERC20.sol\":1318:1324  amount */\n              dup1\n                /* \"token/ERC20.sol\":1303:1314  totalSupply */\n              0x03\n              0x00\n                /* \"token/ERC20.sol\":1303:1324  totalSupply += amount */\n              dup3\n              dup3\n              sload\n              tag_103\n              swap2\n              swap1\n              tag_104\n              jump\t// in\n            tag_103:\n              swap3\n              pop\n              pop\n              dup2\n              swap1\n              sstore\n              pop\n                /* \"token/ERC20.sol\":1375:1381  amount */\n              dup1\n                /* \"token/ERC20.sol\":1358:1367  balanceOf */\n              0x04\n                /* \"token/ERC20.sol\":1358:1371  balanceOf[to] */\n              0x00\n                /* \"token/ERC20.sol\":1368:1370  to */\n              dup5\n                /* \"token/ERC20.sol\":1358:1371  balanceOf[to] */\n              0xffffffffffffffffffffffffffffffffffffffff\n              and\n              0xffffffffffffffffffffffffffffffffffffffff\n              and\n              dup2\n              mstore\n              0x20\n              add\n              swap1\n              dup2\n              mstore\n              0x20\n              add\n              0x00\n              keccak256\n              0x00\n                /* \"token/ERC20.sol\":1358:1381  balanceOf[to] += amount */\n              dup3\n              dup3\n              sload\n              add\n              swap3\n              pop\n              pop\n              dup2\n              swap1\n              sstore\n              pop\n                /* \"token/ERC20.sol\":1427:1429  to */\n              dup2\n                /* \"token/ERC20.sol\":1406:1438  Transfer(address(0), to, amount) */\n              0xffffffffffffffffffffffffffffffffffffffff\n              and\n                /* \"token/ERC20.sol\":1423:1424  0 */\n              0x00\n                /* \"token/ERC20.sol\":1406:1438  Transfer(address(0), to, amount) */\n              0xffffffffffffffffffffffffffffffffffffffff\n              and\n              0xddf252ad1be2c89b69c2b068fc378daa952ba7f163c4a11628f55a4df523b3ef\n                /* \"token/ERC20.sol\":1431:1437  amount */\n              dup4\n                /* \"token/ERC20.sol\":1406:1438  Transfer(address(0), to, amount) */\n              mload(0x40)\n              tag_105\n              swap2\n              swap1\n              tag_30\n              jump\t// in\n            tag_105:\n              mload(0x40)\n              dup1\n              swap2\n              sub\n              swap1\n              log3\n                /* \"token/ERC20.sol\":1241:1445  function _mint(address to, uint256 amount) internal {... */\n              pop\n              pop\n              jump\t// out\n                /* \"#utility.yul\":7:106   */\n            tag_106:\n                /* \"#utility.yul\":59:65   */\n              0x00\n                /* \"#utility.yul\":93:98   */\n              dup2\n                /* \"#utility.yul\":87:99   */\n              mload\n                /* \"#utility.yul\":77:99   */\n              swap1\n              pop\n                /* \"#utility.yul\":7:106   */\n              swap2\n              swap1\n              pop\n              jump\t// out\n                /* \"#utility.yul\":112:281   */\n            tag_107:\n                /* \"#utility.yul\":196:207   */\n              0x00\n                /* \"#utility.yul\":230:236   */\n              dup3\n                /* \"#utility.yul\":225:228   */\n              dup3\n                /* \"#utility.yul\":218:237   */\n              mstore\n                /* \"#utility.yul\":270:274   */\n              0x20\n                /* \"#utility.yul\":265:268   */\n              dup3\n                /* \"#utility.yul\":261:275   */\n              add\n                /* \"#utility.yul\":246:275   */\n              swap1\n              pop\n                /* \"#utility.yul\":112:281   */\n              swap3\n              swap2\n              pop\n              pop\n              jump\t// out\n                /* \"#utility.yul\":287:533   */\n            tag_108:\n                /* \"#utility.yul\":368:369   */\n              0x00\n                /* \"#utility.yul\":378:491   */\n            tag_132:\n                /* \"#utility.yul\":392:398   */\n              dup4\n                /* \"#utility.yul\":389:390   */\n              dup2\n                /* \"#utility.yul\":386:399   */\n              lt\n                /* \"#utility.yul\":378:491   */\n              iszero\n              tag_134\n              jumpi\n                /* \"#utility.yul\":477:478   */\n              dup1\n                /* \"#utility.yul\":472:475   */\n              dup3\n                /* \"#utility.yul\":468:479   */\n              add\n                /* \"#utility.yul\":462:480   */\n              mload\n                /* \"#utility.yul\":458:459   */\n              dup2\n                /* \"#utility.yul\":453:456   */\n              dup5\n                /* \"#utility.yul\":449:460   */\n              add\n                /* \"#utility.yul\":442:481   */\n              mstore\n                /* \"#utility.yul\":414:416   */\n              0x20\n                /* \"#utility.yul\":411:412   */\n              dup2\n                /* \"#utility.yul\":407:417   */\n              add\n                /* \"#utility.yul\":402:417   */\n              swap1\n              pop\n                /* \"#utility.yul\":378:491   */\n              jump(tag_132)\n            tag_134:\n                /* \"#utility.yul\":525:526   */\n              0x00\n                /* \"#utility.yul\":516:522   */\n              dup5\n                /* \"#utility.yul\":511:514   */\n              dup5\n                /* \"#utility.yul\":507:523   */\n              add\n                /* \"#utility.yul\":500:527   */\n              mstore\n                /* \"#utility.yul\":349:533   */\n              pop\n                /* \"#utility.yul\":287:533   */\n              pop\n              pop\n              pop\n              jump\t// out\n                /* \"#utility.yul\":539:641   */\n            tag_109:\n                /* \"#utility.yul\":580:586   */\n              0x00\n                /* \"#utility.yul\":631:633   */\n              0x1f\n                /* \"#utility.yul\":627:634   */\n              not\n                /* \"#utility.yul\":622:624   */\n              0x1f\n                /* \"#utility.yul\":615:620   */\n              dup4\n                /* \"#utility.yul\":611:625   */\n              add\n                /* \"#utility.yul\":607:635   */\n              and\n                /* \"#utility.yul\":597:635   */\n              swap1\n              pop\n                /* \"#utility.yul\":539:641   */\n              swap2\n              swap1\n              pop\n              jump\t// out\n                /* \"#utility.yul\":647:1024   */\n            tag_110:\n                /* \"#utility.yul\":735:738   */\n              0x00\n                /* \"#utility.yul\":763:802   */\n              tag_137\n                /* \"#utility.yul\":796:801   */\n              dup3\n                /* \"#utility.yul\":763:802   */\n              tag_106\n              jump\t// in\n            tag_137:\n                /* \"#utility.yul\":818:889   */\n              tag_138\n                /* \"#utility.yul\":882:888   */\n              dup2\n                /* \"#utility.yul\":877:880   */\n              dup6\n                /* \"#utility.yul\":818:889   */\n              tag_107\n              jump\t// in\n            tag_138:\n                /* \"#utility.yul\":811:889   */\n              swap4\n              pop\n                /* \"#utility.yul\":898:963   */\n              tag_139\n                /* \"#utility.yul\":956:962   */\n              dup2\n                /* \"#utility.yul\":951:954   */\n              dup6\n                /* \"#utility.yul\":944:948   */\n              0x20\n                /* \"#utility.yul\":937:942   */\n              dup7\n                /* \"#utility.yul\":933:949   */\n              add\n                /* \"#utility.yul\":898:963   */\n              tag_108\n              jump\t// in\n            tag_139:\n                /* \"#utility.yul\":988:1017   */\n              tag_140\n                /* \"#utility.yul\":1010:1016   */\n              dup2\n                /* \"#utility.yul\":988:1017   */\n              tag_109\n              jump\t// in\n            tag_140:\n                /* \"#utility.yul\":983:986   */\n              dup5\n                /* \"#utility.yul\":979:1018   */\n              add\n                /* \"#utility.yul\":972:1018   */\n              swap2\n              pop\n                /* \"#utility.yul\":739:1024   */\n              pop\n                /* \"#utility.yul\":647:1024   */\n              swap3\n              swap2\n              pop\n              pop\n              jump\t// out\n                /* \"#utility.yul\":1030:1343   */\n            tag_18:\n                /* \"#utility.yul\":1143:1147   */\n              0x00\n                /* \"#utility.yul\":1181:1183   */\n              0x20\n                /* \"#utility.yul\":1170:1179   */\n              dup3\n                /* \"#utility.yul\":1166:1184   */\n              add\n                /* \"#utility.yul\":1158:1184   */\n              swap1\n              pop\n                /* \"#utility.yul\":1230:1239   */\n              dup2\n                /* \"#utility.yul\":1224:1228   */\n              dup2\n                /* \"#utility.yul\":1220:1240   */\n              sub\n                /* \"#utility.yul\":1216:1217   */\n              0x00\n                /* \"#utility.yul\":1205:1214   */\n              dup4\n                /* \"#utility.yul\":1201:1218   */\n              add\n                /* \"#utility.yul\":1194:1241   */\n              mstore\n                /* \"#utility.yul\":1258:1336   */\n              tag_142\n                /* \"#utility.yul\":1331:1335   */\n              dup2\n                /* \"#utility.yul\":1322:1328   */\n              dup5\n                /* \"#utility.yul\":1258:1336   */\n              tag_110\n              jump\t// in\n            tag_142:\n                /* \"#utility.yul\":1250:1336   */\n              swap1\n              pop\n                /* \"#utility.yul\":1030:1343   */\n              swap3\n              swap2\n              pop\n              pop\n              jump\t// out\n                /* \"#utility.yul\":1430:1547   */\n            tag_112:\n                /* \"#utility.yul\":1539:1540   */\n              0x00\n                /* \"#utility.yul\":1536:1537   */\n              dup1\n                /* \"#utility.yul\":1529:1541   */\n              revert\n                /* \"#utility.yul\":1676:1802   */\n            tag_114:\n                /* \"#utility.yul\":1713:1720   */\n              0x00\n                /* \"#utility.yul\":1753:1795   */\n              0xffffffffffffffffffffffffffffffffffffffff\n                /* \"#utility.yul\":1746:1751   */\n              dup3\n                /* \"#utility.yul\":1742:1796   */\n              and\n                /* \"#utility.yul\":1731:1796   */\n              swap1\n              pop\n                /* \"#utility.yul\":1676:1802   */\n              swap2\n              swap1\n              pop\n              jump\t// out\n                /* \"#utility.yul\":1808:1904   */\n            tag_115:\n                /* \"#utility.yul\":1845:1852   */\n              0x00\n                /* \"#utility.yul\":1874:1898   */\n              tag_148\n                /* \"#utility.yul\":1892:1897   */\n              dup3\n                /* \"#utility.yul\":1874:1898   */\n              tag_114\n              jump\t// in\n            tag_148:\n                /* \"#utility.yul\":1863:1898   */\n              swap1\n              pop\n                /* \"#utility.yul\":1808:1904   */\n              swap2\n              swap1\n              pop\n              jump\t// out\n                /* \"#utility.yul\":1910:2032   */\n            tag_116:\n                /* \"#utility.yul\":1983:2007   */\n              tag_150\n                /* \"#utility.yul\":2001:2006   */\n              dup2\n                /* \"#utility.yul\":1983:2007   */\n              tag_115\n              jump\t// in\n            tag_150:\n                /* \"#utility.yul\":1976:1981   */\n              dup2\n                /* \"#utility.yul\":1973:2008   */\n              eq\n                /* \"#utility.yul\":1963:2026   */\n              tag_151\n              jumpi\n                /* \"#utility.yul\":2022:2023   */\n              0x00\n                /* \"#utility.yul\":2019:2020   */\n              dup1\n                /* \"#utility.yul\":2012:2024   */\n              revert\n                /* \"#utility.yul\":1963:2026   */\n            tag_151:\n                /* \"#utility.yul\":1910:2032   */\n              pop\n              jump\t// out\n                /* \"#utility.yul\":2038:2177   */\n            tag_117:\n                /* \"#utility.yul\":2084:2089   */\n              0x00\n                /* \"#utility.yul\":2122:2128   */\n              dup2\n                /* \"#utility.yul\":2109:2129   */\n              calldataload\n                /* \"#utility.yul\":2100:2129   */\n              swap1\n              pop\n                /* \"#utility.yul\":2138:2171   */\n              tag_153\n                /* \"#utility.yul\":2165:2170   */\n              dup2\n                /* \"#utility.yul\":2138:2171   */\n              tag_116\n              jump\t// in\n            tag_153:\n                /* \"#utility.yul\":2038:2177   */\n              swap3\n              swap2\n              pop\n              pop\n              jump\t// out\n                /* \"#utility.yul\":2183:2260   */\n            tag_118:\n                /* \"#utility.yul\":2220:2227   */\n              0x00\n                /* \"#utility.yul\":2249:2254   */\n              dup2\n                /* \"#utility.yul\":2238:2254   */\n              swap1\n              pop\n                /* \"#utility.yul\":2183:2260   */\n              swap2\n              swap1\n              pop\n              jump\t// out\n                /* \"#utility.yul\":2266:2388   */\n            tag_119:\n                /* \"#utility.yul\":2339:2363   */\n              tag_156\n                /* \"#utility.yul\":2357:2362   */\n              dup2\n                /* \"#utility.yul\":2339:2363   */\n              tag_118\n              jump\t// in\n            tag_156:\n                /* \"#utility.yul\":2332:2337   */\n              dup2\n                /* \"#utility.yul\":2329:2364   */\n              eq\n                /* \"#utility.yul\":2319:2382   */\n              tag_157\n              jumpi\n                /* \"#utility.yul\":2378:2379   */\n              0x00\n                /* \"#utility.yul\":2375:2376   */\n              dup1\n                /* \"#utility.yul\":2368:2380   */\n              revert\n                /* \"#utility.yul\":2319:2382   */\n            tag_157:\n                /* \"#utility.yul\":2266:2388   */\n              pop\n              jump\t// out\n                /* \"#utility.yul\":2394:2533   */\n            tag_120:\n                /* \"#utility.yul\":2440:2445   */\n              0x00\n                /* \"#utility.yul\":2478:2484   */\n              dup2\n                /* \"#utility.yul\":2465:2485   */\n              calldataload\n                /* \"#utility.yul\":2456:2485   */\n              swap1\n              pop\n                /* \"#utility.yul\":2494:2527   */\n              tag_159\n                /* \"#utility.yul\":2521:2526   */\n              dup2\n                /* \"#utility.yul\":2494:2527   */\n              tag_119\n              jump\t// in\n            tag_159:\n                /* \"#utility.yul\":2394:2533   */\n              swap3\n              swap2\n              pop\n              pop\n              jump\t// out\n                /* \"#utility.yul\":2539:3013   */\n            tag_22:\n                /* \"#utility.yul\":2607:2613   */\n              0x00\n                /* \"#utility.yul\":2615:2621   */\n              dup1\n                /* \"#utility.yul\":2664:2666   */\n              0x40\n                /* \"#utility.yul\":2652:2661   */\n              dup4\n                /* \"#utility.yul\":2643:2650   */\n              dup6\n                /* \"#utility.yul\":2639:2662   */\n              sub\n                /* \"#utility.yul\":2635:2667   */\n              slt\n                /* \"#utility.yul\":2632:2751   */\n              iszero\n              tag_161\n              jumpi\n                /* \"#utility.yul\":2670:2749   */\n              tag_162\n              tag_112\n              jump\t// in\n            tag_162:\n                /* \"#utility.yul\":2632:2751   */\n            tag_161:\n                /* \"#utility.yul\":2790:2791   */\n              0x00\n                /* \"#utility.yul\":2815:2868   */\n              tag_163\n                /* \"#utility.yul\":2860:2867   */\n              dup6\n                /* \"#utility.yul\":2851:2857   */\n              dup3\n                /* \"#utility.yul\":2840:2849   */\n              dup7\n                /* \"#utility.yul\":2836:2858   */\n              add\n                /* \"#utility.yul\":2815:2868   */\n              tag_117\n              jump\t// in\n            tag_163:\n                /* \"#utility.yul\":2805:2868   */\n              swap3\n              pop\n                /* \"#utility.yul\":2761:2878   */\n              pop\n                /* \"#utility.yul\":2917:2919   */\n              0x20\n                /* \"#utility.yul\":2943:2996   */\n              tag_164\n                /* \"#utility.yul\":2988:2995   */\n              dup6\n                /* \"#utility.yul\":2979:2985   */\n              dup3\n                /* \"#utility.yul\":2968:2977   */\n              dup7\n                /* \"#utility.yul\":2964:2986   */\n              add\n                /* \"#utility.yul\":2943:2996   */\n              tag_120\n              jump\t// in\n            tag_164:\n                /* \"#utility.yul\":2933:2996   */\n              swap2\n              pop\n                /* \"#utility.yul\":2888:3006   */\n              pop\n                /* \"#utility.yul\":2539:3013   */\n              swap3\n              pop\n              swap3\n              swap1\n              pop\n              jump\t// out\n                /* \"#utility.yul\":3019:3109   */\n            tag_121:\n                /* \"#utility.yul\":3053:3060   */\n              0x00\n                /* \"#utility.yul\":3096:3101   */\n              dup2\n                /* \"#utility.yul\":3089:3102   */\n              iszero\n                /* \"#utility.yul\":3082:3103   */\n              iszero\n                /* \"#utility.yul\":3071:3103   */\n              swap1\n              pop\n                /* \"#utility.yul\":3019:3109   */\n              swap2\n              swap1\n              pop\n              jump\t// out\n                /* \"#utility.yul\":3115:3224   */\n            tag_122:\n                /* \"#utility.yul\":3196:3217   */\n              tag_167\n                /* \"#utility.yul\":3211:3216   */\n              dup2\n                /* \"#utility.yul\":3196:3217   */\n              tag_121\n              jump\t// in\n            tag_167:\n                /* \"#utility.yul\":3191:3194   */\n              dup3\n                /* \"#utility.yul\":3184:3218   */\n              mstore\n                /* \"#utility.yul\":3115:3224   */\n              pop\n              pop\n              jump\t// out\n                /* \"#utility.yul\":3230:3440   */\n            tag_25:\n                /* \"#utility.yul\":3317:3321   */\n              0x00\n                /* \"#utility.yul\":3355:3357   */\n              0x20\n                /* \"#utility.yul\":3344:3353   */\n              dup3\n                /* \"#utility.yul\":3340:3358   */\n              add\n                /* \"#utility.yul\":3332:3358   */\n              swap1\n              pop\n                /* \"#utility.yul\":3368:3433   */\n              tag_169\n                /* \"#utility.yul\":3430:3431   */\n              0x00\n                /* \"#utility.yul\":3419:3428   */\n              dup4\n                /* \"#utility.yul\":3415:3432   */\n              add\n                /* \"#utility.yul\":3406:3412   */\n              dup5\n                /* \"#utility.yul\":3368:3433   */\n              tag_122\n              jump\t// in\n            tag_169:\n                /* \"#utility.yul\":3230:3440   */\n              swap3\n              swap2\n              pop\n              pop\n              jump\t// out\n                /* \"#utility.yul\":3446:3564   */\n            tag_123:\n                /* \"#utility.yul\":3533:3557   */\n              tag_171\n                /* \"#utility.yul\":3551:3556   */\n              dup2\n                /* \"#utility.yul\":3533:3557   */\n              tag_118\n              jump\t// in\n            tag_171:\n                /* \"#utility.yul\":3528:3531   */\n              dup3\n                /* \"#utility.yul\":3521:3558   */\n              mstore\n                /* \"#utility.yul\":3446:3564   */\n              pop\n              pop\n              jump\t// out\n                /* \"#utility.yul\":3570:3792   */\n            tag_30:\n                /* \"#utility.yul\":3663:3667   */\n              0x00\n                /* \"#utility.yul\":3701:3703   */\n              0x20\n                /* \"#utility.yul\":3690:3699   */\n              dup3\n                /* \"#utility.yul\":3686:3704   */\n              add\n                /* \"#utility.yul\":3678:3704   */\n              swap1\n              pop\n                /* \"#utility.yul\":3714:3785   */\n              tag_173\n                /* \"#utility.yul\":3782:3783   */\n              0x00\n                /* \"#utility.yul\":3771:3780   */\n              dup4\n                /* \"#utility.yul\":3767:3784   */\n              add\n                /* \"#utility.yul\":3758:3764   */\n              dup5\n                /* \"#utility.yul\":3714:3785   */\n              tag_123\n              jump\t// in\n            tag_173:\n                /* \"#utility.yul\":3570:3792   */\n              swap3\n              swap2\n              pop\n              pop\n              jump\t// out\n                /* \"#utility.yul\":3798:4417   */\n            tag_34:\n                /* \"#utility.yul\":3875:3881   */\n              0x00\n                /* \"#utility.yul\":3883:3889   */\n              dup1\n                /* \"#utility.yul\":3891:3897   */\n              0x00\n                /* \"#utility.yul\":3940:3942   */\n              0x60\n                /* \"#utility.yul\":3928:3937   */\n              dup5\n                /* \"#utility.yul\":3919:3926   */\n              dup7\n                /* \"#utility.yul\":3915:3938   */\n              sub\n                /* \"#utility.yul\":3911:3943   */\n              slt\n                /* \"#utility.yul\":3908:4027   */\n              iszero\n              tag_175\n              jumpi\n                /* \"#utility.yul\":3946:4025   */\n              tag_176\n              tag_112\n              jump\t// in\n            tag_176:\n                /* \"#utility.yul\":3908:4027   */\n            tag_175:\n                /* \"#utility.yul\":4066:4067   */\n              0x00\n                /* \"#utility.yul\":4091:4144   */\n              tag_177\n                /* \"#utility.yul\":4136:4143   */\n              dup7\n                /* \"#utility.yul\":4127:4133   */\n              dup3\n                /* \"#utility.yul\":4116:4125   */\n              dup8\n                /* \"#utility.yul\":4112:4134   */\n              add\n                /* \"#utility.yul\":4091:4144   */\n              tag_117\n              jump\t// in\n            tag_177:\n                /* \"#utility.yul\":4081:4144   */\n              swap4\n              pop\n                /* \"#utility.yul\":4037:4154   */\n              pop\n                /* \"#utility.yul\":4193:4195   */\n              0x20\n                /* \"#utility.yul\":4219:4272   */\n              tag_178\n                /* \"#utility.yul\":4264:4271   */\n              dup7\n                /* \"#utility.yul\":4255:4261   */\n              dup3\n                /* \"#utility.yul\":4244:4253   */\n              dup8\n                /* \"#utility.yul\":4240:4262   */\n              add\n                /* \"#utility.yul\":4219:4272   */\n              tag_117\n              jump\t// in\n            tag_178:\n                /* \"#utility.yul\":4209:4272   */\n              swap3\n              pop\n                /* \"#utility.yul\":4164:4282   */\n              pop\n                /* \"#utility.yul\":4321:4323   */\n              0x40\n                /* \"#utility.yul\":4347:4400   */\n              tag_179\n                /* \"#utility.yul\":4392:4399   */\n              dup7\n                /* \"#utility.yul\":4383:4389   */\n              dup3\n                /* \"#utility.yul\":4372:4381   */\n              dup8\n                /* \"#utility.yul\":4368:4390   */\n              add\n                /* \"#utility.yul\":4347:4400   */\n              tag_120\n              jump\t// in\n            tag_179:\n                /* \"#utility.yul\":4337:4400   */\n              swap2\n              pop\n                /* \"#utility.yul\":4292:4410   */\n              pop\n                /* \"#utility.yul\":3798:4417   */\n              swap3\n              pop\n              swap3\n              pop\n              swap3\n              jump\t// out\n                /* \"#utility.yul\":4423:4752   */\n            tag_40:\n                /* \"#utility.yul\":4482:4488   */\n              0x00\n                /* \"#utility.yul\":4531:4533   */\n              0x20\n                /* \"#utility.yul\":4519:4528   */\n              dup3\n                /* \"#utility.yul\":4510:4517   */\n              dup5\n                /* \"#utility.yul\":4506:4529   */\n              sub\n                /* \"#utility.yul\":4502:4534   */\n              slt\n                /* \"#utility.yul\":4499:4618   */\n              iszero\n              tag_181\n              jumpi\n                /* \"#utility.yul\":4537:4616   */\n              tag_182\n              tag_112\n              jump\t// in\n            tag_182:\n                /* \"#utility.yul\":4499:4618   */\n            tag_181:\n                /* \"#utility.yul\":4657:4658   */\n              0x00\n                /* \"#utility.yul\":4682:4735   */\n              tag_183\n                /* \"#utility.yul\":4727:4734   */\n              dup5\n                /* \"#utility.yul\":4718:4724   */\n              dup3\n                /* \"#utility.yul\":4707:4716   */\n              dup6\n                /* \"#utility.yul\":4703:4725   */\n              add\n                /* \"#utility.yul\":4682:4735   */\n              tag_120\n              jump\t// in\n            tag_183:\n                /* \"#utility.yul\":4672:4735   */\n              swap2\n              pop\n                /* \"#utility.yul\":4628:4745   */\n              pop\n                /* \"#utility.yul\":4423:4752   */\n              swap3\n              swap2\n              pop\n              pop\n              jump\t// out\n                /* \"#utility.yul\":4758:4844   */\n            tag_124:\n                /* \"#utility.yul\":4793:4800   */\n              0x00\n                /* \"#utility.yul\":4833:4837   */\n              0xff\n                /* \"#utility.yul\":4826:4831   */\n              dup3\n                /* \"#utility.yul\":4822:4838   */\n              and\n                /* \"#utility.yul\":4811:4838   */\n              swap1\n              pop\n                /* \"#utility.yul\":4758:4844   */\n              swap2\n              swap1\n              pop\n              jump\t// out\n                /* \"#utility.yul\":4850:4962   */\n            tag_125:\n                /* \"#utility.yul\":4933:4955   */\n              tag_186\n                /* \"#utility.yul\":4949:4954   */\n              dup2\n                /* \"#utility.yul\":4933:4955   */\n              tag_124\n              jump\t// in\n            tag_186:\n                /* \"#utility.yul\":4928:4931   */\n              dup3\n                /* \"#utility.yul\":4921:4956   */\n              mstore\n                /* \"#utility.yul\":4850:4962   */\n              pop\n              pop\n              jump\t// out\n                /* \"#utility.yul\":4968:5182   */\n            tag_46:\n                /* \"#utility.yul\":5057:5061   */\n              0x00\n                /* \"#utility.yul\":5095:5097   */\n              0x20\n                /* \"#utility.yul\":5084:5093   */\n              dup3\n                /* \"#utility.yul\":5080:5098   */\n              add\n                /* \"#utility.yul\":5072:5098   */\n              swap1\n              pop\n                /* \"#utility.yul\":5108:5175   */\n              tag_188\n                /* \"#utility.yul\":5172:5173   */\n              0x00\n                /* \"#utility.yul\":5161:5170   */\n              dup4\n                /* \"#utility.yul\":5157:5174   */\n              add\n                /* \"#utility.yul\":5148:5154   */\n              dup5\n                /* \"#utility.yul\":5108:5175   */\n              tag_125\n              jump\t// in\n            tag_188:\n                /* \"#utility.yul\":4968:5182   */\n              swap3\n              swap2\n              pop\n              pop\n              jump\t// out\n                /* \"#utility.yul\":5188:5517   */\n            tag_50:\n                /* \"#utility.yul\":5247:5253   */\n              0x00\n                /* \"#utility.yul\":5296:5298   */\n              0x20\n                /* \"#utility.yul\":5284:5293   */\n              dup3\n                /* \"#utility.yul\":5275:5282   */\n              dup5\n                /* \"#utility.yul\":5271:5294   */\n              sub\n                /* \"#utility.yul\":5267:5299   */\n              slt\n                /* \"#utility.yul\":5264:5383   */\n              iszero\n              tag_190\n              jumpi\n                /* \"#utility.yul\":5302:5381   */\n              tag_191\n              tag_112\n              jump\t// in\n            tag_191:\n                /* \"#utility.yul\":5264:5383   */\n            tag_190:\n                /* \"#utility.yul\":5422:5423   */\n              0x00\n                /* \"#utility.yul\":5447:5500   */\n              tag_192\n                /* \"#utility.yul\":5492:5499   */\n              dup5\n                /* \"#utility.yul\":5483:5489   */\n              dup3\n                /* \"#utility.yul\":5472:5481   */\n              dup6\n                /* \"#utility.yul\":5468:5490   */\n              add\n                /* \"#utility.yul\":5447:5500   */\n              tag_117\n              jump\t// in\n            tag_192:\n                /* \"#utility.yul\":5437:5500   */\n              swap2\n              pop\n                /* \"#utility.yul\":5393:5510   */\n              pop\n                /* \"#utility.yul\":5188:5517   */\n              swap3\n              swap2\n              pop\n              pop\n              jump\t// out\n                /* \"#utility.yul\":5523:5997   */\n            tag_67:\n                /* \"#utility.yul\":5591:5597   */\n              0x00\n                /* \"#utility.yul\":5599:5605   */\n              dup1\n                /* \"#utility.yul\":5648:5650   */\n              0x40\n                /* \"#utility.yul\":5636:5645   */\n              dup4\n                /* \"#utility.yul\":5627:5634   */\n              dup6\n                /* \"#utility.yul\":5623:5646   */\n              sub\n                /* \"#utility.yul\":5619:5651   */\n              slt\n                /* \"#utility.yul\":5616:5735   */\n              iszero\n              tag_194\n              jumpi\n                /* \"#utility.yul\":5654:5733   */\n              tag_195\n              tag_112\n              jump\t// in\n            tag_195:\n                /* \"#utility.yul\":5616:5735   */\n            tag_194:\n                /* \"#utility.yul\":5774:5775   */\n              0x00\n                /* \"#utility.yul\":5799:5852   */\n              tag_196\n                /* \"#utility.yul\":5844:5851   */\n              dup6\n                /* \"#utility.yul\":5835:5841   */\n              dup3\n                /* \"#utility.yul\":5824:5833   */\n              dup7\n                /* \"#utility.yul\":5820:5842   */\n              add\n                /* \"#utility.yul\":5799:5852   */\n              tag_117\n              jump\t// in\n            tag_196:\n                /* \"#utility.yul\":5789:5852   */\n              swap3\n              pop\n                /* \"#utility.yul\":5745:5862   */\n              pop\n                /* \"#utility.yul\":5901:5903   */\n              0x20\n                /* \"#utility.yul\":5927:5980   */\n              tag_197\n                /* \"#utility.yul\":5972:5979   */\n              dup6\n                /* \"#utility.yul\":5963:5969   */\n              dup3\n                /* \"#utility.yul\":5952:5961   */\n              dup7\n                /* \"#utility.yul\":5948:5970   */\n              add\n                /* \"#utility.yul\":5927:5980   */\n              tag_117\n              jump\t// in\n            tag_197:\n                /* \"#utility.yul\":5917:5980   */\n              swap2\n              pop\n                /* \"#utility.yul\":5872:5990   */\n              pop\n                /* \"#utility.yul\":5523:5997   */\n              swap3\n              pop\n              swap3\n              swap1\n              pop\n              jump\t// out\n                /* \"#utility.yul\":6003:6183   */\n            tag_126:\n                /* \"#utility.yul\":6051:6128   */\n              0x4e487b7100000000000000000000000000000000000000000000000000000000\n                /* \"#utility.yul\":6048:6049   */\n              0x00\n                /* \"#utility.yul\":6041:6129   */\n              mstore\n                /* \"#utility.yul\":6148:6152   */\n              0x22\n                /* \"#utility.yul\":6145:6146   */\n              0x04\n                /* \"#utility.yul\":6138:6153   */\n              mstore\n                /* \"#utility.yul\":6172:6176   */\n              0x24\n                /* \"#utility.yul\":6169:6170   */\n              0x00\n                /* \"#utility.yul\":6162:6177   */\n              revert\n                /* \"#utility.yul\":6189:6509   */\n            tag_71:\n                /* \"#utility.yul\":6233:6239   */\n              0x00\n                /* \"#utility.yul\":6270:6271   */\n              0x02\n                /* \"#utility.yul\":6264:6268   */\n              dup3\n                /* \"#utility.yul\":6260:6272   */\n              div\n                /* \"#utility.yul\":6250:6272   */\n              swap1\n              pop\n                /* \"#utility.yul\":6317:6318   */\n              0x01\n                /* \"#utility.yul\":6311:6315   */\n              dup3\n                /* \"#utility.yul\":6307:6319   */\n              and\n                /* \"#utility.yul\":6338:6356   */\n              dup1\n                /* \"#utility.yul\":6328:6409   */\n              tag_200\n              jumpi\n                /* \"#utility.yul\":6394:6398   */\n              0x7f\n                /* \"#utility.yul\":6386:6392   */\n              dup3\n                /* \"#utility.yul\":6382:6399   */\n              and\n                /* \"#utility.yul\":6372:6399   */\n              swap2\n              pop\n                /* \"#utility.yul\":6328:6409   */\n            tag_200:\n                /* \"#utility.yul\":6456:6458   */\n              0x20\n                /* \"#utility.yul\":6448:6454   */\n              dup3\n                /* \"#utility.yul\":6445:6459   */\n              lt\n                /* \"#utility.yul\":6425:6443   */\n              dup2\n                /* \"#utility.yul\":6422:6460   */\n              sub\n                /* \"#utility.yul\":6419:6503   */\n              tag_201\n              jumpi\n                /* \"#utility.yul\":6475:6493   */\n              tag_202\n              tag_126\n              jump\t// in\n            tag_202:\n                /* \"#utility.yul\":6419:6503   */\n            tag_201:\n                /* \"#utility.yul\":6240:6509   */\n              pop\n                /* \"#utility.yul\":6189:6509   */\n              swap2\n              swap1\n              pop\n              jump\t// out\n                /* \"#utility.yul\":6515:6695   */\n            tag_127:\n                /* \"#utility.yul\":6563:6640   */\n              0x4e487b7100000000000000000000000000000000000000000000000000000000\n                /* \"#utility.yul\":6560:6561   */\n              0x00\n                /* \"#utility.yul\":6553:6641   */\n              mstore\n                /* \"#utility.yul\":6660:6664   */\n              0x11\n                /* \"#utility.yul\":6657:6658   */\n              0x04\n                /* \"#utility.yul\":6650:6665   */\n              mstore\n                /* \"#utility.yul\":6684:6688   */\n              0x24\n                /* \"#utility.yul\":6681:6682   */\n              0x00\n                /* \"#utility.yul\":6674:6689   */\n              revert\n                /* \"#utility.yul\":6701:6895   */\n            tag_80:\n                /* \"#utility.yul\":6741:6745   */\n              0x00\n                /* \"#utility.yul\":6761:6781   */\n              tag_205\n                /* \"#utility.yul\":6779:6780   */\n              dup3\n                /* \"#utility.yul\":6761:6781   */\n              tag_118\n              jump\t// in\n            tag_205:\n                /* \"#utility.yul\":6756:6781   */\n              swap2\n              pop\n                /* \"#utility.yul\":6795:6815   */\n              tag_206\n                /* \"#utility.yul\":6813:6814   */\n              dup4\n                /* \"#utility.yul\":6795:6815   */\n              tag_118\n              jump\t// in\n            tag_206:\n                /* \"#utility.yul\":6790:6815   */\n              swap3\n              pop\n                /* \"#utility.yul\":6839:6840   */\n              dup3\n                /* \"#utility.yul\":6836:6837   */\n              dup3\n                /* \"#utility.yul\":6832:6841   */\n              sub\n                /* \"#utility.yul\":6824:6841   */\n              swap1\n              pop\n                /* \"#utility.yul\":6863:6864   */\n              dup2\n                /* \"#utility.yul\":6857:6861   */\n              dup2\n                /* \"#utility.yul\":6854:6865   */\n              gt\n                /* \"#utility.yul\":6851:6888   */\n              iszero\n              tag_207\n              jumpi\n                /* \"#utility.yul\":6868:6886   */\n              tag_208\n              tag_127\n              jump\t// in\n            tag_208:\n                /* \"#utility.yul\":6851:6888   */\n            tag_207:\n                /* \"#utility.yul\":6701:6895   */\n              swap3\n              swap2\n              pop\n              pop\n              jump\t// out\n                /* \"#utility.yul\":6901:7092   */\n            tag_104:\n                /* \"#utility.yul\":6941:6944   */\n              0x00\n                /* \"#utility.yul\":6960:6980   */\n              tag_210\n                /* \"#utility.yul\":6978:6979   */\n              dup3\n                /* \"#utility.yul\":6960:6980   */\n              tag_118\n              jump\t// in\n            tag_210:\n                /* \"#utility.yul\":6955:6980   */\n              swap2\n              pop\n                /* \"#utility.yul\":6994:7014   */\n              tag_211\n                /* \"#utility.yul\":7012:7013   */\n              dup4\n                /* \"#utility.yul\":6994:7014   */\n              tag_118\n              jump\t// in\n            tag_211:\n                /* \"#utility.yul\":6989:7014   */\n              swap3\n              pop\n                /* \"#utility.yul\":7037:7038   */\n              dup3\n                /* \"#utility.yul\":7034:7035   */\n              dup3\n                /* \"#utility.yul\":7030:7039   */\n              add\n                /* \"#utility.yul\":7023:7039   */\n              swap1\n              pop\n                /* \"#utility.yul\":7058:7061   */\n              dup1\n                /* \"#utility.yul\":7055:7056   */\n              dup3\n                /* \"#utility.yul\":7052:7062   */\n              gt\n                /* \"#utility.yul\":7049:7085   */\n              iszero\n              tag_212\n              jumpi\n                /* \"#utility.yul\":7065:7083   */\n              tag_213\n              tag_127\n              jump\t// in\n            tag_213:\n                /* \"#utility.yul\":7049:7085   */\n            tag_212:\n                /* \"#utility.yul\":6901:7092   */\n              swap3\n              swap2\n              pop\n              pop\n              jump\t// out\n\n            auxdata: 0xa26469706673582212207a53d0a8ed5a9ae0964e94b88348a26ded7542a6cee054525d5321b8070b26be64736f6c63430008120033\n        }\n    }\n\n    auxdata: 0xa264697066735822122092feae55011d517e4442d04c41fad942903f490ed624b1a495cde34a470c92b464736f6c63430008120033\n}\n",
				"bytecode": {
					"linkReferences": {
						"remix_tests.sol": {
							"Assert": [
								{
									"length": 20,
									"start": 300
								},
								{
									"length": 20,
									"start": 580
								}
							]
						}
					},
					"object": "608060405234801561001057600080fd5b50611b2b806100206000396000f3fe60806040523480156200001157600080fd5b5060043610620000465760003560e01c80636331e7d4146200004b578063a511eb2c1462000057578063aed8774b1462000079575b600080fd5b620000556200009b565b005b6200006162000108565b604051620000709190620003b5565b60405180910390f35b6200008362000220565b604051620000929190620003b5565b60405180910390f35b604051620000a9906200038a565b604051809103906000f080158015620000c6573d6000803e3d6000fd5b506000806101000a81548173ffffffffffffffffffffffffffffffffffffffff021916908373ffffffffffffffffffffffffffffffffffffffff160217905550565b600073__$acbfb1c35000d78352310b16a054a6b106$__63abcd796060008054906101000a900473ffffffffffffffffffffffffffffffffffffffff1673ffffffffffffffffffffffffffffffffffffffff166318160ddd6040518163ffffffff1660e01b8152600401602060405180830381865afa15801562000190573d6000803e3d6000fd5b505050506040513d601f19601f82011682018060405250810190620001b6919062000421565b60006040518363ffffffff1660e01b8152600401620001d792919062000512565b602060405180830381865af4158015620001f5573d6000803e3d6000fd5b505050506040513d601f19601f820116820180604052508101906200021b919062000585565b905090565b600073__$acbfb1c35000d78352310b16a054a6b106$__63ea79dd7960008054906101000a900473ffffffffffffffffffffffffffffffffffffffff1673ffffffffffffffffffffffffffffffffffffffff166395d89b416040518163ffffffff1660e01b8152600401600060405180830381865afa158015620002a8573d6000803e3d6000fd5b505050506040513d6000823e3d601f19601f82011682018060405250810190620002d3919062000736565b604051602001620002e59190620007d4565b604051602081830303815290604052805190602001206040516020016200030c906200083d565b604051602081830303815290604052805190602001206040518363ffffffff1660e01b8152600401620003419291906200086f565b602060405180830381865af41580156200035f573d6000803e3d6000fd5b505050506040513d601f19601f8201168201806040525081019062000385919062000585565b905090565b61124480620008b283390190565b60008115159050919050565b620003af8162000398565b82525050565b6000602082019050620003cc6000830184620003a4565b92915050565b6000604051905090565b600080fd5b600080fd5b6000819050919050565b620003fb81620003e6565b81146200040757600080fd5b50565b6000815190506200041b81620003f0565b92915050565b6000602082840312156200043a5762000439620003dc565b5b60006200044a848285016200040a565b91505092915050565b6200045e81620003e6565b82525050565b6000819050919050565b6000819050919050565b600062000499620004936200048d8462000464565b6200046e565b620003e6565b9050919050565b620004ab8162000478565b82525050565b600082825260208201905092915050565b7f696e697469616c2076616c7565206973206e6f7420636f727265637400000000600082015250565b6000620004fa601c83620004b1565b91506200050782620004c2565b602082019050919050565b600060608201905062000529600083018562000453565b620005386020830184620004a0565b81810360408301526200054b81620004eb565b90509392505050565b6200055f8162000398565b81146200056b57600080fd5b50565b6000815190506200057f8162000554565b92915050565b6000602082840312156200059e576200059d620003dc565b5b6000620005ae848285016200056e565b91505092915050565b600080fd5b600080fd5b6000601f19601f8301169050919050565b7f4e487b7100000000000000000000000000000000000000000000000000000000600052604160045260246000fd5b6200060c82620005c1565b810181811067ffffffffffffffff821117156200062e576200062d620005d2565b5b80604052505050565b600062000643620003d2565b905062000651828262000601565b919050565b600067ffffffffffffffff821115620006745762000673620005d2565b5b6200067f82620005c1565b9050602081019050919050565b60005b83811015620006ac5780820151818401526020810190506200068f565b60008484015250505050565b6000620006cf620006c98462000656565b62000637565b905082815260208101848484011115620006ee57620006ed620005bc565b5b620006fb8482856200068c565b509392505050565b600082601f8301126200071b576200071a620005b7565b5b81516200072d848260208601620006b8565b91505092915050565b6000602082840312156200074f576200074e620003dc565b5b600082015167ffffffffffffffff81111562000770576200076f620003e1565b5b6200077e8482850162000703565b91505092915050565b600081519050919050565b600081905092915050565b6000620007aa8262000787565b620007b6818562000792565b9350620007c88185602086016200068c565b80840191505092915050565b6000620007e282846200079d565b915081905092915050565b7f5745544800000000000000000000000000000000000000000000000000000000600082015250565b60006200082560048362000792565b91506200083282620007ed565b600482019050919050565b60006200084a8262000816565b9150819050919050565b6000819050919050565b620008698162000854565b82525050565b60006060820190506200088660008301856200085e565b6200089560208301846200085e565b8181036040830152620008a881620004eb565b9050939250505056fe60806040523480156200001157600080fd5b506040518060400160405280601081526020017f5772617070656420457468657265756d000000000000000000000000000000008152506040518060400160405280600481526020017f574554480000000000000000000000000000000000000000000000000000000081525081600090816200008f919062000340565b508060019081620000a1919062000340565b506012600260006101000a81548160ff021916908360ff160217905550505062000427565b600081519050919050565b7f4e487b7100000000000000000000000000000000000000000000000000000000600052604160045260246000fd5b7f4e487b7100000000000000000000000000000000000000000000000000000000600052602260045260246000fd5b600060028204905060018216806200014857607f821691505b6020821081036200015e576200015d62000100565b5b50919050565b60008190508160005260206000209050919050565b60006020601f8301049050919050565b600082821b905092915050565b600060088302620001c87fffffffffffffffffffffffffffffffffffffffffffffffffffffffffffffffff8262000189565b620001d4868362000189565b95508019841693508086168417925050509392505050565b6000819050919050565b6000819050919050565b6000620002216200021b6200021584620001ec565b620001f6565b620001ec565b9050919050565b6000819050919050565b6200023d8362000200565b620002556200024c8262000228565b84845462000196565b825550505050565b600090565b6200026c6200025d565b6200027981848462000232565b505050565b5b81811015620002a1576200029560008262000262565b6001810190506200027f565b5050565b601f821115620002f057620002ba8162000164565b620002c58462000179565b81016020851015620002d5578190505b620002ed620002e48562000179565b8301826200027e565b50505b505050565b600082821c905092915050565b60006200031560001984600802620002f5565b1980831691505092915050565b600062000330838362000302565b9150826002028217905092915050565b6200034b82620000c6565b67ffffffffffffffff811115620003675762000366620000d1565b5b6200037382546200012f565b62000380828285620002a5565b600060209050601f831160018114620003b85760008415620003a3578287015190505b620003af858262000322565b8655506200041f565b601f198416620003c88662000164565b60005b82811015620003f257848901518255600182019150602085019450602081019050620003cb565b868310156200041257848901516200040e601f89168262000302565b8355505b6001600288020188555050505b505050505050565b610e0d80620004376000396000f3fe60806040526004361061009c5760003560e01c8063313ce56711610064578063313ce5671461019a57806370a08231146101c557806395d89b4114610202578063a9059cbb1461022d578063d0e30db01461026a578063dd62ed3e146102745761009c565b806306fdde03146100a1578063095ea7b3146100cc57806318160ddd1461010957806323b872dd146101345780632e1a7d4d14610171575b600080fd5b3480156100ad57600080fd5b506100b66102b1565b6040516100c39190610a61565b60405180910390f35b3480156100d857600080fd5b506100f360048036038101906100ee9190610b1c565b61033f565b6040516101009190610b77565b60405180910390f35b34801561011557600080fd5b5061011e610431565b60405161012b9190610ba1565b60405180910390f35b34801561014057600080fd5b5061015b60048036038101906101569190610bbc565b610437565b6040516101689190610b77565b60405180910390f35b34801561017d57600080fd5b5061019860048036038101906101939190610c0f565b6105df565b005b3480156101a657600080fd5b506101af610633565b6040516101bc9190610c58565b60405180910390f35b3480156101d157600080fd5b506101ec60048036038101906101e79190610c73565b610646565b6040516101f99190610ba1565b60405180910390f35b34801561020e57600080fd5b5061021761065e565b6040516102249190610a61565b60405180910390f35b34801561023957600080fd5b50610254600480360381019061024f9190610b1c565b6106ec565b6040516102619190610b77565b60405180910390f35b610272610800565b005b34801561028057600080fd5b5061029b60048036038101906102969190610ca0565b61080c565b6040516102a89190610ba1565b60405180910390f35b600080546102be90610d0f565b80601f01602080910402602001604051908101604052809291908181526020018280546102ea90610d0f565b80156103375780601f1061030c57610100808354040283529160200191610337565b820191906000526020600020905b81548152906001019060200180831161031a57829003601f168201915b505050505081565b600081600560003373ffffffffffffffffffffffffffffffffffffffff1673ffffffffffffffffffffffffffffffffffffffff16815260200190815260200160002060008573ffffffffffffffffffffffffffffffffffffffff1673ffffffffffffffffffffffffffffffffffffffff168152602001908152602001600020819055508273ffffffffffffffffffffffffffffffffffffffff163373ffffffffffffffffffffffffffffffffffffffff167f8c5be1e5ebec7d5bd14f71427d1e84f3dd0314c0f7b2291e5b200ac8c7c3b9258460405161041f9190610ba1565b60405180910390a36001905092915050565b60035481565b600081600560008673ffffffffffffffffffffffffffffffffffffffff1673ffffffffffffffffffffffffffffffffffffffff16815260200190815260200160002060003373ffffffffffffffffffffffffffffffffffffffff1673ffffffffffffffffffffffffffffffffffffffff16815260200190815260200160002060008282546104c59190610d6f565b9250508190555081600460008673ffffffffffffffffffffffffffffffffffffffff1673ffffffffffffffffffffffffffffffffffffffff168152602001908152602001600020600082825461051b9190610d6f565b9250508190555081600460008573ffffffffffffffffffffffffffffffffffffffff1673ffffffffffffffffffffffffffffffffffffffff168152602001908152602001600020600082825401925050819055508273ffffffffffffffffffffffffffffffffffffffff168473ffffffffffffffffffffffffffffffffffffffff167fddf252ad1be2c89b69c2b068fc378daa952ba7f163c4a11628f55a4df523b3ef846040516105cc9190610ba1565b60405180910390a3600190509392505050565b6105e93382610831565b3373ffffffffffffffffffffffffffffffffffffffff166108fc829081150290604051600060405180830381858888f1935050505015801561062f573d6000803e3d6000fd5b5050565b600260009054906101000a900460ff1681565b60046020528060005260406000206000915090505481565b6001805461066b90610d0f565b80601f016020809104026020016040519081016040528092919081815260200182805461069790610d0f565b80156106e45780601f106106b9576101008083540402835291602001916106e4565b820191906000526020600020905b8154815290600101906020018083116106c757829003601f168201915b505050505081565b600081600460003373ffffffffffffffffffffffffffffffffffffffff1673ffffffffffffffffffffffffffffffffffffffff168152602001908152602001600020600082825461073d9190610d6f565b9250508190555081600460008573ffffffffffffffffffffffffffffffffffffffff1673ffffffffffffffffffffffffffffffffffffffff168152602001908152602001600020600082825401925050819055508273ffffffffffffffffffffffffffffffffffffffff163373ffffffffffffffffffffffffffffffffffffffff167fddf252ad1be2c89b69c2b068fc378daa952ba7f163c4a11628f55a4df523b3ef846040516107ee9190610ba1565b60405180910390a36001905092915050565b61080a3334610901565b565b6005602052816000526040600020602052806000526040600020600091509150505481565b80600460008473ffffffffffffffffffffffffffffffffffffffff1673ffffffffffffffffffffffffffffffffffffffff16815260200190815260200160002060008282546108809190610d6f565b9250508190555080600360008282540392505081905550600073ffffffffffffffffffffffffffffffffffffffff168273ffffffffffffffffffffffffffffffffffffffff167fddf252ad1be2c89b69c2b068fc378daa952ba7f163c4a11628f55a4df523b3ef836040516108f59190610ba1565b60405180910390a35050565b80600360008282546109139190610da3565b9250508190555080600460008473ffffffffffffffffffffffffffffffffffffffff1673ffffffffffffffffffffffffffffffffffffffff168152602001908152602001600020600082825401925050819055508173ffffffffffffffffffffffffffffffffffffffff16600073ffffffffffffffffffffffffffffffffffffffff167fddf252ad1be2c89b69c2b068fc378daa952ba7f163c4a11628f55a4df523b3ef836040516109c59190610ba1565b60405180910390a35050565b600081519050919050565b600082825260208201905092915050565b60005b83811015610a0b5780820151818401526020810190506109f0565b60008484015250505050565b6000601f19601f8301169050919050565b6000610a33826109d1565b610a3d81856109dc565b9350610a4d8185602086016109ed565b610a5681610a17565b840191505092915050565b60006020820190508181036000830152610a7b8184610a28565b905092915050565b600080fd5b600073ffffffffffffffffffffffffffffffffffffffff82169050919050565b6000610ab382610a88565b9050919050565b610ac381610aa8565b8114610ace57600080fd5b50565b600081359050610ae081610aba565b92915050565b6000819050919050565b610af981610ae6565b8114610b0457600080fd5b50565b600081359050610b1681610af0565b92915050565b60008060408385031215610b3357610b32610a83565b5b6000610b4185828601610ad1565b9250506020610b5285828601610b07565b9150509250929050565b60008115159050919050565b610b7181610b5c565b82525050565b6000602082019050610b8c6000830184610b68565b92915050565b610b9b81610ae6565b82525050565b6000602082019050610bb66000830184610b92565b92915050565b600080600060608486031215610bd557610bd4610a83565b5b6000610be386828701610ad1565b9350506020610bf486828701610ad1565b9250506040610c0586828701610b07565b9150509250925092565b600060208284031215610c2557610c24610a83565b5b6000610c3384828501610b07565b91505092915050565b600060ff82169050919050565b610c5281610c3c565b82525050565b6000602082019050610c6d6000830184610c49565b92915050565b600060208284031215610c8957610c88610a83565b5b6000610c9784828501610ad1565b91505092915050565b60008060408385031215610cb757610cb6610a83565b5b6000610cc585828601610ad1565b9250506020610cd685828601610ad1565b9150509250929050565b7f4e487b7100000000000000000000000000000000000000000000000000000000600052602260045260246000fd5b60006002820490506001821680610d2757607f821691505b602082108103610d3a57610d39610ce0565b5b50919050565b7f4e487b7100000000000000000000000000000000000000000000000000000000600052601160045260246000fd5b6000610d7a82610ae6565b9150610d8583610ae6565b9250828203905081811115610d9d57610d9c610d40565b5b92915050565b6000610dae82610ae6565b9150610db983610ae6565b9250828201905080821115610dd157610dd0610d40565b5b9291505056fea26469706673582212207a53d0a8ed5a9ae0964e94b88348a26ded7542a6cee054525d5321b8070b26be64736f6c63430008120033a264697066735822122092feae55011d517e4442d04c41fad942903f490ed624b1a495cde34a470c92b464736f6c63430008120033",
					"opcodes": "PUSH1 0x80 PUSH1 0x40 MSTORE CALLVALUE DUP1 ISZERO PUSH2 0x10 JUMPI PUSH1 0x0 DUP1 REVERT JUMPDEST POP PUSH2 0x1B2B DUP1 PUSH2 0x20 PUSH1 0x0 CODECOPY PUSH1 0x0 RETURN INVALID PUSH1 0x80 PUSH1 0x40 MSTORE CALLVALUE DUP1 ISZERO PUSH3 0x11 JUMPI PUSH1 0x0 DUP1 REVERT JUMPDEST POP PUSH1 0x4 CALLDATASIZE LT PUSH3 0x46 JUMPI PUSH1 0x0 CALLDATALOAD PUSH1 0xE0 SHR DUP1 PUSH4 0x6331E7D4 EQ PUSH3 0x4B JUMPI DUP1 PUSH4 0xA511EB2C EQ PUSH3 0x57 JUMPI DUP1 PUSH4 0xAED8774B EQ PUSH3 0x79 JUMPI JUMPDEST PUSH1 0x0 DUP1 REVERT JUMPDEST PUSH3 0x55 PUSH3 0x9B JUMP JUMPDEST STOP JUMPDEST PUSH3 0x61 PUSH3 0x108 JUMP JUMPDEST PUSH1 0x40 MLOAD PUSH3 0x70 SWAP2 SWAP1 PUSH3 0x3B5 JUMP JUMPDEST PUSH1 0x40 MLOAD DUP1 SWAP2 SUB SWAP1 RETURN JUMPDEST PUSH3 0x83 PUSH3 0x220 JUMP JUMPDEST PUSH1 0x40 MLOAD PUSH3 0x92 SWAP2 SWAP1 PUSH3 0x3B5 JUMP JUMPDEST PUSH1 0x40 MLOAD DUP1 SWAP2 SUB SWAP1 RETURN JUMPDEST PUSH1 0x40 MLOAD PUSH3 0xA9 SWAP1 PUSH3 0x38A JUMP JUMPDEST PUSH1 0x40 MLOAD DUP1 SWAP2 SUB SWAP1 PUSH1 0x0 CREATE DUP1 ISZERO DUP1 ISZERO PUSH3 0xC6 JUMPI RETURNDATASIZE PUSH1 0x0 DUP1 RETURNDATACOPY RETURNDATASIZE PUSH1 0x0 REVERT JUMPDEST POP PUSH1 0x0 DUP1 PUSH2 0x100 EXP DUP2 SLOAD DUP2 PUSH20 0xFFFFFFFFFFFFFFFFFFFFFFFFFFFFFFFFFFFFFFFF MUL NOT AND SWAP1 DUP4 PUSH20 0xFFFFFFFFFFFFFFFFFFFFFFFFFFFFFFFFFFFFFFFF AND MUL OR SWAP1 SSTORE POP JUMP JUMPDEST PUSH1 0x0 PUSH20 0x0 PUSH4 0xABCD7960 PUSH1 0x0 DUP1 SLOAD SWAP1 PUSH2 0x100 EXP SWAP1 DIV PUSH20 0xFFFFFFFFFFFFFFFFFFFFFFFFFFFFFFFFFFFFFFFF AND PUSH20 0xFFFFFFFFFFFFFFFFFFFFFFFFFFFFFFFFFFFFFFFF AND PUSH4 0x18160DDD PUSH1 0x40 MLOAD DUP2 PUSH4 0xFFFFFFFF AND PUSH1 0xE0 SHL DUP2 MSTORE PUSH1 0x4 ADD PUSH1 0x20 PUSH1 0x40 MLOAD DUP1 DUP4 SUB DUP2 DUP7 GAS STATICCALL ISZERO DUP1 ISZERO PUSH3 0x190 JUMPI RETURNDATASIZE PUSH1 0x0 DUP1 RETURNDATACOPY RETURNDATASIZE PUSH1 0x0 REVERT JUMPDEST POP POP POP POP PUSH1 0x40 MLOAD RETURNDATASIZE PUSH1 0x1F NOT PUSH1 0x1F DUP3 ADD AND DUP3 ADD DUP1 PUSH1 0x40 MSTORE POP DUP2 ADD SWAP1 PUSH3 0x1B6 SWAP2 SWAP1 PUSH3 0x421 JUMP JUMPDEST PUSH1 0x0 PUSH1 0x40 MLOAD DUP4 PUSH4 0xFFFFFFFF AND PUSH1 0xE0 SHL DUP2 MSTORE PUSH1 0x4 ADD PUSH3 0x1D7 SWAP3 SWAP2 SWAP1 PUSH3 0x512 JUMP JUMPDEST PUSH1 0x20 PUSH1 0x40 MLOAD DUP1 DUP4 SUB DUP2 DUP7 GAS DELEGATECALL ISZERO DUP1 ISZERO PUSH3 0x1F5 JUMPI RETURNDATASIZE PUSH1 0x0 DUP1 RETURNDATACOPY RETURNDATASIZE PUSH1 0x0 REVERT JUMPDEST POP POP POP POP PUSH1 0x40 MLOAD RETURNDATASIZE PUSH1 0x1F NOT PUSH1 0x1F DUP3 ADD AND DUP3 ADD DUP1 PUSH1 0x40 MSTORE POP DUP2 ADD SWAP1 PUSH3 0x21B SWAP2 SWAP1 PUSH3 0x585 JUMP JUMPDEST SWAP1 POP SWAP1 JUMP JUMPDEST PUSH1 0x0 PUSH20 0x0 PUSH4 0xEA79DD79 PUSH1 0x0 DUP1 SLOAD SWAP1 PUSH2 0x100 EXP SWAP1 DIV PUSH20 0xFFFFFFFFFFFFFFFFFFFFFFFFFFFFFFFFFFFFFFFF AND PUSH20 0xFFFFFFFFFFFFFFFFFFFFFFFFFFFFFFFFFFFFFFFF AND PUSH4 0x95D89B41 PUSH1 0x40 MLOAD DUP2 PUSH4 0xFFFFFFFF AND PUSH1 0xE0 SHL DUP2 MSTORE PUSH1 0x4 ADD PUSH1 0x0 PUSH1 0x40 MLOAD DUP1 DUP4 SUB DUP2 DUP7 GAS STATICCALL ISZERO DUP1 ISZERO PUSH3 0x2A8 JUMPI RETURNDATASIZE PUSH1 0x0 DUP1 RETURNDATACOPY RETURNDATASIZE PUSH1 0x0 REVERT JUMPDEST POP POP POP POP PUSH1 0x40 MLOAD RETURNDATASIZE PUSH1 0x0 DUP3 RETURNDATACOPY RETURNDATASIZE PUSH1 0x1F NOT PUSH1 0x1F DUP3 ADD AND DUP3 ADD DUP1 PUSH1 0x40 MSTORE POP DUP2 ADD SWAP1 PUSH3 0x2D3 SWAP2 SWAP1 PUSH3 0x736 JUMP JUMPDEST PUSH1 0x40 MLOAD PUSH1 0x20 ADD PUSH3 0x2E5 SWAP2 SWAP1 PUSH3 0x7D4 JUMP JUMPDEST PUSH1 0x40 MLOAD PUSH1 0x20 DUP2 DUP4 SUB SUB DUP2 MSTORE SWAP1 PUSH1 0x40 MSTORE DUP1 MLOAD SWAP1 PUSH1 0x20 ADD KECCAK256 PUSH1 0x40 MLOAD PUSH1 0x20 ADD PUSH3 0x30C SWAP1 PUSH3 0x83D JUMP JUMPDEST PUSH1 0x40 MLOAD PUSH1 0x20 DUP2 DUP4 SUB SUB DUP2 MSTORE SWAP1 PUSH1 0x40 MSTORE DUP1 MLOAD SWAP1 PUSH1 0x20 ADD KECCAK256 PUSH1 0x40 MLOAD DUP4 PUSH4 0xFFFFFFFF AND PUSH1 0xE0 SHL DUP2 MSTORE PUSH1 0x4 ADD PUSH3 0x341 SWAP3 SWAP2 SWAP1 PUSH3 0x86F JUMP JUMPDEST PUSH1 0x20 PUSH1 0x40 MLOAD DUP1 DUP4 SUB DUP2 DUP7 GAS DELEGATECALL ISZERO DUP1 ISZERO PUSH3 0x35F JUMPI RETURNDATASIZE PUSH1 0x0 DUP1 RETURNDATACOPY RETURNDATASIZE PUSH1 0x0 REVERT JUMPDEST POP POP POP POP PUSH1 0x40 MLOAD RETURNDATASIZE PUSH1 0x1F NOT PUSH1 0x1F DUP3 ADD AND DUP3 ADD DUP1 PUSH1 0x40 MSTORE POP DUP2 ADD SWAP1 PUSH3 0x385 SWAP2 SWAP1 PUSH3 0x585 JUMP JUMPDEST SWAP1 POP SWAP1 JUMP JUMPDEST PUSH2 0x1244 DUP1 PUSH3 0x8B2 DUP4 CODECOPY ADD SWAP1 JUMP JUMPDEST PUSH1 0x0 DUP2 ISZERO ISZERO SWAP1 POP SWAP2 SWAP1 POP JUMP JUMPDEST PUSH3 0x3AF DUP2 PUSH3 0x398 JUMP JUMPDEST DUP3 MSTORE POP POP JUMP JUMPDEST PUSH1 0x0 PUSH1 0x20 DUP3 ADD SWAP1 POP PUSH3 0x3CC PUSH1 0x0 DUP4 ADD DUP5 PUSH3 0x3A4 JUMP JUMPDEST SWAP3 SWAP2 POP POP JUMP JUMPDEST PUSH1 0x0 PUSH1 0x40 MLOAD SWAP1 POP SWAP1 JUMP JUMPDEST PUSH1 0x0 DUP1 REVERT JUMPDEST PUSH1 0x0 DUP1 REVERT JUMPDEST PUSH1 0x0 DUP2 SWAP1 POP SWAP2 SWAP1 POP JUMP JUMPDEST PUSH3 0x3FB DUP2 PUSH3 0x3E6 JUMP JUMPDEST DUP2 EQ PUSH3 0x407 JUMPI PUSH1 0x0 DUP1 REVERT JUMPDEST POP JUMP JUMPDEST PUSH1 0x0 DUP2 MLOAD SWAP1 POP PUSH3 0x41B DUP2 PUSH3 0x3F0 JUMP JUMPDEST SWAP3 SWAP2 POP POP JUMP JUMPDEST PUSH1 0x0 PUSH1 0x20 DUP3 DUP5 SUB SLT ISZERO PUSH3 0x43A JUMPI PUSH3 0x439 PUSH3 0x3DC JUMP JUMPDEST JUMPDEST PUSH1 0x0 PUSH3 0x44A DUP5 DUP3 DUP6 ADD PUSH3 0x40A JUMP JUMPDEST SWAP2 POP POP SWAP3 SWAP2 POP POP JUMP JUMPDEST PUSH3 0x45E DUP2 PUSH3 0x3E6 JUMP JUMPDEST DUP3 MSTORE POP POP JUMP JUMPDEST PUSH1 0x0 DUP2 SWAP1 POP SWAP2 SWAP1 POP JUMP JUMPDEST PUSH1 0x0 DUP2 SWAP1 POP SWAP2 SWAP1 POP JUMP JUMPDEST PUSH1 0x0 PUSH3 0x499 PUSH3 0x493 PUSH3 0x48D DUP5 PUSH3 0x464 JUMP JUMPDEST PUSH3 0x46E JUMP JUMPDEST PUSH3 0x3E6 JUMP JUMPDEST SWAP1 POP SWAP2 SWAP1 POP JUMP JUMPDEST PUSH3 0x4AB DUP2 PUSH3 0x478 JUMP JUMPDEST DUP3 MSTORE POP POP JUMP JUMPDEST PUSH1 0x0 DUP3 DUP3 MSTORE PUSH1 0x20 DUP3 ADD SWAP1 POP SWAP3 SWAP2 POP POP JUMP JUMPDEST PUSH32 0x696E697469616C2076616C7565206973206E6F7420636F727265637400000000 PUSH1 0x0 DUP3 ADD MSTORE POP JUMP JUMPDEST PUSH1 0x0 PUSH3 0x4FA PUSH1 0x1C DUP4 PUSH3 0x4B1 JUMP JUMPDEST SWAP2 POP PUSH3 0x507 DUP3 PUSH3 0x4C2 JUMP JUMPDEST PUSH1 0x20 DUP3 ADD SWAP1 POP SWAP2 SWAP1 POP JUMP JUMPDEST PUSH1 0x0 PUSH1 0x60 DUP3 ADD SWAP1 POP PUSH3 0x529 PUSH1 0x0 DUP4 ADD DUP6 PUSH3 0x453 JUMP JUMPDEST PUSH3 0x538 PUSH1 0x20 DUP4 ADD DUP5 PUSH3 0x4A0 JUMP JUMPDEST DUP2 DUP2 SUB PUSH1 0x40 DUP4 ADD MSTORE PUSH3 0x54B DUP2 PUSH3 0x4EB JUMP JUMPDEST SWAP1 POP SWAP4 SWAP3 POP POP POP JUMP JUMPDEST PUSH3 0x55F DUP2 PUSH3 0x398 JUMP JUMPDEST DUP2 EQ PUSH3 0x56B JUMPI PUSH1 0x0 DUP1 REVERT JUMPDEST POP JUMP JUMPDEST PUSH1 0x0 DUP2 MLOAD SWAP1 POP PUSH3 0x57F DUP2 PUSH3 0x554 JUMP JUMPDEST SWAP3 SWAP2 POP POP JUMP JUMPDEST PUSH1 0x0 PUSH1 0x20 DUP3 DUP5 SUB SLT ISZERO PUSH3 0x59E JUMPI PUSH3 0x59D PUSH3 0x3DC JUMP JUMPDEST JUMPDEST PUSH1 0x0 PUSH3 0x5AE DUP5 DUP3 DUP6 ADD PUSH3 0x56E JUMP JUMPDEST SWAP2 POP POP SWAP3 SWAP2 POP POP JUMP JUMPDEST PUSH1 0x0 DUP1 REVERT JUMPDEST PUSH1 0x0 DUP1 REVERT JUMPDEST PUSH1 0x0 PUSH1 0x1F NOT PUSH1 0x1F DUP4 ADD AND SWAP1 POP SWAP2 SWAP1 POP JUMP JUMPDEST PUSH32 0x4E487B7100000000000000000000000000000000000000000000000000000000 PUSH1 0x0 MSTORE PUSH1 0x41 PUSH1 0x4 MSTORE PUSH1 0x24 PUSH1 0x0 REVERT JUMPDEST PUSH3 0x60C DUP3 PUSH3 0x5C1 JUMP JUMPDEST DUP2 ADD DUP2 DUP2 LT PUSH8 0xFFFFFFFFFFFFFFFF DUP3 GT OR ISZERO PUSH3 0x62E JUMPI PUSH3 0x62D PUSH3 0x5D2 JUMP JUMPDEST JUMPDEST DUP1 PUSH1 0x40 MSTORE POP POP POP JUMP JUMPDEST PUSH1 0x0 PUSH3 0x643 PUSH3 0x3D2 JUMP JUMPDEST SWAP1 POP PUSH3 0x651 DUP3 DUP3 PUSH3 0x601 JUMP JUMPDEST SWAP2 SWAP1 POP JUMP JUMPDEST PUSH1 0x0 PUSH8 0xFFFFFFFFFFFFFFFF DUP3 GT ISZERO PUSH3 0x674 JUMPI PUSH3 0x673 PUSH3 0x5D2 JUMP JUMPDEST JUMPDEST PUSH3 0x67F DUP3 PUSH3 0x5C1 JUMP JUMPDEST SWAP1 POP PUSH1 0x20 DUP2 ADD SWAP1 POP SWAP2 SWAP1 POP JUMP JUMPDEST PUSH1 0x0 JUMPDEST DUP4 DUP2 LT ISZERO PUSH3 0x6AC JUMPI DUP1 DUP3 ADD MLOAD DUP2 DUP5 ADD MSTORE PUSH1 0x20 DUP2 ADD SWAP1 POP PUSH3 0x68F JUMP JUMPDEST PUSH1 0x0 DUP5 DUP5 ADD MSTORE POP POP POP POP JUMP JUMPDEST PUSH1 0x0 PUSH3 0x6CF PUSH3 0x6C9 DUP5 PUSH3 0x656 JUMP JUMPDEST PUSH3 0x637 JUMP JUMPDEST SWAP1 POP DUP3 DUP2 MSTORE PUSH1 0x20 DUP2 ADD DUP5 DUP5 DUP5 ADD GT ISZERO PUSH3 0x6EE JUMPI PUSH3 0x6ED PUSH3 0x5BC JUMP JUMPDEST JUMPDEST PUSH3 0x6FB DUP5 DUP3 DUP6 PUSH3 0x68C JUMP JUMPDEST POP SWAP4 SWAP3 POP POP POP JUMP JUMPDEST PUSH1 0x0 DUP3 PUSH1 0x1F DUP4 ADD SLT PUSH3 0x71B JUMPI PUSH3 0x71A PUSH3 0x5B7 JUMP JUMPDEST JUMPDEST DUP2 MLOAD PUSH3 0x72D DUP5 DUP3 PUSH1 0x20 DUP7 ADD PUSH3 0x6B8 JUMP JUMPDEST SWAP2 POP POP SWAP3 SWAP2 POP POP JUMP JUMPDEST PUSH1 0x0 PUSH1 0x20 DUP3 DUP5 SUB SLT ISZERO PUSH3 0x74F JUMPI PUSH3 0x74E PUSH3 0x3DC JUMP JUMPDEST JUMPDEST PUSH1 0x0 DUP3 ADD MLOAD PUSH8 0xFFFFFFFFFFFFFFFF DUP2 GT ISZERO PUSH3 0x770 JUMPI PUSH3 0x76F PUSH3 0x3E1 JUMP JUMPDEST JUMPDEST PUSH3 0x77E DUP5 DUP3 DUP6 ADD PUSH3 0x703 JUMP JUMPDEST SWAP2 POP POP SWAP3 SWAP2 POP POP JUMP JUMPDEST PUSH1 0x0 DUP2 MLOAD SWAP1 POP SWAP2 SWAP1 POP JUMP JUMPDEST PUSH1 0x0 DUP2 SWAP1 POP SWAP3 SWAP2 POP POP JUMP JUMPDEST PUSH1 0x0 PUSH3 0x7AA DUP3 PUSH3 0x787 JUMP JUMPDEST PUSH3 0x7B6 DUP2 DUP6 PUSH3 0x792 JUMP JUMPDEST SWAP4 POP PUSH3 0x7C8 DUP2 DUP6 PUSH1 0x20 DUP7 ADD PUSH3 0x68C JUMP JUMPDEST DUP1 DUP5 ADD SWAP2 POP POP SWAP3 SWAP2 POP POP JUMP JUMPDEST PUSH1 0x0 PUSH3 0x7E2 DUP3 DUP5 PUSH3 0x79D JUMP JUMPDEST SWAP2 POP DUP2 SWAP1 POP SWAP3 SWAP2 POP POP JUMP JUMPDEST PUSH32 0x5745544800000000000000000000000000000000000000000000000000000000 PUSH1 0x0 DUP3 ADD MSTORE POP JUMP JUMPDEST PUSH1 0x0 PUSH3 0x825 PUSH1 0x4 DUP4 PUSH3 0x792 JUMP JUMPDEST SWAP2 POP PUSH3 0x832 DUP3 PUSH3 0x7ED JUMP JUMPDEST PUSH1 0x4 DUP3 ADD SWAP1 POP SWAP2 SWAP1 POP JUMP JUMPDEST PUSH1 0x0 PUSH3 0x84A DUP3 PUSH3 0x816 JUMP JUMPDEST SWAP2 POP DUP2 SWAP1 POP SWAP2 SWAP1 POP JUMP JUMPDEST PUSH1 0x0 DUP2 SWAP1 POP SWAP2 SWAP1 POP JUMP JUMPDEST PUSH3 0x869 DUP2 PUSH3 0x854 JUMP JUMPDEST DUP3 MSTORE POP POP JUMP JUMPDEST PUSH1 0x0 PUSH1 0x60 DUP3 ADD SWAP1 POP PUSH3 0x886 PUSH1 0x0 DUP4 ADD DUP6 PUSH3 0x85E JUMP JUMPDEST PUSH3 0x895 PUSH1 0x20 DUP4 ADD DUP5 PUSH3 0x85E JUMP JUMPDEST DUP2 DUP2 SUB PUSH1 0x40 DUP4 ADD MSTORE PUSH3 0x8A8 DUP2 PUSH3 0x4EB JUMP JUMPDEST SWAP1 POP SWAP4 SWAP3 POP POP POP JUMP INVALID PUSH1 0x80 PUSH1 0x40 MSTORE CALLVALUE DUP1 ISZERO PUSH3 0x11 JUMPI PUSH1 0x0 DUP1 REVERT JUMPDEST POP PUSH1 0x40 MLOAD DUP1 PUSH1 0x40 ADD PUSH1 0x40 MSTORE DUP1 PUSH1 0x10 DUP2 MSTORE PUSH1 0x20 ADD PUSH32 0x5772617070656420457468657265756D00000000000000000000000000000000 DUP2 MSTORE POP PUSH1 0x40 MLOAD DUP1 PUSH1 0x40 ADD PUSH1 0x40 MSTORE DUP1 PUSH1 0x4 DUP2 MSTORE PUSH1 0x20 ADD PUSH32 0x5745544800000000000000000000000000000000000000000000000000000000 DUP2 MSTORE POP DUP2 PUSH1 0x0 SWAP1 DUP2 PUSH3 0x8F SWAP2 SWAP1 PUSH3 0x340 JUMP JUMPDEST POP DUP1 PUSH1 0x1 SWAP1 DUP2 PUSH3 0xA1 SWAP2 SWAP1 PUSH3 0x340 JUMP JUMPDEST POP PUSH1 0x12 PUSH1 0x2 PUSH1 0x0 PUSH2 0x100 EXP DUP2 SLOAD DUP2 PUSH1 0xFF MUL NOT AND SWAP1 DUP4 PUSH1 0xFF AND MUL OR SWAP1 SSTORE POP POP POP PUSH3 0x427 JUMP JUMPDEST PUSH1 0x0 DUP2 MLOAD SWAP1 POP SWAP2 SWAP1 POP JUMP JUMPDEST PUSH32 0x4E487B7100000000000000000000000000000000000000000000000000000000 PUSH1 0x0 MSTORE PUSH1 0x41 PUSH1 0x4 MSTORE PUSH1 0x24 PUSH1 0x0 REVERT JUMPDEST PUSH32 0x4E487B7100000000000000000000000000000000000000000000000000000000 PUSH1 0x0 MSTORE PUSH1 0x22 PUSH1 0x4 MSTORE PUSH1 0x24 PUSH1 0x0 REVERT JUMPDEST PUSH1 0x0 PUSH1 0x2 DUP3 DIV SWAP1 POP PUSH1 0x1 DUP3 AND DUP1 PUSH3 0x148 JUMPI PUSH1 0x7F DUP3 AND SWAP2 POP JUMPDEST PUSH1 0x20 DUP3 LT DUP2 SUB PUSH3 0x15E JUMPI PUSH3 0x15D PUSH3 0x100 JUMP JUMPDEST JUMPDEST POP SWAP2 SWAP1 POP JUMP JUMPDEST PUSH1 0x0 DUP2 SWAP1 POP DUP2 PUSH1 0x0 MSTORE PUSH1 0x20 PUSH1 0x0 KECCAK256 SWAP1 POP SWAP2 SWAP1 POP JUMP JUMPDEST PUSH1 0x0 PUSH1 0x20 PUSH1 0x1F DUP4 ADD DIV SWAP1 POP SWAP2 SWAP1 POP JUMP JUMPDEST PUSH1 0x0 DUP3 DUP3 SHL SWAP1 POP SWAP3 SWAP2 POP POP JUMP JUMPDEST PUSH1 0x0 PUSH1 0x8 DUP4 MUL PUSH3 0x1C8 PUSH32 0xFFFFFFFFFFFFFFFFFFFFFFFFFFFFFFFFFFFFFFFFFFFFFFFFFFFFFFFFFFFFFFFF DUP3 PUSH3 0x189 JUMP JUMPDEST PUSH3 0x1D4 DUP7 DUP4 PUSH3 0x189 JUMP JUMPDEST SWAP6 POP DUP1 NOT DUP5 AND SWAP4 POP DUP1 DUP7 AND DUP5 OR SWAP3 POP POP POP SWAP4 SWAP3 POP POP POP JUMP JUMPDEST PUSH1 0x0 DUP2 SWAP1 POP SWAP2 SWAP1 POP JUMP JUMPDEST PUSH1 0x0 DUP2 SWAP1 POP SWAP2 SWAP1 POP JUMP JUMPDEST PUSH1 0x0 PUSH3 0x221 PUSH3 0x21B PUSH3 0x215 DUP5 PUSH3 0x1EC JUMP JUMPDEST PUSH3 0x1F6 JUMP JUMPDEST PUSH3 0x1EC JUMP JUMPDEST SWAP1 POP SWAP2 SWAP1 POP JUMP JUMPDEST PUSH1 0x0 DUP2 SWAP1 POP SWAP2 SWAP1 POP JUMP JUMPDEST PUSH3 0x23D DUP4 PUSH3 0x200 JUMP JUMPDEST PUSH3 0x255 PUSH3 0x24C DUP3 PUSH3 0x228 JUMP JUMPDEST DUP5 DUP5 SLOAD PUSH3 0x196 JUMP JUMPDEST DUP3 SSTORE POP POP POP POP JUMP JUMPDEST PUSH1 0x0 SWAP1 JUMP JUMPDEST PUSH3 0x26C PUSH3 0x25D JUMP JUMPDEST PUSH3 0x279 DUP2 DUP5 DUP5 PUSH3 0x232 JUMP JUMPDEST POP POP POP JUMP JUMPDEST JUMPDEST DUP2 DUP2 LT ISZERO PUSH3 0x2A1 JUMPI PUSH3 0x295 PUSH1 0x0 DUP3 PUSH3 0x262 JUMP JUMPDEST PUSH1 0x1 DUP2 ADD SWAP1 POP PUSH3 0x27F JUMP JUMPDEST POP POP JUMP JUMPDEST PUSH1 0x1F DUP3 GT ISZERO PUSH3 0x2F0 JUMPI PUSH3 0x2BA DUP2 PUSH3 0x164 JUMP JUMPDEST PUSH3 0x2C5 DUP5 PUSH3 0x179 JUMP JUMPDEST DUP2 ADD PUSH1 0x20 DUP6 LT ISZERO PUSH3 0x2D5 JUMPI DUP2 SWAP1 POP JUMPDEST PUSH3 0x2ED PUSH3 0x2E4 DUP6 PUSH3 0x179 JUMP JUMPDEST DUP4 ADD DUP3 PUSH3 0x27E JUMP JUMPDEST POP POP JUMPDEST POP POP POP JUMP JUMPDEST PUSH1 0x0 DUP3 DUP3 SHR SWAP1 POP SWAP3 SWAP2 POP POP JUMP JUMPDEST PUSH1 0x0 PUSH3 0x315 PUSH1 0x0 NOT DUP5 PUSH1 0x8 MUL PUSH3 0x2F5 JUMP JUMPDEST NOT DUP1 DUP4 AND SWAP2 POP POP SWAP3 SWAP2 POP POP JUMP JUMPDEST PUSH1 0x0 PUSH3 0x330 DUP4 DUP4 PUSH3 0x302 JUMP JUMPDEST SWAP2 POP DUP3 PUSH1 0x2 MUL DUP3 OR SWAP1 POP SWAP3 SWAP2 POP POP JUMP JUMPDEST PUSH3 0x34B DUP3 PUSH3 0xC6 JUMP JUMPDEST PUSH8 0xFFFFFFFFFFFFFFFF DUP2 GT ISZERO PUSH3 0x367 JUMPI PUSH3 0x366 PUSH3 0xD1 JUMP JUMPDEST JUMPDEST PUSH3 0x373 DUP3 SLOAD PUSH3 0x12F JUMP JUMPDEST PUSH3 0x380 DUP3 DUP3 DUP6 PUSH3 0x2A5 JUMP JUMPDEST PUSH1 0x0 PUSH1 0x20 SWAP1 POP PUSH1 0x1F DUP4 GT PUSH1 0x1 DUP2 EQ PUSH3 0x3B8 JUMPI PUSH1 0x0 DUP5 ISZERO PUSH3 0x3A3 JUMPI DUP3 DUP8 ADD MLOAD SWAP1 POP JUMPDEST PUSH3 0x3AF DUP6 DUP3 PUSH3 0x322 JUMP JUMPDEST DUP7 SSTORE POP PUSH3 0x41F JUMP JUMPDEST PUSH1 0x1F NOT DUP5 AND PUSH3 0x3C8 DUP7 PUSH3 0x164 JUMP JUMPDEST PUSH1 0x0 JUMPDEST DUP3 DUP2 LT ISZERO PUSH3 0x3F2 JUMPI DUP5 DUP10 ADD MLOAD DUP3 SSTORE PUSH1 0x1 DUP3 ADD SWAP2 POP PUSH1 0x20 DUP6 ADD SWAP5 POP PUSH1 0x20 DUP2 ADD SWAP1 POP PUSH3 0x3CB JUMP JUMPDEST DUP7 DUP4 LT ISZERO PUSH3 0x412 JUMPI DUP5 DUP10 ADD MLOAD PUSH3 0x40E PUSH1 0x1F DUP10 AND DUP3 PUSH3 0x302 JUMP JUMPDEST DUP4 SSTORE POP JUMPDEST PUSH1 0x1 PUSH1 0x2 DUP9 MUL ADD DUP9 SSTORE POP POP POP JUMPDEST POP POP POP POP POP POP JUMP JUMPDEST PUSH2 0xE0D DUP1 PUSH3 0x437 PUSH1 0x0 CODECOPY PUSH1 0x0 RETURN INVALID PUSH1 0x80 PUSH1 0x40 MSTORE PUSH1 0x4 CALLDATASIZE LT PUSH2 0x9C JUMPI PUSH1 0x0 CALLDATALOAD PUSH1 0xE0 SHR DUP1 PUSH4 0x313CE567 GT PUSH2 0x64 JUMPI DUP1 PUSH4 0x313CE567 EQ PUSH2 0x19A JUMPI DUP1 PUSH4 0x70A08231 EQ PUSH2 0x1C5 JUMPI DUP1 PUSH4 0x95D89B41 EQ PUSH2 0x202 JUMPI DUP1 PUSH4 0xA9059CBB EQ PUSH2 0x22D JUMPI DUP1 PUSH4 0xD0E30DB0 EQ PUSH2 0x26A JUMPI DUP1 PUSH4 0xDD62ED3E EQ PUSH2 0x274 JUMPI PUSH2 0x9C JUMP JUMPDEST DUP1 PUSH4 0x6FDDE03 EQ PUSH2 0xA1 JUMPI DUP1 PUSH4 0x95EA7B3 EQ PUSH2 0xCC JUMPI DUP1 PUSH4 0x18160DDD EQ PUSH2 0x109 JUMPI DUP1 PUSH4 0x23B872DD EQ PUSH2 0x134 JUMPI DUP1 PUSH4 0x2E1A7D4D EQ PUSH2 0x171 JUMPI JUMPDEST PUSH1 0x0 DUP1 REVERT JUMPDEST CALLVALUE DUP1 ISZERO PUSH2 0xAD JUMPI PUSH1 0x0 DUP1 REVERT JUMPDEST POP PUSH2 0xB6 PUSH2 0x2B1 JUMP JUMPDEST PUSH1 0x40 MLOAD PUSH2 0xC3 SWAP2 SWAP1 PUSH2 0xA61 JUMP JUMPDEST PUSH1 0x40 MLOAD DUP1 SWAP2 SUB SWAP1 RETURN JUMPDEST CALLVALUE DUP1 ISZERO PUSH2 0xD8 JUMPI PUSH1 0x0 DUP1 REVERT JUMPDEST POP PUSH2 0xF3 PUSH1 0x4 DUP1 CALLDATASIZE SUB DUP2 ADD SWAP1 PUSH2 0xEE SWAP2 SWAP1 PUSH2 0xB1C JUMP JUMPDEST PUSH2 0x33F JUMP JUMPDEST PUSH1 0x40 MLOAD PUSH2 0x100 SWAP2 SWAP1 PUSH2 0xB77 JUMP JUMPDEST PUSH1 0x40 MLOAD DUP1 SWAP2 SUB SWAP1 RETURN JUMPDEST CALLVALUE DUP1 ISZERO PUSH2 0x115 JUMPI PUSH1 0x0 DUP1 REVERT JUMPDEST POP PUSH2 0x11E PUSH2 0x431 JUMP JUMPDEST PUSH1 0x40 MLOAD PUSH2 0x12B SWAP2 SWAP1 PUSH2 0xBA1 JUMP JUMPDEST PUSH1 0x40 MLOAD DUP1 SWAP2 SUB SWAP1 RETURN JUMPDEST CALLVALUE DUP1 ISZERO PUSH2 0x140 JUMPI PUSH1 0x0 DUP1 REVERT JUMPDEST POP PUSH2 0x15B PUSH1 0x4 DUP1 CALLDATASIZE SUB DUP2 ADD SWAP1 PUSH2 0x156 SWAP2 SWAP1 PUSH2 0xBBC JUMP JUMPDEST PUSH2 0x437 JUMP JUMPDEST PUSH1 0x40 MLOAD PUSH2 0x168 SWAP2 SWAP1 PUSH2 0xB77 JUMP JUMPDEST PUSH1 0x40 MLOAD DUP1 SWAP2 SUB SWAP1 RETURN JUMPDEST CALLVALUE DUP1 ISZERO PUSH2 0x17D JUMPI PUSH1 0x0 DUP1 REVERT JUMPDEST POP PUSH2 0x198 PUSH1 0x4 DUP1 CALLDATASIZE SUB DUP2 ADD SWAP1 PUSH2 0x193 SWAP2 SWAP1 PUSH2 0xC0F JUMP JUMPDEST PUSH2 0x5DF JUMP JUMPDEST STOP JUMPDEST CALLVALUE DUP1 ISZERO PUSH2 0x1A6 JUMPI PUSH1 0x0 DUP1 REVERT JUMPDEST POP PUSH2 0x1AF PUSH2 0x633 JUMP JUMPDEST PUSH1 0x40 MLOAD PUSH2 0x1BC SWAP2 SWAP1 PUSH2 0xC58 JUMP JUMPDEST PUSH1 0x40 MLOAD DUP1 SWAP2 SUB SWAP1 RETURN JUMPDEST CALLVALUE DUP1 ISZERO PUSH2 0x1D1 JUMPI PUSH1 0x0 DUP1 REVERT JUMPDEST POP PUSH2 0x1EC PUSH1 0x4 DUP1 CALLDATASIZE SUB DUP2 ADD SWAP1 PUSH2 0x1E7 SWAP2 SWAP1 PUSH2 0xC73 JUMP JUMPDEST PUSH2 0x646 JUMP JUMPDEST PUSH1 0x40 MLOAD PUSH2 0x1F9 SWAP2 SWAP1 PUSH2 0xBA1 JUMP JUMPDEST PUSH1 0x40 MLOAD DUP1 SWAP2 SUB SWAP1 RETURN JUMPDEST CALLVALUE DUP1 ISZERO PUSH2 0x20E JUMPI PUSH1 0x0 DUP1 REVERT JUMPDEST POP PUSH2 0x217 PUSH2 0x65E JUMP JUMPDEST PUSH1 0x40 MLOAD PUSH2 0x224 SWAP2 SWAP1 PUSH2 0xA61 JUMP JUMPDEST PUSH1 0x40 MLOAD DUP1 SWAP2 SUB SWAP1 RETURN JUMPDEST CALLVALUE DUP1 ISZERO PUSH2 0x239 JUMPI PUSH1 0x0 DUP1 REVERT JUMPDEST POP PUSH2 0x254 PUSH1 0x4 DUP1 CALLDATASIZE SUB DUP2 ADD SWAP1 PUSH2 0x24F SWAP2 SWAP1 PUSH2 0xB1C JUMP JUMPDEST PUSH2 0x6EC JUMP JUMPDEST PUSH1 0x40 MLOAD PUSH2 0x261 SWAP2 SWAP1 PUSH2 0xB77 JUMP JUMPDEST PUSH1 0x40 MLOAD DUP1 SWAP2 SUB SWAP1 RETURN JUMPDEST PUSH2 0x272 PUSH2 0x800 JUMP JUMPDEST STOP JUMPDEST CALLVALUE DUP1 ISZERO PUSH2 0x280 JUMPI PUSH1 0x0 DUP1 REVERT JUMPDEST POP PUSH2 0x29B PUSH1 0x4 DUP1 CALLDATASIZE SUB DUP2 ADD SWAP1 PUSH2 0x296 SWAP2 SWAP1 PUSH2 0xCA0 JUMP JUMPDEST PUSH2 0x80C JUMP JUMPDEST PUSH1 0x40 MLOAD PUSH2 0x2A8 SWAP2 SWAP1 PUSH2 0xBA1 JUMP JUMPDEST PUSH1 0x40 MLOAD DUP1 SWAP2 SUB SWAP1 RETURN JUMPDEST PUSH1 0x0 DUP1 SLOAD PUSH2 0x2BE SWAP1 PUSH2 0xD0F JUMP JUMPDEST DUP1 PUSH1 0x1F ADD PUSH1 0x20 DUP1 SWAP2 DIV MUL PUSH1 0x20 ADD PUSH1 0x40 MLOAD SWAP1 DUP2 ADD PUSH1 0x40 MSTORE DUP1 SWAP3 SWAP2 SWAP1 DUP2 DUP2 MSTORE PUSH1 0x20 ADD DUP3 DUP1 SLOAD PUSH2 0x2EA SWAP1 PUSH2 0xD0F JUMP JUMPDEST DUP1 ISZERO PUSH2 0x337 JUMPI DUP1 PUSH1 0x1F LT PUSH2 0x30C JUMPI PUSH2 0x100 DUP1 DUP4 SLOAD DIV MUL DUP4 MSTORE SWAP2 PUSH1 0x20 ADD SWAP2 PUSH2 0x337 JUMP JUMPDEST DUP3 ADD SWAP2 SWAP1 PUSH1 0x0 MSTORE PUSH1 0x20 PUSH1 0x0 KECCAK256 SWAP1 JUMPDEST DUP2 SLOAD DUP2 MSTORE SWAP1 PUSH1 0x1 ADD SWAP1 PUSH1 0x20 ADD DUP1 DUP4 GT PUSH2 0x31A JUMPI DUP3 SWAP1 SUB PUSH1 0x1F AND DUP3 ADD SWAP2 JUMPDEST POP POP POP POP POP DUP2 JUMP JUMPDEST PUSH1 0x0 DUP2 PUSH1 0x5 PUSH1 0x0 CALLER PUSH20 0xFFFFFFFFFFFFFFFFFFFFFFFFFFFFFFFFFFFFFFFF AND PUSH20 0xFFFFFFFFFFFFFFFFFFFFFFFFFFFFFFFFFFFFFFFF AND DUP2 MSTORE PUSH1 0x20 ADD SWAP1 DUP2 MSTORE PUSH1 0x20 ADD PUSH1 0x0 KECCAK256 PUSH1 0x0 DUP6 PUSH20 0xFFFFFFFFFFFFFFFFFFFFFFFFFFFFFFFFFFFFFFFF AND PUSH20 0xFFFFFFFFFFFFFFFFFFFFFFFFFFFFFFFFFFFFFFFF AND DUP2 MSTORE PUSH1 0x20 ADD SWAP1 DUP2 MSTORE PUSH1 0x20 ADD PUSH1 0x0 KECCAK256 DUP2 SWAP1 SSTORE POP DUP3 PUSH20 0xFFFFFFFFFFFFFFFFFFFFFFFFFFFFFFFFFFFFFFFF AND CALLER PUSH20 0xFFFFFFFFFFFFFFFFFFFFFFFFFFFFFFFFFFFFFFFF AND PUSH32 0x8C5BE1E5EBEC7D5BD14F71427D1E84F3DD0314C0F7B2291E5B200AC8C7C3B925 DUP5 PUSH1 0x40 MLOAD PUSH2 0x41F SWAP2 SWAP1 PUSH2 0xBA1 JUMP JUMPDEST PUSH1 0x40 MLOAD DUP1 SWAP2 SUB SWAP1 LOG3 PUSH1 0x1 SWAP1 POP SWAP3 SWAP2 POP POP JUMP JUMPDEST PUSH1 0x3 SLOAD DUP2 JUMP JUMPDEST PUSH1 0x0 DUP2 PUSH1 0x5 PUSH1 0x0 DUP7 PUSH20 0xFFFFFFFFFFFFFFFFFFFFFFFFFFFFFFFFFFFFFFFF AND PUSH20 0xFFFFFFFFFFFFFFFFFFFFFFFFFFFFFFFFFFFFFFFF AND DUP2 MSTORE PUSH1 0x20 ADD SWAP1 DUP2 MSTORE PUSH1 0x20 ADD PUSH1 0x0 KECCAK256 PUSH1 0x0 CALLER PUSH20 0xFFFFFFFFFFFFFFFFFFFFFFFFFFFFFFFFFFFFFFFF AND PUSH20 0xFFFFFFFFFFFFFFFFFFFFFFFFFFFFFFFFFFFFFFFF AND DUP2 MSTORE PUSH1 0x20 ADD SWAP1 DUP2 MSTORE PUSH1 0x20 ADD PUSH1 0x0 KECCAK256 PUSH1 0x0 DUP3 DUP3 SLOAD PUSH2 0x4C5 SWAP2 SWAP1 PUSH2 0xD6F JUMP JUMPDEST SWAP3 POP POP DUP2 SWAP1 SSTORE POP DUP2 PUSH1 0x4 PUSH1 0x0 DUP7 PUSH20 0xFFFFFFFFFFFFFFFFFFFFFFFFFFFFFFFFFFFFFFFF AND PUSH20 0xFFFFFFFFFFFFFFFFFFFFFFFFFFFFFFFFFFFFFFFF AND DUP2 MSTORE PUSH1 0x20 ADD SWAP1 DUP2 MSTORE PUSH1 0x20 ADD PUSH1 0x0 KECCAK256 PUSH1 0x0 DUP3 DUP3 SLOAD PUSH2 0x51B SWAP2 SWAP1 PUSH2 0xD6F JUMP JUMPDEST SWAP3 POP POP DUP2 SWAP1 SSTORE POP DUP2 PUSH1 0x4 PUSH1 0x0 DUP6 PUSH20 0xFFFFFFFFFFFFFFFFFFFFFFFFFFFFFFFFFFFFFFFF AND PUSH20 0xFFFFFFFFFFFFFFFFFFFFFFFFFFFFFFFFFFFFFFFF AND DUP2 MSTORE PUSH1 0x20 ADD SWAP1 DUP2 MSTORE PUSH1 0x20 ADD PUSH1 0x0 KECCAK256 PUSH1 0x0 DUP3 DUP3 SLOAD ADD SWAP3 POP POP DUP2 SWAP1 SSTORE POP DUP3 PUSH20 0xFFFFFFFFFFFFFFFFFFFFFFFFFFFFFFFFFFFFFFFF AND DUP5 PUSH20 0xFFFFFFFFFFFFFFFFFFFFFFFFFFFFFFFFFFFFFFFF AND PUSH32 0xDDF252AD1BE2C89B69C2B068FC378DAA952BA7F163C4A11628F55A4DF523B3EF DUP5 PUSH1 0x40 MLOAD PUSH2 0x5CC SWAP2 SWAP1 PUSH2 0xBA1 JUMP JUMPDEST PUSH1 0x40 MLOAD DUP1 SWAP2 SUB SWAP1 LOG3 PUSH1 0x1 SWAP1 POP SWAP4 SWAP3 POP POP POP JUMP JUMPDEST PUSH2 0x5E9 CALLER DUP3 PUSH2 0x831 JUMP JUMPDEST CALLER PUSH20 0xFFFFFFFFFFFFFFFFFFFFFFFFFFFFFFFFFFFFFFFF AND PUSH2 0x8FC DUP3 SWAP1 DUP2 ISZERO MUL SWAP1 PUSH1 0x40 MLOAD PUSH1 0x0 PUSH1 0x40 MLOAD DUP1 DUP4 SUB DUP2 DUP6 DUP9 DUP9 CALL SWAP4 POP POP POP POP ISZERO DUP1 ISZERO PUSH2 0x62F JUMPI RETURNDATASIZE PUSH1 0x0 DUP1 RETURNDATACOPY RETURNDATASIZE PUSH1 0x0 REVERT JUMPDEST POP POP JUMP JUMPDEST PUSH1 0x2 PUSH1 0x0 SWAP1 SLOAD SWAP1 PUSH2 0x100 EXP SWAP1 DIV PUSH1 0xFF AND DUP2 JUMP JUMPDEST PUSH1 0x4 PUSH1 0x20 MSTORE DUP1 PUSH1 0x0 MSTORE PUSH1 0x40 PUSH1 0x0 KECCAK256 PUSH1 0x0 SWAP2 POP SWAP1 POP SLOAD DUP2 JUMP JUMPDEST PUSH1 0x1 DUP1 SLOAD PUSH2 0x66B SWAP1 PUSH2 0xD0F JUMP JUMPDEST DUP1 PUSH1 0x1F ADD PUSH1 0x20 DUP1 SWAP2 DIV MUL PUSH1 0x20 ADD PUSH1 0x40 MLOAD SWAP1 DUP2 ADD PUSH1 0x40 MSTORE DUP1 SWAP3 SWAP2 SWAP1 DUP2 DUP2 MSTORE PUSH1 0x20 ADD DUP3 DUP1 SLOAD PUSH2 0x697 SWAP1 PUSH2 0xD0F JUMP JUMPDEST DUP1 ISZERO PUSH2 0x6E4 JUMPI DUP1 PUSH1 0x1F LT PUSH2 0x6B9 JUMPI PUSH2 0x100 DUP1 DUP4 SLOAD DIV MUL DUP4 MSTORE SWAP2 PUSH1 0x20 ADD SWAP2 PUSH2 0x6E4 JUMP JUMPDEST DUP3 ADD SWAP2 SWAP1 PUSH1 0x0 MSTORE PUSH1 0x20 PUSH1 0x0 KECCAK256 SWAP1 JUMPDEST DUP2 SLOAD DUP2 MSTORE SWAP1 PUSH1 0x1 ADD SWAP1 PUSH1 0x20 ADD DUP1 DUP4 GT PUSH2 0x6C7 JUMPI DUP3 SWAP1 SUB PUSH1 0x1F AND DUP3 ADD SWAP2 JUMPDEST POP POP POP POP POP DUP2 JUMP JUMPDEST PUSH1 0x0 DUP2 PUSH1 0x4 PUSH1 0x0 CALLER PUSH20 0xFFFFFFFFFFFFFFFFFFFFFFFFFFFFFFFFFFFFFFFF AND PUSH20 0xFFFFFFFFFFFFFFFFFFFFFFFFFFFFFFFFFFFFFFFF AND DUP2 MSTORE PUSH1 0x20 ADD SWAP1 DUP2 MSTORE PUSH1 0x20 ADD PUSH1 0x0 KECCAK256 PUSH1 0x0 DUP3 DUP3 SLOAD PUSH2 0x73D SWAP2 SWAP1 PUSH2 0xD6F JUMP JUMPDEST SWAP3 POP POP DUP2 SWAP1 SSTORE POP DUP2 PUSH1 0x4 PUSH1 0x0 DUP6 PUSH20 0xFFFFFFFFFFFFFFFFFFFFFFFFFFFFFFFFFFFFFFFF AND PUSH20 0xFFFFFFFFFFFFFFFFFFFFFFFFFFFFFFFFFFFFFFFF AND DUP2 MSTORE PUSH1 0x20 ADD SWAP1 DUP2 MSTORE PUSH1 0x20 ADD PUSH1 0x0 KECCAK256 PUSH1 0x0 DUP3 DUP3 SLOAD ADD SWAP3 POP POP DUP2 SWAP1 SSTORE POP DUP3 PUSH20 0xFFFFFFFFFFFFFFFFFFFFFFFFFFFFFFFFFFFFFFFF AND CALLER PUSH20 0xFFFFFFFFFFFFFFFFFFFFFFFFFFFFFFFFFFFFFFFF AND PUSH32 0xDDF252AD1BE2C89B69C2B068FC378DAA952BA7F163C4A11628F55A4DF523B3EF DUP5 PUSH1 0x40 MLOAD PUSH2 0x7EE SWAP2 SWAP1 PUSH2 0xBA1 JUMP JUMPDEST PUSH1 0x40 MLOAD DUP1 SWAP2 SUB SWAP1 LOG3 PUSH1 0x1 SWAP1 POP SWAP3 SWAP2 POP POP JUMP JUMPDEST PUSH2 0x80A CALLER CALLVALUE PUSH2 0x901 JUMP JUMPDEST JUMP JUMPDEST PUSH1 0x5 PUSH1 0x20 MSTORE DUP2 PUSH1 0x0 MSTORE PUSH1 0x40 PUSH1 0x0 KECCAK256 PUSH1 0x20 MSTORE DUP1 PUSH1 0x0 MSTORE PUSH1 0x40 PUSH1 0x0 KECCAK256 PUSH1 0x0 SWAP2 POP SWAP2 POP POP SLOAD DUP2 JUMP JUMPDEST DUP1 PUSH1 0x4 PUSH1 0x0 DUP5 PUSH20 0xFFFFFFFFFFFFFFFFFFFFFFFFFFFFFFFFFFFFFFFF AND PUSH20 0xFFFFFFFFFFFFFFFFFFFFFFFFFFFFFFFFFFFFFFFF AND DUP2 MSTORE PUSH1 0x20 ADD SWAP1 DUP2 MSTORE PUSH1 0x20 ADD PUSH1 0x0 KECCAK256 PUSH1 0x0 DUP3 DUP3 SLOAD PUSH2 0x880 SWAP2 SWAP1 PUSH2 0xD6F JUMP JUMPDEST SWAP3 POP POP DUP2 SWAP1 SSTORE POP DUP1 PUSH1 0x3 PUSH1 0x0 DUP3 DUP3 SLOAD SUB SWAP3 POP POP DUP2 SWAP1 SSTORE POP PUSH1 0x0 PUSH20 0xFFFFFFFFFFFFFFFFFFFFFFFFFFFFFFFFFFFFFFFF AND DUP3 PUSH20 0xFFFFFFFFFFFFFFFFFFFFFFFFFFFFFFFFFFFFFFFF AND PUSH32 0xDDF252AD1BE2C89B69C2B068FC378DAA952BA7F163C4A11628F55A4DF523B3EF DUP4 PUSH1 0x40 MLOAD PUSH2 0x8F5 SWAP2 SWAP1 PUSH2 0xBA1 JUMP JUMPDEST PUSH1 0x40 MLOAD DUP1 SWAP2 SUB SWAP1 LOG3 POP POP JUMP JUMPDEST DUP1 PUSH1 0x3 PUSH1 0x0 DUP3 DUP3 SLOAD PUSH2 0x913 SWAP2 SWAP1 PUSH2 0xDA3 JUMP JUMPDEST SWAP3 POP POP DUP2 SWAP1 SSTORE POP DUP1 PUSH1 0x4 PUSH1 0x0 DUP5 PUSH20 0xFFFFFFFFFFFFFFFFFFFFFFFFFFFFFFFFFFFFFFFF AND PUSH20 0xFFFFFFFFFFFFFFFFFFFFFFFFFFFFFFFFFFFFFFFF AND DUP2 MSTORE PUSH1 0x20 ADD SWAP1 DUP2 MSTORE PUSH1 0x20 ADD PUSH1 0x0 KECCAK256 PUSH1 0x0 DUP3 DUP3 SLOAD ADD SWAP3 POP POP DUP2 SWAP1 SSTORE POP DUP2 PUSH20 0xFFFFFFFFFFFFFFFFFFFFFFFFFFFFFFFFFFFFFFFF AND PUSH1 0x0 PUSH20 0xFFFFFFFFFFFFFFFFFFFFFFFFFFFFFFFFFFFFFFFF AND PUSH32 0xDDF252AD1BE2C89B69C2B068FC378DAA952BA7F163C4A11628F55A4DF523B3EF DUP4 PUSH1 0x40 MLOAD PUSH2 0x9C5 SWAP2 SWAP1 PUSH2 0xBA1 JUMP JUMPDEST PUSH1 0x40 MLOAD DUP1 SWAP2 SUB SWAP1 LOG3 POP POP JUMP JUMPDEST PUSH1 0x0 DUP2 MLOAD SWAP1 POP SWAP2 SWAP1 POP JUMP JUMPDEST PUSH1 0x0 DUP3 DUP3 MSTORE PUSH1 0x20 DUP3 ADD SWAP1 POP SWAP3 SWAP2 POP POP JUMP JUMPDEST PUSH1 0x0 JUMPDEST DUP4 DUP2 LT ISZERO PUSH2 0xA0B JUMPI DUP1 DUP3 ADD MLOAD DUP2 DUP5 ADD MSTORE PUSH1 0x20 DUP2 ADD SWAP1 POP PUSH2 0x9F0 JUMP JUMPDEST PUSH1 0x0 DUP5 DUP5 ADD MSTORE POP POP POP POP JUMP JUMPDEST PUSH1 0x0 PUSH1 0x1F NOT PUSH1 0x1F DUP4 ADD AND SWAP1 POP SWAP2 SWAP1 POP JUMP JUMPDEST PUSH1 0x0 PUSH2 0xA33 DUP3 PUSH2 0x9D1 JUMP JUMPDEST PUSH2 0xA3D DUP2 DUP6 PUSH2 0x9DC JUMP JUMPDEST SWAP4 POP PUSH2 0xA4D DUP2 DUP6 PUSH1 0x20 DUP7 ADD PUSH2 0x9ED JUMP JUMPDEST PUSH2 0xA56 DUP2 PUSH2 0xA17 JUMP JUMPDEST DUP5 ADD SWAP2 POP POP SWAP3 SWAP2 POP POP JUMP JUMPDEST PUSH1 0x0 PUSH1 0x20 DUP3 ADD SWAP1 POP DUP2 DUP2 SUB PUSH1 0x0 DUP4 ADD MSTORE PUSH2 0xA7B DUP2 DUP5 PUSH2 0xA28 JUMP JUMPDEST SWAP1 POP SWAP3 SWAP2 POP POP JUMP JUMPDEST PUSH1 0x0 DUP1 REVERT JUMPDEST PUSH1 0x0 PUSH20 0xFFFFFFFFFFFFFFFFFFFFFFFFFFFFFFFFFFFFFFFF DUP3 AND SWAP1 POP SWAP2 SWAP1 POP JUMP JUMPDEST PUSH1 0x0 PUSH2 0xAB3 DUP3 PUSH2 0xA88 JUMP JUMPDEST SWAP1 POP SWAP2 SWAP1 POP JUMP JUMPDEST PUSH2 0xAC3 DUP2 PUSH2 0xAA8 JUMP JUMPDEST DUP2 EQ PUSH2 0xACE JUMPI PUSH1 0x0 DUP1 REVERT JUMPDEST POP JUMP JUMPDEST PUSH1 0x0 DUP2 CALLDATALOAD SWAP1 POP PUSH2 0xAE0 DUP2 PUSH2 0xABA JUMP JUMPDEST SWAP3 SWAP2 POP POP JUMP JUMPDEST PUSH1 0x0 DUP2 SWAP1 POP SWAP2 SWAP1 POP JUMP JUMPDEST PUSH2 0xAF9 DUP2 PUSH2 0xAE6 JUMP JUMPDEST DUP2 EQ PUSH2 0xB04 JUMPI PUSH1 0x0 DUP1 REVERT JUMPDEST POP JUMP JUMPDEST PUSH1 0x0 DUP2 CALLDATALOAD SWAP1 POP PUSH2 0xB16 DUP2 PUSH2 0xAF0 JUMP JUMPDEST SWAP3 SWAP2 POP POP JUMP JUMPDEST PUSH1 0x0 DUP1 PUSH1 0x40 DUP4 DUP6 SUB SLT ISZERO PUSH2 0xB33 JUMPI PUSH2 0xB32 PUSH2 0xA83 JUMP JUMPDEST JUMPDEST PUSH1 0x0 PUSH2 0xB41 DUP6 DUP3 DUP7 ADD PUSH2 0xAD1 JUMP JUMPDEST SWAP3 POP POP PUSH1 0x20 PUSH2 0xB52 DUP6 DUP3 DUP7 ADD PUSH2 0xB07 JUMP JUMPDEST SWAP2 POP POP SWAP3 POP SWAP3 SWAP1 POP JUMP JUMPDEST PUSH1 0x0 DUP2 ISZERO ISZERO SWAP1 POP SWAP2 SWAP1 POP JUMP JUMPDEST PUSH2 0xB71 DUP2 PUSH2 0xB5C JUMP JUMPDEST DUP3 MSTORE POP POP JUMP JUMPDEST PUSH1 0x0 PUSH1 0x20 DUP3 ADD SWAP1 POP PUSH2 0xB8C PUSH1 0x0 DUP4 ADD DUP5 PUSH2 0xB68 JUMP JUMPDEST SWAP3 SWAP2 POP POP JUMP JUMPDEST PUSH2 0xB9B DUP2 PUSH2 0xAE6 JUMP JUMPDEST DUP3 MSTORE POP POP JUMP JUMPDEST PUSH1 0x0 PUSH1 0x20 DUP3 ADD SWAP1 POP PUSH2 0xBB6 PUSH1 0x0 DUP4 ADD DUP5 PUSH2 0xB92 JUMP JUMPDEST SWAP3 SWAP2 POP POP JUMP JUMPDEST PUSH1 0x0 DUP1 PUSH1 0x0 PUSH1 0x60 DUP5 DUP7 SUB SLT ISZERO PUSH2 0xBD5 JUMPI PUSH2 0xBD4 PUSH2 0xA83 JUMP JUMPDEST JUMPDEST PUSH1 0x0 PUSH2 0xBE3 DUP7 DUP3 DUP8 ADD PUSH2 0xAD1 JUMP JUMPDEST SWAP4 POP POP PUSH1 0x20 PUSH2 0xBF4 DUP7 DUP3 DUP8 ADD PUSH2 0xAD1 JUMP JUMPDEST SWAP3 POP POP PUSH1 0x40 PUSH2 0xC05 DUP7 DUP3 DUP8 ADD PUSH2 0xB07 JUMP JUMPDEST SWAP2 POP POP SWAP3 POP SWAP3 POP SWAP3 JUMP JUMPDEST PUSH1 0x0 PUSH1 0x20 DUP3 DUP5 SUB SLT ISZERO PUSH2 0xC25 JUMPI PUSH2 0xC24 PUSH2 0xA83 JUMP JUMPDEST JUMPDEST PUSH1 0x0 PUSH2 0xC33 DUP5 DUP3 DUP6 ADD PUSH2 0xB07 JUMP JUMPDEST SWAP2 POP POP SWAP3 SWAP2 POP POP JUMP JUMPDEST PUSH1 0x0 PUSH1 0xFF DUP3 AND SWAP1 POP SWAP2 SWAP1 POP JUMP JUMPDEST PUSH2 0xC52 DUP2 PUSH2 0xC3C JUMP JUMPDEST DUP3 MSTORE POP POP JUMP JUMPDEST PUSH1 0x0 PUSH1 0x20 DUP3 ADD SWAP1 POP PUSH2 0xC6D PUSH1 0x0 DUP4 ADD DUP5 PUSH2 0xC49 JUMP JUMPDEST SWAP3 SWAP2 POP POP JUMP JUMPDEST PUSH1 0x0 PUSH1 0x20 DUP3 DUP5 SUB SLT ISZERO PUSH2 0xC89 JUMPI PUSH2 0xC88 PUSH2 0xA83 JUMP JUMPDEST JUMPDEST PUSH1 0x0 PUSH2 0xC97 DUP5 DUP3 DUP6 ADD PUSH2 0xAD1 JUMP JUMPDEST SWAP2 POP POP SWAP3 SWAP2 POP POP JUMP JUMPDEST PUSH1 0x0 DUP1 PUSH1 0x40 DUP4 DUP6 SUB SLT ISZERO PUSH2 0xCB7 JUMPI PUSH2 0xCB6 PUSH2 0xA83 JUMP JUMPDEST JUMPDEST PUSH1 0x0 PUSH2 0xCC5 DUP6 DUP3 DUP7 ADD PUSH2 0xAD1 JUMP JUMPDEST SWAP3 POP POP PUSH1 0x20 PUSH2 0xCD6 DUP6 DUP3 DUP7 ADD PUSH2 0xAD1 JUMP JUMPDEST SWAP2 POP POP SWAP3 POP SWAP3 SWAP1 POP JUMP JUMPDEST PUSH32 0x4E487B7100000000000000000000000000000000000000000000000000000000 PUSH1 0x0 MSTORE PUSH1 0x22 PUSH1 0x4 MSTORE PUSH1 0x24 PUSH1 0x0 REVERT JUMPDEST PUSH1 0x0 PUSH1 0x2 DUP3 DIV SWAP1 POP PUSH1 0x1 DUP3 AND DUP1 PUSH2 0xD27 JUMPI PUSH1 0x7F DUP3 AND SWAP2 POP JUMPDEST PUSH1 0x20 DUP3 LT DUP2 SUB PUSH2 0xD3A JUMPI PUSH2 0xD39 PUSH2 0xCE0 JUMP JUMPDEST JUMPDEST POP SWAP2 SWAP1 POP JUMP JUMPDEST PUSH32 0x4E487B7100000000000000000000000000000000000000000000000000000000 PUSH1 0x0 MSTORE PUSH1 0x11 PUSH1 0x4 MSTORE PUSH1 0x24 PUSH1 0x0 REVERT JUMPDEST PUSH1 0x0 PUSH2 0xD7A DUP3 PUSH2 0xAE6 JUMP JUMPDEST SWAP2 POP PUSH2 0xD85 DUP4 PUSH2 0xAE6 JUMP JUMPDEST SWAP3 POP DUP3 DUP3 SUB SWAP1 POP DUP2 DUP2 GT ISZERO PUSH2 0xD9D JUMPI PUSH2 0xD9C PUSH2 0xD40 JUMP JUMPDEST JUMPDEST SWAP3 SWAP2 POP POP JUMP JUMPDEST PUSH1 0x0 PUSH2 0xDAE DUP3 PUSH2 0xAE6 JUMP JUMPDEST SWAP2 POP PUSH2 0xDB9 DUP4 PUSH2 0xAE6 JUMP JUMPDEST SWAP3 POP DUP3 DUP3 ADD SWAP1 POP DUP1 DUP3 GT ISZERO PUSH2 0xDD1 JUMPI PUSH2 0xDD0 PUSH2 0xD40 JUMP JUMPDEST JUMPDEST SWAP3 SWAP2 POP POP JUMP INVALID LOG2 PUSH5 0x6970667358 0x22 SLT KECCAK256 PUSH27 0x53D0A8ED5A9AE0964E94B88348A26DED7542A6CEE054525D5321B8 SMOD SIGNEXTEND 0x26 0xBE PUSH5 0x736F6C6343 STOP ADDMOD SLT STOP CALLER LOG2 PUSH5 0x6970667358 0x22 SLT KECCAK256 SWAP3 INVALID 0xAE SSTORE ADD SAR MLOAD PUSH31 0x4442D04C41FAD942903F490ED624B1A495CDE34A470C92B464736F6C634300 ADDMOD SLT STOP CALLER "
				},
				"gasEstimates": {
					"creation": {
						"codeDepositCost": "1391000",
						"executionCost": "1451",
						"totalCost": "1392451"
					},
					"external": {
						"beforeEach()": "infinite",
						"checkSymbol()": "infinite",
						"checkTotalSupply()": "infinite"
					}
				},
				"methodIdentifiers": {
					"beforeEach()": "6331e7d4",
					"checkSymbol()": "aed8774b",
					"checkTotalSupply()": "a511eb2c"
				}
			},
			"storageLayout": {
				"storage": [
					{
						"astId": 940,
						"contract": "tests/WETH_test.sol:testSuite",
						"label": "weth",
						"offset": 0,
						"slot": "0",
						"type": "t_contract(WETH)153"
					}
				],
				"types": {
					"t_contract(WETH)153": {
						"encoding": "inplace",
						"label": "contract WETH",
						"numberOfBytes": "20"
					}
				}
			},
			"userdoc": {
				"kind": "user",
				"methods": {},
				"version": 1
			}
		}
	}
}